:020000041004E6
:1000000000000120ADC6051001CB051003CB051083
:1000100000000000000000000000000000000000E0
:1000200000000000000000000000000005CB0510EB
:10003000000000000000000007CB051009CB0510F0
:10004000430C0410A70D0410F70D04103B0E041010
:100050008B140410731D04101B200410BB2004100B
:1000600011CB0510DB3404109F390410CB3C041075
:10007000F73E04101BCB0510000000005DCB0510FF
:100080006BCB051025CB05104DCB051000000000F3
:1000900045CB0510000000000000000035CB051026
:1000A0003DCB051055CB05100000000000000000FE
:1000B0000000000000000000000000000000000040
:1000C000302D002078510000000008080600AA002A
:1000D000F7000000FFFFFFFF6400021008040204A5
:1000E000F700080000010102020101000001000305
:1000F00000040000060400009D3E05101D040000E1
:10010000DB3E0510010C0000173F05102D0C000010
:10011000413F0510480C0000A33F0510490C0000AA
:10012000E33F0510630C0000194005107B0C000034
:10013000454005107C0C0000A9400510011000008E
:100140000341051002100000754105100310000066
:10015000C7410510091000001142051005140000E8
:100160005F42051001200000BF4205100220000080
:10017000ED4205100320000041430510052000005A
:100180008743051006200000B74305100720000034
:1001900017440510082000005344051009200000F2
:1001A000874405100A200000BB4405100B20000006
:1001B000ED4405100C200000374505100D2000000F
:1001C0006B4505100E200000254605100F2000008D
:1001D000534605101020000097460510112000001E
:1001E000C746051012200000FB4605101320000032
:1001F0002D47051014200000C147051015200000F0
:10020000F3470510162000005F4805101720000076
:100210009748051018200000ED480510192000002F
:10022000334905101A200000834905101B200000E7
:10023000CF4905101C200000214A05101D20000098
:10024000694A05101E2000009D4A05101F2000006D
:10025000D54A051022200000154B05102320000070
:10026000734B051024200000C34B0510252000000F
:100270000B4C051026200000374C051027200000ED
:10028000634C0510282000009F4C05102920000019
:10029000D54C05102A200000074D05102B2000002A
:1002A000434D05102C2000008F4D05102D2000001F
:1002B000E34D05102E200000174E05102F200000E2
:1002C000554E051030200000C54E051031200000AD
:1002D0002F4F051032200000674F0510332000001B
:1002E000B94F051034200000F14F051035200000F3
:1002F0002B500510362000006150051037200000FB
:10030000EB500510382000002D5105103920000059
:10031000675105103A200000F95105103B200000FC
:10032000415205103C2000007F5205103D20000086
:10033000B35205103E200000E55205103F2000009A
:1003400031530510402000006D530510412000007E
:10035000B5530510422000006754051043200000EB
:10036000B1540510442000009D55051045200000A3
:10037000F7550510462000002956051047200000BB
:1003800067560510482000009F56051049200000C0
:10039000D75605104A200000095705104B200000D1
:1003A000475705104C2000008D5705104D200000C8
:1003B000E35705104E2000002D580510592000006D
:1003C000655805105A200000A55805105B20000054
:1003D000055905105C2000005D5905105D200000E6
:1003E000C3590510742000000D5A05107620000036
:1003F000435A051077200000B35A051078200000FA
:10040000EF5A0510792000004F5B05107A2000009C
:100410009D5B05107B200000ED5B05107C2000003B
:100420004B5C05107D200000815C05107E200000E3
:10043000EB5C05107F200000695D05108220000044
:10044000FB5D051083200000955E051084200000F0
:10045000075F051085200000655F051086200000FD
:100460005960051000FC0000CD60051001FC000083
:100470001161051002FC0000D56105100CFC0000A4
:10048000A36205100DFC0000DF6205100FFC0000E8
:100490006163051014FC0000A763051015FC000043
:1004A000E963051016FC00001F64051017FC00002E
:1004B0005164051018FC0000B56405101CFC000018
:1004C000F36405102BFC00003965051035FC0000B5
:1004D0008165051036FC0000C365051037FC00007F
:1004E0004B66051038FC00008566051060FC0000B6
:1004F000C5660510000000000000000005000000B7
:10050000E9300610000000000000000000000000BC
:100510000000000010000000013106101100000072
:100520001B310610000000000000000000F0071062
:1005300000080000AA02000000F80710F8070100F8
:100540000000000096C298D84539A1F4A033EB2DE5
:10055000817D0377F240A463E5E6BCF847422CE1D5
:10056000F2D1176BF551BF376840B6CBCE5E316B19
:100570005733CE2B169E0F7C4AEBE78E9B7F1AFEDD
:10058000E242E34F81C905108DC905105BC8051013
:10059000E1C8051001C7051099C705100200000049
:1005A000030000000300000006000000030000003C
:1005B000030000003C00000070000000700000001C
:1005C000D003000070000000C301000049D30510F3
:1005D0006B16041073450410C9140410511804104C
:1005E0004D15041055150410B9140410C11404104D
:1005F0002F3206103732061033320610A14901801F
:100600000020704780B500F061FA00F01BFB01BDCF
:10061000F0B587B005001224FE2805D10DA800789A
:10062000002801D012202BE10C9F684602720E00B8
:100630000492069339004DD1FE2D4ED0F02D24DAD0
:10064000042E22DC01A8801C009001AB5B1C02AAD6
:10065000D21C02A9491C280000F064FB002800D02D
:10066000D1E06846C0881421014014290DD06846A5
:10067000C0882040022808D06846C088C00605D53A
:10068000032E02D10498202810DBF8E0032E07D1B6
:10069000002469460C713900280000F087FA87E0D1
:1006A000042E03D06846007A0028EED06846407ACF
:1006B00000286FD0032EEBD0042E3DD10DA800787A
:1006C00001900097069B6846027A0421280000F0FA
:1006D00096F9D5E0012F3AD1FE2D2FD0042E1EDA47
:1006E00003A8009001AB5B1C01AA921C02A9491C43
:1006F000280000F017FB002838D168468089800761
:1007000003D46846007A002809D1684680892040D1
:10071000122805D1032E02D10498202806DBAEE072
:10072000032EB5D06846007A0028F8D06846407A93
:1007300000282FD0032EABD00C24A0E00120694666
:100740004872032EF9D104982028A1DB97E0042EEB
:10075000FCDC01A8801C009002AB9B1C01AA521C6F
:1007600002A9491C280000F0DDFA00284BD1684698
:1007700040790028E0D00498FD28E7DA032EDAD08B
:10078000042E9BD06846807A0028D5D16846007A2E
:10079000002874D00024300007D0022E05D001D3E9
:1007A000042EEED000D274E702E001206946087101
:1007B000009703AB9B1C68460279017A280000F081
:1007C000B0F90590002803D16846007A002806D1C8
:1007D0006846C089049941182B4A914215DB0DA83F
:1007E000007801900097002300220321280000F0E8
:1007F00006F93900280000F01AFA3900280000F044
:10080000D5F907203CE0422439E069460A7A069986
:10081000059B181800F0E2FA6846C0896946097A13
:100820004218022E12D0032E10D0012E27D10DA86F
:10083000007801900097002300220321280000F097
:10084000DEF83900280000F0F2F918E00DA8007871
:1008500001900097059B92B20321280000F0CFF889
:10086000040008D13900280000F0E1F9390028001F
:1008700000F0D2F903E03900280000F097F92000D9
:1008800007B0F0BD72060000730600001CB51A0028
:10089000049B002412E11CB51A00049B002401945F
:1008A00001240CE11CB500240194022407E1F1B5F8
:1008B00096B00D00140005A8402100F09DFA16A87E
:1008C0000078F02801DB12205DE002A8009001AB67
:1008D00001AA521C01A9891C16A8007800F022FA6E
:1008E000060001D042204EE06846057000F00AFA8A
:1008F00069460978884201D20C2044E00494694694
:100900004E70002405AF16E000F0CAF9060020D0B2
:10091000E00038182978017069784170A9788170F1
:10092000E978C170EA786968300000F057FA381D3C
:10093000E1004650641C68460078039084420CDA5B
:100940000498E1004518E878FA28DDDB07206946BD
:10095000487068464478002511E06846017805AA89
:1009600016A8007800F050FA04000BD0F3E700213D
:1009700005A8001DEA00805800F069F96D1C039875
:100980008542F4DB200017B0F0BDF8B584B0040058
:100990000F0015001E000BA80078F82804DA00F0FC
:1009A00097F90390002801D107201AE00BA80278DC
:1009B0000C99039800F012FA039802900BA80078A3
:1009C00001900AA80078009033002A003900200026
:1009D00000F034FA040003D00121039800F037F945
:1009E000200005B0F0BD80B5814201D000F0EAF8EA
:1009F000012002BD80B500F02AF9012002BD70B5CA
:100A00001500049A16000AD1FE2804D11900E8B294
:100A100000F044FB62BD2A0000F066FB62BD012AC3
:100A20000BD1FE2804D11900E8B200F0CBFB62BD67
:100A30001A00290000F0EAFB62BD2A0000F034FC35
:100A400062BD80B502000800D10706D5022100F082
:100A50005CF8012801D10C2002BD002002BDF8B5D0
:100A6000012817D100240F00160000E0641CBC42CE
:100A700010DA0620604335180021287800F045F888
:100A8000012805D00121287800F03FF80128EDD198
:100A90000C20F2BD0020F2BDE0B502000B000020EA
:100AA000019005E0E0B502000B000020019001205C
:100AB00000900321FE20FFF7ABFD0EBD01940094D2
:100AC000FFF7A6FD16BD1800500150010020FF21C0
:100AD000504A28234343D21811701175401C032833
:100AE000F6DB704710B503290DDA0022494B2824A4
:100AF000614359180B78834201D1881810BD142224
:100B00000B7D8342F9D0002010BD80B5FFF7EAFFCE
:100B1000002802D0C068002801D1002002BD0120B9
:100B200002BDFEB506000F0000241C8008A8017855
:100B30003000FFF7D7FF05000BD108A80178FF2090
:100B4000FFF7D0FF05001BD02E706C60AC60EC602E
:100B50002C826846007900280FD1686800280FD1E0
:100B6000E868002801D000F025FC38001AD000F019
:100B7000FBFB002817D03C0015E0E868002801D1F5
:100B80000020FEBD298AC91989B200F01FFC002887
:100B900005D0298A029A1180298ACC1903E0E868D5
:100BA00000F008FC00202C82E860FEBD10B5FFF7C5
:100BB00099FF040005D0E06800F0FCFB0020E06035
:100BC000208210BD002800D1704738B500250022D2
:100BD0000023104928245443091914245C430C1998
:100BE0006168814206D0A168814207D05B1C012B5D
:100BF000EFDD0AE000F0DEFB656031BD080000F0CB
:100C0000D9FBA560FF20207031BD521C022ADFDD18
:100C100031BD0000B02A002080B5FFF763FF002837
:100C200004D0C16881600021C160018201BD80B52E
:100C3000FFF758FF002803D08168416000218160E0
:100C400001BDFEE73648002141600170704730B5B4
:100C50000122334B0024002902D001290FD030BDDE
:100C6000F921614359180831884203D0641C082CCB
:100C7000F6D330BD5868A2409043586030BDF9218A
:100C800061435918FA25ED004919884203D0641CC4
:100C9000082CEEDAF3E71878A2409043187030BDC4
:100CA00010B500201E494A6801231400C4401C40AE
:100CB00002D0401C0828F8D3082801D1002010BD1C
:100CC000834013434B60F92250430818083010BD8D
:100CD00010B5002012490A780123012484402242E1
:100CE00002D0401C0828F8DB082801D1002010BDE4
:100CF000834013430B70F92250430818FA21C900AE
:100D0000401810BD00210020054A5368CB40DB0786
:100D100000D4401C491CCBB2082BF6D3C0B270479C
:100D20005C030020F0B587B003930292059107465B
:100D300000F096FB4D21415C090201220192120252
:100D40008B1800260C990491B518AB4221D001688C
:100D50008E19BE24345BBC422E46F5D1481901469B
:100D600032390978059A1170014648390988049A80
:100D70001180FF21C943401806A900F079FB002823
:100D800009D00298019901700698007A411E8841A5
:100D900004E0422005E000200299087003990870E1
:100DA000002007B0F0BDFEE770B4103A03D378C955
:100DB000103A78C0FBD2530701D318C918C001D527
:100DC00008C908C0D20704D30B880380891C801C83
:100DD000002A01D50B78037070BC70478B0701D1D6
:100DE0008307E1D0124205D00B78491C0370401CE8
:100DF000521EF9D17047FEE7002200BF094202D01F
:100E0000491E4254FCD170477CB514460D46064637
:100E10000120022100F03AFB002800D07CBD012116
:100E20000F22284600F040FB0028F7D168464670A4
:100E30000570019400F0D3FB7CBDFEE7F0B593B0E4
:100E40001C4615460F46129001200221109000F01A
:100E50001DFB002822D119980F9000268B4A12986A
:100E600031468B4B98470E9011947F24284631468B
:100E70002246874B98470D9707460E9807431198CF
:100E800031462246824B984704463C430F98FB224A
:100E900031467F4B98472043119C01D013B0F0BDE1
:100EA0000C950E96129800F065FF002814D0189D3E
:100EB0006B1C4669316B1290726B5A4350180002DA
:100EC0002721CF00C019734900F089FFF16A401A49
:100ED0003F3803D41220E1E74220DFE70B970A9561
:100EE00018360C98314600F0D1FF214604460846DA
:100EF000314600F0CBFF01460C20002CCED000295B
:100F00000F9E0D9FCAD0129A104681300178546905
:100F1000A08F324600F0CEFF0546606B00020B99B1
:100F200040185C4900F05BFFC04328183E3001D4F4
:100F30004520B3E71A9C11980C9B834209D10A986B
:100F4000009001960294129829463A4600F0C0FF9C
:100F5000A4E70395129845694420295AB9420E9A8C
:100F600007D246204C4A974298D100290E9A0F9EEC
:100F700094D1089412984230099028463F302C466C
:100F800044340B940690047804954C3507957F1CE7
:100F90000D92059709980588BAB2462095424AD81D
:100FA0000B9A937808D1119D0C9A954243D2E2B2E4
:100FB000AA423D460CD93EE00C9A93423BD3E2B2A2
:100FC000119EB24203D90C9A964234D26D1C0F9EE8
:100FD0008AB2ADB2954202D1119883422DD00D98BC
:100FE000002802D0462022461DE0079F38462946A9
:100FF000119E324600F0DEFF002800D04EE70F9829
:101000000090089801903846294632460A9B00F025
:10101000E5FF0E90FF2836D0069802780020109940
:101020000D910F9E059FD1B2E3B28B4203D00B9876
:1010300001881446AEE70E9F15E00D9800280E9F1C
:1010400007D0F8B20C214143049840185221FF23E5
:1010500043540A98009001960898029012980399B8
:10106000119B00F035FF002800D117E70D990029EA
:1010700000D113E7F9B20C224A430499891852228D
:10108000FF238B540AE7072008E7C046FF0E000045
:10109000A914041071020000FFFF0000F8B50C460F
:1010A000054600F0DDF9074600F0B8FF0C4E30466B
:1010B00000F0D2FF0B49884208D100F0E9FFFF2879
:1010C0000BD0000239680818BE2146520321304671
:1010D0002A46234600F008F8F8BD0120F8BDC046B6
:1010E000FCFF0000FFFF0000FEB5029314460F4610
:1010F000054600F0B5F906463048854201D11F206B
:1011000007E00120022100F0C1F9002800D0FEBD57
:101110002B481221A04201D20846FEBD019128466B
:1011200000F09AFF000231680E182046314600F0A8
:10113000E3FB0028EBD1CE20315C3820305C042F5B
:1011400012D1002938D00028019A1BD01B488542B3
:1011500018D1F08D002815D0B820305A1021014048
:1011600021431046D3D10FE035463835002911D040
:10117000032F09D102202870F4860020B08602993E
:101180003163FEBD1046FEBDB636304600F096FF18
:101190000020FEBD374628370028029A05D039685E
:1011A000A120029A00F09AFF029A3A60012028706A
:1011B000F4850020B085FEBD0198FEBDFCFF000057
:1011C00072060000F8B50C46054600F049F90746DE
:1011D00000F024FF0B4E304600F03EFF0A498842E3
:1011E00008D100F055FFFF280AD00002396808181E
:1011F000BE21465230462946224600F007F8F8BD87
:101200000120F8BDFCFF0000FFFF0000F8B5144608
:101210000D46074600F024F906462148874201D1D1
:101220001F2007E00120022100F030F9002800D043
:10123000F8BD1C48A84201D21220F8BD384600F083
:101240000BFF000231680E182846314600F054FBAF
:101250000028EDD1CE20305C002809D04C2002219E
:1012600031544A2035524821002070527464F8BD30
:101270004C20305C32464C3237463C37002806D092
:101280003968A1200092224600F028FF009A4220EF
:1012900035524021002070523C6001211170F8BD90
:1012A000FCFF00007206000080B500F07CF980BDF4
:1012B0006A4A5160116008801081002048804860AF
:1012C000704766490A68904203D1406808607047D9
:1012D0000A00002A04D051688142F9D14068506068
:1012E000704770B55D490A68002825D0002A01D1F1
:1012F000020021E0904202D24260020012E014009B
:1013000000E02C006568002D01D0A842F9D24560AC
:10131000606025886619864204D146686660068842
:10132000AD192580456804880319AB4204D16B6868
:1013300043602B88E31803800A6070BD10B502007B
:101340000C001088011B8BB20D2B0CD32000083829
:101350008008800010180830018000214180416021
:10136000FFF7BFFF200010BD38B500253B490968D5
:10137000401E03240443641DA4B209E00888A0426F
:1013800005DB002D02D02A88904200D20D0049686A
:101390000029F3D1002D0BD02800FFF792FF210088
:1013A0002800FFF7CBFF288001206880281D32BD70
:1013B000002032BD002800D1704780B50021831E77
:1013C00019800160001FFFF78CFF01BDF8B5040014
:1013D0000E00701E03210143491D271F38888BB260
:1013E000984204D389B23800FFF7A8FF1FE0091A1A
:1013F0006A461180001F8008800025181748416840
:10140000008980000818854214D26888002811D10C
:1014100028886946098888420CD32800FFF751FFC5
:10142000684601882800FFF789FF39880818388046
:101430002000F2BD3000FFF797FF05000BD03A887F
:10144000121F92B2964200DA3200210000F080FEB4
:101450002000FFF7AFFF2800F2BD0000B40000201D
:1014600002480068942140587047C046F42C002080
:1014700010B50C4600F0C3FE002804D02068C06FF1
:10148000411E884110BD002010BDFEE7054A1268CC
:101490003523D35C034201D00C20704735321170E4
:1014A00000207047142D0020904201D8884201D2BC
:1014B000122070470020704780B500F0ADFE02BDDD
:1014C00080B500F0CBFE02BD80B500F0EBFE01BDA3
:1014D00080B500F04FFF02BD80B500F04DFF02BDAA
:1014E00080B500F04BFF02BD80B500F049FF02BDA2
:1014F00080B500F047FF02BD80B500F045FF02BD9A
:1015000080B500F043FF02BD80B500F041FF02BD91
:1015100080B500F059FF02BD80B500F08FFF01BD1E
:101520001CB56C46247D01946C46247C009400F02C
:10153000EFFF13BD80B501F09BF801BD80B501F050
:10154000DFF802BD80B501F00FF902BD80B501F0F2
:1015500013F901BD80B501F02BF901BD1FB5089C41
:101560000294079C0194069C009401F03DF904B09C
:1015700010BD1CB5059C0194049C009401F092FAE6
:1015800016BD1CB56C46247D01946C46247C0094E9
:1015900001F0BEFB16BD80B501F01CFC01BD80B59D
:1015A00001F0A2FC01BD80B501F0B2FC02BD80B526
:1015B00001F040FD02BD80B501F0D6FE02BD80B550
:1015C00001F012FF01BD80B501F060FF02BD80B5E2
:1015D00001F05EFF02BD80B501F080FF01BD80B566
:1015E00001F0F8FF02BD80B502F028F902BD80B518
:1015F00002F045F901BD80B502F04DF901BD80B59D
:1016000002F06CF902BD80B502F06AF901BD80B547
:1016100002F096F901BD80B502F0AEF901BD1CB52E
:10162000049C009402F0BCF913BD80B502F078FA76
:1016300001BD80B502F04AFB01BD80B502F04EFB52
:1016400001BD80B502F06EFB02BD80B502F0B6FBB5
:1016500002BD80B502F0ECFB01BD80B502F0F4FBE9
:1016600001BD80B502F03AFC01BD80B502F044FC3A
:1016700001BD80B502F0D4FC02BD80B502F0D2FC01
:1016800001BD80B502F0F8FC01BD80B502F010FD8F
:1016900001BD80B502F022FD01BD80B502F036FD2E
:1016A00001BD80B502F04AFD01BD80B502F050FDDC
:1016B00002BD80B502F056FD02BD80B502F096FE77
:1016C00001BD80B502F0B4FE01BD80B502F0E4FEBC
:1016D00002BD80B502F0E8FE01BD80B502F0F8FE63
:1016E00001BD80B502F008FF01BD80B502F018FF12
:1016F00002BD80B502F03EFF01BD80B503F0B4F835
:1017000001BD1CB56C46247C009403F0BBF813BDEE
:1017100080B503F0DFF801BD80B503F0F3F801BD3B
:1017200080B503F063F902BD80B503F07DF902BD19
:1017300080B503F095F902BD80B503F0BBF902BD99
:1017400080B503F003FA01BD80B503F031FA01BDA5
:1017500080B503F061FA01BD80B503F0A9FA02BDBE
:1017600080B503F0ACFA02BD1CB5059C01946C4633
:10177000247C009403F0AAFA16BD80B503F0A0FB08
:1017800001BD80B503F0EAFB01BD80B503F03EFC6E
:1017900001BD80B503F0A6FC01BD80B503F0EAFCF5
:1017A00001BD80B503F002FD01BD80B503F060FD11
:1017B00002BD1CB56C46247C009403F0A4FD13BD4F
:1017C00080B503F0E3FD01BD80B503F011FE02BD5D
:1017D00080B503F03FFE02BD80B503F04EFE01BDB3
:1017E00080B503F05BFE01BD80B503F06EFE02BD67
:1017F00080B503F0C3FE01BD80B503F0C7FE01BD97
:1018000080B503F0CEFE02BD80B503F0E1FE01BD60
:1018100080B503F009FF01BD80B503F015FF02BDDF
:1018200080B503F058FF02BD80B503F057FF01BD3E
:1018300080B503F061FF01BD80B503F0ABFF01BDD2
:1018400080B503F0FFFF01BD80B504F055F801BD80
:1018500080B504F059F801BD80B504F0E5F801BD8C
:1018600080B504F011F901BD80B504F032F901BD75
:1018700080B504F04BF901BD80B504F07BF901BDE2
:1018800080B504F099F901BD80B504F015FA02BDE8
:1018900080B504F00FFB01BD80B504F013FB02BD61
:1018A00080B504F025FB02BD80B504F023FB01BD2B
:1018B00080B504F069FB02BD80B504F0A7FB01BD53
:1018C00080B504F0ABFB02BD80B504F0B1FB02BDF6
:1018D00080B504F0DDFB01BD80B504F053FC01BD13
:1018E00080B504F089FC01BD80B504F0C1FC01BDE8
:1018F00080B504F0F7FC02BD80B504F02BFD02BDFD
:1019000080B504F03BFD01BD80B504F0F7FD02BDDC
:1019100080B504F0F5FD02BD80B504F04BFE02BDBC
:1019200080B504F09FFE02BD80B504F0B5FE02BD97
:1019300018B587B010AC247806940FAC24780594C1
:101940000EAC247804940DAC247803940CAC247869
:1019500002940BAC247801940AAC2478009404F02F
:1019600027FF08B010BD80B504F050FF02BD3EB5A2
:101970006C46247F01946D4618242C57009404F083
:1019800049FF3EBD80B504F04DFF02BD80B504F0B7
:101990004DFF02BD80B504F04DFF02BD80B504F0DF
:1019A0004DFF02BD80B504F0F7FF02BD80B505F024
:1019B00029F802BD80B505F02BF802BD80B505F011
:1019C00036F802BD80B505F03DF802BD80B505F0E2
:1019D0003DF802BD10B588B011AC2488079410AC56
:1019E000248806946C46A48F05946C46248F049436
:1019F0006C46A48E03946C46248E02940BAC24781F
:101A000001940A9C009405F02DF808B010BD80B533
:101A100005F05BF802BD1CB5059C01946C46247C66
:101A2000009405F056F816BD1FB5099C039408AC48
:101A300024780294079C01946C46247E009405F05F
:101A400062F804B010BD80B505F0AAF802BD80B5FB
:101A500005F0C4F802BD80B505F0CFF802BD80B531
:101A600005F0DAF802BD80B505F0F2F802BD80B5E8
:101A700005F014F902BD80B505F014F902BD38B5C2
:101A80008CB01B9C0B941AAC24780A9419AC247863
:101A9000099418AC2478089417AC2478079416ACF1
:101AA000247806946D4654242C57059414AC24785D
:101AB0000494139C039412AC2478029411AC2478FF
:101AC000019410AC2478009405F0F0F80DB030BD0E
:101AD00038B58EB01F9C0D941EAC24780C941DACB0
:101AE00024780B941CAC24780A941BAC24780994B9
:101AF0001AAC2478089419AC2478079418AC24788C
:101B000006946D465C242C57059416AC24780494F6
:101B1000159C039414AC2478029413AC247801949B
:101B200012AC2478009405F0E3F80FB030BD80B516
:101B300005F092F902BD80B505F092F902BD80B5BD
:101B400005F0DCF902BD80B505F0E6F902BD80B50F
:101B500005F0EFF902BD80B505F0F6F902BD80B5DC
:101B600005F0F8F902BD80B505F0F8F902BD80B5C1
:101B700005F0F8F902BD80B505F0F8F902BD80B5B1
:101B800005F00CFA02BD18B585B00CAC24780494AD
:101B90000BAC247803940AAC2478029409AC247822
:101BA000019408AC2478009405F016FA06B010BD34
:101BB00080B505F093FA02BD80B505F0A3FA02BD29
:101BC00080B505F0A5FA02BD1CB56C46247C0094D6
:101BD00005F0B4FA16BD80B505F0BBFA02BD80B5BC
:101BE00005F0BBFA02BD1CB56C46A48A01946C4694
:101BF000247C009405F0B5FA16BD80B505F0B9FA5D
:101C000002BD80B505F0B9FA02BD80B505F0B9FA9C
:101C100002BD80B505F0BEFA02BD1CB56C46248A33
:101C2000009405F0BBFA16BD80B505F0C3FA02BDFD
:101C300080B505F0E1FA02BD80B505F0ECFA02BD11
:101C400080B505F0ECFA02BD80B505F0EFFA02BDF3
:101C500080B505F0FDFA02BD80B505F00BFB02BDB5
:101C600080B505F00FFB02BD80B505F016FB02BD87
:101C700080B505F01DFB02BD80B505F025FB02BD5A
:101C800080B505F032FB02BD1FB508AC2478029484
:101C90006C46A48B01946C46248B009405F030FBB9
:101CA00004B010BD80B505F044FB02BD80B505F061
:101CB0004BFB02BD80B505F054FB02BD80B505F0BD
:101CC0005EFB02BD80B505F06BFB02BD80B505F083
:101CD00076FB02BD1CB56C46247C009405F082FBAB
:101CE00016BD80B505F097FB02BD80B505F0A8FBD9
:101CF00002BD80B505F0B9FB02BD1FB56C46248C52
:101D000002946C46A48B01946C46248B009405F0DD
:101D1000C2FB04B010BD1CB56C46248A009405F0CB
:101D2000C5FB16BD1CB56C46A48A01946C46248A7A
:101D3000009405F0C1FB16BD80B505F0C5FB02BDE2
:101D400080B505F0D8FB02BD30B585B06D463024B6
:101D50002C5704940B9C03940AAC2478029409AC8D
:101D60002478019408AC2478009405F0DDFB05B0DC
:101D700030BDFEE70B490968942289584968896B90
:101D8000096809688C39084A927F521C521E05D096
:101D9000D623CB5A8C318342F8D100E0002108468B
:101DA0007047C046F42C00202C2C0020F44600285C
:101DB00004D4494200F013F84042604740420029F1
:101DC00005D45FD000F00BF84042494260474942D9
:101DD00000F005F84942604703460B43E6D4002271
:101DE000030A8B420BD203098B4219D243088B4260
:101DF0002ED2411A00D20146524110467047FF22AE
:101E000009023FD012068B4205D3121209028B42FF
:101E100001D31212090203098B4219D300E0090A07
:101E2000C3098B4201D3CB01C01A524183098B42B3
:101E300001D38B01C01A524143098B4201D34B019C
:101E4000C01A524103098B4201D30B01C01A5241FF
:101E5000C3088B4201D3CB00C01A524183088B4286
:101E600001D38B00C01A524143088B4201D34B006F
:101E7000C01A5241884200D3401A5241CFD2014683
:101E80001046704708B505F071FB08BD202801D247
:101E9000002209E0602801D3032200E0022240284A
:101EA00000D201221F23184092008958C14001200E
:101EB0000840704780B50B46400601D5032000E07E
:101EC00001208018C1B20022184605F051FB80BDE8
:101ED000F0B58FB01D4616460D91074644690E9425
:101EE0004C34204611461A4600F064F8002854D1BC
:101EF0000A9409950897149D0E9C206B616B6943A9
:101F0000081800022721C90040182549FFF767FF7C
:101F10000C90206C0B9005F0BFFB074605F0DAFB38
:101F2000C0190C990B9A8F18F94341184620323189
:101F300033D50C95214644310A88B2422DD18B7895
:101F40003146099A93420A9E27D12546AC34169809
:101F5000159B0093019030460C9B00F03FF8607099
:101F6000FF2819D02078E96A0E4A07920E4A069295
:101F70000E4A05920E4A04920A2203920292019797
:101F800000918D2208990D9B05F0AAFB2178384617
:101F900005F0E2FB002000E007200FB0F0BDC046D6
:101FA00071020000452006101F3606109D260610FF
:101FB00047360610B0B55F23DB43002B0AD0C418A8
:101FC0006425655B8D4203D16625645D944203D030
:101FD0000C33F2E70020B0BD0C20B0BDFCB5009280
:101FE00001910025089F079A2C46602D06D04619BE
:101FF000B179FF2904D00C35641CF6E7FF240AE010
:10200000EFF3108172B647513272F3710098B071DC
:102010000198B08062B6E0B2FCBDFEE71FB50C4887
:1020200000F01AF80B49884210D16C460021217249
:102030000120C002208007200002019020460930C4
:10204000062205F0AEFA204605F096FB1FBDC046FD
:10205000FCFF0000FFFF000070B50446FFF700FA28
:102060004D21415C094D0022BE2391420BD00668F0
:10207000F65AA642164600D02E4601252D025B19BF
:10208000521C3546F1E7A8B270BDC046FFFF000004
:1020900010B5FFF7E5F94D21425C0021BE238A42CD
:1020A00008D00468E45A240B05D1012424021B192A
:1020B000491CF4E7FF21C8B210BDFEE710B5044685
:1020C000002005F0C7FB044901402088401A424225
:1020D00042414A40228010BDFF0F0000F8B504467F
:1020E000C0062DD416460D46184800686107C90E73
:1020F0004018006932220423214605F0B3FB002872
:1021000020D001460A300671057000274F72102258
:102110000A72CF710A228A71FF224A7182220A71E1
:10212000320EC271320C8271320A42712A0EC270B2
:102130002A0C82702A0A4270204605F0F3FB02E066
:10214000862700E007273846F8BDC046182D002036
:102150008B0707D0521E22D30B78491C0370401CFA
:102160008B07F7D1830730D0DB4219D0401E121FF6
:1021700008D308C943701B0A43801B0C0371001D60
:10218000121FF6D2D20707D30B88437001D08A788A
:10219000C2701B0A8370704701D00B784370704780
:1021A000121F06D308C903801B0C4380001D121F99
:1021B000F8D2D20705D30B88038005D08B788370C3
:1021C000704701D00B780370704770B4103A03D396
:1021D00078C978C0103AFBD2530701D318C918C088
:1021E00001D508C908C0D20704D30B880380801C1E
:1021F000891C002A01D50B78037070BC7047002839
:1022000007D0006D002804D0406D0860411E884151
:102210007047002008607047B0B50868832400212B
:1022200000280AD0C5690024C46105F088FB01219B
:1022300000282846F4D083240CE0C8070AD0EFF326
:10224000108072B6044800688921425C521E4254D4
:1022500062B60024E0B2B0BDF42C002010B50C68CA
:10226000207BC00708D000210122204605F075FB25
:10227000207BFE2101402173204605F081FB0028D0
:1022800001D0832010BDEFF3108072B604480068BF
:102290008821425C521E425462B6002010BDC046E6
:1022A000F42C0020F8B50024204605F09DFB0546DF
:1022B00001222F4B2746009218683421405C84424B
:1022C0004FD22C20285CFE21014002293DD119204B
:1022D0000601A85B80060CD5698F002005F092FBF3
:1022E0003A28009A10462ED0A8190188202291433E
:1022F00001802846FFF778FA0028009A104622D17C
:102300002846FFF70DFB009A002810461BD1E6B2C5
:102310003046FFF775FA009A0028104613D1304670
:10232000FFF77AFA009A002810460CD1284605F0EB
:10233000A4FB009A0028104605D13046FFF7A4FA06
:10234000009A411E88410A4B00E00020411E88414E
:102350003906174600D107463320C0002D18641CEB
:10236000AAE7380603D00320012105F089FBF8BD58
:10237000142D002003207047012070470120704772
:1023800001207047012070470120704701207047ED
:1023900070B50B4C012504222046294605F086FB2A
:1023A000084E306006222046294605F07FFB316842
:1023B000086030680168002088804880087070BD1F
:1023C000282C0020102D0020F8B5184C01250422DF
:1023D000174E20462946B047164F38601022204637
:1023E0002946B047396808600C2220462946B04784
:1023F00039680968C860104DE98924222046B04731
:10240000014638680268D06881600021082903D03D
:1024100000235352891CF9E7E989D18000211181F9
:10242000E989418005F054FBF8BDC046282C002006
:10243000AD7A04101C2D00202C2C0020F0B589B0A2
:102440000546487F012861D10C462F462C37294686
:10245000803138780228059106D12069C11C06A870
:102460000A2205F09AF81CE0E068C11C06AE0A22B8
:10247000304605F092F8B3883188E86CF2883689E6
:10248000009201960A4605F03EFB002809D03879F3
:1024900005F062FB059840680168012291430160E4
:1024A00032E02E46F83606A8018800890003F2883B
:1024B0008A4212D106AA92882B8F934211D106AA82
:1024C000D288049232880393049B9A42039B07D1DB
:1024D000AA6E82421A4604D111E006AA928800E050
:1024E0001A462A87F1806866A86606A8C0887080A8
:1024F000308001200002059A116801431160F98AB9
:1025000006A805F03BFBB0800020607709B0F0BD65
:10251000F0B589B0012B00D0A2E000AB07C30F9942
:102520000E98039029204F4C205C421E9041084396
:10253000E17F089105F03AFB0690E67A04960127C0
:102540001821494C3846A0472346484C2168942519
:102550004959C86338213846984721684959C96B99
:1025600008603320C400304621463F4A90473F4927
:1025700009684959C96B48600898874005F01CFBF9
:10258000F8B20821384A90473849096808954959EE
:10259000C96B0968242200268E54086224314F70CA
:1025A0000594049844430794069D089C0798B042FC
:1025B0001BD001273846294605F00EFB2B49096838
:1025C0000959C96B496889198422885038462946B7
:1025D00005F002FB254909680959C96B4968891941
:1025E0008822885005983618E0E700980128049C56
:1025F00009D10E21204605F0EFFA1C490968089A16
:102600008958C96B88600198012809D108212046A2
:1026100005F0E2FA15490968089A8958C96BC8603B
:10262000029801280FD12021204605F0D5FA0F4D40
:102630002968089A8958C96B08610120112105F0A1
:10264000CBFA296848660398012809D11C21204645
:1026500005F0C2FA05490968089A8958C96B4861AA
:1026600009B0F0BD2C2C0020D97B0410F42C0020E4
:10267000FEB5029101902148006800273C46942550
:102680004159C96B096824228A5C944234D2096A90
:10269000CA5D012A0FD1CE19B279C0231340402B55
:1026A00009D1C95972680023029805F09FFA0028E1
:1026B00004D1124800680837641CE0E701980768F5
:1026C00040680290304605F0B5FA0646EFF31080F8
:1026D00072B60A4800684059C06B00682030E1B209
:1026E00005F0CEFA3846029C214605F0E7FA62B6BC
:1026F000B4203750B4367460FEBDC046F42C0020C0
:10270000F8B516460F46044605F0ECFA0546FC20DF
:10271000225A3846294605F0F0FAA84201D146432C
:1027200002E0711E4D432E180125012E1AD0C9203A
:102730004700204605F0F2FAB042014600D3314688
:10274000E219002800D131461088C00709D0423470
:1027500020885288101A80B2022803D3451E8D4269
:1027600000D30D462846F8BDB0B50446322505F025
:1027700003FB44550020B0BD70B50024204605F091
:1027800033F90546094E30683421415C8C420CD245
:10279000E321695CC90703D0284605F0F7FA3068E1
:1027A0003321C9006D18641CEEE770BD142D0020A4
:1027B00070B50024204605F017F90546094E30682B
:1027C0003421405C84420CD2284605F087FB002867
:1027D00002D0284605F082FB3320C0002D18641C6F
:1027E000EDE770BD142D0020F0B597B0109315469D
:1027F0000C461190002600960196012702223046D1
:1028000039460E92334605F0ADFD0F94E41E614249
:102810006141FF20FD22144200D03CE1002D00D197
:1028200039E10C9507911C98016806914068089061
:10283000119806C8CBB21E980A901D980B90119162
:10284000080630460D9210D0100CC1B2402900D3BA
:102850000027581E424242411740C02001404039E3
:102860004842484110403E460D9A05930C9949074D
:102870008A4B1A400B9F119B3B607A600A9B002B8E
:1028800001D080221A70C90F0991854909689425E1
:10289000495989685D228A5C002A15D0002E13D020
:1028A0000998002800D0EBE001230F980328109925
:1028B00003D10846184000D1E3E00E980140079884
:1028C000081800D0DCE0DCE0002A4AD0002848D01C
:1028D0000D9B1693119A159214A800270770096A88
:1028E00003C912AE07970097019605F03DFD611EE2
:1028F0008C410C990E0926400124002869D06848B3
:10290000006840598268106A006812A90978C900F5
:1029100043180720185600280C94214607980746AC
:102920000B9C67D519787F20084013A908702821CF
:1029300041431368526859182623C95CC9005318CB
:102940005B685158DA0F554F3B400AC414A90A700E
:102950000A99083C002900D00870002001460C9F0D
:1029600048E006430AD00798009010980190069816
:102970000290089803900598119924E0089E119CF4
:1029800020460D9905F054FD0106109F13D428210F
:102990004143434800684059806800684018252139
:1029A000445C05F069FD41424141002C00D0012109
:1029B000119C012964D10798009001970698029014
:1029C0000396059821460D9A099B05F061FD034683
:1029D00057E015A805F08CFD002E51D00C9414A8DA
:1029E000009013AA11980D990B9C234605F0A0FDA9
:1029F00000210F4623780E9D2B43099A002A12D1FD
:102A000011930123109C23405A425A4125406B42A6
:102A10006B410F9C032C00D01A4600290C9B15D04B
:102A2000002A2BD12CE0411E8841002F00D10C90B0
:102A30000C980128089923D12068069A90421FD14A
:102A400060684840154908421AD11AE00446411E00
:102A50008C41002F184600D1204601280AD114A825
:102A60000078411E8841002A00D10346002B119BAB
:102A700006D006E068426841064201D0FE2300E02D
:102A8000FF23012100910193022200201C460346EE
:102A900005F068FC204617B0F0BDC046FFFFFF0000
:102AA000F42C0020F0B58FB00693089207910446ED
:102AB00000270097019702220125384629460492F3
:102AC0002B4605F04FFC2668059462683006159881
:102AD0000A90149C099414D01446100CC1B2C02062
:102AE00008404038474247413346F0B2421E504208
:102AF0005041402900D30025074005402246099C4B
:102B000001E033463D468020039020707E49104608
:102B100008401C460A990B6048607C4B1868942159
:102B20000E46405880685D21415C002917D0002D79
:102B300015D075490898C00700D0D8E0012607983D
:102B4000022800D2D4E006980068844200D0CEE08B
:102B5000069840685040084200D0C8E0C8E000290C
:102B600015D0002F13D00E920D94079F032F21D163
:102B70000CA8009020461146099A0A9C234605F0AD
:102B8000D7FC002861D0267804980643B0E0781E70
:102B900087413D4330D02046114605F049FC43B201
:102BA000002B0799099A059800D4137000920A9A8D
:102BB000019244E0016A03C913460BAA002500955F
:102BC00001922246059305F0CFFB002842D04F4BDF
:102BD000186880598068006A00680BA90978C900E4
:102BE000411807200856002838D40999039A0A701A
:102BF000012600210A9B50E01C46059F03CF083F99
:102C000005F016FC0106079D13D4216889598968CF
:102C10000968099A10702822424388182521445CCB
:102C200005F02AFC41424141002C00D0012101293C
:102C30005DD1099800900A98019038462946089A73
:102C4000069B05F0BFFC064652E0089800284ED1CE
:102C5000FE264DE00DA805F04BFC48E009787F22E8
:102C60000A4009990A700CA90D70282151431A686D
:102C7000925992681368526859182623C95CC90092
:102C800053185B685258D90F1F4E33400A9E0CC62A
:102C9000083E3346049E1643F6B2089AD2070FD177
:102CA00006990878012810D18879C021014040296F
:102CB00006990AD1086884420A4605990BD010E0AB
:102CC000002814D5002913D111E008680A461968B4
:102CD000814206D15968506848400B490840454236
:102CE0004541FD20074078427841284300D1FF2626
:102CF000012100910196002002220B4605F032FBD3
:102D000030460FB0F0BDC046FFFFFF00F42C00209E
:102D1000F0B585B01E460392049107460025009544
:102D2000019501240222284621460292134605F00D
:102D300019FB0320800506CF1040A3054340C8B20D
:102D40006040C318584258413768B94203D173688C
:102D500053401B0232D0002817D01D48006894232E
:102D6000C05880685D23C35C002B10D00B9B2826C5
:102D70005E43006880191030012304F037FF0028FB
:102D800005D00298074339460CE0FF210AE003987A
:102D90008007E9430028084600D5E043049A032A47
:102DA00000D00146CDB200940195002002222146B8
:102DB000134605F0D7FA284605B0F0BD0A9A002858
:102DC000084601D10298C0439207EAD4EAE7C04618
:102DD000F42C0020F0B58FB0012800D080E001294C
:102DE0007ED11D461746FEF73BFB002878D00068D1
:102DF0000A90002874D02878012871D168780128B9
:102E00006ED18021374C3846A04722460890AE78D4
:102E1000EC78902138460691154690470590102190
:102E20003846A8470D9021013846A8470490B100C4
:102E30003846A847039038463146A8470290E1003B
:102E4000600001900796730000250E9509970E9873
:102E5000B84245D00E9800020A9A1018006D00285A
:102E600039D07F240C952C400B9020010D9A10181E
:102E70002546019A5543ED00049A57195C436400B6
:102E8000039A15190E9EF401089A1419069A7243B2
:102E9000059EB618A667FF2262720B9A54650E9AB9
:102EA0005206520D0D9CA218B26108320B96F261C7
:102EB0000022102A06D08750841865607F18ED180C
:102EC0000832F6E707980E9A5043029A10180B9AA8
:102ED0009063099F0C9D6D1C0E98401C0E90B6E7E8
:102EE0000FB0F0BDD97B041080B5FEF7B9FA4D21C3
:102EF000415C00685030002909D00268526D0023FF
:102F0000D3671372012212028018491EF3E780BDB5
:102F1000F0B587B0059317460C4606460025EF220C
:102F20002946FEF7C1FA0146002819D103950497F6
:102F3000059D3046FFF790F83D4988420DD00602C6
:102F4000FEF78EFA0068801906A9FEF791FA0028AC
:102F500005D00698417A002905D0422100E00C21D5
:102F6000084607B0F0BD866F37460837384605F08B
:102F70006DFB03460698027A042C11D11221002A17
:102F8000EED0002BECD00297049F002FE8D1F289FD
:102F9000002AE5D0017A00292E46039C30D137E083
:102FA00002932249002A024601D002465032166896
:102FB000039B00930AB2049905F04CFB864201D2B0
:102FC0004521CDE76F210698415C002909D00146D3
:102FD0006F314B780A7901210091049905F03AFB91
:102FE00006982E46029A0297017A00290CD0032CEB
:102FF000049A039C04D10298314605F040FB0698E0
:10300000801DFFF75BF80EE0002A049F039C05D0AB
:1030100002980168A1203246FFF760F80298314615
:103020003A4605F033FB21469AE7C04681FF00008F
:10303000FFFF0000F0B5B9B0044615A9FEF718FA75
:103040000021002800D180E11598007A002800D1E5
:103050007BE1A0202558204605F01FFB401915995B
:103060000A7A012A074600D04F6DFA43821807D426
:103070000C6DC01B2146FEF7B2FE401C6043C71911
:10308000781B14A913AA05F015FB1498400B4142B4
:1030900041410B91159D287A012800D054E12E461C
:1030A0006036AB4801211291017002200F90287206
:1030B0006F65A848006894214458483428460E306B
:1030C0001090052721463A4604F067FA28465C30FE
:1030D00021463A4604F061FA284614300990214608
:1030E00005F020FB05F03AFB3178400108433070D1
:1030F00005F03EFB7070010AB170010CF170000E1A
:103100003071129805F03FFB7071010AB171002710
:1031100077813781000CF0717078B178F27833796B
:103120003897090208181104401819064018089029
:10313000379070791190B0790D90F0790E90347BC2
:1031400035A9FF2048700A910C7005F023FB3497D5
:10315000339032970C9528463C3031902C97686D0F
:103160002B906D7A2046109905F025FD0D980002F0
:103170001199401811900E9800040D902BA831A9B8
:1031800033AA0E95002D0C9D1CD0031D091D101D8A
:103190000A9A521C23AC229425AC219427AC20948B
:1031A00029AC1F9436AC1E941D932DAB1C932FABF2
:1031B00018AC0FC437A81790169516A8FEF70BFA8F
:1031C0000F9A24E0002400947E20C2432846214622
:1031D000234605F03FFAA96F01220F920A702F9043
:1031E0005D4829905D4827905D4825905D48239073
:1031F000286D2D907289307B00940899019102947A
:103200000999234605F0D6FD0F9A36A90870119842
:103210000D9944180F929000119035AE1198B84254
:1032200021D0002F129D00D0022537A8C259307836
:1032300048490968497A002305930695002F01D073
:10324000092500E00E25049531ADED19039533AD48
:10325000ED190295109D01950093234605F0DDFDC3
:10326000761C3F1DDAE70C9DE86FC721405C05F036
:10327000CBFE044635A80078214605F060FD0E9F80
:10328000002F07D035A84078214605F023FD2846B9
:1032900005F0C8FE3698A87235AC0F9E002E07D0F8
:1032A00036A80178207805F0C8FC641C761EF5E786
:1032B000284605F0C6FE002F01D00B2500E01B2597
:1032C000002F01D0082600E007268824002735A813
:1032D00012901198B84237D00D940E960F952FA8E2
:1032E000C3592DA8C2592BA8C059109029A8C55957
:1032F00027A8C65925A8C45923A8C15912980078EF
:103300000495059606940791042F03D00C990F9D00
:103310000E9E02E007260C990F9DF4B20394042F31
:1033200000D10A25ECB20092109A01920294042F67
:1033300001D00D9C00E00824E2B204F0D1F912980B
:10334000401C12903F1DC4E70B99084639B0F0BDF0
:103350002C2D0020F42C0020F7330610D533061056
:10336000B5140610CB330610FEB50446007A0228C9
:1033700035D10D4627466837E06F05F08EF979881C
:103380000291666D1749097800290FD14019F14360
:1033900041180BD4801B216D0191FEF720FD401CCC
:1033A000029909180291019941438E19711B204617
:1033B000583001252A4605F045FE0A4E317801298C
:1033C0000AD1616D091A6165387905F073FE002034
:1033D00030702046FEF70FF90298388000E0002593
:1033E0002846FEBD2C2D0020F8B50E460446C76FBA
:1033F000480701D4002503E07520205C10700125EA
:103400003007009206D55119E3880122384605F0AD
:1034100059FEAD1CC437F00608D500984019FB785A
:10342000A27AA16F496805F05BFEED1C700601D41D
:10343000009905E0387805F075FE009948556D1C37
:1034400070B2002800D4F8BDE07A002813D008201C
:1034500048550F464E1928207070B01C21460E3179
:10346000052204F09AF8F01D21460C31022204F0E6
:1034700094F8093500E00F46204605F05CFE002870
:10348000E1D07919204605F05FFEF8BD01207047B4
:1034900070B5002802D1084605F058FE0446002009
:1034A000002C19D0A56F4221695CFF2914D02E464B
:1034B0004036307805F05EFE707805F063FEEFF37D
:1034C000108072B6617A00222846134605F06CFE21
:1034D00062B6FF20B070012070BDFEE7F0B58FB07E
:1034E00005684168089181680A91C1680B9101697A
:1034F00007914169069181690E91C169026A099239
:10350000476A0397866A0496C26A0592006B0D901B
:10351000AC6F60680C90284605F07CFEF9212846C7
:1035200005F0A2FE24493960244931603E30069EF0
:1035300030602348059F38600E980C99016021493E
:103540000D980160227C2846214605F0B6FE1E49F2
:10355000039A51601D49049A516070601C4878605C
:103560000E980C9941600D98164941608C20205CA2
:10357000079908706A202A5A28466A308078697A42
:10358000089F3B68A66B00910193029614350123B6
:10359000294605F00FFC0999087005F0B3FE0A9959
:1035A0000860204624300B99086005F0E1F820609F
:1035B00078600FB0F0BDC046011D0610C33506107F
:1035C0004D1B06105B340610911B06109B35061030
:1035D00055190610F0B595B007464078FEF73CFD4A
:1035E0009449884251D00402FDF73AFF006800195F
:1035F00014A9FDF73DFF0C23002847D01498427A08
:103600001292002A42D00793806F057C81690D9148
:10361000C169049101462231059110908C300690C9
:103620003878C0000E900830119000263446139769
:103630000F9508341198A0422BD07F68BD5D002102
:103640007F222846FDF730FF002800D0F0E01298D6
:10365000854200D3EAE0B819C1784A0812237C2ACF
:1036600014D842780F9D954210D9AA1A80788242C8
:10367000139F0BDB149805F0F7FD109989683E390C
:1036800088422646D5D9452300E04223184615B086
:10369000F0BD002001210991EFF3108172B6C0073F
:1036A00008D16A201499085A1099098C884201D0CF
:1036B00000200990109DE86B0290687C08900598A6
:1036C000007811902E7D6C7DA87D0B9008220D98BE
:1036D000049903F062FFE87D7F210140E97562B63D
:1036E00000210C94B442084604D001D90C9800E0A3
:1036F0001298801B0190C0B20A90FF200390119E87
:1037000011960E9888420F9140D07868455C284603
:103710000C9C21460B9AFDF7C7FE002800D085E0DF
:10372000281BC0B20A99401801248440119E3046DB
:10373000204000067AD10998000623D04623089835
:1037400085420F99A2D31ED16C201499095C3A4886
:103750000068407B884203D006990978884295D159
:103760001E4603F099FF054603F0B4FF33464019A7
:103770006430C0430299081808980390119E0F996D
:1037800001D583E70F9926430831B9E70C980199D1
:10379000081A0C9000210E9888421DD07B685A1898
:1037A000D4785B5C0C98C318DDB2EF000D9E3068D6
:1037B000C45553786C0075682B55C019576847601D
:1037C0002C1963709278002A03D0601C9A18521E3C
:1037D00002700831139FDEE700230E980F9988428C
:1037E00000D053E71720109909560120002900D571
:1037F00052E71099497C089A8A4200D04CE7EFF3CF
:10380000108072B605981199017010980D99C161D8
:10381000407C039AD1B2814206D10A32D1B21498C7
:103820001C4605F077FD234662B62FE7079B2DE780
:1038300003462BE7FFFF0000F82C002010B5437A69
:103840000022002B19D0037A022B16D1826F136845
:103850000B701C0A4C701C0C8C701B0ECB70407AC9
:1038600008715068400A48719068400A8871D068B1
:1038700005224243100AC8710122104610BD10B53E
:103880000C46891CFFF7DAFF002803D03220607055
:103890000920207010BDBCB50446407A00281CD019
:1038A000A56F606DE863002068746A20205A288440
:1038B000E86940680078A87401A9204605F0AAFCD0
:1038C0008C20285C019905F0F5FBE06FBE21405C7F
:1038D000617A01222B4605F05BFDBCBD01207047DB
:1038E000F0B589B0467A002E25D00446876F8C202B
:1038F000385C05F047FC002520462946FFF7C8FD47
:1039000000280FD002A802218176058369468D80A8
:103910000491039102910949079106950595009537
:1039200005F01EFE3D75E9B2B14204D2204605F015
:103930002FFF6D1CF7E709B0F0BDC046FFFFFF0089
:10394000B0B5012815D1012913D1012A11D1012BBC
:103950000FD105F035FF04460648C57A01200C2139
:1039600004F03AF960600821284604F035F96168EE
:103970008860B0BD2C2C0020B0B5054605F02AFFAC
:103980000446284605F032FFA179002905D0228897
:10399000028062884280A28882808171B0BDFEE789
:1039A000F0B595B01F4606920591064680880AAC90
:1039B000FEF7E0F9002800D1ABE005460397079435
:1039C000423001902C46813430890AAF38802E6B0A
:1039D000700AB880B81D29464C3105224E4B9847D5
:1039E0004D4BB87A0494A17849010143B972384625
:1039F0000B3029462831042200921C46984738464D
:103A00000F302946513103220292A047E869000E87
:103A10003876A969C907C90E0143397604F09EFEBC
:103A20004001109901433976FDF723FE01280BD19F
:103A30000498807A002807D01020109901430AA822
:103A40000176286A696A01E0A869E9690991089024
:103A50000AAF38461A3008A9491C062203F09DFD1A
:103A600001980088F882049909780329009A00D007
:103A70000A460799223107911A9C7A76E96A059AD3
:103A8000891A069A5200891A039B002902D58919BE
:103A9000401CFAE70AAA13845082981C9082901C5A
:103AA000002205F0CFFA6E69002E27D03E20305C50
:103AB000002823D030463E302A25A5702B21617086
:103AC00002992170B76B0694079C2770390A6170C0
:103AD000390CA17000782071F06A400A6071306B77
:103AE0000E49FEF77CF9A071706B7D21FEF777F926
:103AF0002A46E071380EE070069C06E01C20A0709B
:103B000023206070029820702222E01C0AA903F092
:103B100044FD15B0F0BDC0469B750410E2040000E2
:103B2000F0B5A1B00C46054618AE084605F05EFE9D
:103B30000746807900281DD0787900281AD0687847
:103B4000E91C421E0A960BAE304603F026FD717E3C
:103B500007200840707604280CD8012631468140A1
:103B60001620014206D00BA8801C099005F04CFEDF
:103B7000002801D021B0F0BD05F070FE08900028AB
:103B8000F8D005F085FEFF281ED006960790089E07
:103B90003046463005907C36707A0B99049105F0DA
:103BA00099FE0599049848800798B0713470388858
:103BB00008803879307278880003089948637979E9
:103BC00003290AD0022009E018AB0D201870A120AB
:103BD0000A21012205F0A2FECCE70620012900D827
:103BE00000200A9920310A91F17801430820084306
:103BF000F070204603F0F8FE4221415A426C0592D3
:103C00000BAE327E0492B2880392728A0192F28ADB
:103C10000092C06C0790B08A05F0BAFE0290C117FE
:103C200047184F40079847430098019905F0B0FEA8
:103C3000C11740184840039948434002C1190498ED
:103C4000400905F0BDFE0899C863079902984143F1
:103C5000059808180590A8780790707E042802D16E
:103C60000BA803214176002016900BAE377EF90693
:103C7000C90F16AD29701790681C31461A310622FB
:103C800003F08BFC0F203840E871079A10462A3861
:103C9000414241410A9841700699017018A8047583
:103CA000717E4175099819900898189005981C9094
:103CB00016981E9017981F902A2A02D10BA822301E
:103CC0001A9018A800F056FC54E7FEE780B50920CA
:103CD000014905F07FFE80BDD11D061070B50D466F
:103CE00004460068616804F0A3FB010616D428218D
:103CF00041430B4800689422805880680068461849
:103D0000304604F0B9FB002808D0284604F03BFDFB
:103D1000014630462A46234605F064FE70BDC04683
:103D2000F42C0020F0B583B01468C0C8F0B2A642ED
:103D300003D152687A4012023AD0FF25012838D1C7
:103D400003208005384001229205904231D11A4863
:103D5000006894220292805880685D22805C00286E
:103D600027D000201A56002A05D503C9019304F074
:103D70005FFB019B024610061BD4D0B228214143B1
:103D80000D4800680092029A8058806800684018C8
:103D900010300193012331463A4603F027FF009982
:103DA000019A1170002804D002200443E5B200E01B
:103DB0000546284603B0F0BDF42C0020F0B585B0D0
:103DC00004060026002C2DD4039204932825454395
:103DD0001648006894228058806800680190441951
:103DE00002910029274601D027461037384604F0B3
:103DF00043FB2421615C002914D0002812D00298D2
:103E0000002804D001984019016A039C04E0039C37
:103E1000204604F0B8FC014638462246049B05F0D3
:103E2000E1FD0126304605B0F0BDC046F42C00206F
:103E300080B584B003460068596802AA009203AABC
:103E400004F076FB04B080BDB0B50146204C20687C
:103E500094254059806800290DD05D2100224254EC
:103E6000283001211B4A082305F0EEFD2068405947
:103E7000806819490165001D05F0FBFD2068405967
:103E80008068417A002907D0026824320023137029
:103E9000491E28320029F9D10C3005F0EAFD2068CE
:103EA00040598068143005F0E4FD2068405980686E
:103EB0005C210022425401465C3101230B714A808F
:103EC0000146143102460C32C2610162B0BDC046E7
:103ED000F42C0020191F0610A0BB0D0010B50C46D5
:103EE00002684168104604F0A3FA0121002223462B
:103EF000FFF764FF10BDFEE7F0B587B0474F3868A5
:103F00009422805880685C23C15C002900D183E042
:103F100001930392416D0591816D0491017A00290D
:103F200020D0FF21059A8A430092002407250168CA
:103F30004068405D7F270740282078430818002606
:103F400002900599049A334603F050FE002830D1C0
:103F5000641C324F3868039940588068017A0835EC
:103F60008C42E4D306AE05980499324605F084FDF0
:103F70003868039C005981685E200A5CC969096839
:103F80003378DB00C9180023CB717F2111403A68D8
:103F900012599268D26912683378DB00D218D3794B
:103FA0000B43D3713968095989680A5C521C0A5459
:103FB0002AE00098384380210591084306AD049912
:103FC0002A4605F059FD154F3868039C0059806852
:103FD000C1690A795E23C05C09682B78DB00C918C7
:103FE000CE71C0431018396809598968C9690968D0
:103FF0002A78D2008918CA79024305980243CA7107
:1040000027200699029A1154019D05F07FFD38681A
:10401000005980680021415507B0F0BDF42C002004
:1040200001207047F0B583B00C4612490968942707
:10403000C95989684D6889680CC802A8012600968C
:104040000190284604F090F9002810D0601E8441A9
:10405000E00108490968C9598968496802AA1278C3
:10406000D2008918CA797F2313401818C87103B089
:10407000F0BDC046F42C002070B50C4802689421B5
:1040800052589468227A002A0ED0002207236468CE
:10409000E55C7F262E40E65404686458A468257ABF
:1040A0000833521CAA42F2D370BDC046F42C002043
:1040B00070B5094D28689426805980685F24015D99
:1040C000002905D105F03CFD286880598068015D14
:1040D000491C015570BDC046F42C002080B50A482B
:1040E00000689421405880685F21415C002905D018
:1040F00002465F32491E1170090600D080BD28308B
:10410000002105F055FD80BDF42C002010B502689B
:104110004168104604F08CF901060CD4282444436D
:10412000002004F030FB044909689422895889680A
:1041300009680919086210BDF42C002003490968B8
:10414000942289588968602288547047F42C002092
:10415000034800689421405880686021405C7047A3
:10416000F42C0020F0B5D9B007469D4C206804F02F
:10417000D3FB0646206804F0C3FB0BAD0121079179
:1041800069804221795A298096490D91FF221102B6
:104190000C913946403109913C467A34002E069202
:1041A0003ED000283CD13E462F460B3705F0AAF8FA
:1041B00005900A94207A049004F0D1FC03900EAC90
:1041C00080200290207318A80F900598214605F0D2
:1041D00011FD002208963046214605923B4605F027
:1041E00095FD012827D000282CD12E1D08357E48AA
:1041F00000680468039804F0D7FD221A0A998879A8
:104200000128089F0392344622D1FA620220887165
:104210000598C8700EA84189099A1180007D1BE09D
:10422000A079012803D10BA80021C17256E00BA888
:104230000221817152E00998C088401C0BA9488076
:10424000089F46E00021089F384605F0ABFD40E09E
:104250000EA8007D7F2801D00A9908730EAE327B2C
:104260000F99384605F09FFD707B0BAEF0711298E8
:1042700070710998C088401C708028462146049DB2
:104280002A4605F0DAFD7072386B796B4018B86316
:104290000E9900291BD02E460A9D687A05F090FBE6
:1042A000F8630EA9C97B297040080399081A2C46A7
:1042B0000E994118304604F0FDFE0298304305F097
:1042C000BFFD0BA8059981720121817111E005984C
:1042D000F8630A9C0BA8807A00280AD00BA84188B2
:1042E000384605F073FF0146207A00291DD005F0FD
:1042F000A7FD0BA8C07A00286ED0384605F092FFC3
:104300006079800768D54120860018A83146FCF7FF
:1043100073FD06F003F805460BA88079022808977C
:104320000A9408D10021022014E004F02BFF207A27
:1043300005F086FD50E004F0E5FF01464078059069
:104340000BAFFC7918A8324603F027F90598001B3B
:10435000811CB8790591CFB2AF42079C00D80446C2
:1043600003F069F9064605F0EFFF01460EA8C47296
:10437000069A0272AF422C4600D8059C84727118CE
:1043800041730A99097B01730999498981800BA9B5
:104390004A7942720B9AC280C97918AA51180E91B3
:1043A000FDF797F9AF420ED90BA98A790EA8C27210
:1043B000059A521B8272C97918AA5118E2B289185B
:1043C0000E91FDF786F90BA94B790A7A487A09799B
:1043D0000091089905F0C4FF002059B0F0BDC04617
:1043E0003000002000000101F42C0020B0B50E4880
:1043F0000068942140584068806B0068FF2101816B
:104400000A4CE17F07220A400121914041740C309F
:1044100005F02FFB0025A17FE8B2884203D205F00A
:1044200059FA6D1CF7E7B0BDF42C00202C2C0020AD
:10443000F8B5012829D1012927D1012A25D113480E
:10444000C07F009001241421114F2046B847114E1F
:104450003168942549594968896B08600B48807F09
:104460008C21B847316849594968896B09680860E7
:10447000072000990840844008212046B847316849
:1044800049594968896B0968C860F8BD2C2C00201F
:10449000D97B0410F42C002080B505F091F9007A46
:1044A000FF38411E884180BD80B5084909683D221A
:1044B0008A5C920603D53D31497BC90602D405F0DA
:1044C00051FF80BD05F098FF80BDC046F42C002050
:1044D00080B5084909683D228A5C920603D53D31C2
:1044E000497B890602D405F0DBFF80BD06F030F879
:1044F00080BDC046F42C002080B5084909683D22E3
:104500008A5C920603D53D31497B090702D406F047
:1045100087F880BD06F0D0F880BDC046F42C00209E
:104520007FB5044605F04CF90646007AFF2812D004
:104530002568646806F01CF97F21415CC9070CD12D
:104540008169A94207D1C1696140FF20000681430A
:10455000484248410BE0002009E0F068316903AAB5
:104560000123009301922A46234603F0FDFE04B086
:1045700070BD7047F0B58DB004462020205C002847
:1045800000D1FFE00021204606F000F9014602209C
:10459000002900D056E125686168EA6B4988090264
:1045A0003E398A4200D34DE1E06821694018E86253
:1045B0002646203671782846FDF7BEF8002800D040
:1045C00041E10C96284651300A90284681300990E6
:1045D000C0CC3046513039460D310322083C02F040
:1045E000DCFF787A0B90B97AFA7A387B0890388AAF
:1045F0004223F05233467A33607DD87108020B991A
:10460000401811044018089909064018B062387A19
:104610007A21FF2272540021D9730621B16379886F
:104620004902316340090B935872706BFDF7D7FB59
:1046300081B2334642339A88914200D29880387AC8
:104640001F210140397230464C30391D0522074682
:10465000089302F0A2FFA069E169B061F161304600
:104660005430394604F05EF830462146FDF768F8CC
:104670000B98007A089908810C9840780B9009985B
:104680004678007804F0C0FC0746304604F07DFA16
:10469000A96A304604F088FA0A9A1078517809021B
:1046A0000818917809044118304604F0A1FA6948C5
:1046B0000068417A304604F04DFB0021304604F09A
:1046C000AEFA29464C31304604F075FAFF213046E7
:1046D00004F09AFA304604F0E7FA3046394604F01E
:1046E000F9FA3046294604F0E8FA304604F0B6F903
:1046F000284604F033F9284604F035F9284604F03A
:1047000063F92846294604F064F904F0FBFD0146EC
:10471000284604F033F9284604F00EF9284604F040
:104720003BF92846314604F05CF9284604F064F968
:10473000284604F01DF9284604F063F9284604F0E1
:1047400076F9284604F048F9284604F02BF90B982E
:1047500000280BD096200121002204F05FF80146CA
:10476000284604F050F9284604F055F90C9E71785B
:104770002846FCF7D1FF7078002836D02068FCF777
:10478000E3FF65E005F01CF80546017A0120FF29EA
:1047900058D06A7A002A55D1084605F0E9FF206012
:1047A0002046294605F0F2FF00284BD12046FCF7B1
:1047B000BFFF002846D1C0CC387A0C90607B083C03
:1047C00004F022FC234909680968F16279880B9199
:1047D00004F0EAFAF16A091AE0680918F162397816
:1047E000797889061DD57B211CE021688220085C30
:1047F000CA6A0B6BCC6B184D0795184D0695184D72
:104800000595184D0495072503950A2502950093F3
:104810006308D21A01927D22D3000D2202F060FFBC
:1048200016E00C210C9A0B9F0918500905F0C8F8E6
:1048300039023E39884204D201216972F063256849
:10484000B6E602202568022802D1284606F01CF8A8
:104850000DB0F0BDF42C0020332405106541041088
:10486000891F0610F7350610B0B50024044DA97F46
:10487000E0B2884203D200F02DF8641CF7E7B0BD27
:104880002C2C0020F8B5012821D101291FD1012AA3
:104890001DD1012B1BD10698012818D100242046D8
:1048A00005F066FF05461435094FB87F84420ED2E5
:1048B0000126B021304603F08FF92860F97E30469A
:1048C00003F08AF9296848618C35641CEDE7F8BD6E
:1048D0002C2C002070B505F0F7FF04464669002532
:1048E000B022294602F05DFE4821FF206054AC2131
:1048F000605466615234602D02D060550C35FAE781
:1049000070BD7047FEB500296CD00446513001904F
:10491000264681366569307804F076FB07460290BA
:1049200076783046294604F003FA3046394604F0DA
:1049300006FA284604F012F8284604F014F828462F
:1049400004F042F82846294604F043F803F022FF19
:104950000146284604F012F8284603F0EDFF2846E9
:1049600004F01AF8284604F003F8284604F065F825
:10497000284604F056F82846314604F032F8284616
:1049800004F02AF8284604F037F86069AC21475C47
:10499000866B384604F0F9F83846314604F004F9DD
:1049A000019A107851780902081891780904411881
:1049B000384604F01DF90C480068417A384604F086
:1049C000C9F90021384604F02AF94C34384621460A
:1049D00004F0F1F83846294604F0AAF9384602995D
:1049E00004F0ADF9FEBDC046F42C0020B0B500289F
:1049F0000ED0401E01240023E4B20D5DDCB2322D46
:104A000008D00C5D1B195B1CDDB26C1CA842F3D8EE
:104A10000020B0BD6018811C082310461A4602F021
:104A2000BCFD0120B0BD7047B0B50546002420464E
:104A300005F09EFE0D380949897F491C491E0AD0A0
:104A4000212282588C304823D25CAA42F6D10078C9
:104A50004009012484432046B0BDC0462C2C0020D0
:104A6000F8B52121415C00291ED0846820790126F7
:104A700080220F4F3146B847009060790621FF250C
:104A80002A46B847074600980743A079FE223146D8
:104A9000074B984706463E43E079022421462A46C2
:104AA000034B9847304300D100242046F8BDC04650
:104AB000A9140410F8B50025002926D0044604F0F6
:104AC000E7FEFF281BD0064604F0E2FEFF2813D0C5
:104AD000074605F009FFFF280BD0009002F084FF85
:104AE000412147546069AC2146544821009A425400
:104AF0000BE0384605F014FF304605F011FF7F202B
:104B0000215C80220A43225402252846F8BD30B594
:104B100001684118446862088A188368E40704D56C
:104B20004C461B1901E0641C09D1914203D00C785A
:104B300064B2491C01E00C3030BD0D78491C1D7079
:104B40005B1C002CEFD4641EF7D5EEE7F8B50246E7
:104B50002120085C002826D01348C47E8B68187971
:104B6000A04200D3204651693E240855D26A8A6289
:104B70001A7800925E789D78DC785F797F02CF6248
:104B80009F790A4A7A430A63DA797D2353434B6358
:104B90003202009BD2182B04D2182306D2188A6343
:104BA000183105F0C9FEF8BD2C2C0020E2040000ED
:104BB00070B588B004462720C0006569296B0902DA
:104BC00008181049FDF70BF903468220205CE96ABA
:104BD000E26AE56B0C4E07960C4E06960C4E059657
:104BE0000C4E0496072603960A2602966D08521B61
:104BF000019200913E3B0D22214602F071FD08B06A
:104C000070BDC0467102000001200610852006100C
:104C10000D27061069360610F0B589B00546B0209C
:104C2000285CFF283FD00E462C46B0342846EB3097
:104C3000019002F042FD2868017804A81B4A028115
:104C4000FF2200928272012787812A46AC320292AB
:104C5000925D827333460026C67346742278C27210
:104C60008906C90F0174039399006918C96B091D5E
:104C700004915435059505F07DFEA77000982070CD
:104C8000019806708078800701D5FCF702FD039C2F
:104C90006740029DE85D04F075FAFF2006F04AF9CE
:104CA000285D05F0CDF809B0F0BDC046FFFF00005B
:104CB00010B50024214606F055F9204610BD80B5F8
:104CC000012106F04FF9002080BD0000F0B593B03F
:104CD00010930E920F46EB21415C8A080126314663
:104CE0009143199C217000253D737D607D750F9067
:104CF0000068394604F07EFF3868002840D03A4604
:104D00000D962570B87C02283CD80B950F9F39462C
:104D1000EB3118980A90907B144606224243D0B299
:104D20004D786149096809681291216804F048FECC
:104D30000990460810988006000E04F035F83018E7
:104D40000C942168129A5118081A129039461031A1
:104D50004B20800011900A462B46002B14D0166879
:104D60002B20305CFF2808D03468129FE41BE71723
:104D7000E4197C40119FBC4219D3121D5B1EECE765
:104D800035468DE00D9D8BE00C9A0D9B002D0CD0CF
:104D90000E682A20305CFF2804D030462A30407844
:104DA000FF280FD0091D6D1EF0E71D4678E0344640
:104DB0002B34129904F07EF92178FF39484248419A
:104DC0000C9A00E00120099B38495943CB097D2109
:104DD0000D0137462637002834D03C79907C401CA2
:104DE000C0B2FF2100220D9302F0C2FB09907C713A
:104DF000109878700C98C07BF8700C98807C401CE0
:104E0000B8700F98806B001D0122214606F060FBF0
:104E10002748079027480690274805902748049080
:104E20000720039009200290129801901198099987
:104E300043181C33009303222046314602F050FCF5
:104E40000D9B0C9A5919129830600A9BBB710B9DEF
:104E50003D70F5761089B0840E9A05CAF060326113
:104E6000012B05D10F9B586D9A6D7060B26002E006
:104E70007560B5600F9B986B001D1C4603F0E7FD45
:104E800010988000241802F007FC8C216258A36C53
:104E9000C01A8018605079798020084304F0D0FF50
:104EA000284613B0F0BDC046F42C0020710200006B
:104EB0003FB80410992706109B360610CB36061013
:104EC000F0B589B00391054690002C1806F034FB2C
:104ED000E06B02900C302968091D062202F05DFB90
:104EE00004A800260682C67302218181FF278772EB
:104EF00019490181B0210191695CC1722B24039988
:104F0000095D81732946543105910299091D049167
:104F100005F030FDEB202E54B220012129540198D8
:104F20002F540398065D075504462F46AC372A34A4
:104F3000EB35A878800701D5FCF7ABFB387804F097
:104F400021F9787804F01EF9304605F0F3FF207857
:104F500004F076FF09B0F0BDFFFF0000F8B5009047
:104F600027480068942140584768FCF779FA25499A
:104F70004B7FE42100247C54AA217C54192189020E
:104F80008422B950F9673D46E435EC73EC72012197
:104F900029736C723946AA31FF228A71EC711A4E5C
:104FA0004E800A2B00D30A230099012900D0234602
:104FB0002B721430009004F0A5F9386000987860E6
:104FC000F86B001D2422214602F0EBFA287A002813
:104FD00015D0386C001D002424220092214602F0D6
:104FE000E0FA786C001D2146009A02F0DAFA1037D8
:104FF000287A002803D002CF4E85401EF9E7F8BD7D
:10500000F42C00202C2C0020FFFF0000F8B5012814
:1050100061D101250091F4212F4A284690472F4C59
:1050200021689427C95948602826284631462A4ACB
:1050300090472168C9594968C86328463146264ABD
:105040009047009901293DD1244C2168C9594968EC
:10505000086401262825304629461F4CA0471F49D1
:105060000968C9594968486430462946A0471B4920
:105070000968C9594968886030462946A047174AD7
:1050800011681546C9594968C8602C213046A047A7
:105090002968C959496888630025114E707F0A281C
:1050A00000D30A20ECB2A04215D90120302102F031
:1050B00093FD0A490968C9594968A200891808611D
:1050C0006D1CEBE705490968CA5952689060C859D8
:1050D000406800218163F8BDD97B0410F42C0020C6
:1050E0002C2C0020FEB517460E46044640680521CC
:1050F0000170002A06D106F025FA400161680A789D
:1051000002430A70606822254570022E01D01748BC
:1051100000E01548012F00D01548022E029001969C
:1051200001D0374600E0042702F0B6FA06463846BA
:10513000294606F00DFA0299081886190198800090
:105140002518E86B314606F01FFAE86B0168891BE9
:105150004A0A8276490CC176E96B123160680E30DA
:10516000162202F01AFAFEBD3E0600003E040000C0
:105170003E02000070B50446F020205C40070FD5C9
:105180002646AD3601252046294606F00FFA31782D
:10519000E068002206F09CF92046294606F03CFA19
:1051A0000221204606F002FA70BD0000F0B593B06F
:1051B00005464808722852D80E462A4800683D2104
:1051C000415C89064BD53D30807AC00647D51C46E8
:1051D000174628690A90287A1290A88A1090687E4B
:1051E0000C90A87E0D90287F0F90E87E0E90287E70
:1051F0000B9028781190701E0321014325318808F7
:1052000083B2194800684069A121012202F02AFBFB
:10521000002824D003460A98C0196F1C0935089647
:1052200009900C9840B20D9949B20B9A00920E9ACF
:1052300001920F9A0292039104901098059012988F
:10524000069007951D46181D2146119A3B4606F00B
:105250002DFA064868602946A12002F063FB13B0CE
:10526000F0BDC046F42C0020182D0020E9020610E5
:10527000F8B50C460546F020085CC00701D1FF20B8
:1052800003E004F005FBFF283BD02646AC36307027
:10529000A87A002801D00020F8BD2746EC373879DD
:1052A000400701D4FF2003E004F0F2FAFF2818D0F1
:1052B0007070103400250095387885420BD204F0C8
:1052C000E7FAFF2809D002CC2A228854032106F0ED
:1052D00017FA6D1CF0E70098F8BD2806009804D076
:1052E000F8BD3078FF280AD10BE03879C10703D028
:1052F000307805F015FB3879400702D5707805F055
:105300000FFB0720F8BDF0B587B01E460546029199
:1053100003AC0FC406F0FEF90446B020205C02F096
:1053200063FB0090300C01900C9E022E0DD0B00853
:10533000810061182A0C12028423CA502A04120A1E
:10534000CA672018AA210122425470088700E51973
:10535000EB34E86B001D03A906F0E4F90098C719C7
:10536000304606F029FA0199884200D80846020220
:10537000BA65E86B02990904C90906F03DFA20787C
:1053800004210143217007B0F0BD0000F8B50446C8
:10539000EFF3108072B62546EC3514480068C07BE8
:1053A000032803D1012000F023F81AE02646AC368A
:1053B000307805F0B5FA707805F0B2FA00261027BB
:1053C000287886420AD2E0592A21405C05F0A8FAE2
:1053D000E05906F034FA3F1D761CF1E7204606F04E
:1053E00033FA62B6E8790028FCD1F8BDF82C002029
:1053F000F8B5044606F08EF90546154800680768BA
:10540000002C02D0284606F039FA00950026012526
:1054100002F042F9391A0AD4E807304602D02A29A4
:105420000CD20120012600250028F1D10EE003F066
:105430001EFAF320012600990E5407E002F03DF910
:105440000026002C02D0FF2004F0FAFC3046F8BD04
:10545000F82C002070B504460025294606F02CFAE9
:105460000646012046402046294606F02FFA102124
:10547000484030434142484170BD70B502280CD3CA
:105480000C4605460E8801200004801B2946FCF7C7
:10549000A6FC401C68438019208070BD70B5F821BF
:1054A000465A002E10D00546F8356988B1420BD116
:1054B0004230AA88EC880088214602F01EFCA042F7
:1054C00002D0864200D9688070BDF0B585B0044630
:1054D00019200701E05B0023410601D41E4649E084
:1054E00001263102651821462C310A7909780229F2
:1054F00014D180053ED5A87B400606D401211A228E
:1055000020461E4606F0EAF92FE010460493039267
:10551000FFF7A0FF039A049B01282BD0039204936A
:105520001046314606F0C8F9012823D00121019127
:10553000039E304606F040FA0021029181722988CC
:10554000C18069888180A9880180E9884180298992
:1055500001813046019D294606F036FA1022304678
:105560002946029B06F040FA049EE0190188402279
:1055700091430180304605B0F0BD000080B5102099
:10558000014904F027FA80BD852E061010B50446A7
:10559000084606F03DFA01460522204601F0FDFFCF
:1055A00010BDB0B5044602F01FFA2C21415C002565
:1055B00002290AD111210901401806F02EFA00280B
:1055C00003D0204606F02EFA05462846B0BD00005E
:1055D000B0B5054606F04AFA0446284602F004FA39
:1055E00005462C20285C032803D10020E0702070A1
:1055F000B0BD20460C3000210A2201F0D2FF09483C
:10560000006894214158483120461630052201F0A7
:10561000C4FF0120207011200001281806F032FA82
:10562000B0BDC046F42C0020B0B5064D2868D2307D
:1056300000240A22214601F0B4FF2868D1214454F5
:10564000B0BDC046F42C0020F8B5044602F0CCF9F9
:10565000014611200701C8192C22895C032908D1B1
:1056600006F017FA002823D0204606F017FA054660
:105670001FE006F05DFA002500281AD0204602F04F
:10568000B3F90646204606F0F1F90078012810D15A
:1056900087204000305600280BD50121204606F017
:1056A0000BF9002807D00546F01906F0EBF900E0E9
:1056B00000252846F8BD01210091204606F084F916
:1056C0000C220025204600992B4606F08DF9F01992
:1056D00006F034FAEDE701207047000080B50C2099
:1056E000034904F077F90D20024904F073F980BDF5
:1056F00033310610D1D50510F0B585B00291FCF715
:105700008FF8049000250120039001F0C5FF01905F
:105710002E461F4800683421405CF7B287422ED2E3
:10572000384602F061F9002827D00446384606F0D2
:105730009DF902462C20205C02280ED104980128F5
:1057400007D1104616300C32029906F0FFF90128F5
:1057500013D1384606F066F909E0049901290CD105
:1057600003280AD101989060384606F097F9411E47
:1057700088412906039D00D10546761CC9E7280605
:1057800004D0032006F020FA06F06EFA05B0F0BD52
:10579000142D0020FEB5064687680479204602F0E5
:1057A00023F90546204606F009FB002844D08079FD
:1057B000042841D17802E96C81423DD028462C3042
:1057C0000295923539683D2212016B889B019A1827
:1057D000EB889A4200D81346184A4A431146366865
:1057E000007802280BD116481818814207D201917F
:1057F00012490093FCF7F3FA009B0199386028885E
:10580000F0844B2080001818091A00D20021688902
:105810002A8A904200D310468142029B00D8084653
:1058200082B2A92109018A4200D80846B084012128
:105830002046324606F0D6FAFEBDC046E20400001D
:10584000BC0B0000FEB505680679304602F0CCF8C6
:105850000746304606F0B2FA002847D0807904287F
:1058600044D13C469034A88CE18881423ED0E0800F
:10587000002130462A463B4606F0B4FA1C48006830
:105880003D21415C890631D53D30407A40062DD519
:105890002689A588E0880190208802907F8F15488E
:1058A00000680069802117220424234601F0DAFFF2
:1058B00000281BD0014606748573019B0373029A6E
:1058C000827207720720C8710B2088713E204871D0
:1058D0000C71300A4874280AC873180A4873100AF1
:1058E000C872380A4872802002F01CF8FEBDC0461B
:1058F000F42C0020182D002080B50620014904F06A
:1059000069F880BD39F60510F0B589B0002420464D
:1059100002F06AF8009001200890414800683421A4
:10592000405C84427AD23320C000059460430099E1
:105930000D182C20285CFE21014002296BD1012189
:10594000009C2046079106F079FA06460021204681
:10595000019106F073FA411E8841002E08990491C6
:1059600000D104902B462846E83003902846E630C4
:105970000290EA33089F06931C78F02626400F25F4
:105980002540032D1FD0022D0BD0012D2BD10498C3
:1059900000282CD00420012102F072F8069B022579
:1059A00025E00398008802990988081A0A234343CE
:1059B0001C4800680599C9B2A830012206F049FACE
:1059C000069B032513E0A00611D5049800280CD0EF
:1059D0000598C0B206F0A4FA002801D0D0262640CF
:1059E0000898069B04E0019802E0D026264008981B
:1059F000EFF3108172B619788C4203D12E431E70DA
:105A0000002102E007990F4039464A1E914162B6D3
:105A100000270842B0D1059C641C7EE709B0F0BDA8
:105A2000142D0020F42C0020F8B506F095FA044659
:105A300014480068466EFBF733FF05460027678071
:105A400030202080307CA07208360096BD4214D0F1
:105A50000120B840A17A01407E26F940304604D0AA
:105A60000098C057012106F083FAE1197F220A77D6
:105A70000A760E7508747F1CE8E77F20E07200202C
:105A8000A080F8BDF42C0020BCB50446FBF708FF4D
:105A9000054601A8694601F0BEFD0020854215D0EB
:105AA000C921215421180F220A71009A02230B7375
:105AB0000A7201218140227C0A432274401CEDE7D6
:105AC0000120A840217C814321746D1C072DF7D94A
:105AD000BCBDB0B5054606F03FFA0446284606F0C0
