:020000041004E6
:1000000000000120D5BF0510FDC20510FFC205107C
:1000100000000000000000000000000000000000E0
:1000200000000000000000000000000001C30510F7
:10003000000000000000000003C3051005C3051008
:10004000336804101B7E0410479604103F9C041074
:1000500000000000000000000000000017A40410D1
:100060000DC3051083A6041007AA041023AD0410C5
:1000700013AF041029C30510000000005BC3051076
:1000800069C3051083B4041043C3051000000000C9
:100090003BC305100000000053C3051033C3051017
:1000A0009BB804104BC30510FBBA041047BC0410E6
:1000B0007BBC0410000000000000000000000000F5
:1000C000D80F0020AA310000000001040000320017
:1000D000F7000000FFFFFFFF6400011008030003AA
:1000E000F70001000001010202020200000100030A
:1000F000000400004572726F7220696E20424C4508
:100100005F535441434B5F496E697428292030780E
:10011000253032780D0A000020204661696C2020CD
:10012000203A206163695F68616C5F77726974650A
:100130005F636F6E6669675F6461746120636F6D92
:100140006D616E64202D20434F4E4649475F444108
:1001500054415F505542414444525F4F46465345D7
:10016000542C20726573756C743A203078253032C7
:10017000580A00002020537563636573733A206149
:1001800063695F68616C5F77726974655F636F6EE6
:100190006669675F6461746120636F6D6D616E6431
:1001A000202D20434F4E4649475F444154415F5004
:1001B0005542414444525F4F46465345540A00005D
:1001C00020204661696C2020203A206163695F68C5
:1001D000616C5F7365745F74785F706F7765725F71
:1001E0006C6576656C20636F6D6D616E642C20723A
:1001F0006573756C743A203078253032580A0000E7
:100200002020537563636573733A206163695F6887
:10021000616C5F7365745F74785F706F7765725F30
:100220006C6576656C20636F6D6D616E640A0000AD
:1002300020204661696C2020203A206163695F6755
:100240006174745F7372765F70726F66696C655FFC
:10025000696E697420636F6D6D616E642C207265C8
:1002600073756C743A203078253032580A000000DB
:100270002020537563636573733A206163695F6718
:100280006174745F7372765F70726F66696C655FBC
:10029000696E697420636F6D6D616E640A000000A1
:1002A0000A0A202A202A202A202A202A2041707087
:1002B0006C69636174696F6E206E616D65203A20B0
:1002C000424C455F52435F4C6F6E6752616E67658B
:1002D0005F43656E7472616C202A202A202A202ACE
:1002E000202A0A0A0000000020204661696C2020B4
:1002F000203A206163695F6761705F696E6974208D
:10030000636F6D6D616E642C20726573756C743AE9
:10031000203078253032580A000000002020537524
:1003200063636573733A206163695F6761705F69D6
:100330006E697420636F6D6D616E640A0000000069
:1003400020205075626C696320426C7565746F6F14
:10035000746820416464726573733A202530327882
:100360003A253032783A253032783A253032783AA8
:10037000253032783A253032780A00002020466154
:10038000696C2020203A204761705F70726F666947
:100390006C655F7365745F6465765F6E616D652023
:1003A0002D20446576696365204E616D652C207251
:1003B0006573756C743A203078253032580A000025
:1003C0002020537563636573733A204761705F70D3
:1003D000726F66696C655F7365745F6465765F6E86
:1003E000616D65202D20446576696365204E616DE1
:1003F000650A000020204661696C2020203A2047D1
:1004000061705F70726F66696C655F7365745F6160
:100410007070656172616E6365202D20417070653A
:100420006172616E63652C20726573756C743A201D
:100430003078253032580A00202053756363657385
:10044000733A204761705F70726F66696C655F73A5
:1004500065745F617070656172616E6365202D20E7
:10046000417070656172616E63650A0020204661AB
:10047000696C2020203A206163695F6761705F7357
:1004800065745F696F5F6361706162696C697479DB
:1004900020636F6D6D616E642C20726573756C7472
:1004A0003A203078253032580A0000002020537559
:1004B00063636573733A206163695F6761705F733B
:1004C00065745F696F5F6361706162696C6974799B
:1004D00020636F6D6D616E640A000000202046612C
:1004E000696C2020203A206163695F6761705F73E7
:1004F00065745F73656375726974795F7265717530
:100500006972656D656E747320636F6D6D616E6485
:100510002C20726573756C743A203078253032580F
:100520000A0000002020537563636573733A2061ED
:1005300063695F6761705F7365745F73656375722C
:100540006974795F726571756972656D656E7473D2
:1005500020636F6D6D616E640A00000020204661AB
:10056000696C2020203A206163695F6761705F6376
:100570006F6E6669677572655F66696C7465725FD8
:100580006163636570745F616E645F7265736F6CE5
:1005900076696E675F6C69737420636F6D6D616EF1
:1005A000642C20726573756C743A20307825303273
:1005B000580A00002020537563636573733A206105
:1005C00063695F6761705F636F6E666967757265A7
:1005D0005F66696C7465725F6163636570745F61A7
:1005E0006E645F7265736F6C76696E675F6C69735A
:1005F0007420636F6D6D616E640A00003E3E3D3D88
:10060000204843495F444953434F4E4E4543544964
:100610004F4E5F434F4D504C4554455F4556545FD8
:10062000434F44450A00000020202020202D204375
:100630006F6E6E656374696F6E2048616E646C6581
:100640003A2020203078253032580A2020202020DF
:100650002D20526561736F6E3A202020203078255E
:100660003032580A000000003E3E3D3D20484349DC
:100670005F4C455F434F4E4E454354494F4E5F5587
:1006800050444154455F434F4D504C4554455F5392
:1006900055424556545F434F44450A0020202020D0
:1006A000202D20436F6E6E656374696F6E20496EF6
:1006B00074657276616C3A20202025642E253032D4
:1006C00064206D730A20202020202D20436F6E6E41
:1006D000656374696F6E206C6174656E63793A202E
:1006E00020202025640A20202020202D20537570F2
:1006F0006572766973696F6E2054696D656F757484
:100700003A2020202564206D730A000020204661D5
:10071000696C2020203A206163695F6C32636170EC
:100720005F636F6E6E656374696F6E5F7061726137
:100730006D657465725F7570646174655F72657311
:100740007020636F6D6D616E640A00002020537528
:1007500063636573733A206163695F6C32636170D0
:100760005F636F6E6E656374696F6E5F70617261F7
:100770006D657465725F7570646174655F726573D1
:100780007020636F6D6D616E640A00003E3E3D3DFA
:10079000204143495F4741505F50524F435F434FB1
:1007A0004D504C4554455F56534556545F434F4456
:1007B000450A00003E3E3D3D204143495F474150D0
:1007C0005F4B455950524553535F4E4F544946492C
:1007D000434154494F4E5F56534556545F434F442F
:1007E000450A00003E3E3D3D204143495F474150A0
:1007F0005F504153534B45595F5245515F565345E6
:1008000056545F434F44450A000000003D3D3E3EC4
:10081000206163695F6761705F706173736B657995
:100820005F72657370203A204661696C2C20726596
:1008300061736F6E3A203078253032580A0000001C
:100840003D3D3E3E206163695F6761705F7061732B
:10085000736B65795F72657370203A2053756363BB
:100860006573730A000000003E3E3D3D2041434950
:100870005F4741505F50414952494E475F434F4D9A
:10088000504C4554455F56534556545F434F44457D
:100890000A00000020202020202D2050616972696C
:1008A0006E67204B4F0A20202020202D205374619A
:1008B0007475733A203078253032580A2020202071
:1008C000202D20526561736F6E3A203078253032CA
:1008D000580A00003E3E3D3D204143495F47415498
:1008E000545F5352565F524541445F5653455654E8
:1008F0005F434F44450A00003D3D3E3E20636F6E1E
:100900006E656374696F6E5F636F6D706C6574653F
:100910005F6576656E74204661696C2C2053746146
:100920007475733A203078253032580A0000000080
:100930003E3E3D3D206863695F6C655F636F6E6E30
:10094000656374696F6E5F636F6D706C6574655F0E
:100950006576656E74202D20436F6E6E65637469D5
:100960006F6E2068616E646C653A20307825303493
:10097000580A000020202020202D20436F6E6E6535
:100980006374696F6E2065737461626C6973686506
:1009900064207769746820403A253032783A2530EF
:1009A00032783A253032783A253032783A2530326A
:1009B000783A253032780A0020202020202D20434C
:1009C0006F6E6E656374696F6E20496E74657276C2
:1009D000616C3A20202025642E25303264206D730E
:1009E0000A20202020202D20436F6E6E65637469DD
:1009F0006F6E206C6174656E63793A20202020252B
:100A0000640A20202020202D20537570657276699D
:100A100073696F6E2054696D656F75743A20256433
:100A2000206D730A000000006863695F6C655F7287
:100A30006561645F706879206661696C7572653A9A
:100A400020726561736F6E3D3078253032580A0030
:100A50003D3D3E3E206863695F6C655F7365745F12
:100A60007068792050485920506172616D2020547F
:100A7000583D2025642C2052583D202564202D20EF
:100A8000000000006163695F6761705F7465726D8B
:100A9000696E617465206661696C7572653A207271
:100AA0006561736F6E3D3078253032580A00000062
:100AB0003D3D3E3E206163695F6761705F746572B2
:100AC0006D696E617465203A205375636365737355
:100AD0000A0000006163695F676174745F636C742E
:100AE0005F65786368616E67655F636F6E6669678F
:100AF000206661696C7572653A20726561736F6E0C
:100B00003D3078253032580A000000003D3D3E3E21
:100B1000206163695F676174745F636C745F65789B
:100B20006368616E67655F636F6E666967203A2010
:100B3000537563636573730A000000005375636344
:100B4000657373202D2057616974696E672048436F
:100B5000495F4C455F5048595F5550444154455F8B
:100B6000434F4D504C4554455F5355424556545F95
:100B7000434F44450A00000020526563656976656D
:100B800064204843495F4C455F5048595F55504485
:100B90004154455F434F4D504C4554455F5355427A
:100BA0004556545F434F44450A0000006163695F46
:100BB0006761705F7365745F7363616E5F636F6EAF
:100BC00066696775726174696F6E202D2066616950
:100BD0006C2C20726573756C743A20307825303235
:100BE000580A00003D3D3E3E206163695F676170C9
:100BF0005F7365745F7363616E5F636F6E66696771
:100C000075726174696F6E202D205375636365730F
:100C1000730A00006163695F6761705F737461727A
:100C2000745F70726F636564757265202D206661F4
:100C3000696C2C20726573756C743A20307825309D
:100C400032580A003D3D3E3E206163695F67617036
:100C50005F73746172745F70726F636564757265DF
:100C6000202D20537563636573730A006163695FA8
:100C70006761705F7465726D696E6174655F6761ED
:100C8000705F70726F63202D206661696C2C20721A
:100C90006573756C743A203078253032580A00003C
:100CA0003D3D3E3E206163695F6761705F746572C0
:100CB0006D696E6174655F6761705F70726F6320EC
:100CC0002D20537563636573730A00003D3D3E3EFE
:100CD0002050524F435F4741505F43454E5452416D
:100CE0004C5F434F4E4E4543545F5245515545531B
:100CF000545F46495845445F41444452455353204C
:100D0000666F7220204C455F314D5F5048595F42FD
:100D100049540A003D3D3E3E2050524F435F4741FB
:100D2000505F43454E5452414C5F434F4E4E4543F6
:100D3000545F524551554553545F46495845445FA9
:100D40004144445245535320666F7220204C455F06
:100D5000434F4445445F5048595F4249540A00009C
:100D60003D3D3E3E206163695F6761705F736574FE
:100D70005F636F6E6E656374696F6E5F636F6E66DF
:100D8000696775726174696F6E205375636365730B
:100D900073202C207374617475733A203078253079
:100DA00032580A003D3D3E3E206163695F676170D5
:100DB0005F7365745F636F6E6E656374696F6E5F9A
:100DC000636F6E66696775726174696F6E204661E4
:100DD000696C6564202C207374617475733A2030DB
:100DE00078253032580A00003D3D3E3E20284649D5
:100DF0005845442041444452455353292061636976
:100E00005F6761705F6372656174655F636F6E6E6B
:100E1000656374696F6E20746F200000506572699D
:100E200070686572616C205075626C696320426CF9
:100E30007565746F6F746820416464726573733A8A
:100E400020253032583A253032583A253032583A37
:100E5000253032583A253032583A253032580A0077
:100E60003D3D3E3E20284649584544204144445299
:100E700045535329206163695F6761705F637265E1
:100E80006174655F636F6E6E656374696F6E204732
:100E900041502043726561746520636F6E6E6563B7
:100EA00074696F6E20537563636573730A00000085
:100EB00020202020202846495845442041444452BF
:100EC0004553532920207761697420666F7220652D
:100ED00076656E74204843495F4C455F434F4E4EE4
:100EE000454354494F4E5F434F4D504C4554455F29
:100EF0005355424556545F434F44450A0000000095
:100F0000202020202028464958454420414444526E
:100F100045535329202072656365697665642065B1
:100F200076656E74204843495F4C455F434F4E4E93
:100F3000454354494F4E5F434F4D504C4554455FD8
:100F40005355424556545F434F44450A0000000044
:100F50003D3D3E3E202846495845442041444452A8
:100F600045535329206163695F6761705F637265F0
:100F70006174655F636F6E6E656374696F6E204741
:100F800041502043726561746520636F6E6E6563C6
:100F900074696F6E204661696C6564202C207374DF
:100FA000617475733A203078253032580A00000099
:100FB0003D3D3E3E204741502043726561746520AF
:100FC000636F6E6E656374696F6E2077696C6C20F9
:100FD00072652D73746172742064756520746F205E
:100FE0006661696C656420636F6E6E656374696FBA
:100FF0006E2E0A0028314D2050485929206163691E
:101000005F6761705F7365745F7363616E5F636F69
:101010006E66696775726174696F6E202D206661F6
:10102000696C2C20726573756C743A2030782530A9
:1010300032580A003D3D3E3E2028314D205048594F
:1010400029206163695F6761705F7365745F7363B3
:10105000616E5F636F6E66696775726174696F6EEA
:10106000202D20537563636573730A0028434F4432
:1010700045442050485929206163695F6761705F6A
:101080007365745F7363616E5F636F6E66696775C6
:10109000726174696F6E202D206661696C2C2072FC
:1010A0006573756C743A203078253032580A000028
:1010B0003D3D3E3E2028434F444544205048592959
:1010C000206163695F6761705F7365745F736361FB
:1010D0006E5F636F6E66696775726174696F6E20AB
:1010E0002D20537563636573730A000028434F44D2
:1010F00045442050485929206163695F6761705FEA
:1011000073746172745F70726F6365647572652069
:101110002D206661696C2C20726573756C743A20A1
:101120003078253032580A003D3D3E3E2028434F5E
:101130004445442050485929206163695F676170C4
:101140005F73746172745F70726F636564757265EA
:10115000202D20537563636573730A00202050654A
:10116000726970686572616C2C20646220616464CD
:1011700072203078253032583A253032583A2530AE
:1011800032583A253032583A253032583A253032E2
:10119000580A00003D3D3E3E206163695F67617013
:1011A0005F7365745F636F6E6E656374696F6E5FA6
:1011B000636F6E66696775726174696F6E205375CF
:1011C0006363657373202C20726573756C743A20A9
:1011D0003078253032580A003D3D3E3E206163693B
:1011E0005F6761705F7365745F636F6E6E65637474
:1011F000696F6E5F636F6E66696775726174696F40
:101200006E204661696C6564202C20726573756C74
:10121000743A203078253032580A00003D3D3E3E79
:101220002028434F44454420504859292061636990
:101230005F6761705F7365745F636F6E6E65637423
:10124000696F6E5F636F6E66696775726174696FEF
:101250006E2053756363657373202C2072657375FC
:101260006C743A203078253032580A003D3D3E3EBD
:101270002028434F44454420504859292061636940
:101280005F6761705F7365745F636F6E6E656374D3
:10129000696F6E5F636F6E66696775726174696F9F
:1012A0006E204661696C6564202C20726573756CD4
:1012B000743A203078253032580A00003D3D3E3ED9
:1012C0002028434F444544205048592920706879CC
:1012D000203D204C455F314D5F5048595F42495495
:1012E0000A0000003D3D3E3E2028434F4445442037
:1012F0005048592920706879203D204C455F434F64
:101300004445445F5048595F4249540A0000000078
:1013100020207761697420666F72206576656E742F
:10132000204843495F4C455F434F4E4E4543544927
:101330004F4E5F434F4D504C4554455F53554245CA
:1013400056545F434F44450A000000002020726558
:10135000636569766564206576656E7420484349E7
:101360005F4C455F434F4E4E454354494F4E5F439C
:101370004F4D504C4554455F5355424556545F437D
:101380004F44450A000000003D3D3E3E204741508D
:101390002043726561746520636F6E6E6563746966
:1013A0006F6E204661696C6564202C2072657375D0
:1013B0006C743A203078253032580A002D2D436F56
:1013C0006E6E6563745F526571756573742829204C
:1013D00044657669636520536572766572204E6F49
:1013E0007420466F756E640A00000000202050488B
:1013F00059206368616E6765642C2074783A2564AF
:101400002072783A256420436F64656420506879BF
:10141000204C656433204F6E0A00000020205048A5
:1014200059206368616E6765642C2074783A25647E
:101430002072783A256420314D204C656433204F6A
:1014400066660A002020504859206368616E67650F
:101450006420556E65787065637465642C207478BB
:101460003A25642072783A256420314D204C656419
:1014700033204F66660A0000626C65417070436FEE
:101480006E746578742E4465766963655F436F6E2C
:101490006E656374696F6E5F537461747573202039
:1014A000203078253032580A000000004465766903
:1014B000636520636F6E6E65637465642E2054658A
:1014C000726D696E6174652074686520636F6E6EFD
:1014D000656374696F6E2066726F6D207468652035
:1014E0007065726970686572616C206465766963A5
:1014F000652E0A0020204E4F20416374696F6E2EC6
:1015000020626C65417070436F6E746578742E4410
:1015100065766963655F436F6E6E656374696F6E50
:101520005F537461747573202020307825303258F1
:101530000A00000028434F4445442920204E4F20F4
:10154000416374696F6E2E20626C65417070436FE9
:101550006E746578742E4465766963655F436F6E5B
:101560006E656374696F6E5F537461747573202068
:10157000203078253032580A0000000020204150E9
:10158000505F424C455F50726F6365647572655F72
:101590004761705F47656E6572616C2850524F43BA
:1015A0005F4741505F47454E5F5048595F544F4732
:1015B000474C455F434F444544293B0A0000000027
:1015C000427574746F6E2025642070726573736544
:1015D00064205B6C6F6E67507265737365733D2535
:1015E000645D0A00000000000200000030000020DE
:1015F0000000000008000000580200200000000069
:1016000001000000D10400204572726F723A20720E
:10161000656163686564206D6178696D756D206EC4
:10162000756D626572206F6620636F6E6E656374A0
:1016300065642073657276657273210A000000008C
:1016400050524F435F474154545F43544C5F4449A9
:1016500053435F414C4C5F5052494D4152595F5387
:1016600045525649434553207365727669636573E5
:1016700020646973636F7665726564205375636374
:1016800065737366756C6C790A0A000050524F439B
:101690005F474154545F43544C5F444953435F4157
:1016A0004C4C5F5052494D4152595F534552564937
:1016B000434553206163695F676174745F636C7451
:1016C0005F646973635F616C6C5F7072696D617296
:1016D000795F736572766963657320636D64204E0C
:1016E0004F4B20737461747573203D307825303210
:1016F000580A0A00444953434F5645525F414C4CE7
:101700005F434841525320436F6E6E48646C3D30D6
:10171000782530345820414C4C53657276696365A6
:1017200048616E646C655B307825303458202D201C
:101730003078253034585D0A00000000416C6C2080
:10174000636861726163746572697374696373203D
:10175000646973636F76657265642053756363654E
:10176000737366756C6C790A0A000000416C6C201A
:10177000636861726163746572697374696373200D
:10178000646973636F76657279204661696C65641C
:101790002C20737461747573203D30782530325875
:1017A0000A0A0000444953434F5645525F414C4C8E
:1017B0005F434841525F4445534353205B30782593
:1017C000303458202D203078253034585D0A000000
:1017D000416C6C20636861726163746572697374D3
:1017E00069632064657363726970746F72732064D7
:1017F0006973636F7665726564205375636365739F
:101800007366756C6C790A0A00000000416C6C20EC
:10181000636861726163746572697374696320647B
:10182000657363726970746F727320646973636F38
:1018300076657279204661696C65642C20737461E9
:10184000747573203D3078253032580A0A00000044
:1018500020536572766963654368616E67656443AA
:101860006861724465736348646C203D307825304C
:1018700034580A00416C6C206E6F7469666963614C
:1018800074696F6E7320656E61626C656420537558
:10189000636365737366756C6C790A0A00000000F7
:1018A000416C6C206E6F74696669636174696F6EF8
:1018B0007320656E61626C6564204661696C656465
:1018C0002C20737461747573203D30782530325844
:1018D0000A0A000020204150504C49434154494FCE
:1018E0004E20434C49454E54203A204E4F544946D1
:1018F00049434154494F4E2052454345495645447A
:10190000200A000020204150504C49434154494F87
:101910004E20434C49454E54203A204E4F544946A0
:1019200049434154494F4E20524543454956454449
:101930000A0000004143495F4154545F524541440D
:101940005F42595F47524F55505F545950455F525F
:101950004553505F56534556545F434F4445202DE1
:1019600020436F6E6E48646C3D3078253034580AE1
:1019700000000000202025642F25642073686F720A
:101980007420555549443D3078253034582C206812
:10199000616E646C65205B307825303458202D20D2
:1019A0003078253034585D002C2047454E4552494B
:1019B000435F4154545249425554455F5345525632
:1019C0004943455F5555494420666F756E640A006A
:1019D0002C2052435F4C4F4E4752414E47455F5576
:1019E0005549445F313642495420666F756E640A2A
:1019F000000000004143495F4154545F5245414457
:101A00005F42595F47524F55505F545950455F529E
:101A10004553505F56534556545F434F44452C2021
:101A20006661696C6564206E6F2066726565206909
:101A30006E64657820696E20636F6E6E656374698D
:101A40006F6E207461626C6520210A004143495F1A
:101A50004154545F46494E445F42595F5459504582
:101A60005F56414C55455F524553505F565345565E
:101A7000545F434F4445202D20436F6E6E48646C85
:101A80003D3078253034582C204E756D5F6F665F81
:101A900048616E646C655F506169723D25640A003F
:101AA0004143495F4154545F46494E445F42595F48
:101AB000545950455F56414C55455F524553505F10
:101AC00056534556545F434F4445202D205061697D
:101AD0007449643D256420466F756E645F4174747B
:101AE0007269627574655F48616E646C653D3078DB
:101AF000253034582C2047726F75705F456E645FD7
:101B000048616E646C653D3078253034580A0000B9
:101B10004143495F4154545F524541445F42595FDC
:101B2000545950455F524553505F56534556545F84
:101B3000434F4445202D20436F6E6E48646C3D300A
:101B400078253034580A00002020436F6E6E4864B8
:101B50006C3D3078253034582C206E756D6265727E
:101B6000206F662076616C75652070616972203D1A
:101B70002025640A000000002020202025642F2555
:101B8000642073686F727420555549443D30782540
:101B90003034582C2050726F706572746965733DD3
:101BA0003078253034582C204368617248616E6467
:101BB0006C65205B307825303458202D2030782516
:101BC0003034585D000000002C204741545420530D
:101BD0004552564943455F4348414E4745445F435C
:101BE000484152414354455249535449435F555526
:101BF00049442063686172616320666F756E640A90
:101C0000000000002C205357495443485F435F5560
:101C10005549445F313642495420636861726163BB
:101C200020666F756E640A002C204C45445F435F4C
:101C3000555549445F3136424954206368617261A9
:101C40006320666F756E640A000000004143495FBF
:101C50004154545F524541445F42595F5459504585
:101C60005F524553505F56534556545F434F44456A
:101C70002C206661696C65642068616E646C652007
:101C80006E6F7420666F756E6420696E20636F6E70
:101C90006E656374696F6E207461626C6520210AE1
:101CA000000000004143495F4154545F46494E449F
:101CB0005F494E464F5F524553505F565345565409
:101CC0005F434F4445202D20436F6E6E48646C3D4A
:101CD0003078253034580A005052494D4152595FEE
:101CE000534552564943455F555549443D30782543
:101CF0003034582068616E646C653D30782530342E
:101D0000580A00007265736574202D2055554944AA
:101D100020262068616E646C65202D204348415266
:101D2000414354455249535449435F555549443DF5
:101D3000307825303458204368617253746172746E
:101D400048616E646C653D3078253034580A000077
:101D500044657363726970746F7220555549443DD0
:101D60003078253034582C2068616E646C653D30C5
:101D700078253034582D3078253034582D3078255A
:101D800030345800503250577269746520666F7550
:101D90006E64203A204465736320555549443D30B4
:101DA00078253034582068616E646C653D30782544
:101DB0003034582D3078253034582D307825303453
:101DC000580A00005377697463685F43446573631E
:101DD00048646C6520666F756E64203A20446573B4
:101DE0006320555549443D3078253034582068618A
:101DF0006E646C653D3078253034582D3078253050
:101E000034582D3078253034580A00002C20666F65
:101E1000756E6420474154542053455256494345FA
:101E20005F4348414E4745445F4348415241435414
:101E3000455249535449435F555549440A000000EF
:101E40004143495F4154545F46494E445F494E46C1
:101E50004F5F524553505F56534556545F434F446E
:101E6000452C206661696C65642068616E646C65F0
:101E7000206E6F7420666F756E6420696E20636FCC
:101E80006E6E656374696F6E207461626C6520218B
:101E90000A0000004143495F474154545F4E4F548C
:101EA000494649434154494F4E5F56534556545F46
:101EB000434F4445202D20436F6E6E48646C3D3087
:101EC00078253034582C20417474726962757465B9
:101ED0005F48616E646C653D3078253034580A0087
:101EE0002020496E636F6D696E67204E6F6669666C
:101EF00069636174696F6E20726563656976656494
:101F0000205065726970686572616C20696E666FD9
:101F1000726D6174696F6E205B705F6576742D3EC3
:101F2000436F6E6E656374696F6E5F48616E646C5B
:101F3000653A3078253034585D0A00004143495FE6
:101F4000474154545F4E4F54494649434154494FC9
:101F50004E5F56534556545F434F44452C206661AF
:101F6000696C65642068616E646C65206E6F7420B6
:101F7000666F756E6420696E20636F6E6E65637444
:101F8000696F6E207461626C6520210A0000000098
:101F90006163695F676174745F636C745F777269B2
:101FA00074655F776974686F75745F7265737020AC
:101FB0006661696C65642C20636F6E6E48646C3D6D
:101FC0003078253034582C2056616C756548646C27
:101FD0003D3078253034580A000000002C2047415D
:101FE000505F534552564943455F55554944206615
:101FF0006F756E640A0000002C2047415020444554
:10200000564943455F4E414D4520636861726163A7
:1020100020666F756E640A002C20474150204150A5
:1020200050454152414E43452063686172616320CF
:10203000666F756E640A00002C20666F756E6420F2
:1020400047415020415050454152414E43455F5514
:102050005549440A000000000000FFFF0000000096
:1020600004000000582004100000000003000000DD
:102070009C0F00200000000001000000E6ED0410AD
:1020800001000000020000003200002020000000DB
:10209000FB349B5F8000008000100000052A0000D8
:1020A00010000000010000003C0300205C20041030
:1020B0000A000000FB349B5F8000008000100000DD
:1020C000292B0000100000000000000000000000AC
:1020D0006820041002000000FB349B5F8000008039
:1020E000001000002A2B000010000000000000007B
:1020F000000000000000000002000000FB349B5FB5
:1021000080000080001000003A2B0000100000004A
:1021100000000000000000007420041000F00B100C
:1021200000080000AA02000000F80B10F8070100E8
:1021300000000000C4E8E9EAEBEDEEEFF0F1F2F3A5
:10214000F4F5F6F7F8F9FAFBFCFCFDFEFF000102DE
:102150000304050607000000B5C20510C1C2051042
:1021600085C105100DC2051015C00510BBC00510B6
:10217000686A6C747A4C00007072696E74665F7382
:102180003A20256E20646973616C6C6F776564001A
:102190007072696E74663A2062616420256E2061F7
:1021A0007267756D656E74007072696E74665F73C8
:1021B0003A2062616420257320617267756D656ED7
:1021C00074000000000000006E616E004E414E0081
:1021D000696E6600494E460030002E00FB349B5F5E
:1021E0008000008000100000292B0000100000007B
:1021F000FB349B5F8000008000100000052A000077
:1022000010000000000000000000000000000000BE
:10221000000000003505061000000000020000006C
:10222000030000000300000006000000030000009F
:10223000030000003C00000070000000700000007F
:10224000D003000070000000C301000085C4051029
:102250006BD104101BD2041073D904101BD90410C5
:102260008F390410E7390410313C0410393C041054
:10227000413C0410493C0410513C0410B1CC051001
:1022800047E80410013C0410113C04109BE20410C8
:102290009FC70410FF390410533B0410C33A0410C5
:1022A00075360610CB3A0410E9C80510BB3B061082
:1022B0000D390610BB3D0610CD3F0610CD3F061070
:1022C000E3400610BB3D0610BD420610BD4206109D
:1022D000BD420610BF3C0610C73806108B380610EA
:1022E000E340061000000000754B0610551B061059
:1022F000454B06108D4B0610DD190610EF39041002
:10230000F7390410654606106D460610694606103A
:10231000273A04102F3A0410373A04103F3A0410B9
:10232000673A04104F3A0410573A04105F3A041009
:10233000473A0410294606106F3A0410773A041001
:102340007F3A04102D46061071460610B34606105B
:10235000B906061000000000C1460610A5050610CB
:10236000451906104B4A06100D0E0610234A06109A
:10237000C34A0610E746061000000000754C061020
:10238000A1240610D14B0610000000000000000040
:1023900000000000A54C06109B4C06100000000039
:1023A000AF4C0610B94B061000000000174D061088
:1023B0000D4D061000000000214D0610C54B061003
:1023C00078B595B0062106A801F0CEF8002669463A
:1023D0008E81B24C08A82100342201F0CDF808A863
:1023E00001F0F2F8010005D02000343001F022F9AC
:1023F00001F0DDF906ADE02028706E70AE70E120CE
:10240000E870802028710220687106AA0621002049
:1024100001F0D2F9002805D001002000583001F069
:1024200009F903E02000B43001F004F9182100207C
:1024300001F0C6F9002806D00100802040002018D5
:1024400001F0F8F804E0A0204000201801F0F2F8B4
:1024500005A9012001F0B8F9002806D00100B82034
:102460004000201801F0E6F804E0D82040002018D1
:1024700001F0E0F8F0204000201801F0DBF8002126
:10248000002001F0D5F9002806D001008A20800044
:10249000201801F0CFF804E097208000201801F008
:1024A000C9F803A8801C009004AB04AA921C002168
:1024B000042001F0C5F92878029068780190A87886
:1024C0000090EB782A796979A0208000201801F02B
:1024D000B1F800BF36A21421002001F0E6F900286F
:1024E00006D00100AF208000201801F0A3F804E01E
:1024F000C0208000201801F09DF803AA02210020CE
:1025000001F0D9F9002806D00100CD208000201864
:1025100001F090F804E0DE208000201801F08AF835
:102520005F4D2E70002001F0BFFB002806D0010097
:10253000EB208000201801F07DF804E0FB208000F3
:10254000201801F077F8012068700821E970102147
:102550002971A870029601910820009000230022A2
:102560000121012001F0A4FB002805D001004D4805
:10257000201801F05FF803E04B48201801F05AF8EA
:10258000A87800280ED0012001F0F9FB002805D022
:1025900001004648201801F04DF803E04448201897
:1025A00001F048F807A001F045F816B070BD000032
:1025B00052435F4C6F6E6752616E67655F43656E35
:1025C0007472616C3D3D3E3E20456E6420424C4538
:1025D0005F496E69742066756E6374696F6E0A0078
:1025E00080B5012001F0DBFB01F0DCFB012001F0F4
:1025F000D7FB01BD80B501F0BFFC01BD80B5002156
:10260000022016E080B502F078FE01BD80B5FFF72C
:10261000F5FF01BD80B502F0A3FEFFF7EFFF01213A
:10262000042006E080B502F0EFFE01BD80B5012177
:10263000012002F061FF01BD80B519481D49816389
:102640001D4901621D4901651D4A0021012002F05A
:1026500046FF1C4A0021022002F041FF1A4A0021D5
:10266000042002F03CFF02F0A9FF03F031F8002142
:10267000C943884201D101F09AF8FFF7A1FE03F0A7
:1026800047F8124A00218020800102F028FF104AFA
:1026900000218020C00002F022FF01BDC000041014
:1026A000600000201C040000640400009C04000082
:1026B000F404000013310410FB30041085330410BF
:1026C000E1250410F525041005260410E531041059
:1026D000DB310410F0B585B004002078042802D066
:1026E000822802D0F3E1E61C00E0261D6178CA4F83
:1026F000CA4D052908D0102900D1D9E13E293BD087
:10270000FF2900D122E1DFE1684601210170217932
:1027100062791206120C1143418003F017F82079F8
:1027200061790906090C0843B989884221D1BC485E
:10273000B8810020B873280000F07CFF217960790F
:102740000006000C0143A27928002C3000F072FF33
:102750003800183001F055FE3800483001F051FEC5
:10276000002003F0EBFC012003F0E8FC022003F062
:10277000E5FC00F0B8FCAAE1E178012900D1AEE067
:10278000022900D1CBE0032909D00A2900D197E022
:102790000C2900D186E00D2900D1C6E0D3E0280045
:1027A0006C3000F047FFE079217A0906090C0843F4
:1027B00003F0D2FD0022C74B03F0E8FD0022802386
:1027C0005B0303F0A5FEE079217A21D80906090C04
:1027D0000843E679217A0906090C0E4303F0BCFD93
:1027E0000022BC4B03F0D2FD00900191300003F0B9
:1027F000B3FD0022B74B03F0C9FD03F0B1FE03F0B7
:10280000BBFD02000B000098019903F035FF1EE0AC
:102810000906090C0843E679217A0906090C0E43DA
:1028200003F09AFD0022AB4B03F0B0FD03F098FEDD
:1028300003F0A2FD00900191300003F08DFD002215
:10284000A54B03F0A3FD009A019B03F0B2FE00220A
:10285000A24B03F09BFD03F083FEE27A217B090685
:10286000090C0A43637AA17A0906090C0B43E17942
:10287000267A3606360C31430A2454430094060067
:102880001C00080003F068FD0022924B03F07EFD5F
:1028900003F066FE0100230032002800A03000F0A3
:1028A000C9FE14E1012002F037FE6179A07900062B
:1028B000000C0143237AE279207900F025FD06E13E
:1028C000E07F641CE17F641E0906090C0843627FF7
:1028D000A17F0906090C0A43E37E217F0BE0E07C1F
:1028E000217D0906090C0843627CA17C0906090CBC
:1028F0000A43E37B217C0906090C0B436179A57926
:102900002D062D0C294303900292019320000930DB
:102910000090237AE279207900F01CF9D7E0E31DDA
:10292000A27921000E31607B05E023000833E279B3
:1029300021001D31207F00F0FBFB002802D0012088
:1029400000F098FAC3E000BF66A0BEE0307871786E
:102950000906090C0843001FF4D06149401A65D0EC
:10296000401E49D0401F33D0C01E42D0491F401ADC
:1029700003D01F31401A70D093E0747BB07B000607
:10298000000C0443F37A307B0006000C0343727A98
:10299000B07A0006000C0243F179307A0006000C90
:1029A0000143B078F7783F063F0C3843012704977E
:1029B00036790396102602960196009401F0BFF92D
:1029C000002802D0882040002EE0A82040002BE004
:1029D000C8204000281800F02DFEB078012801D151
:1029E000F078002873D100218020800102F084FD5E
:1029F0006DE0DC20400017E0F4204000281800F0D3
:102A000019FE9E49B88901F061F900280AD0010039
:102A100084208000281858E060000020FC05041085
:102A2000FFFF000091208000281813E09B20800009
:102A3000281800F0FFFD3179002906D07279A62010
:102A40008000281800F0F6FD03E000BF2CA000F085
:102A5000F1FD8BA000F0EEFD39E0B62080002818D3
:102A600000F0E8FDB179F0790006000C014300BFE9
:102A700029A000F0DFFDB279F0790006000C0243D6
:102A8000317970790006000C0143B078F3781B06A9
:102A90001B0C1843002301930093082301F02AF92B
:102AA00015E0317870780006000C01431EA00CE0A0
:102AB000E07804280BDABFF34F8F72487249086040
:102AC000BFF34F8F00BFFDE71DA000F0B3FD05B0C1
:102AD000F0BD00000000F43F0000F4BF00005940CA
:102AE000FD0300004843495F4C455F4D4554415F3D
:102AF0004556543A203078253032580A00000000FC
:102B000020202020202D2050616972696E6720539B
:102B10007563636573730A0048616E646C65203089
:102B200078253034580A00004843495F56454E44E2
:102B30004F525F4556543A203078253034580A00B9
:102B40004843495F4556454E543A20307825303247
:102B5000580A0000F4B58AB0A74C0026020005D040
:102B60000100A64800F066FDA67384E0119F109D49
:102B700068468181A24800F05DFD2878029068785F
:102B80000190A8780090EB782A7969799D4800F047
:102B900051FD380003F0E0FB08AA03C208A80CC8E6
:102BA0000020994903F0F2FB6A4603C2684603C855
:102BB00003F0D6FC050003F0DFFB06AA03C268465B
:102BC00003C8002280235B0303F0A2FC06D86846FA
:102BD00003C806AA0CCA03F04FFD0AE008A803C800
:102BE0008A4B03F0D3FB02000B0006A803C803F0D6
:102BF000E0FC0022864B03F0C9FB03F0B1FC139903
:102C0000129B0A224A43009202002900814800F0E8
:102C100011FDA07B012809D10320A07304A8067030
:102C200069468989418002F091FD01E00220A0738C
:102C30000AA8007869468989A181002802D1042068
:102C400002F06AFCA07B032815D16846808902F057
:102C5000A2FD2000303001F0D4FB012003F06AFA1D
:102C6000962149002000183001F0A8FB6A49200095
:102C7000483001F0A3FB0BB0F0BD000040E20100C2
:102C80000A0000000400FA050CED00E0FEB500BFEC
:102C900063A700BF6AA6614C574D002805D00228E3
:102CA00050D03ED3032859D0F7BD01AA01A9491C31
:102CB000A88901F059F8010059D1300000F0BAFCA0
:102CC000684602794179380000F0B4FC68464079E2
:102CD000022815D168460079022811D1012201216C
:102CE0002000283000F0A6FC0020009001230122E3
:102CF0000021A88901F03CF800287AD158A01CE0F6
:102D0000022202212000283000F094FC00200090D4
:102D1000022302220021A88901F02AF80028EDD020
:102D200067E01321A88900F097FF002803D0010075
:102D300020005C301CE02000883000F07BFC00F0BC
:102D4000D7F9F7BDA88900F0DEFF002803D0010005
:102D50002000AC300CE02000E43037E001AA01A9EB
:102D6000491CA88901F000F8002804D001002000C7
:102D700000F060FCF7BD300000F05CFC68460279B2
:102D80004179380000F056FC68464079012820D18E
:102D90006846007901281CD1032203212000283035
:102DA00000F048FC00200090042304220021A889A0
:102DB00000F0DEFF00281CD18A204000201800F01F
:102DC00039FC00F095F9A8204000201800F032FCF2
:102DD000F7BD012201212000283000F02BFC00204B
:102DE0000090012301220021A88900F0C1FF0028E2
:102DF000E2D000BF1DA0E9E760000020F808041041
:102E000030090410740904100000F43F0000F4BFFE
:102E100000005940B809041010270000280A0410C7
:102E20003D3D3E3E2050485920506172616D20204A
:102E300054583D2025642C2052583D2025640A001A
:102E40003D3D3E3E206863695F6C655F726561640D
:102E50005F706879202D20537563636573730A0072
:102E6000537563636573730A000000004661696C03
:102E70000A000000F0B585B004210127A94DAA4C35
:102E80000200052A33D801A39B5C9F44041426DC6E
:102E9000D0D6C8208000039002900426A348077073
:102EA00032E00026012000F0FBFE010053D020009C
:102EB000C0300EE1C82080000390029004269B4899
:102EC0000170029880B20190039880B200900023B4
:102ED00001220021012000F0C3FE002800D1CEE035
:102EE00001008920C000201800F0A4FBCCE00528D8
:102EF00000D9F6E001A24000125E97440A00A6FF46
:102F0000C0FF6C0060006600029880B201900398D8
:102F100080B20090012301220021012000F0A0FED8
:102F2000002804D00100200000F084FB03E0200012
:102F3000383000F07FFB002300220121012000F047
:102F4000ABFE002803D0010020006830C1E0AE7362
:102F500020009830C3E0AE732000F430BFE0734827
:102F6000077087E07148017084E0642128003030E8
:102F700001F024FA6D480078012801D1902000E08A
:102F8000B4204000201800F055FBC82080000190BC
:102F900000900023654802780021012000F060FEC7
:102FA000002804D00100200000F044FB03E02000D2
:102FB000383000F03FFB102002900190FA204000D2
:102FC00000900023502228215848007800F052FE3B
:102FD000002802D10021DA2001E00100FC2040009D
:102FE000201800F027FB062103A800F0BDFAE1201D
:102FF00003AE307000217170B170F07080203071BC
:10300000022070718F208000201800F013FB3078B0
:10301000029070780190B0780090F37832797179ED
:103020009C208000201800F005FB03AA00213F48E7
:10303000007800F02DFE002810D1AD20800020186F
:1030400000F0F8FAAF73C1208000201800F0F2FA07
:10305000042002F06BFAD52080003FE00100E92057
:103060008000201800F0E6FA0020A873A548201878
:1030700000F0E0FA0021B80202F03EFA31E09120BF
:10308000C000201800F0D6FA029880B20190039890
:1030900080B20090002304220021012000F0E0FD16
:1030A000002806D001009820C000201800F0C2FAC5
:1030B00003E0B248201800F0BDFA002300220421EA
:1030C000012000F0E9FD002806D00100A820C00082
:1030D000201800F0AFFA04E0AE73A948201800F001
:1030E000A9FA05B0F0BD80B5012002F015FA01BDC6
:1030F00080B5012002F01AFA01BD80B500218020C0
:10310000C00102F0F9F996214900BA4801F056F9D8
:1031100001BD80B5012003F01DF86421C64801F00F
:103120004DF901BD60000020AC0B0410D00400205C
:10313000F8B586B00024B04F6D4668730D00684640
:1031400002730593002001266946497B8C4242DACE
:10315000295D049129194978FF2936D10499062956
:1031600033DD2919897830292FD12919C978002907
:103170002BD129190979022927D1291989792329DC
:1031800023D12919C97900291FD12919097A0029C0
:103190001BD12919497A002917D16846007BBA4901
:1031A000087406220599AC4800F000FAB649CE73BF
:1031B000487C0290887C0190C87C00900B7D4A7D01
:1031C000897D380000F036FA012004996418641CE7
:1031D000A4B20100B8D007B0F0BD80B50320FFF75E
:1031E00049FE01BDFEB500BF38A000F023FAA74C90
:1031F0000026A54DE87B002857D0EE73FA277F0004
:1032000010200290019000970023502228210120D5
:1032100000F030FD010002D10021200001E020007B
:10322000443000F007FA102002900190009700232C
:1032300050222821042000F01DFD002803D1002188
:103240002000883002E001002000D83000F0F2F9C0
:10325000A74F3878012801D1942000E0A820400031
:10326000201800F0E7F92A001132297C387800F0A4
:103270000FFD002812D10120A873BE2040002018A5
:1032800000F0D8F9042002F051F9DC2040002018A9
:1032900000F0D0F9A87B03280DD113E00100FA203B
:1032A0004000201800F0C6F904E08A2080002018B1
:1032B00000F0C0F9AE732800303001F0A2F8012010
:1032C00002F03CFF08A000F0B5F9F7BD436F6E6E49
:1032D0006563745F52657175657374282920626532
:1032E00067696E0A000000002D2D436F6E6E6563E6
:1032F000745F52657175657374282920656E64204A
:103300000A0000000404000010B511001A00794CF6
:10331000032908D1032A14D1022002F00BFF032253
:10332000032120000AE001290BD1012A09D1022042
:1033300002F004FF012201212000303000F07AF970
:103340000DE02000583000F075F90A24022002F048
:1033500001FFFA20400003F007FA641EF6D14A4C40
:103360002000483001F04DF86349A08903F010FABD
:1033700062492000483001F021F810BD040500002A
:103380007C050000FEB55C4C658826882900642019
:103390004843310003F030FA69460870E1880F00B5
:1033A000F019019064204843019903F025FA0600C2
:1033B000E81964214843019903F01EFA050050A062
:1033C00000F038F96846017855A000F033F9F1B201
:1033D00059A000F02FF9E9B25DA000F02BF92A4DB9
:1033E0002100A88903F0D4F944492800483000F0AE
:1033F000E5FFF7BD780000205C11041038B5414CA2
:10340000214DA97B200000F015F9A87B032803D1EA
:103410002000343000F00EF9A87B00280AD10120EA
:103420003349087064212800303000F0C7FF0020C5
:10343000FFF720FD31BD0000900000201248807B86
:10344000032800D0704780B52F4800F0F3F8032020
:10345000FFF71CFC01BD00007100002080B50A4888
:10346000817B032903D1294800F0E4F801BD00293C
:1034700009D104211E4A11706421303000F09EFFF2
:103480000220FFF7F7FC01BD60000020941104103A
:1034900038B51F4DA87B1B4C032800D13AE001280A
:1034A00002D1062000F0FCFBA97B002903D10420F7
:1034B000FFF7E0FC31BD20007C3000F0BBF831BDEF
:1034C00038B5134DA87B0F4C032800D122E001280A
:1034D00002D1062000F0E4FBA97B002903D10520DE
:1034E000FFF7C8FC31BD2000BC3000F0A3F831BDAF
:1034F000D0040020EC130410840F002010270000DB
:103500000A000000781404107C150410AC14041098
:10351000600000202000343000F08CF831BD000045
:1035200009435243206572727320202020202020FE
:103530002025326425250A00094D697373656420CE
:103540007061636B657473202025326425250A0041
:1035500009504552202020202020202020202020FB
:103560002025326425250A00002200BF094202D02E
:10357000491E4254FCD1704770B4103A03D378C945
:10358000103A78C0FBD2530701D318C918C001D52F
:1035900008C908C0D20704D30B880380891C801C8B
:1035A000002A01D50B78037070BC70478B0701D1DE
:1035B0008307E1D0124205D00B78491C0370401CF0
:1035C000521EF9D170474300B0B50546C07A1224A7
:1035D000802829D8298C172926D31448821D914286
:1035E00022D8298A17291FD381421DD8A87E0028F6
:1035F0001AD003F01CF9002808D0E87E002813D068
:10360000802811D8287F401E0E280DD80848342263
:10361000294603F00FF903F07DF9002803D403F0E5
:10362000EFFB002400E087242046B0BDFA03000031
:10363000780E00200EB4C0B5020003A8019000204F
:10364000009001AB0121044878440C3003F042FCA7
:10365000029906B0084700BFF901020081B0314964
:1036600001E081B030490A6802430A6009680840F5
:103670000090009801B070477CB504F0CFFB00F0DB
:103680005DF800F081F80820FFF7E8FF0420FFF75D
:10369000E5FF00F086FB00BF46A000680090234CC9
:1036A000206A0125ED430126304008D120683043CF
:1036B00020602068284020600120FFF7D2FFC02052
:1036C000C0050090684604F0BBFB6846002100225C
:1036D00006C0206A304008D1206806432660206872
:1036E000054025600120FFF7BCFF11480068102845
:1036F000FBD36846A021490001800021817001911F
:1037000000F09DFB0B480C49016004F059FD0028B6
:1037100001D000F04CF8002004F0C2FD04F048FF96
:10372000FCE700005000404860004048400040482E
:10373000101800606C0F00200000304880B588B081
:10374000182102A8FFF710FF68460021002206C0DA
:10375000032002908020400203901020059002A8D0
:1037600005F01EF8002801D000F021F8002000909C
:10377000202001900021684605F03AF9002801D088
:1037800000F015F809B000BD80B586B01821684674
:10379000FFF7EAFE02200090C0020590684605F09F
:1037A000C3F9002801D000F002F807B000BD72B6DE
:1037B000FEE700000000000080B505F057FA80BD6C
:1037C00080B505F039FB80BDF8B506000F0000207C
:1037D0003880154C200000F07DFA010023D1200034
:1037E00000F07CFA0400114DF00705D521002800F7
:1037F00000F078FA010016D1280000F077FA38803E
:1038000021002800243000F06DFA01000BD12100C6
:103810002800483000F066FA010004D12100280099
:103820006C3000F05FFAF2BD580300208C200410C9
:1038300080B5022801D9122080BD05F021FB80BD92
:10384000FEB50C00089F0025158002990D803D8073
:103850000521014027D0394E300000F03BFA01002D
:1038600022D168460470364C200000F03FFA0199DE
:1038700008802000243000F039FA029908803000D6
:1038800000F02CFA3D8069460978022906D1010032
:1038900020006C3000F026FA010005D12AA2082190
:1038A000002000F002F80020FEBD70B504000D00FD
:1038B0001600234804E070B504000D0016002148EE
:1038C00000F014FA33002A002100401C80B200F0FE
:1038D00001F870BDF3B581B017001D000024184E2B
:1038E0006946088024206043301800F0FFF9002862
:1038F00004D0401C69460988884202D0641C052C0B
:10390000F0D3052C0BD06846038924204443341996
:10391000206A8188DA19914201DB002801D1122046
:10392000FEBD29003A008068C018FFF73FFE206AFC
:103930000178890700D547800020FEBD14030020D0
:10394000600200208402002053544D33325742302D
:1039500080B505F0EFFA02BD1CB56C46247C0094DE
:1039600005F06EFB16BD80B505F0B6FB02BD80B557
:1039700005F0E8FB02BD80B505F0FCFB02BD80B59B
:1039800005F050FC02BD80B505F086FC02BD80B597
:1039900005F0A4FC01BD80B505F0C6FC01BD80B5F5
:1039A00005F0E6FC02BD80B505F0F6FC02BD80B571
:1039B00005F07EFD01BD80B505F0A0FD01BD80B51F
:1039C00005F0C4FD01BD80B505F0C7FD01BD80B5A2
:1039D00005F0C4FD02BD80B505F0DEFD02BD80B579
:1039E00005F006FE02BD80B505F028FE01BD80B5DC
:1039F00005F02AFE02BD80B505F050FE02BD80B57F
:103A000005F07CFE01BD80B505F0E2FE02BD80B58B
:103A100005F0E0FE02BD80B505F0DEFE02BD80B51A
:103A200005F0DCFE02BD80B505F0F4FE02BD80B5F8
:103A300005F022FF02BD80B505F03AFF02BD80B55A
:103A400005F052FF02BD80B505F08EFF02BD80B5C6
:103A500005F0D0FF02BD80B505F0FCFF02BD80B5CA
:103A600006F016F802BD80B506F02EF802BD80B54E
:103A700006F048F802BD80B506F062F802BD80B5D8
:103A800006F074F802BD80B506F08CF802BD80B572
:103A900006F0C2F802BD80B506F0C0F802BD80B5E0
:103AA00006F0CEF802BD1CB56C46247D01946C4630
:103AB000247C009406F01AF913BD80B506F0C6F90F
:103AC00002BD80B506F0CAF901BD80B506F0E2F985
:103AD00001BD80B506F0FAF901BD1CB5059C019445
:103AE0006C46247C009406F03BFA13BD80B506F0CA
:103AF00015FB01BD80B506F055FB01BD80B506F094
:103B0000B1FB01BD80B506F01FFC01BD80B506F01C
:103B100065FC01BD80B506F07FFC01BD80B506F0F7
:103B2000EBFC02BD1CB56C46247C009406F03EFD07
:103B300013BD80B506F084FD01BD80B506F08BFD98
:103B400002BD80B506F09EFD01BD80B506F0F2FD18
:103B500001BD80B506F048FE01BD80B506F0D4FE7B
:103B600002BD80B506F020FF01BD80B506F024FF40
:103B700002BD80B506F02AFF02BD80B506F044FF05
:103B800001BD80B506F0BAFF02BD80B506F0FEFFAC
:103B900001BD80B507F03EF801BD80B507F076F8AD
:103BA00002BD80B507F0AAF802BD80B507F0BAF8EB
:103BB00002BD80B507F038F902BD18B587B010AC6A
:103BC000247806940FAC247805940EAC24780494E1
:103BD0000DAC247803940CAC247802940BAC2478BC
:103BE00001940AAC2478009407F020F908B010BDC5
:103BF00080B507F049F902BD80B507F08BF902BD29
:103C000080B507F037FA01BD80B507F015FB01BD9F
:103C100080B507F039FB01BD80B507F0FBFB02BDA5
:103C200080B507F02FFC01BD80B507F079FC01BD20
:103C300080B507F0D9FC01BD80B507F0E7FC01BDF8
:103C400080B507F005FD01BD80B507F025FD01BD7C
:103C500080B507F0DBFD01BD80B507F0EDFD02BDCD
:103C60001CB56C46A48A01946C46248A009407F023
:103C7000E7FD16BD1FB56C46248C02946C46A48BE0
:103C800001946C46248B009407F0ECFD04B010BD49
:103C900080B507F0FAFD02BD80B507F0FFFD02BD5B
:103CA00080B507F011FE02BD80B507F01DFE02BD14
:103CB0001FB508AC247802946C46247F01946C46AE
:103CC000247E009407F018FE04B010BD80B507F004
:103CD00057FE02BD80B507F05FFE02BD80B507F05C
:103CE0005FFE02BD80B507F05FFE02BD80B507F044
:103CF0005FFE02BD1CB5059C01946C46248A0094AD
:103D000007F05AFE16BD80B507F05FFE02BD80B514
:103D100007F05FFE02BD80B507F05FFE02BD80B513
:103D200007F066FE02BD1CB5049C009407F066FE19
:103D300016BD1CB5049C009407F06FFE16BD18B5A7
:103D400085B00CAC247804940BAC247803946C46B6
:103D5000248D02946C46A48C01946C46248C0094AF
:103D600007F06AFE06B010BD80B507F078FE02BD10
:103D70001CB56C46248A009407F07AFE16BDE0B5A7
:103D800001A9087001220846114607F07CFE0028B0
:103D900000D08CBD01A8007807F093FE8CBD704761
:103DA0007047704780B5002007F0A8FE80BD8300F3
:103DB0008500070007008300850005000700030059
:103DC00003000F000500820081000500010005D4FA
:103DD0000121C006C00E8140664801607047C1687D
:103DE0000322914302220A43C260704709E0C0687F
:103DF0008007800F022801D1012070470020704702
:103E000000BFC16803229143C160704701617047E0
:103E100000697047816AC04A0A4082627047816ABD
:103E20004800C00F704700697047816A8022920580
:103E30000A438262704780687047C0687047F1B576
:103E40000127B648C06B3843B449C8630846806B45
:103E5000384388631720FFF7B9FF1420FFF7B6FF38
:103E600000984068002800D00120AD4C207000254B
:103E7000000603D100988078002813D0A948C168B3
:103E80003940FBD017210160C1683943C1604560EA
:103E9000C1683940FCD02000103000F01FFBE06901
:103EA000206209E0C82040032062E061AD48A061C3
:103EB000AD482061AD48606100984068002802D19B
:103EC000A020C0050DE000030A2102F095FC60600F
:103ED000A74E300000F060FA01006068884202D30B
:103EE000300000F059FA6060257300980088A14EF8
:103EF0003060A16900F073FB00208C216054002128
:103F00003200083203C28548006830610020320068
:103F1000183203C230216054974AA169606807F0E3
:103F200033FEA060207821008C31087420008C3092
:103F3000856020008C30077321008C314D73210087
:103F40008C31CD8120006130057045708570A5658C
:103F5000E5658A48A064656500F025FA626800237B
:103F600012184B412000403000F066FB012000F0A9
:103F7000E1FAF1BD00E100E0F8B58CB0002069463F
:103F80000870674F38009930019028E0401C1CE011
:103F9000046905738168002900D088472000F7D1A3
:103FA00069469420385800F0CBFB9421785068463D
:103FB000007801280DD1EFF3108172B601980078D6
:103FC000421C019B5B789A42E0D1019A107081F308
:103FD0001088019840780499401801994870019818
:103FE0004078019909780A1A02D2802040001218FC
:103FF0000026002A29D0049294203C58039402946D
:10400000002502E0260024696D1C002C0FD0207BC7
:104010000028F7D000F0C7F902000B0003CC083CE1
:10402000801A99410029EDDB01DC0628EAD328003B
:104030000025002802D03561039400E00295039822
:104040009421785002980028A9E7387B002847D0AF
:10405000A2480068012420405BD03E73A048C1788C
:10406000002904D18178002901D0867026E03878B3
:1040700000281CD002A800F031FA0499B86E80B272
:1040800000F0ADFAEFF3108572B630203C5403987F
:1040900078610498B861029838610598F86100F079
:1040A000B9FB85F31088002000F044FA06E0EFF336
:1040B000108472B600F0AEFB84F31088012000F08B
:1040C000F3FB3800403000F09CF900F06CF97A689E
:1040D000002312184B413800403000F0ADFA18E0D0
:1040E0003878002815D000F05EF93A6F7B6FFA241B
:1040F00064030025A4185D418D420AD801D384428F
:1041000007D23800403000F07CF93800403000F031
:1041100077FA0DB0F0BD0000FFFFFFBF1018006080
:10412000B80A002004100060F8B50400884806684A
:10413000EFF3108572B600F0C3FA864F3B00803370
:1041400003CB083B03C4083C9A4AF9699868801B72
:1041500007F01AFD020085F3108803CC0023801AB3
:104160009941F4BDC2F528008D5B0000ECEB6501C0
:10417000FFEFFFFF200B0020260300000146041084
:10418000F8B586B0734D28008C30407B29008C3107
:10419000897B88422FD1287B00282CD1032400F072
:1041A00002F904AA03C202A800F045FC290061310B
:1041B0006122AA5C002A02D14A78002A01D0012893
:1041C00002D18978002918D0AA6DEB6D04A803C824
:1041D0008C242E5D002736184F41A86E00218019CF
:1041E00079410024523061418B4227D301D8824269
:1041F00024D3022405E0002039E002281ED0012843
:104200001CD06D4B9A68002A30D0107B00282DD02E
:1042100003CA083A0090019104A803C806000F00E1
:10422000A86E002180197941002652307141009E0C
:10423000019F8F4204D801D3864201D2012016E0AB
:10424000032C12D1106900280FD12800403082427F
:104250000BD10120D873002000F0C0FA8248016819
:104260008F4A0A400260032001E00224200007B0C8
:10427000F0BDF8B50B0000D00123364E350058359F
:104280002B73110000D00121297200246C72EC7292
:104290000121A972EFF3108772B600F003F903C58C
:1042A000083D02460B462800283003C8121A8B41ED
:1042B0008748A34201D8824204D3AC7287F31088A6
:1042C0000120F2BD002000F0EFFA040087F310880F
:1042D000012000F083FA2000F2BD00001010006001
:1042E000510B002070B50320C0437B490A6802408F
:1042F0000A600A681040086020480168684A0A405D
:104300000260144C20005830002545724581EFF3BF
:10431000108672B600F047F8A26DE36D121A8B4159
:104320008C20205C0021121A8B4186F31088002B10
:1043300004DC01DB012A01D2012070BD002B04DC6A
:1043400001DB0F2A01D2022070BD002070BD0000E9
:1043500014000060B80A0020EFF3108072B65D49C7
:1043600009685D4A091D51601168032399430223BE
:104370000B43136080F3108870470000281800601A
:104380007047AB480100613100226123C05C002806
:1043900000D00A708A70704780B5064AA449C9697E
:1043A00007F0F2FB02BD80B500F08AF9A14803C80E
:1043B00004BD000035060000440B0020F8B50400E1
:1043C0000D00FFF7F0FF06000F00290D28030A2259
:1043D000002307F0FAFB8019794102000B0020004E
:1043E00000F02AF90400012000F0F8F9E0B2F2BD73
:1043F00010B500F021F90400012000F0EFF9E0B25F
:1044000010BDF8B5AC4C21680E00002300250A0051
:1044100001E035003669002E07D08642F9D13769B0
:104420008E4201D13A0000E02F616D462B7003737C
:104430002068904215D06946100000F081F9206094
:104440006846007800280DD0EFF3108072B66179CD
:104450004A1CA3799A4200D0491C617180F31088EC
:10446000F1BD2260F1BD00003018006018B50020D9
:104470000090009891480168094A0A400260AD49DD
:104480000A78531C4C78A34200D0521C0A700121B8
:10449000C2690A43C261C0690140009111BD0000B8
:1044A000FFFFFFBF10B5040000F00AF9614803C820
:1044B0000A00844200D2521C1100200010BD9E4808
:1044C000816801220A438260002101607047000078
:1044D00066FEFFFF101800600C00006070B504005D
:1044E000964D2800FFF7A7FC06002800FFF7A3FC65
:1044F0008642F6D1002EF4D0B74932124A43F3B2C5
:104500004B431912511810314911E16026602800FF
:10451000FFF793FC06002800FFF78FFC8642F6D1D8
:10452000002EF4D0B011B849484380300012A0608A
:10453000666070BDF8B50700B44D687A7D214843C8
:10454000C90002F045F9461CF6B2394CB04AA169DF
:104550001B2007F019FB2870687800F02AF83D212D
:104560006054E878801900F024F8382160542879E4
:10457000801900F01EF839216054687900F019F8AC
:104580003A216054A87900F014F83B216054002FC0
:1045900006D0E878801900F004F81B303C21605404
:1045A000F1BD68214143090ADB225043000C081881
:1045B000704700B502001E4840690021002307F043
:1045C00043FB0322002307F03FFB8022D204002399
:1045D00012184B41D20E58010243100000BD80B5A5
:1045E0008B4A07F0D1FAAB49884201DD080002E0AE
:1045F000102800DA10200005000EA749086001BD50
:1046000010B5A64C207B002806D12078002801D0C8
:10461000FFF755FF01202073FFF7C5FE002264302D
:10462000514102000B002000403000F005F810BDA1
:10463000B80A0020380B0020FEB500256C46257016
:10464000017B002901D00120FEBD0CC008380121EA
:104650000173194C26680196070001E035003669A0
:10466000002E08D00CCE083E03CF083F8B42F5D376
:1046700001D88242F2D338000661002D01D10190A9
:1046800000E028610199814213D1694600F058F891
:1046900020606846007800280BD0EFF3108072B6D7
:1046A00061794A1CA3799A4200D0491C617180F358
:1046B000108868460078FEBD4C0B00203018006062
:1046C000F8B584B0EFF3108672B6744C206F616F4A
:1046D00002AA03C27248FFF7A6FB03002700803737
:1046E000BB60704D02A803C8009001912A00E169E7
:1046F000A06F181A07F048FA0021009A019B801851
:1047000059410CCF083F99420FD801D390420CD2A7
:10471000009001912A00E1690020C04307F034FABB
:104720000021009A019B8018594103C786F3108825
:1047300005B0F0BD510B00200810006000100060B3
:10474000F1B584B00F0004460020387000E0246901
:10475000002C3ED0207B0028F9D0EFF31080009091
:1047600072B6FFF7ADFF4D4D03CC083C2A008032F6
:104770000CCA801A994102AA03C202A803C80029E0
:104780001DDB01DC01281AD3214AAB6902A803C84A
:10479000190007F0F9F90500202D00D82025C24E98
:1047A0003000FFF740FB40190830F0623000FFF79F
:1047B0003CFB306B8021C9050143316301E00120DE
:1047C0003870009880F310883878002801D0049859
:1047D00000E0200005B0F0BDF6BC080010B5B349FC
:1047E0000C009834002808D0207800280BD108004D
:1047F0004030FFF705FF012004E008004030FFF7DC
:1048000000FE0020207010BD53070000C5000020EE
:104810002603000070B52248FFF705FB1F4C25005A
:104820008035A8601F4E3200216AA36FC01A07F0BE
:10483000ABF9226F636F00218018594120676167CF
:104840002078002813D1A868A16F401AA168884277
:104850000DD23200216A0020C04307F095F9020012
:10486000206F616F002312184B4122676367206F2E
:10487000616F03C5083DA868A067226F0B4660689A
:104880000021801859412200283203C2E0692062C9
:1048900070BD0000FF0F000008180060B80A00207B
:1048A0000018006035060000F0B585B000216A46AA
:1048B00011707E4C25006035A978002900D1B6E042
:1048C000EFF31081049172B6012801D1FFF7F8FED1
:1048D00020002830C0C8A26DE36DC82080020021EE
:1048E000801979418B4210D301D882420DD3B9226D
:1048F0005200002392197B412800203003C88B42CC
:1049000001D802D3824200D38EE02800203003C8B1
:1049100000220A305141A26DE36D00264C3AB341AA
:1049200099427DD801D390427AD23C20265C602007
:10493000205C2979012905D1002801D0382006E022
:10494000392004E0002801D03A2000E03B20205C20
:104950000190A26D2800203003C8101A0390544A19
:10496000A169039807F010F90290A86AC027FF0513
:10497000A9687118C831039A914202991AD24D4A16
:104980001278891A019A8E1A8019474948623800AC
:10499000FFF72CFA3800FFF733FA4348806A80218A
:1049A000C905014340488162FFF73FFA0198414938
:1049B000097811E03D22A25C891A019A8E1A8119A8
:1049C0003800FFF723FA3848FFF724FA3800FFF7DA
:1049D00006FA01983D21615C4018A96A029A89187B
:1049E00022008C3251603218411D8A420CD23800AC
:1049F000FFF7FCF93800FFF703FA2B48FFF70AFA34
:104A000001206946087005E02B4AE16907F0BCF80F
:104A10008C2160540020A87001206870E87003E0C9
:104A2000AE70012069460870049880F310886846CB
:104A3000007805B0F0BD38B504001B4D2800FFF725
:104A4000EEF9002803D0686A2060032032BDC0253B
:104A5000ED052800FFF7CBF9002805D02800FFF767
:104A6000D7F92060012032BDE8688007800F032855
:104A700005D12800FFF7CCF92060022032BD0020CC
:104A800032BD80B5FFF7F2FCFDF7C0FD01BD81B07E
:104A90000020009000980948016801220A43026042
:104AA0000068009001B0704700180060B80A00204C
:104AB00026030000C50000203506000074000060D9
:104AC0000168002202814281828182730B78FF2B70
:104AD00005D0FE2B09D103895B1C03810AE04268E3
:104AE000511A091F818100207047002B0DD1438985
:104AF0005B1C43814A88D21C032313435B1CC918E7
:104B00004A1D43689A42E1D3EDE703207047F3B5AD
:104B1000079C0899250005D06D466C80FE242C70FA
:104B20006C4600E0446885684668AE4217D2267835
:104B3000FF2E14D0067B002E04D0002606732678A4
:104B4000002E0ED146686488E41C032727437F1C8F
:104B5000F4194460AC4202D22678FF2EEFD1042033
:104B6000F6BDFE2E01D00320F6BD6E463679FF2E2F
:104B700004D066786F463F79BE42E3D14068001D9D
:104B8000106060881880002901D0607808700020CB
:104B9000F6BD7FB515001C00099E002232800B9ADD
:104BA00001926A46128D009202AB03AAFFF7AFFF93
:104BB000010013D1694609898D4201D306200DE019
:104BC000089A481B904200DA020020000399491914
:104BD000FEF7ECFC684600893080002004B070BD10
:104BE000FEB5BB4D0D40491B6B46197000240700F4
:104BF00016000AE00422311901A8FEF7D7FC019A39
:104C00003919002007F03AF8241DAC42F2DB0020ED
:104C1000C043019068460278711901A8FEF7C6FCEE
:104C2000019A7919002007F029F8F7BD70B544689A
:104C30008668B44202D22678FF2E01D1042070BDCE
:104C4000007B002801D1FE2E01D0052070BD6588B3
:104C5000A94201D3062070BD10001A00231D591867
:104C600007F082F8002801D00020C04370BD7CB559
:104C7000079C0025069E3580250005D06D466C807A
:104C8000FE242C706C4600E0446845688668B54296
:104C900002D22678FF2E01D1042076BD007B0028A9
:104CA00001D1FE2E01D0052076BD6088814201D35E
:104CB000062076BD401A984200DA030010001A0060
:104CC0002B1D5918FEF772FC608806990880002099
:104CD00076BDF8B584B007000E001500B44C25422F
:104CE00003D107F041F8002820D001A80C21FEF7DD
:104CF0003BFCCD483818C00A0290681E0443641C6F
:104D00006003000E0390694601A807F03DF80024F7
:104D10000AE06010800F00190321884332583919C6
:104D2000002006F0ABFF241DAC42F2D305B0F0BD6D
:104D3000012101700021418081807047F1B588B068
:104D40000C0015001E0000200090FF22290020000A
:104D5000FEF70CFCFE2069460875079468464582FC
:104D600006960E9D009C05AE19E06846008A69888B
:104D7000401A401E03240443641CA4B26888694698
:104D8000098A0A1A521E03211143491C89B28F4213
:104D900042DB01200022B94228706A8040D0684678
:104DA000408A071B3F1FBFB22878002826D0701CFE
:104DB0000390A888029004A8019000970798001D0E
:104DC00003190022FF210898FFF7E3FE6946098ACC
:104DD000A98001000ED16846008A7080042205A9CE
:104DE00007980019FEF7E2FB7088C01C03210143FD
:104DF0006418C1E706990C8009B0F0BDA88801903D
:104E000004A800903B000798021969880898FFF7EA
:104E10002EFF0100A9D0EFE700212970C01968809A
:104E20006846408A069908800020E5E7F8B5AE4C50
:104E3000A544AE49020014235A438F1879890029EA
:104E400001D1002040E004A900F013F9059D02A85B
:104E5000FFF76EFF8026360102A8009001AB3200FA
:104E600008A904A8FFF76AFF0400042C06D0002C50
:104E70002AD168468088B042EED103E06846808837
:104E8000002808D06846828808A92800FFF721FF7B
:104E9000AD19002CE0D008A80C21FEF765FB624894
:104EA00028184003000E09900698401E711E014309
:104EB000491C481B4003000E0A90694608A806F0EA
:104EC00063FF3800FFF7FCFD89498D44F0BD000009
:104ED000FCFF0000F8B5844CA54400216A4691719E
:104EE00000220023814906000BE0B0680C245C43DB
:104EF000005D1424604308184089002800D0012276
:104F00005B1C30798342F0DB002A25D0802212011D
:104F1000FF2108A806F080FF0025802424010DE071
:104F200002A8FFF705FF02A8009001ABE21B92B2B6
:104F300008A8C11904A8FFF701FF6D1C307985424C
:104F40000CDAB0680C226A43011D8F5804A9805CFA
:104F500000F08FF80028E3D000201BE0220008A911
:104F60003068FFF7B6FE614C370069468D79002640
:104F70000CE0B8680C217143405C142148432018B0
:104F8000FFF79EFD010000D00500761C38798642AF
:104F9000EFDB280056498D44F0BD95498A7982425D
:104FA00001D102207047897C8142FAD000207047ED
:104FB000FF070000F8B54C4CA54404000E00802209
:104FC0001201FF2108A806F027FF0025684604719A
:104FD000802424011CE00C276F43B068C05D6A4642
:104FE0001279904213D004A900F043F8B068C019B8
:104FF000476802A8FFF79CFE02A8009001AB9B1C2B
:10500000E21B92B208A8C11904A8FFF797FE6D1C15
:1050100030798542DFDB220008A93068FFF759FEAE
:10502000002033498D44F0BD0000FCEF10B5002492
:105030006F480C21614341188A792C48142353434B
:10504000C0180368002B10D1012A0EDC0A68026028
:105050008B88D218426009890182FFF731FD010077
:1050600004D1641C012CE3DD01E0012010BD00200F
:1050700010BD10B50200022A01DB012010BD1B4B40
:10508000142462439A1813684B6052688A600122A4
:105090000A7308700020487310BD7FB5694C05780D
:1050A000142675436419A47B002C01D00A2008E063
:1050B00003940294099C01946C46248C0094FFF79D
:1050C00068FD04B070BD7CB5A04C0578142675430E
:1050D0006419A47B002C01D00A2076BD0194069CA3
:1050E0000094FFF7C4FD76BDE0F7FFFF080F002036
:1050F00024080000FAB583B017000325791E0326A3
:105100000E43761C0CE00C78FF2C18D0FE2C01D03E
:10511000002C69D14A88D21C2A43521C891841604C
:10512000826841684B1D9342EDD388490078142270
:10513000504308184089002854D1022055E00290BD
:10514000501A834B984201D2521A00E01A467F4C03
:1051500092B2B0B26B461B8DC018001D824239DB83
:105160006846007B0191FE216A46117069464870CD
:105170006846008D30184880009A0199002006F09A
:105180007DFD049AB1B20198001DFFF729FD0B9A2D
:105190006846018D0198B6B28019001DFFF720FD09
:1051A00020000830029909781422514340180188E0
:1051B000491C0180029800781421484320188189F5
:1051C0006A46128DBA18521E1543491B491F818128
:1051D00000200AE0029800781421484320184089F2
:1051E0000028AAD00B2000E0032005B0F0BD00008D
:1051F0001C21041010B504006168A06881421ED211
:105200000878FF281BD0FE2817D1FF22D2430020A8
:1052100006F034FD4D4801000831227814235A432A
:1052200089180A88521E0A80217814225143401896
:105230004189491C4181002010BD052010BD04207A
:1052400010BD0000080F002078B585B00400694645
:10525000FFF7A3FE3D4D02281ED1142044432C1914
:10526000256802A80C21FEF77FF93A482818400368
:10527000000E03906068401E37490143491C481BDB
:105280004003000E049001A902A806F07DFD200055
:10529000FFF716FC00201BE0012818D10099200020
:1052A000FFF788FE040010D100260AE0009880680D
:1052B0000C217143405C142148432818FFF700FC7F
:1052C000761C009800798642F0DB200000E0012087
:1052D00006B070BD1CB504006946FFF75EFE0228EB
:1052E00003D12000FFF7A2FD16BD012803D10098CD
:1052F000FFF7F0FD16BD012016BD38B51748002197
:105300004356DAB2114C1425554364196589002DB2
:1053100003D0A589248AA54207D3521CD2B2022AFF
:1053200000D100229A42EDD106E0531C5CB2022C5F
:1053300000D10023190001E00022D24301701006C1
:1053400002D4D0B2FFF7C6FF002032BD080F002004
:10535000FFFF00000000FCEFFF070000D10F00205E
:10536000F0B581B025490C680025657406F05EFD36
:10537000234E3068C06806F07FFF002801D0042764
:1053800023E03068C06806F061FF002801D00127E3
:105390001BE03068C06806F05DFF002801D00227DE
:1053A00013E03068C06806F06FFF052700280CD1B5
:1053B0003068C06806F06CFF002806D13068C0680D
:1053C00006F034FF00282F460BD00120B8400D49CD
:1053D00009680A6802430A60002007F0CDF9FDF76A
:1053E00025F9607C012807D1217B0F200840A268A5
:1053F000090907F0D3F9657401B0F0BDBC0F0020B6
:10540000C00F0020AC0F002080B507F0C9F980BDA7
:10541000BCB5584CA16900910840A06135E0521C10
:10542000D300E51803000B402F681F40F7D02A680F
:10543000104001406868084002D10020C043686005
:105440006868084000F09AF801006A680120884006
:1054500082436A606162EFF3108172B6626A012072
:105460009040C2432069104020610220C300E3182D
:10547000083B1D6815401D60401EF7D181F3108860
:105480003D48616A8900405880472369E269606944
:10549000256AA16903400B4003D0154001D10022C9
:1054A000BEE70020C0436062206A104014D103F0C0
:1054B00085F8EFF3108572B62169E06962690A40E8
:1054C000A169114004D1216A014001D103F077F8AC
:1054D00085F3108807F07AF90098A061B3BD38B55C
:1054E0001400EFF3108572B600F048F880002249EE
:1054F0000C5085F3108831BD10B5EFF3108272B6F1
:105500001C4B1C6904431C61C90059180B681843E3
:10551000086082F3108810BDEFF3108172B6154A4F
:10552000D3691843D06181F310887047F8B5114DE5
:10553000696A00910022D243914201D1002701E023
:1055400001278F402E6A2862040003E02100380002
:1055500007F03DF9E8692040F8D000986862EFF361
:10556000108072B6E969A143E96180F310882E6268
:10557000F1BD000084030020EC0B00200021020C90
:10558000120401D110210004020E120601D10831CB
:105590000002020F120701D1091D00011F22511A3A
:1055A00002A2000F105C081AC0B270470403020286
:1055B00001010101000000000000000010B5FFF72C
:1055C00035FD424C211D0020FFF753FD2100143111
:1055D0000120FFF74EFD201D206010BD3EB53B4D64
:1055E000022802D12C00143400E02C1D2C60019301
:1055F0006B461B8B00930B0001002000FFF77AFD28
:10560000002805D0022801D1002000E00120C0437D
:105610003EBDF8B584B00E0019002C4C022E03D10B
:1056200025001435012301E0251D00230700256016
:1056300028466D466A8103910A9D022F08D102A96E
:1056400000912B00039A69464989FFF73CFD0FE062
:10565000002F03D101001800FFF70BFD02A80190F5
:105660000095039B6846428931002068FFF715FDCD
:10567000010001D1002005E0042801D1022000E052
:105680000120C04305B0F0BD10B5140023000A008E
:1056900001000E480068FFF7C9FA002804D001D5C0
:1056A000200010BD0220C04310BD80B5022807D1E4
:1056B000064908681431884207D0FFF79BFD01BDF9
:1056C000032802D10020FFF7BFFD01BD300F0020ED
:1056D0000120FFE70D490860002070470120C0430A
:1056E0000A490968012900D1002070470020EFF322
:1056F000108172B6054A1368032B02D00120C04303
:1057000001E00123136081F31088704780030020BB
:1057100010B571487149418000240470704807F049
:105720005BF8002801D0FEF742F86E4A00210820FD
:10573000FFF7D5FE6C4A00218020C001FFF7CFFEA5
:105740006A48847001210170447010BD38B50400AE
:10575000614D2078002802D001280FD031BD287873
:10576000002803D160886880012012E06048FDF7BE
:1057700061FF13216088FEF76FFA31BD6888618888
:10578000884207D128212800FDF7EEFE53486880A3
:105790000020287031BD50494A88824200D07047AD
:1057A00080B50220087000210820FFF7A5FE01BD8A
:1057B000FEB5002200260127002802D068460771A6
:1057C00087E00B0068460271434DA988EA88688823
:1057D000484C05D0022B2BD013D3032B3ED078E0BE
:1057E00045A0FDF727FF04216888FEF790FA0028FE
:1057F00003D100F0D1FB200062E0010020004C301A
:1058000065E013000A0001002000B430FDF712FF2C
:10581000EB88AA8804216888FEF77DFA002804D165
:1058200000F0BAFB2000FC304AE00100962013E0B3
:10583000B22040002018FDF7FDFEEB88AA88042165
:105840006888FEF76CFA002804D100F0A5FBC82098
:10585000400034E00100E620400037E0AA8A002A38
:1058600012D002216B46D98001A9891C0091022324
:105870000421FEF75EFA060000F08EFBA98A842060
:1058800080002018FDF7D6FEEA8C002A13D0684667
:10589000C78001A8801C0090022304216888FEF7BD
:1058A00048FA304306000220FFF740FEE98C00BFB3
:1058B00018A0FDF7BFFE002E05D18D208000201816
:1058C000FDF7B8FE05E03100982080002018FDF7B4
:1058D000B1FE68460079FEBDE00E0020FFFF00002B
:1058E00031590410615F0410A35F04108C0F002075
:1058F0000816041040160410474154542073657272
:10590000766963657320646973636F766572790A7B
:1059100000000000205377697463685F4344657337
:105920006348646C65203D3078253034580A0000A7
:10593000F0B589B00500287869780906090C084394
:105940000C27C64CC649401A00D1CDE2401E00D1FA
:105950008AE1401E00D1A1E0401E00D1C7E0001F37
:1059600006D0401F00D171E2401E00D1B8E2CAE269
:10597000A978E8780006000C0143BA48FDF75AFE02
:105980000020A978EA781206120C114362888A4234
:1059900000D00120A978EA781206120C11432822BF
:1059A00050432018029002984088884274D1E879C8
:1059B000297A0906090C0843AC79210000F008FF98
:1059C000C0B20421142C01D100910497062C02D1FD
:1059D00000910021049100270395009E069010E09D
:1059E000C5A007E0C5498842FAD10298048302980D
:1059F0004583C348FDF71EFE039880793618F6B23A
:105A00007F1CF9B206988142B1DA03988019407977
:105A1000039A921D925D140204430398C01D805D99
:105A2000039A0832925D1502054304983018039AD0
:105A30000932125C039B0A33185C00021043059084
:105A400001950094059B069A491CAE48FDF7F2FDAE
:105A500002988088002801D0844201DA02998C8063
:105A60000298C088002801D0A84201DA0299CD80AE
:105A70000598C0214901884205D102980481029805
:105A80004581C548B6E7491C8842ABD1029884815C
:105A90000298C581C148ADE7C1481EE2A978E878FF
:105AA0000006000C0143BF4EAA79BC20400030180C
:105AB000FDF7C0FD0024A87984427BDAA00029000C
:105AC000093109180B784A781206120C1343E91DA4
:105AD0000818027841780906090C0A432100E620DB
