:020000041004E6
:100000000000012089C1051019C505101BC5051088
:1000100000000000000000000000000000000000E0
:100020000000000000000000000000001DC50510D9
:1000300000000000000000001FC5051021C50510CC
:10004000E3950410E39B04108F9D04106FA204102D
:100050000000000000000000000000006BA404107D
:1000600029C505100BA6041017A904107BAC0410B9
:10007000E7AE041045C50510000000006FC505106F
:100080007DC5051057B404105FC5051000000000C1
:1000900057C5051000000000000000004FC5051006
:1000A00073B8041067C50510D3BA0410FBBB041065
:1000B0002FBC041000000000000000000000000041
:1000C0000C100020B62F00000000020400003200D7
:1000D000F7000000FFFFFFFF6400011008030003AA
:1000E000F70001000001010202020200000100030A
:1000F000000400004572726F7220696E20424C4508
:100100005F535441434B5F496E697428292030780E
:10011000253032780D0A000020204661696C2020CD
:10012000203A206163695F68616C5F77726974650A
:100130005F636F6E6669675F6461746120636F6D92
:100140006D616E64202D20434F4E4649475F444108
:1001500054415F505542414444525F4F46465345D7
:10016000542C20726573756C743A203078253032C7
:10017000580A00002020537563636573733A206149
:1001800063695F68616C5F77726974655F636F6EE6
:100190006669675F6461746120636F6D6D616E6431
:1001A000202D20434F4E4649475F444154415F5004
:1001B0005542414444525F4F46465345540A00005D
:1001C00020204661696C2020203A206163695F68C5
:1001D000616C5F7365745F74785F706F7765725F71
:1001E0006C6576656C20636F6D6D616E642C20723A
:1001F0006573756C743A203078253032580A0000E7
:100200002020537563636573733A206163695F6887
:10021000616C5F7365745F74785F706F7765725F30
:100220006C6576656C20636F6D6D616E640A0000AD
:1002300020204661696C2020203A206163695F6755
:100240006174745F7372765F70726F66696C655FFC
:10025000696E697420636F6D6D616E642C207265C8
:1002600073756C743A203078253032580A000000DB
:100270002020537563636573733A206163695F6718
:100280006174745F7372765F70726F66696C655FBC
:10029000696E697420636F6D6D616E640A000000A1
:1002A0000A0A202A202A202A202A202A2041707087
:1002B0006C69636174696F6E206E616D65203A20B0
:1002C000424C455F52435F4C6F6E6752616E67658B
:1002D0005F43656E7472616C202A202A202A202ACE
:1002E000202A0A0A0000000020204661696C2020B4
:1002F000203A206163695F6761705F696E6974208D
:10030000636F6D6D616E642C20726573756C743AE9
:10031000203078253032580A000000002020537524
:1003200063636573733A206163695F6761705F69D6
:100330006E697420636F6D6D616E640A0000000069
:1003400020205075626C696320426C7565746F6F14
:10035000746820416464726573733A202530327882
:100360003A253032783A253032783A253032783AA8
:10037000253032783A253032780A00002020466154
:10038000696C2020203A204761705F70726F666947
:100390006C655F7365745F6465765F6E616D652023
:1003A0002D20446576696365204E616D652C207251
:1003B0006573756C743A203078253032580A000025
:1003C0002020537563636573733A204761705F70D3
:1003D000726F66696C655F7365745F6465765F6E86
:1003E000616D65202D20446576696365204E616DE1
:1003F000650A000020204661696C2020203A2047D1
:1004000061705F70726F66696C655F7365745F6160
:100410007070656172616E6365202D20417070653A
:100420006172616E63652C20726573756C743A201D
:100430003078253032580A00202053756363657385
:10044000733A204761705F70726F66696C655F73A5
:1004500065745F617070656172616E6365202D20E7
:10046000417070656172616E63650A0020204661AB
:10047000696C2020203A206163695F6761705F7357
:1004800065745F696F5F6361706162696C697479DB
:1004900020636F6D6D616E642C20726573756C7472
:1004A0003A203078253032580A0000002020537559
:1004B00063636573733A206163695F6761705F733B
:1004C00065745F696F5F6361706162696C6974799B
:1004D00020636F6D6D616E640A000000202046612C
:1004E000696C2020203A206163695F6761705F73E7
:1004F00065745F73656375726974795F7265717530
:100500006972656D656E747320636F6D6D616E6485
:100510002C20726573756C743A203078253032580F
:100520000A0000002020537563636573733A2061ED
:1005300063695F6761705F7365745F73656375722C
:100540006974795F726571756972656D656E7473D2
:1005500020636F6D6D616E640A00000020204661AB
:10056000696C2020203A206163695F6761705F6376
:100570006F6E6669677572655F66696C7465725FD8
:100580006163636570745F616E645F7265736F6CE5
:1005900076696E675F6C69737420636F6D6D616EF1
:1005A000642C20726573756C743A20307825303273
:1005B000580A00002020537563636573733A206105
:1005C00063695F6761705F636F6E666967757265A7
:1005D0005F66696C7465725F6163636570745F61A7
:1005E0006E645F7265736F6C76696E675F6C69735A
:1005F0007420636F6D6D616E640A00003E3E3D3D88
:10060000204843495F444953434F4E4E4543544964
:100610004F4E5F434F4D504C4554455F4556545FD8
:10062000434F44450A00000020202020202D204375
:100630006F6E6E656374696F6E2048616E646C6581
:100640003A2020203078253032580A2020202020DF
:100650002D20526561736F6E3A202020203078255E
:100660003032580A000000003E3E3D3D20484349DC
:100670005F4C455F434F4E4E454354494F4E5F5587
:1006800050444154455F434F4D504C4554455F5392
:1006900055424556545F434F44450A0020202020D0
:1006A000202D20436F6E6E656374696F6E20496EF6
:1006B00074657276616C3A20202025642E253032D4
:1006C00064206D730A20202020202D20436F6E6E41
:1006D000656374696F6E206C6174656E63793A202E
:1006E00020202025640A20202020202D20537570F2
:1006F0006572766973696F6E2054696D656F757484
:100700003A2020202564206D730A000020204661D5
:10071000696C2020203A206163695F6C32636170EC
:100720005F636F6E6E656374696F6E5F7061726137
:100730006D657465725F7570646174655F72657311
:100740007020636F6D6D616E640A00002020537528
:1007500063636573733A206163695F6C32636170D0
:100760005F636F6E6E656374696F6E5F70617261F7
:100770006D657465725F7570646174655F726573D1
:100780007020636F6D6D616E640A00003E3E3D3DFA
:10079000204143495F4741505F50524F435F434FB1
:1007A0004D504C4554455F56534556545F434F4456
:1007B000450A00003E3E3D3D204143495F474150D0
:1007C0005F4B455950524553535F4E4F544946492C
:1007D000434154494F4E5F56534556545F434F442F
:1007E000450A00003E3E3D3D204143495F474150A0
:1007F0005F504153534B45595F5245515F565345E6
:1008000056545F434F44450A000000003D3D3E3EC4
:10081000206163695F6761705F706173736B657995
:100820005F72657370203A204661696C2C20726596
:1008300061736F6E3A203078253032580A0000001C
:100840003D3D3E3E206163695F6761705F7061732B
:10085000736B65795F72657370203A2053756363BB
:100860006573730A000000003E3E3D3D2041434950
:100870005F4741505F50414952494E475F434F4D9A
:10088000504C4554455F56534556545F434F44457D
:100890000A00000020202020202D2050616972696C
:1008A0006E67204B4F0A20202020202D205374619A
:1008B0007475733A203078253032580A2020202071
:1008C000202D20526561736F6E3A203078253032CA
:1008D000580A00003E3E3D3D204143495F47415498
:1008E000545F5352565F524541445F5653455654E8
:1008F0005F434F44450A00003D3D3E3E20636F6E1E
:100900006E656374696F6E5F636F6D706C6574653F
:100910005F6576656E74204661696C2C2053746146
:100920007475733A203078253032580A0000000080
:100930003E3E3D3D206863695F6C655F636F6E6E30
:10094000656374696F6E5F636F6D706C6574655F0E
:100950006576656E74202D20436F6E6E65637469D5
:100960006F6E2068616E646C653A20307825303493
:10097000580A000020202020202D20436F6E6E6535
:100980006374696F6E2065737461626C6973686506
:1009900064207769746820403A253032783A2530EF
:1009A00032783A253032783A253032783A2530326A
:1009B000783A253032780A0020202020202D20434C
:1009C0006F6E6E656374696F6E20496E74657276C2
:1009D000616C3A20202025642E25303264206D730E
:1009E0000A20202020202D20436F6E6E65637469DD
:1009F0006F6E206C6174656E63793A20202020252B
:100A0000640A20202020202D20537570657276699D
:100A100073696F6E2054696D656F75743A20256433
:100A2000206D730A000000006863695F6C655F7287
:100A30006561645F706879206661696C7572653A9A
:100A400020726561736F6E3D3078253032580A0030
:100A50003D3D3E3E206863695F6C655F7365745F12
:100A60007068792050485920506172616D2020547F
:100A7000583D2025642C2052583D202564202D20EF
:100A8000000000006163695F6761705F7465726D8B
:100A9000696E617465206661696C7572653A207271
:100AA0006561736F6E3D3078253032580A00000062
:100AB0003D3D3E3E206163695F6761705F746572B2
:100AC0006D696E617465203A205375636365737355
:100AD0000A0000006163695F676174745F636C742E
:100AE0005F65786368616E67655F636F6E6669678F
:100AF000206661696C7572653A20726561736F6E0C
:100B00003D3078253032580A000000003D3D3E3E21
:100B1000206163695F676174745F636C745F65789B
:100B20006368616E67655F636F6E666967203A2010
:100B3000537563636573730A000000005375636344
:100B4000657373202D2057616974696E672048436F
:100B5000495F4C455F5048595F5550444154455F8B
:100B6000434F4D504C4554455F5355424556545F95
:100B7000434F44450A00000020526563656976656D
:100B800064204843495F4C455F5048595F55504485
:100B90004154455F434F4D504C4554455F5355427A
:100BA0004556545F434F44450A0000006163695F46
:100BB0006761705F7365745F7363616E5F636F6EAF
:100BC00066696775726174696F6E202D2066616950
:100BD0006C2C20726573756C743A20307825303235
:100BE000580A00003D3D3E3E206163695F676170C9
:100BF0005F7365745F7363616E5F636F6E66696771
:100C000075726174696F6E202D205375636365730F
:100C1000730A00006163695F6761705F737461727A
:100C2000745F70726F636564757265202D206661F4
:100C3000696C2C20726573756C743A20307825309D
:100C400032580A003D3D3E3E206163695F67617036
:100C50005F73746172745F70726F636564757265DF
:100C6000202D20537563636573730A006163695FA8
:100C70006761705F7465726D696E6174655F6761ED
:100C8000705F70726F63202D206661696C2C20721A
:100C90006573756C743A203078253032580A00003C
:100CA0003D3D3E3E206163695F6761705F746572C0
:100CB0006D696E6174655F6761705F70726F6320EC
:100CC0002D20537563636573730A00003D3D3E3EFE
:100CD0002050524F435F4741505F43454E5452416D
:100CE0004C5F434F4E4E4543545F5245515545531B
:100CF000545F46495845445F41444452455353204C
:100D0000666F7220204C455F314D5F5048595F42FD
:100D100049540A003D3D3E3E2050524F435F4741FB
:100D2000505F43454E5452414C5F434F4E4E4543F6
:100D3000545F524551554553545F46495845445FA9
:100D40004144445245535320666F7220204C455F06
:100D5000434F4445445F5048595F4249540A00009C
:100D60003D3D3E3E206163695F6761705F736574FE
:100D70005F636F6E6E656374696F6E5F636F6E66DF
:100D8000696775726174696F6E205375636365730B
:100D900073202C207374617475733A203078253079
:100DA00032580A003D3D3E3E206163695F676170D5
:100DB0005F7365745F636F6E6E656374696F6E5F9A
:100DC000636F6E66696775726174696F6E204661E4
:100DD000696C6564202C207374617475733A2030DB
:100DE00078253032580A00003D3D3E3E20284649D5
:100DF0005845442041444452455353292061636976
:100E00005F6761705F6372656174655F636F6E6E6B
:100E1000656374696F6E20746F200000506572699D
:100E200070686572616C205075626C696320426CF9
:100E30007565746F6F746820416464726573733A8A
:100E400020253032583A253032583A253032583A37
:100E5000253032583A253032583A253032580A0077
:100E60003D3D3E3E20284649584544204144445299
:100E700045535329206163695F6761705F637265E1
:100E80006174655F636F6E6E656374696F6E204732
:100E900041502043726561746520636F6E6E6563B7
:100EA00074696F6E20537563636573730A00000085
:100EB00020202020202846495845442041444452BF
:100EC0004553532920207761697420666F7220652D
:100ED00076656E74204843495F4C455F434F4E4EE4
:100EE000454354494F4E5F434F4D504C4554455F29
:100EF0005355424556545F434F44450A0000000095
:100F0000202020202028464958454420414444526E
:100F100045535329202072656365697665642065B1
:100F200076656E74204843495F4C455F434F4E4E93
:100F3000454354494F4E5F434F4D504C4554455FD8
:100F40005355424556545F434F44450A0000000044
:100F50003D3D3E3E202846495845442041444452A8
:100F600045535329206163695F6761705F637265F0
:100F70006174655F636F6E6E656374696F6E204741
:100F800041502043726561746520636F6E6E6563C6
:100F900074696F6E204661696C6564202C207374DF
:100FA000617475733A203078253032580A00000099
:100FB0003D3D3E3E204741502043726561746520AF
:100FC000636F6E6E656374696F6E2077696C6C20F9
:100FD00072652D73746172742064756520746F205E
:100FE0006661696C656420636F6E6E656374696FBA
:100FF0006E2E0A0028314D2050485929206163691E
:101000005F6761705F7365745F7363616E5F636F69
:101010006E66696775726174696F6E202D206661F6
:10102000696C2C20726573756C743A2030782530A9
:1010300032580A003D3D3E3E2028314D205048594F
:1010400029206163695F6761705F7365745F7363B3
:10105000616E5F636F6E66696775726174696F6EEA
:10106000202D20537563636573730A0028434F4432
:1010700045442050485929206163695F6761705F6A
:101080007365745F7363616E5F636F6E66696775C6
:10109000726174696F6E202D206661696C2C2072FC
:1010A0006573756C743A203078253032580A000028
:1010B0003D3D3E3E2028434F444544205048592959
:1010C000206163695F6761705F7365745F736361FB
:1010D0006E5F636F6E66696775726174696F6E20AB
:1010E0002D20537563636573730A000028434F44D2
:1010F00045442050485929206163695F6761705FEA
:1011000073746172745F70726F6365647572652069
:101110002D206661696C2C20726573756C743A20A1
:101120003078253032580A003D3D3E3E2028434F5E
:101130004445442050485929206163695F676170C4
:101140005F73746172745F70726F636564757265EA
:10115000202D20537563636573730A00202050654A
:10116000726970686572616C2C20646220616464CD
:1011700072203078253032583A253032583A2530AE
:1011800032583A253032583A253032583A253032E2
:10119000580A00003D3D3E3E206163695F67617013
:1011A0005F7365745F636F6E6E656374696F6E5FA6
:1011B000636F6E66696775726174696F6E205375CF
:1011C0006363657373202C20726573756C743A20A9
:1011D0003078253032580A003D3D3E3E206163693B
:1011E0005F6761705F7365745F636F6E6E65637474
:1011F000696F6E5F636F6E66696775726174696F40
:101200006E204661696C6564202C20726573756C74
:10121000743A203078253032580A00003D3D3E3E79
:101220002028434F44454420504859292061636990
:101230005F6761705F7365745F636F6E6E65637423
:10124000696F6E5F636F6E66696775726174696FEF
:101250006E2053756363657373202C2072657375FC
:101260006C743A203078253032580A003D3D3E3EBD
:101270002028434F44454420504859292061636940
:101280005F6761705F7365745F636F6E6E656374D3
:10129000696F6E5F636F6E66696775726174696F9F
:1012A0006E204661696C6564202C20726573756CD4
:1012B000743A203078253032580A00003D3D3E3ED9
:1012C0002028434F444544205048592920706879CC
:1012D000203D204C455F314D5F5048595F42495495
:1012E0000A0000003D3D3E3E2028434F4445442037
:1012F0005048592920706879203D204C455F434F64
:101300004445445F5048595F4249540A0000000078
:1013100020207761697420666F72206576656E742F
:10132000204843495F4C455F434F4E4E4543544927
:101330004F4E5F434F4D504C4554455F53554245CA
:1013400056545F434F44450A000000002020726558
:10135000636569766564206576656E7420484349E7
:101360005F4C455F434F4E4E454354494F4E5F439C
:101370004F4D504C4554455F5355424556545F437D
:101380004F44450A000000003D3D3E3E204741508D
:101390002043726561746520636F6E6E6563746966
:1013A0006F6E204661696C6564202C2072657375D0
:1013B0006C743A203078253032580A002D2D436F56
:1013C0006E6E6563745F526571756573742829204C
:1013D00044657669636520536572766572204E6F49
:1013E0007420466F756E640A00000000202050488B
:1013F00059206368616E6765642C2074783A2564AF
:101400002072783A256420436F64656420506879BF
:10141000204C656433204F6E0A00000020205048A5
:1014200059206368616E6765642C2074783A25647E
:101430002072783A256420314D204C656433204F6A
:1014400066660A002020504859206368616E67650F
:101450006420556E65787065637465642C207478BB
:101460003A25642072783A256420314D204C656419
:1014700033204F66660A0000626C65417070436FEE
:101480006E746578742E4465766963655F436F6E2C
:101490006E656374696F6E5F537461747573202039
:1014A000203078253032580A000000004465766903
:1014B000636520636F6E6E65637465642E2054658A
:1014C000726D696E6174652074686520636F6E6EFD
:1014D000656374696F6E2066726F6D207468652035
:1014E0007065726970686572616C206465766963A5
:1014F000652E0A0020204E4F20416374696F6E2EC6
:1015000020626C65417070436F6E746578742E4410
:1015100065766963655F436F6E6E656374696F6E50
:101520005F537461747573202020307825303258F1
:101530000A00000028434F4445442920204E4F20F4
:10154000416374696F6E2E20626C65417070436FE9
:101550006E746578742E4465766963655F436F6E5B
:101560006E656374696F6E5F537461747573202068
:10157000203078253032580A0000000020204150E9
:10158000505F424C455F50726F6365647572655F72
:101590004761705F47656E6572616C2850524F43BA
:1015A0005F4741505F47454E5F5048595F544F4732
:1015B000474C455F434F444544293B0A0000000027
:1015C000427574746F6E2025642070726573736544
:1015D00064205B6C6F6E67507265737365733D2535
:1015E000645D0A00000000000200000030000020DE
:1015F0000000000008000000580200200000000069
:1016000001000000D404002050524F435F47415472
:10161000545F43544C5F444953435F414C4C5F50CB
:1016200052494D4152595F53455256494345532003
:10163000736572766963657320646973636F766539
:10164000726564205375636365737366756C6C793A
:101650000A0A000050524F435F474154545F4354BD
:101660004C5F444953435F414C4C5F5052494D419C
:1016700052595F5345525649434553206163695F50
:10168000676174745F636C745F646973635F616CDA
:101690006C5F7072696D6172795F73657276696390
:1016A000657320636D64204E4F4B207374617475B5
:1016B00073203D3078253032580A0A00444953439C
:1016C0004F5645525F414C4C5F4348415253204373
:1016D0006F6E6E48646C3D30782530345820414C34
:1016E0004C5365727669636548616E646C655B3006
:1016F0007825303458202D203078253034585D0A34
:1017000000000000416C6C20636861726163746565
:101710007269737469637320646973636F76657249
:101720006564205375636365737366756C6C790AC1
:101730000A000000416C6C2063686172616374652B
:101740007269737469637320646973636F76657219
:1017500079204661696C65642C20737461747573BB
:10176000203D3078253032580A0A0000444953435E
:101770004F5645525F414C4C5F434841525F444590
:10178000534353205B307825303458202D20307857
:10179000253034585D0A0000416C6C20636861722A
:1017A00061637465726973746963206465736372DD
:1017B0006970746F727320646973636F76657265A4
:1017C00064205375636365737366756C6C790A0A7C
:1017D00000000000416C6C20636861726163746595
:1017E0007269737469632064657363726970746F7E
:1017F000727320646973636F7665727920466169DC
:101800006C65642C20737461747573203D30782589
:101810003032580A0A000000205365727669636509
:101820004368616E676564436861724465736348C9
:10183000646C203D3078253034580A00416C6C20AF
:101840006E6F74696669636174696F6E7320656E2B
:1018500061626C6564205375636365737366756C50
:101860006C790A0A00000000416C6C206E6F74698C
:101870006669636174696F6E7320656E61626C6521
:1018800064204661696C65642C207374617475739F
:10189000203D3078253032580A0A0000202041507F
:1018A000504C49434154494F4E20434C49454E54B6
:1018B000203A204E4F54494649434154494F4E2007
:1018C0005245434549564544200A000020204150D6
:1018D000504C49434154494F4E20434C49454E5486
:1018E000203A204E4F54494649434154494F4E20D7
:1018F00052454345495645440A0000004143495F6B
:101900004154545F524541445F42595F47524F55DD
:10191000505F545950455F524553505F565345569A
:10192000545F434F4445202D20436F6E6E48646CD6
:101930003D3078253034580A00000000202025640E
:101940002F25642073686F727420555549443D30CB
:1019500078253034582C2068616E646C65205B30CB
:101960007825303458202D203078253034585D00CB
:101970002C2047454E455249435F415454524942F9
:101980005554455F534552564943455F5555494463
:1019900020666F756E640A002C2052435F4C4F4ED8
:1019A0004752414E47455F555549445F313642499C
:1019B0005420666F756E640A000000004143495F61
:1019C0004154545F524541445F42595F47524F551D
:1019D000505F545950455F524553505F56534556DA
:1019E000545F434F44452C206661696C6564206EEA
:1019F0006F206672656520696E64657820696E2067
:101A0000636F6E6E656374696F6E207461626C657E
:101A100020210A004143495F4154545F46494E44E6
:101A20005F42595F545950455F56414C55455F528E
:101A30004553505F56534556545F434F4445202D00
:101A400020436F6E6E48646C3D3078253034582CDE
:101A5000204E756D5F6F665F48616E646C655F50A8
:101A60006169723D25640A004143495F4154545FF6
:101A700046494E445F42595F545950455F56414C68
:101A800055455F524553505F56534556545F434F3B
:101A90004445202D205061697449643D25642046E9
:101AA0006F756E645F4174747269627574655F48C6
:101AB000616E646C653D3078253034582C20477257
:101AC0006F75705F456E645F48616E646C653D3034
:101AD00078253034580A00004143495F4154545F2F
:101AE000524541445F42595F545950455F524553F6
:101AF000505F56534556545F434F4445202D204375
:101B00006F6E6E48646C3D3078253034580A0000A2
:101B10002020436F6E6E48646C3D30782530345819
:101B20002C206E756D626572206F662076616C7513
:101B3000652070616972203D2025640A0000000064
:101B40002020202025642F25642073686F72742064
:101B5000555549443D3078253034582C2050726F0B
:101B6000706572746965733D3078253034582C2067
:101B70004368617248616E646C65205B3078253023
:101B80003458202D203078253034585D0000000076
:101B90002C204741545420534552564943455F43F6
:101BA00048414E4745445F434841524143544552A2
:101BB00049535449435F55554944206368617261F4
:101BC0006320666F756E640A000000002C20535776
:101BD000495443485F435F555549445F3136424954
:101BE000542063686172616320666F756E640A00D9
:101BF0002C204C45445F435F555549445F31364284
:101C000049542063686172616320666F756E640A6F
:101C1000000000004143495F4154545F5245414434
:101C20005F42595F545950455F524553505F565378
:101C30004556545F434F44452C206661696C65648A
:101C40002068616E646C65206E6F7420666F756EBF
:101C50006420696E20636F6E6E656374696F6E20B9
:101C60007461626C6520210A000000004143495FF5
:101C70004154545F46494E445F494E464F5F52457A
:101C800053505F56534556545F434F4445202D20D3
:101C9000436F6E6E48646C3D3078253034580A00CE
:101CA0005052494D4152595F534552564943455F41
:101CB000555549443D3078253034582068616E646C
:101CC0006C653D3078253034580A000072657365C4
:101CD00074202D205555494420262068616E646C7F
:101CE00065202D20434841524143544552495354A5
:101CF00049435F555549443D307825303458204399
:101D0000686172537461727448616E646C653D30D1
:101D100078253034580A0000446573637269707422
:101D20006F7220555549443D3078253034582C2069
:101D300068616E646C653D3078253034582D30789C
:101D4000253034582D3078253034580050325057D3
:101D50007269746520666F756E64203A20446573FD
:101D60006320555549443D3078253034582068610A
:101D70006E646C653D3078253034582D30782530D0
:101D800034582D3078253034580A00005377697460
:101D900063685F434465736348646C6520666F7570
:101DA0006E64203A204465736320555549443D30A4
:101DB00078253034582068616E646C653D30782534
:101DC0003034582D3078253034582D307825303443
:101DD000580A00002C20666F756E642047415454E9
:101DE00020534552564943455F4348414E47454479
:101DF0005F43484152414354455249535449435F1C
:101E0000555549440A0000004143495F4154545F1D
:101E100046494E445F494E464F5F524553505F56C8
:101E2000534556545F434F44452C206661696C65A9
:101E3000642068616E646C65206E6F7420666F75D7
:101E40006E6420696E20636F6E6E656374696F6E79
:101E5000207461626C6520210A0000004143495FE3
:101E6000474154545F4E4F54494649434154494FAA
:101E70004E5F56534556545F434F4445202D2043F3
:101E80006F6E6E48646C3D3078253034582C20419C
:101E900074747269627574655F48616E646C653DE7
:101EA0003078253034580A002020496E636F6D6900
:101EB0006E67204E6F66696669636174696F6E2034
:101EC00072656365697665642050657269706865DE
:101ED00072616C20696E666F726D6174696F6E20DD
:101EE0005B705F6576742D3E436F6E6E65637469DB
:101EF0006F6E5F48616E646C653A30782530345897
:101F00005D0A00004143495F474154545F4E4F54BE
:101F1000494649434154494F4E5F56534556545FD5
:101F2000434F44452C206661696C65642068616E8E
:101F3000646C65206E6F7420666F756E6420696EC8
:101F400020636F6E6E656374696F6E207461626C7E
:101F50006520210A000000006163695F6761747495
:101F60005F636C745F77726974655F776974686FBB
:101F700075745F72657370206661696C65642C208E
:101F8000636F6E6E48646C3D3078253034582C2079
:101F900056616C756548646C3D3078253034580A5C
:101FA000000000002C204741505F534552564943E2
:101FB000455F5555494420666F756E640A00000000
:101FC0002C20474150204445564943455F4E414DE2
:101FD000452063686172616320666F756E640A00F4
:101FE0002C2047415020415050454152414E4345DD
:101FF0002063686172616320666F756E640A000019
:102000000000FFFF0000000004000000002004109A
:102010000000000005000000C40F002000000000C8
:102020000100000012F8041001000000030000008D
:10203000D40F002020000000FB349B5F8000008054
:1020400000100000052A0000100000000100000040
:102050003C030020042004100A000000FB349B5FB6
:102060008000008000100000292B000010000000FC
:10207000000000000000000010200410020000001A
:10208000FB349B5F80000080001000002A2B0000C2
:102090001000000000000000000000000000000030
:1020A00002000000FB349B5F8000008000100000F5
:1020B0003A2B0000100000000000000000000000AB
:1020C0001C20041000F00B1000080000AA02000001
:1020D00000F80B10F807010000000000CAEBECED5F
:1020E000EFF0F1F2F3F4F5F6F7F8F9FAFAFCFDFD8A
:1020F000FEFEFFFF000001020304050608000000C9
:10210000D1C40510DDC405107DC305101DC4051024
:10211000FBC10510ABC20510686A6C747A4C0000F4
:102120007072696E74665F733A20256E20646973FD
:10213000616C6C6F776564007072696E74663A20CA
:1021400062616420256E20617267756D656E740032
:102150007072696E74665F733A20626164202573E1
:1021600020617267756D656E7400000000000000EC
:102170006E616E004E414E00696E6600494E46002B
:1021800030002E00FB349B5F8000008000100000B8
:10219000292B000010000000FB349B5F80000080B2
:1021A00000100000052A00001000000002000000DE
:1021B0000300000003000000060000000300000010
:1021C000030000003C0000007000000070000000F0
:1021D000D003000070000000C301000055CE0510C0
:1021E000BFD104106FD20410C7D904106FD90410E6
:1021F0007F380410D73804103D3B0410453B0410D1
:102200004D3B0410553B04105D3B041081D6051076
:102210008FF604100D3B04101D3B041063E80410FE
:10222000F7380410673A0410A739041033C80410B3
:10223000EF380410B9D205101F310610712E0610A8
:102240001F3306103135061031350610473606109B
:102250001F330610213806102138061021380610C9
:10226000233206102B2E0610EF2D061047360610CF
:10227000DF380410E7380410D93B0610E13B0610A4
:10228000DD3B06101F390410273904102F390410C4
:10229000373904105F390410473904104F390410DE
:1022A000573904103F3904109D3B0610673904105C
:1022B0006F39041077390410A13B061078B595B03A
:1022C000062106A801F0C8F8002669468E81B04CA8
:1022D00008A82100342201F0C7F808A801F0ECF8A2
:1022E000010005D02000343001F01CF901F0D7F9CD
:1022F00006ADE02028706E70AE70E120E87080209E
:1023000028710220687106AA0621002001F0CCF98C
:10231000002805D001002000583001F003F903E047
:102320002000B43001F0FEF81821002001F0C0F9BF
:10233000002806D0010080204000201801F0F2F8AB
:1023400004E0A0204000201801F0ECF805A90120CD
:1023500001F0B2F9002806D00100B8204000201892
:1023600001F0E0F804E0D8204000201801F0DAF88D
:10237000F0204000201801F0D5F80021002001F0E5
:10238000CFF9002806D001008A208000201801F033
:10239000C9F804E097208000201801F0C3F803A8D2
:1023A000801C009004AB04AA921C0021042001F0C0
:1023B000BFF92878029068780190A8780090EB78AF
:1023C0002A796979A0208000201801F0ABF800BFBD
:1023D00036A21421002001F0E0F9002806D0010007
:1023E000AF208000201801F09DF804E0C02080009C
:1023F000201801F097F803AA0221002001F0D3F978
:10240000002806D00100CD208000201801F08AF8B5
:1024100004E0DE208000201801F084F85D4D2E706D
:10242000002001F0C7FB002806D00100EB2080004F
:10243000201801F077F804E0FB208000201801F05C
:1024400071F8012068700821E97010212971A870C5
:102450000296019108200090002300220121012012
:1024600001F0ACFB002805D001004B48201801F01A
:1024700059F803E04948201801F054F8A8780028DA
:102480000ED0012001F001FC002805D001004448D5
:10249000201801F047F803E04248201801F042F804
:1024A00007A001F03FF816B070BD000052435F4C2A
:1024B0006F6E6752616E67655F43656E7472616CC3
:1024C0003D3D3E3E20456E6420424C455F496E696D
:1024D000742066756E6374696F6E0A0080B50120A2
:1024E00001F0E3FB01F0E4FB012001F0DFFB01BDA3
:1024F00080B501F0C3FC01BD80B50021022012E0CF
:1025000080B502F096FE01BD80B5FFF7F5FF01BD75
:1025100080B502F0C1FEFFF7EFFF0121042002E0C9
:1025200080B50121012002F0D7FF01BD80B5194817
:102530001D4981631D4901621D4901651D4A002134
:10254000012002F0BCFF1C4A0021022002F0B7FF6C
:102550001A4A0021042002F0B2FF03F01FF803F032
:10256000A7F80021C943884201D101F098F8FFF78C
:10257000A5FE03F0BDF8124A00218020800102F080
:102580009EFF104A00218020C00002F098FF01BD8C
:10259000C0000410500D00201C0400006404000062
:1025A0009C040000F4040000F32F0410DB2F04103F
:1025B00079320410DD240410F124041001250410E4
:1025C000C9300410BD300410F0B585B00400207887
:1025D000042802D0822802D0E7E1E61C00E0261D94
:1025E0006178C44FC44D052908D0102900D1CDE130
:1025F0003E2930D0FF2900D116E1D3E1207961795D
:102600000906090C0843B989884221D1BB48B88121
:102610000020B873280000F085FF2179607900065A
:10262000000C0143A27928002C3000F07BFF380019
:10263000183001F084FE3800483001F080FE0020A0
:1026400003F058FD012003F055FD022003F052FD78
:1026500000F0B9FCA9E1E178012900D1AEE002293E
:1026600000D1CBE0032909D00A2900D197E00C2939
:1026700000D186E00D2900D1C6E0D3E028006C30FF
:1026800000F050FFE079217A0906090C084303F0B5
:102690003FFE0022C64B03F055FE002280235B0361
:1026A00003F012FFE079217A21D80906090C0843CA
:1026B000E679217A0906090C0E4303F029FE00226F
:1026C000BB4B03F03FFE00900191300003F020FE71
:1026D0000022B74B03F036FE03F01EFF03F028FE86
:1026E00002000B000098019903F0A2FF1EE009060A
:1026F000090C0843E679217A0906090C0E4303F018
:1027000007FE0022AA4B03F01DFE03F005FF03F0B5
:102710000FFE00900191300003F0FAFD0022A54B5E
:1027200003F010FE009A019B03F01FFF0022A24B52
:1027300003F008FE03F0F0FEE27A217B0906090CA3
:102740000A43637AA17A0906090C0B43E179267AD8
:102750003606360C31430A245443009406001C000C
:10276000080003F0D5FD0022914B03F0EBFD03F0D0
:10277000D3FE0100230032002800A03000F0D2FE7A
:1027800013E1012002F0B8FE6179A0790006000C87
:102790000143237AE279207900F030FD05E1E07F02
:1027A000641CE17F641E0906090C0843627FA17F57
:1027B0000906090C0A43E37E217F0BE0E07C217DC2
:1027C0000906090C0843627CA17C0906090C0A432E
:1027D000E37B217C0906090C0B436179A5792D0661
:1027E0002D0C2943039002920193200009300090A0
:1027F000237AE279207900F01BF9D6E0E31DA27973
:1028000021000E31607B05E023000833E2792100CE
:102810001D31207F00F0FAFB002802D0012000F0DB
:1028200095FAC2E066A0BEE0307871780906090C1E
:102830000843001FF5D06149401A65D0401E49D0B9
:10284000401F33D0C01E42D0491F401A03D01F3151
:10285000401A70D093E0747BB07B0006000C0443F8
:10286000F37A307B0006000C0343727AB07A0006DC
:10287000000C0243F179307A0006000C0143B07875
:10288000F7783F063F0C38430127049736790396C3
:10289000102602960196009401F0D7F9002802D084
:1028A000882040002EE0A82040002BE0C8204000F7
:1028B000281800F037FEB078012801D1F078002800
:1028C00073D100218020800102F006FE6DE0DC2043
:1028D000400017E0F4204000281800F023FE9D4936
:1028E000B88901F079F900280AD00100842080001D
:1028F000281858E0500D0020FC050410FFFF0000D0
:1029000091208000281813E09B208000281800F0F8
:1029100009FE3179002906D07279A6208000281896
:1029200000F000FE03E000BF2CA000F0FBFD8AA039
:1029300000F0F8FD39E0B6208000281800F0F2FD24
:10294000B179F0790006000C014300BF29A000F026
:10295000E9FDB279F0790006000C02433179707913
:102960000006000C0143B078F3781B061B0C1843DB
:10297000002301930093082301F042F915E0317818
:1029800070780006000C01431EA00CE0E0780428DB
:102990000BDABFF34F8F714871490860BFF34F8F57
:1029A00000BFFDE71DA000F0BDFD05B0F0BD0000BB
:1029B0000000F43F0000F4BF00005940FD03000098
:1029C0004843495F4C455F4D4554415F4556543A35
:1029D000203078253032580A0000000020202020C6
:1029E000202D2050616972696E672053756363659D
:1029F00073730A0048616E646C652030782530344A
:102A0000580A00004843495F56454E444F525F45BF
:102A100056543A203078253034580A004843495FEC
:102A20004556454E543A203078253032580A000039
:102A3000F4B586B0A64C020006D00100A54800F00F
:102A400071FD0020A07383E00D9E0C9D684681817E
:102A5000A14800F067FD2878029068780190A87876
:102A60000090EB782A7969799C4800F05BFD300092
:102A700003F04EFC04AA03C204A80CC80020984925
:102A800003F060FC6A4603C2684603C803F044FDD5
:102A9000050003F04DFC06000F00684603C8002245
:102AA00080235B0303F010FD06D8684603C832009C
:102AB0003B0003F0BDFD08E004A803C8894B03F008
:102AC00041FC32003B0003F050FD0022864B03F036
:102AD00039FC03F021FD0F990E9B0A224A43009214
:102AE00002002900814800F01DFDA07B012801D1D2
:102AF000032000E0022069460D7EA07368468089AD
:102B0000A08168468189002002F00AFE002D06D1CE
:102B100068468089AC494880042002F0EDFCA07B27
:102B2000032815D10021082002F0D6FC2000303007
:102B300001F005FC012003F0D9FA9621490020009C
:102B4000183001F0D9FB6A492000483001F0D4FB6D
:102B500007B0F0BD40E201000A0000000400FA05E1
:102B60000CED00E0FEB500BF63A700BF6AA6614C94
:102B7000574D002805D0022850D03ED3032859D005
:102B8000F7BD01AA01A9491CA88901F073F8010049
:102B900059D1300000F0C6FC68460279417938000E
:102BA00000F0C0FC68464079022815D168460079DB
:102BB000022811D1012201212000283000F0B2FCAE
:102BC00000200090012301220021A88901F056F87D
:102BD00000287AD158A01CE00222022120002830CF
:102BE00000F0A0FC00200090022302220021A8890E
:102BF00001F044F80028EDD067E01321A88900F027
:102C0000B1FF002803D0010020005C301CE0200050
:102C1000883000F087FC00F0DBF9F7BDA88900F0F0
:102C2000F8FF002803D001002000AC300CE02000A9
:102C3000E43037E001AA01A9491CA88901F01AF87B
:102C4000002804D00100200000F06CFCF7BD30002B
:102C500000F068FC684602794179380000F062FCB7
:102C600068464079012820D16846007901281CD1A6
:102C7000032203212000283000F054FC00200090A3
:102C8000042304220021A88900F0F8FF00281CD1A9
:102C90008A204000201800F045FC00F099F9A82097
:102CA0004000201800F03EFCF7BD01220121200069
:102CB000283000F037FC0020009001230122002181
:102CC000A88900F0DBFF0028E2D000BF1DA0E9E7E3
:102CD000500D0020F8080410300904107409041085
:102CE0000000F43F0000F4BF00005940B809041090
:102CF00010270000280A04103D3D3E3E2050485950
:102D000020506172616D202054583D2025642C2094
:102D100052583D2025640A003D3D3E3E20686369CF
:102D20005F6C655F726561645F706879202D205308
:102D30007563636573730A00537563636573730A20
:102D4000000000004661696C0A000000F0B585B023
:102D500004210127AB4DAC4C0200052A36D801A353
:102D60009B5C9F44041426E4D8DEC82080000390B6
:102D7000029004261448077036E00026012000F077
:102D800015FF010057D02000C03012E1C82080009C
:102D90000390029004260C480170029880B20190C2
:102DA000039880B20090002301220021012000F04E
:102DB000DDFE002800D1D2E001008920C0002018EB
:102DC00000F0B0FBD0E000BFD0040020052800D9FF
:102DD000F7E002A24000125E974400BF0C00A0FF83
:102DE000BAFF6E0062006800029880B201900398FA
:102DF00080B20090012301220021012000F0B6FEE4
:102E0000002804D00100200000F08CFB03E020002B
:102E1000383000F087FB002300220121012000F060
:102E2000C1FE002803D0010020006830C1E0AE736D
:102E300020009830C3E0AE732000F430BFE09E481D
:102E4000077087E09C48017084E0642128003030DE
:102E500001F052FA98480078012801D1902000E052
:102E6000B4204000201800F05DFBC82080000190D5
:102E700000900023904802780021012000F076FEA7
:102E8000002804D00100200000F04CFB03E02000EB
:102E9000383000F047FB102002900190FA204000EB
:102EA00000900023502228218348007800F068FE1B
:102EB000002802D10021DA2001E00100FC204000BE
:102EC000201800F02FFB062103A800F0C5FAE1202E
:102ED00003AE307000217170B170F07080203071DD
:102EE000022070718F208000201800F01BFB3078CA
:102EF000029070780190B0780090F378327971790F
:102F00009C208000201800F00DFB03AA00216A48D5
:102F1000007800F043FE002810D1AD20800020187A
:102F200000F000FBAF73C1208000201800F0FAFA17
:102F3000042002F0EBFAD52080003FE00100E920F8
:102F40008000201800F0EEFA0020A873AA4820188C
:102F500000F0E8FA0021B80202F0BEFA31E0912058
:102F6000C000201800F0DEFA029880B201900398A9
:102F700080B20090002304220021012000F0F6FD21
:102F8000002806D001009820C000201800F0CAFADE
:102F900003E0B748201800F0C5FA002300220421FE
:102FA000012000F0FFFD002806D00100A820C0008D
:102FB000201800F0B7FA04E0AE73AE48201800F015
:102FC000B1FA05B0F0BD80B5012002F095FA01BD5F
:102FD00080B5012002F09AFA01BD80B50021802061
:102FE000C00102F079FA96214900BF4801F084F946
:102FF00001BD80B5012003F089F86421BB4801F0D0
:103000007BF901BD500D0020AC0B0410F8B586B063
:103010000024B74F6D4668730D0068460273059330
:10302000002001266946497B8C4242DA295D0491E1
:1030300029194978FF2936D10499062933DD291940
:10304000897830292FD12919C97800292BD129193C
:103050000979022927D129198979232923D1291905
:10306000C97920291FD12919097A21291BD12919A8
:10307000497A212917D16846007BBF490874062286
:103080000599B14800F00AFABB49CE73487C02901A
:10309000887C0190C87C00900B7D4A7D897D38003A
:1030A00000F040FA012004996418641CA4B20100E5
:1030B000B8D007B0F0BD0000D004002080B50320D8
:1030C000FFF744FE01BD0000FEB500BF3CA000F0CC
:1030D00029FAAA4C0025A84EF07B00286AD0F57387
:1030E000FA277F00102002900190009700235022C1
:1030F0002821012000F044FD010002D10021200020
:1031000001E02000443000F00DFA10200290019000
:103110000097002350222821042000F031FD0028D0
:1031200003D100212000883002E001002000D830C7
:1031300000F0F8F9AA4F3878012801D1942000E076
:10314000A8204000201800F0EDF932001132317C47
:10315000387800F023FD002824D10120B073BE2070
:103160004000201800F0DEF9042002F0CFF9DC2046
:103170004000201800F0D6F97988002903D00020FB
:1031800002F0CEFA7D80B07B032806D030003030CC
:1031900001F0D5F8012002F0ADFF00BF0FA000F054
:1031A000C1F9F7BD0100FA204000201800F0BAF97B
:1031B000B573EBE78A208000201800F0B3F9F7E739
:1031C000436F6E6E6563745F5265717565737428C5
:1031D0002920626567696E0A000000002D2D436F8B
:1031E0006E6E6563745F526571756573742829200E
:1031F000656E64200A0000000404000010B5110090
:103200001A00784C032908D1032A14D1022002F0B5
:103210006DFF0322032120000AE001290BD1012ABE
:1032200009D1022002F066FF012201212000303086
:1032300000F078F90DE02000583000F073F90A240E
:10324000022002F063FFFA20400003F077FA641EC8
:10325000F6D1494C2000483001F071F86249A0894C
:1032600003F080FA61492000483001F045F810BDB4
:10327000040500007C050000FEB55B4C65882688CF
:10328000290064204843310003F0A5FA694608701C
:10329000E1880F00F019019064204843019903F080
:1032A0009AFA0600E81964214843019903F093FA59
:1032B00005004FA000F036F96846017854A000F0F0
:1032C00031F9F1B258A000F02DF9E9B25CA000F09C
:1032D00029F9294D2100A88903F044FA434928001F
:1032E000483001F009F8F7BD680D0020800D00207E
:1032F0005C11041038B53F4C1F4DA97B200000F035
:1033000011F9A87B032803D12000343000F00AF91A
:10331000A87B00280AD101203149087064212800C7
:10332000303000F0E9FF0020FFF710FD31BD1248FA
:10333000807B032800D0704780B52F4800F0F2F85A
:103340000320FFF70FFC01BD610D002080B50A4886
:10335000817B032903D1294800F0E4F801BD00294D
:1033600009D104211E4A11706421303000F0C4FFDD
:103370000220FFF7EBFC01BD500D0020941104105A
:1033800038B51F4DA87B1B4C032800D13AE001281B
:1033900002D1062000F00AFCA97B002903D10420F9
:1033A000FFF7D4FC31BD20007C3000F0BBF831BD0C
:1033B00038B5134DA87B0F4C032800D122E001281B
:1033C00002D1062000F0F2FBA97B002903D10520E1
:1033D000FFF7BCFC31BD2000BC3000F0A3F831BDCC
:1033E000D0040020EC130410B40F002010270000BC
:1033F0000A000000781404107C150410AC140410AA
:10340000500D00202000343000F08CF831BD000059
:10341000094352432065727273202020202020200F
:103420002025326425250A00094D697373656420DF
:103430007061636B657473202025326425250A0052
:10344000095045522020202020202020202020200C
:103450002025326425250A00002200BF094202D03F
:10346000491E4254FCD1704770B4103A03D378C956
:10347000103A78C0FBD2530701D318C918C001D540
:1034800008C908C0D20704D30B880380891C801C9C
:10349000002A01D50B78037070BC70478B0701D1EF
:1034A0008307E1D0124205D00B78491C0370401C01
:1034B000521EF9D170474300B0B50546C07A1224B8
:1034C000802829D8298C172926D31448821D914297
:1034D00022D8298A17291FD381421DD8A87E002807
:1034E0001AD003F0CFF9002808D0E87E002813D0C6
:1034F000802811D8287F401E0E280DD80848342275
:10350000294603F0C1F903F02FFA002803D403F091
:103510005FFC002400E087242046B0BDFA030000D1
:103520009C0E00200EB4C0B5020003A8019000203C
:10353000009001AB0121044878440C3003F0B2FC48
:10354000029906B0084700BF65F8010081B0314913
:1035500001E081B030490A6802430A600968084006
:103560000090009801B070477CB504F03FFC00F07B
:103570005DF800F081F80820FFF7E8FF0420FFF76E
:10358000E5FF00F094FB00BF46A000680090234CCC
:10359000206A0125ED430126304008D120683043E0
:1035A00020602068284020600120FFF7D2FFC02063
:1035B000C0050090684604F02BFC684600210022FC
:1035C00006C0206A304008D1206806432660206883
:1035D000054025600120FFF7BCFF11480068102856
:1035E000FBD36846A0214900018000218170019130
:1035F00000F09BFB0B480C49016004F0BBFD002868
:1036000001D000F04CF8002004F024FE04F0AAFFE2
:10361000FCE700005000404860004048400040483F
:1036200010180060900F00200000304880B588B06E
:10363000182102A8FFF710FF68460021002206C0EB
:10364000032002908020400203901020059002A8E1
:1036500005F080F8002801D000F021F8002000904B
:10366000202001900021684605F09CF9002801D037
:1036700000F015F809B000BD80B586B01821684685
:10368000FFF7EAFE02200090C0020590684605F0B0
:1036900025FA002801D000F002F807B000BD72B68C
:1036A000FEE700000000000080B505F0B7FA80BD1D
:1036B00080B505F091FB80BDF8B506000F00002035
:1036C0003880154C200000F08BFA010023D1200037
:1036D00000F08AFA0400114DF00705D521002800FA
:1036E00000F086FA010016D1280000F085FA388033
:1036F00021002800243000F07BFA01000BD12100CA
:103700002800483000F074FA010004D1210028009C
:103710006C3000F06DFAF2BD580300203420041024
:1037200080B5022801D9122080BD05F079FB80BD4B
:10373000FEB50C00089F0025158002990D803D8084
:103740000521014027D0394E300000F049FA010030
:1037500022D168460470364C200000F04DFA0199E1
:1037600008802000243000F047FA029908803000D9
:1037700000F03AFA3D8069460978022906D1010035
:1037800020006C3000F034FA010005D12AA2082193
:10379000002000F002F80020FEBD70B504000D000E
:1037A0001600234804E070B504000D0016002148FF
:1037B00000F022FA33002A002100401C80B200F001
:1037C00001F870BDF3B581B017001D000024184E3C
:1037D0006946088024206043301800F00DFA002864
:1037E00004D0401C69460988884202D0641C052C1C
:1037F000F0D3052C0BD068460389242044433419A8
:10380000206A8188DA19914201DB002801D1122057
:10381000FEBD29003A008068C018FFF73FFE206A0D
:103820000178890700D547800020FEBD14030020E1
:10383000600200208402002053544D33325742303E
:1038400080B505F047FB02BD1CB56C46247C009496
:1038500005F0C6FB16BD80B505F00EFC02BD80B5B7
:1038600005F040FC02BD80B505F054FC02BD80B5FA
:1038700005F0A8FC02BD80B505F0DEFC02BD80B5F8
:1038800005F0FCFC01BD80B505F01EFD01BD80B555
:1038900005F03EFD02BD80B505F04EFD02BD80B5D0
:1038A00005F0D6FD01BD80B505F0F8FD01BD80B580
:1038B00005F01CFE01BD80B505F01FFE01BD80B501
:1038C00005F01CFE02BD80B505F034FE02BD80B5DA
:1038D00005F05CFE02BD80B505F07EFE01BD80B541
:1038E00005F080FE02BD80B505F0A6FE02BD80B5E4
:1038F00005F0C4FE01BD80B505F0D4FE01BD80B564
:1039000005F03AFF02BD80B505F038FF02BD80B575
:1039100005F036FF02BD80B505F034FF02BD80B56D
:1039200005F04CFF02BD80B505F078FF02BD80B503
:1039300005F090FF02BD80B505F0A8FF02BD80B57F
:1039400005F0E4FF02BD80B506F026F802BD80B5A3
:1039500006F052F802BD80B506F06CF802BD80B5E5
:1039600006F084F802BD80B506F09EF802BD80B571
:1039700006F0B8F802BD80B506F0CAF802BD80B501
:1039800006F0E2F802BD80B506F018F902BD80B578
:1039900006F016F902BD80B506F024F902BD80B527
:1039A00006F076F902BD80B506F07AF901BD80B562
:1039B00006F094F901BD80B506F0DCF902BD80B5D2
:1039C00006F0DFF902BD1CB5059C01946C46247C11
:1039D000009406F0DDF916BD80B506F0D3FA01BDFE
:1039E00080B506F01DFB01BD80B506F071FB01BD81
:1039F00080B506F0D9FB01BD80B506F01DFC01BD08
:103A000080B506F035FC01BD80B506F0A1FC02BD15
:103A10001CB56C46247C009406F0E5FC13BD80B513
:103A200006F024FD01BD80B506F052FD02BD80B553
:103A300006F080FD01BD80B506F084FD01BD80B5B6
:103A400006F088FD01BD80B506F08CFD01BD80B596
:103A500006F0C8FD02BD80B506F0D8FD01BD80B5F9
:103A600006F02CFE01BD80B506F082FE01BD80B5DA
:103A700006F012FF02BD80B506F04EFF02BD80B514
:103A800006F054FF02BD80B506F080FF01BD80B591
:103A900006F0F2FF01BD80B507F028F801BD80B542
:103AA00007F060F801BD80B507F09CF802BD80B555
:103AB00007F0D0F802BD80B507F0E0F801BD80B591
:103AC00007F09CF902BD18B587B010AC24780694B5
:103AD0000FAC247805940EAC247804940DAC2478B3
:103AE00003940CAC247802940BAC247801940AACB7
:103AF0002478009407F084F908B010BD80B507F071
:103B0000AFF902BD80B507F0EFF902BD80B507F04F
:103B10009BFA01BD80B507F079FB01BD80B507F0C8
:103B20009DFB01BD80B507F05FFC02BD80B507F0CD
:103B300093FC01BD80B507F0DFFC01BD80B507F047
:103B40003FFD01BD80B507F04DFD01BD80B507F01B
:103B50006BFD01BD80B507F08BFD01BD80B507F0A1
:103B600041FE01BD80B507F053FE02BD1CB56C4699
:103B7000A48A01946C46248A009407F04DFE16BD79
:103B80001FB56C46248C02946C46A48B01946C4641
:103B9000248B009407F052FE04B010BD80B507F0EE
:103BA00060FE02BD80B507F065FE02BD80B507F07E
:103BB00077FE02BD80B507F083FE02BD1FB508ACDD
:103BC000247802946C46247F01946C46247E0094F1
:103BD00007F07EFE04B010BD80B507F0BDFE02BD4B
:103BE00080B507F0C5FE02BD80B507F0C5FE02BD79
:103BF00080B507F0C5FE02BD80B507F0C5FE02BD69
:103C00001CB5059C01946C46248A009407F0C0FE04
:103C100016BD80B507F0C5FE02BD80B507F0C5FE34
:103C200002BD80B507F0C5FE02BD80B507F0CCFE31
:103C300002BD1CB5049C009407F0CCFE16BD1CB55B
:103C4000049C009407F0D5FE16BD18B585B00CACE9
:103C5000247804940BAC247803946C46248D02944D
:103C60006C46A48C01946C46248C009407F0D0FE22
:103C700006B010BD80B507F0DEFE02BD1CB56C4677
:103C8000248A009407F0E0FE16BDE0B501A9087093
:103C900001220846114607F0E2FE002800D08CBD44
:103CA00001A8007807F0F9FE8CBD70477047704797
:103CB00080B507F00FFF80BD010005D40121C006CB
:103CC000C00E8140684801607047C168032291437B
:103CD00002220A43C260704709E0C0688007800F73
:103CE000022801D1012070470020704700BFC16841
:103CF00003229143C16070470161704700697047BA
:103D0000816A5A4A0A4082627047816A4800C00F3D
:103D1000704700697047816A802292050A43826277
:103D2000704780687047C0687047F1B501275048F8
:103D3000C06B38434E49C8630846806B384388637C
:103D40001720FFF7B9FF1420FFF7B6FF009840686F
:103D5000002800D00120474D28700026000603D11E
:103D600000988078002813D04348C168C907FBD564
:103D700017210160C1683943C1604660C16839409C
:103D8000FCD02800103000F037FBE869286209E019
:103D9000C82040032862E861BC48A861BC4828618B
:103DA000BC48686100984068002802D1A020C00586
:103DB0000DE000030A2102F00EFD6860B64C200001
:103DC00000F086FA01006868884202D3200000F003
:103DD0007FFA68606420A8602E730098008829002C
:103DE00058310861A96900F08AFBAC4C00202070B2
:103DF00000212A005832183203C21D4800682900E9
:103E000058318862002000212A005832203203C233
:103E10002A00283203C234216854AD4AA96968686F
:103E200007F08CFE286328782074A66027736673D9
:103E3000E681290058314E72290058314E81AE6515
:103E4000EE65A448A8646E6500F049FA6A6800232C
:103E500012184B412800403000F07CFB0121280063
:103E600000F0F8FAF1BD000000E100E0FFFFFFBF45
:103E700010180060280B002004100060F8B58CB00A
:103E8000002469460C70EFF3108572B6924F38002B
:103E90005830407A00280BD000F021FABA6DFB6D43
:103EA0008B4205D801D3824202D238005830447286
:103EB00085F3108838009130019028E0401C1CE008
:103EC000046905738168002900D088472000F7D174
:103ED00069460298406B00F0BDFB02994863684652
:103EE000007801280DD1EFF3108172B601980078A7
:103EF000421C019B5B789A42E0D1019A107081F3D9
:103F000010880198407805994018019948700198E7
:103F10004078019909780A1A02D2802040001218CC
:103F20000026002A2AD00592AA480290446B0494E5
:103F30000394002502E0260024696D1C002C0FD09C
:103F4000207B0028F7D000F0CAF902000B0003CC58
:103F5000083C801A99410029EDDB01DC0628EAD3F0
:103F600028000025002802D03561049400E0039564
:103F700004980299486303980028A8E7387B002832
:103F800067D0AA480068012420407CD03E73A84D29
:103F9000E878002804D1A878002801D0AE7044E069
:103FA0003878002820D002A800F026FA04993800BA
:103FB0005830006980B200F0A2FAEFF3108672B6B2
:103FC00034203C54039878610498B86102983861B1
:103FD0000598F861380000F0A7FB86F310880021EF
:103FE000380000F037FA07E0EFF3108472B63800BB
:103FF00000F09AFB84F31088694638005830406B13
:1040000000F028FB390058314863684600780128E1
:104010000BD1EFF3108072B629784A1C6B789A4264
:1040200000D0491C297080F3108869463800583048
:1040300000F0C2FB3800403000F081F900F04FF989
:104040007A68002312184B413800403000F082FAA1
:1040500019E03878002816D000F041F93A002832EB
:104060000CCAFA2464030025A4185D418D420AD8C5
:1040700001D3844207D23800403000F060F93800A4
:10408000403000F04DFA0DB0F0BD0000C2F5280040
:104090008D5B0000ECEB6501FFEFFFFFAC0B002038
:1040A0007CB50500894806680B4C6946200000F085
:1040B00093FA03C5083D8E4AE1690098801B07F01A
:1040C0003DFD020003CD0023801A99417CBD000014
:1040D0002603000021450410280B0020F8B586B007
:1040E00053480290007802994978884236D1814D30
:1040F000287B002832D1032400F0F1F804AA03C27F
:1041000003A800F032FC0100280068302A00613268
:104110006123EB5C002B02D15378002B01D00129E5
:1041200002D19278002A1BD0AA6DEB6D0092019308
:1041300004A9C0C9027F002392197B41AE6E0027FB
:10414000B6185F41002152364F41009A019BBB4295
:1041500024D301D8B24221D3022405E0002037E065
:1041600002291BD0012919D0426A002A2FD0107BC6
:1041700000282CD003CA083A0090019104A8C0C8B6
:10418000A86E002180197941002352305941009EC8
:10419000019F8F4204D801D3864201D2012017E04B
:1041A000032C13D11069002810D12800403082421E
:1041B0000CD1012002998870002000F099FA8648FD
:1041C0000168864A0A400260032001E002242000C0
:1041D00007B0F0BD800B0020F8B5030014000020EC
:1041E0006A4610700D0000D00125424A110060316E
:1041F0000D71250000D001250D7014002834C0CCAD
:104200009C1B0025A4197D419465D5654870C87034
:104210000120887069461000583000F0CDFA012066
:1042200000F066FA68460078F2BD000010100060E9
:10423000B90B002070B50320C04385490A680240CD
:104240000A600A681040086028480168634A0A400A
:104250000260284C20005830002545724581EFF35C
:10426000108672B600F03BF8A26DE36D121A8B4116
:104270008420205C0021121A8B4186F31088002BC9
:1042800004DC01DB012A01D2012070BD002B04DC1B
:1042900001DB0F2A01D2022070BD002070BDEFF3B8
:1042A000108072B653490968694A891C51601168C7
:1042B0000323994302230B43136080F31088704754
:1042C00070470020A2490870704700001400006089
:1042D00080B5074A0749C96907F030FC02BD80B5BF
:1042E0006946044800F078F904BD00002818006011
:1042F00035060000280B0020F8B504000D00FFF77C
:10430000EEFF06000F00290D28030A22002307F004
:1043100036FC8019794102000B00200000F01AF9E8
:104320000400012000F0E4F9E0B2F2BD10B500F0A5
:1043300011F90400012000F0DBF9E0B210BDF8B57E
:10434000A44C21680E00002300250A0001E035007E
:104350003669002E07D08642F9D137698E4201D1E5
:104360003A0000E02F616D462B7003732068904285
:1043700015D06946100000F06DF92060684600789D
:1043800000280DD0EFF3108072B661794A1CA37932
:104390009A4200D0491C617180F31088F1BD2260FF
:1043A000F1BD18B50020009000980B4801680B4A39
:1043B0000A400260A5490A78531C4C78A34200D0F9
:1043C000521C0A700121C2690A43C261C0690140DE
:1043D000009111BD0000000030180060FFFFFFBF1A
:1043E000C148816801220A43826000210160704750
:1043F000000000001018006070B50400944D280003
:10440000FFF78FFC06002800FFF78BFC8642F6D1F1
:10441000002EF4D0B54932124A43F3B24B4319127D
:10442000511810314911E16026602800FFF77BFC2C
:1044300006002800FFF777FC8642F6D1002EF4D064
:10444000B011B649484380300012A060666070BD6C
:104450000C000060F8B505000F00B14C607A7D21BA
:104460004843C90002F0B4F9461CF6B2AD4AA96946
:104470001B2007F063FB2070607800F02AF83D21D4
:104480006854E078801900F024F8382168542079C5
:10449000801900F01EF839216854607900F019F88D
:1044A0003A216854A07900F014F83B216854002F99
:1044B00006D0E078801900F004F81B303C216854E5
:1044C000F1BD68214143090ADB225043000C081862
:1044D000704700B50200B34840690021002307F08F
:1044E0008DFB0322002307F089FB8022D2040023E6
:1044F00012184B41D20E58010243100000BD80B586
:10450000884A07F01BFBA849884201DD080002E049
:10451000102800DA10200005000EA449086001BD33
:1045200010B5A04C207B002806D12078002801D0AF
:10453000FFF756FF01202073FFF7D1FEA26800238A
:1045400012184B412000403000F004F810BD00006C
:104550008B0B0020FEB500256C462570017B0029E1
:1045600001D00120FEBD0CC0083801210173194C97
:1045700026680196070001E035003669002E08D054
:104580000CCE083E03CF083F8B42F5D301D88242C0
:10459000F2D338000661002D01D1019000E02861BE
:1045A0000199814213D1694600F054F820606846B1
:1045B000007800280BD0EFF3108072B661794A1CA6
:1045C000A3799A4200D0491C617180F31088684633
:1045D0000078FEBDB40B00207FB504000D00EFF3A2
:1045E000108672B6206F616F02AA03C27048FFF78F
:1045F00090FB03002B606F4D02A803C8009001914F
:104600002A00E16980202058181A07F097FA002143
:10461000009A019B80185941A26FE36F99420FD80D
:1046200001D390420CD2009001912A00E169002050
:10463000C04307F083FA0021009A019B801859417A
:10464000A067E16786F3108804B070BDB90B002045
:1046500000100060F1B584B00F00044600203870EF
:1046600000E02469002C3BD0207B0028F9D0EFF338
:104670001080009072B6FFF732FE0CCC083C121A84
:104680008B4102A80CC002A803C800291EDB01DC74
:1046900001281BD3234A4348836902A803C8190091
:1046A00007F04CFA0500202D00D82025CD4E300013
:1046B000FFF72FFB40190830F0623000FFF72BFBAB
:1046C000306B8021C9050143316301E0012038705E
:1046D000009880F310883878002801D0049800E012
:1046E000200005B0F0BD000008100060F6BC080016
:1046F00010B5B1490C009034002808D0207800286B
:104700000BD108004030FFF70BFF012004E0080048
:104710004030FFF714FE0020207010BD530700004A
:10472000C500002026030000FEB504002048FFF766
:10473000F0FA0500206A0290270080371D4E3200F3
:1047400001463868281A07F0F9F9020020002830DD
:1047500003C80090019110000021009A019B80186D
:104760005941206761672078002811D13868281ADC
:10477000216B88420CD2320002990020C04307F01E
:10478000DDF9226F636F002180185941206761674E
:104790003D60206F616F2200283203C2E069206211
:1047A000F7BD0000280B0020FF0F00000818006074
:1047B0000018006035060000F3B589B000200870CD
:1047C0000998807A002800D1CDE07B4C2000283069
:1047D0000CC8606800218018594106AA03C2EFF393
:1047E0001080049072B6FFF77AFD02000B00099862
:1047F00003C802AD03C502A803C80090019106A832
:1048000003C8C826B602002736184F410098019900
:10481000B9420FD301D8B0420CD306A803C8B926B9
:104820007600002736184F419F4201D802D39642A6
:1048300000D395E0012600200A32434102A803C8B4
:1048400000254C38A9418B4201D802D3824200D3C3
:1048500082E00998027A02A803C805003C20205C87
:104860000999097B012905D1002A01D0382106E0E8
:10487000392104E0002A01D03A2100E03B21615CAB
:104880000091019002A92000FFF7A6FE2D1A564ABA
:10489000A169280007F052F90390C027FF0501988D
:1048A000A16E4018C830A84203981AD24F4909781F
:1048B000401A0099451A029840194A49486238003E
:1048C000FFF70AFA3800FFF711FA4648806AB10785
:1048D000014344488162FFF71EFA00984349097872
:1048E00012E03D21615C401A0099451A0298411975
:1048F0003800FFF701FA3B48FFF702FA3800FFF7EC
:10490000E4F900983D21615C40180299039A8918E6
:104910002200683211622A18411D8A420AD23800E8
:10492000FFF7DAF93800FFF7E1F92E48FFF7E8F969
:10493000012007E02E4AE16907F000F92100683103
:10494000087700200A99087000200999887209994F
:104950004E720998C67203E0622165540A98067087
:10496000049880F310880BB0F0BD38B504001D4DDD
:104970002800FFF7CAF9002803D0686A20600320E6
:1049800032BDC025ED052800FFF7A7F9002805D0A6
:104990002800FFF7B3F92060012032BDE8688007E6
:1049A000800F032805D12800FFF7A8F92060022016
:1049B00032BD002032BD0000280B002080B5FFF77B
:1049C000F0FCFDF7A1FD01BD81B000200090009832
:1049D0000848016801220A4302600068009001B0A3
:1049E000704700000018006026030000C50000208A
:1049F00035060000740000600168002202814281D7
:104A0000828182730B78FF2B05D0FE2B09D103899D
:104A10005B1C03810AE04268511A091F8181002052
:104A20007047002B0DD143895B1C43814A88D21CFF
:104A3000032313435B1CC9184A1D43689A42E1D300
:104A4000EDE703207047F3B5079C0899250005D0D2
:104A50006D466C80FE242C706C4600E044688568CE
:104A60004668AE4217D22678FF2E14D0067B002E61
:104A700004D0002606732678002E0ED1466864887E
:104A8000E41C032727437F1CF4194460AC4202D284
:104A90002678FF2EEFD10420F6BDFE2E01D0032094
:104AA000F6BD6E463679FF2E04D066786F463F79A4
:104AB000BE42E3D14068001D106060881880002964
:104AC00001D0607808700020F6BD7FB515001C008D
:104AD000099E002232800B9A01926A46128D009242
:104AE00002AB03AAFFF7AFFF010013D169460989A2
:104AF0008D4201D306200DE0089A481B904200DA4F
:104B00000200200003994919FEF7C8FC6846008995
:104B10003080002004B070BDFEB5BB4D0D40491B78
:104B20006B4619700024070016000AE004223119B0
:104B300001A8FEF7B3FC019A3919002007F078F8B4
:104B4000241DAC42F2DB0020C0430190684602788D
:104B5000711901A8FEF7A2FC019A7919002007F04B
:104B600067F8F7BD70B544688668B44202D226780B
:104B7000FF2E01D1042070BD007B002801D1FE2E44
:104B800001D0052070BD6588A94201D3062070BD03
:104B900010001A00231D591807F0C0F8002801D092
:104BA0000020C04370BD7CB5079C0025069E358063
:104BB000250005D06D466C80FE242C706C4600E00C
:104BC000446845688668B54202D22678FF2E01D136
:104BD000042076BD007B002801D1FE2E01D00520E7
:104BE00076BD6088814201D3062076BD401A984286
:104BF00000DA030010001A002B1D5918FEF74EFCB6
:104C0000608806990880002076BDF8B584B007005A
:104C10000E001500B44C254203D107F07FF80028A0
:104C200020D001A80C21FEF717FCCD483818C00A87
:104C30000290681E0443641C6003000E03906946E2
:104C400001A807F07BF800240AE06010800F00192B
:104C50000321884332583919002006F0E9FF241D4A
:104C6000AC42F2D305B0F0BD0121017000214180BA
:104C700081807047F1B588B00C0015001E0000203F
:104C80000090FF2229002000FEF7E8FBFE20694685
:104C9000087507946846458206960E9D009C05AEF1
:104CA00019E06846008A6988401A401E03240443BC
:104CB000641CA4B268886946098A0A1A521E032134
:104CC0001143491C89B28F4242DB01200022B942C4
:104CD00028706A8040D06846408A071B3F1FBFB2D9
:104CE0002878002826D0701C0390A888029004A879
:104CF000019000970798001D03190022FF210898D2
:104D0000FFF7E3FE6946098AA98001000ED16846D3
:104D1000008A7080042205A907980019FEF7BEFBDF
:104D20007088C01C032101436418C1E706990C80F8
:104D300009B0F0BDA888019004A800903B00079836
:104D4000021969880898FFF72EFF0100A9D0EFE744
:104D500000212970C01968806846408A0699088039
:104D60000020E5E7F8B5AE4CA544AE490200142397
:104D70005A438F187989002901D1002040E004A905
:104D800000F013F9059D02A8FFF76EFF802636019B
:104D900002A8009001AB320008A904A8FFF76AFF3F
:104DA0000400042C06D0002C2AD168468088B0422A
:104DB000EED103E068468088002808D068468288E3
:104DC00008A92800FFF721FFAD19002CE0D008A8A2
:104DD0000C21FEF741FB624828184003000E0990A1
:104DE0000698401E711E0143491C481B4003000EDB
:104DF0000A90694608A806F0A1FF3800FFF7FCFDFD
:104E000089498D44F0BD0000FCFF0000F8B5844CDA
:104E1000A54400216A4691710022002381490600C1
:104E20000BE0B0680C245C43005D14246043081858
:104E30004089002800D001225B1C30798342F0DBDE
:104E4000002A25D080221201FF2108A806F0BEFF0B
:104E50000025802424010DE002A8FFF705FF02A829
:104E6000009001ABE21B92B208A8C11904A8FFF799
:104E700001FF6D1C307985420CDAB0680C226A4360
:104E8000011D8F5804A9805C00F08FF80028E3D042
:104E900000201BE0220008A93068FFF7B6FE614C35
:104EA000370069468D7900260CE0B8680C21714303
:104EB000405C142148432018FFF79EFD010000D0FC
:104EC0000500761C38798642EFDB280056498D4470
:104ED000F0BD95498A79824201D102207047897CD0
:104EE0008142FAD000207047FF070000F8B54C4C13
:104EF000A54404000E0080221201FF2108A806F03C
:104F000065FF002568460471802424011CE00C27FD
:104F10006F43B068C05D6A461279904213D004A90D
:104F200000F043F8B068C019476802A8FFF79CFE7C
:104F300002A8009001AB9B1CE21B92B208A8C11909
:104F400004A8FFF797FE6D1C30798542DFDB220055
:104F500008A93068FFF759FE002033498D44F0BDA1
:104F60000000FCEF10B500246F480C21614341188C
:104F70008A792C4814235343C0180368002B10D19E
:104F8000012A0EDC0A6802608B88D2184260098907
:104F90000182FFF731FD010004D1641C012CE3DD27
:104FA00001E0012010BD002010BD10B50200022A52
:104FB00001DB012010BD1B4B142462439A181368B7
:104FC0004B6052688A6001220A730870002048739F
:104FD00010BD7FB5694C0578142675436419A47B10
:104FE000002C01D00A2008E003940294099C01944B
:104FF0006C46248C0094FFF768FD04B070BD7CB54E
:10500000A04C0578142675436419A47B002C01D0AC
:105010000A2076BD0194069C0094FFF7C4FD76BD7E
:10502000E0F7FFFF2C0F002024080000FAB583B042
:1050300017000325791E03260E43761C0CE00C781E
:10504000FF2C18D0FE2C01D0002C69D14A88D21C2C
:105050002A43521C89184160826841684B1D934263
:10506000EDD388490078142250430818408900285D
:1050700054D1022055E00290501A834B984201D23D
:10508000521A00E01A467F4C92B2B0B26B461B8DAA
:10509000C018001D824239DB6846007B0191FE2169
:1050A0006A461170694648706846008D301848801D
:1050B000009A0199002006F0BBFD049AB1B2019854
:1050C000001DFFF729FD0B9A6846018D0198B6B2C5
:1050D0008019001DFFF720FD200008300299097893
:1050E0001422514340180188491C0180029800781D
:1050F00014214843201881896A46128DBA18521E1D
:105100001543491B491F818100200AE0029800785D
:1051100014214843201840890028AAD00B2000E021
:10512000032005B0F0BD0000C420041010B5040039
:105130006168A06881421ED20878FF281BD0FE2833
:1051400017D1FF22D243002006F072FD4D48010026
:105150000831227814235A4389180A88521E0A807B
:1051600021781422514340184189491C4181002073
:1051700010BD052010BD042010BD00002C0F002024
:1051800078B585B004006946FFF7A3FE3D4D0228BF
:105190001ED1142044432C19256802A80C21FEF7C7
:1051A0005BF93A4828184003000E03906068401EDF
:1051B00037490143491C481B4003000E049001A9D4
:1051C00002A806F0BBFD2000FFF716FC00201BE044
:1051D000012818D100992000FFF788FE040010D1A3
:1051E00000260AE0009880680C217143405C14217D
:1051F00048432818FFF700FC761C00980079864287
:10520000F0DB200000E0012006B070BD1CB50400FA
:105210006946FFF75EFE022803D12000FFF7A2FDDA
:1052200016BD012803D10098FFF7F0FD16BD01203F
:1052300016BD38B5174800214356DAB2114C142573
:10524000554364196589002D03D0A589248AA54298
:1052500007D3521CD2B2022A00D100229A42EDD1C9
:1052600006E0531C5CB2022C00D10023190001E0BF
:105270000022D2430170100602D4D0B2FFF7C6FF5D
:10528000002032BD2C0F0020FFFF00000000FCEFCB
:10529000FF07000033000020F0B583B004464C48FF
:1052A0000460204606F078FE0546204606F064FEBF
:1052B0000646684601F050FB0099091A4B0B454918
:1052C0000A681146D831002B02D11060012000E09D
:1052D0000020087040480068447B0021FF2C0AD061
:1052E0002C2060433D4A12681018827C002A02D0AC
:1052F000416AC068FFE70127002E03D0002D01D1CD
:10530000002911E0002D15D0354A8B1A5A425A4116
:10531000344BCD1A6B426B41334D4E1B7542754178
:10532000002907D013431D432A4E294D04D0884736
:10533000002701E0274E264D286806F029FE0028A8
:1053400001D0042520E0286806F00CFE002801D0DA
:10535000012519E0286806F009FE002801D0022581
:1053600012E0286806F01CFE2946052500280BD10E
:10537000086806F019FE002806D11548006806F0F6
:10538000DDFD002820D000250120A840174909682C
:105390000A6802430A60002007F06CF8FDF7C0F8C5
:1053A00001F0D5FA204607F077F83468607D0128CF
:1053B00008D1217C0F200840E268090907F032FA81
:1053C0000020607503B0F0BD002FE9D1EDE7C046C5
:1053D000DC0F00209C0F0020A00F0020A40F002055
:1053E000B7390410733D0610BF390410E80F0020D0
:1053F000BCB5584CA16900910840A06135E0521C31
:10540000D300E51803000B402F681F40F7D02A682F
:10541000104001406868084002D10020C043686025
:105420006868084000F09AF801006A680120884026
:1054300082436A606162EFF3108172B6626A012092
:105440009040C2432069104020610220C300E3184D
:10545000083B1D6815401D60401EF7D181F3108880
:105460003D48616A8900405880472369E269606964
:10547000256AA16903400B4003D0154001D10022E9
:10548000BEE70020C0436062206A104014D103F0E0
:105490006FF8EFF3108572B62169E06962690A401E
:1054A000A169114004D1216A014001D103F061F8E2
:1054B00085F3108807F0B7F90098A061B3BD38B53F
:1054C0001400EFF3108572B600F048F8800022490E
:1054D0000C5085F3108831BD10B5EFF3108272B611
:1054E0001C4B1C6904431C61C90059180B68184304
:1054F000086082F3108810BDEFF3108172B6154A70
:10550000D3691843D06181F310887047F8B5114D05
:10551000696A00910022D243914201D1002701E043
:1055200001278F402E6A2862040003E02100380022
:1055300007F07AF9E8692040F8D000986862EFF344
:10554000108072B6E969A143E96180F310882E6288
:10555000F1BD000084030020540C00200021020C47
:10556000120401D110210004020E120601D10831EB
:105570000002020F120701D1091D00011F22511A5A
:1055800002A2000F105C081AC0B2704704030202A6
:1055900001010101000000000000000010B5FFF74C
:1055A000E1FC424C211D0020FFF7FFFC21001431DB
:1055B0000120FFF7FAFC201D206010BD3EB53B4DD9
:1055C000022802D12C00143400E02C1D2C60019321
:1055D0006B461B8B00930B0001002000FFF726FD9C
:1055E000002805D0022801D1002000E00120C0439E
:1055F0003EBDF8B584B00E0019002C4C022E03D12C
:1056000025001435012301E0251D00230700256036
:1056100028466D466A8103910A9D022F08D102A98E
:1056200000912B00039A69464989FFF7E8FC0FE0D7
:10563000002F03D101001800FFF7B7FC02A801906A
:105640000095039B6846428931002068FFF7C1FC42
:10565000010001D1002005E0042801D1022000E072
:105660000120C04305B0F0BD10B5140023000A00AE
:1056700001000E480068FFF775FA002804D001D534
:10568000200010BD0220C04310BD80B5022807D104
:10569000064908681431884207D0FFF747FD01BD6D
:1056A000032802D10020FFF76BFD01BD540F00203D
:1056B0000120FFE70D490860002070470120C0432A
:1056C0000A490968012900D1002070470020EFF342
:1056D000108172B6054A1368032B02D00120C04323
:1056E00001E00123136081F31088704780030020DC
:1056F00010B5002461494C70614807F09BF8614A7D
:1057000000210820FFF7DBFE5F4A00218020C00156
:10571000FFF7D5FE5D48847001210170447010BD13
:10572000002803D155484180002070470120704770
:1057300010B50400002100F00FF80121200000F056
:105740000BF80221200000F007F80321200000F0F0
:1057500003F810BD00000000FEB50027002601225E
:10576000002801D0012786E0444D6888484C002974
:1057700005D0022930D016D3032947D07BE004207E
:10578000287000BF43A0FDF7CDFE04216888FEF716
:1057900044FA002803D100F0BCFB200062E00100C5
:1057A00020004C3065E005212970EB88AA880100B3
:1057B0002000B430FDF7B6FEEB88AA880421688883
:1057C000FEF72FFA002804D100F0A3FB2000FC30E4
:1057D00048E00100962017E006202870EA88A98892
:1057E000B22040002018FDF79DFEEB88AA88042116
:1057F0006888FEF71AFA002804D100F08AFBC82056
:1058000040002EE00100E620400031E069468A8039
:10581000AA8A002A0ED001A9009102230421FEF7D2
:105820000EFA060000F075FBA98A8420800020187B
:10583000FDF778FEEA8C002A0FD001A80090022321
:1058400004216888FEF7FBF9304306000220FFF7C9
:105850005DFEE98C16A0FDF765FE002E05D18D20BA
:1058600080002018FDF75EFE05E0310098208000E2
:105870002018FDF757FE3800FEBD0000040F002081
:10588000CD580410095F04101D5F0410BC0F0020E8
:105890000816041047415454207365727669636595
:1058A0007320646973636F766572790A0000000083
:1058B000205377697463685F434465736348646C1D
:1058C00065203D3078253034580A0000F0B589B0A5
:1058D0000500287869780906090C08430C27C64C8E
:1058E000C649401A00D1E3E2401E00D18AE1401EC1
:1058F00000D1A1E0401E00D1C7E0001F06D0401F2C
:1059000000D173E2401E00D1BAE2E0E2A978E87863
:105910000006000C0143BA48FDF704FE0020A978F8
:10592000EA781206120C114362888A4200D00120E4
:10593000A978EA781206120C114328225043201845
:10594000029002984088884274D1E879297A090641
:10595000090C0843AC79210000F03AFFC0B20421E1
:10596000142C01D100910497062C02D10091002142
:10597000049100270395009E069010E0C6A007E062
:10598000C6498842FAD10298048302984583C448E4
:10599000FDF7C8FD039880793618F6B27F1CF9B27E
:1059A00006988142B1DA039880194079039A921DD2
:1059B000925D140204430398C01D805D039A08326F
:1059C000925D1502054304983018039A0932125C5F
:1059D000039B0A33185C0002104305900195009464
:1059E000059B069A491CAF48FDF79CFD02988088EC
:1059F000002801D0844201DA02998C800298C08884
:105A0000002801D0A84201DA0299CD800598C02172
:105A10004901884205D10298048102984581C6480F
:105A2000B6E7491C8842ABD1029884810298C581AF
:105A3000C248ADE7C24820E2A978E8780006000C29
:105A40000143C04EAA79BC2040003018FDF76AFD22
:105A50000024A87984427BDAA000290009310918C2
:105A60000B784A781206120C1343E91D08180278C5
:105A700041780906090C0A432100E620400030184D
:105A8000FDF750FD641CE4B2E3E7A978E87800066E
:105A9000000C0143AC48FDF745FD0020A978EA78E9
:105AA0001206120C114362888A4200D00120A978A4
:105AB000EA781206120C1143282250432018059050
:105AC00005984088884200D093E0E879297A090651
:105AD000090C0843AE79310000F07AFEC4B205200B
