:020000041004E6
:1000000000000120196407104167071043670710BB
:1000100000000000000000000000000000000000E0
:10002000000000000000000000000000456707100D
:100030000000000000000000476707104967071034
:100040005315041097150410331C0410AB32041020
:100050000000000000000000000000004B3304100E
:100060002B3E0410133F041083460410CB60041091
:100070003F65041051670710000000007D670710FE
:100080001B6604105B6707106D6707100000000017
:100090006567071000000000000000005D670710A2
:1000A000076A0410756707101771041003740410B1
:1000B000577B04100000000000000000000000005A
:1000C000E8330020D66500003C0008080600AA00BE
:1000D000F7000000FFFFFFFF6400021008040204A5
:1000E000F7000808520101020202020000010003A9
:1000F0000004000006040000853406101D04000002
:10010000C3340610010C0000FF340610150C00006B
:1001100029350610160C00006F3506102D0C000056
:10012000AF350610480C000011360610490C0000CF
:1001300051360610630C00007F3606107B0C000061
:10014000AB3606107C0C00000F37061001100000C3
:100150006937061002100000DB370610031000009C
:100160002D3806100910000077380610051400001D
:10017000C5380610012000002539061002200000B5
:100180005339061003200000A7390610052000008F
:10019000ED390610062000001D3A06100720000069
:1001A0007D3A061008200000B93A06100920000028
:1001B000ED3A06100A200000213B06100B2000003B
:1001C000533B06100C2000009D3B06100D20000044
:1001D000D13B06100E2000008B3C06100F200000C3
:1001E000B93C061010200000FD3C06101120000054
:1001F0002D3D061012200000613D06101320000066
:10020000933D061014200000273E06101520000024
:10021000593E061016200000C53E061017200000AB
:10022000FD3E061018200000533F06101920000064
:10023000993F06101A200000E93F06101B2000001D
:10024000354006101C200000874006101D200000CD
:10025000CF4006101E200000034106101F200000A2
:100260003B410610222000007B41061023200000A5
:10027000D941061024200000294206102520000044
:1002800071420610262000009D4206102720000023
:10029000C94206102820000005430610292000004E
:1002A0003B4306102A2000006D4306102B2000005F
:1002B000A94306102C200000F54306102D20000055
:1002C000494406102E2000007D4406102F20000017
:1002D000BB440610302000002B45061031200000E2
:1002E0009545061032200000CD4506103320000051
:1002F0001D4606103420000055460610352000002B
:100300008F46061036200000C54606103720000034
:100310004F47061038200000914706103920000092
:10032000CB4706103A2000005D4806103B20000035
:10033000A54806103C200000E34806103D200000C0
:10034000174906103E200000494906103F200000D2
:100350009549061040200000D149061041200000B8
:10036000194A061042200000CB4A06104320000024
:10037000154B061044200000014C061045200000DB
:100380005B4C0610462000008D4C061047200000F4
:10039000CB4C061048200000034D061049200000F9
:1003A0003B4D06104A2000006D4D06104B2000000A
:1003B000AB4D06104C200000F14D06104D20000002
:1003C000474E06104E200000914E06104F200000B0
:1003D000C94E061050200000194F06105120000091
:1003E000694F061052200000A94F0610532000004C
:1003F000DF4F0610542000003D500610552000002D
:100400009750061056200000ED50061057200000AF
:100410004B51061058200000995106105920000039
:10042000F15106105A200000315206105B200000E6
:10043000915206105C200000E95206105D20000079
:100440004F530610602000009953061061200000F1
:1004500001540610622000008D5406106320000035
:10046000A555061064200000E55606106520000022
:1004700069570610662000009F570610672000008D
:10048000D957061068200000275806106920000080
:10049000995806106A200000235906106B200000AE
:1004A000555906106C200000B95906106D20000047
:1004B000F75906106E200000315A06106F20000018
:1004C0009D5A061070200000EB5A061071200000A3
:1004D000395B061072200000875B06107320000055
:1004E000055C061074200000835C06107520000077
:1004F000B95C0610762000007B5D061077200000B6
:10050000EB5D061078200000275E061079200000C1
:10051000875E06107A200000D55E06107B20000062
:10052000255F06107C200000835F06107D20000000
:10053000B95F06107E200000236006107F200000B7
:100540009F600610822000003161061083200000A9
:10055000CB61061084200000356206108520000063
:1005600093620610862000008763061000FC0000DE
:10057000FB63061001FC00003F64061002FC000053
:10058000036506100CFC0000D16506100DFC000090
:100590000D6606100FFC00008F66061014FC0000AC
:1005A000D566061015FC00001767061016FC000043
:1005B0004D67061017FC00007F67061018FC00004E
:1005C000E36706101CFC0000216806102BFC0000ED
:1005D000676806102CFC0000AF68061035FC0000B0
:1005E0001169061036FC00005369061037FC000044
:1005F000DB69061038FC0000156A061060FC00007C
:10060000556A061081FC0000B76A061085FC0000E0
:10061000ED6A061086FC0000216B061088FC0000C5
:100620006B6B06108AFC0000B36B06108DFC00009B
:100630001D6C061090FC00005F6C061092FC000020
:10064000B76C061093FC0000E96C061094FC0000E7
:10065000296D061096FC00005B6D06109CFC0000E6
:100660009B6D06109DFC0000D36D06109EFC0000E3
:10067000076E0610A0FC00009B6E0610A3FC000095
:10068000EB6E0610A4FC0000936F0610A5FC0000A2
:10069000C96F0610A6FC000009700610A7FC000038
:1006A00049700610A8FC0000DD700610AAFC0000CE
:1006B00021710610ABFC000057710610ACFC000065
:1006C000DD710610ADFC00006F720610AEFC00007C
:1006D000AB720610AFFC0000E7720610B0FC000021
:1006E00039730610B1FC0000BD730610B2FC0000A7
:1006F00007740610B3FC00003F740610B4FC000041
:10070000BD740610BAFC0000F1740610BBFC0000BA
:1007100025750610CAFC000057750610CBFC0000BA
:10072000EF750610CCFC00008176061001FD00007C
:100730001377061002FD00005977061003FD000034
:10074000FF77061004FD00005B78061005FD000031
:100750003B79061006FD0000537A061007FD0000E5
:10076000B37A061008FD0000F17A061009FD0000BA
:100770002F7B06100AFD00006D7B06100BFD0000AC
:10078000A37B061010FD0000E17B061011FD0000A8
:10079000557C061012FD00009F7C061013FD000022
:1007A000E17C061014FD0000637D061015FD0000BD
:1007B000B97D061016FD0000177E061017FD00001B
:1007C000B57E061018FD00000B7F061019FD000015
:1007D0005F7F06101AFD0000FD7F06101BFD000064
:1007E000538006101CFD0000BD8006101DFD00009A
:1007F000278106101EFD0000A381061023FD0000C6
:100800001782061024FD00007F82061025FD0000DF
:10081000DF82061028FD0000278306102AFD000055
:10082000678306102EFD0000378406102FFD0000A0
:100830007784061031FD0000EB84061033FD0000C4
:100840003585061035FD0000BF85061036FD000019
:100850009386061037FD0000F386061038FD000071
:10086000A587061039FD0000638806103AFD0000D8
:10087000CD88061081FD00001789061082FD00005A
:100880008189061083FD00001D8A061084FD00008A
:10089000838A061085FD0000358B061086FD00005A
:1008A0009F8B061087FD0000E78B06108AFD000075
:1008B000478C06108BFD0000BD8C061000FE00006A
:1008C000078D061001FE0000658D061002FE000077
:1008D000B58D061003FE0000FF8D061004FE00001B
:1008E000338E06100000000000000000050000002C
:1008F0009717081000000000000000000000000032
:100900000000000010000000AF17081011000000E8
:10091000C917081004080000D91708100D080000B6
:10092000F7170810010C0000471808100F0C000002
:100930007F180810100C0000B7180810160C0000E3
:1009400029180810190C0000D91808101A0C0000FA
:100950000B1908101B0C00004719081000000000BC
:100960000000000000000000020000003200002033
:100970000000000008000000C80300200000000084
:1009800001000000500500200000FFFF00000000F3
:1009900004000000880904100000000005000000A9
:1009A0009833002000000000010000008E8B04102E
:1009B0000100000003000000A83300202000000018
:1009C000FB349B5F8000008000100000052A0000BF
:1009D0001000000001000000AC0400208C0904108D
:1009E0000A000000FB349B5F8000008000100000C4
:1009F000292B000010000000000000000000000093
:100A00009809041002000000FB349B5F8000008006
:100A1000001000002A2B0000100000000000000061
:100A2000000000000000000002000000FB349B5F9B
:100A300080000080001000003A2B00001000000031
:100A40000000000000000000A409041096C298D81D
:100A50004539A1F4A033EB2D817D0377F240A463E7
:100A6000E5E6BCF847422CE1F2D1176BF551BF37F0
:100A70006840B6CBCE5E316B5733CE2B169E0F7CC3
:100A80004AEBE78E9B7F1AFEE242E34F00F00B1029
:100A900000080000AA02000000F80B10F80701008F
:100AA0000000000096C298D84539A1F4A033EB2D80
:100AB000817D0377F240A463E5E6BCF847422CE170
:100AC000F2D1176BF551BF376840B6CBCE5E316BB4
:100AD0005733CE2B169E0F7C4AEBE78E9B7F1AFE78
:100AE000E242E34FCAEBECEDEFF0F1F2F3F4F5F68E
:100AF000F7F8F9FAFAFCFDFDFEFEFFFF0000010227
:100B00000304050608000000F966071005670710D2
:100B1000C96507105166071059640710FF64071074
:100B2000FB349B5F8000008000100000292B000038
:100B300010000000FB349B5F80000080001000006C
:100B4000052A000010000000020000000300000061
:100B50000300000006000000030000000300000086
:100B60003C0000007000000070000000D003000096
:100B700070000000C30100008D6F07108B1E041071
:100B8000B31E0410CB1E0410C31E0410FB1C041063
:100B90006B1D0410F7250410FF2504100726041010
:100BA0000F2604101726041001760710BF25041025
:100BB000A7250410C7250410632104106323041023
:100BC000831D0410BB2304100F1F0410171F0410F3
:100BD000F1730710DD1B0810391A0810DD1D08100D
:100BE000EF1F0810EF1F081005210810DD1D081069
:100BF000DF220810DF220810DF220810E11C081095
:100C0000F3190810B719081005210810731D0410F6
:100C10007B1D0410791F0410891F0410811F04100C
:100C2000DB1D0410E31D0410EB1D0410F31D041064
:100C30001B1E0410031E04100B1E0410131E0410B0
:100C4000FB1D0410231E04102B1E0410331E041061
:100C50003B1E0410431E0410A14901800020704770
:100C600080B500F0C5FA00F08DFB01BDF0B587B08E
:100C700005001224FE2805D10DA80078002801D017
:100C800012202BE10C9F684602720E00049206931C
:100C900039004DD1FE2D4ED0F02D24DA042E22DC69
:100CA00001A8801C009001AB5B1C02AAD21C02A907
:100CB000491C280000F0D6FB002800D0D1E068468F
:100CC000C0881421014014290DD06846C0882040F6
:100CD000022808D06846C088C00605D5032E02D178
:100CE0000498202810DBF8E0032E07D10024694681
:100CF0000C713900280000F0EBFA87E0042E03D0D5
:100D00006846007A0028EED06846407A00286FD006
:100D1000032EEBD0042E3DD10DA800780190009752
:100D2000069B6846027A0421280000F096F9D5E077
:100D3000012F3AD1FE2D2FD0042E1EDA03A80090E9
:100D400001AB5B1C01AA921C02A9491C280000F0FF
:100D500089FB002838D168468089800703D468461B
:100D6000007A002809D1684680892040122805D1E0
:100D7000032E02D10498202806DBAEE0032EB5D066
:100D80006846007A0028F8D06846407A00282FD0BC
:100D9000032EABD00C24A0E0012069464872032E3C
:100DA000F9D104982028A1DB97E0042EFCDC01A8EF
:100DB000801C009002AB9B1C01AA521C02A9491C7A
:100DC000280000F04FFB00284BD1684640790028EE
:100DD000E0D00498FD28E7DA032EDAD0042E9BD069
:100DE0006846807A0028D5D16846007A002874D0F9
:100DF0000024300007D0022E05D001D3042EEED0FF
:100E000000D274E702E0012069460871009703AB45
:100E10009B1C68460279017A280000F014FA0590BC
:100E2000002803D16846007A002806D16846C089A8
:100E3000049941182B4A914215DB0DA800780190C6
:100E40000097002300220321280000F006F9390052
:100E5000280000F07EFA3900280000F039FA072057
:100E60003CE0422439E069460A7A0699059B181845
:100E700000F062FB6846C0896946097A4218022E72
:100E800012D0032E10D0012E27D10DA8007801908A
:100E90000097002300220321280000F0DEF839002B
:100EA000280000F056FA18E00DA80078019000978D
:100EB000059B92B20321280000F0CFF8040008D16E
:100EC0003900280000F045FA3900280000F036FA11
:100ED00003E03900280000F0FBF9200007B0F0BD66
:100EE00072060000730600001CB51A00049B002463
:100EF0002BE11CB51A00049B00240194012425E178
:100F00001CB500240194022420E1F1B596B00D0037
:100F1000140005A8402100F01DFB16A80078F02859
:100F200001DB12205DE002A8009001AB01AA521C77
:100F300001A9891C16A8007800F094FA060001D0D7
:100F400042204EE06846057000F07CFA6946097858
:100F5000884201D20C2044E0049469464E7000247B
:100F600005AF16E000F03CFA060020D0E00038188B
:100F70002978017069784170A9788170E978C17029
:100F8000EA786968300000F0D7FA381DE100465071
:100F9000641C68460078039084420CDA0498E100EF
:100FA0004518E878FA28DDDB07206946487068466E
:100FB0004478002511E06846017805AA16A8007853
:100FC00000F0D0FA04000BD0F3E7002105A8001DC3
:100FD000EA00805800F0DBF96D1C03988542F4DBD1
:100FE000200017B0F0BDF8B584B004000F00150064
:100FF0001E000BA80078F82804DA00F009FA039024
:10100000002801D107201AE00BA802780C99039858
:1010100000F092FA039802900BA8007801900AA8B9
:101020000078009033002A003900200000F0B4FA64
:10103000040003D00121039800F0A9F9200005B0B5
:10104000F0BD80B5814201D000F04EF9012002BD13
:1010500080B500F09CF9012002BDF8B51500069A94
:10106000079E170010D1002E03D02A0000F0C4FB09
:10107000E6BDFE2804D11900E8B200F0C1FBE6BDD0
:101080002A0000F0E3FBE6BD012A12D1002E04D0B5
:101090001A00290000F048FCE6BDFE2804D1190022
:1010A000E8B200F045FCE6BD1A00290000F064FC3F
:1010B000E6BD2A0000F0AEFCE6BD80B502000800E7
:1010C000D10706D5022100F0B2F8012801D10C2089
:1010D00002BD002002BDF8B5012817D100240F0081
:1010E000160000E0641CBC4210DA0620604335188C
:1010F0000021287800F09BF8012805D001212878EC
:1011000000F095F80128EDD10C20F2BD0020F2BDD1
:1011100080B5FFF7E0FF02BDE0B502000B00002044
:10112000019005E0E0B502000B00002001900120D5
:1011300000900321FE20FFF799FD0EBD1CB5012490
:101140000194002402E01CB5012401940094FFF7EF
:101150008DFD16BDB8B5BFB0140001D0F22C01D37F
:1011600012201AE01F000D000190F42102A800F0E7
:10117000F1F9220002A9380000F050FC45980090D7
:1011800002AB22002900019800F051FC010001D1BE
:10119000093400E0002444990C7040B0B0BDF0B5B3
:1011A000BFB01400FF2A01D112201CE01D000E0068
:1011B0000700F82101A800F0CDF901A800902B004C
:1011C00022003100380000F03DFC0500449807D1B2
:1011D0004599F7340470E2B201A800F01FFC01E069
:1011E0000021017028003FB0F0BD180050015001EF
:1011F0000020FF21504A28234343D2181170117553
:10120000401C0328F6DB704710B503290DDA0022D5
:10121000494B2824614359180B78834201D188181F
:1012200010BD14220B7D8342F9D0002010BD80B583
:10123000FFF7EAFF002802D0C068002801D1002093
:1012400002BD012002BDFEB506000F0000241C8077
:1012500008A801783000FFF7D7FF05000BD108A8D8
:101260000178FF20FFF7D0FF05001BD02E706C60C7
:10127000AC60EC602C826846007900280FD1686869
:1012800000280FD1E868002801D000F067FC380082
:101290001AD000F03DFC002817D03C0015E0E868AB
:1012A000002801D10020FEBD298AC91989B200F0A9
:1012B00061FC002805D0298A029A1180298ACC195C
:1012C00003E0E86800F04AFC00202C82E860FEBDE4
:1012D00010B5FFF799FF040005D0E06800F03EFC70
:1012E0000020E060208210BD002800D1704738B592
:1012F00000250022002310492824544309191424EE
:101300005C430C196168814206D0A168814207D014
:101310005B1C012BEFDD0AE000F020FC656031BDB5
:10132000080000F01BFCA560FF20207031BD521C9E
:10133000022ADFDD31BD0000D030002080B5FFF78C
:1013400063FF002804D0C16881600021C160018270
:1013500001BD80B5FFF758FF002803D081684160C8
:101360000021816001BD8300850007000700830024
:10137000850005000700030003000F000500820040
:10138000810005003648002141600170704730B58A
:101390000122334B0024002902D001290FD030BD97
:1013A000F921614359180831884203D0641C082C84
:1013B000F6D330BD5868A2409043586030BDF92143
:1013C00061435918FA25ED004919884203D0641C7D
:1013D000082CEEDAF3E71878A2409043187030BD7D
:1013E00010B500201E494A6801231400C4401C4067
:1013F00002D0401C0828F8D3082801D1002010BDD5
:10140000834013434B60F92250430818083010BD45
:1014100010B5002012490A78012301248440224299
:1014200002D0401C0828F8DB082801D1002010BD9C
:10143000834013430B70F92250430818FA21C90066
:10144000401810BD00210020054A5368CB40DB073F
:1014500000D4401C491CCBB2082BF6D3C0B2704755
:1014600054050020F0B587B003930292059107461A
:1014700000F0CAFB4D21415C0902012201921202D7
:101480008B1800260C990491B518AB4221D0016845
:101490008E19BE24345BBC422E46F5D14819014654
:1014A00032390978059A1170014648390988049A39
:1014B0001180FF21C943401806A900F0ADFB0028A8
:1014C00009D00298019901700698007A411E88415E
:1014D00004E0422005E0002002990870039908709A
:1014E000002007B0F0BD0300FFFFFFFFFFFFFFFF7D
:1014F000FFFFFFFFFFFF010000000000FFFF0100F2
:101500000000FFFF70B4103A03D378C9103A78C0D6
:10151000FBD2530701D318C918C001D508C908C0A8
:10152000D20704D30B880380891C801C002A01D5B4
:101530000B78037070BC70478B0701D18307E1D033
:10154000124205D00B78491C0370401C521EF9D181
:101550007047FEE7002200BF094202D0491E4254F4
:10156000FCD170477CB514460D4606460120022189
:1015700000F060FB002800D07CBD01210F2228462E
:1015800000F066FB0028F7D16846467005700194AC
:1015900000F0A1FD7CBDFEE7F0B593B01C461546FA
:1015A0000F46129001200221109000F043FB00280A
:1015B00022D119980F9000268B4A129831468B4BF6
:1015C00098470E9011947F24284631462246874B37
:1015D00098470D9707460E980743119831462246C3
:1015E000824B984704463C430F98FB2231467F4B81
:1015F00098472043119C01D013B0F0BD0C950E9676
:10160000129801F0FFFC002814D0189D6B1C46694D
:10161000316B1290726B5A43501800022721CF0091
:10162000C019734901F023FDF16A401A3F3803D411
:101630001220E1E74220DFE70B970A9518360C9855
:10164000314601F06BFD214604460846314601F063
:1016500065FD01460C20002CCED000290F9E0D9F69
:10166000CAD0129A1046813001785469A08F324650
:1016700001F068FD0546606B00020B9940185C495B
:1016800001F0F5FCC04328183E3001D44520B3E7F3
:101690001A9C11980C9B834209D10A9800900196DC
:1016A0000294129829463A4601F05AFDA4E70395A0
:1016B000129845694420295AB9420E9A07D2462009
:1016C0004C4A974298D100290E9A0F9E94D10894C3
:1016D00012984230099028463F302C4644340B94EF
:1016E0000690047804954C3507957F1C0D9205975C
:1016F00009980588BAB2462095424AD80B9A937841
:1017000008D1119D0C9A954243D2E2B2AA423D46BD
:101710000CD93EE00C9A93423BD3E2B2119EB24206
:1017200003D90C9A964234D26D1C0F9E8AB2ADB288
:10173000954202D1119883422DD00D98002802D0F5
:10174000462022461DE0079F38462946119E324614
:1017500001F078FD002800D04EE70F98009008981F
:1017600001903846294632460A9B01F07FFD0E90D3
:10177000FF2836D006980278002010990D910F9E10
:10178000059FD1B2E3B28B4203D00B980188144677
:10179000AEE70E9F15E00D9800280E9F07D0F8B217
:1017A0000C214143049840185221FF2343540A98C6
:1017B000009001960898029012980399119B01F0ED
:1017C000CFFC002800D117E70D99002900D113E7BD
:1017D000F9B20C224A43049989185222FF238B54F0
:1017E0000AE7072008E7C046FF0E0000511C04105E
:1017F00071020000FFFF000080B500F05BFA80BDC1
:10180000F8B50C46054600F0FFF9074601F04EFD1D
:101810000C4E304601F068FD0B49884208D101F0BA
:101820007FFDFF280BD0000239680818BE21465200
:10183000032130462A46234600F008F8F8BD01206F
:10184000F8BDC046FCFF0000FFFF0000FEB502939C
:1018500014460F46054600F0D7F906463048854243
:1018600001D11F2007E00120022100F0E3F9002848
:1018700000D0FEBD2B481221A04201D20846FEBD79
:101880000191284601F030FD000231680E18204613
:10189000314600F015FE0028EBD1CE20315C382017
:1018A000305C042F12D1002938D00028019A1BD0B7
:1018B0001B48854218D1F08D002815D0B820305A29
:1018C0001021014021431046D3D10FE03546383571
:1018D000002911D0032F09D102202870F48600209E
:1018E000B08602993163FEBD1046FEBDB636304665
:1018F00001F02CFD0020FEBD374628370028029A53
:1019000005D03968A120029A01F030FD029A3A60B0
:1019100001202870F4850020B085FEBD0198FEBD31
:10192000FCFF00007206000080B500F0BFF980BD2A
:10193000F8B50C46054600F067F9074601F0B6FC1D
:101940000B4E304601F0D0FC0A49884208D101F024
:10195000E7FCFF280AD0000239680818BE21465269
:1019600030462946224600F007F8F8BD0120F8BDB0
:10197000FCFF0000FFFF0000F8B514460D460746C7
:1019800000F042F906462148874201D11F2007E0B6
:101990000120022100F04EF9002800D0F8BD1C48BB
:1019A000A84201D21220F8BD384601F09DFC000289
:1019B00031680E182846314600F082FD0028EDD12E
:1019C000CE20305C002809D04C20022131544A201E
:1019D00035524821002070527464F8BD4C20305CB0
:1019E00032464C3237463C37002806D03968A120B1
:1019F0000092224601F0BAFC009A42203552402162
:101A0000002070523C6001211170F8BDFCFF000005
:101A10007206000080B500F042FB80BD002A05D0B0
:101A200003780B70521E491C401CF7E770471CB529
:101A300054087A2C01D912201CBD049C009401F09A
:101A4000CFFC1CBD1CB5FF2A04D0049C009401F0FF
:101A50000DFD1CBD12201CBD6A4A5160116008803A
:101A60001081002048804860704766490A689042AB
:101A700003D14068086070470A00002A04D051680A
:101A80008142F9D140685060704770B55D490A687D
:101A9000002825D0002A01D1020021E0904202D284
:101AA0004260020012E0140000E02C006568002D86
:101AB00001D0A842F9D24560606025886619864247
:101AC00004D1466866600688AD192580456804889B
:101AD0000319AB4204D16B6843602B88E318038081
:101AE0000A6070BD10B502000C001088011B8BB29B
:101AF0000D2B0CD320000838800880001018083007
:101B00000180002141804160FFF7BFFF200010BD30
:101B100038B500253B490968401E03240443641D71
:101B2000A4B209E00888A04205DB002D02D02A8873
:101B3000904200D20D0049680029F3D1002D0BD04E
:101B40002800FFF792FF21002800FFF7CBFF288035
:101B500001206880281D32BD002032BD002800D140
:101B6000704780B50021831E19800160001FFFF7B8
:101B70008CFF01BDF8B504000E00701E0321014367
:101B8000491D271F38888BB2984204D389B2380088
:101B9000FFF7A8FF1FE0091A6A461180001F80089E
:101BA0008000251817484168008980000818854280
:101BB00014D26888002811D128886946098888428B
:101BC0000CD32800FFF751FF684601882800FFF773
:101BD00089FF3988081838802000F2BD3000FFF7EF
:101BE00097FF05000BD03A88121F92B2964200DA96
:101BF0003200210001F068FC2000FFF7AFFF280051
:101C0000F2BD00005C330020024800689421405877
:101C10007047C0467433002010B50C4601F0ABFC91
:101C2000002804D02068C06F411E884110BD0020EC
:101C300010BDFEE7054A12683523D35C034201D08C
:101C40000C2070473532117000207047B4330020EB
:101C5000904201D8884201D212207047002070477C
:101C600030B58BB018AC24780A9417AC247809945A
:101C700016AC2478089415AC2478079414AC247816
:101C800006946D464C242C57059412AC2478049489
:101C9000119C039410AC247802940FAC2478019426
:101CA0000E9C009401F074FC0BB030BD80B501F0C7
:101CB0000DFD02BD80B501F02DFD02BD80B501F026
:101CC0004DFD02BD1CB56C46247C009401F0CCFD9A
:101CD00016BD80B501F014FE02BD80B501F046FED0
:101CE00002BD80B501F05AFE02BD80B501F0AEFE26
:101CF00002BD80B501F0E4FE02BD80B501F002FF37
:101D000001BD80B501F024FF01BD80B501F044FFA5
:101D100002BD80B501F054FF02BD80B501F0DCFFCB
:101D200001BD80B501F0FEFF01BD80B502F022F8D3
:101D300001BD80B502F025F801BD80B502F022F8A2
:101D400002BD80B502F038F802BD80B502F05DF842
:101D500002BD80B502F06AF802BD80B502F082F8DB
:101D600002BD80B502F0AAF802BD80B502F0CCF841
:101D700001BD80B502F0CEF802BD80B502F0F4F8E6
:101D800002BD80B502F020F901BD80B502F084F9F2
:101D900002BD80B502F082F902BD80B502F080F983
:101DA00002BD80B502F07EF902BD80B502F07CF97B
:101DB00002BD80B502F07AF902BD80B502F078F973
:101DC00002BD80B502F076F902BD80B502F074F96B
:101DD00002BD80B502F0C8F902BD80B502F0E0F99D
:101DE00002BD80B502F00CFA02BD80B502F024FA03
:101DF00002BD80B502F03CFA02BD80B502F078FA6F
:101E000002BD80B502F0BAFA02BD80B502F0E6FA72
:101E100002BD80B502F000FB02BD80B502F018FBE8
:101E200002BD80B502F032FB02BD80B502F044FB7A
:101E300002BD80B502F05EFB02BD80B502F070FB12
:101E400002BD80B502F088FB02BD80B502F0CAFB7E
:101E500002BD80B502F000FC02BD80B502F0FEFBC1
:101E600002BD80B502F0FCFB02BD80B502F00AFCA9
:101E700001BD80B502F01EFC01BD80B502F05AFC28
:101E800002BD80B502F058FC02BD80B502F0A6FC90
:101E900001BD80B502F06EFD01BD80B502F0A2FD6E
:101EA00002BD80B502F0F4FD02BD80B502F006FE71
:101EB00002BD80B502F072FE01BD80B502F05EFF8A
:101EC00002BD80B502F0D0FF01BD80B503F0F0F88F
:101ED00001BD80B503F02AF902BD80B503F07CF99D
:101EE00001BD1CB56C46247D01946C46247C009495
:101EF00003F0DCF913BD80B503F088FA01BD80B5AD
:101F000003F0CCFA02BD80B503F0FCFA02BD80B547
:101F100003F000FB01BD80B503F018FB01BD1FB548
:101F2000089C0294079C0194069C009403F02AFBF1
:101F300004B010BD1CB5059C0194049C009403F0F2
:101F40007FFC16BD1CB56C46247D01946C46247C38
:101F5000009403F0ABFD16BD80B503F009FE02BD91
:101F600080B503F007FE02BD80B503F005FE01BD9C
:101F700080B503F085FE02BD80B503F083FE02BD8F
:101F800080B504F09CF802BD80B504F09FF802BD56
:101F900080B504F0BBF901BD80B504F0D7F902BDEE
:101FA00080B504F0F9F901BD80B504F027FA02BD4F
:101FB00080B504F03FFA02BD80B504F0C1FA02BD5D
:101FC00080B504F0E1FA01BD80B504F0FFFA02BD6E
:101FD00080B504F023FB01BD80B504F0FBFC02BD1D
:101FE00080B504F011FD02BD80B504F02BFD02BDEB
:101FF0001CB5049C009404F069FD16BD80B504F086
:1020000001FE02BD80B504F031FE02BD80B504F0D2
:1020100055FE02BD80B504F0B1FE01BD80B504F0EF
:1020200009FF02BD80B504F028FF01BD80B504F0B2
:1020300045FF02BD80B504F07FFF02BD80B505F00D
:1020400003F802BD80B505F01CF801BD80B505F0B0
:1020500029F802BD80B505F03FF801BD80B505F057
:102060005BF801BD80B505F047F902BD1FB5099CBD
:102070000394089C0294079C0194069C009405F02C
:102080008DF904B010BD80B505F0BCF901BD80B577
:1020900005F0DEF901BD80B505F064FA01BD80B53B
:1020A00005F074FA02BD80B505F002FB02BD80B5F3
:1020B00005F098FC02BD80B505F0D4FC01BD80B5EB
:1020C00005F022FD02BD80B505F020FD02BD80B502
:1020D00005F042FD01BD80B505F0BAFD02BD80B539
:1020E00005F0EAFE02BD80B505F007FF01BD80B531
:1020F00005F00FFF01BD80B505F02EFF02BD80B5D4
:1021000005F02CFF01BD80B505F058FF01BD80B57D
:1021100005F070FF01BD1CB5049C009405F07EFF26
:1021200013BD80B506F03AF801BD80B506F00CF994
:1021300001BD80B506F010F901BD80B506F030F99B
:1021400002BD80B506F078F902BD80B506F0AEF9A3
:1021500001BD80B506F0B6F901BD80B506F0FCF909
:1021600001BD80B506F006FA01BD80B506F096FA0D
:1021700002BD80B506F094FA01BD80B506F0BAFA4A
:1021800001BD80B506F0D2FA01BD80B506F0E4FAD3
:1021900001BD80B506F0F8FA01BD80B506F00CFB74
:1021A00001BD80B506F012FB01BD80B506F03EFB17
:1021B00002BD80B506F07EFC01BD80B506F09CFC3A
:1021C00001BD80B506F0CCFC02BD80B506F0D0FCA8
:1021D00001BD80B506F0E8FC01BD80B506F0F8FC55
:1021E00001BD80B506F008FD01BD80B506F018FD03
:1021F00002BD80B506F03EFD01BD80B506F0B4FE1F
:1022000001BD80B506F0F6FE01BD1CB56C46247C10
:10221000009406F0FDFE13BD80B506F021FF01BD60
:1022200080B506F035FF01BD80B506F0A5FF02BD03
:1022300080B506F0BFFF02BD80B506F0D7FF02BD36
:1022400080B506F0FDFF02BD80B507F027F801BD9F
:1022500080B507F055F801BD80B507F085F801BDE0
:1022600080B507F089F801BD80B507F0D1F802BD4F
:1022700080B507F0D4F802BD1CB5059C01946C46EE
:10228000247C009407F0D2F816BD80B507F0C8F999
:1022900001BD80B507F012FA01BD80B507F066FAFE
:1022A00001BD80B507F0CEFA01BD80B507F012FB85
:1022B00001BD80B507F02AFB01BD80B507F096FB94
:1022C00002BD1CB56C46247C009407F0DAFB13BDFC
:1022D00080B507F019FC01BD80B507F047FC02BDD1
:1022E00080B507F075FC02BD80B507F084FC01BD28
:1022F00080B507F091FC01BD80B507F0A4FC02BDDC
:1023000080B507F0F9FC01BD1FB5099C0394089C3A
:1023100002946C46A48B0194069C009407F0F4FC94
:102320001FBD80B507F035FD01BD80B507F03CFD50
:1023300002BD80B507F04EFD01BD80B507F076FD0A
:1023400001BD80B507F082FD02BD80B507F0C5FD77
:1023500002BD80B507F0C4FD01BD80B507F0CEFD1C
:1023600001BD80B507F018FE01BD80B507F09EFEE7
:1023700001BD80B507F0A8FE01BD80B507F0FCFEE9
:1023800001BD80B507F052FF01BD80B507F056FFD3
:1023900001BD80B507F05AFF02BD80B507F0A2FF6E
:1023A00001BD80B507F0ADFF01BD80B507F0BEFFF0
:1023B00001BD80B508F034F801BD80B508F038F8EB
:1023C00001BD80B508F0C4F801BD80B508F0F0F893
:1023D00001BD80B508F011F901BD80B508F02AF9FA
:1023E00001BD80B508F05AF901BD80B508F078F953
:1023F00002BD80B508F08EF901BD80B508F00AFA7B
:1024000002BD80B508F004FB01BD80B508F008FBF3
:1024100002BD80B508F01AFB02BD80B508F018FBBC
:1024200001BD80B508F05EFB02BD80B508F09CFBE5
:1024300001BD80B508F0A0FB02BD80B508F0A6FB89
:1024400002BD80B508F0D2FB01BD80B508F048FCA4
:1024500001BD1CB56C46247C009408F07DFC13BDC6
:1024600080B508F0C1FC02BD80B508F0D5FC01BD07
:1024700080B508F0E1FC01BD80B508F01BFD01BD91
:1024800080B508F023FD01BD80B508F059FD02BDFF
:1024900080B508F067FD01BD80B508F0ABFD01BD5A
:1024A00080B508F0FDFD01BD80B508F033FE01BD2B
:1024B00080B508F06BFE01BD80B508F0A1FE02BD3D
:1024C00080B508F0D5FE02BD80B508F0E5FE01BD7F
:1024D00080B508F0A1FF02BD80B508F09FFF02BDE6
:1024E00080B508F0F5FF02BD80B509F049F802BDDE
:1024F00080B509F05FF802BD18B587B010AC24783C
:1025000006940FAC247805940EAC247804940DAC9A
:10251000247803940CAC247802940BAC24780194B6
:102520000AAC2478009409F0D1F808B010BD80B549
:1025300009F0FAF802BD80B509F03AF902BD80B59C
:1025400009F0E6F902BD80B509F0FCF901BD80B5DE
:1025500009F010FA01BD80B509F026FA01BD80B579
:1025600009F03AFA02BD80B509F05EFA01BD80B506
:1025700009F088FA01BD80B509F0A4FA01BD80B563
:1025800009F0EAFA01BD80B509F006FB02BD80B58D
:1025900009F01EFB02BD80B509F048FB02BD80B505
:1025A00009F066FB01BD80B509F09CFB01BD80B55B
:1025B00009F07AFC01BD80B509F08EFC01BD80B543
:1025C00009F0B2FC01BD80B509F0B2FC01BD80B5D7
:1025D00009F074FD02BD80B509F0C6FD02BD80B5ED
:1025E00009F0EEFD02BD80B509F022FE01BD80B507
:1025F00009F06EFE01BD80B509F0CEFE01BD80B5CB
:1026000009F0DCFE01BD80B509F0FAFE01BD80B520
:1026100009F01AFF01BD80B509F0D0FF01BD80B5FA
:1026200009F0E2FF02BD1FB56C46248C02946C4693
:10263000A48B01946C46248B009409F0D9FF04B05C
:1026400010BD1CB56C46A48A01946C46248A009483
:1026500009F0D9FF16BD1FB56C46248C02946C4658
:10266000A48B01946C46248B009409F0DEFF04B027
:1026700010BD80B509F0ECFF02BD80B509F0F0FF98
:1026800002BD80B50AF002F802BD80B50AF006F876
:1026900002BD10B588B011AC2488079410AC248812
:1026A00006946C46A48F05946C46248F04946C4663
:1026B000A48E03946C46248E02940B9C01940AAC65
:1026C0002478009409F0FAFF08B010BD80B50AF034
:1026D0003BF802BD80B50AF071F802BD80B50AF082
:1026E00085F802BD1FB508AC247802946C46247F9F
:1026F00001946C46247E00940AF080F804B010BD6A
:1027000080B50AF0BFF802BD80B50AF0C8F802BD76
:1027100080B50AF0CDF802BD80B50AF0D5F802BD4B
:102720001CB5049C00940AF0D7F816BD1CB5059C96
:1027300001946C46247C00940AF0D8F816BD80B54C
:102740000AF0E7F802BD80B50AF0EBF802BD80B5EB
:102750000AF0ECF802BD80B50AF0EDF802BD80B5D4
:102760000AF0F3F802BD80B50AF0FDF802BD80B5AD
:102770000AF004F902BD80B50AF004F902BD80B583
:102780000AF004F902BD80B50AF004F902BD80B573
:102790000AF004F902BD80B50AF004F902BD80B563
:1027A0000AF004F902BD80B50AF004F902BD80B553
:1027B0000AF004F902BD80B50AF004F902BD80B543
:1027C0000AF004F902BD1CB5059C01946C46248AEC
:1027D00000940AF0FFF816BD1CB5049C00940AF0A2
:1027E00008F916BD1CB5059C01946C46248A00941A
:1027F0000AF005F916BD80B50AF00AF902BD80B5E8
:102800000AF00EF902BD80B50AF00EF902BD80B5DE
:102810000AF00EF902BD80B50AF018F902BD80B5C4
:102820000AF018F902BD80B50AF018F902BD80B5AA
:102830000AF025F902BD1CB5059C01946C46247C68
:1028400000940AF027F916BD80B50AF03FF902BDE1
:1028500080B50AF041F902BD80B50AF048F902BD21
:1028600080B50AF04CF902BD1CB5059C01946C467C
:10287000247C00940AF04BF916BD80B50AF063F988
:1028800002BD80B50AF06FF902BD1CB5049C00942E
:102890000AF079F916BD80B50AF084F902BD1CB5BD
:1028A000049C00940AF08CF916BD80B50AF097F9E3
:1028B00002BD80B50AF0A3F902BD1CB5059C0194C8
:1028C0006C46248A00940AF0B4F916BD80B50AF06B
:1028D000C1F902BD80B50AF0C5F902BD80B50AF0A4
:1028E000C5F902BD80B50AF0D9F902BD3EB56C4606
:1028F000247F01946D4618242C5700940AF0D2F9D5
:102900003EBD1CB56C46248A00940AF0D3F916BD6E
:1029100018B585B00CAC247804940BAC24780394DF
:102920006C46248D02946C46A48C01946C46248CD5
:1029300000940AF0CCF906B010BD1CB56C46247D9D
:1029400001946C46247C00940AF0D4F916BD1FB59E
:10295000089C02946C46247F01946C46248B00945E
:102960000AF0F8F904B010BD1CB5049C00940AF0FC
:1029700045FA16BD80B50AF047FA02BD1CB5049CA5
:1029800000940AF045FA16BD80B50AF053FA02BD6C
:1029900080B50AF05AFA02BD1CB5049C00940AF0F6
:1029A00058FA16BD80B50AF05AFA02BD10B58CB0BF
:1029B000199C0B9418AC24780A9417AC24780994C9
:1029C00016AC2478089415AC2478079414AC2478B9
:1029D000069413AC2478059412AC2478049411ACBA
:1029E0002488039410AC248802940FAC24780194BA
:1029F0006C46248F00940AF03FFA0CB010BD1FB54E
:102A0000099C039408AC247802946C46A48B01942E
:102A10006C46247E00940AF057FA04B010BD80B5CD
:102A20000AF066FA02BD80B50AF066FA02BD10B57A
:102A300088B0119C079410AC247806940FAC2478CD
:102A400005940EAC247804940DAC247803940CAC5B
:102A5000247802946C46A48D01946C46248D0094D5
:102A60000AF04EFA08B010BD80B50AF065FA02BD52
:102A700080B50AF065FA02BD80B50AF065FA02BDBC
:102A800018B587B0109C06940F9C05940EAC247862
:102A900004946C46A48E03946C46248E02940BAC72
:102AA000247801940AAC247800940AF051FA08B012
:102AB00010BD10B588B0119C0794109C06940FAC03
:102AC000247805940EAC247804940DAC24780394F7
:102AD0000CAC247802946C46A48D01940AAC247842
:102AE00000940AF0ABFA08B010BD80B50AF032FBD2
:102AF00002BD80B50AF058FB02BD80B50AF058FB54
:102B000002BD80B50AF058FB02BD80B50AF058FB43
:102B100002BD80B50AF064FB02BD80B50AF076FB09
:102B200002BD80B50AF020FC02BD80B50AF052FC5F
:102B300002BD80B50AF054FC02BD80B50AF05FFC0E
:102B400002BD80B50AF066FC02BD80B50AF066FCE5
:102B500002BD10B588B011AC2488079410AC24884D
:102B600006946C46A48F05946C46248F04946C469E
:102B7000A48E03946C46248E02940BAC24780194AA
:102B80000A9C00940AF056FC08B010BD80B50AF00B
:102B900084FC02BD1CB5059C01946C46247C009409
:102BA0000AF07FFC16BD1FB5099C039408AC24787D
:102BB0000294079C01946C46247E00940AF08BFCDE
:102BC00004B010BD1CB5059C01946C46247C009497
:102BD0000AF0CEFC16BD80B50AF0D2FC02BD1CB5D1
:102BE000059C01946C46247C00940AF0CDFC16BD33
:102BF0001CB5049C00940AF0CFFC16BD80B50AF009
:102C0000D1FC02BD1CB56C46247C00940AF0CEFCBD
:102C100016BD80B50AF0D0FC02BD80B50AF0D0FC2C
:102C200002BD80B50AF0D0FC02BD80B50AF0EAFC16
:102C300002BD80B50AF0F5FC02BD80B50AF000FDCA
:102C400002BD80B50AF018FD02BD80B50AF03AFD5C
:102C500002BD80B50AF03AFD02BD38B58CB01B9CB0
:102C60000B941AAC24780A9419AC2478099418AC03
:102C70002478089417AC2478079416AC247806942A
:102C80006D4654242C57059414AC24780494139C5A
:102C9000039412AC2478029411AC2478019410AC03
:102CA000247800940AF016FD0DB030BD38B58EB012
:102CB0001F9C0D941EAC24780C941DAC24780B94AE
:102CC0001CAC24780A941BAC247809941AAC2478A0
:102CD000089419AC2478079418AC247806946D46AF
:102CE0005C242C57059416AC24780494159C03940A
:102CF00014AC2478029413AC2478019412AC247898
:102D000000940AF009FD0FB030BD80B50AF0B8FD9F
:102D100002BD80B50AF0B8FD02BD80B50AF002FE22
:102D200002BD80B50AF00CFE02BD80B50AF015FEAA
:102D300002BD80B50AF01CFE02BD80B50AF01CFE83
:102D400002BD80B50AF01CFE02BD80B50AF020FE6F
:102D500002BD1FB5089C02946C46247F0194069C1A
:102D600000940AF01DFE04B010BD80B50AF02AFEE2
:102D700002BD1FB5099C0394089C0294079C019412
:102D8000069C00940AF022FE04B010BD80B50AF043
:102D90002AFE02BD1CB5049C00940AF028FE16BD54
:102DA00080B50AF02AFE02BD80B50AF02CFE02BDF5
:102DB00080B50AF02CFE02BD80B50AF02CFE02BDE3
:102DC00080B50AF02CFE02BD80B50AF041FE02BDBE
:102DD00018B585B00CAC247804940BAC247803941B
:102DE0000AAC2478029409AC2478019408AC2478C5
:102DF00000940AF04BFE06B010BD80B50AF0C8FE84
:102E000002BD80B50AF0D8FE02BD80B50AF0DAFE38
:102E100002BD1CB56C46247C00940AF0E9FE16BD88
:102E200080B50AF0F0FE02BD80B50AF0F0FE02BDEA
:102E30001CB56C46A48A01946C46247C00940AF06C
:102E4000EAFE16BD80B50AF0EEFE02BD80B50AF0BE
:102E5000EEFE02BD80B50AF0EEFE02BD80B50AF0BE
:102E6000F3FE02BD1CB56C46248A00940AF0F0FE05
:102E700016BD80B50AF0F8FE02BD80B50AF016FF57
:102E800002BD80B50AF021FF02BD80B50AF021FF26
:102E900002BD80B50AF024FF02BD80B50AF032FF02
:102EA00002BD80B50AF040FF02BD80B50AF044FFC4
:102EB00002BD80B50AF04BFF02BD80B50AF052FF9B
:102EC00002BD80B50AF05AFF02BD80B50AF067FF67
:102ED00002BD1FB508AC247802946C46A48B019403
:102EE0006C46248B00940AF065FF04B010BD80B5D9
:102EF0000AF079FF02BD80B50AF080FF02BD80B5FF
:102F00000AF089FF02BD80B50AF093FF02BD80B5CB
:102F10000AF0A0FF02BD80B50AF0ABFF02BD80B58C
:102F20000AF0BAFF02BD1CB56C46247C00940AF07E
:102F3000B7FF16BD80B50AF0CCFF02BD80B50AF020
:102F4000DDFF02BD80B50AF0EEFF02BD1FB56C4685
:102F5000248C02946C46A48B01946C46248B0094C0
:102F60000AF0F7FF04B010BD1CB56C46248A00942B
:102F70000AF0FAFF16BD1CB56C46A48A01946C4693
:102F8000248A00940AF0F6FF16BD80B50AF0FAFF15
:102F900002BD1FB5099C039408AC247802946C46CA
:102FA000247F01946C46247E00940BF002F804B058
:102FB00010BD80B50BF01CF802BD1FB5099C039431
:102FC00008AC247802946C46247F01946C46247EDD
:102FD00000940BF026F804B010BD30B585B06D46F6
:102FE00030242C5704940B9C03940AAC247802944C
:102FF00009AC2478019408AC247800940BF033F8E1
:1030000005B030BD0B490968942289584968896B1D
:10301000096809688C39084A927F521C521E05D0F3
:10302000D623CB5A8C318342F8D100E000210846E8
:103030007047C0467433002068320020F4460028F0
:1030400004D4494200F013F840426047404200294E
:1030500005D45FD000F00BF8404249426047494236
:1030600000F005F84942604703460B43E6D40022CE
:10307000030A8B420BD203098B4219D243088B42BD
:103080002ED2411A00D20146524110467047FF220B
:1030900009023FD012068B4205D3121209028B425D
:1030A00001D31212090203098B4219D300E0090A65
:1030B000C3098B4201D3CB01C01A524183098B4211
:1030C00001D38B01C01A524143098B4201D34B01FA
:1030D000C01A524103098B4201D30B01C01A52415D
:1030E000C3088B4201D3CB00C01A524183088B42E4
:1030F00001D38B00C01A524143088B4201D34B00CD
:10310000C01A5241884200D3401A5241CFD20146E0
:103110001046704708B50AF0C9FF08BD202801D243
:10312000002209E0602801D3032200E002224028A7
:1031300000D201221F23184092008958C14001206B
:103140000840704780B50B46400601D5032000E0DB
:1031500001208018C1B2002218460AF0A9FF80BDE4
:10316000F0B58FB01D4616460D91074644690E9482
:103170004C34204611461A4600F064F8002854D119
:103180000A9409950897149D0E9C206B616B694306
:10319000081800022721C90040182549FFF767FFDA
:1031A0000C90206C0B900BF03BF807460BF05AF894
:1031B000C0190C990B9A8F18F943411846203231E7
:1031C00033D50C95214644310A88B2422DD18B78F3
:1031D0003146099A93420A9E27D12546AC34169867
:1031E000159B0093019030460C9B00F03FF86070F7
:1031F000FF2819D02078E96A0E4A07920E4A0692F3
:103200000E4A05920E4A04920A22039202920197F4
:1032100000918D2208990D9B0BF02AF821783846F1
:103220000BF062F8002000E007200FB0F0BDC046B0
:103230007102000019040810AD300810710A08105E
:10324000D5300810B0B55F23DB43002B0AD0C4187B
:103250006425655B8D4203D16625645D944203D08D
:103260000C33F2E70020B0BD0C20B0BDFCB50092DD
:1032700001910025089F079A2C46602D06D046191B
:10328000B179FF2904D00C35641CF6E7FF240AE06D
:10329000EFF3108172B647513272F3710098B0713A
:1032A0000198B08062B6E0B2FCBDFEE71FB50C48E5
:1032B00000F01AF80B49884210D16C4600212172A7
:1032C0000120C00220800720000201902046093022
:1032D00006220AF006FF20460BF016F81FBDC04676
:1032E000FCFF0000FFFF000070B50446FEF78CFCF9
:1032F0004D21415C094D0022BE2391420BD006684E
:10330000F65AA642164600D02E4601252D025B191C
:10331000521C3546F1E7A8B270BDC046FFFF000061
:1033200010B5FEF771FC4D21425C0021BE238A429C
:1033300008D00468E45A240B05D1012424021B1987
:10334000491CF4E7FF21C8B210BDFEE710B50446E2
:1033500000200BF047F8044901402088401A4242FF
:1033600042414A40228010BDFF0F0000F8B50446DC
:10337000C0062DD416460D46184800686107C90ED0
:10338000401800694122042321460BF033F800283D
:1033900020D001460A300671057000274F721022B6
:1033A0000A72CF710A228A71FF224A7182220A713F
:1033B000320EC271320C8271320A42712A0EC27010
:1033C0002A0C82702A0A427020460BF073F802E041
:1033D000862700E007273846F8BDC046B8330020EE
:1033E000F0B5CFB01E4614460F4605460120010237
:1033F00009A8FEF7AFF8002C33D054980890079531
:103400000025284606950BF062F805964DAE307003
:10341000010EF170010CB170000A707028460BF0BB
:1034200056F83071049449AD304639462A460BF0BF
:1034300054F809AF059800A991C10B4A01230798D8
:1034400029460BF058F80522089C204631460AF020
:1034500044FE601D04990A1D39460AF03EFE069896
:1034600000E012204FB0F0BD51050020F0B5CBB008
:103470000A2A24D31F4616460D465099059101216C
:103480000691090207AC04902046FEF763F847AAAC
:103490000392384629460BF020F8781D751F214607
:1034A0002A46FEF7BBFAA8B2009401900598029054
:1034B000044A04980399069B0BF037F800E0862035
:1034C0004BB0F0BD510500208B0707D0521E22D310
:1034D0000B78491C0370401C8B07F7D1830730D051
:1034E000DB4219D0401E121F08D308C943701B0AC3
:1034F00043801B0C0371001D121FF6D2D20707D3A5
:103500000B88437001D08A78C2701B0A83707047A1
:1035100001D00B7843707047121F06D308C903808F
:103520001B0C4380001D121FF8D2D20705D30B8855
:10353000038005D08B788370704701D00B780370BF
:10354000704770B4103A03D378C978C0103AFBD2F0
:10355000530701D318C918C001D508C908C0D2073C
:1035600004D30B880380801C891C002A01D50B78AA
:10357000037070BC7047002807D0006D002804D08D
:10358000406D0860411E8841704700200860704708
:10359000F0B59FB0154604461E93020912200E2A6C
:1035A00000D98DE02026032903D02A46324000D0DE
:1035B00086E01B911DAF204639460AF0DFFF3978BF
:1035C0004048807E81422DD268003040AA00082306
:1035D00013401B18142048433B490968496D0F18D4
:1035E0007B707A1C6E070F97109107D510261E432B
:1035F00016702F0703D55026334313701E462A99A1
:10360000EB0702D001231E4316702C9E04270329CA
:103610000B4616900E9707D0042B1B9907D1032356
:10362000119306E087204BE011971B9901E00027DA
:1036300011972E9814902D9813902B9F299A1992D8
:10364000289A279817902698159025981290032E5F
:103650001B931A97189205D0042E169806D10327AB
:103660003E4604E00E9F109A169801E00027109A3B
:1036700011540AF0A1FF1CA90896139A0992149AF2
:103680000A92119A0B920C970D9112990091019048
:10369000159802901798039018980490199805901F
:1036A0001B9806901A9807901EAA24AB204629461C
:1036B0000AF032F8002803D10F9A94740121117492
:1036C0001FB0F0BD68320020BC3300207CB5064638
:1036D00000090E2801D912207CBD14460D46304643
:1036E000FEF74AF9002800D07CBD01A930460AF057
:1036F00045FF0028EFD001A8007814214143044879
:103700000068406D4018C581846000207CBDC046C3
:10371000BC3300207CB5064600090E2801D91220D2
:103720007CBD1C4615463046FEF790F8002800D0B8
:103730007CBD01A930460AF021FF0028EFD001A886
:1037400000781421414304480068406D4018858189
:10375000446000207CBDC046BC330020F0B585B07D
:1037600005463F48807E884201D2122774E0164603
:103770000C463C480068406D0290012D019514D123
:103780000394641C3546641E12D0287804A90AF0FC
:10379000F5FE00283ED0AD1D04A8017801200AF0F6
:1037A0001FFF0028EFD0074656E00C20009004E0F1
:1037B0000AF070FF0090019D039C28462146324686
:1037C0000AF062F80746002846D1002C24D0002CCD
:1037D00034D00394307804A90AF0D0FE3079002860
:1037E00002D17088002813D0022404A80778012190
:1037F00028463A460AF06CFF002D00D12C461420D2
:103800007843029908184474B61D039C641EDEE7D1
:103810000124EAE7D3271FE0029E11360024104F4F
:10382000B87E84420AD2E2B20025012128460AF07D
:103830004FFF3570019D1436641CF1E7012D08D14E
:103840000098002807D10027384639460AF0A0FF23
:1038500002E00AF0C5FF0027384605B0F0BDC046BB
:1038600068320020BC330020F0B599B00393049275
:103870000591069020480068014630311791169155
:1038800001463C311391816B1891C16C006D14910C
:1038900015901E98097B012901D1022108430021BE
:1038A00016A60F460C291ED03278024218D016AA4E
:1038B00052581388FCB2240107AD2B532B195288A0
:1038C0005A8013AA525814889C805488DC809488AB
:1038D0001C81D4885C8114899C815289DA817F1C87
:1038E000761C091DDEE707A90090019103AB0FCB01
:1038F00009F0D7FD19B0F0BDBC330020010204006F
:10390000F0B587B00A46019016490868034630337F
:1039100005930090836B0693002305AC1E46022B93
:1039200013D011A0C75C17420CD0F7B2062179431F
:103930002768387902AD68546818398841807988D9
:103940008180761C241D5B1CE9E729200099095C15
:1039500002AB01980AF0D2FA122800D1D12007B0A8
:10396000F0BDC046BC33002001040000B0B50546E0
:10397000002213460AF0D7FA0446002D06D1064865
:103980000068C06A00211C220AF0ABFB122C01D196
:103990002E20C443E0B2B0BDBC330020F0B585B0EA
:1039A0000293039204910746274804680AF004FE34
:1039B00005465E2000210191215426465D363806D9
:1039C000800F0DD03078C006800F05D00020014652
:1039D000FEF783F9002835D104980090002322E0F7
:1039E00078071DD4F806810F29D02834002804D583
:1039F000607802210143032923D1380704D5607878
:103A00000221014302291CD10AF0D6FD0499FEF7D8
:103A100060F9002816D121780120FEF75EF907E051
:103A2000049800900123029803992A46FEF74AF968
:103A3000002807D1307838433070019802E0122016
:103A400000E0D12005B0F0BDBC330020F8B504463D
:103A50001220002C16D0611E0C4213D1174E37686D
:103A60005D20385C20420ED0C4210C420DD009F0FC
:103A700014FDA10706D0002804D1306802210AF005
:103A8000CDFE0020F8BD0C20F8BDE106890F01D065
:103A90004006ECD4002528462946FEF71EF90028EA
:103AA000E7D15D3769464D700C703D7002200AF019
:103AB000D7FE0AF095FE2846DBE7C046BC3300205F
:103AC00010B586B001AC08A114222046FDF734FDE4
:103AD0000A4800687221405A009404210122084BD0
:103AE0000AF020FF06B010BDFB349B5F8000008011
:103AF00000100000002A000010000000BC3300206D
:103B0000FFFF00001CB511480468FEF7F2F8882892
:103B100007D00C2805D05D34002808D10220607041
:103B20001CBD05200AF012FF0AF062FF1CBD002038
:103B3000607020787F210140217001A986204870A3
:103B40008020087002200AF08BFE1CBDBC330020D0
:103B5000BCB5104A14685D22A25C00280AD18020FE
:103B6000104007D07234218005200AF0EFFE0AF0E1
:103B70003FFF0CE0DC2002420BD05D3401A90025A0
:103B80004D7002400A7002200AF06AFE25700AF0A9
:103B900027FEBCBDBC330020012903D101890120CF
:103BA0000840704708214056042802D802A1085C4A
:103BB000704700207047C04601010000010000006E
:103BC000F0B587B001291AD1034608331F880126B2
:103BD0003A077CD402910193817A03460B33046A3D
:103BE000C57FF8060493039114D4002218460AF006
:103BF000CDFF01285DD0002802990CD067E0027A41
:103C0000042A01D1012662E04469057C0020049069
:103C1000039000E002992F4800680127BAB20026FD
:103C2000AA421BD213195B1E1B78002B16D0A25C74
:103C30007F1C012A01D0FF18F0E75D22825CD307C8
:103C400008D192070AD5BAB2A25C03261640721EAA
:103C5000964103E0BAB2A25C01261640012936D192
:103C6000002E24D00199098870220A40202AC9D147
:103C70000026F443C06AC71F032C28D005A90020E2
:103C8000887188800590FF1D072238460AF030FAB7
:103C90000006641C0028EFD1032C0AD806223846FF
:103CA000049C21460AF019FA0399B97103E0002631
:103CB0000DE0049C039901980088202202404032C4
:103CC000402A9FD10126204632460AF05FFF304647
:103CD00007B0F0BDBC3300201CB5114804680020BB
:103CE0000146FDF7FAFF01A948705D20205CC1077D
:103CF0005D34002905D001A901220A70FE21084087
:103D00002070810705D501A902220A70FD21084013
:103D10002070022001A90AF0A3FD0AF061FD1CBD7C
:103D2000BC330020BCB511480068446DFEF7D0FBE1
:103D3000002802D00E48807E00E00120C5B2113478
:103D4000002D11D0207800280BD020460F380078A5
:103D5000800706D560786A46107000200121FDF7C3
:103D6000ADFF14346D1EEBE7BCBDC046BC33002074
:103D70006832002080B508460AF030FF0AF030FDB6
:103D800080BD7047B0B50C4605460A4800685A2108
:103D9000405A09F0D1FF01200AF088FF002801D025
:103DA0008620B0BD28782021014329700920207089
:103DB0000020B0BDBC33002070B588B014460D465D
:103DC0000646C00705D0284621460AF083FF002892
:103DD00019D1B00701D4002015E004AA20462946D5
:103DE0000AF08DFF002804D004A8002110220AF058
:103DF00078F96E4630460AF095FF04AA2846214617
:103E0000334609F031FF08B070BD10B50446C00755
:103E100004D00AF097FF002800D010BDA00701D4FD
:103E2000002010BD09F051FF10BDFEE7F8B50446B3
:103E300000200090C64309480068476D1237084DBE
:103E4000761CA87E864207D238781437214609F0BE
:103E500017FD0028F4D0F8BD0098F8BDBC33002051
:103E600068320020F0B58DB00BA8002484800B943C
:103E7000104D114E2746A87E874218D200220A9282
:103E800001200890079206907F20059004920BA8CD
:103E900003900292072001900096F8B20990022147
:103EA0002023FFF775FB7F1C0028E4D000E02046AC
:103EB0000DB0F0BD68320020FFFFFF00FEB50446E4
:103EC0000F4DA87E0F4909684E6D113600270097E7
:103ED000C1B28F4212D2317801290CD101AA00203F
:103EE00010715080707810700121204609F0CCFCD0
:103EF000002804D1A87E14367F1CE9E70098FEBD97
:103F000068320020BC33002080B50120FFF7D6FFC7
:103F100080BDFEE7B0B5096883240022002912D0D5
:103F2000CD690024CC61087AC00603D400200AF0D1
:103F30000DFF02E008460AF043FF0122002829464F
:103F4000ECD083240CE0D0070AD0EFF3108072B6D7
:103F5000044800688921425C521E425462B6002423
:103F6000E0B2B0BD7433002010B50C68207BC007F0
:103F700008D00021012220460AF030FF207BFE21DC
:103F8000014021730E4800682C21405CC00703D11A
:103F900020460AF036FF02E020460AF0C1FF002862
:103FA00001D0832010BDEFF3108072B60548006881
:103FB0008821425C521E425462B6002010BDC046A9
:103FC000B433002074330020F8B5002420460AF0F2
:103FD000DBFF054601222F4B27460092186834214B
:103FE000405C84424FD22C20285CFE2101400229F3
:103FF0003DD119200601A85B80060CD5698F0020F1
:104000000AF0D0FF3A28009A10462ED0A81901884D
:104010002022914301802846FEF76EF90028009A7D
:10402000104622D12846FEF75FFA009A0028104673
:104030001BD1E6B23046FEF778F9009A0028104608
:1040400013D13046FEF77DF9009A002810460CD1B6
:104050002846FEF79EF9009A0028104605D1304602
:10406000FEF7CBF9009A411E88410A4B00E0002080
:10407000411E88413906174600D107463320C0004B
:104080002D18641CAAE7380603D0122001210AF07B
:10409000C5FFF8BDB43300200120704703207047EE
:1040A00001207047012070470120704701207047B0
:1040B0000120704701207047F0B54278002A30D0C7
:1040C00001460078022801D90C20F0BD1220022AF6
:1040D00004D3142A02D88E78022E00D9F0BD4B7971
:1040E000012B07D124231F4CE55C1123092D16D287
:1040F0001846F0BD002E14D009790229EED34B29C1
:10410000ECD82320174A125C4B2A104600D34B20D0
:10411000022A00D20020884203D21120F0BD002ED6
:1041200001D00020F0BDCE78771E012FD6D80979B6
:104130000229D3D34B29D1D8522D00D35225083D83
:104140006E43B01D80088242D2D82320225C4B2AC5
:10415000104600D34B20022A00D200208842184685
:10416000BCD3DEE76832002070B50B4C0125042279
:10417000204629460AF068FF084E30600622204695
:1041800029460AF061FF3168086030680168002044
:1041900088804880087070BD64320020B0330020F1
:1041A000B0B50D46044608794979090208180AF0A5
:1041B0005DFF28796979090208180AF097FF2879C4
:1041C0006979090208180AF0BFFF0AF0E7FF2879A9
:1041D0006979090208180AF0E3FF084800683621E7
:1041E000405CC00601D40020B0BD1520E070A0786E
:1041F000BF210140A1708420B0BDC04674330020AF
:1042000010B5044608794A7912021218C9780620B6
:104210000AF0E8FF0748006836214056002801D41C
:10422000002010BD1620E070A078BF210140A170D1
:10423000842010BD7433002010B5044608794A79F3
:1042400012021218C97807200AF0CCFF074800684C
:104250003B214056002801D4002010BD1720E070FB
:10426000A078BF210140A170842010BD74330020CC
:10427000B0B50D460446087900281DD16879A979A2
:10428000090208180BF028F86879A97909020818BA
:104290002A7AE9792B4609330BF042F86879A97933
:1042A000090208180BF056F86879A979090208186C
:1042B000E9790BF06FF828796979AA791202511817
:1042C000EA790BF076F8094801683D200A5C002085
:1042D00092060AD53D31497AC90706D01820E07008
:1042E000A078BF210140A1708420B0BD74330020AC
:1042F000FEB50D4604460879002823D16879A979CE
:10430000090208180AF0E8FF2A7AE9796879AB7996
:104310002E4615362F460F37009701961B021818A8
:104320002B4609330BF04FF86879A9790902081870
:104330000BF010F86879A97909020818E9790BF0EF
:1043400029F828796979AA7912025118EA790BF0CB
:1043500030F8094801683D200A5C002092060AD521
:104360003D31897A890706D51C20E070A078BF21ED
:104370000140A1708420FEBD7433002070B5044656
:10438000144D28683626805D00280ED108794A79B8
:10439000120210188A7BCB7B1B029A18891D0BF026
:1043A00039F82868805D002812D00B4801683D204C
:1043B0000A5C002092060AD53D31497AC90606D525
:1043C0001920E070A078BF210140A170842070BD49
:1043D000002070BDB43300207433002010B50446B3
:1043E0000879491DFDF741FD0A4801683D200A5C36
:1043F0000020920604D53D3109228956002900D4B7
:1044000010BD1A20E070A078BF210140A170842067
:1044100010BDC0467433002010B504460879491D0C
:10442000FDF727FD094801683D200A5C002092063F
:104430000AD53D31897AC90706D01B20E070A078E3
:10444000BF210140A170842010BDC04674330020FC
:10445000B0B505460024084621460BF05BF800285D
:1044600010D0094800683D21415C89060AD53D30DD
:10447000407A800706D50020E870A878BF21014067
:10448000A97084242046B0BD7433002009490A680D
:104490003D21535C00219B060AD53D32927A52079A
:1044A00006D51D21C1708178BF220A408270842107
:1044B0000846704774330020B0B50446012508460D
:1044C00029460BF027F80146002000290FD00849A3
:1044D00009683D228A5C920609D53D31897AC90670
:1044E00005D5E570A078BF210140A1708420B0BD42
:1044F0007433002009490A683D21535C00219B0662
:104500000AD53D32D27AD20706D01E21C1708178F9
:10451000BF220A408270842108467047743300200D
:1045200010B504464A7908791146FDF7FEFB0948A3
:1045300001683D200A5C002092060AD53D31C97A07
:10454000890706D51F20E070A078BF210140A17027
:10455000842010BD74330020FEB50D460446087952
:10456000002823D16879A979090208180AF0B4FE55
:104570002A7AE9796879AB792E4615362F460F37B6
:10458000009701961B0218182B4609330AF01BFFEF
:104590006879A979090208180AF0DCFE6879A97916
:1045A00009020818E9790AF0F5FE28796979AA79EB
:1045B00012025118EA790AF0FCFE094801683D2010
:1045C0000A5C002092060AD53D31897BC90706D0D6
:1045D0002020E070A078BF210140A1708420FEBDA2
:1045E00074330020F8B5184C01250422174E2046DC
:1045F0002946B047164F3860102220462946B0475A
:10460000396808600C2220462946B0473968096895
:10461000C860104DE98924222046B0470146386819
:104620000268D06881600021082903D0002353521A
:10463000891CF9E7E989D18000211181E98941804C
:104640000AF082FFF8BDC0466432002049F0041031
:10465000D0330020683200200C20704701207047C2
:10466000B0B50546002420460AF08AFF002801D094
:104670000C2404E0012D02D10120FDF780FF20462B
:10468000B0BDFEE7B0B50A4A12684223D45C7F256C
:104690002540D554002802D00AF092FFB0BD08464C
:1046A0000AF0AAFF0E200AF051F90AF0A1F9B0BDF4
:1046B000D433002070B51D4E32684225535DDB06B1
:1046C00028D5002816D0A432194800683421405C4F
:1046D00070214143002399421CD01068002807D064
:1046E000C0180489002C03D017240457002C12D4BE
:1046F0007033F0E74920800010182024224609F08A
:10470000ECFC3068415D214341550E200AF01EF952
:104710000AF06EF970BD0B21002201230AF07EFF22
:104720003068415DCF220A40425570BDD43300202D
:10473000B433002001207047F8B52226254B995D3F
:104740008620402902D81A7B8A4200D9F8BD224D22
:1047500028683022815430300024447034224A4387
:10476000406821461F4609F0BCFCB95D28680A2252
:10477000A14206D0436B671C40349C5234323C4605
:10478000F6E738300AF060FF286840300AF05CFF36
:10479000296800200A4654320B464C33C8640B6526
:1047A00048658A650B4A925D52000346DCB2A2421C
:1047B000CCD92401896C09190026CE6029688E6C39
:1047C0003619096D0E6029688E6C34190C340C652D
:1047D0005B1CEBE768320020CC330020F0B587B0DB
:1047E0000027604E604B05972220305C874200D343
:1047F000B6E034247C431A68556B2819C178002927
:1048000000D1ABE00379002B00D192E0192B0CD042
:104810002E5B4589072B38D0162B75D0062B7FD100
:10482000304629460AF014FF79E05E2978D10297D4
:10483000156C00200590012003904B4B002D7AD081
:104840002E461868406B005BED6931888142F5D1D6
:104850000021304604910AF07DFF074602213046D0
:104860000AF078FF404B1968496B09190A8A90428F
:10487000E4D1488B8742E1D903200AF067F80AF0B7
:10488000B7F8842005900498D6E7D02948D141791B
:1048900030462A460AF06EFF0590002843D133487F
:1048A00000685521405C80071FD531480068806949
:1048B00042214E22032309F09DFD002815D0014618
:1048C0000573867208204872042008720020C8719F
:1048D00006208871FF20487182200871280A4873D9
:1048E000300AC872422009F0E5FD1F480068406B9D
:1048F00000198178090728D50089272825D1304655
:1049000029460AF09BFF20E0112909D12021435CB0
:10491000C28806A80090304629460AF0B5FF0590E7
:104920000598002811D001200AF010F80AF060F86C
:104930000C4E0D4B12E00398C007029FF3D00A48BB
:104940000068406B00195F21C170074B1868406B0D
:1049500000190021C18005910171024E7F1C43E7BF
:1049600007B0F0BD68320020CC3300207433002043
:10497000B8330020F8B50446222018490090085C9E
:1049800000270326164DC1B28F4212D22968496B07
:104990008A19D21E1288A24208D1895D002905D049
:1049A000F8B20AF0FBFF00980C49085C34367F1C13
:1049B000E9E710200125002621462A4633460BF060
:1049C00015F8202021462A4633460BF00FF82046E2
:1049D000294632460BF036F8F8BDC0466832002052
:1049E000CC330020F8B501460079274AD27A9042AC
:1049F00022D209684A68137A9E1F0024142E1CD8FC
:104A0000537A14224243214D2D68ED6AAD180A886D
:104A10007E4436797600B7440A1210101010101038
:104A200010101010101015191C20262B31002846CC
:104A30000BF058F8044600E002242046F8BD0BF0C5
:104A4000BFF8FAE728460BF021F9F6E70BF0E0F99A
:104A5000F3E728460BF074FAEFE700931723284694
:104A60000BF0ECFAE9E7009318230BF041FCE4E7C4
:104A70000093192328460BF077FDDEE700931A23F5
:104A80000BF08CFED9E7C04668320020CC33002002
:104A9000801FC1B2142903D840B202A1085C70473C
:104AA000002070470101000000000000000000002D
:104AB000000001010101010101000000F8B50178C9
:104AC0004468012921D000295FD1258820460BF0B8
:104AD000D3FE29460BF0D6FE22212E4A515C884295
:104AE00053D2217ADF220A402272342141432A48DC
:104AF0000068406B4018C17F80220A43C2770420BF
:104B000009F024FF09F074FF42E0668825882846F2
:104B10000BF0D6FE0746022120460AF01BFE009647
:104B2000002E32D0002F30D01122064629460BF03D
:104B3000E3FE2221174A515C884226D2304629469C
:104B40000BF0FEFE3421414313480068426B5118BC
:104B500021228B5CCA89002B00D1921C009B92B24F
:104B600093420BD84A8C002A08D02231521E0A8068
:104B7000383021460BF006FF0220C1E706200871FD
:104B8000012009F0E3FE09F033FF20460BF001FF9E
:104B90000020F8BD68320020CC330020F0B585B08D
:104BA00072480068816B002900D1DCE038300BF0DE
:104BB000F9FE0446058828460BF082FE07460226C9
:104BC000204631460AF0C6FD29460BF0B9FE002FFB
:104BD0004DD0054622206649085C854247D23427DD
:104BE0006F4362480068416BC819C278112A3ED1F0
:104BF0006288002A3BD0049221220392825C002A20
:104C000006D0531E012B50D8C28C808C042321E087
:104C1000042120460AF09EFD54490B68596BCA19BD
:104C2000029292890190904219D80093049B022B22
:104C30001DD30298826A002A00D08FE00122039BD4
:104C4000C2540022C284019B83841846049B9B1E8D
:104C500004930623801A049A92B290420BDAC81980
:104C600006210171012009F071FE09F0C1FE204604
:104C70000BF08FFE94E7284621460BF09DFE3B4843
:104C80000068416BC819C28C049BD318C384828C02
:104C90009BB2934202D20399465453E0213093428F
:104CA00002D10322027002E00278032A4AD1C81915
:104CB0008278120711D50289272A0ED1816A012034
:104CC0000BF0C4FE002841D128480068406BC01991
:104CD0000021039A8154816234E0264A12685523E8
:104CE000D25C92062ED5C95B0491818C0391468CCF
:104CF000478921480068806942215322042309F032
:104D000079FB002822D00146039B03743246867348
:104D10000773049E8672082048720D2008720020D6
:104D2000C8710A208871FF20487182200871180A12
:104D30004874100AC873380A4873300AC87242208F
:104D400009F0B8FB28460BF0BBFE29E7022009F06A
:104D5000FDFD09F04DFE05480068009000983830D0
:104D600021460BF0CFFE05B0F0BDC046CC3300208D
:104D70006832002074330020B8330020F0B585B0CD
:104D800081880468807904AA10702222344B9A5CCE
:104D900065882688904208D104AB30462A460BF03D
:104DA000BBFE002858D104A8007834210391484361
:104DB0002C4F3968496B0818018A30460BF0D8FE31
:104DC0003968002803D004A80278039F21E0C86C4A
:104DD000002843D002950A464C32C368136005464A
:104DE0000C350195002B00D10A6504AA1278039FA7
:104DF0003B4653434D6BEB181B8A00258560C5600D
:104E0000896D0860068043801648016801988865AE
:104E1000029D7A43486B8018028A022120460BF0DB
:104E2000B9FE0426204631462A460BF0B3FE0D4D4E
:104E300028685C3021460BF0A5FD304609F086FD60
:104E400009F0D6FD04A8007878432968496B081852
:104E5000817F491C8177002005B0F0BD8820FBE7E9
:104E600068320020CC330020F0B587B08C4E30681B
:104E7000406D0590059F002F00D10FE1F868059067
:104E8000398878880BF0FEFC22258649495D8842E6
:104E9000F0D2342343433068406BC018C0785F2899
:104EA00001D01128E6D1BC68002C049312D0A01CBC
:104EB00003906288002A22D0207A8006DAD43068F3
:104EC000406BC1181F23CE56FB88002E029168D478
:104ED000734E73E0798838880BF066FE04463068BC
:104EE000002C4FD05C3021460BF076FE6088BC6011
:104EF0000021F980B8806180A01C0390049B306879
:104F0000406BC018818B0029B4D0FE88B9888A1BF9
:104F100091B2808A814200D30246002E00D1921CB9
:104F2000029292B2002E00D0B61CB1B2019120467E
:104F30000BF030FEB01C81B27A8820460BF02AFEBE
:104F40000298001D03990880002020822073E681CA
:104F500060686061A061217A2943217206AA0199E3
:104F60000BF050FEA06120460BF05CFE002800D044
:104F70008FE04B4E3068406B04994018818B491E7E
:104F8000818377E739460C31436DBB4228D01A46FE
:104F9000DB68BB42FBD10B68D360002B27D10C32FE
:104FA00024E01F3101917F210E4001990E70002BEA
:104FB00001D10121CB433A4E9B18FB80B9889AB2AC
:104FC0008A420BD10625A581638002980089272893
:104FD00014D1002021460BF039FD4AE0049B90E7F4
:104FE000024654320B681360002B00D18265002208
:104FF000FA60006D0760306801653BE720460BF002
:10500000C8FC294800685521405CC00631D52448B9
:105010000068406B04994018868B40890290BC88D8
:105020003888039021480068806942215022042377
:1050300009F0E0F900281CD0014606748473029B35
:105040000373039A8272082048720D720020C8719F
:105050000A208871FF20487182200871300A487444
:10506000200AC873180A4873100AC872422009F04F
:1050700021FA0020B8600A4E3068406B049940184D
:10508000817F491E81770598002800D00746059743
:10509000F0E6042009F05AFC09F0AAFC07B0F0BDC4
:1050A000CC3300206832002074330020B833002055
:1050B000F8B51D4C206840300BF0BEFD010431D026
:1050C0000090206840300BF06DFC05464688341D8A
:1050D000A1B20BF0BAFD00272846394632460BF044
:1050E00059FD6C80104C2F82EF812F7368686861C6
:1050F000A861287A02210143297228460BF092FD0B
:1051000000280CD06888001F68802068403029463D
:105110000BF038FC032009F019FC09F069FC009839
:10512000401ECBE7F8BDC046CC330020F8B505469D
:10513000012068210BF094FD234F3860234EF07A54
:10514000142421460BF08CFD01463868C162012D04
:1051500010D15C300AF078FA2225705D34210BF012
:105160007FFD39684863705D400010210BF078FDC9
:1051700039688864F07A411C154D0122284609F0EF
:1051800063FF39680862F17A0222284609F05CFF61
:105190003D686862F17A0F4A072328460BF06AFDE2
:1051A000386817210185318C172901D28620F8BD76
:1051B0004185F17A4C43C06A0021224608F091FFF4
:1051C000FCF75FFEF8BDC046CC33002068320020FB
:1051D00064320020ADC20710F0B589B00546487FA3
:1051E000012861D10C462F462C372946803138786A
:1051F0000228059106D12069C11C06A80A2208F0E0
:105200006CFF1CE0E068C11C06AE0A22304608F0C4
:1052100064FFB3883188E86CF28836890092019681
:105220000A460BF03CFD002809D038790BF060FDF0
:1052300005984068016801229143016032E02E46E2
:10524000F83606A8018800890003F2888A4212D144
:1052500006AA92882B8F934211D106AAD288049273
:1052600032880393049B9A42039B07D1AA6E824221
:105270001A4604D111E006AA928800E01A462A874D
:10528000F1806866A86606A8C0887080308001201A
:105290000002059A116801431160F98A06A80BF013
:1052A00039FDB0800020607709B0F0BDF0B589B05D
:1052B000012B00D0A2E000AB07C30F990E9803901A
:1052C00029204F4C205C421E90410843E17F089109
:1052D0000BF038FD0690E67A049601271821494C18
:1052E0003846A0472346484C216894254959C8634D
:1052F00038213846984721684959C96B08603320DE
:10530000C400304621463F4A90473F490968495901
:10531000C96B4860089887400BF01AFDF8B2082165
:10532000384A90473849096808954959C96B09684E
:10533000242200268E54086224314F70059404986C
:1053400044430794069D089C0798B0421BD0012750
:10535000384629460BF084FC2B4909680959C96B6A
:105360004968891984228850384629460BF078FC10
:10537000254909680959C96B4968891988228850E3
:1053800005983618E0E700980128049C09D10E2101
:1053900020460BF065FC1C490968089A8958C96BBE
:1053A00088600198012809D1082120460BF058FC9B
:1053B00015490968089A8958C96BC860029801287C
:1053C0000FD1202120460BF04BFC0F4D2968089A85
:1053D0008958C96B0861012011210BF041FC296833
:1053E00048660398012809D11C2120460BF038FC9F
:1053F00005490968089A8958C96B486109B0F0BD28
:1054000068320020610C051074330020FEB5029153
:1054100001902148006800273C4694254159C96BFA
:10542000096824228A5C944234D2096ACA5D012A3E
:105430000FD1CE19B279C0231340402B09D1C959DD
:105440007268002302980BF093FC002804D11248E4
:1054500000680837641CE0E701980768406802901C
:1054600030460BF0A9FC0646EFF3108072B60A48EE
:1054700000684059C06B00682030E1B20BF0C2FCFC
:105480003846029C21460BF0DBFC62B6B420375054
:10549000B4367460FEBDC04674330020F8B51646BD
:1054A0000F4604460BF0E0FC0546FC20225A384625
:1054B00029460BF0E4FCA84201D1464302E0711EEC
:1054C0004D432E180125012E1AD0C9204700204631
:1054D0000BF0E6FCB042014600D33146E219002849
:1054E00000D131461088C00709D042342088528844
:1054F000101A80B2022803D3451E8D4200D30D46F8
:105500002846F8BDB0B5044632250BF0F7FC4455EB
:105510000020B0BD70B50024204609F035FD0546D9
:10552000094E30683421415C8C420CD2E321695C25
:10553000C90703D028460BF0EBFC30683321C900C3
:105540006D18641CEEE770BDB433002070B5002404
:10555000204609F019FD0546094E30683421405CAB
:1055600084420CD228460BF07BFD002802D028464E
:105570000BF076FD3320C0002D18641CEDE770BDE4
:10558000B4330020F0B597B0109315460C46119037
:1055900000260096019601270222304639460E92D7
:1055A00033460BF0A1FF0F94E41E61426141FF20DE
:1055B000FD22144200D03CE1002D00D139E10C95D0
:1055C00007911C980168069140680890119806C8D8
:1055D000CBB21E980A901D980B9011910806304688
:1055E0000D9210D0100CC1B2402900D30027581ED4
:1055F000424242411740C0200140403948424841A0
:1056000010403E460D9A05930C9949078A4B1A4063
:105610000B9F119B3B607A600A9B002B01D080227C
:105620001A70C90F099185490968942549598968F3
:105630005D228A5C002A15D0002E13D0099800281C
:1056400000D0EBE001230F980328109903D10846FE
:10565000184000D1E3E00E9801400798081800D0E8
:10566000DCE0DCE0002A4AD0002848D00D9B1693ED
:10567000119A159214A800270770096A03C912AE7F
:105680000797009701960BF031FF611E8C410C9932
:105690000E0926400124002869D068480068405956
:1056A0008268106A006812A90978C90043180720A7
:1056B000185600280C942146079807460B9C67D57E
:1056C00019787F20084013A90870282141431368E6
:1056D000526859182623C95CC90053185B68515891
:1056E000DA0F554F3B400AC414A90A700A99083CC6
:1056F000002900D00870002001460C9F48E00643B6
:105700000AD0079800901098019006980290089887
:1057100003900598119924E0089E119C20460D994C
:105720000BF048FF0106109F13D428214143434842
:10573000006840598068006840182521445C0BF0DF
:105740005DFF41424141002C00D00121119C012903
:1057500064D10798009001970698029003960598E7
:1057600021460D9A099B0BF055FF034657E015A8FB
:105770000BF080FF002E51D00C9414A8009013AAB7
:1057800011980D990B9C23460BF096FF00210F46B4
:1057900023780E9D2B43099A002A12D111930123DD
:1057A000109C23405A425A4125406B426B410F9C4A
:1057B000032C00D01A4600290C9B15D0002A2BD1AF
:1057C0002CE0411E8841002F00D10C900C9801283C
:1057D000089923D12068069A90421FD160684840FA
:1057E000154908421AD11AE00446411E8C41002F87
:1057F000184600D1204601280AD114A80078411E7D
:105800008841002A00D10346002B119B06D006E0F8
:1058100068426841064201D0FE2300E0FF230121D7
:1058200000910193022200201C4603460BF05CFE0F
:10583000204617B0F0BDC046FFFFFF0074330020C4
:10584000F0B58FB0069308920791044600270097A1
:105850000197022201253846294604922B460BF077
:1058600043FE266805946268300615980A90149CD9
:10587000099414D01446100CC1B2C020084040381E
:10588000474247413346F0B2421E50425041402900
:1058900000D30025074005402246099C01E033461D
:1058A0003D468020039020707E49104608401C46EB
:1058B0000A990B6048607C4B186894210E4640584A
:1058C00080685D21415C002917D0002D15D07549F5
:1058D0000898C00700D0D8E001260798022800D217
:1058E000D4E006980068844200D0CEE00698406874
:1058F0005040084200D0C8E0C8E0002915D0002F71
:1059000013D00E920D94079F032F21D10CA8009065
:1059100020461146099A0A9C23460BF0CDFE00282A
:1059200061D0267804980643B0E0781E87413D4355
:1059300030D0204611460BF03DFE43B2002B0799B4
:10594000099A059800D4137000920A9A019244E0D3
:10595000016A03C913460BAA00250095019222464D
:1059600005930BF0C3FD002842D04F4B18688059B7
:105970008068006A00680BA90978C90041180720EF
:105980000856002838D40999039A0A700126002184
:105990000A9B50E01C46059F03CF083F0BF00AFE10
:1059A0000106079D13D42168895989680968099AF5
:1059B00010702822424388182521445C0BF01EFEFB
:1059C00041424141002C00D0012101295DD10998BB
:1059D00000900A98019038462946089A069B0BF0D9
:1059E000B5FE064652E0089800284ED1FE264DE04E
:1059F0000DA80BF03FFE48E009787F220A40099984
:105A00000A700CA90D70282151431A6892599268A6
:105A10001368526859182623C95CC90053185B687B
:105A20005258D90F1F4E33400A9E0CC6083E3346CB
:105A3000049E1643F6B2089AD2070FD10699087849
:105A4000012810D18879C0210140402906990AD146
:105A5000086884420A4605990BD010E0002814D546
:105A6000002913D111E008680A461968814206D15D
:105A70005968506848400B49084045424541FD205F
:105A8000074078427841284300D1FF260121009148
:105A90000196002002220B460BF026FD30460FB087
:105AA000F0BDC046FFFFFF0074330020F0B585B0A5
:105AB0001E46039204910746002500950195012496
:105AC000022228462146029213460BF00DFD0320C8
:105AD000800506CF1040A3054340C8B26040C318FC
