:020000041004E6
:100000000000012041640710696707106B67071043
:1000100000000000000000000000000000000000E0
:100020000000000000000000000000006D670710E5
:1000300000000000000000006F67071071670710E4
:100040007B1704101F1E0410CB320410DF33041082
:100050000000000000000000000000007F340410D9
:100060005F3F04104B400410C34704102F68041076
:10007000736C04107967071000000000AD6707106B
:100080005B7004108367071095670710000000007D
:100090008D67071000000000A5670710856707102F
:1000A000A37404109D670710A3780410C78404107C
:1000B0008F85041000000000000000000000000018
:1000C000EC330020BA6A00003C0008080600AA00D1
:1000D000F7000000FFFFFFFF6400021008040204A5
:1000E000F7000808520101020202020000010003A9
:1000F0000004000006040000013306101D04000087
:100100003F330610010C00007B330610150C000075
:10011000A5330610160C0000EB3306102D0C000062
:100120002B340610480C00008D340610490C0000DA
:10013000CD340610630C0000FB3406107B0C00006D
:10014000273506107C0C00008B35061001100000CE
:10015000E5350610021000005736061003100000A7
:10016000A936061009100000F33606100514000029
:100170004137061001200000A137061002200000C0
:10018000CF3706100320000023380610052000009A
:100190006938061006200000993806100720000074
:1001A000F938061008200000353906100920000033
:1001B000693906100A2000009D3906100B20000046
:1001C000CF3906100C200000193A06100D2000004F
:1001D0004D3A06100E200000073B06100F200000CD
:1001E000353B061010200000793B0610112000005E
:1001F000A93B061012200000DD3B06101320000072
:100200000F3C061014200000A33C0610152000002F
:10021000D53C061016200000413D061017200000B6
:10022000793D061018200000CF3D0610192000006F
:10023000153E06101A200000653E06101B20000027
:10024000B13E06101C200000033F06101D200000D8
:100250004B3F06101E2000007F3F06101F200000AD
:10026000B73F061022200000F73F061023200000B1
:100270005540061024200000A5400610252000004F
:10028000ED4006102620000019410610272000002E
:100290004541061028200000814106102920000059
:1002A000B74106102A200000E94106102B2000006B
:1002B000254206102C200000714206102D2000005F
:1002C000C54206102E200000F94206102F20000023
:1002D0003743061030200000A743061031200000ED
:1002E000114406103220000049440610332000005B
:1002F0009944061034200000D14406103520000037
:100300000B4506103620000041450610372000003E
:10031000CB450610382000000D460610392000009D
:10032000474606103A200000D94606103B20000040
:10033000214706103C2000005F4706103D200000CA
:10034000934706103E200000C54706103F200000DE
:1003500011480610402000004D48061041200000C2
:10036000954806104220000047490610432000002F
:1003700091490610442000007D4A061045200000E7
:10038000D74A061046200000094B061047200000FF
:10039000474B0610482000007F4B06104920000004
:1003A000B74B06104A200000E94B06104B20000016
:1003B000274C06104C2000006D4C06104D2000000C
:1003C000C34C06104E2000000D4D06104F200000BB
:1003D000454D061050200000954D0610512000009C
:1003E000E54D061052200000254E06105320000057
:1003F0005B4E061054200000B94E06105520000038
:10040000134F061056200000694F061057200000B9
:10041000C74F061058200000155006105920000044
:100420006D5006105A200000AD5006105B200000F1
:100430000D5106105C200000655106105D20000083
:10044000CB510610602000001552061061200000FC
:100450007D52061062200000095306106320000040
:10046000215406106420000061550610652000002C
:10047000E5550610662000001B5606106720000098
:100480005556061068200000A3560610692000008B
:10049000155706106A2000009F5706106B200000B9
:1004A000D15706106C200000355806106D20000052
:1004B000735806106E200000AD5806106F20000023
:1004C00019590610702000006759061071200000AD
:1004D000B559061072200000035A06107320000060
:1004E000815A061074200000FF5A06107520000083
:1004F000355B061076200000F75B061077200000C1
:10050000675C061078200000A35C061079200000CC
:10051000035D06107A200000515D06107B2000006C
:10052000A15D06107C200000FF5D06107D2000000C
:10053000355E06107E2000009F5E06107F200000C2
:100540001B5F061082200000AD5F061083200000B4
:100550004760061084200000B1600610852000006E
:100560000F610610862000000362061000FC0000E8
:100570007762061001FC0000BB62061002FC00005E
:100580007F6306100CFC00004D6406100DFC00009B
:10059000896406100FFC00000B65061014FC0000B7
:1005A0005165061015FC00009365061016FC00004E
:1005B000C965061017FC0000FB65061018FC00005A
:1005C0005F6606101CFC00009D6606102BFC0000F8
:1005D000E36606102CFC00002B67061035FC0000BB
:1005E0008D67061036FC0000CF67061037FC000050
:1005F0005768061038FC00009168061060FC000087
:10060000D168061081FC00003369061085FC0000EB
:100610006969061086FC00009D69061088FC0000D0
:10062000E76906108AFC00002F6A06108DFC0000A6
:10063000996A061090FC0000DB6A061092FC00002C
:10064000336B061093FC0000656B061094FC0000F1
:10065000A56B061096FC0000D76B06109CFC0000F2
:10066000176C06109DFC00004F6C06109EFC0000ED
:10067000836C0610A0FC0000176D0610A3FC0000A0
:10068000676D0610A4FC00000F6E0610A5FC0000AC
:10069000456E0610A6FC0000856E0610A7FC000043
:1006A000C56E0610A8FC0000596F0610AAFC0000D9
:1006B0009D6F0610ABFC0000D36F0610ACFC000071
:1006C00059700610ADFC0000EB700610AEFC000087
:1006D00027710610AFFC000063710610B0FC00002B
:1006E000B5710610B1FC000039720610B2FC0000B2
:1006F00083720610B3FC0000BB720610B4FC00004D
:1007000039730610BAFC00006D730610BBFC0000C4
:10071000A1730610CAFC0000D3730610CBFC0000C6
:100720006B740610CCFC0000FD74061001FD000087
:100730008F75061002FD0000D575061003FD000040
:100740007B76061004FD0000D776061005FD00003C
:10075000B777061006FD0000CF78061007FD0000F1
:100760002F79061008FD00006D79061009FD0000C4
:10077000AB7906100AFD0000E97906100BFD0000B8
:100780001F7A061010FD00005D7A061011FD0000B2
:10079000D17A061012FD00001B7B061013FD00002D
:1007A0005D7B061014FD0000DF7B061015FD0000C8
:1007B000357C061016FD0000937C061017FD000026
:1007C000317D061018FD0000877D061019FD000020
:1007D000DB7D06101AFD0000797E06101BFD00006F
:1007E000CF7E06101CFD0000397F06101DFD0000A5
:1007F000A37F06101EFD00001F80061023FD0000D1
:100800009380061024FD0000FB80061025FD0000EB
:100810005B81061028FD0000A38106102AFD000060
:10082000E38106102EFD0000B38206102FFD0000AC
:10083000F382061031FD00006783061033FD0000CF
:10084000B183061035FD00003B84061036FD000024
:100850000F85061037FD00006F85061038FD00007B
:100860002186061039FD0000DF8606103AFD0000E3
:100870004987061081FD00009387061082FD000065
:10088000FD87061083FD00009988061084FD000096
:10089000FF88061085FD0000B189061086FD000066
:1008A0001B8A061087FD0000638A06108AFD00007F
:1008B000C38A06108BFD0000398B061000FE000075
:1008C000838B061001FE0000E18B061002FE000083
:1008D000318C061003FE00007B8C061004FE000025
:1008E000AF8C0610000000000000000005000000B2
:1008F000BF270810000000000000000000000000FA
:100900000000000010000000D727081011000000B0
:10091000F127081004080000012808100D08000045
:100920001F280810010C00006F2808100F0C000091
:10093000A7280810100C0000DF280810160C000073
:1009400051280810190C0000012908101A0C000089
:10095000332908101B0C00006F290810000000004C
:100960000000000000000000020000003000002035
:100970000000000008000000C80300200000000084
:1009800001000000500500200000FFFF00000000F3
:1009900004000000880904100000000005000000A9
:1009A000943300200000000001000000C28A0410FF
:1009B0000100000003000000A83300202000000018
:1009C000FB349B5F8000008000100000052A0000BF
:1009D0001000000001000000AC0400208C0904108D
:1009E0000A000000FB349B5F8000008000100000C4
:1009F000292B000010000000000000000000000093
:100A00009809041002000000FB349B5F8000008006
:100A1000001000002A2B0000100000000000000061
:100A2000000000000000000002000000FB349B5F9B
:100A300080000080001000003A2B00001000000031
:100A40000000000000000000A409041096C298D81D
:100A50004539A1F4A033EB2D817D0377F240A463E7
:100A6000E5E6BCF847422CE1F2D1176BF551BF37F0
:100A70006840B6CBCE5E316B5733CE2B169E0F7CC3
:100A80004AEBE78E9B7F1AFEE242E34F00F00B1029
:100A900000080000AA02000000F80B10F80701008F
:100AA0000000000096C298D84539A1F4A033EB2D80
:100AB000817D0377F240A463E5E6BCF847422CE170
:100AC000F2D1176BF551BF376840B6CBCE5E316BB4
:100AD0005733CE2B169E0F7C4AEBE78E9B7F1AFE78
:100AE000E242E34FC4E8E9EAEBEDEEEFF0F1F2F3B6
:100AF000F4F5F6F7F8F9FAFBFCFCFDFEFF00010245
:100B00000304050607000000216707102D67071082
:100B1000F1650710796607108164071027650710D3
:100B2000FB349B5F8000008000100000292B000038
:100B300010000000FB349B5F80000080001000006C
:100B4000052A000010000000000000000000000066
:100B500000000000000000007DB50710000000004C
:100B60000200000003000000030000000600000077
:100B700003000000030000003C00000070000000C3
:100B800070000000D003000070000000C3010000EE
:100B90000000000099350810D990071000000000EF
:100BA0009D3508106D35081095910710993508107E
:100BB0005D910710000000009D3508106D3508108C
:100BC000B5680710772004109F200410B720041088
:100BD000AF200410E71E0410571F0410EF27041065
:100BE000F7270410FF270410072804100F2804100B
:100BF000296F0710B72704109F270410BF27041080
:100C000083230410532504106F1F0410B325041010
:100C1000FB20041085230810032104109D3B0810BD
:100C2000B53B08107D3A08106DBF0710B9C007101A
:100C300029BB071000000000693E0810F9C3071027
:100C400045C60710013F0810D53B0810133F081098
:100C50001F3F081075CE0710E1D00710673F08103E
:100C600001C907100000000035D807105DD5071036
:100C700045D70710893F081029D30710196D0710B1
:100C8000FD2B0810592A0810FD2D08100F300810F0
:100C90000F30081025310810FD2D0810FF32081004
:100CA000FF320810FF320810012D0810132A081017
:100CB000D72908102531081000000000174408103B
:100CC00059F30710E74308102F440810E1F107100B
:100CD0005F1F0410671F04106521041075210410A4
:100CE0006D210410C71F0410CF1F0410D71F04105C
:100CF000DF1F041007200410EF1F0410F71F04105B
:100D0000FF1F0410E71F04100F2004101720041009
:100D10001F200410272004102F2004106939081008
:100D2000AB39081001B7071000000000B9390810EE
:100D3000EDB5071039E50710DD42081035DA071068
:100D4000B5420810554308109B3F08104345081052
:100D50004D450810F9F9071071FA07106945081098
:100D6000AF44081000000000A74A08103DFB071020
:100D70000000000000000000EDFD07108D4A081083
:100D8000074B08104949081000000000234B0810C9
:100D9000ED460810654A0810D34A0810DD470810D0
:100DA00000000000000000007D4508100000000069
:100DB000754C0810C5020810000000002DF3061045
:100DC000394B081000000000ED0C0810894D081088
:100DD00000000000954D0810000000000000000019
:100DE000650D08107D0708108D4D0810B74D0810CF
:100DF000814C081000000000C14E0810D9110810E5
:100E00001D4E08100000000000000000000000005F
:100E1000F14E0810E74E081000000000FB4E0810CD
:100E2000054E081000000000634F0810594F0810CD
:100E3000000000006D4F0810114E0810A1490180FC
:100E40000020704780B500F0C5FA00F08DFB01BDB1
:100E5000F0B587B005001224FE2805D10DA8007852
:100E6000002801D012202BE10C9F684602720E0070
:100E70000492069339004DD1FE2D4ED0F02D24DA88
:100E8000042E22DC01A8801C009001AB5B1C02AA8E
:100E9000D21C02A9491C280000F0D6FB002800D073
:100EA000D1E06846C0881421014014290DD068465D
:100EB000C0882040022808D06846C088C00605D5F2
:100EC000032E02D10498202810DBF8E0032E07D16E
:100ED000002469460C713900280000F0EBFA87E025
:100EE000042E03D06846007A0028EED06846407A87
:100EF00000286FD0032EEBD0042E3DD10DA8007832
:100F000001900097069B6846027A0421280000F0B1
:100F100096F9D5E0012F3AD1FE2D2FD0042E1EDAFE
:100F200003A8009001AB5B1C01AA921C02A9491CFA
:100F3000280000F089FB002838D1684680898007A6
:100F400003D46846007A002809D168468089204089
:100F5000122805D1032E02D10498202806DBAEE02A
:100F6000032EB5D06846007A0028F8D06846407A4B
:100F700000282FD0032EABD00C24A0E0012069461E
:100F80004872032EF9D104982028A1DB97E0042EA3
:100F9000FCDC01A8801C009002AB9B1C01AA521C27
:100FA00002A9491C280000F04FFB00284BD16846DD
:100FB00040790028E0D00498FD28E7DA032EDAD043
:100FC000042E9BD06846807A0028D5D16846007AE6
:100FD000002874D00024300007D0022E05D001D3A1
:100FE000042EEED000D274E702E0012069460871B9
:100FF000009703AB9B1C68460279017A280000F039
:1010000014FA0590002803D16846007A002806D11A
:101010006846C089049941182B4A914215DB0DA8F6
:10102000007801900097002300220321280000F09F
:1010300006F93900280000F07EFA3900280000F097
:1010400039FA07203CE0422439E069460A7A0699D9
:10105000059B181800F054FB6846C0896946097A58
:101060004218022E12D0032E10D0012E27D10DA827
:10107000007801900097002300220321280000F04F
:10108000DEF83900280000F056FA18E00DA80078C4
:1010900001900097059B92B20321280000F0CFF841
:1010A000040008D13900280000F045FA3900280072
:1010B00000F036FA03E03900280000F0FBF92000C8
:1010C00007B0F0BD72060000730600001CB51A00E0
:1010D000049B00242BE11CB51A00049B00240194FE
:1010E000012425E11CB500240194022420E1F1B57E
:1010F00096B00D00140005A8402100F01DFB16A8B5
:101100000078F02801DB12205DE002A8009001AB1E
:1011100001AA521C01A9891C16A8007800F094FAB3
:10112000060001D042204EE06846057000F07CFACF
:1011300069460978884201D20C2044E0049469464B
:101140004E70002405AF16E000F03CFA060020D0F7
:10115000E00038182978017069784170A9788170A9
:10116000E978C170EA786968300000F0C9FA381D82
:10117000E1004650641C68460078039084420CDA13
:101180000498E1004518E878FA28DDDB0720694675
:10119000487068464478002511E06846017805AA41
:1011A00016A8007800F0D0FA04000BD0F3E7002175
:1011B00005A8001DEA00805800F0DBF96D1C0398BB
:1011C0008542F4DB200017B0F0BDF8B584B0040010
:1011D0000F0015001E000BA80078F82804DA00F0B4
:1011E00009FA0390002801D107201AE00BA8027821
:1011F0000C99039800F084FA039802900BA80078E9
:1012000001900AA80078009033002A0039002000DD
:1012100000F0B4FA040003D00121039800F0A9F90A
:10122000200005B0F0BD80B5814201D000F04EF93C
:10123000012002BD80B500F09CF9012002BDF8B587
:101240001500069A079E170010D1002E03D02A0021
:1012500000F0C0FBE6BDFE2804D11900E8B200F0A2
:10126000BDFBE6BD2A0000F0E1FBE6BD012A12D17C
:10127000002E04D01A00290000F048FCE6BDFE282C
:1012800004D11900E8B200F045FCE6BD1A002900BF
:1012900000F066FCE6BD2A0000F0B2FCE6BD80B5B9
:1012A00002000800D10706D5022100F0B2F801289B
:1012B00001D10C2002BD002002BDF8B5012817D1D4
:1012C00000240F00160000E0641CBC4210DA062067
:1012D000604335180021287800F09BF8012805D0DC
:1012E0000121287800F095F80128EDD10C20F2BDFD
:1012F0000020F2BD80B5FFF7E0FF02BDE0B50200BF
:101300000B000020019005E0E0B502000B0000207A
:101310000190012000900321FE20FFF799FD0EBDF2
:101320001CB501240194002402E01CB501240194A1
:101330000094FFF78DFD16BDB8B5BFB0140001D005
:10134000F22C01D312201AE01F000D000190F421AD
:1013500002A800F0F1F9220002A9380000F054FCC4
:101360004598009002AB22002900019800F055FC3E
:10137000010001D1093400E0002444990C7040B010
:10138000B0BDF0B5BFB01400FF2A01D112201CE09F
:101390001D000E000700F82101A800F0CDF901A8FA
:1013A00000902B0022003100380000F041FC0500C5
:1013B000449807D14599F7340470E2B201A800F0CF
:1013C00023FC01E00021017028003FB0F0BD1800AF
:1013D000500150010020FF21504A28234343D218D6
:1013E00011701175401C0328F6DB704710B50329F6
:1013F0000DDA0022494B2824614359180B788342A7
:1014000001D1881810BD14220B7D8342F9D0002031
:1014100010BD80B5FFF7EAFF002802D0C0680028A1
:1014200001D1002002BD012002BDFEB506000F0063
:1014300000241C8008A801783000FFF7D7FF0500C2
:101440000BD108A80178FF20FFF7D0FF05001BD0C3
:101450002E706C60AC60EC602C82684600790028CD
:101460000FD1686800280FD1E868002801D000F08B
:101470006BFC38001AD000F041FC002817D03C006B
:1014800015E0E868002801D10020FEBD298AC919AD
:1014900089B200F065FC002805D0298A029A1180E3
:1014A000298ACC1903E0E86800F04EFC00202C8269
:1014B000E860FEBD10B5FFF799FF040005D0E068B5
:1014C00000F042FC0020E060208210BD002800D126
:1014D000704738B5002500220023104928245443C2
:1014E000091914245C430C196168814206D0A16873
:1014F000814207D05B1C012BEFDD0AE000F024FCE9
:10150000656031BD080000F01FFCA560FF20207061
:1015100031BD521C022ADFDD31BD0000D830002071
:1015200080B5FFF763FF002804D0C1688160002107
:10153000C160018201BD80B5FFF758FF002803D0CC
:10154000816841600021816001BD83008500070042
:1015500007008300850005000700030003000F005B
:1015600005008200810005003648002141600170BD
:10157000704730B50122334B0024002902D00129E5
:101580000FD030BDF921614359180831884203D08A
:10159000641C082CF6D330BD5868A24090435860B4
:1015A00030BDF92161435918FA25ED0049198842E7
:1015B00003D0641C082CEEDAF3E71878A2409043BD
:1015C000187030BD10B500201E494A680123140070
:1015D000C4401C4002D0401C0828F8D3082801D180
:1015E000002010BD834013434B60F922504308187C
:1015F000083010BD10B5002012490A7801230124DB
:101600008440224202D0401C0828F8DB082801D17F
:10161000002010BD834013430B70F922504308187B
:10162000FA21C900401810BD00210020054A536866
:10163000CB40DB0700D4401C491CCBB2082BF6D3AF
:10164000C0B2704754050020F0B585B001930092F8
:101650000391074600F0CEFB4D21415C47229200EA
:1016600051438B1800250A990291AC18A34220D04F
:1016700006687519AA21695AB9422546F5D130196B
:10168000014662390978039A117001467839098850
:10169000029A11800C49401804A900F0B3FB0028FD
:1016A00009D00120009908700498007A411E8841F1
:1016B00004E0422005E000200099087001990870BC
:1016C000002005B0F0BDC046E4FEFFFF70B4103A44
:1016D00003D378C9103A78C0FBD2530701D318C995
:1016E00018C001D508C908C0D20704D30B880380ED
:1016F000891C801C002A01D50B78037070BC7047D0
:101700008B0701D18307E1D0124205D00B78491C29
:101710000370401C521EF9D170470300FFFFFFFF0A
:10172000FFFFFFFFFFFFFFFFFFFF010000000000C2
:10173000FFFF01000000FFFF002200BF094202D0AE
:10174000491E4254FCD170477CB514460D460646EE
:101750000120022100F064FB002800D07CBD0121A3
:101760000F22284600F06AFB0028F7D16846467031
:101770000570019400F0BFFD7CBDFEE7F0B591B0AF
:101780001C4617460D461090012002210E9000F0D5
:1017900047FB002821D117980D900026894A109800
:1017A0003146894B98470A950C900F947F24384610
:1017B00031462246844DA8470B9707460C980743AD
:1017C0000F9831462246A84704463C43FB220D9819
:1017D0003146A84720430F9C01D011B0F0BD0C96B4
:1017E000109801F00BFD002814D0169F7B1C466C4E
:1017F000316E1090726E5A43501800022721CD00AE
:101800004019724901F024FDF16D401A3F3803D4AC
:101810001220E2E74220E0E70995089748360B9846
:10182000314601F030FD214604460846314601F0BC
:101830002AFD01460C20002CCFD000290D9A0A9DCC
:10184000CBD010980146B131466C6C20305A0978E3
:1018500001F02DFD0446706E0002099940185B49A5
:1018600001F0F6FCC04320183E3001D44520B4E717
:10187000189C0F980B9A824208D10D980090019401
:1018800010982946089B01F021FDA6E71098416CAD
:1018900074200591095AA9420C9B0D9E07D246203F
:1018A0004B4A954299D100290C9B0D9E95D10694E7
:1018B0001098723007901A46059B1C466F341846E4
:1018C00074300990039424787C3304936F1C0A923B
:1018D000029707980388BAB2462093424AD8099AD9
:1018E000927808D10F9D0B9B9D4243D2E3B2AB424D
:1018F0003B460CD93EE00B9DAA423BD3E5B20F9E7E
:10190000B54203D90B9DAE4234D25B1C0D9E89B209
:101910009DB28D4202D10F9882422ED00A980028A3
:1019200002D0462022461DE0049F384629460F9EDD
:10193000324601F021FD002800D04EE70D980090BE
:1019400006980190384629463246089B01F028FD4A
:101950000C90FF2834D00398027800200E990A9149
:101960000D9E029FD1B2E3B28B4203D00998018849
:101970001446AEE7059C0C9F13E0059C0A980028CE
:101980000C9F06D0F8B20C224243A0188222FF23FB
:10199000835400960698019010980F9A089B01F0C6
:1019A00095FC002800D118E70A99002900D114E716
:1019B000F9B20C224A43A1188222FF238B540CE770
:1019C00007200AE7FF0E00003D1E04107102000010
:1019D000FFFF000080B500F063FA80BDF8B50C464B
:1019E000054600F007FA074601F0FAFC0D4E3046B6
:1019F00001F014FD0C4988420AD101F02BFDFF28AB
:101A00000DD047218900414338684018AA21465229
:101A1000032130462A46234600F008F8F8BD01208D
:101A2000F8BDC046FCFF0000FFFF0000FEB50293BA
:101A300014460F46054600F0DDF90646314885425A
:101A400001D11F2007E00120022100F0E9F9002860
:101A500000D0FEBD2C481221A04201D20846FEBD96
:101A60000191284601F0DAFC4721890041433068A2
:101A700046182046314600F01FFE0028E9D1BA2062
:101A8000315C3820305C042F12D1002937D0002877
:101A9000019A20D01B4885421DD1F08D00281AD014
:101AA000A420305A1021014021431046D1D10CE02E
:101AB00035463835002910D0032F06D10220287072
:101AC000F4860020B08602983063A236304601F0DA
:101AD000D7FC0020FEBD1046FEBD37462837002843
:101AE000029A05D03968A120029A01F0D9FC029A25
:101AF0003A6001202870F4850020B085FEBD019871
:101B0000FEBDC046FCFF00007206000080B500F07C
:101B1000C3F980BDF8B50C46054600F06BF90746E1
:101B200001F05EFC0C4E304601F078FC0B49884217
:101B30000AD101F08FFCFF280CD0472189004143D6
:101B400038684018AA21465230462946224600F0FD
:101B500007F8F8BD0120F8BDFCFF0000FFFF000002
:101B6000F8B514460D46074600F044F906462248EB
:101B7000874201D11F2007E00120022100F050F927
:101B8000002800D0F8BD1D48A84201D21220F8BD9F
:101B9000384601F043FC472189004143306846182C
:101BA0002846314600F088FD0028EBD1BA20305C91
:101BB000002809D04C20022131544A2035524821B6
:101BC000002070527464F8BD4C20305C32464C32B8
:101BD00037463C37002806D03968A12000922246BB
:101BE00001F05EFC009A42203552402100207052E4
:101BF0003C6001211170F8BDFCFF0000720600007E
:101C000080B500F05CFB80BD002A05D003780B7026
:101C1000521E491C401CF7E770471CB554087A2C2B
:101C200001D912201CBD049C009401F073FC1CBD62
:101C30001CB5FF2A04D0049C009401F0B1FC1CBD2B
:101C400012201CBD6A4A516011600880108100207A
:101C500048804860704766490A68904203D14068EE
:101C6000086070470A00002A04D051688142F9D107
:101C700040685060704770B55D490A68002825D0FB
:101C8000002A01D1020021E0904202D2426002000B
:101C900012E0140000E02C006568002D01D0A8427D
:101CA000F9D24560606025886619864204D146688D
:101CB00066600688AD192580456804880319AB4223
:101CC00004D16B6843602B88E31803800A6070BD01
:101CD00010B502000C001088011B8BB20D2B0CD329
:101CE000200008388008800010180830018000218A
:101CF00041804160FFF7BFFF200010BD38B50025CF
:101D00003B490968401E03240443641DA4B209E052
:101D10000888A04205DB002D02D02A88904200D21C
:101D20000D0049680029F3D1002D0BD02800FFF7E2
:101D300092FF21002800FFF7CBFF28800120688058
:101D4000281D32BD002032BD002800D1704780B56B
:101D50000021831E19800160001FFFF78CFF01BD69
:101D6000F8B504000E00701E03210143491D271F12
:101D700038888BB2984204D389B23800FFF7A8FFA5
:101D80001FE0091A6A461180001F8008800025188C
:101D900017484168008980000818854214D2688875
:101DA000002811D128886946098888420CD3280068
:101DB000FFF751FF684601882800FFF789FF39883F
:101DC000081838802000F2BD3000FFF797FF0500AB
:101DD0000BD03A88121F92B2964200DA32002100EC
:101DE00001F00CFC2000FFF7AFFF2800F2BD00005F
:101DF0006433002002480068902140587047C04674
:101E0000CC33002010B50C4601F04FFC002804D064
:101E10002068C06F411E884110BD002010BDFEE744
:101E2000054A12683523D35C034201D00C20704769
:101E30003532117000207047B0330020904201D835
:101E4000884201D2122070470020704730B58BB015
:101E500018AC24780A9417AC2478099416AC24782A
:101E6000089415AC2478079414AC247806946D4635
:101E70004C242C57059412AC24780494119C0394A0
:101E800010AC247802940FAC247801940E9C00943A
:101E900001F018FC0BB030BD80B501F0B1FC02BD03
:101EA00080B501F0D1FC02BD80B501F0F1FC02BDAE
:101EB0001CB56C46247C009401F070FD16BD80B505
:101EC00001F0B8FD02BD80B501F0EAFD02BD80B5AC
:101ED00001F0FEFD02BD80B501F052FE02BD80B5ED
:101EE00001F088FE02BD80B501F0A6FE01BD80B5FF
:101EF00001F0C8FE01BD80B501F0E8FE02BD80B56D
:101F000001F0F8FE02BD80B501F080FF01BD80B593
:101F100001F0A2FF01BD80B501F0C6FF01BD80B593
:101F200001F0C9FF01BD80B501F0C6FF02BD80B55B
:101F300001F0DCFF02BD80B502F001F802BD80B502
:101F400002F00EF802BD80B502F028F802BD80B59F
:101F500002F050F802BD80B502F072F801BD80B504
:101F600002F074F802BD80B502F09AF802BD80B5A7
:101F700002F0C6F801BD80B502F02CF902BD80B5B3
:101F800002F02AF902BD80B502F028F902BD80B541
:101F900002F026F902BD80B502F024F902BD80B539
:101FA00002F022F902BD80B502F020F902BD80B531
:101FB00002F01EF902BD80B502F01CF902BD80B529
:101FC00002F070F902BD80B502F088F902BD80B55B
:101FD00002F0B6F902BD80B502F0CEF902BD80B5BF
:101FE00002F0E6F902BD80B502F022FA02BD80B52A
:101FF00002F064FA02BD80B502F090FA02BD80B52D
:1020000002F0AAFA02BD80B502F0C2FA02BD80B5A4
:1020100002F0DCFA02BD80B502F0EEFA02BD80B536
:1020200002F008FB02BD80B502F01AFB02BD80B5CC
:1020300002F032FB02BD80B502F074FB02BD80B538
:1020400002F0AAFB02BD80B502F0A8FB02BD80B57C
:1020500002F0A6FB02BD80B502F0B4FB01BD80B565
:1020600002F0C8FB01BD80B502F004FC02BD80B5E2
:1020700002F002FC02BD80B502F050FC01BD80B54B
:1020800002F018FD01BD80B502F04CFD02BD80B527
:1020900002F09EFD02BD80B502F0B0FD02BD80B52C
:1020A00002F01CFE01BD80B502F008FF02BD80B544
:1020B00002F07AFF01BD80B503F09AF801BD80B54A
:1020C00003F0D4F802BD80B503F026F901BD1CB5BC
:1020D0006C46247D01946C46247C009403F086F9C0
:1020E00013BD80B503F032FA01BD80B503F076FA76
:1020F00002BD80B503F0A6FA02BD80B503F0AAFACE
:1021000001BD80B503F0C2FA01BD1FB5089C029461
:10211000079C0194069C009403F0D4FA04B010BD0F
:102120001CB5059C0194049C009403F005FC16BDAD
:102130001CB56C46247D01946C46247C009403F00D
:1021400013FD16BD80B503F065FD02BD80B503F03B
:1021500063FD02BD80B503F061FD01BD80B503F0F4
:10216000DDFD02BD80B503F0DBFD02BD80B504F0EE
:10217000D1F802BD80B504F0D3F802BD80B504F0FB
:10218000EDF901BD80B504F009FA02BD80B504F097
:102190002BFA01BD80B504F05FFA02BD80B504F0F2
:1021A0007FFA02BD80B504F0D7FA02BD80B504F015
:1021B000F5FA01BD80B504F013FB02BD80B504F053
:1021C00037FB01BD80B504F03BFD02BD80B504F0D6
:1021D00051FD02BD80B504F06BFD02BD1CB5049C31
:1021E000009404F0A9FD16BD80B504F0EDFD02BD1C
:1021F00080B504F017FE02BD80B504F039FE02BDC3
:1022000080B504F089FE01BD80B504F0E1FE02BD99
:1022100080B504F0FFFE01BD80B504F01FFF02BDD4
:102220001FB5089C0294079C0194069C009404F03E
:102230004FFF1FBD80B505F061F802BD80B505F008
:10224000C5F802BD80B505F0DEF801BD80B505F02A
:10225000EBF802BD80B505F001F901BD80B505F0D0
:1022600021F901BD80B505F0FBF902BD80B505F08F
:102270004EFA02BD80B505F093FA02BD1FB5099C68
:102280000394089C0294079C0194069C009405F01A
:10229000D5FA04B010BD1CB5059C0194049C0094B3
:1022A00005F000FB16BD80B505F058FB01BD80B5FB
:1022B00005F07AFB01BD80B505F00CFC01BD80B5D1
:1022C00005F01CFC02BD80B505F0AAFC02BD80B57E
:1022D00005F020FE02BD80B505F05EFE01BD80B5B3
:1022E00005F0ACFE02BD80B505F0AAFE02BD80B5CA
:1022F00005F0CCFE01BD80B505F044FF02BD80B500
:1023000006F086F802BD80B506F0A3F801BD80B5E1
:1023100006F0ABF801BD80B506F0D3F802BD80B57C
:1023200006F0D2F801BD80B506F002F901BD80B516
:1023300006F01AF901BD1CB5049C009406F028F9BA
:1023400013BD80B506F0E2F901BD80B506F0A4FA30
:1023500001BD80B506F0A8FA01BD80B506F0C8FA47
:1023600002BD80B506F010FB02BD80B506F046FB4D
:1023700001BD80B506F04EFB01BD80B506F094FBB3
:1023800001BD80B506F0AAFB01BD80B506F03AFCA0
:1023900002BD80B506F038FC01BD80B506F05EFCDC
:1023A00001BD80B506F076FC01BD80B506F088FC65
:1023B00001BD80B506F09CFC01BD80B506F0B0FC07
:1023C00001BD80B506F0B6FC01BD80B506F0E6FCA7
:1023D00001BD80B506F0FEFC01BD80B506F032FD02
:1023E00002BD80B506F036FD01BD80B506F042FDA8
:1023F00001BD80B506F052FD01BD80B506F062FD5D
:1024000001BD80B506F072FD02BD80B506F098FDF5
:1024100001BD80B506F06EFF01BD1CB56C46247C85
:10242000009406F075FF13BD80B506F09BFF01BD5B
:1024300080B506F0ADFF01BD80B507F01DF802BD07
:1024400080B507F037F802BD80B507F04FF802BD40
:1024500080B507F075F802BD80B507F0BBF801BD87
:1024600080B507F0EBF801BD80B507F019F901BDA3
:1024700080B507F01DF901BD1CB5059C01946C46A3
:10248000247C009407F05EF913BD80B507F038FA9C
:1024900001BD80B507F078FA01BD80B507F0D4FA28
:1024A00001BD80B507F042FB01BD80B507F088FB98
:1024B00001BD80B507F0A2FB01BD80B507F00EFCA1
:1024C00002BD1CB56C46247C009407F061FC13BD72
:1024D00080B507F0A7FC01BD80B507F0AEFC01BDDB
:1024E00080B507F0BBFC01BD80B507F0CEFC02BD96
:1024F00080B507F017FD01BD1FB5099C0394089C2A
:1025000002946C46A48B0194069C009407F012FD83
:102510001FBD80B507F053FD01BD80B507F05AFD22
:1025200002BD80B507F06CFD01BD80B507F094FDDC
:1025300001BD80B507F0A0FD02BD80B507F0DFFD4D
:1025400002BD80B507F0DEFD01BD80B507F0E8FDF6
:1025500001BD80B507F032FE01BD80B507F0AAFECF
:1025600001BD80B507F0B4FE01BD80B507F008FFDE
:1025700001BD80B507F05EFF01BD80B507F062FFC9
:1025800001BD80B507F066FF02BD80B507F0A3FF6F
:1025900001BD80B507F0AEFF01BD80B507F0D8FFE3
:1025A00001BD80B507F0E8FF01BD80B508F05EF819
:1025B00001BD80B508F062F801BD80B508F0EEF805
:1025C00001BD80B508F01AF901BD80B508F03BF9EE
:1025D00001BD80B508F054F901BD80B508F084F95B
:1025E00001BD80B508F0A2F902BD80B508F0B8F9C8
:1025F00001BD80B508F036FA02BD80B508F02CFBAD
:1026000001BD80B508F030FB02BD80B508F042FB8B
:1026100002BD80B508F040FB01BD80B508F086FB27
:1026200002BD80B508F0D2FB01BD80B508F0D6FB35
:1026300002BD80B508F0DCFB02BD80B508F0F6FBFA
:1026400001BD80B508F06CFC01BD1CB56C46247C56
:10265000009408F0A1FC13BD80B508F0E5FC02BDB4
:1026600080B508F0F9FC01BD80B508F005FD01BD9D
:1026700080B508F03FFD01BD80B508F047FD01BD04
:1026800080B508F077FD02BD80B508F085FD01BD7D
:1026900080B508F0C9FD01BD80B508F01BFE02BD84
:1026A00080B508F05FFE01BD80B508F09FFE01BD5A
:1026B00080B508F0D7FE02BD80B508F00BFF02BD63
:1026C00080B508F01BFF02BD80B508F099FF02BD80
:1026D00080B508F097FF02BD80B508F0EDFF02BDA0
:1026E00080B509F043F802BD80B509F05BF802BD82
:1026F00018B587B010AC247806940FAC24780594F4
:102700000EAC247804940DAC247803940CAC24789B
:1027100002940BAC247801940AAC2478009409F05C
:10272000CDF808B010BD80B509F0F6F802BD80B54F
:1027300009F038F902BD80B509F0E4F902BD80B5B1
:1027400009F0FAF901BD80B509F00EFA01BD80B5B6
:1027500009F024FA01BD80B509F038FA02BD80B550
:1027600009F05AFA01BD80B509F084FA01BD80B5BF
:1027700009F09EFA01BD80B509F0E4FA01BD80B50B
:1027800009F000FB02BD80B509F018FB02BD80B561
:1027900009F042FB02BD80B509F060FB01BD80B5C8
:1027A00009F096FB01BD80B509F074FC01BD80B550
:1027B00009F088FC01BD80B509F0ACFC01BD80B515
:1027C00009F0ACFC01BD80B509F06EFD02BD80B51D
:1027D00009F0C0FD02BD80B509F0E8FD02BD80B57D
:1027E00009F01CFE01BD80B509F066FE01BD80B593
:1027F00009F0C6FE01BD80B509F0D4FE01BD80B56B
:1028000009F0F2FE01BD80B509F012FF01BD80B5EF
:1028100009F0C8FF01BD80B509F0DAFF02BD1FB5A0
:102820006C46248C02946C46A48B01946C46248BD9
:10283000009409F0D1FF04B010BD1CB56C46A48A09
:1028400001946C46248A009409F0D1FF16BD1FB58F
:102850006C46248C02946C46A48B01946C46248BA9
:10286000009409F0D6FF04B010BD80B509F0E4FF74
:1028700002BD80B509F0E8FF02BD80B509F0FAFF9E
:1028800002BD80B509F0FEFF02BD10B588B011ACE5
:102890002488079410AC248806946C46A48F059471
:1028A0006C46248F04946C46A48E03946C46248E4C
:1028B00002940B9C01940AAC2478009409F0F2FF76
:1028C00008B010BD80B50AF033F802BD80B50AF03B
:1028D00069F802BD80B50AF07DF802BD1FB508ACED
:1028E000247802946C46247F01946C46247E0094E4
:1028F0000AF078F804B010BD80B50AF0B7F802BD50
:1029000080B50AF0C0F802BD80B50AF0C5F802BD76
:1029100080B50AF0CDF802BD1CB5049C00940AF005
:10292000CFF816BD1CB5059C01946C46247C009420
:102930000AF0D0F816BD80B50AF0DFF802BD80B508
:102940000AF0E3F802BD80B50AF0E4F802BD80B5F4
:102950000AF0E5F802BD80B50AF0EBF802BD80B5DB
:102960000AF0F5F802BD80B50AF0FCF802BD80B5AA
:102970000AF0FCF802BD80B50AF0FCF802BD80B593
:102980000AF0FCF802BD80B50AF0FCF802BD80B583
:102990000AF0FCF802BD80B50AF0FCF802BD80B573
:1029A0000AF0FCF802BD80B50AF0FCF802BD80B563
:1029B0000AF0FCF802BD80B50AF0FCF802BD1CB5B7
:1029C000059C01946C46248A00940AF0F7F816BD21
:1029D0001CB5049C00940AF000F916BD1CB5059CBA
:1029E00001946C46248A00940AF0FDF816BD80B567
:1029F0000AF002F902BD80B50AF006F902BD80B501
:102A00000AF006F902BD80B50AF006F902BD80B5EC
:102A10000AF010F902BD80B50AF010F902BD80B5C8
:102A20000AF010F902BD80B50AF01DF902BD1CB50F
:102A3000059C01946C46247C00940AF01FF916BD95
:102A400080B50AF037F902BD80B50AF039F902BD48
:102A500080B50AF040F902BD80B50AF044F902BD24
:102A60001CB5059C01946C46247C00940AF043F943
:102A700016BD80B50AF05BF902BD80B50AF067F9B2
:102A800002BD1CB5049C00940AF071F916BD80B516
:102A90000AF07CF902BD1CB5049C00940AF084F98C
:102AA00016BD80B50AF08FF902BD80B50AF09BF91A
:102AB00002BD1CB5059C01946C46248A00940AF062
:102AC000ACF916BD80B50AF0B9F902BD80B50AF0BF
:102AD000BDF902BD80B50AF0BDF902BD80B50AF0AE
:102AE000D1F902BD3EB56C46247F01946D46182491
:102AF0002C5700940AF0CAF93EBD1CB56C46248AD6
:102B000000940AF0CBF916BD18B585B00CAC24784A
:102B100004940BAC247803946C46248D02946C4688
:102B2000A48C01946C46248C00940AF0C4F906B07D
:102B300010BD1CB56C46247D01946C46247C009429
:102B40000AF0CCF916BD1FB5089C02946C46247F90
:102B500001946C46248B00940AF0F0F904B010BD87
:102B60001CB5049C00940AF03DFA16BD80B50AF02D
:102B70003FFA02BD1CB5049C00940AF03DFA16BD54
:102B800080B50AF04BFA02BD80B50AF052FA02BDD8
:102B90001CB5049C00940AF050FA16BD80B50AF0EA
:102BA00052FA02BD10B58CB0199C0B9418AC247865
:102BB0000A9417AC2478099416AC2478089415ACC0
:102BC0002478079414AC2478069413AC24780594E4
:102BD00012AC2478049411AC2488039410AC24889B
:102BE00002940FAC247801946C46248F00940AF070
:102BF00037FA0CB010BD1FB5099C039408AC2478BB
:102C000002946C46A48B01946C46247E00940AF0D6
:102C10004FFA04B010BD80B50AF05EFA02BD80B56F
:102C20000AF05EFA02BD10B588B0119C079410AC92
:102C3000247806940FAC247805940EAC2478049480
:102C40000DAC247803940CAC247802946C46A48DCB
:102C500001946C46248D00940AF046FA08B010BD29
:102C600080B50AF05DFA02BD80B50AF05DFA02BDDA
:102C700080B50AF05DFA02BD18B587B0109C0694C5
:102C80000F9C05940EAC247804946C46A48E039497
:102C90006C46248E02940BAC247801940AAC247800
:102CA00000940AF049FA08B010BD10B588B0119C24
:102CB0000794109C06940FAC247805940EAC2478ED
:102CC00004940DAC247803940CAC247802946C46E4
:102CD000A48D01940AAC247800940AF0A3FA08B0F9
:102CE00010BD80B50AF02CFB02BD80B50AF050FB88
:102CF00002BD80B50AF050FB02BD80B50AF050FB62
:102D000002BD80B50AF050FB02BD80B50AF05CFB45
:102D100002BD80B50AF06EFB02BD80B50AF018FC5A
:102D200002BD80B50AF04AFC02BD80B50AF04DFC38
:102D300002BD80B50AF058FC02BD80B50AF05FFC08
:102D400002BD80B50AF05FFC02BD10B588B011ACC1
:102D50002488079410AC248806946C46A48F0594AC
:102D60006C46248F04946C46A48E03946C46248E87
:102D700002940BAC247801940A9C00940AF04FFC56
:102D800008B010BD80B50AF07DFC02BD1CB5059CE5
:102D900001946C46247C00940AF078FC16BD1FB5A3
:102DA000099C039408AC24780294079C01946C4617
:102DB000247E00940AF084FC04B010BD1CB5059C70
:102DC00001946C46247C00940AF0C7FC16BD80B5C3
:102DD0000AF0CBFC02BD1CB5059C01946C46247C1A
:102DE00000940AF0C6FC16BD1CB5049C00940AF0C1
:102DF000C8FC16BD80B50AF0CAFC02BD1CB56C4605
:102E0000247C00940AF0C7FC16BD80B50AF0C9FC0A
:102E100002BD80B50AF0C9FC02BD80B50AF0C9FC4C
:102E200002BD80B50AF0E3FC02BD80B50AF0EEFCFD
:102E300002BD80B50AF0F8FC02BD80B50AF010FDB5
:102E400002BD80B50AF032FD02BD80B50AF032FD48
:102E500002BD38B58CB01B9C0B941AAC24780A9434
:102E600019AC2478099418AC2478089417AC247809
:102E7000079416AC247806946D4654242C57059478
:102E800014AC24780494139C039412AC2478029418
:102E900011AC2478019410AC247800940AF00EFD53
:102EA0000DB030BD38B58EB01F9C0D941EAC24788B
:102EB0000C941DAC24780B941CAC24780A941BACA5
:102EC000247809941AAC2478089419AC24780794CF
:102ED00018AC247806946D465C242C57059416ACE7
:102EE00024780494159C039414AC2478029413ACB5
:102EF0002478019412AC247800940AF001FD0FB0FC
:102F000030BD80B50AF0B0FD02BD80B50AF0B0FD5D
:102F100002BD80B50AF0FAFD02BD80B50AF004FEDC
:102F200002BD80B50AF00DFE02BD80B50AF014FEA8
:102F300002BD80B50AF014FE02BD80B50AF014FE91
:102F400002BD80B50AF018FE02BD1FB5089C0294B0
:102F50006C46247F0194069C00940AF015FE04B090
:102F600010BD80B50AF022FE02BD1FB5099C039476
:102F7000089C0294079C0194069C00940AF01AFE97
:102F800004B010BD80B50AF022FE02BD1CB5049C41
:102F900000940AF020FE16BD80B50AF022FE02BDA4
:102FA00080B50AF025FE02BD80B50AF025FE02BDFF
:102FB00080B50AF025FE02BD80B50AF025FE02BDEF
:102FC00080B50AF039FE02BD18B585B00CAC247886
:102FD00004940BAC247803940AAC2478029409ACD2
:102FE0002478019408AC247800940AF043FE06B0DB
:102FF00010BD80B50AF0C6FE02BD80B50AF0D6FE4F
:1030000002BD80B50AF0D8FE02BD1CB56C46247C1A
:1030100000940AF0E7FE16BD80B50AF0EEFE02BD90
:1030200080B50AF0EEFE02BD1CB56C46A48A019480
:103030006C46247C00940AF0E8FE16BD80B50AF0C8
:10304000ECFE02BD80B50AF0ECFE02BD80B50AF0D0
:10305000ECFE02BD80B50AF0F1FE02BD1CB56C4667
:10306000248A00940AF0EEFE16BD80B50AF0F6FE42
:1030700002BD80B50AF014FF02BD80B50AF01FFF43
:1030800002BD80B50AF01FFF02BD80B50AF022FF25
:1030900002BD80B50AF030FF02BD80B50AF03EFFE8
:1030A00002BD80B50AF042FF02BD80B50AF049FFBB
:1030B00002BD80B50AF050FF02BD80B50AF058FF8E
:1030C00002BD80B50AF065FF02BD1FB508AC2478CB
:1030D00002946C46A48B01946C46248B00940AF0F5
:1030E00063FF04B010BD80B50AF077FF02BD80B564
:1030F0000AF07EFF02BD80B50AF087FF02BD80B5F1
:103100000AF091FF02BD80B50AF09EFF02BD80B5B6
:103110000AF0A9FF02BD80B50AF0B8FF02BD1CB5D8
:103120006C46247C00940AF0B5FF16BD80B50AF009
:10313000CAFF02BD80B50AF0DBFF02BD80B50AF010
:10314000ECFF02BD1FB56C46248C02946C46A48B28
:1031500001946C46248B00940AF0F5FF04B010BD76
:103160001CB56C46248A00940AF0F8FF16BD1CB505
:103170006C46A48A01946C46248A00940AF0F4FFF9
:1031800016BD80B50AF0F8FF02BD1FB5099C039477
:1031900008AC247802946C46247F01946C46247E0B
:1031A00000940BF000F804B010BD80B50BF01AF8D5
:1031B00002BD1FB5099C039408AC247802946C46A8
:1031C000247F01946C46247E00940BF024F804B014
:1031D00010BD30B585B06D4630242C5704940B9C3F
:1031E00003940AAC2478029409AC2478019408ACC6
:1031F000247800940BF031F805B030BDB0B504462A
:10320000002528460BF04CF80649897F491C491EC9
:1032100006D07A22825AC030A242F8D1C038B0BD5E
:103220002846B0BD70320020CA0F00D049420310BA
:103230005A400DD004B500D3404200F009F8009A7E
:10324000D20701D34942124200D5404204BD0000DA
:10325000094214D088420FD30122030C01D100048B
:103260001204002300185B418B4200D35B1A5241C9
:10327000F8D319001000704701000020704708B50E
:103280000BF01EF808BD202801D2002209E06028BA
:1032900001D3032200E00222402800D201221F2392
:1032A000184092008958C14001200840704780B5FD
:1032B0000B46400601D5032000E001208018C1B272
:1032C000002218460AF0FEFF80BDFEE7F0B587B089
:1032D000069316460F46446C25467C35284600F07A
:1032E0004BF8002844D105970496206E616E069A2B
:1032F0005143081800022721C90040181D49FFF753
:10330000A7FF216F4718FE430BF094F88119462060
:10331000B5312DD53E46234674342188059FB942E8
:1033200026D10390A078049A90421CD139461F46BA
:103330001C46DD340D980C9B009301902846069B9B
:1033400000F02EF82070FF280FD00F2238463146AB
:103350000BF092F800280AD020780C21414378180D
:103360007C300BF035F9039802E0072000E00020E4
:1033700007B0F0BD71020000B0B55F23DB43002B46
:103380000AD0C4186425655B8D4203D16625645D4F
:10339000944203D00C33F2E70020B0BD0C20B0BD46
:1033A000FCB5009201910025089F079A2C46602DDC
:1033B00006D04619B179FF2904D00C35641CF6E714
:1033C000FF240AE0EFF3108172B647513272F371B5
:1033D0000098B0710198B08062B6E0B2FCBDFEE723
:1033E0001FB50C4800F01AF80B49884210D16C4602
:1033F000002121720120C0022080072000020190DC
:103400002046093006220AF076FF20460BF0EAF843
:103410001FBDC046FCFF0000FFFF000070B5044662
:10342000FEF7E8FC4D21415C094D0022AA239142A0
:103430000BD00668F65AA642164600D02E464725FF
:10344000AD005B19521C3546F1E7A8B270BDC0460D
:10345000FFFF000010B5FEF7CDFC4D21425C0021BE
:10346000AA238A4208D00468E45A240B05D14724D1
:10347000A4001B19491CF4E7FF21C8B210BDFEE7E8
:1034800010B5044600200BF01FF9044901402088C4
:10349000401A424242414A40228010BDFF0F0000C4
:1034A000F8B50446C0062DD416460D4618480068E7
:1034B0006107C90E401800694122042321460BF020
:1034C0000BF9002820D001460A300671057000274C
:1034D0004F7210220A72CF710A228A71FF224A713A
:1034E00082220A71320EC271320C8271320A42712A
:1034F0002A0EC2702A0C82702A0A427020460BF0F3
:103500004BF902E0862700E007273846F8BDC046A1
:10351000B4330020F0B5CFB01E4614460F46054622
:103520000120010209A8FEF707F9002C33D05498B6
:10353000089007950025284606950BF03AF9059660
:103540004DAE3070010EF170010CB170000A707058
:1035500028460BF02EF93071049449AD30463946B7
:103560002A460BF02CF909AF059800A991C10B4A26
:103570000123079829460BF030F90522089C2046C4
:1035800031460AF0B4FE601D04990A1D39460AF05E
:10359000AEFE069800E012204FB0F0BD51050020AD
:1035A000F0B5CBB00A2A24D31F4616460D465099D3
:1035B000059101210691090207AC04902046FEF70F
:1035C000BBF847AA0392384629460BF0F8F8781D55
:1035D000751F21462A46FEF717FBA8B200940190FA
:1035E00005980290044A04980399069B0BF00FF982
:1035F00000E086204BB0F0BD510500208B0707D0BE
:10360000521E22D30B78491C0370401C8B07F7D144
:10361000830730D0DB4219D0401E121F08D308C9DF
:1036200043701B0A43801B0C0371001D121FF6D24E
:10363000D20707D30B88437001D08A78C2701B0A67
:103640008370704701D00B7843707047121F06D308
:1036500008C903801B0C4380001D121FF8D2D2073B
:1036600005D30B88038005D08B788370704701D019
:103670000B780370704770B4103A03D378C978C0E0
:10368000103AFBD2530701D318C918C001D508C995
:1036900008C0D20704D30B880380801C891C002A31
:1036A00001D50B78037070BC7047002807D0006DFF
:1036B000002804D0406D0860411E884170470020FA
:1036C00008607047F0B59FB0154604461E93020986
:1036D00012200E2A00D98DE02026032903D02A4685
:1036E000324000D086E01B911DAF204639460BF0DA
:1036F000B7F839784048807E81422DD2680030404A
:10370000AA00082313401B18142048433B490968AA
:10371000496D0F187B707A1C6E070F97109107D5B3
:1037200010261E4316702F0703D5502633431370FF
:103730001E462A99EB0702D001231E4316702C9EC9
:10374000042703290B4616900E9707D0042B1B99CC
:1037500007D10323119306E087204BE011971B99B3
:1037600001E0002711972E9814902D9813902B9F0D
:10377000299A1992289A2798179026981590259893
:103780001290032E1B931A97189205D0042E1698A8
:1037900006D103273E4604E00E9F109A169801E0DA
:1037A0000027109A11540BF079F81CA90896139A67
:1037B0000992149A0A92119A0B920C970D911299F0
:1037C0000091019015980290179803901898049012
:1037D000199805901B9806901A9807901EAA24AB7A
:1037E000204629460AF08CF8002803D10F9A9474D9
:1037F000012111741FB0F0BD70320020B8330020D9
:103800007CB5064600090E2801D912207CBD14465D
:103810000D463046FEF7A4F9002800D07CBD01A972
:1038200030460BF01DF80028EFD001A800781421D5
:10383000414304480068406D4018C5818460002001
:103840007CBDC046B83300207CB5064600090E2872
:1038500001D912207CBD1C4615463046FEF7E6F81D
:10386000002800D07CBD01A930460AF0F9FF0028ED
:10387000EFD001A800781421414304480068406D4E
:1038800040188581446000207CBDC046B8330020CC
:10389000F0B585B005463F48807E884201D21227A8
:1038A00074E016460C463C480068406D0290012DBD
:1038B000019514D10394641C3546641E12D02878F7
:1038C00004A90AF0CDFF00283ED0AD1D04A8017860
:1038D00001200AF0F7FF0028EFD0074656E00C2041
:1038E000009004E00BF048F80090019D039C2846EE
:1038F000214632460AF0BCF80746002846D1002C83
:1039000024D0002C34D00394307804A90AF0A8FF06
:103910003079002802D17088002813D0022404A82E
:103920000778012128463A460BF044F8002D00D1D3
:103930002C4614207843029908184474B61D039C41
:10394000641EDEE70124EAE7D3271FE0029E11365A
:103950000024104FB87E84420AD2E2B20025012131
:1039600028460BF027F83570019D1436641CF1E7EA
:10397000012D08D10098002807D100273846394684
:103980000BF078F802E00BF09DF80027384605B000
:10399000F0BDC04670320020B8330020F0B599B0B9
:1039A0000393049205910690204800680146303147
:1039B0001791169101463C311391816B1891C16C9E
:1039C000006D149115901E98097B012901D10221E7
:1039D0000843002116A60F460C291ED03278024259
:1039E00018D016AA52581388FCB2240107AD2B53E5
:1039F0002B1952885A8013AA525814889C805488D4
:103A0000DC8094881C81D4885C8114899C815289D3
:103A1000DA817F1C761C091DDEE707A90090019161
:103A200003AB0FCB09F032FE19B0F0BDB833002064
:103A300001020400F0B587B00A46019016490868F3
:103A40000346303305930090836B0693002305AC47
:103A50001E46022B13D011A0C75C17420CD0F7B240
:103A6000062179432768387902AD68546818398887
:103A7000418079888180761C241D5B1CE9E7292020
:103A80000099095C02AB01980AF032FB122800D1C0
:103A9000D12007B0F0BDC046B833002001040000BB
:103AA000B0B50546002213460AF037FB0446002D48
:103AB00006D106480068C06A00211C220AF01BFCDF
:103AC000122C01D12E20C443E0B2B0BDB833002087
:103AD000F0B585B002930392049107462748046825
:103AE0000AF0DCFE05465E200021019121542646A5
:103AF0005D363806800F0DD03078C006800F05D0B7
:103B000000200146FEF7DFF9002835D10498009027
:103B1000002322E078071DD4F806810F29D028342D
:103B2000002804D5607802210143032923D13807F6
:103B300004D560780221014302291CD10AF0AEFEAF
:103B40000499FEF7BCF9002816D121780120FEF770
:103B5000BAF907E0049800900123029803992A46D5
:103B6000FEF7A6F9002807D1307838433070019865
:103B700002E0122000E0D12005B0F0BDB8330020F3
:103B8000F8B504461220002C16D0611E0C4213D149
:103B9000174E37685D20385C20420ED0C4210C429D
:103BA0000DD009F06FFDA10706D0002804D13068C0
:103BB00002210AF0A5FF0020F8BD0C20F8BDE106A7
:103BC000890F01D04006ECD4002528462946FEF78F
:103BD0007AF90028E7D15D3769464D700C703D7069
:103BE00002200AF0AFFF0AF06DFF2846DBE7C0466F
:103BF000B833002010B586B001AC08A114222046CD
:103C0000FDF77EFD0A4800687221405A00940421A5
:103C10000122084B0AF0F8FF06B010BDFB349B5F91
:103C20008000008000100000002A0000100000004A
:103C3000B8330020FFFF00001CB511480468FEF7F0
:103C40004EF9882807D00C2805D05D34002808D10B
:103C5000022060701CBD05200AF0EAFF0BF042F85C
:103C60001CBD0020607020787F210140217001A9D7
:103C7000862048708020087002200AF063FF1CBD77
:103C8000B8330020BCB5104A14685D22A25C00283D
:103C90000AD18020104007D07234218005200AF01C
:103CA000C7FF0BF01FF80CE0DC2002420BD05D34A4
:103CB00001A900254D7002400A7002200AF042FF5F
:103CC00025700AF0FFFEBCBDB8330020012903D1E6
:103CD000018901200840704708214056042802D875
:103CE00002A1085C704700207047C0460101000037
:103CF00001000000F0B587B001291AD1034608334E
:103D00001F8801263A077CD402910193817A0346E9
:103D10000B33046AC57FF8060493039114D4002280
:103D200018460BF0ADF801285DD0002802990CD0A0
:103D300067E0027A042A01D1012662E04469057C29
:103D400000200490039000E002992F4800680127AA
:103D5000BAB20026AA421BD213195B1E1B78002B95
:103D600016D0A25C7F1C012A01D0FF18F0E75D226B
:103D7000825CD30708D192070AD5BAB2A25C0326A7
:103D80001640721E964103E0BAB2A25C01261640AC
:103D9000012936D1002E24D00199098870220A40C9
:103DA000202AC9D10026F443C06AC71F032C28D09B
:103DB00005A90020887188800590FF1D07223846DC
:103DC0000AF0A0FA0006641C0028EFD1032C0AD8E0
:103DD00006223846049C21460AF089FA0399B971F3
:103DE00003E000260DE0049C03990198008820223E
:103DF00002404032402A9FD10126204632460BF035
:103E00003FF8304607B0F0BDB83300201CB511486C
:103E1000046800200146FEF756F801A948705D20AD
:103E2000205CC1075D34002905D001A901220A7078
:103E3000FE2108402070810705D501A902220A70E1
:103E4000FD2108402070022001A90AF07BFE0AF043
:103E500039FE1CBDB8330020BCB511480068446D64
:103E6000FEF732FC002802D00E48807E00E00120E0
:103E7000C5B21134002D11D0207800280BD0204677
:103E80000F380078800706D560786A4610700020E9
:103E90000121FEF709F814346D1EEBE7BCBDC046E6
:103EA000B83300207032002080B508460BF010F8BF
:103EB0000AF008FE80BD7047B0B50C4605460A48BA
:103EC00000685A21405A0AF031F801200BF068F8D6
:103ED000002801D08620B0BD287820210143297018
:103EE000092020700020B0BDB833002070B588B024
:103EF00014460D460646C00705D0284621460BF05D
:103F000063F8002819D1B00701D4002015E004AAF5
:103F1000204629460BF06DF8002804D004A80021A3
:103F200010220AF0E8F96E4630460BF075F804AA44
:103F300028462146334609F091FF08B070BD10B500
:103F40000446C00704D00BF077F8002800D010BD5D
:103F5000A00701D4002010BD09F0B1FF10BDFEE79D
:103F6000F8B504460020C5430A480068466D12367D
:103F7000094F6D1CB87E854207D230781436214631
:103F800009F072FD0028F4D0F8BD20460BF058F877
:103F9000F8BDC046B833002070320020F0B58DB0B7
:103FA0000BA8002484800B94104D114E2746A87E48
:103FB000874218D200220A920120089007920690A8
:103FC0007F20059004920BA8039002920720019095
:103FD0000096F8B2099002212023FFF773FB7F1CA3
:103FE0000028E4D000E020460DB0F0BD7032002083
:103FF000FFFFFF00FEB504460F4DA87E0F4909687C
:104000004E6D113600270097C1B28F4212D231781F
:1040100001290CD101AA0020107150807078107015
:104020000121204609F024FD002804D1A87E143681
:104030007F1CE9E70098FEBD70320020B8330020F5
:1040400080B50120FFF7D6FF80BDFEE7B0B5096857
:1040500083240022002912D0CD690024CC61087A83
:10406000C00603D400200AF0EFFF02E008460BF080
:1040700025F8012200282946ECD083240CE0D00743
:104080000AD0EFF3108072B6044800688521425CC4
:10409000521E425462B60024E0B2B0BDCC330020C0
:1040A00010B50C68207BC00708D0002101222046F3
:1040B0000BF012F8207BFE21014021730E480068AE
:1040C0002C21405CC00703D120460BF018F802E019
:1040D00020460BF0A3F8002801D0832010BDEFF399
:1040E000108072B6054800688421425C521E42541A
:1040F00062B6002010BDC046B0330020CC33002093
:10410000F8B5002420460BF0BDF805460122304BDF
:104110002746009218683421405C844250D22C20FB
:10412000285CFE21014002293ED149208600A85B7F
:10413000C0060DD5698F002002460BF0B1F80728A4
:10414000009A10462ED0A8190188102291430180B0
:104150002846FEF7C9F90028009A104622D12846C1
:10416000FEF7BEFA009A002810461BD1E6B2304690
:10417000FEF7D3F9009A0028104613D13046FEF717
:10418000D8F9009A002810460CD12846FEF7F9F914
:10419000009A0028104605D13046FEF72AFA009A08
:1041A000411E88410A4B00E00020411E884139062B
:1041B000174600D107460B2040012D18641CA9E7C3
:1041C000380603D0122001210BF0A0F8F8BDC0463C
:1041D000B033002001207047032070470120704752
:1041E000012070470120704701207047012070476F
:1041F00001207047F0B54278002A30D0014600789F
:10420000022801D90C20F0BD1220022A04D3142A5E
:1042100002D88E78022E00D9F0BD4B79012B07D140
:1042200024231F4CE55C1123092D16D21846F0BD3E
:10423000002E14D009790229EED34B29ECD8232083
:10424000174A125C4B2A104600D34B20022A00D298
:104250000020884203D21120F0BD002E01D00020A2
:10426000F0BDCE78771E012FD6D809790229D3D395
:104270004B29D1D8522D00D35225083D6E43B01D95
:1042800080088242D2D82320225C4B2A104600D3D9
:104290004B20022A00D2002088421846BCD3DEE719
:1042A0007032002070B50B4C0125042220462946AF
:1042B0000BF042F8084E30600622204629460BF0EB
:1042C0003BF83168086030680168002088804880C9
:1042D000087070BD6C320020AC33002010B50C4665
:1042E00008794979090208180BF038F820796179C2
:1042F000090208180BF072F8207961790902081890
:104300000BF09AF80BF0C2F82079617909020818CD
:104310000BF0BEF8094800683221405CC0060BD59E
:104320002079617909020A18A379E17802200BF05B
:10433000D1F8002800D010BD002010BDCC330020E3
:1043400010B5044608794A7912021218C978062075
:104350000BF0F4F80748006832214056002801D4D9
:10436000002010BD1620E070A078BF210140A17090
:10437000842010BDCC33002010B5044608794A795A
:1043800012021218C97807200BF0D8F80748006805
:1043900037214056002801D4002010BD1720E070BE
:1043A000A078BF210140A170842010BDCC33002033
:1043B000B0B50D460446087900281DD16879A97961
:1043C000090208180BF034F96879A979090208186C
:1043D0002A7AE9792B4609330BF04EF96879A979E5
:1043E000090208180BF062F96879A979090208181E
:1043F000E9790BF07BF928796979AA7912025118C9
:10440000EA790BF082F90948016839200A5C00203A
:1044100092060AD53931497AC90706D01820E070CA
:10442000A078BF210140A1708420B0BDCC33002012
:10443000FEB50D4604460879002823D16879A9798C
:10444000090208180BF0F4F82A7AE9796879AB794F
:104450002E4615362F460F37009701961B02181867
:104460002B4609330BF05BF96879A9790902081822
:104470000BF01CF96879A97909020818E9790BF0A1
:1044800035F928796979AA7912025118EA790BF07D
:104490003CF90948016839200A5C002092060AD5D7
:1044A0003931897A890706D51C20E070A078BF21B0
:1044B0000140A1708420FEBDCC33002070B50446BD
:1044C000144D28683626805D00280ED108794A7977
:1044D000120210188A7BCB7B1B029A18891D0BF0E5
:1044E00045F92868805D002812D00B480168392002
:1044F0000A5C002092060AD53931497AC90606D5E8
:104500001920E070A078BF210140A170842070BD07
:10451000002070BDB0330020CC33002010B504461D
:104520000879491DFDF797FD0A48016839200A5CA2
:104530000020920604D5393109228956002900D479
:1045400010BD1A20E070A078BF210140A170842026
:1045500010BDC046CC33002010B504460879491D73
:10456000FDF77DFD0948016839200A5C00209206AC
:104570000AD53931897AC90706D01B20E070A078A6
:10458000BF210140A170842010BDC046CC33002063
:10459000B0B505460024084621460BF067F900280F
:1045A00010D0094800683921415C89060AD53930A4
:1045B000407A800706D50020E870A878BF21014026
:1045C000A97084242046B0BDCC33002009490A6874
:1045D0003921535C00219B060AD53932927A520761
:1045E00006D51D21C1708178BF220A4082708421C6
:1045F00008467047CC330020B0B504460125084674
:1046000029460BF033F90146002000290FD0084954
:10461000096839228A5C920609D53931897AC90636
:1046200005D5E570A078BF210140A1708420B0BD00
:10463000CC33002009490A683921535C00219B06CC
:104640000AD53932D27AD20706D01E21C1708178BC
:10465000BF220A408270842108467047CC33002074
:1046600010B504464A7908791146FDF754FC09480B
:10467000016839200A5C002092060AD53931C97ACE
:10468000890706D51F20E070A078BF210140A170E6
:10469000842010BDCC330020FEB50D4604460879B9
:1046A000002823D16879A979090208180AF0C0FF07
:1046B0002A7AE9796879AB792E4615362F460F3775
:1046C000009701961B0218182B4609330BF027F8A8
:1046D0006879A979090208180AF0E8FF6879A979C8
:1046E00009020818E9790BF001F828796979AA79A3
:1046F00012025118EA790BF008F8094801683920CC
:104700000A5C002092060AD53931897BC90706D098
:104710002020E070A078BF210140A1708420FEBD60
:10472000CC330020F8B5184C01250422174E204642
:104730002946B047164F3860102220462946B04718
:10474000396808600C2220462946B0473968096854
:10475000C860104DE98924222046B04701463868D8
:104760000268D06881600021082903D000235352D9
:10477000891CF9E7E989D18000211181E98941800B
:104780000BF08EF8F8BDC0466C32002039F30410EF
:10479000D4330020703200200C2070470120704775
:1047A000B0B50546002420460BF096F8002801D04D
:1047B0000C2404E0012D02D10120FDF7DCFF20468E
:1047C000B0BDFEE7B0B50A4A12684223D45C7F252B
:1047D0002540D554002802D00BF09EF8B0BD084605
:1047E0000BF0B6F80E200AF023FA0AF07BFAB0BDFF
:1047F000D833002070B51D4E32684225535DDB066C
:1048000028D5002816D0A432194800683421405C0D
:1048100074214143002399421CD01068002807D01E
:10482000C0180489002C03D017240457002C12D47C
:104830007433F0E74920800010182024224609F044
:1048400056FD3068415D214341550E200AF0F0F9D4
:104850000AF048FA70BD0B21002201230BF08AF800
:104860003068415DCF220A40425570BDD8330020E8
:10487000B033002001207047F8B52226254B995D02
:104880008620402902D81A7B8A4200D9F8BD224DE1
:1048900028683022815430300024447034224A4346
:1048A000406821461F4609F026FDB95D28680A22A6
:1048B000A14206D0436B671C40349C5234323C46C4
:1048C000F6E738300BF06CF8286840300BF068F8E9
:1048D000296800200A4654320B464C33C8640B65E5
:1048E00048658A650B4A925D52000346DCB2A242DB
:1048F000CCD92401896C09190026CE6029688E6CF8
:104900003619096D0E6029688E6C34190C340C65EB
:104910005B1CEBE770320020C8330020F0B587B095
:104920000027604E604B05972220305C874200D301
:10493000B6E034247C431A68556B2819C1780029E5
:1049400000D1ABE00379002B00D192E0192B0CD001
:104950002E5B4589072B38D0162B75D0062B7FD1BF
:10496000304629460BF020F879E05E2978D102978D
:10497000156C00200590012003904B4B002D7AD040
:104980002E461868406B005BED6931888142F5D195
:104990000021304604910BF089F807460221304689
:1049A0000BF084F8404B1968496B09190A8A904248
:1049B000E4D1488B8742E1D903200AF039F90AF0A3
:1049C00091F9842005900498D6E7D02948D14179FF
:1049D00030462A460BF07AF80590002843D1334838
:1049E00000685121405C80071FD53148006880690C
:1049F00042214E22032309F06FFE002815D0014604
:104A00000573867208204872042008720020C8715D
:104A100006208871FF20487182200871280A487397
:104A2000300AC872422009F0B7FE1F480068406B88
:104A300000198178090728D50089272825D1304613
:104A400029460BF0A7F820E0112909D12021435C69
:104A5000C28806A80090304629460BF0C1F80590A0
:104A60000598002811D001200AF0E2F80AF03AF97E
:104A70000C4E0D4B12E00398C007029FF3D00A487A
:104A80000068406B00195F21C170074B1868406BCC
:104A900000190021C18005910171024E7F1C43E77E
:104AA00007B0F0BD70320020C8330020CC330020A6
:104AB000B4330020F8B50446222018490090085C61
:104AC00000270326164DC1B28F4212D22968496BC6
:104AD0008A19D21E1288A24208D1895D002905D008
:104AE000F8B20BF007F900980C49085C34367F1CCB
:104AF000E9E710200125002621462A4633460BF01F
:104B000021F9202021462A4633460BF01BF9204686
:104B1000294632460BF042F9F8BDC04670320020FB
:104B2000C8330020F8B501460079274AD27A90426E
:104B300022D209684B681A7A961F0024142E1CD8BA
:104B400014224243214D2D68ED6AAD180A885B7A24
:104B50007E4436797600B7440A12101010101010F7
:104B600010101010101015191C20262B310028468B
:104B70000BF064F9044600E002242046F8BD0BF077
:104B8000CBF9FAE728460BF02DFAF6E70BF0ECFA32
:104B9000F3E728460BF080FBEFE700931723284646
:104BA0000BF0F8FBE9E7009318230BF04DFDE4E769
:104BB0000093192328460BF083FEDEE700931A23A7
:104BC0000BF098FFD9E7C04670320020C8330020B0
:104BD000801FC1B2142903D840B202A1085C7047FB
:104BE00000207047010100000000000000000000EC
:104BF000000001010101010101000000F8B5017888
:104C00004468012921D000295FD1258820460BF076
:104C1000DFFF29460BF0E2FF22212E4A515C884239
:104C200053D2217ADF220A402272342141432A489A
:104C30000068406B4018C17F80220A43C27704207D
:104C400009F0F6FF0AF04EF842E06688258828460B
:104C50000BF0E2FF0746022120460AF027FF0096EC
:104C6000002E32D0002F30D01122064629460BF0FC
:104C7000EFFF2221174A515C884226D2304629464E
:104C80000CF00AF83421414313480068426B511874
:104C900021228B5CCA89002B00D1921C009B92B20E
:104CA00093420BD84A8C002A08D02231521E0A8027
:104CB000383021460CF012F80220C1E706200871B6
:104CC000012009F0B5FF0AF00DF820460CF00DF8B0
:104CD0000020F8BD70320020C8330020F0B585B048
:104CE00072480068816B002900D1DCE038300CF09C
:104CF00005F80446058828460BF08EFF0746022675
:104D0000204631460AF0D2FE29460BF0C5FF002F9F
:104D10004DD0054622206649085C854247D234279B
:104D20006F4362480068416BC819C278112A3ED1AE
:104D30006288002A3BD0049221220392825C002ADE
:104D400006D0531E012B50D8C28C808C042321E046
:104D5000042120460AF0AAFE54490B68596BCA196F
:104D6000029292890190904219D80093049B022BE1
:104D70001DD30298826A002A00D08FE00122039B93
:104D8000C2540022C284019B83841846049B9B1E4C
:104D900004930623801A049A92B290420BDAC8193F
:104DA00006210171012009F043FF09F09BFF204615
:104DB0000BF09BFF94E7284621460BF0A9FF3B48E8
:104DC0000068416BC819C28C049BD318C384828CC1
:104DD0009BB2934202D20399465453E0213093424E
:104DE00002D10322027002E00278032A4AD1C819D4
:104DF0008278120711D50289272A0ED1816A0120F3
:104E00000BF0D0FF002841D128480068406BC01942
:104E10000021039A8154816234E0264A12685123AA
:104E2000D25C92062ED5C95B0491818C0391468C8D
:104E3000478921480068806942215322042309F0F0
:104E40004BFC002822D00146039B03743246867334
:104E50000773049E8672082048720D200872002095
:104E6000C8710A208871FF20487182200871180AD1
:104E70004874100AC873380A4873300AC87242204E
:104E800009F08AFC28460BF0C7FF29E7022009F049
:104E9000CFFE09F027FF05480068009000983830E1
:104EA00021460BF0DBFF05B0F0BDC046C833002043
:104EB00070320020CC330020B4330020F0B585B030
:104EC00081880468807904AA10702222344B9A5C8D
:104ED00065882688904208D104AB30462A460BF0FC
:104EE000C7FF002858D104A8007834210391484313
:104EF0002C4F3968496B0818018A30460BF0E4FFE3
:104F00003968002803D004A80278039F21E0C86C08
:104F1000002843D002950A464C32C3681360054608
:104F20000C350195002B00D10A6504AA1278039F65
:104F30003B4653434D6BEB181B8A00258560C560CB
:104F4000896D08600680438016480168019888656D
:104F5000029D7A43486B8018028A022120460BF09A
:104F6000C5FF0426204631462A460BF0BFFF0D4DF3
:104F700028685C3021460BF0B1FE304609F058FE3F
:104F800009F0B0FE04A8007878432968496B081836
:104F9000817F491C8177002005B0F0BD8820FBE7A8
:104FA00070320020C8330020F0B587B08C4E3068D6
:104FB000406D0590059F002F00D10FE1F868059026
:104FC000398878880BF00AFE22258649495D884297
:104FD000F0D2342343433068406BC018C0785F2858
:104FE00001D01128E6D1BC68002C049312D0A01C7B
:104FF00003906288002A22D0207A8006DAD43068B2
:10500000406BC1181F23CE56FB88002E029168D436
:10501000734E73E0798838880BF072FF044630686D
:10502000002C4FD05C3021460BF082FF6088BC60C2
:105030000021F980B8806180A01C0390049B306837
:10504000406BC018818B0029B4D0FE88B9888A1BB8
:1050500091B2808A814200D30246002E00D1921C78
:10506000029292B2002E00D0B61CB1B2019120463D
:105070000BF03CFFB01C81B27A8820460BF036FF63
:105080000298001D03990880002020822073E68189
:1050900060686061A061217A2943217206AA0199A2
:1050A0000BF05CFFA06120460BF068FF002800D0E9
:1050B0008FE04B4E3068406B04994018818B491E3D
:1050C000818377E739460C31436DBB4228D01A46BD
:1050D000DB68BB42FBD10B68D360002B27D10C32BD
:1050E00024E01F3101917F210E4001990E70002BA9
:1050F00001D10121CB433A4E9B18FB80B9889AB26B
:105100008A420BD10625A581638002980089272851
:1051100014D1002021460BF045FE4AE0049B90E7A5
:10512000024654320B681360002B00D182650022C6
:10513000FA60006D0760306801653BE720460BF0C0
:10514000D4FD294800685121405CC00631D524486F
:105150000068406B04994018868B40890290BC8897
:105160003888039021480068806942215022042336
:1051700009F0B2FA00281CD0014606748473029B21
:105180000373039A8272082048720D720020C8715E
:105190000A208871FF20487182200871300A487403
:1051A000200AC873180A4873100AC872422009F00E
:1051B000F3FA0020B8600A4E3068406B049940183A
:1051C000817F491E81770598002800D00746059702
:1051D000F0E6042009F02CFD09F084FD07B0F0BDD5
:1051E000C833002070320020CC330020B4330020BC
:1051F000F8B51D4C206840300BF0CAFE010431D0D8
:105200000090206840300BF079FD05464688341D3B
:10521000A1B20BF0C6FE00272846394632460BF0F5
:1052200065FE6C80104C2F82EF812F736868686177
:10523000A861287A02210143297228460BF09EFEBC
:1052400000280CD06888001F6880206840302946FC
:105250000BF044FD032009F0EBFC09F043FD00983E
:10526000401ECBE7F8BDC046C8330020F8B5054660
:10527000012068210BF0A0FE234F3860234EF07A06
:10528000142421460BF098FE01463868C162012DB6
:1052900010D15C300AF084FB2225705D34210BF0C4
:1052A0008BFE39684863705D400010210BF084FE6E
:1052B00039688864F07A411C154D012228460AF0AD
:1052C0003BF839680862F17A022228460AF034F87D
:1052D0003D686862F17A0F4A072328460BF076FE94
:1052E000386817210185318C172901D28620F8BD35
:1052F0004185F17A4C43C06A0021224608F0FBFF49
:10530000FCF7B5FEF8BDC046C8330020703200205F
:105310006C320020DDB50710F0B589B00546C87DB8
:10532000012861D10C462F462C3729468031387828
:105330000228059106D1A068C11C06A80A2208F01F
:10534000D6FF1CE06068C11C06AE0A22304608F099
:10535000CEFFB3883188E86CF288368900920196D6
:105360000A460BF048FE002809D0B8780BF06CFE16
:1053700005984068016801229143016032E02E46A1
:10538000F43606A8018800890003F2888A4212D107
:1053900006AA92882B8F934211D106AAD288049232
:1053A00032880393049B9A42039B07D1AA6E8242E0
:1053B0001A4604D111E006AA928800E01A462A870C
:1053C000F1806866A86606A8C088708030800120D9
:1053D0000002059A116801431160F98A06A80BF0D2
:1053E00045FEB0800020E07509B0F0BDF0B589B091
:1053F000012B00D0A1E000AB07C30F980E990391D9
:1054000029214F4C615C4A1E9141E27F08920BF0CA
:1054100045FE0690E67A049601271821494C384645
:10542000A0472346484C216890254959C86340212C
:105430003846984721684959C96B08600B204401D8
:10544000304621463F4A90473F4909684959C96B50
:105450004860089887400BF02BFEF8B20821394AC3
:1054600090473949096808954959C96B0968242248
:1054700000268E54086224314F70059404984443EA
:105480000794069D089C0798B0421BD00127384618
:1054900029460BF091FD2C4909680959C96B4968E7
:1054A000891984228850384629460BF085FD264903
:1054B00009680959C96B4968891988228850059873
:1054C0003618E0E700980128049C09D10E212046F7
:1054D0000BF072FD1C490968089A8958C96B8860ED
:1054E0000198012809D1082120460BF065FD1649D5
:1054F0000968089A8958C96BC860029801280FD1B9
:10550000242120460BF058FD0F4D2968089A895830
:10551000C96B0861012011210BF04EFD2968086656
:105520000398012809D11C2120460BF045FD0649AE
:105530000968089A8958C96B486109B0F0BDC0462E
:1055400070320020B90F0510CC330020FEB5029157
:1055500001902148006800273C4690254159C96BBD
:10556000096824228A5C944234D2096ACA5D012AFD
:105570000FD1CE19B279C0231340402B09D1C9599C
:105580007268002302980BF0C9FD002804D112486C
:1055900000680837641CE0E70198076840680290DB
:1055A00030460BF0DFFD0646EFF3108072B60A4876
:1055B00000684059C06B00682030E1B20BF0F8FD84
:1055C0003846029C21460BF011FE62B6B4203750DB
:1055D000B4367460FEBDC046CC330020F8B5164624
:1055E0000F4604460BF016FE0546F820225A3846B0
:1055F00029460BF01AFEA84201D1464302E0711E73
:105600004D432E180125012E1AD093204700204625
:105610000BF01CFEB042014600D33146E2190028CF
:1056200000D131461088C00709D042342088528802
:10563000101A80B2022803D3451E8D4200D30D46B6
:105640002846F8BDB0B5044632250BF02DFE445572
:105650000020B0BD70B50024204609F013FE0546B9
:10566000094E30683421415C8C420CD2E321695CE4
:10567000C90703D028460BF021FE30680B214901F1
:105680006D18641CEEE770BDB033002070B50024C7
:10569000204609F0F7FD0546094E30683421405C8C
:1056A00084420CD228460BF0ADFE002802D02846DA
:1056B0000BF0A8FE0B2040012D18641CEDE770BD17
:1056C000B0330020F0B595B0CD1E6F426F41FF247E
:1056D000FD2635421AD1002A18D00E92089407915F
:1056E0001A990A680692496814C8D0B20B901C9E99
:1056F0001B980D900F921006099305910C9607D0F8
:10570000200CC2B2402A07D3002006E020460DE15B
:10571000002001460E9E0CE001200E9E0B99491EB2
:105720004B424B411840C0210A40403A514251413E
:10573000194072077E4E0A94234633400D9C0F9EFB
:10574000266063600C9C002C01D080232370D40F52
:10575000784E326890230493D25892685D23D35CCC
:10576000002B13D0002811D0002C0DD10120079957
:105770000329099A03D11146014000D1D6E0022144
:105780000A40D11900D1D1E00898CFE0002B4CD0CD
:1057900000294AD00B940A9B14930F9C139412A8CF
:1057A00000260670116A03C910AA009601922246CB
:1057B0000CF09CF8691E8D410E990F092F400123B2
:1057C00000280E935BD008970B9D5A4800680499F7
:1057D00040588068016A096810AA1278D2008A18B5
:1057E00007215156002931460D9C5BD512787F2147
:1057F000114011AA117028224A43036840689A1880
:105800002623D25CD20083185B688058DA0F484F99
:105810003B4009C412A802700C98083C002800D034
:105820000170002633460E993CE0084319D10F98C9
:105830000A990CF0BFF8010613D4282141433068BF
:10584000049A80588068006840182521455C0CF057
:10585000D5F841424141002D00D00121012908988D
:1058600064D10097099801900698029005980390DA
:105870000B980F990A9A23460CF0CCF856E013A81F
:105880000CF0F8F8002F50D008970B9D12A800904C
:1058900011AA20460A990D9C23460CF00DF90646E4
:1058A00000231946207802221043002D10D1012731
:1058B000099D2F407C427C412A4057425741079D19
:1058C000032D00D03C46002B15D0002C2BD12CE012
:1058D000721E964100290E9900D13146012924D12A
:1058E0002168069A914220D16168059A5140104A78
:1058F00011421AD11AE0731E9E4100290E9B1946CF
:1059000000D13146012909D112A909784A1E9141D5
:10591000002C00D10B46002B07D007E0504250412D
:105920000899014201D0FE2000E0FF2015B0F0BD33
:10593000FFFFFF00CC330020F0B58DB00691076863
:10594000039041683806139E129D059307920895AF
:105950000FD00C46080CC1B2C0220A40403A504257
:105960005041FAB2531E5A425A41402905D30021F0
:1059700004E00C460020014602E0012110401140E5
:105980008025089A1570764B22461A403760049697
:105990007260744A12689026925992685D23D35CB3
:1059A000002B17D0002915D00798C00700D0D3E0EE
:1059B00001200699002900D1CFE0059909688F429E
:1059C00000D0C9E0059949686140654A114200D09C
:1059D000C2E0C2E0002B16D0002814D021460C945F
:1059E0003C460B97069803281FD10AA80090204632
:1059F000089A049C23460CF05FF800285DD02178BB
:105A000002200843A9E0421E904101432FD03846AE
:105A100021460BF0CFFF40B20028089900D408704F
:105A2000009104980190039841E00B46116A03C964
:105A300009AA002700970192039422461C460BF006
:105A400055FF00283ED0474B186880598068006A8F
:105A5000006809A90978C9004018072141560029A2
:105A600034D40898057001200022049D4CE0039F67
:105A700003CF083F0BF09EFF0106089D13D4394960
:105A8000096889598968096828702822424388185A
:105A90002521445C0BF0B2FF41424141002C00D073
:105AA0000121012958D100950498019038460699A2
:105AB000079A059B0CF04AF84FE0079800284BD155
:105AC000FE204AE00BA80BF0D5FF45E000787F22CE
:105AD0000240089802700AA80770282050431A68EC
