:020000041004E6
:100000000000012011650710A1680710A368071000
:1000100000000000000000000000000000000000E0
:10002000000000000000000000000000A5680710AC
:100030000000000000000000A7680710A968071072
:1000400053150410971504100F1C04107B31041075
:100050000000000000000000000000001B3204103F
:10006000FB3C0410E33D0410674504108B5D041055
:10007000FF610410B168071000000000DD68071080
:10008000DB620410BB680710CD6807100000000099
:10009000C56807100000000000000000BD680710E0
:1000A000C7660410D56807109B6B04109F6E041080
:1000B0008B71041000000000000000000000000030
:1000C000EC3300204E6600003C0008080600AA0041
:1000D000F7000000FFFFFFFF6400021008040204A5
:1000E000F7000808520101020202020000010003A9
:1000F0000004000006040000D53406101D040000B2
:1001000013350610010C00004F350610150C0000C9
:1001100079350610160C0000BF3506102D0C0000B6
:10012000FF350610480C000061360610490C00002F
:10013000A1360610630C0000CF3606107B0C0000C1
:10014000FB3606107C0C00005F3706100110000023
:10015000B9370610021000002B38061003100000FB
:100160007D38061009100000C7380610051400007D
:100170001539061001200000753906100220000014
:10018000A339061003200000F739061005200000EF
:100190003D3A0610062000006D3A061007200000C8
:1001A000CD3A061008200000093B06100920000087
:1001B0003D3B06100A200000713B06100B2000009A
:1001C000A33B06100C200000ED3B06100D200000A4
:1001D000213C06100E200000DB3C06100F20000022
:1001E000093D0610102000004D3D061011200000B2
:1001F0007D3D061012200000B13D061013200000C6
:10020000E33D061014200000773E06101520000084
:10021000A93E061016200000153F0610172000000A
:100220004D3F061018200000A33F061019200000C3
:10023000E93F06101A200000394006101B2000007C
:10024000854006101C200000D74006101D2000002D
:100250001F4106101E200000534106101F20000001
:100260008B41061022200000CB4106102320000005
:1002700029420610242000007942061025200000A3
:10028000C142061026200000ED4206102720000083
:1002900019430610282000005543061029200000AD
:1002A0008B4306102A200000BD4306102B200000BF
:1002B000F94306102C200000454406102D200000B4
:1002C000994406102E200000CD4406102F20000077
:1002D0000B450610302000007B4506103120000041
:1002E000E5450610322000001D46061033200000B0
:1002F0006D46061034200000A5460610352000008B
:10030000DF46061036200000154706103720000093
:100310009F47061038200000E147061039200000F2
:100320001B4806103A200000AD4806103B20000094
:10033000F54806103C200000334906103D2000001F
:10034000674906103E200000994906103F20000032
:10035000E549061040200000214A06104120000017
:10036000694A0610422000001B4B06104320000083
:10037000654B061044200000514C0610452000003B
:10038000AB4C061046200000DD4C06104720000054
:100390001B4D061048200000534D06104920000058
:1003A0008B4D06104A200000BD4D06104B2000006A
:1003B000FB4D06104C200000414E06104D20000061
:1003C000974E06104E200000E14E06104F20000010
:1003D000194F061050200000694F061051200000F0
:1003E000B94F061052200000F94F061053200000AC
:1003F0002F500610542000008D500610552000008C
:10040000E7500610562000003D510610572000000E
:100410009B51061058200000E95106105920000099
:10042000415206105A200000815206105B20000045
:10043000E15206105C200000395306105D200000D8
:100440009F53061060200000E95306106120000051
:100450005154061062200000DD5406106320000095
:10046000F555061064200000355706106520000081
:10047000B957061066200000EF57061067200000ED
:1004800029580610682000007758061069200000DF
:10049000E95806106A200000735906106B2000000E
:1004A000A55906106C200000095A06106D200000A6
:1004B000475A06106E200000815A06106F20000077
:1004C000ED5A0610702000003B5B06107120000002
:1004D000895B061072200000D75B061073200000B5
:1004E000555C061074200000D35C061075200000D7
:1004F000095D061076200000CB5D06107720000015
:100500003B5E061078200000775E06107920000020
:10051000D75E06107A200000255F06107B200000C1
:10052000755F06107C200000D35F06107D20000060
:10053000096006107E200000736006107F20000016
:10054000EF60061082200000816106108320000009
:100550001B620610842000008562061085200000C2
:10056000E362061086200000D763061000FC00003E
:100570004B64061001FC00008F64061002FC0000B2
:10058000536506100CFC0000216606100DFC0000EF
:100590005D6606100FFC0000DF66061014FC00000C
:1005A0002567061015FC00006767061016FC0000A2
:1005B0009D67061017FC0000CF67061018FC0000AE
:1005C000336806101CFC0000716806102BFC00004C
:1005D000B76806102CFC0000FF68061035FC000010
:1005E0006169061036FC0000A369061037FC0000A4
:1005F0002B6A061038FC0000656A061060FC0000DB
:10060000A56A061081FC0000076B061085FC00003F
:100610003D6B061086FC0000716B061088FC000024
:10062000BB6B06108AFC0000036C06108DFC0000FA
:100630006D6C061090FC0000AF6C061092FC000080
:10064000076D061093FC0000396D061094FC000045
:10065000796D061096FC0000AB6D06109CFC000046
:10066000EB6D06109DFC0000236E06109EFC000042
:10067000576E0610A0FC0000EB6E0610A3FC0000F5
:100680003B6F0610A4FC0000E36F0610A5FC000001
:1006900019700610A6FC000059700610A7FC000097
:1006A00099700610A8FC00002D710610AAFC00002D
:1006B00071710610ABFC0000A7710610ACFC0000C5
:1006C0002D720610ADFC0000BF720610AEFC0000DB
:1006D000FB720610AFFC000037730610B0FC000080
:1006E00089730610B1FC00000D740610B2FC000006
:1006F00057740610B3FC00008F740610B4FC0000A1
:100700000D750610BAFC000041750610BBFC000018
:1007100075750610CAFC0000A7750610CBFC00001A
:100720003F760610CCFC0000D176061001FD0000DB
:100730006377061002FD0000A977061003FD000094
:100740004F78061004FD0000AB78061005FD000090
:100750008B79061006FD0000A37A061007FD000045
:10076000037B061008FD0000417B061009FD000018
:100770007F7B06100AFD0000BD7B06100BFD00000C
:10078000F37B061010FD0000317C061011FD000007
:10079000A57C061012FD0000EF7C061013FD000082
:1007A000317D061014FD0000B37D061015FD00001C
:1007B000097E061016FD0000677E061017FD00007A
:1007C000057F061018FD00005B7F061019FD000074
:1007D000AF7F06101AFD00004D8006101BFD0000C3
:1007E000A38006101CFD00000D8106101DFD0000F9
:1007F000778106101EFD0000F381061023FD000026
:100800006782061024FD0000CF82061025FD00003F
:100810002F83061028FD0000778306102AFD0000B4
:10082000B78306102EFD0000878406102FFD000000
:10083000C784061031FD00003B85061033FD000023
:100840008585061035FD00000F86061036FD000078
:10085000E386061037FD00004387061038FD0000D0
:10086000F587061039FD0000B38806103AFD000038
:100870001D89061081FD00006789061082FD0000B9
:10088000D189061083FD00006D8A061084FD0000EA
:10089000D38A061085FD0000858B061086FD0000BA
:1008A000EF8B061087FD0000378C06108AFD0000D4
:1008B000978C06108BFD00000D8D061000FE0000C9
:1008C000578D061001FE0000B58D061002FE0000D7
:1008D000058E061003FE00004F8E061004FE000079
:1008E000838E0610000000000000000005000000DC
:1008F0009F18081000000000000000000000000029
:100900000000000010000000B718081011000000DF
:10091000D118081004080000E11808100D080000A4
:10092000FF180810010C00004F1908100F0C0000F0
:1009300087190810100C0000BF190810160C0000D1
:1009400031190810190C0000E11908101A0C0000E8
:10095000131A08101B0C00004F1A081000000000AA
:100960000000000000000000020000003200002033
:100970000000000008000000C80300200000000084
:1009800001000000500500200000FFFF00000000F3
:1009900004000000880904100000000005000000A9
:1009A0009C3300200000000001000000B281041010
:1009B0000100000003000000AC3300202000000014
:1009C000FB349B5F8000008000100000052A0000BF
:1009D0001000000001000000AC0400208C0904108D
:1009E0000A000000FB349B5F8000008000100000C4
:1009F000292B000010000000000000000000000093
:100A00009809041002000000FB349B5F8000008006
:100A1000001000002A2B0000100000000000000061
:100A2000000000000000000002000000FB349B5F9B
:100A300080000080001000003A2B00001000000031
:100A40000000000000000000A409041096C298D81D
:100A50004539A1F4A033EB2D817D0377F240A463E7
:100A6000E5E6BCF847422CE1F2D1176BF551BF37F0
:100A70006840B6CBCE5E316B5733CE2B169E0F7CC3
:100A80004AEBE78E9B7F1AFEE242E34F00F00B1029
:100A900000080000AA02000000F80B10F80701008F
:100AA0000000000096C298D84539A1F4A033EB2D80
:100AB000817D0377F240A463E5E6BCF847422CE170
:100AC000F2D1176BF551BF376840B6CBCE5E316BB4
:100AD0005733CE2B169E0F7C4AEBE78E9B7F1AFE78
:100AE000E242E34FCAEBECEDEFF0F1F2F3F4F5F68E
:100AF000F7F8F9FAFAFCFDFDFEFEFFFF0000010227
:100B0000030405060800000059680710656807100F
:100B100005670710A5670710836507103366071080
:100B2000FB349B5F8000008000100000292B000038
:100B300010000000FB349B5F80000080001000006C
:100B4000052A000010000000020000000300000061
:100B50000300000006000000030000000300000086
:100B60003C0000007000000070000000D003000096
:100B700070000000C3010000DD700710771E041034
:100B80009F1E0410B71E0410AF1E0410D71C0410C3
:100B9000471D0410B7250410BF250410C7250410F5
:100BA000CF250410D7250410517707107F25041096
:100BB00067250410872504100B2104106F1D0410F5
:100BC0008B230410DF1E04104B230410671D041038
:100BD00041750710E51C0810411B0810E51E0810A0
:100BE000F7200810F72008100D220810E51E081045
:100BF000E7230810E7230810E7230810E91D081071
:100C0000FB1A0810BF1A08100D2208104F1D0410FF
:100C1000571D0410411F0410511F0410491F0410D8
:100C2000C71D0410CF1D0410D71D0410DF1D0410B4
:100C3000071E0410EF1D0410F71D0410FF1D041003
:100C4000E71D04100F1E0410171E04101F1E0410B1
:100C5000271E04102F1E0410A14901800020704798
:100C600080B500F0C5FA00F08DFB01BDF0B587B08E
:100C700005001224FE2805D10DA80078002801D017
:100C800012202BE10C9F684602720E00049206931C
:100C900039004DD1FE2D4ED0F02D24DA042E22DC69
:100CA00001A8801C009001AB5B1C02AAD21C02A907
:100CB000491C280000F0D6FB002800D0D1E068468F
:100CC000C0881421014014290DD06846C0882040F6
:100CD000022808D06846C088C00605D5032E02D178
:100CE0000498202810DBF8E0032E07D10024694681
:100CF0000C713900280000F0EBFA87E0042E03D0D5
:100D00006846007A0028EED06846407A00286FD006
:100D1000032EEBD0042E3DD10DA800780190009752
:100D2000069B6846027A0421280000F096F9D5E077
:100D3000012F3AD1FE2D2FD0042E1EDA03A80090E9
:100D400001AB5B1C01AA921C02A9491C280000F0FF
:100D500089FB002838D168468089800703D468461B
:100D6000007A002809D1684680892040122805D1E0
:100D7000032E02D10498202806DBAEE0032EB5D066
:100D80006846007A0028F8D06846407A00282FD0BC
:100D9000032EABD00C24A0E0012069464872032E3C
:100DA000F9D104982028A1DB97E0042EFCDC01A8EF
:100DB000801C009002AB9B1C01AA521C02A9491C7A
:100DC000280000F04FFB00284BD1684640790028EE
:100DD000E0D00498FD28E7DA032EDAD0042E9BD069
:100DE0006846807A0028D5D16846007A002874D0F9
:100DF0000024300007D0022E05D001D3042EEED0FF
:100E000000D274E702E0012069460871009703AB45
:100E10009B1C68460279017A280000F014FA0590BC
:100E2000002803D16846007A002806D16846C089A8
:100E3000049941182B4A914215DB0DA800780190C6
:100E40000097002300220321280000F006F9390052
:100E5000280000F07EFA3900280000F039FA072057
:100E60003CE0422439E069460A7A0699059B181845
:100E700000F062FB6846C0896946097A4218022E72
:100E800012D0032E10D0012E27D10DA8007801908A
:100E90000097002300220321280000F0DEF839002B
:100EA000280000F056FA18E00DA80078019000978D
:100EB000059B92B20321280000F0CFF8040008D16E
:100EC0003900280000F045FA3900280000F036FA11
:100ED00003E03900280000F0FBF9200007B0F0BD66
:100EE00072060000730600001CB51A00049B002463
:100EF0002BE11CB51A00049B00240194012425E178
:100F00001CB500240194022420E1F1B596B00D0037
:100F1000140005A8402100F01DFB16A80078F02859
:100F200001DB12205DE002A8009001AB01AA521C77
:100F300001A9891C16A8007800F094FA060001D0D7
:100F400042204EE06846057000F07CFA6946097858
:100F5000884201D20C2044E0049469464E7000247B
:100F600005AF16E000F03CFA060020D0E00038188B
:100F70002978017069784170A9788170E978C17029
:100F8000EA786968300000F0D7FA381DE100465071
:100F9000641C68460078039084420CDA0498E100EF
:100FA0004518E878FA28DDDB07206946487068466E
:100FB0004478002511E06846017805AA16A8007853
:100FC00000F0D0FA04000BD0F3E7002105A8001DC3
:100FD000EA00805800F0DBF96D1C03988542F4DBD1
:100FE000200017B0F0BDF8B584B004000F00150064
:100FF0001E000BA80078F82804DA00F009FA039024
:10100000002801D107201AE00BA802780C99039858
:1010100000F092FA039802900BA8007801900AA8B9
:101020000078009033002A003900200000F0B4FA64
:10103000040003D00121039800F0A9F9200005B0B5
:10104000F0BD80B5814201D000F04EF9012002BD13
:1010500080B500F09CF9012002BDF8B51500069A94
:10106000079E170010D1002E03D02A0000F0B2FB1B
:10107000E6BDFE2804D11900E8B200F0AFFBE6BDE2
:101080002A0000F0D1FBE6BD012A12D1002E04D0C7
:101090001A00290000F036FCE6BDFE2804D1190034
:1010A000E8B200F033FCE6BD1A00290000F052FC63
:1010B000E6BD2A0000F09CFCE6BD80B502000800F9
:1010C000D10706D5022100F0B2F8012801D10C2089
:1010D00002BD002002BDF8B5012817D100240F0081
:1010E000160000E0641CBC4210DA0620604335188C
:1010F0000021287800F09BF8012805D001212878EC
:1011000000F095F80128EDD10C20F2BD0020F2BDD1
:1011100080B5FFF7E0FF02BDE0B502000B00002044
:10112000019005E0E0B502000B00002001900120D5
:1011300000900321FE20FFF799FD0EBD1CB5012490
:101140000194002402E01CB5012401940094FFF7EF
:101150008DFD16BDB8B5BFB0140001D0F22C01D37F
:1011600012201AE01F000D000190F42102A800F0E7
:10117000F1F9220002A9380000F03EFC45980090E9
:1011800002AB22002900019800F03FFC010001D1D0
:10119000093400E0002444990C7040B0B0BDF0B5B3
:1011A000BFB01400FF2A01D112201CE01D000E0068
:1011B0000700F82101A800F0CDF901A800902B004C
:1011C00022003100380000F02BFC0500449807D1C4
:1011D0004599F7340470E2B201A800F00DFC01E07B
:1011E0000021017028003FB0F0BD180050015001EF
:1011F0000020FF21504A28234343D2181170117553
:10120000401C0328F6DB704710B503290DDA0022D5
:10121000494B2824614359180B78834201D188181F
:1012200010BD14220B7D8342F9D0002010BD80B583
:10123000FFF7EAFF002802D0C068002801D1002093
:1012400002BD012002BDFEB506000F0000241C8077
:1012500008A801783000FFF7D7FF05000BD108A8D8
:101260000178FF20FFF7D0FF05001BD02E706C60C7
:10127000AC60EC602C826846007900280FD1686869
:1012800000280FD1E868002801D000F055FC380094
:101290001AD000F02BFC002817D03C0015E0E868BD
:1012A000002801D10020FEBD298AC91989B200F0A9
:1012B0004FFC002805D0298A029A1180298ACC196E
:1012C00003E0E86800F038FC00202C82E860FEBDF6
:1012D00010B5FFF799FF040005D0E06800F02CFC82
:1012E0000020E060208210BD002800D1704738B592
:1012F00000250022002310492824544309191424EE
:101300005C430C196168814206D0A168814207D014
:101310005B1C012BEFDD0AE000F00EFC656031BDC7
:10132000080000F009FCA560FF20207031BD521CB0
:10133000022ADFDD31BD00004031002080B5FFF71B
:1013400063FF002804D0C16881600021C160018270
:1013500001BD80B5FFF758FF002803D081684160C8
:101360000021816001BD8300850007000700830024
:10137000850005000700030003000F000500820040
:10138000810005003648002141600170704730B58A
:101390000122334B0024002902D001290FD030BD97
:1013A000F921614359180831884203D0641C082C84
:1013B000F6D330BD5868A2409043586030BDF92143
:1013C00061435918FA25ED004919884203D0641C7D
:1013D000082CEEDAF3E71878A2409043187030BD7D
:1013E00010B500201E494A6801231400C4401C4067
:1013F00002D0401C0828F8D3082801D1002010BDD5
:10140000834013434B60F92250430818083010BD45
:1014100010B5002012490A78012301248440224299
:1014200002D0401C0828F8DB082801D1002010BD9C
:10143000834013430B70F92250430818FA21C90066
:10144000401810BD00210020054A5368CB40DB073F
:1014500000D4401C491CCBB2082BF6D3C0B2704755
:1014600054050020F0B587B003930292059107461A
:1014700000F0B8FB4D21415C0902012201921202E9
:101480008B1800260C990491B518AB4221D0016845
:101490008E19BE24345BBC422E46F5D14819014654
:1014A00032390978059A1170014648390988049A39
:1014B0001180FF21C943401806A900F09BFB0028BA
:1014C00009D00298019901700698007A411E88415E
:1014D00004E0422005E0002002990870039908709A
:1014E000002007B0F0BD0300FFFFFFFFFFFFFFFF7D
:1014F000FFFFFFFFFFFF010000000000FFFF0100F2
:101500000000FFFF70B4103A03D378C9103A78C0D6
:10151000FBD2530701D318C918C001D508C908C0A8
:10152000D20704D30B880380891C801C002A01D5B4
:101530000B78037070BC70478B0701D18307E1D033
:10154000124205D00B78491C0370401C521EF9D181
:101550007047FEE7002200BF094202D0491E4254F4
:10156000FCD170477CB514460D4606460120022189
:1015700000F04EFB002800D07CBD01210F22284640
:1015800000F054FB0028F7D16846467005700194BE
:1015900000F085FD7CBDFEE7F0B593B01C46174614
:1015A0001191129001200221109000F031FB0028CF
:1015B00021D119980F900026834A844B1298314606
:1015C00098470E9405467F243846314622467F4B85
:1015D00098470D9707462F430E9D284631462246D1
:1015E0007A4CA047234604463C430F98FB223146E1
:1015F0009847204301D013B0F0BD0C96129801F02B
:10160000E1FC00280DD0189F7C1C466933462C3322
:101610000ECB62438A18D94351183E3903D41220A5
:10162000E9E74220E7E70B97129018360D9831460C
:1016300001F0E4FC04462846314601F0DFFC014697
:101640000C20002CD7D000290F9ED4D0129A10461F
:10165000813001785469A08F324601F0E3FC0146E5
:10166000206BC04308183E3001D44520C3E71A9CC4
:101670000D9BAB4208D10B980090019602941298F2
:10168000119A01F0DDFCB6E70391129841694420FC
:101690000791095A119881420C9A08D246204C4A67
:1016A000119B9342A7D100290C9A0F9EA3D10894B5
:1016B000129842300990079804463F340546443555
:1016C0000A95059424784C3006901198471C119285
:1016D000049709980588BAB2462095424AD80A9AD2
:1016E000937808D10E9D0D9A954243D2E2B2AA4258
:1016F0003D460CD93EE00D9A93423BD3E2B20E9E9A
:10170000B24203D90D9A964234D26D1C0F9E8AB212
:10171000ADB2954202D10E9883422ED01198002886
:1017200002D0462022461DE0069F384629460E9EDE
:10173000324601F0EFFC002800D05CE70F980090E3
:10174000089801903846294632460B9B01F0F6FC7A
:101750000C90FF2836D0059802780020109911913E
:101760000F9E049FD1B2E3B28B4203D00A98018846
:101770001446AEE7079C0C9F15E0079C11980028C3
:101780000C9F06D0F8B20C21414360185221FF2370
:1017900043540B9800900196089802901298039970
:1017A0000E9B01F04DFC002800D124E7119900297F
:1017B00000D120E7F9B20C224A43A1185222FF239C
:1017C0008B5418E7072016E7FF0E00002D1C0410AD
:1017D000FFFF000080B500F05BFA80BDF8B50C4655
:1017E000054600F0FFF9074601F0C8FC0C4E3046F4
:1017F00001F0E2FC0B49884208D101F0F9FCFF2816
:101800000BD0000239680818BE2146520321304629
:101810002A46234600F008F8F8BD0120F8BDC0466E
:10182000FCFF0000FFFF0000FEB5029314460F46C8
:10183000054600F0D7F906463048854201D11F2001
:1018400007E00120022100F0E3F9002800D0FEBDEE
:101850002B481221A04201D20846FEBD0191284624
:1018600001F0AAFC000231680E182046314600F053
:1018700007FE0028EBD1CE20315C3820305C042FED
:1018800012D1002938D00028019A1BD01B4885426C
:1018900018D1F08D002815D0B820305A1021014001
:1018A00021431046D3D10FE035463835002911D0F9
:1018B000032F09D102202870F4860020B0860299F7
:1018C0003163FEBD1046FEBDB636304601F0A6FCC3
:1018D0000020FEBD374628370028029A05D0396817
:1018E000A120029A01F0AAFC029A3A600120287015
:1018F000F4850020B085FEBD0198FEBDFCFF000010
:101900007206000080B500F0BFF980BDF8B50C4646
:10191000054600F067F9074601F030FC0B4E3046F3
:1019200001F04AFC0A49884208D101F061FCFF2815
:101930000AD0000239680818BE21465230462946AE
:10194000224600F007F8F8BD0120F8BDFCFF0000BA
:10195000FFFF0000F8B514460D46074600F042F9B7
:1019600006462148874201D11F2007E001200221BD
:1019700000F04EF9002800D0F8BD1C48A84201D262
:101980001220F8BD384601F017FC000231680E182D
:101990002846314600F074FD0028EDD1CE20305CA1
:1019A000002809D04C20022131544A2035524821C8
:1019B000002070527464F8BD4C20305C32464C32CA
:1019C00037463C37002806D03968A12000922246CD
:1019D00001F034FC009A4220355240210020705220
:1019E0003C6001211170F8BDFCFF00007206000090
:1019F00080B500F038FB80BD002A05D003780B705D
:101A0000521E491C401CF7E770471CB554087A2C3D
:101A100001D912201CBD049C009401F049FC1CBD9E
:101A20001CB5FF2A04D0049C009401F087FC1CBD67
:101A300012201CBD6A4A516011600880108100208C
:101A400048804860704766490A68904203D1406800
:101A5000086070470A00002A04D051688142F9D119
:101A600040685060704770B55D490A68002825D00D
:101A7000002A01D1020021E0904202D2426002001D
:101A800012E0140000E02C006568002D01D0A8428F
:101A9000F9D24560606025886619864204D146689F
:101AA00066600688AD192580456804880319AB4235
:101AB00004D16B6843602B88E31803800A6070BD13
:101AC00010B502000C001088011B8BB20D2B0CD33B
:101AD000200008388008800010180830018000219C
:101AE00041804160FFF7BFFF200010BD38B50025E1
:101AF0003B490968401E03240443641DA4B209E065
:101B00000888A04205DB002D02D02A88904200D22E
:101B10000D0049680029F3D1002D0BD02800FFF7F4
:101B200092FF21002800FFF7CBFF2880012068806A
:101B3000281D32BD002032BD002800D1704780B57D
:101B40000021831E19800160001FFFF78CFF01BD7B
:101B5000F8B504000E00701E03210143491D271F24
:101B600038888BB2984204D389B23800FFF7A8FFB7
:101B70001FE0091A6A461180001F8008800025189E
:101B800017484168008980000818854214D2688887
:101B9000002811D128886946098888420CD328007A
:101BA000FFF751FF684601882800FFF789FF398851
:101BB000081838802000F2BD3000FFF797FF0500BD
:101BC0000BD03A88121F92B2964200DA32002100FE
:101BD00001F0E2FB2000FFF7AFFF2800F2BD00009C
:101BE00060330020024800689C2140587047C0467E
:101BF0007833002010B50C4601F025FC002804D0F5
:101C00002068C06F411E884110BD002010BDFEE756
:101C1000054A12683523D35C034201D00C2070477B
:101C20003532117000207047B8330020904201D83F
:101C3000884201D2122070470020704730B58BB027
:101C400018AC24780A9417AC2478099416AC24783C
:101C5000089415AC2478079414AC247806946D4647
:101C60004C242C57059412AC24780494119C0394B2
:101C700010AC247802940FAC247801940E9C00944C
:101C800001F0EEFB0BB030BD80B501F087FC02BD6A
:101C900080B501F0A7FC02BD80B501F0C7FC02BD14
:101CA0001CB56C46247C009401F046FD16BD80B541
:101CB00001F08EFD02BD80B501F0C0FD02BD80B512
:101CC00001F0D4FD02BD80B501F028FE02BD80B553
:101CD00001F05EFE02BD80B501F07CFE01BD80B565
:101CE00001F09EFE01BD80B501F0BEFE02BD80B5D3
:101CF00001F0CEFE02BD80B501F056FF01BD80B5FA
:101D000001F078FF01BD80B501F09CFF01BD80B5F9
:101D100001F09FFF01BD80B501F09CFF02BD80B5C1
:101D200001F0B2FF02BD80B501F0D7FF02BD80B562
:101D300001F0E4FF02BD80B501F0FCFF02BD80B5FB
:101D400002F024F802BD80B502F046F801BD80B56E
:101D500002F048F802BD80B502F06EF802BD80B511
:101D600002F08CF802BD80B502F08AF801BD80B5A2
:101D700002F09AF801BD80B502F000F902BD80B50D
:101D800002F0FEF802BD80B502F0FCF802BD80B59D
:101D900002F0FAF802BD80B502F0F8F802BD80B595
:101DA00002F0F6F802BD80B502F0F4F802BD80B58D
:101DB00002F0F2F802BD80B502F0F0F802BD80B585
:101DC00002F044F902BD80B502F05CF902BD80B5B5
:101DD00002F088F902BD80B502F0A0F902BD80B51D
:101DE00002F0B8F902BD80B502F0F4F902BD80B589
:101DF00002F036FA02BD80B502F062FA02BD80B58B
:101E000002F07CFA02BD80B502F094FA02BD80B502
:101E100002F0AEFA02BD80B502F0C0FA02BD80B594
:101E200002F0DAFA02BD80B502F0ECFA02BD80B52C
:101E300002F004FB02BD80B502F046FB02BD80B596
:101E400002F07CFB02BD80B502F07AFB02BD80B5DA
:101E500002F078FB02BD80B502F086FB01BD80B5C3
:101E600002F09AFB01BD80B502F0D6FB02BD80B541
:101E700002F0D4FB02BD80B502F022FC01BD80B5AA
:101E800002F0EAFC01BD80B502F01EFD02BD80B586
:101E900002F070FD02BD80B502F082FD02BD80B58A
:101EA00002F0EEFD01BD80B502F0DAFE02BD80B5A4
:101EB00002F04CFF01BD80B503F06CF801BD80B5A8
:101EC00003F0A6F802BD80B503F0F8F801BD80B5B7
:101ED00003F05FF902BD80B503F08EF902BD80B555
:101EE00003F092F901BD1FB5089C0294079C019470
:101EF000069C009403F0A6F904B010BD1CB5059C27
:101F00000194049C009403F0FBFA16BD1CB56C46CA
:101F1000247D01946C46247C009403F027FC16BDBC
:101F200080B503F085FC02BD80B503F083FC02BDE3
:101F300080B503F081FC01BD80B503F001FD02BD59
:101F400080B503F0FFFC02BD80B503F018FF02BDB1
:101F500080B503F01BFF02BD80B504F037F801BD6A
:101F600080B504F053F802BD80B504F075F801BDEA
:101F700080B504F0A3F802BD80B504F0BBF802BD43
:101F800080B504F03DF902BD80B504F05DF901BDF6
:101F900080B504F07BF902BD80B504F09FF901BD66
:101FA00080B504F077FB02BD80B504F08DFB02BD67
:101FB00080B504F0A7FB02BD1CB5049C009404F09E
:101FC000E5FB16BD80B504F07DFC02BD80B504F0D4
:101FD000ADFC02BD80B504F0D1FC02BD80B504F0BB
:101FE0005DFD01BD80B504F0B5FD02BD80B504F016
:101FF000D5FD01BD80B504F025FE02BD80B504F01D
:102000005FFE02BD80B504F0E3FE02BD80B504F0C2
:10201000FCFE01BD80B504F009FF02BD80B504F0EF
:102020001FFF01BD80B504F03BFF01BD80B505F089
:1020300027F802BD1FB5099C0394089C0294079CD5
:102040000194069C009405F06DF804B010BD80B5B5
:1020500005F09CF801BD80B505F0BEF801BD80B566
:1020600005F044F901BD80B505F054F902BD80B515
:1020700005F0E2F902BD80B505F078FB02BD80B540
:1020800005F0B4FB01BD80B505F002FC02BD80B5D2
:1020900005F000FC02BD80B505F022FC01BD80B555
:1020A00005F09AFC02BD80B505F0CAFD02BD80B501
:1020B00005F0E7FD01BD80B505F0EFFD01BD80B580
:1020C00005F00EFE02BD80B505F00CFE01BD80B529
:1020D00005F038FE01BD80B505F050FE01BD1CB510
:1020E000049C009405F05EFE13BD80B505F010FF62
:1020F00001BD80B505F0E2FF01BD80B506F002F834
:1021000001BD80B506F048F801BD80B506F05EF867
:1021100001BD80B506F0EEF802BD80B506F0ECF822
:1021200001BD80B506F012F901BD80B506F02AF9AF
:1021300001BD80B506F03CF901BD80B506F050F94F
:1021400001BD80B506F064F901BD80B506F06AF9FD
:1021500001BD80B506F096F902BD80B506F0D6FA4D
:1021600001BD80B506F0F4FA01BD80B506F024FB90
:1021700002BD80B506F028FB01BD80B506F034FB3A
:1021800001BD80B506F044FB01BD80B506F054FBEF
:1021900001BD80B506F064FB02BD80B506F08AFB88
:1021A00001BD80B506F000FD01BD80B506F042FD21
:1021B00001BD1CB56C46247C009406F049FD13BD9E
:1021C00080B506F06DFD01BD80B506F081FD01BD55
:1021D00080B506F0F1FD02BD80B506F00BFE02BD34
:1021E00080B506F023FE02BD80B506F049FE02BDB3
:1021F00080B506F073FE01BD80B506F0A5FE01BDF9
:1022000080B506F0C9FE01BD80B506F011FF02BD24
:1022100080B506F014FF02BD1CB5059C01946C4608
:10222000247C009406F012FF16BD80B507F008F874
:1022300001BD80B507F052F801BD80B507F0A6F8E2
:1022400001BD80B507F00EF901BD80B507F052F968
:1022500001BD80B507F06AF901BD80B507F0D6F978
:1022600002BD1CB56C46247C009407F01AFA13BD1D
:1022700080B507F059FA01BD80B507F087FA02BDB5
:1022800080B507F0B5FA02BD80B507F0C4FA01BD0C
:1022900080B507F0D1FA01BD80B507F0E4FA02BDC0
:1022A0001FB5099C0394089C02946C46A48B01946E
:1022B000069C009407F024FB1FBD80B507F066FB69
:1022C00001BD80B507F06AFB01BD80B507F06EFB6C
:1022D00001BD80B507F072FB01BD80B507F076FB4C
:1022E00001BD80B507F07AFB01BD80B507F07EFB2C
:1022F00001BD80B507F082FB01BD80B507F086FB0C
:1023000001BD80B507F08AFB01BD80B507F08EFBEB
:1023100001BD80B507F092FB01BD80B507F09CFBC5
:1023200001BD80B507F0D8FB01BD80B507F0DFFB2C
:1023300002BD80B507F0EEFB01BD80B507F014FCCF
:1023400001BD80B507F020FC02BD80B507F060FC40
:1023500001BD80B507F018FD01BD80B507F06CFD2B
:1023600001BD80B507F0C2FD01BD80B507F0C6FD17
:1023700002BD80B507F00EFE01BD80B507F019FE65
:1023800001BD80B507F02AFE01BD80B507F0A0FEB3
:1023900001BD80B507F030FF01BD80B507F05CFFDF
:1023A00001BD80B507F07DFF01BD80B507F096FF48
:1023B00001BD80B507F0C6FF01BD80B507F0E4FFA1
:1023C00002BD80B507F0FAFF01BD80B508F076F8D0
:1023D00002BD80B508F070F902BD80B508F082F941
:1023E00002BD80B508F080F901BD80B508F0C6F9DE
:1023F00002BD80B508F002FA02BD80B508F008FA07
:1024000002BD80B508F034FA01BD80B508F0A6FA27
:1024100001BD1CB56C46247C009408F0DBFA13BDAA
:1024200080B508F01FFB02BD80B508F033FB01BD8D
:1024300080B508F03FFB01BD80B508F079FB01BD18
:1024400080B508F081FB01BD80B508F0B7FB02BD87
:1024500080B508F0C5FB01BD80B508F009FC01BDE1
:1024600080B508F05BFC01BD80B508F091FC01BDB2
:1024700080B508F0C9FC01BD80B508F005FD02BDBE
:1024800080B508F039FD02BD80B508F049FD01BDF9
:1024900080B508F005FE02BD80B508F003FE02BD60
:1024A00080B508F059FE02BD80B508F0ADFE02BD52
:1024B00080B508F0BFFE02BD18B587B010AC247817
:1024C00006940FAC247805940EAC247804940DACDB
:1024D000247803940CAC247802940BAC24780194F7
:1024E0000AAC2478009408F031FF08B010BD80B524
:1024F00008F05CFF02BD80B508F09CFF02BD80B50E
:1025000009F048F802BD80B509F05EF801BD80B55C
:1025100009F072F801BD80B509F088F801BD80B5F9
:1025200009F09CF802BD80B509F0C0F801BD80B586
:1025300009F0EAF801BD80B509F006F901BD80B5E2
:1025400009F04CF901BD80B509F068F902BD80B50C
:1025500009F080F902BD80B509F0AAF902BD80B585
:1025600009F0C8F901BD80B509F0FEF901BD80B5DB
:1025700009F0DCFA01BD80B509F0F0FA01BD80B5C3
:1025800009F014FB01BD80B509F014FB01BD80B555
:1025900009F0D6FB02BD80B509F028FC02BD80B56C
:1025A00009F050FC02BD80B509F084FC01BD80B586
:1025B00009F0D0FC01BD80B509F030FD01BD80B54A
:1025C00009F03EFD01BD80B509F05CFD01BD80B59F
:1025D00009F07CFD01BD80B509F032FE01BD80B57A
:1025E00009F044FE02BD1FB56C46248C02946C4673
:1025F000A48B01946C46248B009409F03BFE04B03C
:1026000010BD1CB56C46A48A01946C46248A0094C3
:1026100009F03BFE16BD1FB56C46248C02946C4637
:10262000A48B01946C46248B009409F040FE04B006
:1026300010BD80B509F04EFE02BD80B509F052FE16
:1026400002BD80B509F064FE02BD80B509F068FEE8
:1026500002BD10B588B011AC2488079410AC248852
:1026600006946C46A48F05946C46248F04946C46A3
:10267000A48E03946C46248E02940B9C01940AACA5
:102680002478009409F05CFE08B010BD80B509F014
:102690009DFE02BD80B509F0D3FE02BD80B509F0F4
:1026A000E7FE02BD1FB508AC247802946C46247F77
:1026B00001946C46247E009409F0E2FE04B010BD43
:1026C00080B509F021FF02BD80B509F02AFF02BDE7
:1026D00080B509F02FFF02BD80B509F037FF02BDBC
:1026E0001CB5049C009409F039FF16BD1CB5059C6F
:1026F00001946C46247C009409F03AFF16BD80B525
:1027000009F049FF02BD80B509F04DFF02BD80B55B
:1027100009F04EFF02BD80B509F04FFF02BD80B544
:1027200009F055FF02BD80B509F05FFF02BD80B51D
:1027300009F066FF02BD80B509F066FF02BD80B5F5
:1027400009F066FF02BD80B509F066FF02BD80B5E5
:1027500009F066FF02BD80B509F066FF02BD80B5D5
:1027600009F066FF02BD80B509F066FF02BD80B5C5
:1027700009F066FF02BD80B509F066FF02BD80B5B5
:1027800009F066FF02BD1CB5059C01946C46248AC5
:10279000009409F061FF16BD1CB5049C009409F07B
:1027A0006AFF16BD1CB5059C01946C46248A0094F2
:1027B00009F067FF16BD80B509F06CFF02BD80B55A
:1027C00009F070FF02BD80B509F070FF02BD80B551
:1027D00009F070FF02BD80B509F07AFF02BD80B537
:1027E00009F07AFF02BD80B509F07AFF02BD80B51D
:1027F00009F087FF02BD1CB5059C01946C46247C42
:10280000009409F089FF16BD80B509F0A1FF02BD53
:1028100080B509F0A3FF02BD80B509F0AAFF02BD93
:1028200080B509F0AEFF02BD1CB5059C01946C4655
:10283000247C009409F0ADFF16BD80B509F0C5FFFA
:1028400002BD80B509F0D1FF02BD1CB5049C009407
:1028500009F0DBFF16BD80B509F0E6FF02BD1CB52F
:10286000049C009409F0EEFF16BD80B509F0F9FF55
:1028700002BD80B50AF005F802BD1CB5059C0194A7
:102880006C46248A00940AF016F816BD80B50AF04A
:1028900023F802BD80B50AF027F802BD80B50AF022
:1028A00027F802BD80B50AF03BF802BD3EB56C4684
:1028B000247F01946D4618242C5700940AF034F8B4
:1028C0003EBD1CB56C46248A00940AF035F816BD4E
:1028D00018B585B00CAC247804940BAC2478039420
:1028E0006C46248D02946C46A48C01946C46248C16
:1028F00000940AF02EF806B010BD1CB56C46247D7D
:1029000001946C46247C00940AF036F816BD1FB57D
:10291000089C02946C46247F01946C46248B00949E
:102920000AF05AF804B010BD1CB5049C00940AF0DB
:10293000A7F816BD80B50AF0A9F802BD1CB5049C25
:1029400000940AF0A7F816BD80B50AF0B5F802BDEC
:1029500080B50AF0BCF802BD1CB5049C00940AF0D6
:10296000BAF816BD80B50AF0BCF802BD10B58CB03F
:10297000199C0B9418AC24780A9417AC2478099409
:1029800016AC2478089415AC2478079414AC2478F9
:10299000069413AC2478059412AC2478049411ACFA
:1029A0002488039410AC248802940FAC24780194FA
:1029B0006C46248F00940AF0A1F80CB010BD1FB52E
:1029C000099C039408AC247802946C46A48B01946F
:1029D0006C46247E00940AF0B9F804B010BD80B5AE
:1029E0000AF0C8F802BD80B50AF0C8F802BD10B5FB
:1029F00088B0119C079410AC247806940FAC24780E
:102A000005940EAC247804940DAC247803940CAC9B
:102A1000247802946C46A48D01946C46248D009415
:102A20000AF0B0F808B010BD80B50AF0C7F802BDD2
:102A300080B50AF0C7F802BD80B50AF0C7F802BD3C
:102A400018B587B0109C06940F9C05940EAC2478A2
:102A500004946C46A48E03946C46248E02940BACB2
:102A6000247801940AAC247800940AF0B3F808B0F2
:102A700010BD10B588B0119C0794109C06940FAC43
:102A8000247805940EAC247804940DAC2478039437
:102A90000CAC247802946C46A48D01940AAC247882
:102AA00000940AF00DF908B010BD80B50AF094F951
:102AB00002BD80B50AF0BAF902BD80B50AF0BAF9D4
:102AC00002BD80B50AF0BAF902BD80B50AF0BAF9C4
:102AD00002BD80B50AF0C6F902BD80B50AF0D8F98A
:102AE00002BD80B50AF082FA02BD80B50AF0B4FAE0
:102AF00002BD80B50AF0B6FA02BD80B50AF0C1FA8F
:102B000002BD80B50AF0C8FA02BD80B50AF0C8FA65
:102B100002BD10B588B011AC2488079410AC24888D
:102B200006946C46A48F05946C46248F04946C46DE
:102B3000A48E03946C46248E02940BAC24780194EA
:102B40000A9C00940AF0B8FA08B010BD80B50AF0EB
:102B5000E6FA02BD1CB5059C01946C46247C0094E9
:102B60000AF0E1FA16BD1FB5099C039408AC24785D
:102B70000294079C01946C46247E00940AF0EDFABE
:102B800004B010BD1CB5059C01946C46247C0094D7
:102B90000AF030FB16BD80B50AF034FB02BD1CB54F
:102BA000059C01946C46247C00940AF02FFB16BD12
:102BB0001CB5049C00940AF031FB16BD80B50AF0E8
:102BC00033FB02BD1CB56C46247C00940AF030FB3C
:102BD00016BD80B50AF032FB02BD80B50AF032FBAB
:102BE00002BD80B50AF032FB02BD80B50AF04CFB95
:102BF00002BD80B50AF057FB02BD80B50AF062FB4A
:102C000002BD80B50AF07AFB02BD80B50AF09CFBDC
:102C100002BD80B50AF09CFB02BD38B58CB01B9C90
:102C20000B941AAC24780A9419AC2478099418AC43
:102C30002478089417AC2478079416AC247806946A
:102C40006D4654242C57059414AC24780494139C9A
:102C5000039412AC2478029411AC2478019410AC43
:102C6000247800940AF078FB0DB030BD38B58EB0F2
:102C70001F9C0D941EAC24780C941DAC24780B94EE
:102C80001CAC24780A941BAC247809941AAC2478E0
:102C9000089419AC2478079418AC247806946D46EF
:102CA0005C242C57059416AC24780494159C03944A
:102CB00014AC2478029413AC2478019412AC2478D8
:102CC00000940AF06BFB0FB030BD80B50AF01AFC1F
:102CD00002BD80B50AF01AFC02BD80B50AF064FCA2
:102CE00002BD80B50AF06EFC02BD80B50AF077FC2B
:102CF00002BD80B50AF07EFC02BD80B50AF07EFC04
:102D000002BD80B50AF07EFC02BD80B50AF082FCEF
:102D100002BD1FB5089C02946C46247F0194069C5A
:102D200000940AF07FFC04B010BD80B50AF08CFC62
:102D300002BD1FB5099C0394089C0294079C019452
:102D4000069C00940AF084FC04B010BD80B50AF023
:102D50008CFC02BD1CB5049C00940AF08AFC16BDD4
:102D600080B50AF08CFC02BD80B50AF08EFC02BD75
:102D700080B50AF08EFC02BD80B50AF08EFC02BD63
:102D800080B50AF08EFC02BD80B50AF0A3FC02BD3E
:102D900018B585B00CAC247804940BAC247803945B
:102DA0000AAC2478029409AC2478019408AC247805
:102DB00000940AF0ADFC06B010BD80B50AF02AFD03
:102DC00002BD80B50AF03AFD02BD80B50AF03CFDB7
:102DD00002BD1CB56C46247C00940AF04BFD16BD68
:102DE00080B50AF052FD02BD80B50AF052FD02BD69
:102DF0001CB56C46A48A01946C46247C00940AF0AD
:102E00004CFD16BD80B50AF050FD02BD80B50AF03C
:102E100050FD02BD80B50AF050FD02BD80B50AF03C
:102E200055FD02BD1CB56C46248A00940AF052FD83
:102E300016BD80B50AF05AFD02BD80B50AF078FDD6
:102E400002BD80B50AF083FD02BD80B50AF083FDA6
:102E500002BD80B50AF086FD02BD80B50AF094FD82
:102E600002BD80B50AF0A2FD02BD80B50AF0A6FD44
:102E700002BD80B50AF0ADFD02BD80B50AF0B4FD1B
:102E800002BD80B50AF0BCFD02BD80B50AF0C9FDE7
:102E900002BD1FB508AC247802946C46A48B019443
:102EA0006C46248B00940AF0C7FD04B010BD80B5B9
:102EB0000AF0DBFD02BD80B50AF0E2FD02BD80B57F
:102EC0000AF0EBFD02BD80B50AF0F5FD02BD80B54C
:102ED0000AF002FE02BD80B50AF00DFE02BD80B50B
:102EE0000AF01CFE02BD1CB56C46247C00940AF05E
:102EF00019FE16BD80B50AF02EFE02BD80B50AF09F
:102F00003FFE02BD80B50AF050FE02BD1FB56C4603
:102F1000248C02946C46A48B01946C46248B009400
:102F20000AF059FE04B010BD1CB56C46248A00940A
:102F30000AF05CFE16BD1CB56C46A48A01946C4672
:102F4000248A00940AF058FE16BD80B50AF05CFE93
:102F500002BD1FB5099C039408AC247802946C460A
:102F6000247F01946C46247E00940AF064FE04B031
:102F700010BD80B50AF07EFE02BD1FB5099C03940A
:102F800008AC247802946C46247F01946C46247E1D
:102F900000940AF088FE04B010BD30B585B06D46CF
:102FA00030242C5704940B9C03940AAC247802948C
:102FB00009AC2478019408AC247800940AF095FEBA
:102FC00005B030BD0B4909689C2289584968896B56
:102FD000096809688C39084A927F521C521E05D034
:102FE000D623CB5A8C318342F8D100E00021084629
:102FF0007047C046783300206C320020202801D270
:10300000002209E0602801D3032200E002224028C8
:1030100000D201221F23184092008958C14001208C
:103020000840704780B50B46400601D5032000E0FC
:1030300001208018C1B2002218460AF079FE80BD36
:10304000F0B58FB01D4617460D91064644690E94A3
:103050004C34204611461A4600F05CF800284ED148
:103060000A940B950996149C0E9AD06A116B6143D1
:10307000126C80184618F0430C900AF011FF0546B8
:103080000AF030FF40190C9941184620323136D5EC
:1030900008960C940E9D294644310A88BA422ED1D6
:1030A0008B7839460B9A93420A9F28D12C46AC352F
:1030B0001698159B0093019038460C9B00F03EF843
:1030C0006870FF281AD02878616B0E4A07920E4A62
:1030D00006920E4A05920E4A04920A220392029226
:1030E000089C019400918D2209990D9B0AF000FF24
:1030F000297820460AF038FF002000E007200FB0B2
:10310000F0BDC04625050810B3310810790B081032
:10311000DB310810B0B55F23DB43002B0AD0C418A5
:103120006425655B8D4203D16625645D944203D0BE
:103130000C33F2E70020B0BD0C20B0BDFCB500920E
:1031400001910025089F079A2C46602D06D046194C
:10315000B179FF2904D00C35641CF6E7FF240AE09E
:10316000EFF3108172B647513272F3710098B0716B
:103170000198B08062B6E0B2FCBDFEE71FB50C4816
:1031800000F01AF80B49884210D16C4600212172D8
:103190000120C00220800720000201902046093053
:1031A00006220AF0DEFD20460AF0EEFE1FBDC046F4
:1031B000FCFF0000FFFF000070B50446FEF712FDA3
:1031C0004D21415C094D0022BE2391420BD006687F
:1031D000F65AA642164600D02E4601252D025B194E
:1031E000521C3546F1E7A8B270BDC046FFFF000093
:1031F00010B5FEF7F7FC4D21425C0021BE238A4248
:1032000008D00468E45A240B05D1012424021B19B8
:10321000491CF4E7FF21C8B210BDFEE710B5044613
:1032200000200AF01FFF044901402088401A424252
:1032300042414A40228010BDFF0F0000F8B504460D
:10324000C0062DD416460D46184800686107C90E01
:10325000401800694122042321460AF00BFF002890
:1032600020D001460A300671057000274F721022E7
:103270000A72CF710A228A71FF224A7182220A7170
:10328000320EC271320C8271320A42712A0EC27041
:103290002A0C82702A0A427020460AF04BFF02E094
:1032A000862700E007273846F8BDC046BC3300201B
:1032B000F0B5CFB01E4614460F4605460120010268
:1032C00009A8FEF747F9002C33D0549808900795C9
:1032D0000025284606950AF03AFF05964DAE307057
:1032E000010EF170010CB170000A707028460AF0EE
:1032F0002EFF3071049449AD304639462A460AF013
:103300002CFF09AF059800A991C10B4A012307982A
:1033100029460AF030FF0522089C204631460AF073
:103320001CFD601D04990A1D39460AF016FD069819
:1033300000E012204FB0F0BD51050020F0B5CBB039
:103340000A2A24D31F4616460D465099059101219D
:103350000691090207AC04902046FEF7FBF847AA45
:103360000392384629460AF0F8FE781D751F21465B
:103370002A46FEF741FBA8B20094019005980290FE
:10338000044A04980399069B0AF00FFF00E0862088
:103390004BB0F0BD510500208B0707D0521E22D341
:1033A0000B78491C0370401C8B07F7D1830730D082
:1033B000DB4219D0401E121F08D308C943701B0AF4
:1033C00043801B0C0371001D121FF6D2D20707D3D6
:1033D0000B88437001D08A78C2701B0A83707047D3
:1033E00001D00B7843707047121F06D308C90380C1
:1033F0001B0C4380001D121FF8D2D20705D30B8887
:10340000038005D08B788370704701D00B780370F0
:10341000704770B4103A03D378C978C0103AFBD221
:10342000530701D318C918C001D508C908C0D2076D
:1034300004D30B880380801C891C002A01D50B78DB
:10344000037070BC7047002807D0006D002804D0BE
:10345000406D0860411E8841704700200860704739
:10346000F0B59FB0154604461E93020912200E2A9D
:1034700000D98DE02026032903D02A46324000D00F
:1034800086E01B911DAF204639460AF0B7FE397819
:103490004048807E81422DD268003040AA00082337
:1034A00013401B18142048433B490968496D0F1805
:1034B0007B707A1C6E070F97109107D510261E435C
:1034C00016702F0703D55026334313701E462A99D2
:1034D000EB0702D001231E4316702C9E04270329FC
:1034E0000B4616900E9707D0042B1B9907D1032388
:1034F000119306E087204BE011971B9901E000270C
:1035000011972E9814902D9813902B9F299A199209
:10351000289A279817902698159025981290032E90
:103520001B931A97189205D0042E169806D10327DC
:103530003E4604E00E9F109A169801E00027109A6C
:1035400011540AF079FE1CA90896139A0992149A4C
:103550000A92119A0B920C970D9112990091019079
:103560001598029017980390189804901998059050
:103570001B9806901A9807901EAA24AB204629464D
:1035800009F00CFF002803D10F9A947401211174E3
:103590001FB0F0BD6C320020C03300207CB5064661
:1035A00000090E2801D912207CBD14460D46304674
:1035B000FEF7D0F9002800D07CBD01A930460AF002
:1035C0001DFE0028EFD001A80078142141430448D3
:1035D0000068406D4018C581846000207CBDC046F5
:1035E000C03300207CB5064600090E2801D9122000
:1035F0007CBD1C4615463046FEF716F9002800D063
:103600007CBD01A930460AF0F9FD0028EFD001A8E1
:1036100000781421414304480068406D40188581BA
:10362000446000207CBDC046C0330020F0B585B0AA
:1036300005463F48807E884201D2122774E0164634
:103640000C463C480068406D0290012D019514D154
:103650000394641C3546641E12D0287804A90AF02D
:10366000CDFD00283ED0AD1D04A8017801200AF050
:10367000F7FD0028EFD0074656E00C20009004E04C
:103680000AF048FE0090019D039C284621463246E0
:1036900009F03CFF0746002846D1002C24D0002C1E
:1036A00034D00394307804A90AF0A8FD30790028BA
:1036B00002D17088002813D0022404A807780121C1
:1036C00028463A460AF044FE002D00D12C4614202C
:1036D0007843029908184474B61D039C641EDEE703
:1036E0000124EAE7D3271FE0029E11360024104F81
:1036F000B87E84420AD2E2B20025012128460AF0AF
:1037000027FE3570019D1436641CF1E7012D08D1A8
:103710000098002807D10027384639460AF078FE7D
:1037200002E00AF09DFE0027384605B0F0BDC04615
:103730006C320020C0330020F0B599B0039304929E
:103740000591069020480068014630311791169186
:1037500001463C311391816B1891C16C006D14913D
:1037600015901E98097B012901D1022108430021EF
:1037700016A60F460C291ED03278024218D016AA7F
:1037800052581388FCB2240107AD2B532B195288D1
:103790005A8013AA525814889C805488DC809488DC
:1037A0001C81D4885C8114899C815289DA817F1CB8
:1037B000761C091DDEE707A90090019103AB0FCB32
:1037C00009F0B1FC19B0F0BDC033002001020400C3
:1037D000F0B587B00A4601901649086803463033B1
:1037E00005930090836B0693002305AC1E46022BC5
:1037F00013D011A0C75C17420CD0F7B20621794351
:103800002768387902AD685468183988418079880A
:103810008180761C241D5B1CE9E729200099095C46
:1038200002AB01980AF0ACF9122800D1D12007B000
:10383000F0BDC046C033002001040000B0B505460D
:10384000002213460AF0B1F90446002D06D10648BD
:103850000068C06A00211C220AF083FA122C01D1F0
:103860002E20C443E0B2B0BDC0330020F0B585B017
:103870000293039204910746274804680AF0DCFC8F
:1038800005465E2000210191215426465D3638060A
:10389000800F0DD03078C006800F05D00020014683
:1038A000FEF709FA002835D104980090002322E0A1
:1038B00078071DD4F806810F29D02834002804D5B4
:1038C000607802210143032923D1380704D56078A9
:1038D0000221014302291CD10AF0AEFC0499FEF733
:1038E000E6F9002816D121780120FEF7E4F907E077
:1038F000049800900123029803992A46FEF7D0F914
:10390000002807D1307838433070019802E0122047
:1039100000E0D12005B0F0BDC0330020F8B504466A
:103920001220002C16D0611E0C4213D1174E37689E
:103930005D20385C20420ED0C4210C420DD009F02D
:10394000EEFBA10706D0002804D1306802210AF05E
:10395000A5FD0020F8BD0C20F8BDE106890F01D0BF
:103960004006ECD4002528462946FEF7A4F9002895
:10397000E7D15D3769464D700C703D7002200AF04A
:10398000AFFD0AF06DFD2846DBE7C046C0330020DE
:1039900010B586B001AC08A114222046FDF7CCFD7D
:1039A0000A4800687221405A009404210122084B01
:1039B0000AF0F8FD06B010BDFB349B5F800000806C
:1039C00000100000002A000010000000C03300209A
:1039D000FFFF00001CB511480468FEF778F988283D
:1039E00007D00C2805D05D34002808D10220607073
:1039F0001CBD05200AF0EAFD0AF03AFE1CBD0020BD
:103A0000607020787F210140217001A986204870D4
:103A10008020087002200AF063FD1CBDC033002026
:103A2000BCB5104A14685D22A25C00280AD180202F
:103A3000104007D07234218005200AF0C7FD0AF03B
:103A400017FE0CE0DC2002420BD05D3401A90025FA
:103A50004D7002400A7002200AF042FD25700AF003
:103A6000FFFCBCBDC0330020012903D10189012026
:103A70000840704708214056042802D802A1085C7B
:103A8000704700207047C04601010000010000009F
:103A9000F0B587B001291AD1034608331F880126E3
:103AA0003A077CD402910193817A03460B33046A6E
:103AB000C57FF8060493039114D4002218460AF037
:103AC000A5FE01285DD0002802990CD067E0027A9B
:103AD000042A01D1012662E04469057C002004909B
:103AE000039000E002992F4800680127BAB200262F
:103AF000AA421BD213195B1E1B78002B16D0A25CA6
:103B00007F1C012A01D0FF18F0E75D22825CD307F9
:103B100008D192070AD5BAB2A25C03261640721EDB
:103B2000964103E0BAB2A25C01261640012936D1C3
:103B3000002E24D00199098870220A40202AC9D178
:103B40000026F443C06AC71F032C28D005A9002013
:103B5000887188800590FF1D072238460AF008F911
:103B60000006641C0028EFD1032C0AD80622384630
:103B7000049C21460AF0F1F80399B97103E000268C
:103B80000DE0049C039901980088202202404032F5
:103B9000402A9FD10126204632460AF037FE3046A1
:103BA00007B0F0BDC03300201CB5114804680020E8
:103BB0000146FEF780F801A948705D20205CC1072E
:103BC0005D34002905D001A901220A70FE210840B8
:103BD0002070810705D501A902220A70FD21084045
:103BE0002070022001A90AF07BFC0AF039FC1CBD00
:103BF000C0330020BCB511480068446DFEF748FC96
:103C0000002802D00E48807E00E00120C5B21134A9
:103C1000002D11D0207800280BD020460F380078D6
:103C2000800706D560786A46107000200121FEF7F3
:103C300033F814346D1EEBE7BCBDC046C033002022
:103C40006C32002080B508460AF008FE0AF008FC35
:103C500080BD7047B0B50C4605460A4800685A2139
:103C6000405A09F0ABFE01200AF060FE002801D0A6
:103C70008620B0BD287820210143297009202070BA
:103C80000020B0BDC033002070B588B014460D468A
:103C90000646C00705D0284621460AF05BFE0028EC
:103CA00019D1B00701D4002015E004AA2046294606
:103CB0000AF065FE002804D004A8002110220AF0B2
:103CC00050F86E4630460AF06DFE04AA284621469A
:103CD000334609F00BFE08B070BD10B50446C007AE
:103CE00004D00AF06FFE002800D010BDA00701D458
:103CF000002010BD09F02BFE10BDFEE7F8B504460C
:103D000000200090C64309480068476D1237084DEF
:103D1000761CA87E864207D238781437214609F0EF
:103D2000F1FB0028F4D0F8BD0098F8BDC0330020A6
:103D30006C320020F0B58DB00BA8002484800B9469
:103D4000104D114E2746A87E874218D200220A92B3
:103D500001200890079206907F20059004920BA8FE
:103D600003900292072001900096F8B20990022178
:103D70002023FFF775FB7F1C0028E4D000E02046DD
:103D80000DB0F0BD6C320020FFFFFF00FEB5044611
:103D90000F4DA87E0F4909684E6D11360027009718
:103DA000C1B28F4212D2317801290CD101AA002070
:103DB00010715080707810700121204609F0A6FB28
:103DC000002804D1A87E14367F1CE9E70098FEBDC8
:103DD0006C320020C033002080B50120FFF7D6FFF1
:103DE00080BDFEE7B0B5096883240022002912D007
:103DF000CD690024CC61087AC00603D400200AF003
:103E0000E5FD02E008460AF01BFE012200282946D3
:103E1000ECD083240CE0D0070AD0EFF3108072B608
:103E2000044800688921425C521E425462B6002454
:103E3000E0B2B0BD7833002080B50E4800682C2277
:103E4000805CC007086802D10AF008FE01E00AF0B1
:103E500093FE002801D0832080BDEFF3108072B65E
:103E6000054800688821425C521E425462B6002018
:103E700080BDC046B8330020783300200120704751
:103E800070B50025074EF07A85420AD2ECB2204682
:103E90000AF0A6FE002802D020460AF0A1FE6D1C02
:103EA000F1E770BD6C320020F8B5002420460BF01D
:103EB0006DFA05460122304B2746009218683421DE
:103EC000405C844250D22C20285CFE210140022913
:103ED0003ED18C202E58F0070DD0698F00200BF0BA
:103EE00063FA3A28009A104630D028468C30016890
:103EF0000122914301602846FEF7CEF90028009A7E
:103F0000104623D128463146FEF7CEFA009A002803
:103F100010461BD1E6B23046FEF707FA009A002899
:103F2000104613D13046FEF70CFA009A00281046CE
:103F30000CD12846FEF719FA009A0028104605D140
:103F40003046FEF742FA009A411E88410A4B00E0D3
:103F50000020411E88413906174600D107464D20F2
:103F600080002D18641CA9E7380603D01120012118
:103F70000BF056FAF8BDC046B83300200120704758
:103F800003207047012070470120704701207047CF
:103F9000012070470120704701207047F0B542783A
:103FA000002A30D001460078022801D90C20F0BD4B
:103FB0001220022A04D3142A02D88E78022E00D9A5
:103FC000F0BD4B79012B07D124231F4CE55C112355
:103FD000092D16D21846F0BD002E14D009790229F9
:103FE000EED34B29ECD82320174A125C4B2A1046FB
:103FF00000D34B20022A00D20020884203D2112095
:10400000F0BD002E01D00020F0BDCE78771E012F2C
:10401000D6D809790229D3D34B29D1D8522D00D330
:104020005225083D6E43B01D80088242D2D823201D
:10403000225C4B2A104600D34B20022A00D20020DB
:1040400088421846BCD3DEE76C32002070B50B4CBA
:1040500001250422204629460BF0F8F9084E30606D
:104060000622204629460BF0F1F9316808603068D5
:104070000168002088804880087070BD6832002088
:10408000B4330020B0B50D460446087949790902D9
:1040900008180BF0EDF928796979090208180BF076
:1040A00027FA28796979090208180BF04FFA0BF002
:1040B00077FA28796979090208180BF073FA084829
:1040C00000683621405CC00601D40020B0BD152038
:1040D000E070A078BF210140A1708420B0BDC0462F
:1040E0007833002010B5044608794A791202121874
:1040F000C97806200BF078FA074800683621405648
:10410000002801D4002010BD1620E070A078BF2147
:104110000140A170842010BD7833002010B5044602
:1041200008794A7912021218C97807200BF05CFA54
:10413000074800683B214056002801D4002010BDEC
:104140001720E070A078BF210140A170842010BD2D
:1041500078330020B0B50D460446087900281DD1FB
:104160006879A979090208180BF0B8FA6879A97971
:10417000090208182A7AE9792B4609330BF0D2FA9A
:104180006879A979090208180BF0E6FA6879A97923
:1041900009020818E9790BF0FFFA28796979AA79F8
:1041A00012025118EA790BF006FB094801683D201C
:1041B0000A5C002092060AD53D31497AC90706D02B
:1041C0001820E070A078BF210140A1708420B0BD0C
:1041D00078330020FEB50D4604460879002823D127
:1041E0006879A979090208180BF078FA2A7AE9792E
:1041F0006879AB792E4615362F460F370097019612
:104200001B0218182B4609330BF0DFFA6879A979DD
:10421000090208180BF0A0FA6879A97909020818B0
:10422000E9790BF0B9FA28796979AA79120251185B
:10423000EA790BF0C0FA094801683D200A5C0020C9
:1042400092060AD53D31897A890706D51C20E0708F
:10425000A078BF210140A1708420FEBD78330020EA
:1042600070B50446144D28683626805D00280ED1AE
:1042700008794A79120210188A7BCB7B1B029A18A4
:10428000891D0BF0C9FA2868805D002812D00B4800
:1042900001683D200A5C002092060AD53D31497A2A
:1042A000C90606D51920E070A078BF210140A17091
:1042B000842070BD002070BDB8330020783300200A
:1042C00010B504460879491DFDF7C5FD0A48016887
:1042D0003D200A5C0020920604D53D310922895612
:1042E000002900D410BD1A20E070A078BF21014041
:1042F000A170842010BDC0467833002010B504465C
:104300000879491DFDF7ABFD094801683D200A5CAD
:10431000002092060AD53D31897AC90706D01B20B4
:10432000E070A078BF210140A170842010BDC0467C
:1043300078330020B0B505460024084621460BF02E
:10434000EBFA002810D0094800683D21415C89063D
:104350000AD53D30407A800706D50020E870A8785D
:10436000BF210140A97084242046B0BD78330020CD
:1043700009490A683D21535C00219B060AD53D325C
:10438000927A520706D51D21C1708178BF220A405A
:10439000827084210846704778330020B0B5044607
:1043A0000125084629460BF0B7FA014600200029EE
:1043B0000FD0084909683D228A5C920609D53D3133
:1043C000897AC90605D5E570A078BF210140A170A2
:1043D0008420B0BD7833002009490A683D21535C30
:1043E00000219B060AD53D32D27AD20706D01E2183
:1043F000C1708178BF220A408270842108467047CC
:104400007833002010B504464A7908791146FDF743
:104410007AFC094801683D200A5C002092060AD512
:104420003D31C97A890706D51F20E070A078BF21E9
:104430000140A170842010BD78330020FEB50D46E8
:1044400004460879002823D16879A9790902081857
:104450000BF044F92A7AE9796879AB792E4615365A
:104460002F460F37009701961B0218182B46093369
:104470000BF0ABF96879A979090208180BF06CF90F
:104480006879A97909020818E9790BF085F9287982
:104490006979AA7912025118EA790BF08CF9094866
:1044A00001683D200A5C002092060AD53D31897BD7
:1044B000C90706D02020E070A078BF210140A1707C
:1044C0008420FEBD78330020F8B5184C0125042265
:1044D000174E20462946B047164F38601022204616
:1044E0002946B047396808600C2220462946B04763
:1044F00039680968C860104DE98924222046B04710
:10450000014638680268D06881600021082903D01C
:1045100000235352891CF9E7E989D18000211181D8
:10452000E98941800BF012FAF8BDC04668320020DC
:104530004DF40410D43300206C3200200C2070475E
:1045400001207047B0B50546002420460BF01AFA4A
:10455000002801D00C2404E0012D02D10120FDF738
:10456000EEFF2046B0BDFEE7B0B50A4A126842230E
:10457000D45C7F252540D554002802D00BF022FAC8
:10458000B0BD08460BF03AFA0E200AF01FF80AF008
:104590006FF8B0BDD833002070B51D4E326842258B
:1045A000535DDB0628D5002816D0A43219480068D0
:1045B0003421405C70214143002399421CD0106893
:1045C000002807D0C0180489002C03D017240457F2
:1045D000002C12D47033F0E74920800010182024FA
:1045E000224609F0BAFB3068415D214341550E2057
:1045F00009F0ECFF0AF03CF870BD0B21002201230A
:104600000BF00EFA3068415DCF220A40425570BD72
:10461000D8330020B833002001207047F8B5222697
:10462000254B995D8620402902D81A7B8A4200D901
:10463000F8BD224D28683022815430300024447067
:1046400034224A43406821461F4609F08AFBB95D7F
:1046500028680A22A14206D0436B671C40349C5252
:1046600034323C46F6E738300BF0F0F92868403039
:104670000BF0ECF9296800200A4654320B464C3303
:10468000C8640B6548658A650B4A925D5200034613
:10469000DCB2A242CCD92401896C09190026CE6073
:1046A00029688E6C3619096D0E6029688E6C341974
:1046B0000C340C655B1CEBE76C320020D03300201F
:1046C000F0B587B00027604E604B05972220305C24
:1046D000874200D3B6E034247C431A68556B28190E
:1046E000C178002900D1ABE00379002B00D192E022
:1046F000192B0CD02E5B4589072B38D0162B75D083
:10470000062B7FD1304629460BF0A4F979E05E29CB
:1047100078D10297156C00200590012003904B4B37
:10472000002D7AD02E461868406B005BED69318809
:104730008142F5D10021304604910BF00DFA074675
:10474000022130460BF008FA404B1968496B0919F1
:104750000A8A9042E4D1488B8742E1D9032009F0CC
:1047600035FF09F085FF842005900498D6E7D0290D
:1047700048D1417930462A460BF0FEF905900028D1
:1047800043D1334800685521405C80071FD531482C
:104790000068806942214E22032309F06BFC002847
:1047A00015D00146057386720820487204200872ED
:1047B0000020C87106208871FF204871822008718E
:1047C000280A4873300AC872422009F0B3FC1F4817
:1047D0000068406B00198178090728D500892728CF
:1047E00025D1304629460BF02BFA20E0112909D1BA
:1047F0002021435CC28806A80090304629460BF071
:1048000045FA05900598002811D0012009F0DEFE38
:1048100009F02EFF0C4E0D4B12E00398C007029FCB
:10482000F3D00A480068406B00195F21C170074B44
:104830001868406B00190021C18005910171024E7A
:104840007F1C43E707B0F0BD6C320020D03300205E
:1048500078330020BC330020F8B5044622201849E4
:104860000090085C00270326164DC1B28F4212D279
:104870002968496B8A19D21E1288A24208D1895D23
:10488000002905D0F8B20BF08BFA00980C49085CAF
:1048900034367F1CE9E710200125002621462A46F0
:1048A00033460BF0A5FA202021462A4633460BF06A
:1048B0009FFA2046294632460BF0C6FAF8BDC0469C
:1048C0006C320020D0330020F8B501460079274A29
:1048D000D27A904222D209684A68137A9E1F002435
:1048E000142E1CD8537A14224243214D2D68ED6AB0
:1048F000AD180A887E4436797600B7440A12101043
:104900001010101010101010101015191C20262B4C
:10491000310028460BF0E8FA044600E00224204665
:10492000F8BD0BF04FFBFAE728460BF0B1FBF6E7BA
:104930000BF070FCF3E728460BF004FDEFE7009363
:10494000172328460BF07CFDE9E7009318230BF0B2
:10495000D1FEE4E70093192328460CF007F8DEE7C0
:1049600000931A230CF01CF9D9E7C0466C320020E2
:10497000D0330020801FC1B2142903D840B202A155
:10498000085C704700207047010100000000000033
:104990000000000000000101010101010100000010
:1049A000F8B501784468012921D000295FD1258814
:1049B00020460CF063F929460CF066F922212E4AB4
:1049C000515C884253D2217ADF220A40227234217C
:1049D00041432A480068406B4018C17F80220A4347
:1049E000C277042009F0F2FD09F042FE42E0668839
:1049F000258828460CF066F90746022120460BF070
:104A0000ABF80096002E32D0002F30D0112206468F
:104A100029460CF073F92221174A515C884226D2AC
:104A2000304629460CF08EF9342141431348006882
:104A3000426B511821228B5CCA89002B00D1921C39
:104A4000009B92B293420BD84A8C002A08D02231A4
:104A5000521E0A80383021460CF096F90220C1E738
:104A600006200871012009F0B1FD09F001FE204681
:104A70000CF091F90020F8BD6C320020D0330020FA
:104A8000F0B585B072480068816B002900D1DCE088
:104A900038300CF089F90446058828460CF012F9E4
:104AA00007460226204631460BF056F829460CF000
:104AB00049F9002F4DD0054622206649085C854201
:104AC00047D234276F4362480068416BC819C278E7
:104AD000112A3ED16288002A3BD0049221220392FF
:104AE000825C002A06D0531E012B50D8C28C808CC9
:104AF000042321E0042120460BF02EF854490B68D2
:104B0000596BCA19029292890190904219D8009368
:104B1000049B022B1DD30298826A002A00D08FE0EA
:104B20000122039BC2540022C284019B8384184645
:104B3000049B9B1E04930623801A049A92B290420F
:104B40000BDAC81906210171012009F03FFD09F0B7
:104B50008FFD20460CF01FF994E7284621460CF003
:104B60002DF93B480068416BC819C28C049BD318CF
:104B7000C384828C9BB2934202D20399465453E081
:104B80002130934202D10322027002E00278032A0C
:104B90004AD1C8198278120711D50289272A0ED165
:104BA000816A01200CF054F9002841D1284800689E
:104BB000406BC0190021039A8154816234E0264A77
:104BC00012685523D25C92062ED5C95B0491818C64
:104BD0000391468C4789214800688069422153220D
:104BE000042309F047FA002822D00146039B0374EE
:104BF000324686730773049E8672082048720D2021
:104C000008720020C8710A208871FF204871822034
:104C10000871180A4874100AC873380A4873300AB1
:104C2000C872422009F086FA28460CF04BF929E7B1
:104C3000022009F0CBFC09F01BFD0548006800903C
:104C40000098383021460CF05FF905B0F0BDC04641
:104C5000D03300206C32002078330020BC33002099
:104C6000F0B585B081880468807904AA107022228A
:104C7000344B9A5C65882688904208D104AB304654
:104C80002A460CF04BF9002858D104A800783421AA
:104C9000039148432C4F3968496B0818018A304604
:104CA0000CF068F93968002803D004A80278039F43
:104CB00021E0C86C002843D002950A464C32C368F4
:104CC000136005460C350195002B00D10A6504AA36
:104CD0001278039F3B4653434D6BEB181B8A00250C
:104CE0008560C560896D086006804380164801684C
:104CF00001988865029D7A43486B8018028A0221D8
:104D000020460CF049F90426204631462A460CF08C
:104D100043F90D4D28685C3021460CF035F83046DB
:104D200009F054FC09F0A4FC04A800787843296831
:104D3000496B0818817F491C8177002005B0F0BDC0
:104D40008820FBE76C320020D0330020F0B587B01C
:104D50008C4E3068406D0590059F002F00D10FE10B
:104D6000F8680590398878880BF08EFF22258649EF
:104D7000495D8842F0D2342343433068406BC01809
:104D8000C0785F2801D01128E6D1BC68002C0493BC
:104D900012D0A01C03906288002A22D0207A8006BC
:104DA000DAD43068406BC1181F23CE56FB88002E22
:104DB000029168D4734E73E0798838880CF0F6F865
:104DC00004463068002C4FD05C3021460CF006F9C8
:104DD0006088BC600021F980B8806180A01C0390CD
:104DE000049B3068406BC018818B0029B4D0FE88CA
:104DF000B9888A1B91B2808A814200D30246002E74
:104E000000D1921C029292B2002E00D0B61CB1B218
:104E1000019120460CF0C0F8B01C81B27A8820467F
:104E20000CF0BAF80298001D039908800020208237
:104E30002073E68160686061A061217A2943217254
:104E400006AA01990CF0E0F8A06120460CF0ECF8FD
:104E5000002800D08FE04B4E3068406B049940181A
:104E6000818B491E818377E739460C31436DBB4204
:104E700028D01A46DB68BB42FBD10B68D360002BFD
:104E800027D10C3224E01F3101917F210E4001997E
:104E90000E70002B01D10121CB433A4E9B18FB80B1
:104EA000B9889AB28A420BD10625A58163800298FF
:104EB0000089272814D1002021460BF0C9FF4AE0C1
:104EC000049B90E7024654320B681360002B00D11C
:104ED00082650022FA60006D0760306801653BE77B
:104EE00020460BF058FF294800685521405CC00659
:104EF00031D524480068406B04994018868B40895E
:104F00000290BC883888039021480068806942215B
:104F10005022042309F0AEF800281CD00146067484
:104F20008473029B0373039A8272082048720D7285
:104F30000020C8710A208871FF2048718220087102
:104F4000300A4874200AC873180A4873100AC872D5
:104F5000422009F0EFF80020B8600A4E3068406B3C
:104F600004994018817F491E81770598002800D058
:104F700007460597F0E6042009F028FB09F078FBC6
:104F800007B0F0BDD03300206C3200207833002011
:104F9000BC330020F8B51D4C206840300CF04EF8B2
:104FA000010431D00090206840300BF0FDFE054632
:104FB0004688341DA1B20CF04AF80027284639462D
:104FC00032460BF0E9FF6C80104C2F82EF812F737B
:104FD00068686861A861287A02210143297228461D
:104FE0000CF022F800280CD06888001F6880206828
:104FF000403029460BF0C8FE032009F0E7FA09F01B
:1050000037FB0098401ECBE7F8BDC046D0330020E8
:10501000F8B50546012068210CF024F8234F3860CC
:10502000234EF07A142421460CF01CF8014638680F
:10503000C162012D10D15C300AF008FD2225705D9F
:1050400034210CF00FF839684863705D400010217E
:105050000CF008F839688864F07A411C154D01227B
:1050600028460AF0F3F939680862F17A02222846E4
:105070000AF0ECF93D686862F17A0F4A0723284686
:105080000BF0FAFF386817210185318C172901D2FE
:105090008620F8BD4185F17A4C43C06A0021224642
:1050A00008F05FFEFCF7E3FEF8BDC046D0330020F9
:1050B0006C3200206832002095C30710F0B589B02B
:1050C0000546487F012862D10C462F462C372946D9
:1050D000883138780228059106D12069C11C06A8BC
:1050E0000A2208F03AFE1CE0E068C11C06AE0A2263
:1050F000304608F032FEB3883188E86CF288368991
:10510000009201960A460BF0CCFF002809D03879AE
:105110000BF0F0FF0598806801680122914301605F
:1051200033E0472080002E1806A80188008900037C
:10513000F2888A4212D106AA92882B8F934211D10B
:1051400006AAD288049232880393049B9A42039B56
:1051500007D1AA6E82421A4604D111E006AA9288AB
:1051600000E01A462A87F1806866A86606A8C0880B
:105170007080308001200002059A1168014311609F
:10518000F98A06A80BF0CEFFB0800020607709B046
:10519000F0BDF8B515460F4604460BF0DBFF06469A
:1051A00009204001225A384631460BF0DFFFB04259
:1051B00001D1454302E0691E4E4335180126012DF9
:1051C00018D020460BF0E3FFA842014600D3294641
:1051D00022469832002800D129465088C00708D0BE
:1051E000423420881288101A022803D3461E8E42A9
:1051F00000D30E463046F8BDB0B5044636250BF058
:10520000F5FF44550020B0BD70B5002420460AF0DB
:10521000BDF805460A4E30683421415C8C420DD2FF
:10522000FF210831695CC90703D028460BF0E8FF6D
:1052300030684D2189006D18641CEDE770BDC046D3
:10524000B8330020F0B597B0109315460C46119076
:1052500000260096019601270222304639460E921A
:1052600033460CF079F80F94E41E61426141FF204F
:10527000FD22144200D03CE1002D00D139E10C9513
:1052800007911C980168069140680890119806C81B
:10529000CBB21E980A901D980B90119108063046CB
:1052A0000D9210D0100CC1B2402900D30027581E17
:1052B000424242411740C0200140403948424841E3
:1052C00010403E460D9A05930C9949078A4B1A40A7
:1052D0000B9F119B3B607A600A9B002B01D08022C0
:1052E0001A70C90F0991854909689C25495989682F
:1052F0005D228A5C002A15D0002E13D00998002860
:1053000000D0EBE001230F980328109903D1084641
:10531000184000D1E3E00E9801400798081800D02B
:10532000DCE0DCE0002A4AD0002848D00D9B169330
:10533000119A159214A800270770096A03C912AEC2
:105340000797009701960CF009F8611E8C410C99A3
:105350000E0926400124002869D068480068405999
:105360008268106A006812A90978C90043180720EA
:10537000185600280C942146079807460B9C67D5C1
:1053800019787F20084013A9087028214143136829
:10539000526859182623C95CC90053185B685158D4
:1053A000DA0F554F3B400AC414A90A700A99083C09
:1053B000002900D00870002001460C9F48E00643F9
:1053C0000AD00798009010980190069802900898CB
:1053D00003900598119924E0089E119C20460D9990
:1053E0000CF020F80106109F13D4282141434348B4
:1053F000006840598068006840182521445C0CF022
:1054000035F841424141002C00D00121119C012975
:1054100064D107980090019706980290039605982A
:1054200021460D9A099B0CF02DF8034657E015A86C
:105430000CF058F8002E51D00C9414A8009013AA28
:1054400011980D990B9C23460CF06EF800210F4625
:1054500023780E9D2B43099A002A12D11193012320
:10546000109C23405A425A4125406B426B410F9C8D
:10547000032C00D01A4600290C9B15D0002A2BD1F2
:105480002CE0411E8841002F00D10C900C9801287F
:10549000089923D12068069A90421FD1606848403D
:1054A000154908421AD11AE00446411E8C41002FCA
:1054B000184600D1204601280AD114A80078411EC0
:1054C0008841002A00D10346002B119B06D006E03C
:1054D00068426841064201D0FE2300E0FF2301211B
:1054E00000910193022200201C4603460BF034FF7A
:1054F000204617B0F0BDC046FFFFFF007833002004
:10550000F0B58FB0069308920791044600270097E4
:105510000197022201253846294604922B460BF0BA
:105520001BFF266805946268300615980A90149C43
:10553000099414D01446100CC1B2C0200840403861
:10554000474247413346F0B2421E50425041402943
:1055500000D30025074005402246099C01E0334660
:105560003D468020039020707E49104608401C462E
:105570000A990B6048607C4B18689C210E46405885
:1055800080685D21415C002917D0002D15D0754938
:105590000898C00700D0D8E001260798022800D25A
:1055A000D4E006980068844200D0CEE006984068B7
:1055B0005040084200D0C8E0C8E0002915D0002FB4
:1055C00013D00E920D94079F032F21D10CA80090A9
:1055D00020461146099A0A9C23460BF0A5FF002895
:1055E00061D0267804980643B0E0781E87413D4399
:1055F00030D0204611460BF015FF43B2002B07991F
:10560000099A059800D4137000920A9A019244E016
:10561000016A03C913460BAA002500950192224690
:1056200005930BF09BFE002842D04F4B1868805921
:105630008068006A00680BA90978C9004118072032
:105640000856002838D40999039A0A7001260021C7
:105650000A9B50E01C46059F03CF083F0BF0E2FE7B
:105660000106079D13D42168895989680968099A38
:1056700010702822424388182521445C0BF0F6FE66
:1056800041424141002C00D0012101295DD10998FE
:1056900000900A98019038462946089A069B0BF01C
:1056A0008DFF064652E0089800284ED1FE264DE0B8
:1056B0000DA80BF017FF48E009787F220A400999EE
:1056C0000A700CA90D70282151431A6892599268EA
:1056D0001368526859182623C95CC90053185B68BF
:1056E0005258D90F1F4E33400A9E0CC6083E33460F
:1056F000049E1643F6B2089AD2070FD1069908788D
:10570000012810D18879C0210140402906990AD189
:10571000086884420A4605990BD010E0002814D589
:10572000002913D111E008680A461968814206D1A0
:105730005968506848400B49084045424541FD20A2
:10574000074078427841284300D1FF26012100918B
:105750000196002002220B460BF0FEFD30460FB0F2
:10576000F0BDC046FFFFFF0078330020F0B585B0E4
:105770001E460392049107460025009501950124D9
:10578000022228462146029213460BF0E5FD032033
:10579000800506CF1040A3054340C8B26040C3183F
:1057A000584258413768B94203D1736853401B02CD
:1057B00032D0002817D01D4800689C23C05880684C
:1057C0005D23C35C002B10D00B9B28265E43006832
:1057D0008019103001230BF035FF002805D0029806
:1057E000074339460CE0FF210AE003988007E943AC
:1057F0000028084600D5E043049A032A00D0014659
:10580000CDB20094019500200222214613460BF0F0
:10581000A3FD284605B0F0BD0A9A0028084601D12C
:105820000298C0439207EAD4EAE7C04678330020E2
:105830000120704701207047F0B587B028203C4E0A
:105840000590305C2624315D41432A200746305CB8
:1058500009182725725D25230693F35C5343181816
:10586000C84262D001201821324A9047324908606C
:1058700000210491416001700598305C315D414325
:10588000705D069AB25C42430397F05D4000801859
:10589000401802950C273946264A90472649096840
:1058A000C86022460194059C315DB25C4A43715D3B
:1058B000069BF35C4B43039D715D4900C9188A1830
:1058C0007A431E4B04999847305D019FF15D414337
:1058D000705D2C46081830252946164A904716490F
:1058E000096808610599715CF25D4A43315D52189F
:1058F0006A430499114B98472246029FF05D069C2B
:10590000315D4143B05C08181C252946094A90477F
:10591000094909684861F15D325D4A430399715C48
:1059200052186A430499054B984707B0F0BDC0462A
:105930006C32002065100510CC33002063DD0410AC
:1059400001207047F0B591B00D46098801200BF099
:105950009DFE0690002807D02988012008AA029001
:105960000BF0C6FE002808D0A868002800D1FEE190
:10597000C4690BF0E2FE2046F7E706988078FF281E
:1059800003D1069800790007EED5069808300790F5
:10599000AF680026019508A88078864200D3E6E12A
:1059A000012420460396B04069880026084215D09D
:1059B000A988084215D0FD690020F86108A8007880
:1059C0000028049507D00698407939460BF0BBFEB5
:1059D000002800D0CEE1029D3E4604E00497354603
:1059E00001E00497029D079F08A84078002800D195
:1059F000E7E0002E00D118E1002E00D126E1307A38
:105A000003210140079C2068022906D1B57808A926
:105A100009898D4201D8012D1BD8417821220A43E2
:105A2000427020684178002903D08A0603D43746A3
:105A300007E0374639E030460BF07FFE20684178BA
:105A40000027490628D508A9806900281DD042886A
:105A50001CE0806905900027022210AC30463946D0
:105A600023460BF087FE6078801CA84200D884E0B3
:105A7000079C2068417821220A434270206881698E
:105A80000029CED141784022C9E70022C988069C6E
:105A900020460BF079FEA06841789F220A404270B0
:105AA0000026002FA8D007980068806910A90978FF
:105AB0007D88002828D046884468384605910BF038
:105AC0004DFF014620460BF04EFF38460BF035FEE9
:105AD000701E1F210143C81C82B2079C2068806988
