:020000041004E6
:1000000000000120398A0510558D0510578D051007
:1000100000000000000000000000000000000000E0
:10002000000000000000000000000000598D0510D5
:1000300000000000000000005B8D05105D8D0510C4
:10004000F3830410378A0410A78D041063960410FC
:10005000FB9B0410279E04105B9E04105B9F041002
:10006000658D0510B7A9041057B6041013B7041016
:10007000A7BE0410818D051000000000B38D05108F
:10008000C18D0510FFBE0410A38D051000000000F7
:100090009B8D051000000000000000008B8D0510F6
:1000A000938D0510AB8D05100000000000000000CE
:1000B0000000000000000000000000000000000040
:1000C000100F0020722400000600020200001E0033
:1000D000F7000000FFFFFFFF6400011008000003AD
:1000E000F70001000001010202020200000100030A
:1000F000000400004572726F7220696E20424C4508
:100100005F535441434B5F496E697428292030780E
:10011000253032780D0A000020204661696C2020CD
:10012000203A206163695F68616C5F77726974650A
:100130005F636F6E6669675F6461746120636F6D92
:100140006D616E64202D20434F4E4649475F444108
:1001500054415F505542414444525F4F46465345D7
:10016000542C20726573756C743A203078253032C7
:10017000580A00002020537563636573733A206149
:1001800063695F68616C5F77726974655F636F6EE6
:100190006669675F6461746120636F6D6D616E6431
:1001A000202D20434F4E4649475F444154415F5004
:1001B0005542414444525F4F46465345540A00005D
:1001C00020204661696C2020203A206163695F68C5
:1001D000616C5F7365745F74785F706F7765725F71
:1001E0006C6576656C20636F6D6D616E642C20723A
:1001F0006573756C743A203078253032580A0000E7
:100200002020537563636573733A206163695F6887
:10021000616C5F7365745F74785F706F7765725F30
:100220006C6576656C20636F6D6D616E640A0000AD
:1002300020204661696C2020203A206163695F6755
:100240006174745F7372765F70726F66696C655FFC
:10025000696E697420636F6D6D616E642C207265C8
:1002600073756C743A203078253032580A000000DB
:100270002020537563636573733A206163695F6718
:100280006174745F7372765F70726F66696C655FBC
:10029000696E697420636F6D6D616E640A000000A1
:1002A0000A2A202A202A202A202A202A2041707067
:1002B0006C69636174696F6E206E616D65203A20B0
:1002C000424C455F52435F4C6F6E6752616E67658B
:1002D0005F5065726970686572616C202A202A20FF
:1002E0002A202A202A202A0A000000002020466115
:1002F000696C2020203A206163695F6761705F69E3
:100300006E697420636F6D6D616E642C207265730D
:10031000756C743A203078253032580A000000009D
:100320002020537563636573733A206163695F6767
:1003300061705F696E697420636F6D6D616E640AD0
:100340000000000020205075626C696320426C75CB
:1003500065746F6F746820416464726573733A20CA
:10036000253032783A253032783A253032783A25BD
:100370003032783A253032783A253032780A000027
:1003800020204661696C2020203A204761705F7010
:10039000726F66696C655F7365745F6465765F6EC6
:1003A000616D65202D20446576696365204E616D21
:1003B000652C20726573756C743A20307825303264
:1003C000580A00002020537563636573733A204711
:1003D00061705F70726F66696C655F7365745F648E
:1003E00065765F6E616D65202D2044657669636575
:1003F000204E616D650A000020204661696C202056
:10040000203A204761705F70726F66696C655F7338
:1004100065745F617070656172616E6365202D2027
:10042000417070656172616E63652C2072657375D1
:100430006C743A203078253032580A0020205375E9
:1004400063636573733A204761705F70726F6669AA
:100450006C655F7365745F617070656172616E6316
:1004600065202D20417070656172616E63650A00C0
:1004700020204661696C2020203A206163695F6713
:1004800061705F7365745F696F5F636170616269FA
:100490006C69747920636F6D6D616E642C20726578
:1004A00073756C743A203078253032580A00000099
:1004B0002020537563636573733A206163695F67D6
:1004C00061705F7365745F696F5F636170616269BA
:1004D0006C69747920636F6D6D616E640A00000051
:1004E00020204661696C2020203A206163695F67A3
:1004F00061705F7365745F73656375726974795F4A
:10050000726571756972656D656E747320636F6D68
:100510006D616E642C20726573756C743A2030784E
:10052000253032580A00000020205375636365733C
:10053000733A206163695F6761705F7365745F73AD
:10054000656375726974795F726571756972656DDD
:10055000656E747320636F6D6D616E640A000000D8
:1005600020204661696C2020203A206163695F6722
:1005700061705F636F6E6669677572655F66696CEF
:100580007465725F6163636570745F616E645F72EE
:1005900065736F6C76696E675F6C69737420636FE7
:1005A0006D6D616E642C20726573756C743A2030C9
:1005B00078253032580A0000202053756363657334
:1005C000733A206163695F6761705F636F6E66692C
:1005D000677572655F66696C7465725F6163636598
:1005E00070745F616E645F7265736F6C76696E675D
:1005F0005F6C69737420636F6D6D616E640A0000D7
:10060000536572766963657320616E642043686127
:100610007261637465726973746963732063726570
:100620006174696F6E0A0000456E64206F66205326
:100630006572766963657320616E642043686172D8
:100640006163746572697374696373206372656151
:1006500074696F6E0A00000020204661696C2020DA
:10066000203A206163695F68616C5F7365745F72D3
:100670006164696F5F61637469766974795F6D61E4
:10068000736B20636F6D6D616E642C207265737582
:100690006C743A2030782532580A000020205375B7
:1006A00063636573733A206163695F68616C5F734C
:1006B00065745F726164696F5F61637469766974A0
:1006C000795F6D61736B20636F6D6D616E640A0D90
:1006D000000000003E3E3D3D204843495F444953F1
:1006E000434F4E4E454354494F4E5F434F4D504C40
:1006F0004554455F4556545F434F44450A0000004A
:1007000020202020202D20436F6E6E656374696F5A
:100710006E2048616E646C653A2020203078253068
:1007200032580A20202020202D20526561736F6EE0
:100730003A202020203078253032580A000000006E
:100740003E3E3D3D204843495F4C455F434F4E4E42
:10075000454354494F4E5F5550444154455F434FC4
:100760004D504C4554455F5355424556545F434F99
:1007700044450A0020202020202D20436F6E6E6506
:100780006374696F6E20496E74657276616C3A208D
:10079000202025642E25303264206D730A2020200D
:1007A00020202D20436F6E6E656374696F6E206C20
:1007B0006174656E63793A2020202025640A202028
:1007C0002020202D205375706572766973696F6ED5
:1007D0002054696D656F75743A2020202564206D62
:1007E000730A00003E3E3D3D204143495F4C324389
:1007F00041505F434F4E4E454354494F4E5F555015
:10080000444154455F524553505F56534556545FDB
:10081000434F44450A0000003E3E3D3D20414349D0
:100820005F4741505F50524F435F434F4D504C45DF
:1008300054455F56534556545F434F44450A0000A4
:100840003E3E3D3D204143495F4741505F4B455946
:1008500050524553535F4E4F5449464943415449C2
:100860004F4E5F56534556545F434F44450A000070
:100870003E3E3D3D204143495F4741505F5041531B
:10088000534B45595F5245515F56534556545F434C
:100890004F44450A000000003D3D3E3E2061636933
:1008A0005F6761705F706173736B65795F726573A9
:1008B00070203A204661696C2C20726561736F6EFE
:1008C0003A203078253032580A0000003D3D3E3E47
:1008D000206163695F6761705F706173736B6579D5
:1008E0005F72657370203A20537563636573730A92
:1008F000000000003E3E3D3D204143495F474150DE
:100900005F4E554D455249435F434F4D504152490B
:10091000534F4E5F56414C55455F56534556545FB5
:10092000434F44450A0000003D3D3E3E206163695F
:100930005F6761705F6E756D657269635F636F6D30
:1009400070617269736F6E5F76616C75655F636FFE
:100950006E6669726D5F7965736E6F203A204661CD
:10096000696C2C20726561736F6E3A203078253087
:1009700032580A003D3D3E3E206163695F67617009
:100980005F6E756D657269635F636F6D70617269CB
:10099000736F6E5F76616C75655F636F6E666972AB
:1009A0006D5F7965736E6F203A205375636365736D
:1009B000730A00003E3E3D3D204143495F474150A0
:1009C0005F50414952494E475F434F4D504C45544B
:1009D000455F56534556545F434F44450A00000057
:1009E00020202020202D2050616972696E67204BE5
:1009F0004F0A20202020202D205374617475733AF3
:100A0000203078253032580A20202020202D2052F6
:100A10006561736F6E3A203078253032580A0000D5
:100A20003E3E3D3D204143495F474154545F535250
:100A3000565F524541445F56534556545F434F44B9
:100A4000450A00003D3D3E3E20636F6E6E65637457
:100A5000696F6E5F636F6D706C6574655F657665F9
:100A60006E74204661696C2C205374617475733AFE
:100A7000203078253032580A000000003E3E3D3DCF
:100A8000206863695F6C655F636F6E6E6563746930
:100A90006F6E5F636F6D706C6574655F6576656EB4
:100AA00074202D20436F6E6E656374696F6E2068CD
:100AB000616E646C653A203078253034580A000045
:100AC00020202020202D20436F6E6E656374696F97
:100AD0006E2065737461626C697368656420776900
:100AE000746820403A253032783A253032783A25F9
:100AF0003032783A253032783A253032783A25301B
:100B000032780A0020202020202D20436F6E6E6551
:100B10006374696F6E20496E74657276616C3A20F9
:100B2000202025642E25303264206D730A20202079
:100B300020202D20436F6E6E656374696F6E206C8C
:100B40006174656E63793A2020202025640A202094
:100B50002020202D205375706572766973696F6E41
:100B60002054696D656F75743A202564206D730A91
:100B7000000000006863695F6C655F726561645FB7
:100B8000706879206661696C7572653A207265617A
:100B9000736F6E3D3078253032580A003D3D3E3E41
:100BA000206863695F6C655F7365745F7068792046
:100BB00050485920506172616D202054583D2025C5
:100BC000642C2052583D202564202D200000000078
:100BD0006163695F6761705F7465726D696E61748E
:100BE00065206661696C7572653A20726561736F24
:100BF0006E3D3078253032580A0000003D3D3E3EC3
:100C0000206163695F6761705F7465726D696E61B1
:100C10007465203A20537563636573730A0000009E
:100C20006163695F676174745F636C745F65786347
:100C300068616E67655F636F6E666967206661698C
:100C40006C7572653A20726561736F6E3D30782500
:100C50003032580A000000003D3D3E3E206163698D
:100C60005F676174745F636C745F65786368616EFD
:100C700067655F636F6E666967203A2053756363CB
:100C80006573730A00000000537563636573732016
:100C90002D2057616974696E67204843495F4C4550
:100CA0005F5048595F5550444154455F434F4D5044
:100CB0004C4554455F5355424556545F434F444558
:100CC0000A00000020526563656976656420484328
:100CD000495F4C455F5048595F5550444154455F0A
:100CE000434F4D504C4554455F5355424556545F14
:100CF000434F44450A0000003D3D3E3E206163698C
:100D00005F6761705F7365745F6164766572746953
:100D100073696E675F636F6E666967757261746928
:100D20006F6E202D206661696C2C20726573756C66
:100D3000743A203078253032580A00003D3D3E3E5E
:100D400020537563636573733A206163695F6761FC
:100D5000705F7365745F6164766572746973696EE0
:100D6000675F636F6E66696775726174696F6E0A3B
:100D7000000000003D3D3E3E206163695F67617099
:100D80005F7365745F6164766572746973696E67B9
:100D90005F64617461204661696C65642C207265D2
:100DA00073756C743A203078253032580A00000090
:100DB0003D3D3E3E20537563636573733A20616326
:100DC000695F6761705F7365745F61647665727493
:100DD0006973696E675F646174610A003D3D3E3E00
:100DE000206163695F6761705F7365745F616476DA
:100DF0006572746973696E675F656E61626C6520A8
:100E00004661696C65642C20726573756C743A2058
:100E10003078253032580A003D3D3E3E2053756300
:100E2000636573733A206163695F6761705F7365BF
:100E3000745F6164766572746973696E675F656E0D
:100E400061626C650A00000044697361626C652030
:100E50006164766572746973696E67202D206661BE
:100E6000696C2C20726573756C743A20307825306B
:100E700032580A003D3D3E3E2044697361626C6514
:100E8000206164766572746973696E67202D2053E2
:100E90007563636573730A006163695F6C326361D4
:100EA000705F636F6E6E656374696F6E5F706172A1
:100EB000616D657465725F7570646174655F72659C
:100EC00071202D206661696C2C20726573756C74BD
:100ED0003A203078253032580A0000003D3D3E3E31
:100EE000206163695F6C326361705F636F6E6E6512
:100EF0006374696F6E5F706172616D657465725F56
:100F00007570646174655F726571202D205375631F
:100F1000636573730A0000003D3D3E3E2028434F49
:100F20004445442050485929206163695F676170D6
:100F30005F7365745F6164766572746973696E6707
:100F40005F636F6E66696775726174696F6E202D7D
:100F5000206661696C2C20726573756C743A203060
:100F600078253032580A00003D3D3E3E2028434F50
:100F70004445442050485929205375636365737371
:100F80003A206163695F6761705F7365745F616474
:100F9000766572746973696E675F636F6E666967A1
:100FA00075726174696F6E0A000000003D3D3E3E3F
:100FB0002028434F44454420504859292061636903
:100FC0005F6761705F7365745F6164766572746991
:100FD00073696E675F64617461204661696C656402
:100FE0002C20726573756C743A2030782530325835
:100FF0000A0000003D3D3E3E2028434F444544202A
:101000005048592920537563636573733A206163AF
:10101000695F6761705F7365745F61647665727440
:101020006973696E675F646174610A003D3D3E3EAD
:101030002028434F44454420504859292061636982
:101040005F6761705F7365745F6164766572746910
:1010500073696E675F656E61626C65204661696C7D
:1010600065642C20726573756C743A203078253075
:1010700032580A003D3D3E3E2028434F444544201F
:101080005048592920537563636573733A2061632F
:10109000695F6761705F7365745F616476657274C0
:1010A0006973696E675F656E61626C650A00000056
:1010B0002020504859206368616E6765642C207455
:1010C000783A25642072783A256420436F64656419
:1010D00020506879204C656433204F6E0A00000070
:1010E0002020504859206368616E6765642C207425
:1010F000783A25642072783A256420314D204C6579
:101100006433204F66660A002020504859206368E7
:10111000616E67656420556E65787065637465649B
:101120002C2074783A25642072783A256420314D59
:10113000204C656433204F66660A000020205374FB
:101140006F7020746865206F6E676F696E672061CD
:1011500064766572746973696E6720746F20737446
:101160006172742074686520616476657274697355
:10117000656D656E74207769746820314D0A0000D2
:101180005465726D696E6174652074686520636F63
:101190006E6E656374696F6E207769746820746819
:1011A000652063656E7472616C2064657669636541
:1011B0002E0A0000202D2D2D2D2D2D2D2D2D2D2DE8
:1011C0002D2D2D2D2D2D2D2D2D2D2D2D2D2D2D2D4F
:1011D000202020626C65417070436F6E7465787476
:1011E0002E4465766963655F436F6E6E65637469EF
:1011F0006F6E5F53746174757320202030782530D2
:1012000032580A00202053746F7020746865206F74
:101210006E676F696E672061647665727469736961
:101220006E6720746F207374617274207468652017
:101230006164766572746973656D656E7420776933
:10124000746820436F646564205048590A000000A8
:1012500028434F44454420504859292052656C6129
:10126000756E6368206164766572746973696E6710
:101270000A000000427574746F6E2025642070723D
:101280006573736564205B6C6F6E67507265737312
:1012900065733D25645D0A00000000000200000047
:1012A000300000200000000008000000A401002021
:1012B0000000000001000000500400200000FFFFBB
:1012C0000000000004000000BC1204100000000038
:1012D00002000000320000200000000001000000B9
:1012E00002E904100100000001000000040F0020CA
:1012F00020000000FB349B5F800000800010000095
:10130000052A0000100000000100000088020020F3
:10131000C01204100A000000FB349B5F80000080B4
:1013200000100000292B0000100000000000000049
:1013300000000000CC12041002000000FB349B5F90
:1013400080000080001000002A2B00001000000028
:10135000000000000000000000000000020000008B
:10136000FB349B5F80000080001000003A2B0000DF
:10137000100000000000000000000000D81204105F
:1013800000F0071000080000AA02000000F8071093
:10139000F80701000000000096C298D84539A1F472
:1013A000A033EB2D817D0377F240A463E5E6BCF822
:1013B00047422CE1F2D1176BF551BF376840B6CBED
:1013C000CE5E316B5733CE2B169E0F7C4AEBE78EE9
:1013D0009B7F1AFEE242E34F20204661696C202089
:1013E000203A206163695F676174745F636F6E6642
:1013F00069726D5F696E6469636174696F6E2063A1
:101400006F6D6D616E642C20726573756C743A201B
:1014100030782578200A00002020537563636573B7
:10142000733A206163695F676174745F636F6E66AE
:1014300069726D5F696E6469636174696F6E206360
:101440006F6D6D616E640A0020204661696C20201A
:10145000203A206163695F676174745F7372765FBD
:101460006164645F7365727669636520636F6D6D37
:10147000616E643A2052435F4C525F5065726970EE
:10148000682C206572726F7220636F64653A203039
:10149000782578200A000000202053756363657367
:1014A000733A206163695F676174745F7372765F1A
:1014B0006164645F7365727669636520636F6D6DE7
:1014C000616E643A2052435F4C525F50657269709E
:1014D00068200A0020204661696C20726567697384
:1014E000746572696E672052435F4C525F5065723B
:1014F0006970682068616E646C6572730A00000030
:101500000610000019ED82AEED214C9D4145228E62
:1015100021F2000080000000000000000000000038
:10152000EC0200201010000019ED82AEED214C9D60
:101530004145228E22F200008000000001000000E0
:10154000D0020020F80200208FE5B3D52E7F4A9804
:101550002A487ACC20F20000800000000100000040
:101560000000000000000000020000000015041050
:1015700020204661696C2020203A206163695F6702
:101580006174745F7372765F6E6F746966792053ED
:1015900057495443485F4320636F6D6D616E642CFF
:1015A000206572726F7220636F64653A203078250F
:1015B00032580A002020537563636573733A2061C3
:1015C00063695F676174745F7372765F6E6F74696D
:1015D0006679205357495443485F4320636F6D6DCC
:1015E000616E640A000000000100000001000000BC
:1015F000080F00202D2D204150504C4943415449A3
:101600004F4E20534552564552203A204E4F544992
:101610004649434154494F4E20454E41424C454472
:101620000A0000002D2D204150504C49434154499F
:101630004F4E20534552564552203A204E4F544962
:101640004649434154494F4E2044495341424C4539
:10165000440A00002D2D204150504C49434154492B
:101660004F4E20534552564552203A20494E464F40
:10167000524D20434C49454E5420425554544F4EF0
:101680002031205055534845440A00002D2D20415B
:1016900050504C49434154494F4E205345525645B2
:1016A00052203A2043414E275420494E464F524D36
:1016B00020434C49454E54202D204E4F5449464915
:1016C000434154494F4E2044495341424C45440AFA
:1016D000000000000D8D0510198D0510E78B051019
:1016E0006D8C05108D8A0510258B0510686A6C7449
:1016F0007A4C00007072696E74665F733A20256ED2
:1017000020646973616C6C6F776564007072696ED8
:1017100074663A2062616420256E20617267756D7F
:10172000656E74007072696E74665F733A206261F0
:101730006420257320617267756D656E740000000A
:10174000000000006E616E004E414E00696E660042
:10175000494E460030002E00FB349B5F8000008025
:1017600000100000292B000010000000FB349B5FDC
:101770008000008000100000052A0000100000001A
:10178000020000000300000003000000060000004B
:1017900003000000030000003C0000007000000097
:1017A00070000000D003000070000000C3010000C2
:1017B000FD96051007D40410BBD50410D3D804102F
:1017C000B3D70410F52B04102D2C0410372E041061
:1017D0003F2E0410472E04104F2E0410572E0410D5
:1017E000759D0510072E0410F72D04100F2E041000
:1017F00077E8041083D20410452C0410212D041026
:10180000012D0410092D0410659B0510EFEF051044
:101810004BEE0510EFF1051001F4051001F4051071
:1018200017F50510EFF10510F1F60510F1F60510AA
:10183000F1F60510F3F0051005EE0510C9ED0510E1
:1018400017F50510352C04103D2C0410B5FA0510C1
:10185000BDFA0510B9FA0510652C04106D2C0410A2
:10186000752C04107D2C04106DFA05108D2C0410BD
:10187000952C04109D2C0410852C041071FA051071
:1018800079FA05107DFA0510A52C041075FA0510DB
:10189000F0B595B0062103A800F08AFF0020694644
:1018A0008882A34C08A82100342200F089FF08A8F0
:1018B00000F0AEFF010005D02000343000F0DEFF64
:1018C00001F099F8E12069460873002103AB5970D3
:1018D00003AA917003A9C870802008710220487182
:1018E0000621002001F08CF8002805D0010020001E
:1018F000583000F0C3FF03E02000B43000F0BEFF1A
:101900001821002001F080F8002806D00100802076
:101910004000201800F0B2FF04E0A0204000201892
:1019200000F0ACFF07A9012001F072F8002806D0F2
:101930000100B8204000201800F0A0FF04E0D820EB
:101940004000201800F09AFFF0204000201800F01E
:1019500095FF0021002001F08FF8002806D001003B
:101960008B208000201800F089FF04E09820800080
:10197000201800F083FF05A8801C009006AB06AA83
:10198000921C0021012001F07FF803A80178029148
:101990004178019181780091C37802794179A12041
:1019A0008000201800F06AFF62A21721002001F0D9
:1019B000A0F8002806D00100B0208000201800F018
:1019C0005DFF04E0C1208000201800F057FF05AA49
:1019D0000221002001F093F8002806D00100CE205B
:1019E0008000201800F04AFF04E0DF20800020186B
:1019F00000F044FF00209D49087001F034FA0028EF
:101A000006D00100EC208000201800F037FF04E031
:101A1000FC208000201800F031FF0120934A507014
:101A20000821D170102111719070002000900026C3
:101A30008F4DA85DA9194978092922D0FF293CD1E9
:101A40003021AA1991700099D170022111718D2154
:101A50005171232191710099D171009911720099EE
:101A6000517203A94A79AB199A720A79DA72CA7863
:101A70001A738A785A734A789A730978AA19D173B3
:101A80001BE0311869180A78582A16D14A1E1378B3
:101A9000582B12D16B461B7B1B096F463F7B3F07C0
:101AA0003F0F092B01DD373300E030331370092F6E
:101AB00001DD373700E030370F703618761CB6B2CC
:101AC0001C2EB6DB00200290102001900820009010
:101AD000002300220121012001F0C9F9002806D0CD
:101AE00001008420C000201800F0C8FE04E08D2012
:101AF000C000201800F0C2FE5C488078002810D09A
:101B0000012001F006FA002806D001009420C00050
:101B1000201800F0B3FE04E09F20C000201800F061
:101B2000ADFE00BF09A000F0A9FE15B0F0BD000099
:101B3000C000041052435F4C6F6E6752616E676560
:101B40005F5065726970686572616C003D3D3E3E34
:101B500020456E6420424C455F496E69742066756D
:101B60006E6374696F6E0A0080B5012001F0E1F9BF
:101B700001F0E2F9012001F0DDF901BD80B501F0CD
:101B800005FB01BD80B50021022016E080B502F002
:101B90001CFE01BD80B5FFF7F5FF01BD80B5FFF765
:101BA000F1FF01BD80B502F043FEFFF7EBFF01211D
:101BB000042002E080B50121012002F059FF01BD9F
:101BC000F8B52C4A0021012002F045FF2A4A0021E5
:101BD000022002F040FF294A0021042002F03BFFCE
:101BE00002F0A8FF03F030F80021C943884201D178
:101BF00000F001FFFFF74CFE00261C4CA6732048A6
:101C0000A081204A00218020800002F024FF1E488D
:101C1000A0611E4820631EA7380000F02FFE1D4D56
:101C2000280000F02BFE03F077F82800283000F0A1
:101C300025FE380000F022FE062003F0BBF801006C
:101C400004D02800583000F019FE03E028009C3032
:101C500000F014FE012000F0CDFB0F4920001030F1
:101C600001F04EFD40202654F1BD0000800D002003
:101C70007C010020691B04107D1B04108D1B0410C7
:101C8000FFFF00002F260410112604102526041043
:101C90000A0000000006041060EA0000FEB505001E
:101CA0002878042802D0822802D0F7BDEF1C00E07B
:101CB0002F1D6978C64EC74C052908D0102900D1C0
:101CC000B6E13E2933D0FF2900D1FDE0BCE12879FF
:101CD00069790906090C0843B189884219D1BE48BF
:101CE000B0810020B073200000F0C8FD2979687928
:101CF0000006000C0143AA7920002C3000F0BEFD44
:101D0000002003F0A9F8012003F0A6F8022003F058
:101D1000A3F800F073FCCE480121017029796A799B
:101D20001206120C1143418002F0E6FFF7BDE9787C
:101D3000012900D1A8E0032906D00A2900D194E0A6
:101D40000C2900D183E0BDE020006C3000F096FD4E
:101D5000E879297A0906090C084303F08FF9002273
:101D6000BC4B03F0A5F9002280235B0303F062FA69
:101D7000E879297A21D80906090C0843EE79297AED
:101D80000906090C0E4303F079F90022B14B03F068
:101D90008FF900900191300003F070F90022AD4BF3
:101DA00003F086F903F06EFA03F078F902000B00F5
:101DB0000098019903F0F2FA1EE00906090C0843A5
:101DC000EE79297A0906090C0E4303F057F900222F
:101DD000A04B03F06DF903F055FA03F05FF90090A2
:101DE0000191300003F04AF900229B4B03F060F9A7
:101DF000009A019B03F06FFA0022984B03F058F908
:101E000003F040FAEA7A297B0906090C0A436B7A47
:101E1000A97A0906090C0B43E9792E7A3606360CA5
:101E200031430A255543009506001D00080003F0C4
:101E300025F90022874B03F03BF903F023FA010058
:101E40002B0032002000A03000F018FDF7BD01206B
:101E500002F01EFE6979A8790006000C01432B7A76
:101E6000EA79287900F0EEFBF7BDE87F6D1CE97F89
:101E70006D1E0906090C08436A7FA97F0906090C33
:101E80000A43EB7E297F0BE0E87C297D0906090CDB
:101E900008436A7CA97C0906090C0A43EB7B297C70
:101EA0000906090C0B436979AC792406240C2143FB
:101EB0000290019200932B0009332A7A287900F0CE
:101EC00023F9F7BD67A0C0E0387879780906090CD6
:101ED0000843001F17D06249401A61D0401E29D024
:101EE000401F0DD0801E37D0401E20D0C91F401A81
:101EF00003D02331401A71D093E0882040004DE098
:101F0000A22040004AE0B07B012803D0052801D080
:101F100004280BD1012002F09BFF3000283001F093
:101F200012FC05213000283001F0EAFBF7BDB62095
:101F3000400033E0CE204000201800F09FFCAF4965
:101F4000B08900F0A2FF002803D00100E220400089
:101F500020E0FC20400021E088208000201800F0D4
:101F60008DFC381D03F092FA010000BF44A000F080
:101F700085FC381D03F08AFA010000BF47A000F07D
:101F80007DFC0121B08900F084FF002804D001000D
:101F900095208000201858E0A8208000201813E029
:101FA000B8208000201800F069FC3979002906D09B
:101FB0007A79C3208000201800F060FC03E000BFA5
:101FC0003CA000F05BFC8EA000F058FCF7BD00BF09
:101FD000800D0020D4060410FFFF0000D3208000F5
:101FE000201800F04BFCB979F8790006000C014389
:101FF00036A000F043FCBA79F8790006000C0243E1
:10200000397978790006000C0143B878FB781B0613
:102010001B0C1843002301930093082300F056FF84
:10202000F7BD397878780006000C01432BA00CE04E
:10203000E87804280BDABFF34F8F724872490860C2
:10204000BFF34F8F00BFFDE72AA000F017FCF7BDDC
:10205000D40E00200000F43F0000F4BF00005940FF
:10206000FD0300004843495F4C455F4D4554415FC7
:102070004556543A203078253032580A0000000086
:1020800020202020202D206E756D657269635F769B
:10209000616C7565203D2025640A00002020202009
:1020A000202D204865785F76616C7565203D202580
:1020B000780A000020202020202D205061697269BC
:1020C0006E6720537563636573730A0048616E64BD
:1020D0006C65203078253034580A00004843495F49
:1020E00056454E444F525F4556543A20307825307D
:1020F00034580A004843495F4556454E543A20300B
:1021000078253032580A0000F8B588B09A4C00257E
:10211000020005D00100994800F0B0FBA5736BE008
:102120000E9F1E00684681812000103001F00BFBDD
:102130002000283001F007FB68468189904800F0B4
:102140009DFB3078029070780190B0780090F37821
:10215000327971798B4800F091FB380002F08EFFE4
:1021600006AA03C206A80CC80020874902F0A0FFF7
:1021700006000F0003F086F8019002F08FFF04AA1A
:1021800003C230003900002280235B0303F052F8C1
:1021900004D804AA0CCA03F001F909E006A80CC887
:1021A00000207A4902F084FF04AA0CCA03F093F8D5
:1021B0000022774B02F07CFF03F064F802001098D5
:1021C0000F9B0A21414300910199724800F056FB90
:1021D000A07B012801D1032000E00220A073684603
:1021E0008089A0816C48057069468989418002F028
:1021F00083FD012002F02CFE09B0F0BD40E2010099
:102200000A0000000400FA050CED00E0FEB500BF76
:1022100063A700BF6AA6614C574D002805D002286D
:1022200050D03ED3032859D0F7BD01AA01A9491CBB
:10223000A88900F063FE010059D1300000F01EFBB8
:10224000684602794179380000F018FB6846407909
:10225000022815D168460079022811D101220121F6
:102260002000283000F00AFB00200090012301220A
:102270000021A88900F046FE00287AD158A01CE071
:10228000022202212000283000F0F8FA00200090FD
:10229000022302220021A88900F034FE0028EDD09C
:1022A00067E01321A88900F0DAFD002803D00100BF
:1022B00020005C301CE02000883000F0DFFA00F0E5
:1022C000A2F9F7BDA88900F00AFE002803D001009A
:1022D0002000AC300CE02000E43037E001AA01A976
:1022E000491CA88900F00AFE002804D00100200043
:1022F00000F0C4FAF7BD300000F0C0FA6846027979
:102300004179380000F0BAFA68464079012820D1B6
:102310006846007901281CD10322032120002830BF
:1023200000F0ACFA00200090042304220021A889C8
:1023300000F0E8FD00281CD18A204000201800F0A1
:102340009DFA00F060F9A8204000201800F096FAED
:10235000F7BD012201212000283000F08FFA002073
:102360000090012301220021A88900F0CBFD002864
:10237000E2D000BF1DA0E9E7800D0020440A041050
:102380007C0A0410C00A04100000F43F0000F4BFEF
:1023900000005940040B0410D40E0020740B0410EC
:1023A0003D3D3E3E2050485920506172616D2020D5
:1023B00054583D2025642C2052583D2025640A00A5
:1023C0003D3D3E3E206863695F6C655F7265616498
:1023D0005F706879202D20537563636573730A00FD
:1023E000537563636573730A000000004661696C8E
:1023F0000A000000F8B58EB080210B91A027A74CF1
:10240000BF4E0200072A71D801A39B5C9F4400BF06
:102410000C081ADC306EDC90042570E0C820C00087
:102420000B90FA273F01052569E0002500220021D5
:10243000002003F036F8010000D1ABE0B520A5E0A4
:10244000C827BF000B9700200025FA214900402231
:10245000B25C002A11D028270B974022B05400917B
:10246000ABB23A000B9989B2B08900F040FD002868
:1024700000D192E00100C92088E00120EDE713219E
:10248000B08900F0ECFC002803D0010020005C3093
:10249000ABE02000883000F0F1F900F0B4F8ABE0D8
:1024A000062506210BA800F083F90BA80021017076
:1024B000418001710A9109910320089007910690CB
:1024C00005910491039102910720019000978023C8
:1024D00001220221002002F0E8FF002860D0010064
:1024E000E9208000201800F0C9F95FE0012806D932
:1024F000801E9BD0801EB2D0C01ED2D07CE00621B0
:102500000CA800F055F900200A90099001200890CD
:102510000020079001200690002005900490039071
:1025200002900720019000970B9B132202210020AC
:1025300002F0BBFF002806D00100C2204000201896
:1025400000F09CF905E0B573E4204000201800F08D
:1025500095F9884B1C220321002002F0DBFF0028A4
:1025600006D0010080208000201800F087F904E0E8
:102570008F208000201800F081F90CAA0121012091
:1025800002F08FFF002803D001009A2080002BE08A
:10259000A92003E0B573C02000E0DA20800028E025
:1025A000B573FD208000201800F068F9714B1C22E3
:1025B0000321002002F0AEFF002806D00100872092
:1025C000C000201800F05AF904E09020C000201844
:1025D00000F054F90BAA0121012002F062FF00284B
:1025E00006D001009720C000201800F047F903E052
:1025F000F800201800F042F90FB0F0BD80B50120BE
:1026000002F046FA01BD80B5012002F04BFA01BD8F
:1026100080B500BF5CA000F031F90021802080006F
:10262000FFF7CBFA80B5012002F016FC01BD80B5A2
:10263000012002F011FC0220FFF7DCFE00204E49D1
:10264000887301BD10B511001A004C4C032908D144
:10265000032A14D1022002F0FBFB032203212000F5
:102660000AE001290BD1012A09D1022002F0F4FB72
:10267000012201212000303000F000F910BD2000BF
:10268000583000F0FBF80A24022002F0F1FBFA2097
:10269000400002F043FF641EF6D110BD740B04101D
:1026A00038B5174CA07B364D062809D1280000F01C
:1026B000E5F82000103001F046F8FFF7B8FF08E019
:1026C000022806D12800443000F0D8F80520FFF792
:1026D00091FEA17B00290ED12FA000F0CFF80120A0
:1026E000FFF788FE27492000103001F009F802208A
:1026F00002F0B2FB31BD2800783000F0BFF831BDE8
:10270000800D00201C48807B022800D0704780B5D7
:102710000320FFF77BFD01BD38B5174DA87B184C92
:10272000042801D0052818D12000C83000F0A6F8F0
:102730002800103001F007F8FFF779FFA87B002888
:102740000AD18A204000201800F098F80720FFF7EF
:1027500051FE022002F080FB31BD0228EED12000A4
:10276000443000F08BF80520FFF744FE0020A873EA
:10277000E7E700007C010020800D0020B01004106D
:102780003C11041060EA00004164765F43616E63AF
:10279000656C5F5265710A0052656C61756E6368A5
:1027A000206164766572746973696E670A0000005F
:1027B000002200BF094202D0491E4254FCD170479A
:1027C00070B4103A03D378C9103A78C0FBD25307DB
:1027D00001D318C918C001D508C908C0D20704D34D
:1027E0000B880380891C801C002A01D50B7803709C
:1027F00070BC70478B0701D18307E1D0124205D02E
:102800000B78491C0370401C521EF9D170474300DD
:10281000B0B50546C07A1224802829D8298C1729FA
:1028200026D31448821D914222D8298A17291FD302
:1028300081421DD8A87E00281AD002F083FE00280D
:1028400008D0E87E002813D0802811D8287F401EA9
:102850000E280DD808483422294602F075FE02F0F1
:10286000E7FE002803D403F017F9002400E08724D2
:102870002046B0BDFA030000CC0D00200EB4C0B558
:10288000020003A801900020009001AB0121044840
:1028900078440C3003F06AF9029906B0084700BF8B
:1028A000E5C4010081B0314901E081B030490A68D6
:1028B00002430A60096808400090009801B0704720
:1028C0007CB504F0F7F800F05DF800F081F8042022
:1028D000FFF7E8FF0820FFF7E5FF00F02CFB00BF43
:1028E00046A000680090234C206A0125ED43012694
:1028F000304008D1206830432060206828402060A4
:102900000120FFF7D2FFC020C0050090684604F008
:10291000E3F868460021002206C0206A304008D152
:102920002068064326602068054025600120FFF7E7
:10293000BCFF114800681028FBD36846A02149005D
:10294000018000218170019100F05DFB0B480C4972
:10295000016004F055FA002801D000F04CF8002086
:1029600004F0B8FA04F03CFCFCE7000050004048DA
:10297000600040484000404810180060940E00205D
:102980000000304880B588B0182102A8FFF710FF7A
:1029900068460021002206C00320029080204002E9
:1029A00003901020059002A804F012FD002801D029
:1029B00000F021F8002000902020019000216846BE
:1029C00004F02EFE002801D000F015F809B000BD7B
:1029D00080B586B018216846FFF7EAFE0220009015
:1029E000C0020590684604F0B7FE002801D000F050
:1029F00002F807B000BD72B6FEE70000000000005C
:102A000080B504F0E3FE80BD80B504F0BDFF80BD5D
:102A1000F8B506000F0000203880154C200000F0AB
:102A20003CFA010023D1200000F03BFA0400114DD4
:102A3000F00705D52100280000F037FA010016D173
:102A4000280000F036FA388021002800243000F0F9
:102A50002CFA01000BD121002800483000F025FAA3
:102A6000010004D1210028006C3000F01EFAF2BDF4
:102A7000A4020020F012041080B5022801D912200F
:102A800080BD04F0A5FF80BDFEB50C00089F0025A9
:102A9000158002990D803D800521014027D0394ED7
:102AA000300000F0FAF9010022D168460470364C7B
:102AB000200000F0FEF9019908802000243000F089
:102AC000F8F902990880300000F0EBF93D80694682
:102AD0000978022906D1010020006C3000F0E5F9E8
:102AE000010005D12AA20821002000F002F80020F0
:102AF000FEBD70B504000D001600234804E070B55B
:102B000004000D001600214800F0D3F933002A001C
:102B10002100401C80B200F001F870BDF3B581B017
:102B200017001D000024184E6946088024206043C9
:102B3000301800F0BEF9002804D0401C694609880E
:102B4000884202D0641C052CF0D3052C0BD06846BB
:102B50000389242044433419206A8188DA19914278
:102B600001DB002801D11220FEBD29003A00806857
:102B7000C018FFF73FFE206A0178890700D547801B
:102B80000020FEBD60020020AC010020D00100202A
:102B900053544D333257423030B58BB018AC247893
:102BA0000A9417AC2478099416AC2478089415ACD0
:102BB0002478079414AC247806946D464C242C5742
:102BC000059412AC24780494119C039410AC2478DE
:102BD00002940FAC247801940E9C009404F052FFF0
:102BE0000BB030BD80B504F0EBFF02BD80B505F041
:102BF0000BF802BD80B505F08DF801BD80B505F07C
:102C0000AFF801BD80B505F0D3F801BD80B505F082
:102C1000D6F801BD80B505F0D3F802BD80B505F04A
:102C2000EBF802BD80B505F013F902BD80B505F0E3
:102C300035F901BD80B505F037F902BD80B505F065
:102C40005DF902BD80B505F089F901BD80B505F0DB
:102C5000EDF902BD80B505F0EBF902BD80B505F0D8
:102C6000E9F902BD80B505F001FA02BD80B505F0B5
:102C70002DFA02BD80B505F045FA02BD80B505F01C
:102C80005DFA02BD80B505F099FA02BD80B505F088
:102C9000DBFA02BD80B505F007FB02BD80B505F08B
:102CA00021FB02BD80B505F039FB02BD80B505F002
:102CB00051FB02BD80B505F087FB02BD80B505F074
:102CC00085FB02BD80B505F083FB02BD80B505F034
:102CD00091FB01BD80B505F0A5FB01BD80B505F0F8
:102CE000E1FB02BD1CB56C46247D01946C46247C3E
:102CF000009405F02DFC13BD80B505F0D9FC02BD94
:102D000080B505F0DDFC01BD80B505F0F5FC01BD29
:102D100080B505F00DFD01BD80B505F061FD01BD7B
:102D200080B505F0B7FD01BD80B505F043FE02BDDD
:102D300080B505F081FE01BD80B505F085FE02BDC0
:102D400080B505F08BFE02BD80B505F0B7FE01BD74
:102D500080B505F02DFF01BD80B505F063FF01BD15
:102D600080B505F09BFF01BD80B505F0D1FF02BD28
:102D700080B506F005F802BD80B506F015F801BD76
:102D800080B506F0D1F802BD18B587B010AC247834
:102D900006940FAC247805940EAC247804940DAC02
:102DA000247803940CAC247802940BAC247801941E
:102DB0000AAC2478009406F0B9F808B010BD80B5CC
:102DC00006F0E2F801BD80B506F0F8F801BD80B567
:102DD00006F014F901BD80B506F05AF901BD80B5C1
:102DE00006F076F902BD80B506F08EF902BD80B519
:102DF00006F0B8F901BD80B506F0EEF901BD80B569
:102E000006F0CCFA01BD80B506F0E0FA01BD80B550
:102E100006F0E0FA01BD80B506F0A2FB02BD80B568
:102E200006F0F4FB02BD80B506F01CFC01BD80B5C8
:102E300006F068FC01BD80B506F0C8FC01BD80B598
:102E400006F0D6FC01BD80B506F0F4FC01BD80B5EE
:102E500006F014FD01BD80B506F0CAFD01BD80B5C8
:102E600006F0DCFD02BD80B506F0DCFD02BD1FB53D
:102E700008AC247802946C46247F01946C46247E2E
:102E8000009406F0D7FD04B010BD80B506F016FE24
:102E900002BD80B506F01EFE02BD80B506F022FE22
:102EA00002BD80B506F022FE02BD80B506F022FE0E
:102EB00002BD80B506F022FE02BD1CB5059C019442
:102EC0006C46248A009406F01DFE16BD1CB5059CB8
:102ED00001946C46248A009406F023FE16BD80B54A
:102EE00006F028FE02BD80B506F028FE02BD1CB526
:102EF0006C46248A009406F025FE16BD80B506F0C7
:102F00002EFE02BD1CB56C46248A009406F030FEED
:102F100016BDE0B501A9087001220846114606F069
:102F200032FE002800D08CBD01A8007806F049FED2
:102F30008CBD70477047704780B5002006F05EFE7C
:102F400080BD830085000700070083008500050021
:102F50000700030003000F00050082008100050048
:102F6000010005D40121C006C00E81407E480160E9
:102F70007047C1680322914302220A43C26070472E
:102F800009E0C0688007800F022801D10120704746
:102F90000020704700BFC16803229143C1607047A1
:102FA000C0688007800F032801D1012070470020EE
:102FB00070470161704700697047816A8022D205BD
:102FC0000A4382627047816A684A0A408262704797
:102FD000816A4800C00F70474162704700697047BE
:102FE000816A802292050A438262704760480268C3
:102FF00007239A434907490F1143016070478068CE
:103000007047C0687047F1B501275A48C06B384314
:103010005849C8630846806B384388631720FFF718
:103020009FFF1420FFF79CFF5248406B38435149E3
:1030300048630846006B384308631820FFF790FF89
:1030400000980088C92800DAC8204B4D2900843137
:10305000486100984068002800D0012028700026B0
:10306000000603D100988078002813D04348C16837
:103070003940FBD017210160C1683943C160466007
:10308000C1683940FCD02800103000F0D7FBE86957
:10309000286209E0C82040032862E8613848A86136
:1030A000384828613848686100984068002802D193
:1030B000A020C0050DE000030A2106F0FEFD6860B7
:1030C000C54C200000F00AFB01006868884202D36A
:1030D000200000F003FB68602E7200980088290031
:1030E00058310861A96900F031FCBC4C0020207007
:1030F00000212A005832183203C21E4800682900F5
:1031000058318862002000212A005832203203C240
:103110002A00283203C234216854B14AA969686878
:1031200006F022FE286328782074A6602773667351
:10313000E681290058314E72290058314E81AE6522
:10314000EE65B448A8646E6500F0CFFA6A680023A3
:1031500012184B412800403000F026FC01212800C5
:1031600000F09CFBF1BD000000E100E0FFFFFFBFAD
:103170002818006010180060680A00200410006021
:10318000C2F528008D5B0000ECEB6501F8B58CB052
:10319000002469460C70EFF3108572B69E4F38001C
:1031A0005830407A00280BD000F09FFABA6DFB6DC2
:1031B0008B4205D801D3824202D238005830447283
:1031C00085F3108838009130019028E0401C1CE005
:1031D000046905738168002900D088472000F7D171
:1031E00069460298406B00F071FC0299486368469A
:1031F000007801280DD1EFF3108172B601980078A4
:10320000421C019B5B789A42E0D1019A107081F3D5
:1032100010880198407805994018019948700198E4
:103220004078019909780A1A02D2802040001218C9
:103230000025002A2AD00592B6480290446B002649
:103240000494039402E0260024696D1C002C0FD026
:10325000207B0028F7D000F048FA02000B0003CCD6
:10326000083C801A99410029EDDB01DC0628EAD3ED
:1032700028000025002802D03561049400E0039561
:1032800004980299486303980028A8E7387A002830
:1032900000D186E0A04800680126304000D199E0C6
:1032A0003D729E4CE078002804D1A078002801D01F
:1032B000A57048E03878002822D002A800F0BEFAB5
:1032C000049938005830006980B200F03FFBEFF3FA
:1032D0001080019072B634217E540398786104986E
:1032E000B861029838610598F861380000F0B4FCC4
:1032F000019880F310880021380000F0CFFA09E02F
:10330000EFF31080019072B6380000F0A5FC019830
:1033100080F31088694638005830406B00F0D6FBC7
:103320003900583148636846007801280BD1EFF323
:10333000108072B621784A1C63789A4200D0491CEA
:10334000217080F31088E07A00281BD0E572714D5F
:10335000AE726946280000F0C7FC6946686B00F051
:10336000B5FB68636846007801280BD1EFF3108045
:1033700072B621784A1C63789A4200D0491C2170A9
:1033800080F310883800403000F0DDF900F0ADF92E
:103390007A68002312184B413800403000F004FBDB
:1033A00018E03878002815D000F09FF93A0028324C
:1033B0000CCAFA246403A4185D418D420AD801D3D3
:1033C000844207D23800403000F0BDF93800403068
:1033D00000F0D0FA0DB0F0BDFFEFFFFFEC0A0020C7
:1033E000260300007CB50500874806680A4C69463C
:1033F000200000F025FB03C5083D844AE1690098E0
:10340000801B06F0B1FC020003CD0023801A994115
:103410007CBD000075390410680A0020F8B586B03C
:103420003E480290007802994978884236D1784D1A
:10343000287A002832D1032400F057F904AA03C2E5
:1034400003A800F05AFD0100280068302A0061320C
:103450006123EB5C002B02D15378002B01D00129B2
:1034600002D19278002A1BD0AA6DEB6D00920193D5
:1034700004A9C0C9027F002392197B41AE6E0027C8
:10348000B6185F41002152364F41009A019BBB4262
:1034900024D301D8B24221D3022405E0002037E032
:1034A00002291BD0012919D0426A002A2FD0107B93
:1034B00000282CD003CA083A0090019104A8C0C883
:1034C000A86E002180197941002352305941009E95
:1034D000019F8F4204D801D3864201D2012017E018
:1034E000032C13D11069002810D1280040308242EB
:1034F0000CD1012002998870002000F090FB7E48DA
:1035000001687E4A0A400260032001E00224200094
:1035100007B0F0BDC00A002010100060F90A0020BA
:10352000FEB5030000256C462572080000D001207E
:10353000374C210060310871100000D0012060215B
:1035400060542000283003C81A1A002312184B4177
:10355000A265E365210060314D7021006031CD70BE
:10356000012021006031887000F0BFF82200603235
:10357000D26A002A05D102A92000583000F0B4FB1D
:103580003BE0C0CA083A8F4215D301D8864212D315
:10359000A06DE16D009001919820205800218019C4
:1035A0007941009E019F8F4205D301D8864202D304
:1035B000107B002817D102A92000583000F094FB9E
:1035C00020006030C26AA66DE76D03CA083A8F42D8
:1035D00013D301D8864210D3107B00280DD00120D0
:1035E0009521605409E08B4801784906490E017025
:1035F00000218174C57400F06DFC012000F00FFB08
:103600006846007AFEBD0000140000603506000028
:10361000680A0020F8B50320C04380490A680240C8
:103620000A600A681040086083480168334A0A400B
:103630000260984C20005830002646724681EFF315
:10364000108772B600F051F8A26DE36D121A8B412B
:103650008420205C0021121A8B4114001D0087F386
:1036600010888D480068C005C00D222801D000F0E8
:1036700031FC002D04DC01DB012C01D20120F2BD64
:10368000002D04DC01DB0F2C01D20220F2BD002052
:10369000F2BDEFF3108072B65F4909685F4A091DF9
:1036A000516011680323994302230B43136080F395
:1036B0001088704710B5C024E4052000FFF761FCB6
:1036C000002806D12000FFF76BFC002801D100F094
:1036D00001FC10BD0020A6490870704780B59A4AC9
:1036E0006C49C96906F040FB02BD80B5694669486E
:1036F00000F0A6F904BD000030180060FFFFFFBF16
:10370000F8B504000D00FFF7F0FF06000F00290DCB
:1037100028030A22002306F048FB801979410200A1
:103720000B00200000F040F90400012000F077FABF
:10373000E0B2F2BD10B500F037F90400012000F04E
:103740006EFAE0B210BDF8B5964C21680E00002369
:1037500000250A0001E035003669002E07D08642B8
:10376000F9D137698E4201D13A0000E02F616D46F0
:103770002B7003732068904215D06946100000F04A
:10378000A5F920606846007800280DD0EFF310807E
:1037900072B661794A1CA3799A4200D0491C6171C2
:1037A00080F31088F1BD2260F1BD3EB50024019484
:1037B0000198384D69462800583000F095FA2800E5
:1037C00095300178002902D0047000F009F801203A
:1037D00097490A6802430A6009680840019037BDAA
:1037E00018B500200090009992490871924802682B
:1037F0000B4B134003600A78531C4C78A34200D053
:10380000521C0A700121C2690A43C261C0690140A9
:10381000009111BDC4000020101800600C00006071
:10382000FFFFFFBFA348816801220A438260002195
:1038300001607047000000002818006070B50400A7
:103840009D4D2800FFF7DBFB06002800FFF7D7FBA4
:103850008642F6D1002EF4D0984932124A43F3B290
:103860004B431912511810314911E16026602800AC
:10387000FFF7C7FB06002800FFF7C3FB8642F6D11F
:10388000002EF4D0B0118E49484380300012A06061
:10389000666070BD680A002004ED00E0F8B5050020
:1038A0000F00884C607A7D214843C90006F002FA77
:1038B000461CF6B2844AA9691B2006F055FA20700E
:1038C000607800F02AF83D216854E078801900F013
:1038D00024F8382168542079801900F01EF8392125
:1038E0006854607900F019F83A216854A07900F022
:1038F00014F83B216854002F06D0E078801900F0BE
:1039000004F81B303C216854F1BD68214143090A89
:10391000DB225043000C0818704700B502004748EE
:1039200040690021002306F07FFA0322002306F0FD
:103930007BFA8022D204002312184B41D20E580188
:103940000243100000BD00003506000080B55E4A4D
:1039500006F00AFABD49884201DD080002E010289D
:1039600000DA10200005000EB949086001BD000012
:10397000CB0A002010B5314C207A002806D12078DF
:10398000002801D0FFF74EFF01202072FFF7ADFEA7
:1039900000226430514102000B002000403000F052
:1039A00003F810BDF40A0020FEB500256C46257012
:1039B000017B002901D00120FEBD0CC00838012187
:1039C0000173C44C26680196070001E03500366992
:1039D000002E08D00CCE083E03CF083F8B42F5D313
:1039E00001D88242F2D338000661002D01D1019046
:1039F00000E028610199814214D1694600F066F81F
:103A000020606846007800280ED0EFF3108072B670
:103A100061794A1CA3799A4200D0491C617180F3F4
:103A2000108801E000F056FA68460078FEBD0000FC
:103A300044180060F90A002030180060680A00206D
:103A40007FB504000D00EFF3108672B6206F616F32
:103A500002AA03C2A048FFF7C1FA03002B609F4DE2
:103A600002A803C8009001912A00E1698020205833
:103A7000181A06F079F90021009A019B8018594123
:103A8000A26FE36F99420FD801D390420CD20090FD
:103A900001912A00E1690020C04306F065F9002188
:103AA000009A019B80185941A067E16786F310884E
:103AB00004B070BD0810006000100060F6BC080083
:103AC00053070000C500002026030000F3B589B0AD
:103AD00004460020087000E02469002C00D19BE01F
:103AE000207B0028F8D0EFF31080039072B60020FE
:103AF0006946087202A9491C794800F0F5F8FFF7F9
:103B0000F4FD0CCC083C04AD0CC504AA0CCA121A76
:103B10008B4106A80CC0012206A803C8002970DB4F
:103B200001DC01286DD36F4B986DD96D0090019128
:103B300004A803C898255E59002736184F410098FD
:103B40000199B94212D801D3B0420FD26120185C5A
:103B500000280BD09E6DDF6D04A803C88F4207D3E9
:103B600001D8864204D395201A5401E068460272B7
:103B7000384A9B6906A803C8190006F0F5F8060044
:103B8000202E00D82026544D2800FFF727FA86194A
:103B90000836EE622800FFF723FA286B8021C9055A
:103BA00001432963C027FF053800FFF7EAF9002821
:103BB00029D13800FFF7F4F9002824D16846007AAB
:103BC000002820D000F07DF931000F20814328002B
:103BD000FFF702FA00212800FFF708FA2800FFF794
:103BE000ECF92800FFF7FCF93E4908006130427803
:103BF0006123C95C114300D0012141700021017093
:103C000001E00A980270039880F310880A980078FF
:103C1000002801D0099800E020000BB0F0BD10B5DD
:103C200030490C009034002808D0207800280BD1AF
:103C300008004030FFF79EFE012004E008004030FD
:103C4000FFF781FD0020207010BD0000FF0F000075
:103C50000818006026030000FEB504001E48FFF7A8
:103C6000BDF90500206A0290270080371B4E320004
:103C700001463868281A06F077F80200200028303C
:103C800003C80090019110000021009A019B801848
:103C90005941206761672078002811D13868281AB7
:103CA000216B88420CD2320002990020C04306F0FA
:103CB0005BF8226F636F00218018594120676167AC
:103CC0003D60206F616F2200283203C2E0692062EC
:103CD000F7BD0000F40A002000180060350600005F
:103CE000C00A0020680A0020F3B589B000200870DF
:103CF0000998807A002800D1E1E09E4C200028300D
:103D00000CC8606800218018594106AA03C2EFF36D
:103D10001080049072B6FFF7E8FC02000B000998CF
:103D200003C802AD03C502A803C80090019106A80C
:103D300003C8C826B602002736184F4100980199DB
:103D4000B9420FD301D8B0420CD306A803C8B92694
:103D50007600002736184F419F4201D802D3964281
:103D600000D3A6E000200A32434102A803C8002580
:103D70004C38A9418B4201D802D3824200D392E051
:103D80000998027A02A803C805003C20205C099922
:103D9000097B012905D1002A01D0382106E039210B
:103DA00004E0002A01D03A2100E03B21615C00914F
:103DB000019002A92000FFF743FE2D1A6E4AA16967
:103DC000280005F0D1FF03906C4E6D4F0198A16E55
:103DD0004018C830A84203981DD27178401A009943
:103DE000451A029841193800FFF7F6F8002138000B
:103DF000FFF7FCF8C020C005FFF7C2F8C020C005DF
:103E0000FFF7C8F83800FFF7D8F83800FFF7E8F8F0
:103E10000098717814E03D21615C401A0099451AC0
:103E200002984119C020C005FFF7C3F83800FFF71A
:103E3000CAF8C020C005FFF79CF800983D21615CDE
:103E400040180299039A8918220068321162317869
:103E500080220A433270F021B174FF21F1742A18D4
:103E6000411D8A420CD2C024E4052000FFF788F8E7
:103E70002000FFF78FF83800FFF7A5F8012007E0D2
:103E8000404AE16905F070FF2100683108770020A1
:103E90000A9908700020099988720120099A5072C5
:103EA0000999C87208E06221655401200A990870D6
:103EB00002E001209C216054049880F310880BB02C
:103EC000F0BD2E4801784906490E01700021817429
:103ED000C17470471CB52C4C69462068FFF7F6FD8D
:103EE000206068460078012806D16079411CA279DB
:103EF000914200D0401C607113BD38B50400204DC4
:103F00002800FFF765F8002803D0686A20600320C6
:103F100032BDC025ED052800FFF733F8002805D095
:103F20002800FFF748F82060012032BD2800FFF785
:103F300037F8002804D02800FFF73DF82060022061
:103F400032BD80B5FFF74CFCFDF728FE01BD80B502
:103F5000FDF720FEFFF729FC01BD81B00020009095
:103F600000980A48016801220A4302600068009034
:103F700001B07047680A002026030000C40000203A
:103F80000018006035060000F40A0020740000608C
:103F90000168002202814281828182730B78FF2BAB
:103FA00005D0FE2B09D103895B1C03810AE042681E
:103FB000511A091F818100207047002B0DD14389C0
:103FC0005B1C43814A88D21C032313435B1CC91822
:103FD0004A1D43689A42E1D3EDE703207047F3B5E9
:103FE000079C0899250005D06D466C80FE242C7036
:103FF0006C4600E0446885684668AE4217D2267871
:10400000FF2E14D0067B002E04D0002606732678DF
:10401000002E0ED146686488E41C032727437F1CCA
:10402000F4194460AC4202D22678FF2EEFD104206E
:10403000F6BDFE2E01D00320F6BD6E463679FF2E6A
:1040400004D066786F463F79BE42E3D14068001DD8
:10405000106060881880002901D060780870002006
:10406000F6BD7FB515001C00099E002232800B9A18
:1040700001926A46128D009202AB03AAFFF7AFFFCE
:10408000010013D1694609898D4201D306200DE054
:10409000089A481B904200DA02002000039949194F
:1040A000FEF7A8FB684600893080002004B070BD90
:1040B000FEB5BB4D0D40491B6B461970002407002F
:1040C00016000AE00422311901A8FEF793FB019AB9
:1040D0003919002005F0C2FE241DAC42F2DB00209D
:1040E000C043019068460278711901A8FEF782FB6F
:1040F000019A7919002005F0B1FEF7BD70B544684A
:104100008668B44202D22678FF2E01D1042070BD09
:10411000007B002801D1FE2E01D0052070BD6588EE
:10412000A94201D3062070BD10001A00231D5918A2
:1041300005F004FF002801D00020C04370BD7CB50D
:10414000079C0025069E3580250005D06D466C80B5
:10415000FE242C706C4600E0446845688668B542D1
:1041600002D22678FF2E01D1042076BD007B0028E4
:1041700001D1FE2E01D0052076BD6088814201D399
:10418000062076BD401A984200DA030010001A009B
:104190002B1D5918FEF72EFB608806990880002019
:1041A00076BDF8B584B007000E001500B44C25426A
:1041B00003D105F0C3FE002820D001A80C21FEF792
:1041C000F7FACD483818C00A0290681E0443641CF0
:1041D0006003000E0390694601A805F0BFFE0024AD
:1041E0000AE06010800F0019032188433258391902
:1041F000002005F033FE241DAC42F2D305B0F0BD23
:10420000012101700021418081807047F1B588B0A3
:104210000C0015001E0000200090FF222900200045
:10422000FEF7C8FAFE20694608750794684645827D
:1042300006960E9D009C05AE19E06846008A6988C6
:10424000401A401E03240443641CA4B268886946D3
:10425000098A0A1A521E03211143491C89B28F424E
:1042600042DB01200022B94228706A8040D06846B3
:10427000408A071B3F1FBFB22878002826D0701C39
:104280000390A888029004A8019000970798001D49
:1042900003190022FF210898FFF7E3FE6946098A07
:1042A000A98001000ED16846008A7080042205A909
:1042B00007980019FEF79EFA7088C01C032101437D
:1042C0006418C1E706990C8009B0F0BDA888019078
:1042D00004A800903B000798021969880898FFF726
:1042E0002EFF0100A9D0EFE700212970C0196880D6
:1042F0006846408A069908800020E5E7F8B5AE4C8C
:10430000A544AE49020014235A438F187989002925
:1043100001D1002040E004A900F013F9059D02A896
:10432000FFF76EFF8026360102A8009001AB320035
:1043300008A904A8FFF76AFF0400042C06D0002C8B
:104340002AD168468088B042EED103E06846808872
:10435000002808D06846828808A92800FFF721FFB6
:10436000AD19002CE0D008A80C21FEF721FA624814
:1043700028184003000E09900698401E711E014344
:10438000491C481B4003000E0A90694608A805F026
:10439000E5FD3800FFF7FCFD89498D44F0BD0000C4
:1043A000FCFF0000F8B5844CA54400216A469171D9
:1043B00000220023814906000BE0B0680C245C4316
:1043C000005D1424604308184089002800D00122B1
:1043D0005B1C30798342F0DB002A25D08022120159
:1043E000FF2108A805F002FE0025802424010DE02D
:1043F00002A8FFF705FF02A8009001ABE21B92B2F2
:1044000008A8C11904A8FFF701FF6D1C3079854287
:104410000CDAB0680C226A43011D8F5804A9805C35
:1044200000F08FF80028E3D000201BE0220008A94C
:104430003068FFF7B6FE614C370069468D7900267B
:104440000CE0B8680C217143405C142148432018EB
:10445000FFF79EFD010000D00500761C38798642EA
:10446000EFDB280056498D44F0BD95498A79824298
:1044700001D102207047897C8142FAD00020704728
:10448000FF070000F8B54C4CA54404000E00802244
:104490001201FF2108A805F0A9FD00256846047156
:1044A000802424011CE00C276F43B068C05D6A467D
:1044B0001279904213D004A900F043F8B068C019F3
:1044C000476802A8FFF79CFE02A8009001AB9B1C66
:1044D000E21B92B208A8C11904A8FFF797FE6D1C51
:1044E00030798542DFDB220008A93068FFF759FEEA
:1044F000002033498D44F0BD0000FCEF10B50024CE
:104500006F480C21614341188A792C481423534386
:10451000C0180368002B10D1012A0EDC0A68026063
:104520008B88D218426009890182FFF731FD0100B2
:1045300004D1641C012CE3DD01E0012010BD00204A
:1045400010BD10B50200022A01DB012010BD1B4B7B
:10455000142462439A1813684B6052688A600122DF
:104560000A7308700020487310BD7FB5694C057848
:10457000142675436419A47B002C01D00A2008E09E
:1045800003940294099C01946C46248C0094FFF7D8
:1045900068FD04B070BD7CB5A04C05781426754349
:1045A0006419A47B002C01D00A2076BD0194069CDE
:1045B0000094FFF7C4FD76BDE0F7FFFF300E00204A
:1045C00024080000FAB583B017000325791E0326DE
:1045D0000E43761C0CE00C78FF2C18D0FE2C01D07A
:1045E000002C69D14A88D21C2A43521C8918416088
:1045F000826841684B1D9342EDD3884900781422AC
:10460000504308184089002854D1022055E00290F8
:10461000501A834B984201D2521A00E01A467F4C3E
:1046200092B2B0B26B461B8DC018001D824239DBBE
:104630006846007B0191FE216A4611706946487008
:104640006846008D30184880009A0199002005F0D6
:1046500005FC049AB1B20198001DFFF729FD0B9AE1
:104660006846018D0198B6B28019001DFFF720FD44
:10467000200008300299097814225143401801881B
:10468000491C018002980078142148432018818930
:104690006A46128DBA18521E1543491B491F818163
:1046A00000200AE00298007814214843201840892D
:1046B0000028AAD00B2000E0032005B0F0BD0000C8
:1046C0008013041010B504006168A06881421ED2F6
:1046D0000878FF281BD0FE2817D1FF22D2430020E4
:1046E00005F0BCFB4D4801000831227814235A43E1
:1046F00089180A88521E0A802178142251434018D2
:104700004189491C4181002010BD052010BD0420B5
:1047100010BD0000300E002078B585B00400694659
:10472000FFF7A3FE3D4D02281ED1142044432C194F
:10473000256802A80C21FEF73BF83A4828184003E8
:10474000000E03906068401E37490143491C481B16
:104750004003000E049001A902A805F0FFFB200011
:10476000FFF716FC00201BE0012818D1009920005B
:10477000FFF788FE040010D100260AE00098806848
:104780000C217143405C142148432818FFF700FCBA
:10479000761C009800798642F0DB200000E00120C2
:1047A00006B070BD1CB504006946FFF75EFE022826
:1047B00003D12000FFF7A2FD16BD012803D1009808
:1047C000FFF7F0FD16BD012016BD38B517480021D2
:1047D0004356DAB2114C1425554364196589002DEE
:1047E00003D0A589248AA54207D3521CD2B2022A3B
:1047F00000D100229A42EDD106E0531C5CB2022C9B
:1048000000D10023190001E00022D24301701006FC
:1048100002D4D0B2FFF7C6FF002032BD300E002018
:10482000FFFF00000000FCEFFF070000060F002064
:10483000F0B583B004464C480460204605F088FC7F
:104840000546204605F074FC0646684600F0E8FE82
:104850000099091A4B0B45490A681146D031002BC3
:1048600002D11060012000E000200870404800687C
:10487000447B0021FF2C0AD02C2060433D4A126863
:104880001018827C002A02D0416AC068FFE7012725
:10489000002E03D0002D01D1002911E0002D15D0EC
:1048A000354A8B1A5A425A41344BCD1A6B426B41EE
:1048B000334D4E1B75427541002907D013431D43EC
:1048C0002A4E294D04D08847002701E0274E264D67
:1048D000286805F039FC002801D0042520E028686C
:1048E00005F01CFC002801D0012519E0286805F01E
:1048F00019FC002801D0022512E0286805F02CFCE4
:104900002946052500280BD1086805F029FC002858
:1049100006D11548006805F0F1FB002820D00025DD
:104920000120A840174909680A6802430A6000206C
:1049300005F062FEFDF73EF900F06DFE204605F041
:104940006DFE3468607D012808D1217C0F2008406D
:10495000E268090906F028F80020607503B0F0BD90
:10496000002FE9D1EDE7C046DC0E0020A00E0020AC
:10497000A40E0020A80E002059FC051051FC0510C3
:1049800055FC0510E80E0020BCB5584CA1690091FB
:104990000840A06135E0521CD300E51803000B402D
:1049A0002F681F40F7D02A6810400140686808400F
:1049B00002D10020C04368606868084000F09AF89F
:1049C00001006A680120884082436A606162EFF3F7
:1049D000108172B6626A01209040C2432069104083
:1049E00020610220C300E318083B1D6815401D60CC
:1049F000401EF7D181F310883D48616A8900405814
:104A000080472369E2696069256AA16903400B4018
:104A100003D0154001D10022BEE70020C0436062F0
:104A2000206A104014D102F0E1FBEFF3108572B65A
:104A30002169E06962690A40A169114004D1216AD3
:104A4000014001D102F0D3FB85F3108805F0ADFFE2
:104A50000098A061B3BD38B51400EFF3108572B6AD
:104A600000F048F8800022490C5085F3108831BDD1
:104A700010B5EFF3108272B61C4B1C6904431C6125
:104A8000C90059180B681843086082F3108810BDDC
:104A9000EFF3108172B6154AD3691843D06181F3E0
:104AA00010887047F8B5114D696A00910022D24311
:104AB000914201D1002701E001278F402E6A286230
:104AC000040003E02100380005F070FFE869204091
:104AD000F8D000986862EFF3108072B6E969A143DC
:104AE000E96180F310882E62F1BD0000040300200C
:104AF0009C0B00200021020C120401D110210004A3
:104B0000020E120601D108310002020F120701D174
:104B1000091D00011F22511A02A2000F105C081A81
:104B2000C0B270470403020201010101000000004D
:104B30000000000010B5FFF7E1FC424C211D0020F1
:104B4000FFF7FFFC210014310120FFF7FAFC201DC4
:104B5000206010BD3EB53B4D022802D12C0014341C
:104B600000E02C1D2C6001936B461B8B00930B0007
:104B700001002000FFF726FD002805D0022801D102
:104B8000002000E00120C0433EBDF8B584B00E0017
:104B900019002C4C022E03D125001435012301E00D
:104BA000251D00230700256028466D466A81039174
:104BB0000A9D022F08D102A900912B00039A694691
:104BC0004989FFF7E8FC0FE0002F03D1010018002E
:104BD000FFF7B7FC02A801900095039B6846428945
:104BE00031002068FFF7C1FC010001D1002005E081
:104BF000042801D1022000E00120C04305B0F0BD2F
:104C000010B5140023000A0001000E480068FFF7E9
:104C100075FA002804D001D5200010BD0220C04341
:104C200010BD80B5022807D10649086814318842B2
:104C300007D0FFF747FD01BD032802D10020FFF791
:104C40006BFD01BD580E00200120FFE719490860E7
:104C5000002070470120C04316490968012900D18E
:104C6000002070470020EFF3108172B6114A1368DC
:104C7000012B02D00120C04301E00323136081F324
:104C8000108870470020EFF3108172B6094A13684C
:104C9000032B02D00120C04301E00123136081F304
:104CA0001088704780B50A00034905F010FF02BD67
:104CB00000000000CC0200209813041010B5010081
:104CC00034A43548354A0978012904D013D303297F
:104CD00009D005D310BD002000F0CAF830A008E0CC
:104CE0000121117002E0002111703030FDF7C6FD86
:104CF0002000FDF7C3FD10BD80B528490278002AC9
:104D000002D0012A03D001BD4088C88001BD2548DA
:104D1000C88000F012F801BD10B5204C2148E08099
:104D200005F0D3FF204A00218020C000FFF793FE4A
:104D30000020207000F001F810BD012017494870D4
:104D400000228A70C8700A7170473EB517480090FB
:104D5000694600220A71114C2279551EAD41ED0FB2
:104D60000122027045700220087111482178012942
:104D70000BD1FDF783FDE2880A48824203D06946E1
:104D8000012005F0CEFF257137BD3830FDF776FDE7
:104D9000F9E70000200A0000F4150410C40E0020FA
:104DA0002A200000FFFF00004B4D0410BC0800202B
:104DB0005416041002490968488200207047C04612
:104DC000A00E0020021D13688B431360026811437C
:104DD0000160704781B093490A6802430A6009681C
:104DE00008400090009801B0704730B585B00400CD
:104DF0000820FFF7EFFF89486100451829880091D6
:104E000001210191029102210391A10044186946F8
:104E1000A06805F0BBFF82480068C00610D5A068F6
:104E20009021C905884203D100997F48FFF7CAFF46
:104E3000A0687E49884203D100998948FFF7C2FFE4
:104E400001222988A06806F04FF8002005B030BD87
:104E500080B5724B002202E080B5704B0122410008
:104E6000595A80001818806806F03EF8002002BDEC
:104E700080B56A4A4100515A80001018806806F0D7
:104E800039F8002002BD70B586B006000C00300075
:104E900001D1042000E00820FFF79CFF2000714DA5
:104EA0007100695A01910121039102210491B1001D
:104EB0006C18010006D10020029001A9E06805F0FD
:104EC00065FF1FE001281DD18020400066490A6867
:104ED00002430A6009680840009000988020400260
:104EE000029001A9E06805F051FF280008308519FB
:104EF000002203210020285606F03BF80020285607
:104F000006F03CF846480068C00610D5E0689021DD
:104F1000C905884203D101994348FFF753FFE06870
:104F20004249884203D101994D48FFF74BFF0020C9
:104F300006B070BD80B54B4A4100515A8000101830
:104F4000C06805F0CBFF401E8041C00F02BD80B598
:104F500005F0D8FF01BDF0B587B00F000025002493
:104F6000002F02D10124E44355E0404994224243FA
:104F7000891800913E498000085800990860042073
:104F8000FFF728FF0420FFF725FF8020C0003949E4
:104F90000A6802430A60096808400190019880206D
:104FA0008000029002200390059001200490069555
:104FB0009026F60502A9300005F0E8FE18480068C2
:104FC000C00603D502991848FFF7FCFE8020400078
:104FD0000290069502A9300005F0D8FE0325ED43A6
:104FE0003900009805F0F0FF002800D02C000021C7
:104FF000009806F01FF8002800D02C00002100982F
:1050000006F031F8002800D02C00009805F0F4FFDD
:10501000002800D02C00200007B0F0BD380300208D
:105020000000504850004048200050480000104800
:10503000F8B500240D4E0091150094270BE0FA23DB
:105040009B000122009801190B4800787843301822
:1050500006F092F8641CAC42F1D32800F2BD0000C7
:10506000280050484C03002054004048080B002002
:105070006403002058004048090F0020010042222C
:105080001201D21E004207D002D4521E0018FCD5D5
:10509000C10A400512058918704700000100EED5CD
:1050A0004042F446FFF7EBFF0122D207114360476D
:1050B000F0B50E005E400125ED072E40B446AE0A65
:1050C000DF184C18F44208D2F7420ED2640D01D01A
:1050D0007F0D12D100206146F0BD05D1F74201D805
:1050E0007F0D05D10020C143F0BDFBD1640DF9D087
:1050F0000020C143490549088FE0E419C902DB02D9
:1051000029432B43DB0A460DC00231438E4630B49F
:1051100087B295B27D432E0CADB2140C7C43A4191A
:10512000260C240425439CB27C43A419190C794312
:10513000270CC919A4B20F043C43090C000C97B208
:1051400047432E0CBE193543ADB2170C4743360CFE
:10515000BF19A6B2BF193E043543240C3E0C3619C4
:105160009FB24743BF19BCB23E0C89191F0C47437D
:105170007F183E043443390C704680B297B24743DF
:105180002E0CBE193543ADB2170C4743360CBF1970
:10519000A6B2BF193E043543240C3E0C36199FB20B
:1051A0004743BF19BCB23E0C89191F0C47437F18F7
:1051B0003E043443390C77463F0C90B278432E0CB2
:1051C00080190604ADB22E43050CA0B22D18120CA6
:1051D0007A435019020C80B2240CA4189AB27A4374
:1051E000121914042043120C89181B0C7B43C91894
:1051F00030BCEF0A394203D1B61940414941641E1F
:105200006F12BF0DE41B0BDBFF19BC4211DA240542
:1052100000274208AE417841614166463143F0BD06
:10522000641C05D1401C6141CF0201D34908F4E759
:1052300050E75DE730B4012464054D00EC420BD823
:105240005D00EC4208D80C001C4364000443144386
:1052500004D28B4200D1824230BC7047FCD09942CC
:10526000FAD19042F8E70300FFFFFFFFFFFFFFFFC7
:10527000FFFFFFFFFFFF010000000000FFFF010034
:105280000000FFFFF4464A1805D200F00FF801D5E0
:1052900080174008604700F009F80121C9078842DB
:1052A00000D90800404260474A1812D2400DC90296
:1052B00008430121C9070843520D40210901521A30
:1052C000521C06D452421F3201D4D0407047C0173E
:1052D000704700207047F0B40125ED070F005F40D4
:1052E0004FD48B4200D1824205D9844610006246D9
:1052F0008C4619006346DF184C18640D7F0D3AD0B8
:10530000661C760537D0E61B352E34DCDB022B43DA
:10531000DB0A0C0DC9022943C912202E0DDB170030
:10532000203E06D01F00F741F3405F400026012ACF
:105330007741C01871410DD217E01700F741F240D4
:105340005740F3415A40B340F3405A40002680187A
:1053500059410AD3A21C52050FD0C207012F724136
:1053600017004008CB0718434908641C240542086D
:10537000AF4170416141F0BC7047641C21050020C1
:10538000F9E76B4010E06B40ABE7F742F3D1E9433C
:10539000F1E72442EFD100200021ECE7F0B4012531
:1053A000ED070F005F40EED40C00871A9C4105D238
:1053B000C01BA141D219634169406B40AE0ADF189E
:1053C0004C18F442E1D2640D7F0DE2D0E61B362E7C
:1053D000D1DCDB022B43DB0AA4460C0DC9022943B6
:1053E000C90A012E28DC04D1D6075208DF073A4348
:1053F0005B08EF0A76429041994114D039423BD183
:10540000B61940414941761C394204D1761C001836
:1054100049413942FAD0B9436746B74208D9A41B7B
:1054200024052143A7E70042EAD13642E8D1A2E7AA
:10543000E40AE10700209EE7202E0BDD203E1F003E
:10544000F340F7415F40012A002257417E429841D4
:1054500091410BE01700F741F2405740F3415A40A9
:10546000B340F3405A407E42904199410A0303D22F
:10547000641EB619404149410027641E24054208B4
:10548000AE4178416141F0BC70477047C378827883
:10549000417800781B021A430902120408431043A2
:1054A000704780B5FDF7A2FB80BDF0B593B01F46F5
:1054B00015460E4612901C9C08461146224606F0E0
:1054C000B7F8002824D122980D901FAB0DCB119076
:1054D0001E980F901D980E901B980C901A99199871
:1054E0001097189F089209930D9A0A9200970190BD
:1054F00002910C98039004940E9805900F980690D2
:1055000011980790129831462A46109BFDF744FBEC
:1055100013B0F0BD80B5FDF765FB80BD38B5050063
:1055200006F09AF804000020C043854202D00448E7
:1055300000782D1806F090F8001BA842FAD331BD70
:105540002C0300200020704780B506F08BF801BDC9
:1055500080B50B0011001A00FDF72CF901BD80B5D4
:1055600004F0ECFC02BD7FB504000D001600684697
:1055700006F0DEF86846017821704178297080785D
:1055800030707FBD80B5FFF78DFB02BD80B505F0A3
:105590009EFA02BD80B506F011F901BD80B506F096
:1055A0004FF902BD80B506F06DF902BD80B506F079
:1055B0009DFA02BD80B506F0E8FA01BD80B506F09F
:1055C000ECFA01BD80B506F0FDFA02BD80B506F02B
:1055D00019FB02BD80B506F045FB02BD80B506F0A3
:1055E00043FB02BD80B506F041FB01BD80B501F073
:1055F000B5FB02BD80B5FEF778F804BD80B5FEF7B7
:1056000099F802BD80B5FEF79EF801BD80B5FDF7A3
:1056100087FFC0B202BD80B5FDF7FCFFC0B202BD7E
:1056200080B5FDF7DFFE04BD80B5FEF732F801BDA1
:10563000F0B597B0E54C6720C543FDF70BFBE44E92
:10564000012802D0F07A002810D027462C463834A2
:10565000FDF700FBF17A6143784338184418FDF7F1
:10566000F9FAF17A4143DB48484324182634FDF720
:10567000F1FA01280ED1284660303189414328468D
:105680004430B27A4243501829464831327B4A436B
:10569000801800E000200390F0890A9006F06EFB6D
:1056A000012801D0FDF76CFBFDF7D0FA0128119419
:1056B00009D12C463834FDF7CDFA6043F17A4143E5
:1056C0000839099101E000200990F2484C3013900C
:1056D000FDF756FB012815D006F050FB012811D02C
:1056E0002920305C00280DD12520305C002809D10C
:1056F0002620305C002802D0E6484C3001E02846E5
:1057000024301390E3486C301290FDF739FB0128E8
:1057100015D006F033FB012811D02920305C002879
:105720000DD12520305C002809D12620305C0028CE
:1057300002D0D8486C3001E028463C301290FDF78A
:105740001FFB1090B07E0090F07F0F90FDF782FA63
:105750000790F07F019006F013FB0890F07F029015
:10576000FDF7ACFA002706F00DFB01283846159529
:1057700016974FD1707F0A2800D30A202C46383460
:105780004443C03C002506F0FFFA01282F4620D1F3
:10579000FDF760FA01280E9503D0159B184654308A
:1057A00002E0159B18464830BA49E431B27F4A43BB
:1057B000101835461E466036E97F32468A40871803
:1057C000FDF748FA012802D1E87A4643BF192E4670
:1057D0000E9DE0191490FFF7B5FE074606F0D4FAC7
:1057E00004463C40FDF736FA2040012808D1F07EFF
:1057F000401E03210143B07FB0224243D043451AEB
:1058000014984419FDF7BCFA6043A24908182C30DB
:10581000159D169F0690FDF71DFA0128394609D1FE
:1058200006F0B4FA0128394604D12220305C29461A
:1058300014314143059106F0A7FA0128384621D1D9
:105840009448D430B17E414328464830F27A4243EE
:1058500054180027FFF776FE012810D1FDF7FAF95A
:1058600001280CD1159A10465830317F414310461B
:105870006030F27E424350188438B77E4743E019C7
:10588000159D169F0E9006F083FA0128384633D1F5
:10589000FDF7E0F9012802D02F465C3704E02846E6
:1058A0006030F77A47430C3F2325705D00240028C1
:1058B000204605D0FDF7CEF9705D404203218843B4
:1058C000C0192427F15D159A64324A43851806F001
:1058D00059FA01280DD1FDF753FA012809D106F034
:1058E00053FA012805D1F45D002C159801D0044627
:1058F00050342819159D169F0D90FDF7ABF901281E
:10590000394609D106F046FA0128394604D128461D
:105910004830F17A414314390C91FDF79BF9012885
:105920003A4608D106F038FA01283A4603D128460B
:105930004C30F27A42432620315C2520345C6318D7
:105940002920305C0493002B149010D02820335C65
:10595000284660305843F83848432723F35C5435D1
:105960005D434C4B5B19483363431F181498002860
:1059700016970B920DD002462A20305C454D2B46DF
:10598000B033434337462E46C8365643F318483B98
:1059900003E02A20305C002337462826BE5D714391
:1059A000091827263D46BE5D74432418601813D09D
:1059B000159F3E464C3666433C4634344C43A11951
:1059C0003C465C3444430C19143C07E010FCFFFFD8
:1059D000CC0D00207CFDFFFF0024159F03990A9E3B
:1059E00011980818394644317143401809994018F4
:1059F00013994018129941183846603006460F9A9C
:105A000096408919109A012A06D1224E009A5643CF
:105A100071184526B60089192E46079D059A012D55
:105A200002D1019DA84009180898012805D13846DF
:105A30001830029DA840411870390698049D081836
:105A400080180E9940180D9940180C9940180B9920
:105A500040181499CD4201D0381858301699401882
:105A6000C018041906F09AF9012800D1E4197068E9
:105A700020180321C943F28DD21C0A40B38DDB1CD0
:105A80000B409A18338EDB1C0B40D118401A17B00C
:105A9000F0BDC04690FEFFFFF0B595B00120810437
:105AA00014912E480160BFF34F8FBFF36F8F04F046
:105AB0000CFBFFF7B0FD00201290C04304F0F8FA91
:105AC00006F05CF91390FDF7C1F81190FDF758F955
:105AD000109006F055F90F90FDF7F0F806F052F926
