:020000041004E6
:1000000000000120BD9D0510D9A00510DBA0051042
:1000100000000000000000000000000000000000E0
:10002000000000000000000000000000DDA005103E
:100030000000000000000000DFA00510E1A0051096
:100040002F8B0410E7930410779604101B9C041068
:10005000FB9C0410BB9D0410EF9D0410EF9E041048
:10006000E9A005101BA80410FBB40410B7B50410D8
:1000700043BD041005A10510000000003FA10510BC
:100080004DA105109BBD041027A105100000000024
:100090001FA105100000000037A105100FA10510D9
:1000A00017A105102FA1051000000000000000009E
:1000B0000000000000000000000000000000000040
:1000C0007C0F00200E2400000600010200001E002C
:1000D000F7000000FFFFFFFF6400011008000003AD
:1000E000F70001000001010202020200000100030A
:1000F000000400004572726F7220696E20424C4508
:100100005F535441434B5F496E697428292030780E
:10011000253032780D0A000020204661696C2020CD
:10012000203A206163695F68616C5F77726974650A
:100130005F636F6E6669675F6461746120636F6D92
:100140006D616E64202D20434F4E4649475F444108
:1001500054415F505542414444525F4F46465345D7
:10016000542C20726573756C743A203078253032C7
:10017000580A00002020537563636573733A206149
:1001800063695F68616C5F77726974655F636F6EE6
:100190006669675F6461746120636F6D6D616E6431
:1001A000202D20434F4E4649475F444154415F5004
:1001B0005542414444525F4F46465345540A00005D
:1001C00020204661696C2020203A206163695F68C5
:1001D000616C5F7365745F74785F706F7765725F71
:1001E0006C6576656C20636F6D6D616E642C20723A
:1001F0006573756C743A203078253032580A0000E7
:100200002020537563636573733A206163695F6887
:10021000616C5F7365745F74785F706F7765725F30
:100220006C6576656C20636F6D6D616E640A0000AD
:1002300020204661696C2020203A206163695F6755
:100240006174745F7372765F70726F66696C655FFC
:10025000696E697420636F6D6D616E642C207265C8
:1002600073756C743A203078253032580A000000DB
:100270002020537563636573733A206163695F6718
:100280006174745F7372765F70726F66696C655FBC
:10029000696E697420636F6D6D616E640A000000A1
:1002A0000A2A202A202A202A202A202A2041707067
:1002B0006C69636174696F6E206E616D65203A20B0
:1002C000424C455F52435F4C6F6E6752616E67658B
:1002D0005F5065726970686572616C202A202A20FF
:1002E0002A202A202A202A0A000000002020466115
:1002F000696C2020203A206163695F6761705F69E3
:100300006E697420636F6D6D616E642C207265730D
:10031000756C743A203078253032580A000000009D
:100320002020537563636573733A206163695F6767
:1003300061705F696E697420636F6D6D616E640AD0
:100340000000000020205075626C696320426C75CB
:1003500065746F6F746820416464726573733A20CA
:10036000253032783A253032783A253032783A25BD
:100370003032783A253032783A253032780A000027
:1003800020204661696C2020203A204761705F7010
:10039000726F66696C655F7365745F6465765F6EC6
:1003A000616D65202D20446576696365204E616D21
:1003B000652C20726573756C743A20307825303264
:1003C000580A00002020537563636573733A204711
:1003D00061705F70726F66696C655F7365745F648E
:1003E00065765F6E616D65202D2044657669636575
:1003F000204E616D650A000020204661696C202056
:10040000203A204761705F70726F66696C655F7338
:1004100065745F617070656172616E6365202D2027
:10042000417070656172616E63652C2072657375D1
:100430006C743A203078253032580A0020205375E9
:1004400063636573733A204761705F70726F6669AA
:100450006C655F7365745F617070656172616E6316
:1004600065202D20417070656172616E63650A00C0
:1004700020204661696C2020203A206163695F6713
:1004800061705F7365745F696F5F636170616269FA
:100490006C69747920636F6D6D616E642C20726578
:1004A00073756C743A203078253032580A00000099
:1004B0002020537563636573733A206163695F67D6
:1004C00061705F7365745F696F5F636170616269BA
:1004D0006C69747920636F6D6D616E640A00000051
:1004E00020204661696C2020203A206163695F67A3
:1004F00061705F7365745F73656375726974795F4A
:10050000726571756972656D656E747320636F6D68
:100510006D616E642C20726573756C743A2030784E
:10052000253032580A00000020205375636365733C
:10053000733A206163695F6761705F7365745F73AD
:10054000656375726974795F726571756972656DDD
:10055000656E747320636F6D6D616E640A000000D8
:1005600020204661696C2020203A206163695F6722
:1005700061705F636F6E6669677572655F66696CEF
:100580007465725F6163636570745F616E645F72EE
:1005900065736F6C76696E675F6C69737420636FE7
:1005A0006D6D616E642C20726573756C743A2030C9
:1005B00078253032580A0000202053756363657334
:1005C000733A206163695F6761705F636F6E66692C
:1005D000677572655F66696C7465725F6163636598
:1005E00070745F616E645F7265736F6C76696E675D
:1005F0005F6C69737420636F6D6D616E640A0000D7
:10060000536572766963657320616E642043686127
:100610007261637465726973746963732063726570
:100620006174696F6E0A0000456E64206F66205326
:100630006572766963657320616E642043686172D8
:100640006163746572697374696373206372656151
:1006500074696F6E0A00000020204661696C2020DA
:10066000203A206163695F68616C5F7365745F72D3
:100670006164696F5F61637469766974795F6D61E4
:10068000736B20636F6D6D616E642C207265737582
:100690006C743A2030782532580A000020205375B7
:1006A00063636573733A206163695F68616C5F734C
:1006B00065745F726164696F5F61637469766974A0
:1006C000795F6D61736B20636F6D6D616E640A0D90
:1006D000000000003E3E3D3D204843495F444953F1
:1006E000434F4E4E454354494F4E5F434F4D504C40
:1006F0004554455F4556545F434F44450A0000004A
:1007000020202020202D20436F6E6E656374696F5A
:100710006E2048616E646C653A2020203078253068
:1007200032580A20202020202D20526561736F6EE0
:100730003A202020203078253032580A000000006E
:100740003E3E3D3D204843495F4C455F434F4E4E42
:10075000454354494F4E5F5550444154455F434FC4
:100760004D504C4554455F5355424556545F434F99
:1007700044450A0020202020202D20436F6E6E6506
:100780006374696F6E20496E74657276616C3A208D
:10079000202025642E25303264206D730A2020200D
:1007A00020202D20436F6E6E656374696F6E206C20
:1007B0006174656E63793A2020202025640A202028
:1007C0002020202D205375706572766973696F6ED5
:1007D0002054696D656F75743A2020202564206D62
:1007E000730A00003E3E3D3D204143495F4C324389
:1007F00041505F434F4E4E454354494F4E5F555015
:10080000444154455F524553505F56534556545FDB
:10081000434F44450A0000003E3E3D3D20414349D0
:100820005F4741505F50524F435F434F4D504C45DF
:1008300054455F56534556545F434F44450A0000A4
:100840003E3E3D3D204143495F4741505F4B455946
:1008500050524553535F4E4F5449464943415449C2
:100860004F4E5F56534556545F434F44450A000070
:100870003E3E3D3D204143495F4741505F5041531B
:10088000534B45595F5245515F56534556545F434C
:100890004F44450A000000003D3D3E3E2061636933
:1008A0005F6761705F706173736B65795F726573A9
:1008B00070203A204661696C2C20726561736F6EFE
:1008C0003A203078253032580A0000003D3D3E3E47
:1008D000206163695F6761705F706173736B6579D5
:1008E0005F72657370203A20537563636573730A92
:1008F000000000003E3E3D3D204143495F474150DE
:100900005F4E554D455249435F434F4D504152490B
:10091000534F4E5F56414C55455F56534556545FB5
:10092000434F44450A0000003D3D3E3E206163695F
:100930005F6761705F6E756D657269635F636F6D30
:1009400070617269736F6E5F76616C75655F636FFE
:100950006E6669726D5F7965736E6F203A204661CD
:10096000696C2C20726561736F6E3A203078253087
:1009700032580A003D3D3E3E206163695F67617009
:100980005F6E756D657269635F636F6D70617269CB
:10099000736F6E5F76616C75655F636F6E666972AB
:1009A0006D5F7965736E6F203A205375636365736D
:1009B000730A00003E3E3D3D204143495F474150A0
:1009C0005F50414952494E475F434F4D504C45544B
:1009D000455F56534556545F434F44450A00000057
:1009E00020202020202D2050616972696E67204BE5
:1009F0004F0A20202020202D205374617475733AF3
:100A0000203078253032580A20202020202D2052F6
:100A10006561736F6E3A203078253032580A0000D5
:100A20003E3E3D3D204143495F474154545F535250
:100A3000565F524541445F56534556545F434F44B9
:100A4000450A00003D3D3E3E20636F6E6E65637457
:100A5000696F6E5F636F6D706C6574655F657665F9
:100A60006E74204661696C2C205374617475733AFE
:100A7000203078253032580A000000003E3E3D3DCF
:100A8000206863695F6C655F636F6E6E6563746930
:100A90006F6E5F636F6D706C6574655F6576656EB4
:100AA00074202D20436F6E6E656374696F6E2068CD
:100AB000616E646C653A203078253034580A000045
:100AC00020202020202D20436F6E6E656374696F97
:100AD0006E2065737461626C697368656420776900
:100AE000746820403A253032783A253032783A25F9
:100AF0003032783A253032783A253032783A25301B
:100B000032780A0020202020202D20436F6E6E6551
:100B10006374696F6E20496E74657276616C3A20F9
:100B2000202025642E25303264206D730A20202079
:100B300020202D20436F6E6E656374696F6E206C8C
:100B40006174656E63793A2020202025640A202094
:100B50002020202D205375706572766973696F6E41
:100B60002054696D656F75743A202564206D730A91
:100B7000000000006863695F6C655F726561645FB7
:100B8000706879206661696C7572653A207265617A
:100B9000736F6E3D3078253032580A003D3D3E3E41
:100BA000206863695F6C655F7365745F7068792046
:100BB00050485920506172616D202054583D2025C5
:100BC000642C2052583D202564202D200000000078
:100BD0006163695F6761705F7465726D696E61748E
:100BE00065206661696C7572653A20726561736F24
:100BF0006E3D3078253032580A0000003D3D3E3EC3
:100C0000206163695F6761705F7465726D696E61B1
:100C10007465203A20537563636573730A0000009E
:100C20006163695F676174745F636C745F65786347
:100C300068616E67655F636F6E666967206661698C
:100C40006C7572653A20726561736F6E3D30782500
:100C50003032580A000000003D3D3E3E206163698D
:100C60005F676174745F636C745F65786368616EFD
:100C700067655F636F6E666967203A2053756363CB
:100C80006573730A00000000537563636573732016
:100C90002D2057616974696E67204843495F4C4550
:100CA0005F5048595F5550444154455F434F4D5044
:100CB0004C4554455F5355424556545F434F444558
:100CC0000A00000020526563656976656420484328
:100CD000495F4C455F5048595F5550444154455F0A
:100CE000434F4D504C4554455F5355424556545F14
:100CF000434F44450A0000003D3D3E3E206163698C
:100D00005F6761705F7365745F6164766572746953
:100D100073696E675F636F6E666967757261746928
:100D20006F6E202D206661696C2C20726573756C66
:100D3000743A203078253032580A00003D3D3E3E5E
:100D400020537563636573733A206163695F6761FC
:100D5000705F7365745F6164766572746973696EE0
:100D6000675F636F6E66696775726174696F6E0A3B
:100D7000000000003D3D3E3E206163695F67617099
:100D80005F7365745F6164766572746973696E67B9
:100D90005F64617461204661696C65642C207265D2
:100DA00073756C743A203078253032580A00000090
:100DB0003D3D3E3E20537563636573733A20616326
:100DC000695F6761705F7365745F61647665727493
:100DD0006973696E675F646174610A003D3D3E3E00
:100DE000206163695F6761705F7365745F616476DA
:100DF0006572746973696E675F656E61626C6520A8
:100E00004661696C65642C20726573756C743A2058
:100E10003078253032580A003D3D3E3E2053756300
:100E2000636573733A206163695F6761705F7365BF
:100E3000745F6164766572746973696E675F656E0D
:100E400061626C650A00000044697361626C652030
:100E50006164766572746973696E67202D206661BE
:100E6000696C2C20726573756C743A20307825306B
:100E700032580A003D3D3E3E2044697361626C6514
:100E8000206164766572746973696E67202D2053E2
:100E90007563636573730A006163695F6C326361D4
:100EA000705F636F6E6E656374696F6E5F706172A1
:100EB000616D657465725F7570646174655F72659C
:100EC00071202D206661696C2C20726573756C74BD
:100ED0003A203078253032580A0000003D3D3E3E31
:100EE000206163695F6C326361705F636F6E6E6512
:100EF0006374696F6E5F706172616D657465725F56
:100F00007570646174655F726571202D205375631F
:100F1000636573730A0000003D3D3E3E2028434F49
:100F20004445442050485929206163695F676170D6
:100F30005F7365745F6164766572746973696E6707
:100F40005F636F6E66696775726174696F6E202D7D
:100F5000206661696C2C20726573756C743A203060
:100F600078253032580A00003D3D3E3E2028434F50
:100F70004445442050485929205375636365737371
:100F80003A206163695F6761705F7365745F616474
:100F9000766572746973696E675F636F6E666967A1
:100FA00075726174696F6E0A000000003D3D3E3E3F
:100FB0002028434F44454420504859292061636903
:100FC0005F6761705F7365745F6164766572746991
:100FD00073696E675F64617461204661696C656402
:100FE0002C20726573756C743A2030782530325835
:100FF0000A0000003D3D3E3E2028434F444544202A
:101000005048592920537563636573733A206163AF
:10101000695F6761705F7365745F61647665727440
:101020006973696E675F646174610A003D3D3E3EAD
:101030002028434F44454420504859292061636982
:101040005F6761705F7365745F6164766572746910
:1010500073696E675F656E61626C65204661696C7D
:1010600065642C20726573756C743A203078253075
:1010700032580A003D3D3E3E2028434F444544201F
:101080005048592920537563636573733A2061632F
:10109000695F6761705F7365745F616476657274C0
:1010A0006973696E675F656E61626C650A00000056
:1010B0002020504859206368616E6765642C207455
:1010C000783A25642072783A256420436F64656419
:1010D00020506879204C656433204F6E0A00000070
:1010E0002020504859206368616E6765642C207425
:1010F000783A25642072783A256420314D204C6579
:101100006433204F66660A002020504859206368E7
:10111000616E67656420556E65787065637465649B
:101120002C2074783A25642072783A256420314D59
:10113000204C656433204F66660A000020205374FB
:101140006F7020746865206F6E676F696E672061CD
:1011500064766572746973696E6720746F20737446
:101160006172742074686520616476657274697355
:10117000656D656E74207769746820314D0A0000D2
:101180005465726D696E6174652074686520636F63
:101190006E6E656374696F6E207769746820746819
:1011A000652063656E7472616C2064657669636541
:1011B0002E0A0000202D2D2D2D2D2D2D2D2D2D2DE8
:1011C0002D2D2D2D2D2D2D2D2D2D2D2D2D2D2D2D4F
:1011D000202020626C65417070436F6E7465787476
:1011E0002E4465766963655F436F6E6E65637469EF
:1011F0006F6E5F53746174757320202030782530D2
:1012000032580A00202053746F7020746865206F74
:101210006E676F696E672061647665727469736961
:101220006E6720746F207374617274207468652017
:101230006164766572746973656D656E7420776933
:10124000746820436F646564205048590A000000A8
:1012500028434F44454420504859292052656C6129
:10126000756E6368206164766572746973696E6710
:101270000A000000427574746F6E2025642070723D
:101280006573736564205B6C6F6E67507265737312
:1012900065733D25645D0A00000000000200000047
:1012A000300000200000000008000000A401002021
:1012B0000000000001000000B60400200100000052
:1012C00001000000700F002000000000010000007D
:1012D000710F00200000000002000000B404002094
:1012E0000000FFFF0000000004000000E0120410F6
:1012F000000000000200000032000020000000009A
:1013000001000000CAE80410010000000100000014
:10131000720F002020000000FB349B5F80000080E3
:1013200000100000052A000010000000010000006D
:10133000EC020020E41204100A000000FB349B5F62
:101340008000008000100000292B00001000000029
:101350000000000000000000F01204100200000075
:10136000FB349B5F80000080001000002A2B0000EF
:10137000100000000000000000000000000000005D
:1013800002000000FB349B5F800000800010000022
:101390003A2B0000100000000000000000000000D8
:1013A000FC12041000F0071000080000AA02000060
:1013B00000F80710F80701000000000096C298D856
:1013C0004539A1F4A033EB2D817D0377F240A4636E
:1013D000E5E6BCF847422CE1F2D1176BF551BF3777
:1013E0006840B6CBCE5E316B5733CE2B169E0F7C4A
:1013F0004AEBE78E9B7F1AFEE242E34F20204661D4
:10140000696C2020203A206163695F676174745FB2
:10141000636F6E6669726D5F696E6469636174693A
:101420006F6E20636F6D6D616E642C2072657375D5
:101430006C743A2030782578200A000020205375FB
:1014400063636573733A206163695F676174745F96
:10145000636F6E6669726D5F696E646963617469FA
:101460006F6E20636F6D6D616E640A0020204661AF
:10147000696C2020203A206163695F676174745F42
:101480007372765F6164645F736572766963652009
:10149000636F6D6D616E643A2052435F4C525F50D2
:1014A00065726970682C206572726F7220636F6458
:1014B000653A2030782578200A00000020205375F6
:1014C00063636573733A206163695F676174745F16
:1014D0007372765F6164645F7365727669636520B9
:1014E000636F6D6D616E643A2052435F4C525F5082
:1014F0006572697068200A0020204661696C20725C
:1015000065676973746572696E672052435F4C52F8
:101510005F5065726970682068616E646C65727393
:101520000A0000000610000019ED82AEED214C9D6E
:101530004145228E21F200008000000000000000E2
:1015400000000000500300201010000019ED82AED2
:10155000ED214C9D4145228E22F2000080000000CA
:1015600001000000340300205C0300208FE5B3D5A8
:101570002E7F4A982A487ACC20F200008000000092
:101580000100000000000000000000000200000058
:101590002415041020204661696C2020203A206127
:1015A00063695F676174745F7372765F6E6F74698D
:1015B0006679205357495443485F4320636F6D6DEC
:1015C000616E642C206572726F7220636F64653A7D
:1015D0002030782532580A002020537563636573E4
:1015E000733A206163695F676174745F7372765FD9
:1015F0006E6F74696679205357495443485F43209E
:10160000636F6D6D616E640A0000000001000000F0
:1016100001000000760F00202D2D204150504C4934
:10162000434154494F4E20534552564552203A208B
:101630004E4F54494649434154494F4E20454E412F
:10164000424C45440A0000002D2D204150504C4989
:10165000434154494F4E20534552564552203A205B
:101660004E4F54494649434154494F4E20444953F3
:1016700041424C45440A00002D2D204150504C4918
:10168000434154494F4E20534552564552203A202B
:10169000494E464F524D20434C49454E54204255E9
:1016A00054544F4E2031205055534845440A0000B1
:1016B0002D2D204150504C49434154494F4E205309
:1016C0004552564552203A2043414E275420494E18
:1016D000464F524D20434C49454E54202D204E4FED
:1016E00054494649434154494F4E2044495341428D
:1016F0004C45440A0000000091A005109DA0051073
:101700006B9F0510F19F0510119E0510A99E0510F5
:10171000686A6C747A4C00007072696E74665F73EC
:101720003A20256E20646973616C6C6F7765640084
:101730007072696E74663A2062616420256E206161
:101740007267756D656E74007072696E74665F7332
:101750003A2062616420257320617267756D656E41
:1017600074000000000000006E616E004E414E00EB
:10177000696E6600494E460030002E00FB349B5FC8
:101780008000008000100000292B000010000000E5
:10179000FB349B5F8000008000100000052A0000E1
:1017A0001000000002000000030000000300000021
:1017B0000600000003000000030000003C000000E1
:1017C0007000000070000000D003000070000000F6
:1017D000C301000069A205103BD4041033D60410E5
:1017E00067DE041057D704109D2C0410D52C04106C
:1017F000DF2E0410E72E0410EF2E0410F72E041035
:10180000FF2E0410D5A80510AF2E04109F2E041033
:10181000B72E041007E1041013D20410B12D0410E8
:10182000C92D0410A12D041005FF0510A92D0410C9
:1018300003000000A10E061029000000E10E0610B2
:101840003F000000C70E0610C5A605102F040610A5
:101850008B0206102F0606104108061041080610DC
:10186000570906102F060610310B0610310B061013
:10187000310B06103305061045020610090206104A
:1018800057090610000000009715061069F80510AA
:1018900067150610AF150610FDF60510DD2C0410B7
:1018A000E52C04102D0F0610350F0610310F061011
:1018B000052D04100D2D0410152D04101D2D0410E0
:1018C0009D0E06102D2D0410352D04103D2D0410F5
:1018D000252D0410BB0E0610C30E0610F50E0610C3
:1018E000452D0410BF0E0610390F06107B0F061091
:1018F0005DE5051000000000890F061031E40510B9
:1019000065F605106D1406102DEB05101114061068
:10191000E5140610B30F0610F0B595B0062103A824
:1019200000F09AFF002069468882A34C08A8210095
:10193000342200F099FF08A800F0BEFF010005D096
:101940002000343000F0EEFF01F0A9F8E1206946F4
:101950000873002103AB597003AA917003A9C870E2
:1019600080200871022048710621002001F09CF8B7
:10197000002805D001002000583000F0D3FF03E01C
:101980002000B43000F0CEFF1821002001F090F8C4
:10199000002806D0010080204000201800F0C2FF7F
:1019A00004E0A0204000201800F0BCFF07A901209F
:1019B00001F082F8002806D00100B820400020186D
:1019C00000F0B0FF04E0D8204000201800F0AAFF8B
:1019D000F0204000201800F0A5FF0021002001F0B9
:1019E0009FF8002806D001008B208000201800F00E
:1019F00099FF04E098208000201800F093FF05A8CC
:101A0000801C009006AB06AA921C0021012001F068
:101A10008FF803A8017802914178019181780091B3
:101A2000C37802794179A1208000201800F07AFF64
:101A300062A21721002001F0B0F8002806D00100B2
:101A4000B0208000201800F06DFF04E0C12080006D
:101A5000201800F067FF05AA0221002001F0A3F87A
:101A6000002806D00100CE208000201800F05AFF88
:101A700004E0DF208000201800F054FF00209F4980
:101A8000087001F044FA002806D00100EC20800024
:101A9000201800F047FF04E0FC208000201800F030
:101AA00041FF0120954A50700821D1701021117119
:101AB0009070002000900026914DA85DA9194978EA
:101AC000092922D0FF293CD13021AA19917000990F
:101AD000D170022111718D215171232191710099D1
:101AE000D171009911720099517203A94A79AB1909
:101AF0009A720A79DA72CA781A738A785A734A78AB
:101B00009A730978AA19D1731BE0311869180A78F9
:101B1000582A16D14A1E1378582B12D16B461B7BBC
:101B20001B096F463F7B3F073F0F092B01DD373312
:101B300000E030331370092F01DD373700E0303714
:101B40000F703618761CB6B21C2EB6DB0020029041
:101B50001020019008200090002300220121012084
:101B600001F0D9F9002806D001008420C000201817
:101B700000F0D8FE04E08D20C000201800F0D2FE56
:101B80005E488078002810D0012001F016FA002865
:101B900006D001009420C000201800F0C3FE04E02D
:101BA0009F20C000201800F0BDFE00BF09A000F07B
:101BB000B9FE15B0F0BD0000C000041052435F4CE8
:101BC0006F6E6752616E67655F50657269706865B8
:101BD00072616C003D3D3E3E20456E6420424C45A6
:101BE0005F496E69742066756E6374696F6E0A0072
:101BF00080B5012001F0F1F901F0F2F9012001F0C6
:101C0000EDF901BD80B501F0FFFA01BD80B50021FD
:101C100002201AE080B502F0F8FD01BD80B5FFF7A3
:101C2000F5FF01BD80B5FFF7F1FF01BD80B502F002
:101C30001FFEFFF7EBFF0121042006E080B502F054
:101C40006BFE01BD80B50121012002F0DDFE01BD6A
:101C5000F8B52C4A0021012002F0C9FE2A4A0021D1
:101C6000022002F0C4FE294A0021042002F0BFFE37
:101C700002F02CFF02F0B4FF0021C943884201D1D9
:101C800000F00DFFFFF748FE00261C4CA67320480D
:101C9000A081204A00218020800002F0A8FE1E487A
:101CA000A0611E4820631EA7380000F03BFE1D4DBA
:101CB000280000F037FE02F0FBFF2800283000F07B
:101CC00031FE380000F02EFE062003F03FF8010040
:101CD00004D02800583000F025FE03E028009C3096
:101CE00000F020FE012000F0D9FB0F492000103049
:101CF00001F01AFD40202654F1BD0000C00D002067
:101D00007C010020F11B0410051C0410151C04109C
:101D1000FFFF0000D7260410B9260410CD260410BA
:101D20000A0000000006041060EA0000F8B584B064
:101D300005002878042802D0822802D0D3E1EF1CC5
:101D400000E02F1D6978C84EC84C052908D010291D
:101D500000D1B9E13E2933D0FF2900D100E1BFE134
:101D6000287969790906090C0843B189884219D193
:101D7000BF48B0810020B073200000F0D3FD297966
:101D800068790006000C0143AA7920002C3000F08D
:101D9000C9FD002003F02CF8012003F029F80220EF
:101DA00003F026F800F07EFCD0480121017029796B
:101DB0006A791206120C1143418002F069FF92E128
:101DC000E978012900D1A8E0032906D00A2900D129
:101DD00094E00C2900D183E0BFE020006C3000F0DB
:101DE000A1FDE879297A0906090C084303F012F9E4
:101DF0000022BF4B03F028F9002280235B0303F08D
:101E0000E5F9E879297A21D80906090C0843EE7921
:101E1000297A0906090C0E4303F0FCF80022B44BA2
:101E200003F012F900900191300003F0F3F8002262
:101E3000AF4B03F009F903F0F1F903F0FBF80200EE
:101E40000B000098019903F075FA1EE00906090CD1
:101E50000843EE79297A0906090C0E4303F0DAF8F3
:101E60000022A34B03F0F0F803F0D8F903F0E2F8F6
:101E700000900191300003F0CDF800229D4B03F05B
:101E8000E3F8009A019B03F0F2F900229A4B03F069
:101E9000DBF803F0C3F9EA7A297B0906090C0A4347
:101EA0006B7AA97A0906090C0B43E9792E7A360672
:101EB000360C31430A255543009506001D000800E5
:101EC00003F0A8F800228A4B03F0BEF803F0A6F94D
:101ED00001002B0032002000A03000F023FD02E1C1
:101EE000012002F0A1FD6979A8790006000C0143E8
:101EF0002B7AEA79287900F0F9FBF4E0E87F6D1C91
:101F0000E97F6D1E0906090C08436A7FA97F09064F
:101F1000090C0A43EB7E297F0BE0E87C297D09064A
:101F2000090C08436A7CA97C0906090C0A43EB7B6F
:101F3000297C0906090C0B436979AC792406240C29
:101F400021430390029201932800093000902B7ADC
:101F5000EA79287900F026F9C5E000BF68A0C0E062
:101F6000387879780906090C0843001F17D06349AF
:101F7000401A61D0401E29D0401F0DD0801E37D09E
:101F8000401E20D0C91F401A03D02331401A71D0FF
:101F900093E0882040004DE0A22040004AE0B07B62
:101FA000012803D0052801D004280BD1012002F01C
:101FB0001BFF3000283001F0DAFB0521300028300B
:101FC00001F0B2FB8FE0B620400033E0CE204000AD
:101FD000201800F0A7FCB349B08900F0AAFF002840
:101FE00003D00100E220400020E0FC20400021E07E
:101FF00088208000201800F095FC381D03F020FA9E
:10200000010000BF45A000F08DFC381D03F018FA58
:10201000010000BF48A000F085FC0121B08900F05C
:102020008CFF002804D0010095208000201858E083
:10203000A8208000201813E0B8208000201800F0AD
:1020400071FC3979002906D07A79C32080002018E4
:1020500000F068FC03E000BF3DA000F063FC92A02C
:1020600000F060FC3FE000BFC00D0020D40604106B
:10207000FFFF0000D3208000201800F053FCB97946
:10208000F8790006000C014337A000F04BFCBA7948
:10209000F8790006000C0243397978790006000CC3
:1020A0000143B878FB781B061B0C184300230193EF
:1020B0000093082300F05EFF15E039787878000679
:1020C000000C01432CA00CE0E87804280BDABFF3E5
:1020D0004F8F764876490860BFF34F8F00BFFDE70A
:1020E0002BA000F01FFC05B0F0BD00BF3C0F00208E
:1020F0000000F43F0000F4BF00005940FD03000061
:102100004843495F4C455F4D4554415F4556543AFD
:10211000203078253032580A00000000202020208E
:10212000202D206E756D657269635F76616C7565D3
:10213000203D2025640A000020202020202D20485A
:1021400065785F76616C7565203D2025780A000012
:1021500020202020202D2050616972696E67205355
:102160007563636573730A0048616E646C65203043
:1021700078253034580A00004843495F56454E449C
:102180004F525F4556543A203078253034580A0073
:102190004843495F4556454E543A20307825303201
:1021A000580A0000F8B588B09D4C0026020005D002
:1021B00001009C4800F0B6FBA67370E00F9F0E9DD7
:1021C000684681812000103001F0D1FA20002830CB
:1021D00001F0CDFA68468189934800F0A3FB287886
:1021E000029068780190A8780090EB782A79697954
:1021F0008E4800F097FB380002F00CFF06AA03C2DD
:1022000006A80CC800208A4902F01EFF6A4603C2D5
:10221000684603C803F002F8050002F00BFF04AAA9
:1022200003C2684603C8002280235B0302F0CEFF8E
:1022300006D8684603C804AA0CCA03F07BF80AE073
:1022400006A803C87B4B02F0FFFE02000B0004A8A7
:1022500003C803F00CF80022774B02F0F5FE02F001
:10226000DDFF02001198109B0A21414300912900D3
:10227000724800F057FBA07B012801D1032000E049
:102280000220A07368468089A0816D480670694667
:102290008989418002F0FCFC012002F0A5FD09B013
:1022A000F0BD000040E201000A0000000400FA0551
:1022B0000CED00E0FEB500BF63A700BF6AA6614C4D
:1022C000574D002805D0022850D03ED3032859D0BE
:1022D000F7BD01AA01A9491CA88900F063FE01000D
:1022E00059D1300000F01EFB684602794179380070
:1022F00000F018FB68464079022815D1684600793D
:10230000022811D1012201212000283000F00AFB0F
:1023100000200090012301220021A88900F046FE40
:1023200000287AD158A01CE0022202212000283087
:1023300000F0F8FA00200090022302220021A88970
:1023400000F034FE0028EDD067E01321A88900F0EA
:10235000DAFD002803D0010020005C301CE02000E2
:10236000883000F0DFFA00F0A2F9F7BDA88900F08C
:102370000AFE002803D001002000AC300CE0200051
:10238000E43037E001AA01A9491CA88900F00AFE3F
:10239000002804D00100200000F0C4FAF7BD30008E
:1023A00000F0C0FA684602794179380000F0BAFAC4
:1023B00068464079012820D16846007901281CD15F
:1023C000032203212000283000F0ACFA0020009006
:1023D000042304220021A88900F0E8FD00281CD174
:1023E0008A204000201800F09DFA00F060F9A82033
:1023F0004000201800F096FAF7BD012201212000CC
:10240000283000F08FFA00200090012301220021E3
:10241000A88900F0CBFD0028E2D000BF1DA0E9E7AD
:10242000C00D0020440A04107C0A0410C00A0410E5
:102430000000F43F0000F4BF00005940040B0410FA
:102440003C0F0020740B04103D3D3E3E2050485987
:1024500020506172616D202054583D2025642C204D
:1024600052583D2025640A003D3D3E3E2068636988
:102470005F6C655F726561645F706879202D2053C1
:102480007563636573730A00537563636573730AD9
:10249000000000004661696C0A000000F8B58EB0CB
:1024A00080210B91A027A74CBF4E0200072A71D8AC
:1024B00001A39B5C9F4400BF0C081ADC306EDC90CB
:1024C000042570E0C820C0000B90FA273F010525C5
:1024D00069E0002500220021002002F0BCFF01007D
:1024E00000D1ABE0B520A5E0C827BF000B970020C6
:1024F0000025FA2149004022B25C002A11D0282789
:102500000B974022B0540091ABB23A000B9989B2BC
:10251000B08900F040FD002800D192E00100C92000
:1025200088E00120EDE71321B08900F0ECFC0028E1
:1025300003D0010020005C30ABE02000883000F0C8
:10254000F1F900F0B4F8ABE0062506210BA800F085
:1025500083F90BA800210170418001710A91099152
:102560000320089007910690059104910391029130
:10257000072001900097802301220221002002F011
:102580006EFF002860D00100E9208000201800F0D4
:10259000C9F95FE0012806D9801E9BD0801EB2D009
:1025A000C01ED2D07CE006210CA800F055F9002016
:1025B0000A900990012008900020079001200690C1
:1025C000002005900490039002900720019000974E
:1025D0000B9B13220221002002F041FF002806D0AD
:1025E0000100C2204000201800F09CF905E0B573FE
:1025F000E4204000201800F095F9884B1C220321AC
:10260000002002F061FF002806D001008020800039
:10261000201800F087F904E08F208000201800F0D7
:1026200081F90CAA0121012002F015FF002803D036
:1026300001009A2080002BE0A92003E0B573C020A0
:1026400000E0DA20800028E0B573FD20800020182B
:1026500000F068F9714B1C220321002002F034FFC6
:10266000002806D001008720C000201800F05AF989
:1026700004E09020C000201800F054F90BAA0121BA
:10268000012002F0E8FE002806D001009720C000DB
:10269000201800F047F903E0F800201800F042F994
:1026A0000FB0F0BD80B5012002F0BEF901BD80B5CC
:1026B000012002F0C3F901BD80B500BF5CA000F0AD
:1026C00031F9002180208000FFF7BFFA80B501209A
:1026D00002F08EFB01BD80B5012002F089FB0220D3
:1026E000FFF7DCFE00204E49887301BD10B51100D4
:1026F0001A004C4C032908D1032A14D1022002F0FD
:1027000073FB0322032120000AE001290BD1012AD7
:1027100009D1022002F06CFB01220121200030309F
:1027200000F000F910BD2000583000F0FBF80A243A
:10273000022002F069FBFA20400002F0C9FE641E8C
:10274000F6D110BD740B041038B5174CA07B364D74
:10275000062809D1280000F0E5F82000103001F02B
:1027600006F8FFF7B8FF08E0022806D12800443039
:1027700000F0D8F80520FFF791FEA17B00290ED1CB
:102780002FA000F0CFF80120FFF788FE2749200096
:10279000103000F0C9FF022002F02AFB31BD2800F2
:1027A000783000F0BFF831BDC00D00201C48807BA0
:1027B000022800D0704780B50320FFF77BFD01BDE4
:1027C00038B5174DA87B184C042801D0052818D11E
:1027D0002000C83000F0A6F82800103000F0C7FF35
:1027E000FFF779FFA87B00280AD18A204000201833
:1027F00000F098F80720FFF751FE022002F0F8FAE7
:1028000031BD0228EED12000443000F08BF80520C5
:10281000FFF744FE0020A873E7E700007C010020DA
:10282000C00D0020B01004103C11041060EA00003C
:102830004164765F43616E63656C5F5265710A0047
:1028400052656C61756E6368206164766572746947
:1028500073696E670A000000002200BF094202D0BF
:10286000491E4254FCD1704770B4103A03D378C962
:10287000103A78C0FBD2530701D318C918C001D54C
:1028800008C908C0D20704D30B880380891C801CA8
:10289000002A01D50B78037070BC70478B0701D1FB
:1028A0008307E1D0124205D00B78491C0370401C0D
:1028B000521EF9D170474300B0B50546C07A1224C4
:1028C000802829D8298C172926D31448821D9142A3
:1028D00022D8298A17291FD381421DD8A87E002813
:1028E0001AD002F009FE002808D0E87E002813D094
:1028F000802811D8287F401E0E280DD80848342281
:10290000294602F0FBFD02F06DFE002803D403F01F
:10291000E1F8002400E087242046B0BDFA0300005F
:102920000C0E00200EB4C0B5020003A801900020D8
:10293000009001AB0121044878440C3003F034F9D5
:10294000029906B0084700BF85D8010081B031491F
:1029500001E081B030490A6802430A600968084012
:102960000090009801B070477CB504F0C1F800F009
:102970005DF800F081F80420FFF7E8FF0820FFF77A
:10298000E5FF00F02CFB00BF46A000680090234C40
:10299000206A0125ED430126304008D120683043EC
:1029A00020602068284020600120FFF7D2FFC0206F
:1029B000C0050090684604F0ADF86846002100228A
:1029C00006C0206A304008D120680643266020688F
:1029D000054025600120FFF7BCFF11480068102862
:1029E000FBD36846A021490001800021817001913C
:1029F00000F05DFB0B480C49016004F02DFA002843
:102A000001D000F04CF8002004F090FA04F014FC1F
:102A1000FCE700005000404860004048400040484B
:102A200010180060080F00200000304880B588B002
:102A3000182102A8FFF710FF68460021002206C0F7
:102A4000032002908020400203901020059002A8ED
:102A500004F0EAFC002801D000F021F800200090EA
:102A6000202001900021684604F006FE002801D0D5
:102A700000F015F809B000BD80B586B01821684691
:102A8000FFF7EAFE02200090C0020590684604F0BD
:102A90008FFE002801D000F002F807B000BD72B62A
:102AA000FEE700000000000080B504F0BBFE80BD22
:102AB00080B504F0B1FF80BDF8B506000F0000201E
:102AC0003880154C200000F03CFA010023D1200092
:102AD00000F03BFA0400114DF00705D52100280055
:102AE00000F037FA010016D1280000F036FA3880DD
:102AF00021002800243000F02CFA01000BD1210025
:102B00002800483000F025FA010004D121002800F7
:102B10006C3000F01EFAF2BD0803002014130410FC
:102B200080B5022801D9122080BD04F099FF80BD34
:102B3000FEB50C00089F0025158002990D803D8090
:102B40000521014027D0394E300000F0FAF901008C
:102B500022D168460470364C200000F0FEF901993D
:102B600008802000243000F0F8F902990880300035
:102B700000F0EBF93D8069460978022906D1010091
:102B800020006C3000F0E5F9010005D12AA20821EF
:102B9000002000F002F80020FEBD70B504000D001A
:102BA0001600234804E070B504000D00160021480B
:102BB00000F0D3F933002A002100401C80B200F05D
:102BC00001F870BDF3B581B017001D000024184E48
:102BD0006946088024206043301800F0BEF90028C0
:102BE00004D0401C69460988884202D0641C072C26
:102BF000F0D3072C0BD068460389242044433419B2
:102C0000206A8188DA19914201DB002801D1122063
:102C1000FEBD29003A008068C018FFF73FFE206A19
:102C20000178890700D547800020FEBDC40200203E
:102C3000C8010020EC01002053544D33325742307C
:102C400030B58BB018AC24780A9417AC247809946A
:102C500016AC2478089415AC2478079414AC247826
:102C600006946D464C242C57059412AC2478049499
:102C7000119C039410AC247802940FAC2478019436
:102C80000E9C009404F046FF0BB030BD80B504F0FC
:102C9000DFFF02BD80B504F0FFFF02BD80B505F087
:102CA00081F801BD80B505F0A3F801BD80B505F040
:102CB000C7F801BD80B505F0CAF801BD80B505F0C3
:102CC000C7F802BD80B505F0E1F802BD80B505F09A
:102CD00009F902BD80B505F02BF901BD80B505F0FD
:102CE0002DF902BD80B505F051F902BD80B505F0A2
:102CF0007BF902BD80B505F079F902BD80B505F01C
:102D000077F902BD80B505F08FF902BD80B505F0F9
:102D1000BDF902BD80B505F0D5F902BD80B505F05D
:102D2000EDF902BD80B505F029FA02BD80B505F0C8
:102D30006BFA02BD80B505F097FA02BD80B505F0CB
:102D4000B1FA02BD80B505F0C9FA02BD80B505F043
:102D5000E1FA02BD80B505F017FB02BD80B505F0B4
:102D600015FB02BD80B505F013FB02BD80B505F073
:102D700021FB01BD80B505F03BFB01BD80B505F031
:102D800077FB02BD1CB56C46247D01946C46247C07
:102D9000009405F0C3FB13BD80B505F06FFC02BDC8
:102DA00080B505F073FC01BD80B505F08BFC01BD5D
:102DB00080B505F0A3FC01BD80B505F0F5FC01BDB3
:102DC00080B505F049FD01BD80B505F09FFD01BD51
:102DD00080B505F029FE02BD80B505F079FE01BD84
:102DE00080B505F07DFE02BD80B505F083FE02BD15
:102DF00080B505F09DFE01BD80B505F00FFF02BD59
:102E000080B505F057FF01BD80B505F09BFF01BD02
:102E100080B505F0D3FF02BD80B506F007F802BD0E
:102E200080B506F021F802BD80B506F09FF802BD1E
:102E300018B587B010AC247806940FAC24780594AC
:102E40000EAC247804940DAC247803940CAC247854
:102E500002940BAC247801940AAC2478009406F018
:102E600087F808B010BD80B506F0B0F801BD80B598
:102E700006F0C6F801BD80B506F0E0F801BD80B5EA
:102E800006F026F901BD80B506F042F902BD80B515
:102E900006F05AF902BD80B506F084F901BD80B58F
:102EA00006F0A0F901BD80B506F07EFA01BD80B53F
:102EB00006F095FA01BD80B506F096FA01BD80B521
:102EC00006F058FB02BD80B506F0AAFB02BD80B536
:102ED00006F0D2FB01BD80B506F01CFC01BD80B53B
:102EE00006F07CFC01BD80B506F08AFC01BD80B512
:102EF00006F0AEFC01BD80B506F0CEFC01BD80B58C
:102F000006F086FD01BD80B506F098FD02BD80B5D6
:102F100006F098FD02BD1FB508AC247802946C46FB
:102F2000247F01946C46247E009406F093FD04B047
:102F300010BD80B506F0D2FD02BD80B506F0DAFD09
:102F400002BD80B506F0DEFD02BD80B506F0DEFDF7
:102F500002BD80B506F0DEFD02BD80B506F0DEFDE7
:102F600002BD1CB5059C01946C46248A009406F0B1
:102F7000D9FD16BD1CB5059C01946C46248A0094AD
:102F800006F0DFFD16BD80B506F0E4FD02BD80B59C
:102F900006F0E4FD02BD1CB56C46248A009406F0E0
:102FA000E1FD16BD80B506F0EAFD02BD1CB56C461C
:102FB000248A009406F0ECFD16BDE0B501A9087066
:102FC00001220846114606F0EEFD002800D08CBD17
:102FD00001A8007806F005FE8CBD70477047704769
:102FE00080B5002006F01AFE80BD01002000090017
:102FF000010026000F0001002900050001002F003C
:103000001000010049001000010005D40121C00694
:10301000C00E81407A4801607047C1680322914325
:1030200002220A43C260704709E0C0688007800F2F
:10303000022801D1012070470020704700BFC168FD
:1030400003229143C1607047C0688007800F032846
:1030500001D101207047002070470161704700696D
:103060007047816A8022D2050A4382627047816A72
:10307000644A0A4082627047816A4800C00F704704
:103080004162704700697047816A802292050A4355
:1030900082627047C948026807239A434907490F6B
:1030A00011430160704780687047C0687047F1B590
:1030B0000127C348C06B3843C149C8630846806BC9
:1030C000384388631720FFF79FFF1420FFF79CFF0A
:1030D000BB48406B3843BA4948630846006B3843E5
:1030E00008631820FFF790FF00980088C92800DACD
:1030F000C820B44D29008C314861009840680028F0
:1031000000D0012028700026000603D100988078A6
:10311000002813D0AC48C1683940FBD017210160AA
:10312000C1683943C1604660C1683940FCD028009D
:10313000103000F0A3FBE869286209E0C8204003D2
:103140002862E861A148A861A1482861B048686187
:1031500000984068002802D1A020C0050DE00003BF
:103160000A2106F0AFFD6860AA4C200000F0C6FA04
:1031700001006868884202D3200000F0BFFA68604E
:103180002E7300980088A866A96900F0FDFBA24C88
:103190000020207000212A006832083203C28848CB
:1031A0000068290068310861002000212A00683287
:1031B000183203C230216854984AA969686806F039
:1031C0009DFDA86028782074A66027736673E68149
:1031D00028006130067046708670AE65EE659048D6
:1031E000A8646E6500F094FA6A68002312184B41D7
:1031F0002800403000F0F6FB012000F06DFBF1BD2F
:1032000000E100E0FFFFFFBFF8B58CB00020694689
:1032100008708448019028E0401C1CE00569047394
:103220008168002900D088472800F7D169460298B4
:10323000C06A00F06BFC0299C862684600780128F9
:103240000DD1EFF3108172B601980078421C019BFA
:103250005B789A42E0D1019A107081F3108801984E
:103260004078049940180199487001984078019974
:1032700009780A1A02D28020400012180025002A7C
:1032800029D00492A5480290C46A0026039427001E
:1032900002E0260024696D1C002C0FD0207B002842
:1032A000F7D000F035FA02000B0003CC083C801A7E
:1032B00099410029EDDB01DC0628EAD32000002437
:1032C000002D02D03461039000E00027039802999A
:1032D000C8623800A9E73B4C207B002851D09048B9
:1032E00000680127384067D025734E4EF0780028DB
:1032F00004D1B078002801D0B5702AE020780028E9
:103300001ED002A800F0BAFA0499A06E80B200F0B4
:103310003BFBEFF31080019072B6302167540398A5
:1033200060610498A061029820610598E06100F056
:10333000ADFC019880F31088002000F0CDFA08E081
:10334000EFF31080019072B600F0A0FC019880F3BA
:103350001088F07A002802D0F572622027540120EC
:1033600000F0E0FC2000403000F001FA00F0D0F95D
:103370006268002312184B412000403000F032FBFD
:103380001AE02078002817D000F0C2F92200683235
:1033900008320CCAFA2676030027B6185F418F421E
:1033A0000AD801D3864207D22000403000F0DFF96E
:1033B0002000403000F0F9FA0DB0F0BD2818006090
:1033C00010180060D00A002004100060C2F5280028
:1033D0008D5B0000F8B504008F480668EFF3108598
:1033E00072B600F04BFB8B4F3B00803303CB083BA6
:1033F00003C4083C894AF9699868801B06F07EFC82
:10340000020085F3108803CC0023801A9941F4BD93
:10341000ECEB6501FFEFFFFF5C0B002026030000D3
:10342000AB390410690B0020F8B586B0794D28003F
:103430008C30407B29008C31897B88422FD1287BBE
:1034400000282CD1032400F063F904AA03C202A8C7
:1034500000F068FD290061316122AA5C002A02D1D6
:103460004A78002A01D0012802D18978002918D091
:10347000AA6DEB6D04A803C88C242E5D00273618B6
:103480004F41A86E002180197941002452306141DA
:103490008B4227D301D8824224D3022405E00020A6
:1034A00039E002281ED001281CD07D4B9A68002AE2
:1034B00030D0107B00282DD003CA083A009001912B
:1034C00004A803C806000F00A86E002180197941E6
:1034D000002652307141009E019F8F4204D801D3D3
:1034E000864201D2012016E0032C12D11069002877
:1034F0000FD12800403082420BD10120D873002028
:1035000000F0A8FB81480168844A0A400260032059
:1035100001E00224200007B0F0BD0000380B0020BD
:1035200010100060FEB5002500270B0000D001231D
:103530007B4C2373110000D0012121726572E5726A
:103540000121A172EFF31081029172B600F07EF9B1
:1035500003C4083C2F48826D0B462000283003C866
:10356000121A8B416F48AB4201D8824205D3A57233
:10357000029880F310880120FEBDE06B002803D183
:1035800000F0D0FB07003CE0224E0CC820002830A1
:1035900003C88B4216D301D8824213D3B06DF16DAC
:1035A00000900191A0203058002180185941009AC4
:1035B000019B8B4206D301D8824203D3E06B007B90
:1035C000002814D1002000F0ADFB0700E46BB26DC1
:1035D000F36D03CC083C8B4213D301D8824210D345
:1035E000207B00280DD001209D21705409E09348D4
:1035F00001784906490E017000218174C57400F0FC
:103600007EFC029880F31088012000F023FB380034
:10361000FEBD0000D00A0020140000603506000046
:10362000F8B50320C04387490A6802400A600A6867
:103630001040086090480168384A0A400260714CA6
:1036400020005830002646724681EFF3108772B68C
:1036500000F05EF8A26DE36D121A8B418C20205CA5
:103660000021121A8B4114001D0087F3108899481D
:103670000068C005C00D222801D000F040FC002DDC
:1036800004DC01DB012C01D20120F2BD002D04DCA1
:1036900001DB0F2C01D20220F2BD0020F2BD0000A0
:1036A0005C0B0020EFF3108072B665490968654A2B
:1036B000091D516011680323994302230B431360D2
:1036C00080F31088704710B5C024E4052000FFF790
:1036D000ACFC002806D12000FFF7B6FC002801D181
:1036E00000F00DFC10BD474801006131002261234C
:1036F000C05C002800D00A708A70704780B5A14A6B
:103700004049C96906F0FAFA02BD000030180060AD
:1037100080B500F0B3F9B14803C804BDFFFFFFBF97
:10372000280B002066FEFFFFF8B504000D00FFF730
:10373000EFFF06000F00290D28030A22002306F0E0
:10374000FEFA8019794102000B00200000F04AF9CE
:103750000400012000F07EFAE0B2F2BD10B500F0E6
:1037600041F90400012000F075FAE0B210BDF8B58F
:103770009B4C21680E00002300250A0001E0350063
:103780003669002E07D08642F9D137698E4201D1C1
:103790003A0000E02F616D462B7003732068904261
:1037A00015D06946100000F0B1F920606846007835
:1037B00000280DD0EFF3108072B661794A1CA3790E
:1037C0009A4200D0491C617180F31088F1BD2260DB
:1037D000F1BD1CB5002400940098012000F0A2FA6D
:1037E000A2480178002902D0047000F00DF80120F1
:1037F0009F490A6802430A6009680840009013BDA7
:1038000000000000D00A002018B5002000900099A8
:1038100098490871984802680B4B134003600A7876
:10382000531C4C78A34200D0521C0A700121C2697B
:103830000A43C261C0690140009111BDC40000206B
:10384000101800600C000060FFFFFFBF10B50400FF
:1038500000F014F9614803C80A00844200D2521CE7
:103860001100200010BDA348816801220A43826034
:1038700000210160704700002818006070B5040046
:103880009D4D2800FFF70FFC06002800FFF70BFCFA
:103890008642F6D1002EF4D0984932124A43F3B250
:1038A0004B431912511810314911E160266028006C
:1038B000FFF7FBFB06002800FFF7F7FB8642F6D177
:1038C000002EF4D0B0118E49484380300012A06021
:1038D000666070BD04ED00E0F8B50700894D687AB8
:1038E0007D214843C90006F0D9F9461CF6B2804C48
:1038F000854AA1691B2006F001FA2870687800F05B
:103900002AF83D216054E878801900F024F8382125
:1039100060542879801900F01EF8392160546879C4
:1039200000F019F83A216054A87900F014F83B210E
:103930006054002F06D0E878801900F004F81B309E
:103940003C216054F1BD68214143090ADB22504308
:10395000000C0818704700B5020065484069002156
:10396000002306F02BFA0322002306F027FA802218
:10397000D204002312184B41D20E5801024310000A
:1039800000BD00003506000080B55F4A06F0B6F9BC
:10399000BB49884201DD080002E0102800DA10204F
:1039A0000005000EB749086001BD10B5504C207BE2
:1039B000002806D12078002801D0FFF754FF01200D
:1039C0002073FFF7A5FE00226430514102000B0076
:1039D0002000403000F006F810BD0000500B002021
:1039E000640B0020FEB500256C462570017B002984
:1039F00001D00120FEBD0CC0083801210173C34C69
:103A000026680196070001E035003669002E08D0CF
:103A10000CCE083E03CF083F8B42F5D301D882423B
:103A2000F2D338000661002D01D1019000E0286139
:103A30000199814214D1694600F068F82060684617
:103A4000007800280ED0EFF3108072B661794A1C1E
:103A5000A3799A4200D0491C617180F3108801E07B
:103A600000F04DFA68460078FEBD00006D0B0020A6
:103A700044180060690B002030180060F8B584B06D
:103A8000EFF3108672B61A4C206F616F02AA03C260
:103A90009F48FFF7F7FA030027008037BB609D4D72
:103AA00002A803C8009001912A00E169A06F181ACA
:103AB00006F024F90021009A019B801859410CCF8F
:103AC000083F99420FD801D390420CD20090019147
:103AD0002A00E1690020C04306F010F90021009A95
:103AE000019B8018594103C786F3108805B0F0BDCB
:103AF000D00A00200810006000100060F6BC08002A
:103B000053070000C500002026030000F3B589B06C
:103B100004460020087000E02469002C00D196E0E3
:103B2000207B0028F8D0EFF31080029072B6FFF7E8
:103B3000A5FF00206946087000F0F4F8764801906F
:103B400003CC083C019AC0CA0B00821BBB4106ADE6
:103B50000CC5012506AA0CCA002B6DDB01DC012A6D
:103B60006AD36E4EB26DF36D04AE0CC604AAC0CA21
:103B7000019A126A002312184B419F4210D801D3B8
:103B800096420DD2664A1278002A09D004AA0CCABD
:103B90008B4207D301D8824204D30198457701E0D4
:103BA00068460570384A5D48836906A803C819004D
:103BB00006F0A4F80600202E00D82026544D280038
:103BC000FFF760FA86190836EE622800FFF75CFA04
:103BD000286B8021C90501432963C027FF053800F0
:103BE000FFF723FA002829D13800FFF72DFA002823
:103BF00024D168460078002820D000F077F9310001
:103C00000F2081432800FFF73BFA00212800FFF72F
:103C100041FA2800FFF725FA2800FFF735FA3F4957
:103C20000800613042786123C95C114300D0012152
:103C300041700021017001E00A980570029880F33C
:103C400010880A980078002801D0099800E0200028
:103C50000BB0F0BD10B531490C009834002808D0E5
:103C6000207800280BD108004030FFF79EFE01208D
:103C700004E008004030FFF77AFD0020207010BDFE
:103C8000FF0F0000081800602603000070B52048F0
:103C9000FFF7F8F9214C25008035A860C04E3200AE
:103CA000216AA36FC01A06F029F8226F636F002102
:103CB00080185941206761672078002813D1A868CF
:103CC000A16F401AA16888420DD23200216A0020FB
:103CD000C04306F013F80200206F616F0023121832
:103CE0004B4122676367206F616F03C5083DA86879
:103CF000A067226F0B46606800218018594122009E
:103D0000283203C2E069206270BD0000640B00200D
:103D10000018006035060000500B0020D00A00207B
:103D2000310B0020F0B585B000216A4611709D4C22
:103D3000210060318978002900D1D3E0EFF31081B0
:103D4000049172B6012801D1FFF798FE200060307F
:103D5000203003C802AA03C29348C0C80125A26D3F
:103D6000E36DC82080020021801979418B420FD376
:103D700001D882420CD3B9225200002392197B4110
:103D800002A803C88B4201D802D3824200D3A3E029
:103D900002A803C800220A305141A26DE36D00263B
:103DA0004C3AB341994201D802D3904200D38DE0FE
:103DB0003C20265C6020205C2100603109790129CB
:103DC00005D1002801D0382006E0392004E0002881
:103DD00001D03A2000E03B20205C0190A26D02A8B7
:103DE00003C8101A0390714AA169039805F086FF71
:103DF000029020006030806A6D4F21006031896838
:103E00007118C831039A914202991CD27A78891AA2
:103E1000019A8E1A81196748FFF732F90021654827
:103E2000FFF738F9C020C005FFF7FEF8C020C00535
:103E3000FFF704F95F48FFF714F95E48FFF724F92C
:103E40000198797813E03D22A25C891A019A8E1AB2
:103E50008119C020C005FFF700F95648FFF707F9A0
:103E6000C020C005FFF7D9F801983D21615C4018DA
:103E700021006031896A029A891822008C325160CF
:103E8000397880220A433A70F021B974FF21F9741D
:103E90003218411D8A420DD2C024E4052000FFF7EC
:103EA000C3F82000FFF7CAF84248FFF7E0F8694678
:103EB0000D7005E03A4AE16905F020FF8C2160545D
:103EC0003D48002181704570C57008E021006031D7
:103ED0008E706846057002E020008C3005760498EC
:103EE00080F310886846007805B0F0BD304801784E
:103EF0004906490E017000218174C17470471CB5D8
:103F00002E4C69462068FFF701FE20606846007865
:103F1000012806D16079411CA279914200D0401C51
:103F2000607113BD38B50400224D2800FFF7A4F8D6
:103F3000002803D0686A2060032032BDC025ED054B
:103F40002800FFF772F8002805D02800FFF787F84F
:103F50002060012032BD2800FFF776F8002804D049
:103F60002800FFF77CF82060022032BD80B5FFF703
:103F70004BFCFDF757FE01BD80B5FDF74FFEFFF787
:103F800028FC01BD81B00020009000980C48016819
:103F900001220A4302600068009001B070470000EF
:103FA00035060000D00A0020F80A00202603000091
:103FB000C400002000180060300B0020640B0020BB
:103FC0007400006001680022028142818281827354
:103FD0000B78FF2B05D0FE2B09D103895B1C0381D5
:103FE0000AE04268511A091F818100207047002BA6
:103FF0000DD143895B1C43814A88D21C03231343A0
:104000005B1CC9184A1D43689A42E1D3EDE70320BF
:104010007047F3B5079C0899250005D06D466C8064
:10402000FE242C706C4600E0446885684668AE4209
:1040300017D22678FF2E14D0067B002E04D000263F
:1040400006732678002E0ED146686488E41C032788
:1040500027437F1CF4194460AC4202D22678FF2E1D
:10406000EFD10420F6BDFE2E01D00320F6BD6E4632
:104070003679FF2E04D066786F463F79BE42E3D191
:104080004068001D106060881880002901D06078A9
:1040900008700020F6BD7FB515001C00099E0022A7
:1040A00032800B9A01926A46128D009202AB03AAEB
:1040B000FFF7AFFF010013D1694609898D4201D393
:1040C00006200DE0089A481B904200DA020020000A
:1040D00003994919FEF7E2FB684600893080002009
:1040E00004B070BDFEB5BB4D0D40491B6B46197049
:1040F0000024070016000AE00422311901A8FEF787
:10410000CDFB019A3919002005F072FE241DAC4246
:10411000F2DB0020C043019068460278711901A8C3
:10412000FEF7BCFB019A7919002005F061FEF7BD8E
:1041300070B544688668B44202D22678FF2E01D159
:10414000042070BD007B002801D1FE2E01D0052087
:1041500070BD6588A94201D3062070BD10001A0009
:10416000231D591805F0B4FE002801D00020C043DB
:1041700070BD7CB5079C0025069E3580250005D0C6
:104180006D466C80FE242C706C4600E044684568E7
:104190008668B54202D22678FF2E01D1042076BD72
:1041A000007B002801D1FE2E01D0052076BD60885D
:1041B000814201D3062076BD401A984200DA0300FE
:1041C00010001A002B1D5918FEF768FB608806992D
:1041D0000880002076BDF8B584B007000E001500F9
:1041E000B44C254203D105F073FE002820D001A86D
:1041F0000C21FEF731FBCD483818C00A0290681E2A
:104200000443641C6003000E0390694601A805F096
:104210006FFE00240AE06010800F0019032188431C
:1042200032583919002005F0E3FD241DAC42F2D3C9
:1042300005B0F0BD012101700021418081807047EF
:10424000F1B588B00C0015001E0000200090FF2280
:1042500029002000FEF702FBFE206946087507943E
:104260006846458206960E9D009C05AE19E068469C
:10427000008A6988401A401E03240443641CA4B2C7
:1042800068886946098A0A1A521E03211143491C8B
:1042900089B28F4242DB01200022B94228706A8035
:1042A00040D06846408A071B3F1FBFB228780028CD
:1042B00026D0701C0390A888029004A80190009753
:1042C0000798001D03190022FF210898FFF7E3FE5D
:1042D0006946098AA98001000ED16846008A70806B
:1042E000042205A907980019FEF7D8FA7088C01CA7
:1042F000032101436418C1E706990C8009B0F0BDA1
:10430000A888019004A800903B00079802196988CA
:104310000898FFF72EFF0100A9D0EFE700212970D0
:10432000C01968806846408A069908800020E5E741
:10433000F8B5AE4CA544AE49020014235A438F1879
:104340007989002901D1002040E004A900F013F987
:10435000059D02A8FFF76EFF8026360102A8009097
:1043600001AB320008A904A8FFF76AFF0400042C7F
:1043700006D0002C2AD168468088B042EED103E0F6
:1043800068468088002808D06846828808A92800E6
:10439000FFF721FFAD19002CE0D008A80C21FEF793
:1043A0005BFA624828184003000E09900698401EE8
:1043B000711E0143491C481B4003000E0A906946C8
:1043C00008A805F095FD3800FFF7FCFD89498D44EC
:1043D000F0BD0000FCFF0000F8B5844CA5440021AE
:1043E0006A46917100220023814906000BE0B06803
:1043F0000C245C43005D14246043081840890028A5
:1044000000D001225B1C30798342F0DB002A25D0EA
:1044100080221201FF2108A805F0B2FD00258024AA
:1044200024010DE002A8FFF705FF02A8009001ABF0
:10443000E21B92B208A8C11904A8FFF701FF6D1C86
:10444000307985420CDAB0680C226A43011D8F581E
:1044500004A9805C00F08FF80028E3D000201BE066
:10446000220008A93068FFF7B6FE614C37006946A4
:104470008D7900260CE0B8680C217143405C142152
:1044800048432018FFF79EFD010000D00500761C70
:1044900038798642EFDB280056498D44F0BD9649B5
:1044A0008A79824201D102207047897C8142FAD008
:1044B00000207047FF070000F8B54C4CA5440400ED
:1044C0000E0080221201FF2108A805F059FD0025E9
:1044D00068460471802424011CE00C276F43B068F7
:1044E000C05D6A461279904213D004A900F043F8E7
:1044F000B068C019476802A8FFF79CFE02A80090A8
:1045000001AB9B1CE21B92B208A8C11904A8FFF7DB
:1045100097FE6D1C30798542DFDB220008A93068E8
:10452000FFF759FE002033498D44F0BD0000FCEF39
:1045300010B5002470480C21614341188A792C4839
:1045400014235343C0180368002B10D1012A0EDC3A
:104550000A6802608B88D218426009890182FFF7DD
:1045600031FD010004D1641C012CE3DD01E00120D8
:1045700010BD002010BD10B50200022A01DB012091
:1045800010BD1B4B142462439A1813684B60526889
:104590008A6001220A7308700020487310BD7FB53D
:1045A0006A4C0578142675436419A47B002C01D04D
:1045B0000A2008E003940294099C01946C46248C20
:1045C0000094FFF768FD04B070BD7CB55F4C0578C2
:1045D000142675436419A47B002C01D00A2076BDF3
:1045E0000194069C0094FFF7C4FD76BDE0F7FFFF41
:1045F000A40E002024080000FAB583B0170003259C
:10460000791E03260E43761C0CE00C78FF2C18D084
:10461000FE2C01D0002C6BD14A88D21C2A43521C9C
:1046200089184160826841684B1D9342EDD38B49E4
:1046300000781422504308184089002856D10220DF
:1046400057E00290501A864B984201D2521A00E06D
:104650001A46824C92B2B0B26B461B8DC018001D38
:1046600082423BDB6846007B019100210091FE21E4
:104670006A461170694648706846008D3018488057
:10468000009A0199002005F0B3FB049AB1B2019899
:10469000001DFFF727FD0B9A6846018D0198B6B201
:1046A0008019001DFFF71EFD2000083002990978CF
:1046B0001422514340180188491C01800298007857
:1046C00014214843201881896A46128DBA18521E57
:1046D0001543491B491F818100200AE00298007898
:1046E00014214843201840890028A8D00B2000E05E
:1046F000032005B0F0BD0000A413041010B50400A1
:104700006168A06881421ED20878FF281BD0FE286D
:1047100017D1FF22D243002005F06AFB4F48010069
:104720000831227814235A4389180A88521E0A80B5
:1047300021781422514340184189491C41810020AD
:1047400010BD052010BD042010BD0000A40E0020E7
:1047500078B585B00400002600966946FFF79FFEF5
:104760003E4D02281ED1142044432C19256802A86E
:104770000C21FEF771F83B4828184003000E039007
:104780006068401E38490143491C481B4003000E25
:10479000049001A902A805F0ABFB2000FFF712FC72
:1047A00000201AE0012817D100992000FFF784FEAD
:1047B00004000FD10AE0009880680C217143405C2E
:1047C000142148432818FFF7FDFB761C0098007958
:1047D0008642F0DB200000E0012006B070BD1CB571
:1047E00004000020009069462000FFF758FE0228D0
:1047F00003D12000FFF79CFD16BD012803D10098CE
:10480000FFF7EAFD16BD012016BD38B51748002197
:104810004356DAB2114C1425554364196589002DAD
:1048200003D0A589248AA54207D3521CD2B2022AFA
:1048300000D100229A42EDD106E0531C5CB2022C5A
:1048400000D10023190001E00022D24301701006BC
:1048500002D4D0B2FFF7C3FF002032BDA40E002067
:10486000FFFF00000000FCEFFF070000740F0020B6
:10487000F0B581B025490C680025657405F08AFB08
:10488000234E3068C06805F05FFD002801D0042782
:1048900023E03068C06805F041FD002801D0012701
:1048A0001BE03068C06805F03DFD002801D00227FC
:1048B00013E03068C06805F04FFD052700280CD1D3
:1048C0003068C06805F04CFD002806D13068C0682B
:1048D00005F013FD00282F460BD00120B8400D49EC
:1048E00009680A6802430A60002005F085FFFDF7A9
:1048F000A9F9607C012807D1217B0F200840A2681C
:10490000090905F089FF657401B0F0BD5C0F002056
:10491000600F00204C0F002080B505F07FFF80BDA8
:10492000BCB5584CA16900910840A06135E0521C0B
:10493000D300E51803000B402F681F40F7D02A680A
:10494000104001406868084002D10020C043686000
:104950006868084000F09AF801006A680120884001
:1049600082436A606162EFF3108172B6626A01206D
:104970009040C2432069104020610220C300E31828
:10498000083B1D6815401D60401EF7D181F310885B
:104990003D48616A8900405880472369E26960693F
:1049A000256AA16903400B4003D0154001D10022C4
:1049B000BEE70020C0436062206A104014D102F0BC
:1049C00041FCEFF3108572B62169E06962690A4023
:1049D000A169114004D1216A014001D102F033FCE8
:1049E00085F3108805F030FF0098A061B3BD38B59D
:1049F0001400EFF3108572B600F048F880002249E9
:104A00000C5085F3108831BD10B5EFF3108272B6EB
:104A10001C4B1C6904431C61C90059180B681843DE
:104A2000086082F3108810BDEFF3108172B6154A4A
:104A3000D3691843D06181F310887047F8B5114DE0
:104A4000696A00910022D243914201D1002701E01E
:104A500001278F402E6A2862040003E021003800FD
:104A600005F0F3FEE8692040F8D000986862EFF3A3
:104A7000108072B6E969A143E96180F310882E6263
:104A8000F1BD0000680300200C0C00200021020C86
:104A9000120401D110210004020E120601D10831C6
:104AA0000002020F120701D1091D00011F22511A35
:104AB00002A2000F105C081AC0B270470403020281
:104AC00001010101000000000000000010B5FFF727
:104AD0002FFD424C211D0020FFF74DFD2100143118
:104AE0000120FFF748FD201D206010BD3EB53B4D65
:104AF000022802D12C00143400E02C1D2C600193FC
:104B00006B461B8B00930B0001002000FFF774FD28
:104B1000002805D0022801D1002000E00120C04378
:104B20003EBDF8B584B00E0019002C4C022E03D106
:104B300025001435012301E0251D00230700256011
:104B400028466D466A8103910A9D022F08D102A969
:104B500000912B00039A69464989FFF736FD0FE063
:104B6000002F03D101001800FFF705FD02A80190F6
:104B70000095039B6846428931002068FFF70FFDCE
:104B8000010001D1002005E0042801D1022000E04D
:104B90000120C04305B0F0BD10B5140023000A0089
:104BA00001000E480068FFF7C3FA002804D001D5C1
:104BB000200010BD0220C04310BD80B5022807D1DF
:104BC000064908681431884207D0FFF797FD01BDF8
:104BD000032802D10020FFF7BBFD01BDCC0E002051
:104BE0000120FFE719490860002070470120C043F9
:104BF00016490968012900D1002070470020EFF311
:104C0000108172B6114A1368012B02D00120C043F3
:104C100001E00323136081F3108870470020EFF355
:104C2000108172B6094A1368032B02D00120C043D9
:104C300001E00123136081F31088704780B50A00FA
:104C4000034905F092FE02BD000000003003002081
:104C5000BC13041010B5010034A43548354A097856
:104C6000012904D013D3032909D005D310BD002096
:104C700000F0CAF830A008E00121117002E0002124
:104C800011703030FDF74EFE2000FDF74BFE10BDD9
:104C900080B528490278002A02D0012A03D001BD3C
:104CA0004088C88001BD2548C88000F012F801BDC9
:104CB00010B5204C2148E08005F055FF204A002126
:104CC0008020C000FFF793FE0020207000F001F864
:104CD00010BD01201749487000228A70C8700A71FF
:104CE00070473EB517480090694600220A71114C82
:104CF0002279551EAD41ED0F012202704570022050
:104D000008711148217801290BD1FDF70BFEE288CB
:104D10000A48824203D06946012005F050FF257100
:104D200037BD3830FDF7FEFDF9E70000200A00002E
:104D3000181604102C0F00202A200000FFFF00008E
:104D4000E34C041024090020781604100249096875
:104D5000C88100207047C0465C0F0020021D136808
:104D60008B431360026811430160704781B093491F
:104D70000A6802430A60096808400090009801B080
:104D8000704730B585B004000820FFF7EFFF894871
:104D900061004518298800910121019102910221A9
:104DA0000391A10044186946A06805F03DFF8248C0
:104DB0000068C00610D5A0689021C905884203D1BB
:104DC00000997F48FFF7CAFFA0687E49884203D157
:104DD00000998948FFF7C2FF01222988A06805F0E1
:104DE000D1FF002005B030BD80B5724B002202E03B
:104DF00080B5704B01224100595A80001818806814
:104E000005F0C0FF002002BD80B56A4A4100515A3A
:104E100080001018806805F0BBFF002002BD70B54F
:104E200086B006000C00300001D1042000E008200C
:104E3000FFF79CFF2000714D7100695A019101211B
:104E4000039102210491B1006C18010006D10020E9
:104E5000029001A9E06805F0E7FE1FE001281DD1DE
:104E60008020400066490A6802430A6009680840D9
:104E70000090009880204002029001A9E06805F0AF
:104E8000D3FE28000830851900220321002028566F
:104E900005F0BDFF0020285605F0BEFF464800681B
:104EA000C00610D5E0689021C905884203D1019958
:104EB0004348FFF753FFE0684249884203D1019914
:104EC0004D48FFF74BFF002006B070BD80B54B4A40
:104ED0004100515A80001018C06805F04DFF401E77
:104EE0008041C00F02BD80B505F05AFF01BDF0B58D
:104EF00087B00F0000250024002F02D10124E443D5
:104F000055E0404994224243891800913E4980006F
:104F10000858009908600420FFF728FF0420FFF7D5
:104F200025FF8020C00039490A6802430A600968E9
:104F30000840019001988020800002900220039098
:104F400005900120049006959026F60502A93000F0
:104F500005F06AFE18480068C00603D50299184893
:104F6000FFF7FCFE802040000290069502A9300069
:104F700005F05AFE0325ED433900009805F072FF55
:104F8000002800D02C000021009805F0A1FF002887
:104F900000D02C000021009805F0B3FF002800D0BD
:104FA0002C00009805F076FF002800D02C0020008F
:104FB00007B0F0BD9C03002000005048500040485E
:104FC0002000504800001048F8B500240D4E009114
:104FD000150094270BE0FA239B0001220098011989
:104FE0000B4800787843301806F014F8641CAC4283
:104FF000F1D32800F2BD000028005048B003002083
:1050000054004048780B0020C80300205800404856
:10501000770F0020010042221201D21E004207D069
:1050200002D4521E0018FCD5C10A40051205891889
:10503000704700000100EED54042F446FFF7EBFF59
:105040000122D20711436047F0B50E005E400125F2
:10505000ED072E40B446AE0ADF184C18F44208D2D1
:10506000F7420ED2640D01D07F0D12D100206146AF
:10507000F0BD05D1F74201D87F0D05D10020C14315
:10508000F0BDFBD1640DF9D00020C14349054908AA
:105090008FE0E419C902DB0229432B43DB0A460DEA
:1050A000C00231438E4630B487B295B27D432E0C98
:1050B000ADB2140C7C43A419260C240425439CB2E5
:1050C0007C43A419190C7943270CC919A4B20F0405
:1050D0003C43090C000C97B247432E0CBE193543D4
:1050E000ADB2170C4743360CBF19A6B2BF193E0428
:1050F0003543240C3E0C36199FB24743BF19BCB24E
:105100003E0C89191F0C47437F183E043443390C69
:10511000704680B297B247432E0CBE193543ADB2EC
:10512000170C4743360CBF19A6B2BF193E043543CE
:10513000240C3E0C36199FB24743BF19BCB23E0C3B
:1051400089191F0C47437F183E043443390C7746B6
:105150003F0C90B278432E0C80190604ADB22E435A
:10516000050CA0B22D18120C7A435019020C80B213
:10517000240CA4189AB27A43121914042043120C76
:1051800089181B0C7B43C91830BCEF0A394203D184
:10519000B61940414941641E6F12BF0DE41B0BDB81
:1051A000FF19BC4211DA240500274208AE417841BC
:1051B000614166463143F0BD641C05D1401C61412C
:1051C000CF0201D34908F4E750E75DE730B401248A
:1051D00064054D00EC420BD85D00EC4208D80C0091
:1051E0001C4364000443144304D28B4200D1824226
:1051F00030BC7047FCD09942FAD19042F8E7830066
:1052000085000700070083008500050007000300F4
:1052100003000F000500820081000500F4464A18D3
:1052200005D200F00FF801D580174008604700F064
:1052300009F80121C907884200D9080040426047A7
:105240004A1812D2400DC90208430121C907084378
:10525000520D40210901521A521C06D452421F32EB
:1052600001D4D0407047C017704700207047F0B499
:105270000125ED070F005F404FD48B4200D18242E1
:1052800005D98446100062468C4619006346DF1833
:105290004C18640D7F0D3AD0661C760537D0E61B9E
:1052A000352E34DCDB022B43DB0A0C0DC90229430B
:1052B000C912202E0DDB1700203E06D01F00F7413B
:1052C000F3405F400026012A7741C01871410DD29A
:1052D00017E01700F741F2405740F3415A40B340FE
:1052E000F3405A400026801859410AD3A21C5205A7
:1052F0000FD0C207012F724117004008CB07184397
:105300004908641C24054208AF4170416141F0BC6A
:105310007047641C21050020F9E76B4010E06B40EA
:10532000ABE7F742F3D1E943F1E72442EFD10020A4
:105330000021ECE7F0B40125ED070F005F40EED44B
:105340000C00871A9C4105D2C01BA141D2196341B0
:1053500069406B40AE0ADF184C18F442E1D2640D8C
:105360007F0DE2D0E61B362ED1DCDB022B43DB0ABD
:10537000A4460C0DC9022943C90A012E28DC04D118
:10538000D6075208DF073A435B08EF0A764290419E
:10539000994114D039423BD1B61940414941761C5C
:1053A000394204D1761C001849413942FAD0B94338
:1053B0006746B74208D9A41B24052143A7E700424A
:1053C000EAD13642E8D1A2E7E40AE10700209EE7ED
:1053D000202E0BDD203E1F00F340F7415F40012AE5
:1053E000002257417E42984191410BE01700F7415E
:1053F000F2405740F3415A40B340F3405A407E4296
:10540000904199410A0303D2641EB61940414941B3
:105410000027641E24054208AE4178416141F0BC7A
:1054200070470300FFFFFFFFFFFFFFFFFFFFFFFFCE
:10543000FFFF010000000000FFFF01000000FFFF70
:10544000C3788278417800781B021A43090212045B
:1054500008431043704780B5FDF71CFC80BDF0B5D4
:1054600093B01F4615460E4612901C9C08461146E6
:10547000224606F02FF8002824D122980D901FAB69
:105480000DCB11901E980F901D980E901B980C90AC
:105490001A9919981097189F089209930D9A0A92D1
:1054A0000097019002910C98039004940E98059037
:1054B0000F98069011980790129831462A46109B33
:1054C000FDF7BEFB13B0F0BD80B5FDF7DFFB80BD7F
:1054D00038B5050006F012F804000020C0438542EC
:1054E00002D0044800782D1806F008F8001BA842E6
:1054F000FAD331BD900300200020704780B506F03C
:1055000003F801BD80B50B0011001A00FDF7A6F9E4
:1055100001BD80B504F0DCFC02BD7FB504000D00C8
:105520001600684606F056F8684601782170417802
:105530002970807830707FBD80B5FFF77FFB02BD9A
:1055400080B505F012FA02BD80B506F089F801BDFC
:1055500080B506F0C7F802BD80B506F0E5F802BDDB
:1055600080B506F015FA02BD80B506F060FA01BDFF
:1055700080B506F064FA01BD80B506F075FA02BD8B
:1055800080B506F091FA02BD80B506F0BDFA02BD05
:1055900080B506F0BBFA02BD80B506F0B9FA01BDD0
:1055A00080B501F0FDFB02BD80B5FEF7B1F804BD8A
:1055B00080B5FEF7D3F802BD80B5FEF7D8F801BD7F
:1055C00080B5FDF7AFFFC0B202BD80B5FEF728F889
:1055D000C0B202BD80B5FDF7FDFE04BD80B5FEF78B
:1055E00061F801BDF0B59BB0EC4C7F20C643FDF7E0
:1055F00081FBEB4D012802D0E87A002810D0274625
:1056000034467834FDF776FBE97A614378433818FD
:105610004418FDF76FFBE3494843E97A41436418B6
:105620006234FDF767FB01280ED1304678302989B6
:10563000414330465C30AA7A4243501831466031CB
:105640002A7B4A43801800E000200490E8891490E7
:1056500006F0E8FA012801D0FDF7E6FBFDF746FB6E
:105660000128159409D134465034FDF743FB6043BB
:10567000E97A414308390A9101E000200A90CA4CB6
:10568000FDF7D2FB0128204616D006F0CBFA012800
:10569000204611D02920285C002820460CD1252046
:1056A000285C0028204607D12620285C002801D04D
:1056B000204601E030463C301390204620301690C2
:1056C000FDF7B2FB012815D006F0ACFA012811D085
:1056D0002920285C00280DD12520285C002809D12C
:1056E0002620285C002802D02046203001E03046E9
:1056F00054301690FDF798FB1190A87E0190E87F3A
:105700001090FDF7F7FA1290E87F029006F08CFAFD
:105710000990E87F0390FDF721FB002706F086FA49
:10572000012838461A96199760D1E87F11278740DB
:1057300003242743022181404E1E2643FDF774FBBC
:10574000012817D117960F94687F0A2800D30A20E2
:105750001A9C24344443C03C002606F069FA012810
:10576000189620D1FDF7C6FA012805D01A9B1846D5
:105770006C3004E0002031E01A9B18466030D349B9
:105780006431AA7F4A43101829461D467835C97FDF
:105790002A468A408618FDF7ADFA012803D1C94888
:1057A000C07A45437619A519FFF7A6FE064606F00E
:1057B0003FFA04463440FDF79DFA2040012818982E
:1057C000179E09D1BF49C87E401E0F9A1043897F9A
:1057D000E0224A43D143081A2818BA4DB919BA4AE7
:1057E000511A08181A301A9EB84C199F0890FDF7E4
:1057F00081FA0128394609D106F01CFA01283946F8
:1058000004D12220285C31462C3141430F9106F00F
:105810000FFA0128384620D120465830A97E41434E
:1058200030466030EA7A424354180025FFF764FEA0
:10583000012810D1FDF75EFA01280CD130467030F6
:10584000A04B197F414330467430DA7E42435018F2
:10585000E4389D7E454360199A4D0E9006F0ECF9B0
:105860000128384636D1FDF745FA012803D02C46E9
:105870003546743505E0304678302C46ED7A4543A0
:105880000C3D2327E05D00260028304605D0FDF7BB
:1058900031FAE05D40420321884340192425615DCF
:1058A0001A9A7C324A43871806F0C0F901280DD1B4
:1058B000FDF7BAFA012809D106F0BAF9012805D195
:1058C0008048465D002E01D01A9E6836B8197D4D7D
:1058D0001A9E199F0D90FDF70DFA0128394609D13E
:1058E00006F0ACF90128394604D130465C30E97A3B
:1058F000414314390C91FDF7FDF90128394608D1CF
:1059000006F09EF90128394603D130466430E97A21
:1059100041430B9126201890285C06902520179073
:10592000285C05903E462927E85D0790FDF77CFA44
:10593000044606F07DF9E04234461AD01898285CF7
:105940002821695C1A9E344678344C43F43C444325
:1059500006F06CF900280AD01798295C2720285CEB
:105960006C364643594880190C30484300E000200B
:105970000419E85D002819D0FDF7BCF90028049B44
:1059800015D02A20285C514970314143E85D1A9AAC
:10599000504340183838199009E0C0467CFBFFFF9F
:1059A0000C0E00206CFDFFFFDCFEFFFF049B159832
:1059B00018181A9B19465C31149A514340180A99D9
:1059C00040181399401816994018194678310A461C
:1059D000109EB2408018119A012A07D13B4A683ABA
:1059E000019E72431018132212018018099F069A13
:1059F000059EB218129E012E02D1029EB14040189F
:105A0000199E07995118012F05D11A463032039F6C
:105A1000BA4010187038089A80180F9A80180E9A99
:105A200080180D9A80180C9A80180B9A80180029FB
:105A300004D01A4648324A4310180C380019841909
:105A40002820285C199018982F5C2A20285C189030
:105A50002720285C169017982E5CFDF74BF901283B
:105A600005D12B20285C1A9938314143641806F07F
:105A7000E9F8012801D1164824181998189A16999E
:105A80004E43B1184743B818C84208D01A9B1A466B
:105A900058324A434433434398180419183C094D7B
:105AA000686820180321C943EA8DD21C0A40AB8DD7
:105AB000DB1C0B409A182B8EDB1C0B40D118401AB4
:105AC0001BB0F0BD0C0E00206CFDFFFFDCFEFFFFE5
:105AD00014F6FFFFF0B595B00120810414912E4813
