:020000041004E6
:10000000B85F002029970510219A0510239A051042
:1000100000000000000000000000000000000000E0
:10002000000000000000000000000000E9A0041033
:100030000000000000000000ABA00410519D04105F
:10004000675304106F550410536F04108F8C041005
:10005000000000000000000000000000B795041040
:100060002F9A0510FF9D0410259A0510DBAA041095
:100070001FAB04104B9A0510000000007D9A05107C
:100080008B9A0510CFAB0410659A05100000000094
:100090005D9A051000000000759A0510559A05102C
:1000A0005BAD04106D9A0510ABBE04105BBF04106D
:1000B0000000000000000000000000000000000040
:1000C0008C350020B62200000600010200001E0050
:1000D000F7000000FFFFFFFF6400011008000003AD
:1000E000F70001000001010202020200000100030A
:1000F000000400004572726F7220696E20424C4508
:100100005F535441434B5F496E697428292030780E
:10011000253032780D0A000020204661696C2020CD
:10012000203A206163695F68616C5F7365745F7416
:10013000785F706F7765725F6C6576656C20636F52
:100140006D6D616E642C20726573756C743A20302D
:1001500078253032580A0000202053756363657398
:10016000733A206163695F68616C5F7365745F7483
:10017000785F706F7765725F6C6576656C20636F12
:100180006D6D616E640A000020204661696C20205C
:10019000203A206163695F676174745F7372765F90
:1001A00070726F66696C655F696E697420636F6DEC
:1001B0006D616E642C20726573756C743A203078B2
:1001C000253032580A0000002020537563636573A0
:1001D000733A206163695F676174745F7372765FFD
:1001E00070726F66696C655F696E697420636F6DAC
:1001F0006D616E640A00000020204661696C202059
:10020000203A206163695F6761705F696E6974207D
:10021000636F6D6D616E642C20726573756C743ADA
:10022000203078253032580A000000002020537515
:1002300063636573733A206163695F6761705F69C7
:100240006E697420636F6D6D616E640A000000005A
:1002500020205374617469632052616E646F6D2055
:10026000426C7565746F6F74682041646472657365
:10027000733A20253032783A253032783A253032B8
:10028000783A253032783A253032783A253032784B
:100290000A00000020204661696C2020203A204797
:1002A00061705F70726F66696C655F7365745F64BF
:1002B00065765F6E616D65202D20446576696365A6
:1002C000204E616D652C20726573756C743A203018
:1002D00078253032580A0000202053756363657317
:1002E000733A204761705F70726F66696C655F7307
:1002F00065745F6465765F6E616D65202D20446571
:1003000076696365204E616D650A000020204661B4
:10031000696C2020203A204761705F70726F6669B7
:100320006C655F7365745F617070656172616E6347
:1003300065202D20417070656172616E63652C20AF
:10034000726573756C743A203078253032580A0023
:100350002020537563636573733A204761705F7043
:10036000726F66696C655F7365745F6170706561FB
:1003700072616E6365202D20417070656172616EDF
:1003800063650A0020204661696C2020203A2061C4
:1003900063695F6761705F7365745F696F5F6361F5
:1003A000706162696C69747920636F6D6D616E64F0
:1003B0002C20726573756C743A2030782530325871
:1003C0000A0000002020537563636573733A20614F
:1003D00063695F6761705F7365745F696F5F6361B5
:1003E000706162696C69747920636F6D6D616E64B0
:1003F0000A00000020204661696C2020203A20611C
:1004000063695F6761705F7365745F73656375725D
:100410006974795F726571756972656D656E747303
:1004200020636F6D6D616E642C20726573756C74E2
:100430003A203078253032580A00000020205375C9
:1004400063636573733A206163695F6761705F73AB
:1004500065745F73656375726974795F72657175D0
:100460006972656D656E747320636F6D6D616E6426
:100470000A00000020204661696C2020203A20619B
:1004800063695F6761705F636F6E666967757265E8
:100490005F66696C7465725F6163636570745F61E8
:1004A0006E645F7265736F6C76696E675F6C69739B
:1004B0007420636F6D6D616E642C20726573756C52
:1004C000743A203078253032580A000020205375C5
:1004D00063636573733A206163695F6761705F632B
:1004E0006F6E6669677572655F66696C7465725F69
:1004F0006163636570745F616E645F7265736F6C76
:1005000076696E675F6C69737420636F6D6D616E81
:10051000640A0000536572766963657320616E64D6
:10052000204368617261637465726973746963738F
:10053000206372656174696F6E0A0000456E642005
:100540006F6620536572766963657320616E6420FF
:10055000436861726163746572697374696373205F
:100560006372656174696F6E0A0000002020466145
:10057000696C2020203A206163695F68616C5F7359
:1005800065745F726164696F5F61637469766974D1
:10059000795F6D61736B20636F6D6D616E642C208C
:1005A000726573756C743A2030782532580A0000F1
:1005B0002020537563636573733A206163695F68D4
:1005C000616C5F7365745F726164696F5F616374AE
:1005D00069766974795F6D61736B20636F6D6D61AE
:1005E0006E640A0D000000003E3E3D3D2048434938
:1005F0005F444953434F4E4E454354494F4E5F432A
:100600004F4D504C4554455F4556545F434F44450C
:100610000A00000020202020202D20436F6E6E65F0
:100620006374696F6E2048616E646C653A202020A7
:100630003078253032580A20202020202D20526585
:1006400061736F6E3A202020203078253032580AAE
:10065000000000003E3E3D3D204843495F4C455F61
:10066000434F4E4E454354494F4E5F5550444154BD
:10067000455F434F4D504C4554455F535542455699
:10068000545F434F44450A0020202020202D204362
:100690006F6E6E656374696F6E20496E74657276F5
:1006A000616C3A20202025642E25303264206D7341
:1006B0000A20202020202D20436F6E6E6563746910
:1006C0006F6E206C6174656E63793A20202020255E
:1006D000640A20202020202D2053757065727669D1
:1006E00073696F6E2054696D656F75743A202020B0
:1006F0002564206D730A00003E3E3D3D2041434984
:100700005F4741505F50524F435F434F4D504C4500
:1007100054455F56534556545F434F44450A0000C5
:100720003E3E3D3D204143495F4741505F4B455967
:1007300050524553535F4E4F5449464943415449E3
:100740004F4E5F56534556545F434F44450A000091
:100750003E3E3D3D204143495F4741505F5041533C
:10076000534B45595F5245515F56534556545F436D
:100770004F44450A000000003D3D3E3E2061636954
:100780005F6761705F706173736B65795F726573CA
:1007900070203A204661696C2C20726561736F6E1F
:1007A0003A203078253032580A0000003D3D3E3E68
:1007B000206163695F6761705F706173736B6579F6
:1007C0005F72657370203A20537563636573730AB3
:1007D000000000003E3E3D3D204143495F474150FF
:1007E0005F4E554D455249435F434F4D504152492D
:1007F000534F4E5F56414C55455F56534556545FD7
:10080000434F44450A0000003D3D3E3E2061636980
:100810005F6761705F6E756D657269635F636F6D51
:1008200070617269736F6E5F76616C75655F636F1F
:100830006E6669726D5F7965736E6F203A204661EE
:10084000696C2C20726561736F6E3A2030782530A8
:1008500032580A003D3D3E3E206163695F6761702A
:100860005F6E756D657269635F636F6D70617269EC
:10087000736F6E5F76616C75655F636F6E666972CC
:100880006D5F7965736E6F203A205375636365738E
:10089000730A00003E3E3D3D204143495F474150C1
:1008A0005F50414952494E475F434F4D504C45546C
:1008B000455F56534556545F434F44450A00000078
:1008C00020202020202D2050616972696E67204B06
:1008D0004F0A20202020202D205374617475733A14
:1008E000203078253032580A20202020202D205218
:1008F0006561736F6E3A203078253032580A0000F7
:100900003E3E3D3D204143495F474154545F535271
:10091000565F524541445F56534556545F434F44DA
:10092000450A00003D3D3E3E20636F6E6E65637478
:10093000696F6E5F636F6D706C6574655F6576651A
:100940006E74204661696C2C205374617475733A1F
:10095000203078253032580A000000003E3E3D3DF0
:10096000206863695F6C655F636F6E6E6563746951
:100970006F6E5F636F6D706C6574655F6576656ED5
:1009800074202D20436F6E6E656374696F6E2068EE
:10099000616E646C653A203078253034580A000066
:1009A00020202020202D20436F6E6E656374696FB8
:1009B0006E2065737461626C697368656420776921
:1009C000746820403A253032783A253032783A251A
:1009D0003032783A253032783A253032783A25303C
:1009E00032780A0020202020202D20436F6E6E6573
:1009F0006374696F6E20496E74657276616C3A201B
:100A0000202025642E25303264206D730A2020209A
:100A100020202D20436F6E6E656374696F6E206CAD
:100A20006174656E63793A2020202025640A2020B5
:100A30002020202D205375706572766973696F6E62
:100A40002054696D656F75743A202564206D730AB2
:100A5000000000006863695F6C655F726561645FD8
:100A6000706879206661696C7572653A207265619B
:100A7000736F6E3D3078253032580A003D3D3E3E62
:100A8000206863695F6C655F7365745F7068792067
:100A900050485920506172616D202054583D2025E6
:100AA000642C2052583D202564202D200000000099
:100AB0006163695F6761705F7465726D696E6174AF
:100AC00065206661696C7572653A20726561736F45
:100AD0006E3D3078253032580A0000003D3D3E3EE4
:100AE000206163695F6761705F7465726D696E61D3
:100AF0007465203A20537563636573730A000000C0
:100B00006163695F676174745F636C745F65786368
:100B100068616E67655F636F6E66696720666169AD
:100B20006C7572653A20726561736F6E3D30782521
:100B30003032580A000000003D3D3E3E20616369AE
:100B40005F676174745F636C745F65786368616E1E
:100B500067655F636F6E666967203A2053756363EC
:100B60006573730A000000003D3D3E3E20616369ED
:100B70005F6761705F7365745F61647665727469E5
:100B800073696E675F636F6E6669677572617469BA
:100B90006F6E202D206661696C2C20726573756CF8
:100BA000743A203078253032580A00003D3D3E3EF0
:100BB00020537563636573733A206163695F67618E
:100BC000705F7365745F6164766572746973696E72
:100BD000675F636F6E66696775726174696F6E0ACD
:100BE000000000003D3D3E3E206163695F6761702B
:100BF0005F7365745F6164766572746973696E674B
:100C00005F64617461204661696C65642C20726563
:100C100073756C743A203078253032580A00000021
:100C20003D3D3E3E20537563636573733A206163B7
:100C3000695F6761705F7365745F61647665727424
:100C40006973696E675F646174610A003D3D3E3E91
:100C5000206163695F6761705F7365745F6164766B
:100C60006572746973696E675F656E61626C652039
:100C70004661696C65642C20726573756C743A20EA
:100C80003078253032580A003D3D3E3E2053756392
:100C9000636573733A206163695F6761705F736551
:100CA000745F6164766572746973696E675F656E9F
:100CB00061626C650A00000044697361626C6520C2
:100CC0006164766572746973696E67202D20666150
:100CD000696C2C20726573756C743A2030782530FD
:100CE00032580A003D3D3E3E2044697361626C65A6
:100CF000206164766572746973696E67202D205374
:100D00007563636573730A006163695F6C32636165
:100D1000705F636F6E6E656374696F6E5F70617232
:100D2000616D657465725F7570646174655F72652D
:100D300071202D206661696C2C20726573756C744E
:100D40003A203078253032580A0000003D3D3E3EC2
:100D5000206163695F6C326361705F636F6E6E65A3
:100D60006374696F6E5F706172616D657465725FE7
:100D70007570646174655F726571202D20537563B1
:100D8000636573730A0000003D3D3E3E2061636968
:100D90005F6761705F636C6561725F7365637572D5
:100DA0006974795F6462202D204661696C2C207221
:100DB0006573756C743A203078253032580A00001B
:100DC0003D3D3E3E206163695F6761705F636C65B6
:100DD00061725F73656375726974795F6462202DF7
:100DE00020537563636573730A0000000000000000
:100DF0000200000030000020000000000800000099
:100E0000BC01002000000000010000006805002077
:100E10000000FFFF0000000004000000100E04109E
:100E2000000000000200000032000020000000006E
:100E30000100000072D50410010000000100000054
:100E40008035002020000000FB349B5F8000008084
:100E500000100000052A0000100000000100000042
:100E6000A0020020140E04100A000000FB349B5F57
:100E70008000008000100000292B000010000000FE
:100E80000000000000000000200E0410020000001E
:100E9000FB349B5F80000080001000002A2B0000C4
:100EA0001000000000000000000000000000000032
:100EB00002000000FB349B5F8000008000100000F7
:100EC0003A2B0000100000000000000000000000AD
:100ED0002C0E041096C298D84539A1F4A033EB2DFE
:100EE000817D0377F240A463E5E6BCF847422CE13C
:100EF000F2D1176BF551BF376840B6CBCE5E316B80
:100F00005733CE2B169E0F7C4AEBE78E9B7F1AFE43
:100F1000E242E34F00F0061000080000AA020000C1
:100F200000F80610F8070100000000002D2D2047F2
:100F3000415454203A204C454420434F4E464947A3
:100F400055524154494F4E20524543454956454418
:100F50000A00000020204661696C2020203A2061B0
:100F600063695F676174745F636F6E6669726D5FFA
:100F7000696E6469636174696F6E20636F6D6D6122
:100F80006E642C20726573756C743A203078257805
:100F9000200A00002020537563636573733A206153
:100FA00063695F676174745F636F6E6669726D5FBA
:100FB000696E6469636174696F6E20636F6D6D61E2
:100FC0006E640A0020204661696C2020203A20616E
:100FD00063695F676174745F7372765F6164645F95
:100FE0007365727669636520636F6D6D616E643AD7
:100FF000207032705F5365727665722C2065727254
:101000006F7220636F64653A2030782578200A007B
:101010002020537563636573733A206163695F676A
:101020006174745F7372765F6164645F7365727616
:1010300069636520636F6D6D616E643A2070327014
:101040005F536572766572200A00000020204661B9
:10105000696C207265676973746572696E67207068
:1010600032705F5365727665722068616E646C657C
:1010700072730A000610000019ED82AEED214C9D3E
:101080004145228E41FE000080000000000000006B
:1010900000000000000300201010000019ED82AED7
:1010A000ED214C9D4145228E42FE00008000000053
:1010B00001000000E40200200C0300208FE5B3D5FE
:1010C0002E7F4A982A487ACC40FE0000800000001B
:1010D000010000000000000000000000020000000D
:1010E0007410041020204661696C2020203A206191
:1010F00063695F676174745F7372765F6E6F746942
:101100006679205357495443485F4320636F6D6DA0
:10111000616E642C206572726F7220636F64653A31
:101120002030782532580A00202053756363657398
:10113000733A206163695F676174745F7372765F8D
:101140006E6F74696679205357495443485F432052
:10115000636F6D6D616E640A0000000001000000A5
:1011600001000000833500202D2D205032502041F9
:1011700050504C49434154494F4E205345525645D7
:1011800052203A204C454431204F4E0A00000000C6
:101190002D2D20503250204150504C49434154494C
:1011A0004F4E20534552564552203A204C4544312B
:1011B000204F46460A0000002D2D2050325020417D
:1011C00050504C49434154494F4E20534552564587
:1011D00052203A204E4F54494649434154494F4EBC
:1011E00020454E41424C45440A0000002D2D205020
:1011F0003250204150504C49434154494F4E2053A6
:101200004552564552203A204E4F54494649434193
:1012100054494F4E2044495341424C45440A000032
:101220002D2D20503250204150504C4943415449BB
:101230004F4E20534552564552203A20494E464F74
:10124000524D20434C49454E5420425554544F4E24
:101250002031205055534845440A00002D2D205080
:101260003250204150504C49434154494F4E205335
:101270004552564552203A2043414E275420494E6C
:10128000464F524D20434C49454E54202D204E4F41
:1012900054494649434154494F4E204449534142E1
:1012A0004C45440A0000000096C298D84539A1F484
:1012B000A033EB2D817D0377F240A463E5E6BCF813
:1012C00047422CE1F2D1176BF551BF376840B6CBDE
:1012D000CE5E316B5733CE2B169E0F7C4AEBE78EDA
:1012E0009B7F1AFEE242E34F099A0510159A0510FA
:1012F000D998051061990510699705100F98051088
:10130000686A6C747A4C00007072696E74665F7300
:101310003A20256E20646973616C6C6F7765640098
:101320007072696E74663A2062616420256E206175
:101330007267756D656E74007072696E74665F7346
:101340003A2062616420257320617267756D656E55
:1013500074000000000000007072696E74665F73B4
:101360003A2062616420256C7320617267756D6537
:101370006E740000000000006E616E004E414E0071
:10138000696E6600494E460030002E00FB349B5FBC
:101390008000008000100000292B000010000000D9
:1013A000FB349B5F8000008000100000052A0000D5
:1013B000100000000000000000000000000000001D
:1013C00000000000E1DB051000000000020000004A
:1013D00003000000030000000600000003000000FE
:1013E000030000003C0000007000000070000000DE
:1013F000D003000070000000C3010000399D0510FB
:10140000C7C804103FCE0410E7D204104FD0041018
:101410002D25041051F20510F7260410FF260410A4
:10142000072704100F27041017270410D9A205104E
:10143000C7260410B7260410CF260410EFD30410DB
:1014400017C704104D25041009260410E9250410BF
:1014500051F00510F1250410C5A10510A5F40510E3
:1014600001F30510A5F60510B7F80510B7F805103B
:10147000CDF90510A5F60510A7FB0510A7FB051073
:10148000A7FB0510A9F50510BBF205107FF20510AA
:10149000CDF905103D250410452504105FFF05100A
:1014A00067FF051063FF05106D25041075250410F6
:1014B0007D2504108525041013FF051095250410C3
:1014C0009D250410A52504108D2504101BFF051073
:1014D00023FF051027FF051017FF05101FFF05103C
:1014E0006BFF0510ADFF051071DD05100000000059
:1014F000BBFF051051DC0510B9EF051045030610C0
:1015000081E405101D030610BD030610E1FF051060
:10151000F0B595B0062104A800F014FE0620694637
:1015200008730020C881AD4C08A82100342200F0C7
:1015300011FE08A800F036FE010005D0200034306E
:1015400000F066FE00F021FF1821002000F022FFCD
:10155000002805D001002000583000F059FE03E0BB
:101560002000983000F054FE07A9891C012000F0EB
:1015700015FF002805D001002000C83000F048FE0B
:1015800004E084204000201800F042FE01210020E9
:1015900000F038FF002806D001009C2040002018F1
:1015A00000F036FE04E0B6204000201800F030FEC7
:1015B00006A8009006AB9B1C07AA0021012000F0A2
:1015C00029FF04AA03A9802000F0ACFF04A8017839
:1015D00002914178019181780091C3780279417933
:1015E000C8204000201800F013FE00BF61A21321A4
:1015F000002000F044FF002806D00100EA2040004F
:10160000201800F005FE04E086208000201800F07D
:10161000FFFD03AA921C0221002000F036FF0028E3
:1016200006D0010093208000201800F0F1FD04E0B6
:10163000A4208000201800F0EBFD01250120AE4918
:10164000087001F070F8002806D00100B120800079
:10165000201800F0DDFD04E0C1208000201800F01B
:10166000D7FDA5494D700820C870102008718D70F5
:10167000002000900026A14DA85DA91949780929EC
:1016800022D0FF293CD13021AA1991700099D17044
:10169000022111718D215171832191710099D171B4
:1016A000009911720099517204A94A79AB199A7282
:1016B0000A79DA72CA781A738A785A734A789A73EE
:1016C0000978AA19D1731BE0311869180A78582AC9
:1016D00016D14A1E1378582B12D16B461B7C1B095E
:1016E0006F463F7C3F073F0F092B01DD373300E09A
:1016F00030331370092F01DD373700E030370F70BA
:101700003618761CB6B21C2EB6DB002002901020D4
:10171000019008200090002301220121012001F006
:1017200006F8002806D00100CD208000201800F027
:101730006FFD04E0DF208000201800F069FD6E4896
:10174000807800280FD0012001F038F8002806D05A
:101750000100ED208000201800F05AFD03E06848E9
:10176000201800F055FD00BF07A000F051FD15B096
:10177000F0BD00005065657220746F205065657281
:1017800020536572766572003D3D3E3E20456E6495
:1017900020424C455F496E69742066756E637469BA
:1017A0006F6E0A0080B50020009002230022002105
:1017B0005148806C01F058FC01BD80B500200090BC
:1017C0006A4600214C48806C01F0C0FC009800285B
:1017D00003D0802040054B49086001BDC0000410C3
:1017E00080B5FFF7EAFF01BD80B5FFF7E6FF01BD59
:1017F00080B501F053FDFFF7E0FF01BD80B501F0BA
:10180000A1FD01BD80B50022D2430121002001F0DD
:10181000FBFB012001F09AFD01F080FE02F036FC96
:1018200003F065F803F096F8002801D1FFF7BAFF3E
:10183000012001F08CFDE6E7FEB52F4C012003F0FE
:1018400007F921004031C860200048300190012094
:10185000009000232C4A00BF34A12C4800F0BEFFAA
:1018600003F0F4FA03F07CFB0021C943884201D164
:1018700000F08BFDFFF74CFE0027A7732448A081E2
:10188000200050300190012000900023C82200BFAA
:1018900029A1204800F0A2FF1F48A0611F48206333
:1018A0001FA6300000F0B4FC1E4D280000F0B0FC74
:1018B00003F0D4FB2800283000F0AAFC300000F030
:1018C000A7FC062003F052FC002805D001002800E8
:1018D000583000F09DFC03E028009C3000F098FC9C
:1018E000012000F0D5FA10492000103002F044F831
:1018F00040202754F7BD000048320020940100200A
:101900000C04000004ED00E08A0200000518041039
:10191000FFFF000049200410712004108F200410E4
:101920000A0000001405041060EA0000424C455310
:101930005441434B000000004144565F43414E4335
:10194000454C0000FEB505002878042802D0822806
:1019500002D0F7BDEF1C00E02F1D6978BA4EBB4CDA
:10196000052908D0102900D19CE13E2930D0FF295B
:1019700000D1EFE0A2E1287969790906090C084352
:10198000B189884210D1CF48B0810020B0732000C7
:1019900000F03EFC297968790006000C0143AA7921
:1019A00020002C3000F034FC00F030FBC648012150
:1019B000017029796A791206120C1143418003F0F3
:1019C0003CFB012000F064FAC04930001030E7E031
:1019D000E978012900D19DE0032906D00A2900D128
:1019E00089E00C2900D183E0B2E020006C3000F0E7
:1019F0000FFCE879297A0906090C084303F0BEFBBD
:101A00000022B34B03F0D4FB002280235B0303F0DE
:101A100091FCE879297A21D80906090C0843EE7966
:101A2000297A0906090C0E4303F0A8FB0022A84BF3
:101A300003F0BEFB00900191300003F09FFB0022F9
:101A4000A34B03F0B5FB03F08FFC03F0A7FB0200F0
:101A50000B000098019903F013FD1EE00906090C24
:101A60000843EE79297A0906090C0E4303F086FB38
:101A70000022974B03F09CFB03F076FC03F08EFBF7
:101A800000900191300003F079FB0022914B03F0AC
:101A90008FFB009A019B03F090FC00228E4B03F019
:101AA00087FB03F061FCEA7A297B0906090C0A43EB
:101AB0006B7AA97A0906090C0B43E9792E7A360666
:101AC000360C31430A255543009506001D000800D9
:101AD00003F054FB00227E4B03F06AFB03F044FC4E
:101AE00001002B0032002000A03000F091FBF7BD78
:101AF00000F08CFAF7BDE87F6D1CE97F6D1E0906CA
:101B0000090C08436A7FA97F0906090C0A43EB7E8A
:101B1000297F0BE0E87C297D0906090C08436A7CD3
:101B2000A97C0906090C0A43EB7B297C0906090CF0
:101B30000B436979AC792406240C2143029001926D
:101B400000932B0009332A7A287900F019F9F7BDA0
:101B500062A0B4E0387879780906090C0843001FC0
:101B600014D0C049401A57D0401E1FD0401F0AD081
:101B7000801E2DD0401E16D0C91F401A12D023310E
:101B8000401A65D087E08820400043E0012003F040
:101B900035FD3000283001F012FF052130002830DB
:101BA00001F0EAFEF7BD9C20400033E0B420400085
:101BB000201800F02DFBAC49B08900F0C6FD0028CC
:101BC00003D00100C820400020E0E220400021E0D6
:101BD000F6204000201800F01BFB381D03F016FE15
:101BE000010000BF44A000F013FB381D03F00EFEFF
:101BF000010000BF47A000F00BFB0121B08900F0FD
:101C0000A8FD002804D0010088208000201856E09C
:101C10009B208000201813E0AB208000201800F0EB
:101C2000F7FA3979002906D07A79B6208000201891
:101C300000F0EEFA03E000BF3CA000F0E9FA8BA050
:101C400000F0E6FAF7BD00BF48320020E8050410B6
:101C5000C6208000201800F0DBFAB979F879000678
:101C6000000C014337A000F0D3FABA79F8790006E6
:101C7000000C0243397978790006000C0143B878EA
:101C8000FB781B061B0C18430023019300930823C9
:101C900000F080FDF7BD397878780006000C01432C
:101CA0002CA00CE0E87804280BDABFF34F8F7048C3
:101CB00070490860BFF34F8F00BFFDE72BA000F015
:101CC000A7FAF7BDFFFF00004435002060EA0000DE
:101CD0000000F43F0000F4BF000059404843495F52
:101CE0004C455F4D4554415F4556543A2030782568
:101CF0003032580A0000000020202020202D206EC5
:101D0000756D657269635F76616C7565203D202530
:101D1000640A000020202020202D204865785F766E
:101D2000616C7565203D2025780A00002020202068
:101D3000202D2050616972696E6720537563636559
:101D400073730A0048616E646C6520307825303406
:101D5000580A00004843495F56454E444F525F457C
:101D600056543A203078253034580A004843495FA9
:101D70004556454E543A203078253032580A0000F6
:101D8000F8B588B04D4C0025020005D001003A4856
:101D900000F03EFAA57362E00E9F1E006846818146
:101DA000364800F035FA3078029070780190B078BB
:101DB0000090F37832797179314800F029FA3800CF
:101DC00003F0DCF906AA03C206A80CC800202D49BE
:101DD00003F0EEF906000F0003F0C6FA019003F0DD
:101DE000DDF904AA03C230003900002280235B031E
:101DF00003F0A0FA04D804AA0CCA03F041FB09E0DE
:101E000006A80CC80020204903F0D2F904AA0CCA85
:101E100003F0D3FA00221D4B03F0CAF903F0A4FA31
:101E2000020010980F9B0A214143009101997648C6
:101E300000F0EEF9A07B012801D1032000E0022090
:101E4000A07368468089A0817748057069468989B2
:101E5000418003F0F2F82000103001F0B0FD09B02D
:101E6000F0BD0000FD03000007B201000A00000001
:101E70000400FA050CED00E0240904105C090410CC
:101E8000A00904100000F43F0000F4BF0000594016
:101E9000F1B58EB080200B90A027744C0020074D28
:101EA0000EAA1278052A4DD801A39B5C9F4400BF5F
:101EB00010061E94347204264DE000BF4832002004
:101EC000C820C0000B90FA273F01052643E00026FA
:101ED00000220021002003F0A4FC010000D188E0D2
:101EE00099201AE0C827BF000B970026FA21490065
:101EF0004022AA5C002A12D028270B974022A8541F
:101F000089B20091B3B23A000B9989B2A88900F066
:101F10004EFC002870D00100AD20800063E001205D
:101F2000ECE71321A88900F0FAFB002803D0010098
:101F300020005C3058E02000883000F069F900F0A3
:101F400075F85EE00EA80078012804D9801EBFD085
:101F5000801ED5D055E006210CA800F0F3F8002033
:101F60000A90099001200890002007900120069017
:101F700000200590049003900290072001900097A4
:101F80000B9B13220221002003F04FFC002806D0F7
:101F900001008A204000201800F03AF905E0AE73F5
:101FA000AC204000201800F033F95C4B1C220321C8
:101FB000002003F06FFC002806D00100C82040007C
:101FC000201800F025F904E0E6204000201800F079
:101FD0001FF90CAA0121012003F023FC002806D0E0
:101FE0000100FC204000201800F012F909E08D20CB
:101FF00003E0AE73A42000E0BE208000201800F0B3
:1020000007F90FB0F0BD0000E4090410444800686F
:10201000002800D1704780B50021009102230022E2
:1020200001F022F801BD00004435002080B500F029
:10203000A0FF0022D2430121002000F0E5FF002094
:102040003749086001BD000010B5364C0022D2436C
:102050000121002000F0D8FF012003F0D3FA022074
:10206000FFF716FF0020A073F0E70000540A0410E9
:1020700080B500BF2FA000F0CBF800200090022315
:10208000002200212748006D00F0EEFF01BD80B561
:10209000012003F0B7FA01BD1CB5224CA07B00283B
:1020A00008D10120FFF7F4FE1F492000103001F095
:1020B00063FC13BD022808D10020009002230022F7
:1020C00000211A48006800F0CFFF13BD10B5154C71
:1020D000A07B02280ED000F040FB154A002804D057
:1020E0000100100000F094F810BD1000383000F02E
:1020F0008FF810BD0120FFF7CBFE0B4920001030F8
:1021000001F03AFC10BD0748807B022800D07047E0
:1021100080B50420FFF7BCFE01BD00009401002043
:10212000483500204832002060EA00000C350020CD
:10213000880D04104164765F43616E63656C5F5285
:1021400065710A00002200BF094202D0491E4254B4
:10215000FCD1704770B4103A03D378C9103A78C0F4
:10216000FBD2530701D318C918C001D508C908C04C
:10217000D20704D30B880380891C801C002A01D558
:102180000B78037070BC70478B0701D18307E1D0D7
:10219000124205D00B78491C0370401C521EF9D125
:1021A00070474300B0B50546C07A1224802829D86C
:1021B000298C172926D31448821D914222D8298AB6
:1021C00017291FD381421DD8A87E00281AD003F0FA
:1021D00065FB002808D0E87E002813D0802811D89D
:1021E000287F401E0E280DD808483422294603F0C7
:1021F00057FB03F0C1FB002803D403F033FE002497
:1022000000E087242046B0BDFA03000030340020EF
:102210000EB4C0B5020003A801900020009001ABED
:102220000121044878440C3003F086FE029906B080
:10223000084700BFE9CF010081B0314901E081B01A
:1022400030490A6802430A60096808400090009813
:1022500001B070477CB504F07DFE00F05DF800F041
:1022600081F80820FFF7E8FF0420FFF7E5FF01F001
:102270006FF800BF46A000680090234C206A01253B
:10228000ED430126304008D12068304320602068AB
:10229000284020600120FFF7D2FFC020C005009039
:1022A000684604F069FE68460021002206C0206AE4
:1022B000304008D12068064326602068054025602C
:1022C0000120FFF7BCFF114800681028FBD36846C7
:1022D000A0214900018000218170019101F081F865
:1022E0000B480C49016005F005F8002801D000F00A
:1022F0004CF8002005F06CF805F0AAFAFEE70000A3
:1023000050004048600040484000404810180060BD
:10231000F83400200000304880B588B0182102A8A9
:10232000FFF710FF68460021002206C0032002903C
:102330008020400203901020059002A805F034FB95
:10234000002801D000F021F800200090202001900A
:102350000021684605F050FC002801D000F015F877
:1023600009B000BD80B586B018216846FFF7EAFEC7
:1023700002200090C0020590684605F0D3FC0028BA
:1023800001D000F002F807B000BD72B6FEE7000011
:102390000000000080B505F067FD80BDF8B50600BF
:1023A0000F0000203880154C200000F0DAF9010001
:1023B00023D1200000F0D9F90400114DF00705D514
:1023C0002100280000F0D5F9010016D1280000F006
:1023D000D4F9388021002800243000F0CAF9010027
:1023E0000BD121002800483000F0C3F9010004D1CE
:1023F000210028006C3000F0BCF9F2BDBC020020C6
:10240000440E041080B5022801D9122080BD05F0C9
:102410004FFD80BDFEB50C00089F00251580029978
:102420000D803D800521014027D0394E300000F05D
:1024300098F9010022D168460470364C200000F063
:102440009CF9019908802000243000F096F9029947
:102450000880300000F089F93D806946097802293A
:1024600006D1010020006C3000F083F9010005D195
:102470002AA20821002000F002F80020FEBD70B55D
:1024800004000D001600234804E070B504000D00A0
:102490001600214800F071F933002A002100401C89
:1024A00080B200F001F870BDF3B581B017001D00D7
:1024B0000024184E6946088024206043301800F03C
:1024C0005CF9002804D0401C69460988884202D083
:1024D000641C052CF0D3052C0BD0684603892420FE
:1024E00044433419206A8188DA19914201DB0028BB
:1024F00001D11220FEBD29003A008068C018FFF704
:1025000043FE206A0178890700D547800020FEBD80
:1025100078020020C4010020E801002053544D330C
:102520003257423080B505F01DFD80BD80B505F005
:102530008FFD01BD80B505F0B1FD01BD80B505F091
:10254000D5FD02BD80B505F0FBFD02BD80B505F0EF
:1025500027FE01BD80B505F08DFE02BD80B505F0FA
:102560008BFE02BD80B505F089FE02BD80B505F089
:10257000A1FE02BD80B505F0CFFE02BD80B505F01D
:10258000E7FE02BD80B505F0FFFE02BD80B505F097
:102590003BFF02BD80B505F07DFF02BD80B505F0B3
:1025A000A9FF02BD80B505F0C3FF02BD80B505F0EF
:1025B000DBFF02BD80B506F011F802BD80B506F064
:1025C0000FF801BD80B506F023F801BD80B506F017
:1025D0005FF802BD1CB56C46247D01946C46247CDA
:1025E000009406F0ABF813BD80B506F057F901BDB5
:1025F00080B506F06FF901BD80B506F087F901BD21
:1026000080B506F0DBF901BD80B506F031FA01BDF9
:1026100080B506F0BDFA02BD80B506F009FB01BD2C
:1026200080B506F00DFB02BD80B506F013FB02BDC0
:1026300080B506F02DFB01BD80B506F0A3FB02BD01
:1026400080B506F0E7FB02BD18B587B010AC247862
:1026500006940FAC247805940EAC247804940DAC49
:10266000247803940CAC247802940BAC2478019465
:102670000AAC2478009406F005FC08B010BD80B5C3
:1026800006F02EFC01BD80B506F044FC01BD80B50E
:1026900006F05EFC01BD80B506F0A4FC01BD80B56E
:1026A00006F0C0FC02BD80B506F0D8FC02BD80B5C6
:1026B00006F002FD01BD80B506F038FD01BD80B514
:1026C00006F016FE01BD80B506F02AFE01BD80B5FC
:1026D00006F02AFE01BD80B506F0ECFE02BD80B515
:1026E00006F03EFF02BD80B506F066FF01BD80B575
:1026F00006F0B0FF01BD80B507F010F801BD80B550
:1027000007F01EF801BD80B507F03CF801BD80B5AB
:1027100007F05CF801BD80B507F012F901BD80B586
:1027200007F024F902BD80B507F024F902BD1FB5FA
:1027300008AC247802946C46247F01946C46247E75
:10274000009407F01FF904B010BD80B507F05EF9E2
:1027500002BD80B507F066F902BD80B507F06AF9E1
:1027600002BD80B507F06BF902BD80B507F06BF9CB
:1027700002BD80B507F06BF902BD80B507F06BF9BB
:1027800002BD1CB5059C01946C46248A009407F098
:1027900066F916BD1CB5059C01946C46248A00940C
:1027A00007F06CF916BD80B507F071F902BD1CB5D4
:1027B0006C46248A009407F06EF916BDE0B501A9B5
:1027C000087001220846114607F072F9002800D06F
:1027D0008CBD01A8007807F089F98CBDF7B586B0EB
:1027E0001C00900007F09EF905000026002D4AD03D
:1027F000582007F097F9070042D00494069C58210E
:10280000FFF7A0FC3D63039602970F9801900E9886
:102810000090049B6846028C0799200000F068F83D
:1028200007F07EFA534CA06E401CA066524D606EBD
:1028300000282CD16766A06E012831D11420704386
:10284000201807F09DFA761C052EF7D32800583083
:1028500007F096FA28006C3007F092FA280007F08B
:102860008FFA2800143007F08BFA2800283007F080
:1028700087FA28005830E86328006C3028640FE09D
:10288000280007F0D1F90020C04309B0F0BDA86CC2
:10289000002805D1F86A616EC96A884200D367666C
:1028A000686D401C3864F96A226F8A4200D2216741
:1028B00014225143221D5258BA609368FB603B1D9D
:1028C000966873609360611879610A68521C0A60A7
:1028D000686507F031FAA86C002806D0606EC06AFF
:1028E000F96A884201D207F015FA0120CDE700000D
:1028F000F9B581B00E0015000A9CA522A900206B35
:10290000FFF722FC206BA90045182D1F07208543E7
:102910006807002E0FD0002100963427009A521825
:1029200013786618F3551278002A02D0491C0C2936
:10293000F4D33F216054089E052E01D372B6FEE702
:10294000099FE662A664201D07F029FA20001830CE
:1029500007F025FA24610520801BA0616462029AB9
:102960000199280007F0A8F92060002F00D03C60F2
:10297000F7BD0000600300206C3000201CB5164C31
:102980002000843001900020009000238C2200BFA2
:102990000CA16E48FFF722FF012801D107F030FAA1
:1029A0000021C943012809D172B6A167154988647D
:1029B0000020E06607F098F9E06F13BD8842FBD174
:1029C00072B6FEE749444C450000000060480168CB
:1029D000491C0160704700006003002000200021B6
:1029E0005C4A136F002B00D00121536EDB6A002B71
:1029F00007D11368012B04D8002902D1906FD16E42
:102A0000401A70476C300020F8B500240094504DF7
:102A10002868002801D172B6FEE707F081F928681E
:102A2000401E28602868002863D14A48806E00282C
:102A30005FD00020474D002740E0E068C068816A11
:102A4000026AC3699A60C269036A5A604A680300ED
:102A500018339A4201D1026A4A6087620A68521E9C
:102A60000A604169C26883689A608268C3685A6074
:102A70004A68031D9A4201D1C2684A6047610A68E8
:102A8000521E0A60C16A2A6F8A4200D22967142244
:102A900051432A1D525882609368C360031D946895
:102AA00063609360691841610A68521C0A60696E2C
:102AB000C96AC26A914201D201216967884C2168C2
:102AC0000029BAD1002801D000F045FAE66C002EAA
:102AD00008D000F041F8002801D001206867761E78
:102AE000F7D1E764686F002803D00120009007F059
:102AF00011F907F021F90098F2BD1648C06E704731
:102B000038B50400134DA86FE96E0919884201D247
:102B100072B6FEE7E86E0019A96F884212D18020D4
:102B20002858002801D172B6FEE7002C01D172B6F8
:102B3000FEE707F0F5F86A48C16C491CC16407F06C
:102B4000FBF8641EE86E0019E86631BDA52E04107E
:102B5000E003002060030020F8B50026AB4D802084
:102B6000285800287BD1EC6E641CEC6610D15C48C0
:102B7000C06B0068002801D072B6FEE75849C86BE8
:102B80000A6CCA630864086D401C086500F0E3F92C
:102B9000A86F844254D3002149E0D06BC068C0685C
:102BA0004268944259D34269C3688668B3608368B7
:102BB000C66873605368061DB34201D1C368536091
:102BC000002343611668761E1660826A002A10D0C0
:102BD000066AC769BE60C669076A7E6056680700F4
:102BE0001837BE4201D1066A5660836213685B1EC5
:102BF0001360C26A2B6F934200D22A6714235A4390
:102C000000922A1D009BD25882609368C360031D06
:102C1000966873609360009AAA18426113685B1CFF
:102C200013606A6ED26AC06A824200D201212C4AC5
:102C3000D06B00680028B0D10020C043A8670E0008
:102C4000686EC06A142148432858022800D3012620
:102C5000686F002807D0012605E0AA67EFE7204843
:102C6000C16C491CC1643000F2BD000010B5674C56
:102C700080202058002802D00120606710BD6067C6
:102C8000606E006B664902688A4208D142688A42D7
:102C900005D182688A4202D1C068884205D0606E40
:102CA00001003431606E04F03DFC206F00E0401EF6
:102CB0001421414361180A68002A03D10028F6D183
:102CC00072B6FEE74A6852684A600B0008339A42BF
:102CD00001D1CA684A604968C9686166206710BD49
:102CE0006C30002010B50C00002801D172B6FEE750
:102CF0004649496E183107F055F80121200000F0CF
:102D00008FFA10BD70B50B001100002801D172B60A
:102D1000FEE742683D4C656EEA619568666E356215
:102D2000656E183596687560656E18359560626ECB
:102D300090620268521C0260002901D00023DB432C
:102D4000180000F06DFA70BD70B5C068C668002E3E
:102D500001D172B6FEE7B06A316AF2699160F16939
:102D6000326A5160416832001832914201D1316AB1
:102D700041600024B4620168491E0160234D802037
:102D80002858002828D17069F168B2689160B1684C
:102D9000F26851604168321D914201D1F168416091
:102DA00074610168491E0160F06A296F814200D296
:102DB000286714214843291D0958B1608A68F260C8
:102DC000321D8B685A608A60281870610168491C3E
:102DD000016000F0C0F80FE058484168F1618A686E
:102DE0003262320018328B685A60320018328A60C0
:102DF000B0620168491C0160686EC06AF16A88426D
:102E000002D20120686770BD002070BD6003002001
:102E10004A49096D01604A49C96E41607047000026
:102E2000A5A5A5A5F8B584B00500002D01D172B601
:102E3000FEE70091002901D172B6FEE706F070FFAF
:102E40003F48C16E0391696802910399029A891AF9
:102E5000019100990A6800210023DB439A4213D0B4
:102E600001244C4B1E6D2F68BE4203D0039E029F6F
:102E7000BE420BD2019E964208D2921B009C226059
:102E80001A6D2A60C06E6860002401E0009801603D
:102E900006F052FF200005B0F0BD01203E49486712
:102EA00070470000F8B5264C27008037394D11E0F7
:102EB00006F036FF286AC668301D06F08DFFA06E4A
:102EC000401EA066686C401E686406F035FF300046
:102ED00000F038F8686C0028EAD12068012801D990
:102EE00006F018FFFFF77AFD0128F3D93868401C77
:102EF0003860A06FE16E884208D3FFF76FFD0128AC
:102F000001D904F0FBFCFFF77FFDE3E772B6FEE7B3
:102F100001200A490A68002A06D11F4A536F002B74
:102F200002D1CB6C002B01D000207047896A491C6C
:102F3000926E914200D10220704700006C30002058
:102F40006003002010B50400206B06F06DFE200029
:102F500006F06AFE10BD0F48C26B0F491268002AC6
:102F600002D10020C04302E0C06BC06800688867DF
:102F700070470948406E70470648806C002801D1B0
:102F80000120704737480068002801D102207047AF
:102F9000002070476C3000206003002038B504002A
:102FA0000020002C2FD0684D696E8C4201D072B683
:102FB000FEE7E16C002901D172B6FEE7491EE1642B
:102FC000E26AA36C9A421ED000291CD1201D06F093
:102FD00003FFA06CE0620521091AA161296F8142FB
:102FE00000D2286714214843291D0958A1608A6826
:102FF000E260221D8B685A608A602818606101684F
:10300000491C0160012032BD70B50C00160000287B
:1030100001D072B6FEE706F083FE4B4D686E006D80
:1030200000280AD1300001216A6E5423D1540028AF
:1030300003D000F0F5F806F06DFE06F07DFE06F018
:103040006FFE686E066D0020002E07D0002C02D0A7
:10305000696E086502E0711E6A6E1165696E542220
:103060008854D9E0E0030020F4B51F0001240029B2
:1030700001D072B6FEE70500002D01D172B6FEE761
:10308000069E06F04DFE002E01D0286D30605420C3
:10309000285C02215422A9542B4E0021009A002FB3
:1030A00009D0022F37D003D3042F37D002D339E011
:1030B0002B6D1A432A65012842D16869EA68AB681A
:1030C0009A60AA68EB685A6042682B1D9A4201D147
:1030D000EA68426069610168491E0160E86A316F0F
:1030E000814200D23067311D142250430858A86035
:1030F0008168E960291D826851608160E86A142155
:103100004843301868610168491C0160A86A0028BA
:103110000DD072B6FEE72A6D521CCBE70228C9D14A
:1031200000240DE0F26E002AC5D072B6FEE7FFF76C
:1031300012FF706EC06AE96A884201D206F0EAFDA9
:1031400006F0FAFD2000F2BD60030020F8B504008F
:103150001500002C01D172B6FEE7002901D072B62D
:10316000FEE706F0D3FF5421615C02225423E254AF
:10317000226D521C226501294BD1A16A002901D080
:1031800072B6FEE7434980228A58002A27D1626935
:10319000E368A668B360A368E66873605368261D99
:1031A000B34201D1E36853600023636113685B1E7F
:1031B0001360E26A0B6F934200D20A670B1D14265C
:1031C00072439A58A2609368E360231D9668736007
:1031D0009360E26A14235A438A1862610CE02E4A13
:1031E0005368E3619E682662260018369F687E60F9
:1031F000260018369E60A26213685B1C13604A6E3C
:10320000D26AE36A9A4204D20122002D00D02A60D9
:103210004A6706F07FFFF1BD06F08EFD300070BDFD
:10322000F8B504000E001B4DEF6E686E001D06F031
:10323000D3FD19480021C9438C4216D1002E14D069
:10324000C16A6A6E91608A686B6EDA606A6E121D7E
:103250008B685A606A6E121D8A60010028316A6E9E
:103260005161816A491C8162F1BD3C19696E4C60F3
:10327000BC42696E04D2091D006C06F093FDF1BDDD
:10328000091DC06B06F08EFDA86F844200D2AC67AA
:10329000F1BD0000600300206C300020F0B581B06B
:1032A00025490C680025657406F03AFF234E306806
:1032B000C06807F049F9002801D0042723E03068EE
:1032C000C06807F02BF9002801D001271BE0306807
:1032D000C06807F027F9002801D0022713E0306802
:1032E000C06807F039F9052700280CD13068C0689C
:1032F00007F036F9002806D13068C06807F0FEF8FC
:1033000000282F460BD00120B8400D4909680A68F3
:1033100002430A60002007F087FB07F097FB607C00
:10332000012807D1217B0F200840A268090907F076
:103330008EFB657401B0F0BD6C3500207035002047
:103340005C35002080B507F083FB80BD7047704777
:103350007047830085000700070083008500050093
:103360000700030003000F00050082008100050034
:10337000010005D40121C006C00E814066480160ED
:103380007047C1680322914302220A43C26070471A
:1033900009E0C0688007800F022801D10120704732
:1033A0000020704700BFC16803229143C16070478D
:1033B0000161704700697047816AC04A0A408262B1
:1033C0007047816A4800C00F704700697047816A82
:1033D000802292050A438262704780687047C06805
:1033E0007047F1B50127B648C06B3843B449C8638C
:1033F0000846806B384388631720FFF7B9FF142015
:10340000FFF7B6FF00984068002800D00120AD4CBF
:1034100020700025000603D100988078002813D082
:10342000A948C1683940FBD017210160C168394300
:10343000C1604560C1683940FCD02000103000F008
:103440002BFBE069206209E0C82040032062E061B4
:10345000AD48A061AD482061AD486061009840680A
:10346000002802D1A020C0050DE000030A2107F0CA
:1034700019FB6060A74E300000F060FA0100606840
:10348000884202D3300000F059FA6060257300983A
:103490000088A14E3060A16900F07FFB00208C21E4
:1034A000605400213200083203C285480068306150
:1034B00000203200183203C230216054974AA169BB
:1034C000606807F00BFBA060207821008C31087445
:1034D00020008C30856020008C30077321008C31F7
:1034E0004D7321008C31CD81200061300570457015
:1034F0008570A565E5658A48A064656500F025FAD4
:103500006268002312184B412000403000F072FB2B
:10351000012000F0EDFAF1BD00E100E0F8B58CB05B
:10352000002069460870674F38009930019028E004
:10353000401C1CE0046905738168002900D088479D
:103540002000F7D169469420385800F0D7FB942129
:1035500078506846007801280DD1EFF3108172B6DB
:1035600001980078421C019B5B789A42E0D1019A55
:10357000107081F3108801984078049940180199DF
:10358000487001984078019909780A1A02D280207F
:10359000400012180026002A29D0049294203C589A
:1035A00003940294002502E0260024696D1C002C7F
:1035B0000FD0207B0028F7D000F0C7F902000B00E5
:1035C00003CC083C801A99410029EDDB01DC062878
:1035D000EAD328000025002802D03561039400E0DA
:1035E000029503989421785002980028A9E7387B27
:1035F000002847D0A2480068012420405BD03E73D9
:10360000A048C178002904D18178002901D08670B2
:1036100026E0387800281CD002A800F03DFA049972
:10362000B86E80B200F0B9FAEFF3108572B63020B0
:103630003C54039878610498B86102983861059801
:10364000F86100F0C5FB85F31088002000F050FA07
:1036500006E0EFF3108472B600F0BAFB84F3108832
:10366000012000F0FFFB3800403000F0A8F900F026
:103670006CF97A68002312184B413800403000F092
:10368000B9FA18E03878002815D000F05EF93A6FE2
:103690007B6FFA2464030025A4185D418D420AD88B
:1036A00001D3844207D23800403000F088F9380056
:1036B000403000F083FA0DB0F0BD0000FFFFFFBF07
:1036C00010180060382F002004100060F8B50400C6
:1036D00088480668EFF3108572B600F0CFFA864F7F
:1036E0003B00803303CB083B03C4083C9A4AF9698A
:1036F0009868801B07F0F2F9020085F3108803CC6C
:103700000023801A9941F4BDC2F528008D5B0000AA
:10371000ECEB6501FFEFFFFFA02F00202603000068
:10372000BD3B0410F8B586B0734D28008C30407B4B
:1037300029008C31897B88422FD1287B00282CD10D
:10374000032400F002F904AA03C202A800F059FC05
:10375000290061316122AA5C002A02D14A78002A3C
:1037600001D0012802D18978002918D0AA6DEB6D0B
:1037700004A803C88C242E5D002736184F41A86E7C
:103780000021801979410024523061418B4227D3B6
:1037900001D8824224D3022405E0002039E0022827
:1037A0001ED001281CD06D4B9A68002A30D0107BA7
:1037B00000282DD003CA083A0090019104A803C83C
:1037C00006000F00A86E00218019794100265230B2
:1037D0007141009E019F8F4204D801D3864201D2DD
:1037E000012016E0032C12D1106900280FD1280007
:1037F000403082420BD10120D873002000F0CCFA77
:1038000088480168954A0A400260032001E00224CA
:10381000200007B0F0BDF8B50B0000D00123364EF4
:10382000350058352B73110000D001212972002476
:103830006C72EC720121A972EFF3108772B600F07E
:103840000FF903C5083D02460B462800283003C87F
:10385000121A8B418D48A34201D8824204D3AC7224
:1038600087F310880120F2BD002000F0FBFA04006D
:1038700087F31088012000F08FFA2000F2BD0000CD
:1038800010100060D12F002070B50320C043814983
:103890000A6802400A600A6810400860204801680F
:1038A0006E4A0A400260144C2000583000254572D0
:1038B0004581EFF3108672B600F047F8A26DE36D14
:1038C000121A8B418C20205C0021121A8B4186F346
:1038D0001088002B04DC01DB012A01D2012070BD1D
:1038E000002B04DC01DB0F2A01D2022070BD002076
:1038F00070BD000014000060382F0020EFF310802E
:1039000072B663490968634A091D5160116803234F
:10391000994302230B43136080F310887047000023
:10392000281800607047B14801006131002261230E
:10393000C05C002800D00A708A70704780B5064AC3
:10394000AA49C96907F0CAF802BD80B500F096F926
:10395000A74803C804BD000035060000C42F00209E
:1039600000B5801A99410A22002307F0D9F8000B0C
:103970000A051043090B00BDF8B504000D00FFF760
:10398000E4FF06000F00290D28030A22002307F098
:10399000E0F88019794102000B00200000F02AF9BC
:1039A0000400012000F0F8F9E0B2F2BD10B500F01B
:1039B00021F90400012000F0EFF9E0B210BDF8B5E4
:1039C000AC4C21680E00002300250A0001E0350000
:1039D0003669002E07D08642F9D137698E4201D16F
:1039E0003A0000E02F616D462B700373206890420F
:1039F00015D06946100000F081F920606846007813
:103A000000280DD0EFF3108072B661794A1CA379BB
:103A10009A4200D0491C617180F31088F1BD226088
:103A2000F1BD00003018006018B50020009000982B
:103A300091480168094A0A400260AD490A78531C5E
:103A40004C78A34200D0521C0A700121C2690A437B
:103A5000C261C0690140009111BD0000FFFFFFBFBE
:103A600010B5040000F00AF9614803C80A00844256
:103A700000D2521C1100200010BD9E488168012216
:103A80000A438260002101607047000066FEFFFF6C
:103A9000101800600C00006070B50400964D2800FE
:103AA000FFF79BFC06002800FFF797FC8642F6D143
:103AB000002EF4D0B74932124A43F3B24B431912E5
:103AC000511810314911E16026602800FFF787FC8A
:103AD00006002800FFF783FC8642F6D1002EF4D0C2
:103AE000B011B849484380300012A060666070BDD4
:103AF000F8B50700B44D687A7D214843C90006F047
:103B0000BDFF461CF6B2394CB04AA1691B2006F035
:103B1000E5FF2870687800F02AF83D216054E878C5
:103B2000801900F024F8382160542879801900F0B9
:103B30001EF839216054687900F019F83A21605470
:103B4000A87900F014F83B216054002F06D0E878E3
:103B5000801900F004F81B303C216054F1BD68214D
:103B60004143090ADB225043000C0818704700B596
:103B700002001E4840690021002306F0D1FF032205
:103B8000002306F0CDFF8022D204002312184B41FF
:103B9000D20E58010243100000BD80B58B4A06F0DA
:103BA0009DFFAB49884201DD080002E0102800DAE1
:103BB00010200005000EA749086001BD10B5A64CF5
:103BC000207B002806D12078002801D0FFF755FF80
:103BD00001202073FFF7B9FE00226430514102003A
:103BE0000B002000403000F005F810BD382F0020F9
:103BF000B82F0020FEB500256C462570017B0029FA
:103C000001D00120FEBD0CC0083801210173194C00
:103C100026680196070001E035003669002E08D0BD
:103C20000CCE083E03CF083F8B42F5D301D8824229
:103C3000F2D338000661002D01D1019000E0286127
:103C40000199814213D1694600F058F82060684616
:103C5000007800280BD0EFF3108072B661794A1C0F
:103C6000A3799A4200D0491C617180F3108868469C
:103C70000078FEBDCC2F002030180060F8B584B06D
:103C8000EFF3108672B6744C206F616F02AA03C204
:103C90007248FFF79AFB030027008037BB60704D26
:103CA00002A803C8009001912A00E169A06F181AC8
:103CB00006F014FF0021009A019B801859410CCF97
:103CC000083F99420FD801D390420CD20090019145
:103CD0002A00E1690020C04306F000FF0021009A9D
:103CE000019B8018594103C786F3108805B0F0BDC9
:103CF000D12F00200810006000100060F1B584B0E2
:103D00000F0004460020387000E02469002C3ED0EB
:103D1000207B0028F9D0EFF31080009072B6FFF7F7
:103D2000ADFF4D4D03CC083C2A0080320CCA801AEE
:103D3000994102AA03C202A803C800291DDB01DCC5
:103D400001281AD3214AAB6902A803C8190006F05A
:103D5000C5FE0500202D00D82025C64E3000FFF7F7
:103D600034FB40190830F0623000FFF730FB306B55
:103D70008021C9050143316301E0012038700098BA
:103D800080F310883878002801D0049800E02000E3
:103D900005B0F0BDF6BC080010B5B7490C0098346A
:103DA000002808D0207800280BD108004030FFF709
:103DB00005FF012004E008004030FFF700FE00206E
:103DC000207010BD53070000C5000020260300002E
:103DD00070B52248FFF7F9FA1F4C25008035A8601E
:103DE0001F4E3200216AA36FC01A06F077FE226FC1
:103DF000636F00218018594120676167207800288F
:103E000013D1A868A16F401AA16888420DD2320070
:103E1000216A0020C04306F061FE0200206F616F3E
:103E2000002312184B4122676367206F616F03C53F
:103E3000083DA868A067226F0B46606800218018C3
:103E400059412200283203C2E069206270BD00009F
:103E5000FF0F000008180060382F002000180060D5
:103E600035060000F0B585B000216A461170824C1D
:103E700025006035A978002900D1BEE0EFF310815C
:103E8000049172B6012801D1FFF7F8FE2000283016
:103E9000C0C8A26DE36DC82080020021801979415D
:103EA0008B4210D301D882420DD3B9225200002395
:103EB00092197B412800203003C88B4201D802D3DD
:103EC000824200D396E02800203003C800220A3046
:103ED0005141A26DE36D00264C3AB341994201D89D
:103EE00002D3904200D381E03C20275C6020205C1C
:103EF0002979012905D1002801D0382006E0392090
:103F000004E0002801D03A2000E03B20205C019032
:103F1000A26D2800203003C8101A0390574AA169E7
:103F2000039806F0DBFD0290A86A524EA968791842
:103F3000C831039A914202991ED2514A1278891AC5
:103F4000019A8F1AC0197062B06A07218843B06263
:103F5000C020C005FFF71CFAC020C005FFF722FAF9
:103F6000B06A8021C9050143B1623000FFF72FFA22
:103F700001984349097813E03D22A25C891A019A0D
:103F80008F1AC119C020C005FFF712FA3000FFF7E1
:103F900013FAC020C005FFF7F4F901983D21615CD8
:103FA0004018A96A029A891822008C3251603A1886
:103FB000411D8A420ED2C024E4052000FFF7E8F933
:103FC0002000FFF7EFF93000FFF7F6F9012069460E
:103FD000087005E02B4AE16906F080FD8C216054F1
:103FE0000020A87001206870E87003E0AE70012026
:103FF00069460870049880F310886846007805B018
:10400000F0BD38B504001B4D2800FFF7DAF9002891
:1040100003D0686A2060032032BDC025ED0528006A
:10402000FFF7B7F9002805D02800FFF7C3F9206093
:10403000012032BDE8688007800F032805D12800E1
:10404000FFF7B8F92060022032BD002032BD80B5F4
:10405000FFF7EAFCFDF7C8FB01BD81B0002000902E
:1040600000980948016801220A4302600068009034
:1040700001B0704700180060382F002026030000B0
:10408000C5000020350600007400006080B50020E7
:1040900006F09EFD80BD0300FFFFFFFFFFFFFFFF57
:1040A000FFFFFFFFFFFF010000000000FFFF010016
:1040B0000000FFFF01680022028142818281827339
:1040C0000B78FF2B05D0FE2B09D103895B1C0381E4
:1040D0000AE04268511A091F818100207047002BB5
:1040E0000DD143895B1C43814A88D21C03231343AF
:1040F0005B1CC9184A1D43689A42E1D3EDE70320CF
:104100007047F3B5079C0899250005D06D466C8073
:10411000FE242C706C4600E0446885684668AE4218
:1041200017D22678FF2E14D0067B002E04D000264E
:1041300006732678002E0ED146686488E41C032797
:1041400027437F1CF4194460AC4202D22678FF2E2C
:10415000EFD10420F6BDFE2E01D00320F6BD6E4641
:104160003679FF2E04D066786F463F79BE42E3D1A0
:104170004068001D106060881880002901D06078B8
:1041800008700020F6BD7FB515001C00099E0022B6
:1041900032800B9A01926A46128D009202AB03AAFA
:1041A000FFF7AFFF010013D1694609898D4201D3A2
:1041B00006200DE0089A481B904200DA0200200019
:1041C00003994919FDF7E0FF684600893080002017
:1041D00004B070BDFEB5BB4D0D40491B6B46197058
:1041E0000024070016000AE00422311901A8FDF797
:1041F000CBFF019A3919002006F030FD241DAC4296
:10420000F2DB0020C043019068460278711901A8D2
:10421000FDF7BAFF019A7919002006F01FFDF7BDDE
:1042200070B544688668B44202D22678FF2E01D168
:10423000042070BD007B002801D1FE2E01D0052096
:1042400070BD6588A94201D3062070BD10001A0018
:10425000231D591806F072FD002801D00020C0432C
:1042600070BD7CB5079C0025069E3580250005D0D5
:104270006D466C80FE242C706C4600E044684568F6
:104280008668B54202D22678FF2E01D1042076BD81
:10429000007B002801D1FE2E01D0052076BD60886C
:1042A000814201D3062076BD401A984200DA03000D
:1042B00010001A002B1D5918FDF766FF608806993B
:1042C0000880002076BDF8B584B007000E00150008
:1042D000B44C254203D106F031FD002820D001A8BE
:1042E0000C21FDF72FFFCD483818C00A0290681E38
:1042F0000443641C6003000E0390694601A806F0A5
:104300002DFD00240AE06010800F0019032188436E
:1043100032583919002006F0A1FC241DAC42F2D31A
:1043200005B0F0BD012101700021418081807047FE
:10433000F1B588B00C0015001E0000200090FF228F
:1043400029002000FDF700FFFE206946087507944C
:104350006846458206960E9D009C05AE19E06846AB
:10436000008A6988401A401E03240443641CA4B2D6
:1043700068886946098A0A1A521E03211143491C9A
:1043800089B28F4242DB01200022B94228706A8044
:1043900040D06846408A071B3F1FBFB228780028DC
:1043A00026D0701C0390A888029004A80190009762
:1043B0000798001D03190022FF210898FFF7E3FE6C
:1043C0006946098AA98001000ED16846008A70807A
:1043D000042205A907980019FDF7D6FE7088C01CB5
:1043E000032101436418C1E706990C8009B0F0BDB0
:1043F000A888019004A800903B00079802196988DA
:104400000898FFF72EFF0100A9D0EFE700212970DF
:10441000C01968806846408A069908800020E5E750
:10442000F8B5AE4CA544AE49020014235A438F1888
:104430007989002901D1002040E004A900F013F996
:10444000059D02A8FFF76EFF8026360102A80090A6
:1044500001AB320008A904A8FFF76AFF0400042C8E
:1044600006D0002C2AD168468088B042EED103E005
:1044700068468088002808D06846828808A92800F5
:10448000FFF721FFAD19002CE0D008A80C21FDF7A3
:1044900059FE624828184003000E09900698401EF5
:1044A000711E0143491C481B4003000E0A906946D7
:1044B00008A806F053FC3800FFF7FCFD89498D443D
:1044C000F0BD0000FCFF0000F8B5844CA5440021BD
:1044D0006A46917100220023814906000BE0B06812
:1044E0000C245C43005D14246043081840890028B4
:1044F00000D001225B1C30798342F0DB002A25D0FA
:1045000080221201FF2108A806F070FC00258024FB
:1045100024010DE002A8FFF705FF02A8009001ABFF
:10452000E21B92B208A8C11904A8FFF701FF6D1C95
:10453000307985420CDAB0680C226A43011D8F582D
:1045400004A9805C00F08FF80028E3D000201BE075
:10455000220008A93068FFF7B6FE614C37006946B3
:104560008D7900260CE0B8680C217143405C142161
:1045700048432018FFF79EFD010000D00500761C7F
:1045800038798642EFDB280056498D44F0BD9549C5
:104590008A79824201D102207047897C8142FAD017
:1045A00000207047FF070000F8B54C4CA5440400FC
:1045B0000E0080221201FF2108A806F017FC00253A
:1045C00068460471802424011CE00C276F43B06806
:1045D000C05D6A461279904213D004A900F043F8F6
:1045E000B068C019476802A8FFF79CFE02A80090B7
:1045F00001AB9B1CE21B92B208A8C11904A8FFF7EB
:1046000097FE6D1C30798542DFDB220008A93068F7
:10461000FFF759FE002033498D44F0BD0000FCEF48
:1046200010B500246F480C21614341188A792C4849
:1046300014235343C0180368002B10D1012A0EDC49
:104640000A6802608B88D218426009890182FFF7EC
:1046500031FD010004D1641C012CE3DD01E00120E7
:1046600010BD002010BD10B50200022A01DB0120A0
:1046700010BD1B4B142462439A1813684B60526898
:104680008A6001220A7308700020487310BD7FB54C
:10469000694C0578142675436419A47B002C01D05D
:1046A0000A2008E003940294099C01946C46248C2F
:1046B0000094FFF768FD04B070BD7CB5A04C057890
:1046C000142675436419A47B002C01D00A2076BD02
:1046D0000194069C0094FFF7C4FD76BDE0F7FFFF50
:1046E0009800002024080000FAB583B017000325C5
:1046F000791E03260E43761C0CE00C78FF2C18D094
:10470000FE2C01D0002C69D14A88D21C2A43521CAD
:1047100089184160826841684B1D9342EDD38849F6
:1047200000781422504308184089002854D10220F0
:1047300055E00290501A834B984201D2521A00E081
:104740001A467F4C92B2B0B26B461B8DC018001D4A
:10475000824239DB6846007B0191FE216A46117076
:10476000694648706846008D30184880009A019963
:10477000002006F073FA049AB1B20198001DFFF709
:1047800029FD0B9A6846018D0198B6B28019001D6B
:10479000FFF720FD200008300299097814225143C8
:1047A00040180188491C0180029800781421484370
:1047B000201881896A46128DBA18521E1543491B6A
:1047C000491F818100200AE00298007814214843A3
:1047D000201840890028AAD00B2000E0032005B053
:1047E000F0BD0000140F041010B504006168A0684B
:1047F00081421ED20878FF281BD0FE2817D1FF2245
:10480000D243002006F02AFA4D48010008312278F0
:1048100014235A4389180A88521E0A8021781422C8
:10482000514340184189491C4181002010BD052099
:1048300010BD042010BD00009800002078B585B0A0
:1048400004006946FFF7A3FE3D4D02281ED1142047
:1048500044432C19256802A80C21FDF773FC3A4843
:1048600028184003000E03906068401E374901433A
:10487000491C481B4003000E049001A902A806F041
:104880006DFA2000FFF716FC00201BE0012818D16C
:1048900000992000FFF788FE040010D100260AE0EE
:1048A000009880680C217143405C1421484328180B
:1048B000FFF700FC761C009800798642F0DB2000B0
:1048C00000E0012006B070BD1CB504006946FFF78A
:1048D0005EFE022803D12000FFF7A2FD16BD0128CD
:1048E00003D10098FFF7F0FD16BD012016BD38B5C5
:1048F000174800214356DAB2114C14255543641968
:104900006589002D03D0A589248AA54207D3521CAE
:10491000D2B2022A00D100229A42EDD106E0531C05
:104920005CB2022C00D10023190001E00022D24326
:104930000170100602D4D0B2FFF7C6FF002032BDCE
:1049400098000020FFFF00000000FCEFFF070000C0
:104950008235002080B506F053FA002804D10448BF
:104960000068C079002801D0002080BD032080BDF0
:104970006C35002038B504000D00002C01D172B652
:10498000FEE7E16B002936D00020C04306F08AF82C
:10499000216C88422FD305F0C3F9216CE26B2368A8
:1049A000100048431818A0600020A0636360521EE6
:1049B0004A439818E060200044300021C943017048
:1049C0004170002D0BD12069002810D0200010303C
:1049D000FEF7BAF900280AD005F09CF907E020009C
:1049E000103005F0CDF92000243005F0C9F905F0AC
:1049F000A3F9012032BD72B6FEE70000F8B504004D
:104A00001600002C22D00F000020C043210006F029
:104A100049F8B8421AD3200078434F21C94388424D
:104A200014D2503005F07EF805000DD0002F01D1D2
:104A30002D6001E050302860EC632F6401212800D4
:104A4000FFF798FF4C202E542800F2BD72B6FEE707
:104A500010B5020000210120FFF7D0FF040009D0AB
:104A60000020A0602060E0600023002200212000E0
:104A700000F002F8200010BDBCB584B00400002591
:104A8000002C01D172B6FEE70391002902D1206CFF
:104A900000280ED11F00022F02D1E06B01280AD19D
:104AA000FEF76AFA002808D10498002805D072B6EB
:104AB000FEE772B6FEE772B6FEE7029537E00498AD
:104AC000002851D001250298002803D16846FEF73E
:104AD0009FF9029505F030F9FDF778FF05F020F910
:104AE000200044300021C9434422A2568A4201D109
:104AF00000220270012282568A4201D100214170B7
:104B000005F01AF904A96846FEF78CF9002840D18F
:104B100005F006F9A06BE16B884229D105F00CF98C
:104B2000002D27D1200000F00CF9FDF76DFF05F0F6
:104B3000F7F8A06BE16B884201D3022FBFD13A0096
:104B40000399200000F0B2F8616A002903D0200028
:104B50002430FEF7F9F8002801D005F0DBF805F065
:104B6000EBF8012006B0B0BD05F0E6F80020F9E74B
:104B70000025D3E7049920001030FEF7B3F8200099
:104B800000F0DFF8FDF740FF0028D0D105F0C2F8B3
:104B9000CDE7200000F0D5F8FDF736FFE6E700008E
:104BA000BFB504000025002C01D172B6FEE70F004E
:104BB00002D1206C002808D1FEF7DEF900280BD1C5
:104BC0000298002808D072B6FEE772B6FEE7200011
:104BD00000F0B7F8FDF718FF05F0A2F8A06B002869
:104BE0003AD1029800284ED0002D03D16846FEF736
:104BF0000FF9012505F0A0F8FDF7E8FE05F090F8A3
:104C0000200044300021C9434422A2568A4201D1E7
:104C100000220270012282568A4201D10021417095
:104C200005F08AF802A96846FEF7FCF800282ED1A4
:104C3000200000F0BBF80028C9D0029920002430E1
:104C4000FEF750F8200000F07CF8FDF7DDFE0028AC
:104C5000C2D105F05FF8BFE705003900200000F081
:104C60005DF86D1EA5632069002807D02000103074
:104C7000FEF76AF8002801D005F04CF805F05CF862
:104C8000012004B0B0BD05F057F80020F9E720007E
:104C900000F057F8FDF7B8FE200000F087F8002874
:104CA0009AD0F2E705F048F8200010BDF8B50400EE
:104CB000100000260027A56B226C002A08D120686E
:104CC000002827D1A068FEF769F90700A66021E057
:104CD00006000CD16068FDF757FA6068216C401837
:104CE0006060A168884215D32068606012E0E068C7
:104CF000FDF74AFA216C4842E1680918E160226830
:104D0000914202D2A1680818E060022E02D1002D63
:104D100000D06D1E6D1CA5633800F2BD0B00026C47
:104D2000002A00D1704710B5C1688918C160846835
:104D3000A14201D30168C160C1681800FDF724FADF
:104D400010BDF8B5050004F0EBFF2F00443701203B
:104D50003C5608E028002430FDF7F6FF002801D07B
:104D6000FEF79BF8641E60B2012802DB686A002827
:104D7000F0D10024E4437C7004F0DEFF04F0D0FFA7
:104D800044202E5608E028001030FDF7DDFF0028F3
:104D900001D0FEF782F8761E70B2012802DB286986
:104DA0000028F0D13C7004F0C7FFF1BD10B504003D
:104DB00004F0B6FFA06B441EA441E40F72E70000AC
:104DC00030B500220023002801D172B6FEE7002989
:104DD00014D00B4CD50064196568A84209D0002B8B
:104DE00003D12568002D00D12300521C082AF0D3DE
:104DF00000E02300002B01D01960586030BD000096
:104E00003C33002070B504000D00160004F088FF4C
:104E100000200021C9434422A2568A4201D14423E2
:104E2000E0544522A2568A4201D14521605404F043
:104E300083FFA06B002805D1320029002000243018
:104E4000FDF760FF2000FFF77CFF70BD10B5FFF796
:104E5000E7FB424C211D0020FFF705FC2100143127
:104E60000120FFF700FC201D206010BD3EB53B4D2A
:104E7000022802D12C00143400E02C1D2C60019378
:104E80006B461B8B00930B0001002000FFF72CFCEE
:104E9000002805D0022801D1002000E00120C043F5
:104EA0003EBDF8B584B00E0019002C4C022E03D183
:104EB00025001435012301E0251D0023070025608E
:104EC00028466D466A8103910A9D022F08D102A9E6
:104ED00000912B00039A69464989FFF7EEFB0FE02A
:104EE000002F03D101001800FFF7BDFB02A80190BD
:104EF0000095039B6846428931002068FFF7C7FB95
:104F0000010001D1002005E0042801D1022000E0C9
:104F10000120C04305B0F0BD10B5140023000A0005
:104F200001000E480068FFF77BF9002804D001D586
:104F3000200010BD0220C04310BD80B5022807D15B
:104F4000064908681431884207D0FFF74DFC01BDBF
:104F5000032802D10020FFF771FC01BD9834002026
:104F60000120FFE719490860002070470120C04375
:104F700016490968012900D1002070470020EFF38D
:104F8000108172B6114A1368012B02D00120C04370
:104F900001E00323136081F3108870470020EFF3D2
:104FA000108172B6094A1368032B02D00120C04356
:104FB00001E00123136081F31088704780B50A0077
:104FC000034905F05FFF02BD000000001803002048
:104FD000A8120410F1B501245A4D5B4F0026007849
:104FE000012804D028D303281ED019D3F1BD00987E
:104FF00040684078012806D1002000F0FFFA280020
:10500000FDF706F9BC70009840684078002813D17D
:1050100000F0F8FA28002830FDF7FAF8BE70F1BD6C
:105020003C702800503002E03E7028008430FDF7CC
:10503000EFF846A0FDF7ECF8F1BD80B542490278E3
:10504000002A02D0012A03D001BD4088C88001BDDA
:105050003F48C88000F019F801BD00001CB53A4C6B
:105060003B48E08006F052FA200008300190012011
:1050700000900023C82200BF39A13648FDF7AEFBDF
:105080000020207000F001F813BD80B5002000F072
:10509000B9FA01202C49487000228A70C8700A7140
:1050A00001BD3EB52C480090694600220A71264C8D
:1050B0002279551EAD41ED0F01220270457002208C
:1050C00008712648217801290BD1FDF7A1F8E28863
:1050D0001F48824203D06946012006F042FA25713A
:1050E00037BD3C30FDF794F8F9E7FEB51B4F164C81
:1050F000194D6E460AE03800FDF78AF8E288144838
:10510000824203D06946012006F02BFA0022D243E6
:1051100001210020FDF778FF0095002030712079F3
:10512000401E8041C00F207101212970687002204B
:10513000307120780128DED038003C30FDF768F867
:10514000E4E700006811041004350020200A0D0077
:10515000FFFF0000EB500410502D0020201204101F
:1051600053454E445F4E4F5449460000024909687A
:10517000C88100207047C0466C35002001004222E3
:105180001201D21E004207D002D4521E0018FCD5D4
:10519000C10A400512058918704700000100EED5CC
:1051A0004042F446FFF7EBFF0122D207114360476C
:1051B000F0B50E005E400125ED072E40B446AE0A64
:1051C000DF184C18F44208D2F7420ED2640D01D019
:1051D0007F0D12D100206146F0BD05D1F74201D804
:1051E0007F0D05D10020C143F0BDFBD1640DF9D086
:1051F0000020C143490549088FE0E419C902DB02D8
:1052000029432B43DB0A460DC00231438E4630B49E
:1052100087B295B27D432E0CADB2140C7C43A41919
:10522000260C240425439CB27C43A419190C794311
:10523000270CC919A4B20F043C43090C000C97B207
:1052400047432E0CBE193543ADB2170C4743360CFD
:10525000BF19A6B2BF193E043543240C3E0C3619C3
:105260009FB24743BF19BCB23E0C89191F0C47437C
:105270007F183E043443390C704680B297B24743DE
:105280002E0CBE193543ADB2170C4743360CBF196F
:10529000A6B2BF193E043543240C3E0C36199FB20A
:1052A0004743BF19BCB23E0C89191F0C47437F18F6
:1052B0003E043443390C77463F0C90B278432E0CB1
:1052C00080190604ADB22E43050CA0B22D18120CA5
:1052D0007A435019020C80B2240CA4189AB27A4373
:1052E000121914042043120C89181B0C7B43C91893
:1052F00030BCEF0A394203D1B61940414941641E1E
:105300006F12BF0DE41B0BDBFF19BC4211DA240541
:1053100000274208AE417841614166463143F0BD05
:10532000641C05D1401C6141CF0201D34908F4E758
:1053300050E75DE730B4012464054D00EC420BD822
:105340005D00EC4208D80C001C4364000443144385
:1053500004D28B4200D1824230BC7047FCD09942CB
:10536000FAD19042F8E7FEE7F4464A1805D200F079
:105370000FF801D580174008604700F009F80121B7
:10538000C907884200D90800404260474A1812D233
:10539000400DC90208430121C9070843520D4021AD
:1053A0000901521A521C06D452421F3201D4D04075
:1053B0007047C017704700207047F0B40125ED0713
:1053C0000F005F404FD48B4200D1824205D9844602
:1053D000100062468C4619006346DF184C18640DB5
:1053E0007F0D3AD0661C760537D0E61B352E34DCAF
:1053F000DB022B43DB0A0C0DC9022943C912202E04
:105400000DDB1700203E06D01F00F741F3405F4040
:105410000026012A7741C01871410DD217E017000C
:10542000F741F2405740F3415A40B340F3405A40ED
:105430000026801859410AD3A21C52050FD0C2077A
:10544000012F724117004008CB0718434908641C1C
:1054500024054208AF4170416141F0BC7047641CB3
:1054600021050020F9E76B4010E06B40ABE7F74205
:10547000F3D1E943F1E72442EFD100200021ECE72A
:10548000F0B40125ED070F005F40EED40C00871A41
:105490009C4105D2C01BA141D219634169406B40B8
:1054A000AE0ADF184C18F442E1D2640D7F0DE2D051
:1054B000E61B362ED1DCDB022B43DB0AA4460C0DA7
:1054C000C9022943C90A012E28DC04D1D607520893
:1054D000DF073A435B08EF0A76429041994114D0C6
:1054E00039423BD1B61940414941761C394204D179
:1054F000761C001849413942FAD0B9436746B74291
:1055000008D9A41B24052143A7E70042EAD136426B
:10551000E8D1A2E7E40AE10700209EE7202E0BDD98
:10552000203E1F00F340F7415F40012A002257410F
:105530007E42984191410BE01700F741F2405740FD
:10554000F3415A40B340F3405A407E429041994162
:105550000A0303D2641EB619404149410027641E64
:1055600024054208AE4178416141F0BC7047FEE736
:10557000021D13688B43136002681143016070477A
:1055800081B08C490A6802430A60096808400090AB
:10559000009801B0704730B585B004000820FFF7CF
:1055A000EFFF82486100451829880091012101918F
:1055B000029102210391A10044186946A06806F0F7
:1055C00005F87B480068C00610D5A0689021C90581
:1055D000884203D100997848FFF7CAFFA06877494D
:1055E000884203D100998248FFF7C2FF012229882F
:1055F000A06806F099F8002005B030BD80B56B4B6F
:10560000002202E080B5694B01224100595A800016
:105610001818806806F088F8002002BD70B586B0C2
:1056200006000C00300001D1042000E00820FFF744
:10563000A7FF20006F4D7100695A0191012103916C
:1056400002210491B1006C18010006D100200290E3
:1056500001A9E06805F0BAFF1FE001281DD18020F4
:10566000400065490A6802430A60096808400090E2
:10567000009880204002029001A9E06805F0A6FF92
:10568000280008308519002203210020285606F042
:1056900088F80020285606F089F845480068C006BA
:1056A00010D5E0689021C905884203D1019942488C
:1056B000FFF75EFFE0684149884203D101994C48F9
:1056C000FFF756FF002006B070BD80B5494A410083
:1056D000515A80001018C06806F020F8401E804122
:1056E000C00F02BD80B506F025F801BDF0B587B04A
:1056F0000F0000260024002F02D10124E44350E0D3
:105700003E4994224243891800913D49800008583F
:10571000009908600420FFF733FF0820FFF730FFEF
:105720008020C00037490A6802430A6009680840BF
:1057300001900198022002900390059001250495A4
:10574000069002A99020C00505F040FF18480068A7
:10575000C00603D502991848FFF70AFF029506967E
:1057600002A9164805F032FF0325ED4339000098E1
:1057700006F02CF8002800D02C000021009806F03C
:105780005BF8002800D02C000021009806F06DF88E
:10579000002800D02C00009806F030F8002800D037
:1057A0002C00200007B0F0BD000000002C030020FA
:1057B0000000504850004048200050480000104869
:1057C000F8B500240D4E0091150094270BE0FA2344
:1057D0009B000122009801190B480078784330188B
:1057E00006F0CCF8641CAC42F1D32800F2BD0000F6
:1057F000280050484003002054004048D82F002083
:10580000580300205800404885350020C37882782E
:10581000417800781B021A4309021204084310431E
:10582000704780B506F012FB80BDF0B593B01F46FF
:1058300015460E4612901C9C08461146224606F05C
:1058400009FB002824D122980D901FAB0DCB11909D
:105850001E980F901D980E901B980C901A991998ED
:105860001097189F089209930D9A0A920097019039
:1058700002910C98039004940E9805900F9806904E
:1058800011980790129831462A46109B06F0F5FAB7
:1058900013B0F0BD80B506F002FB80BD002070475C
:1058A00080B506F003FB01BD80B50B0011001A00A6
:1058B000FCF74AFC01BD80B505F040FA02BD7FB59A
:1058C00004000D001600684606F048FB68460178A3
:1058D000217041782970807830707FBD80B5FFF7E6
:1058E0006DFB02BD80B505F0CDFA02BD80B506F0B6
:1058F00079FB01BD80B506F0B7FB02BD80B506F0AF
:10590000D5FB02BD80B506F005FD02BD80B506F0F1
:1059100050FD01BD80B506F054FD01BD80B506F017
:1059200065FD02BD80B506F063FD02BD80B506F0E1
:1059300061FD01BD80B501F07FFC02BD80B5FEF7C1
:1059400004F804BD80B5FEF731F802BD80B5FEF75E
:1059500036F801BD80B5FDF75EFFC0B202BD80B56F
:10596000FDF792FFC0B202BD80B5FDF7AFFE04BDEA
:1059700080B5FDF7C3FF01BDF0B59BB0EB481890B3
:105980007F20C643FCF7EAFDE94DEA4F012804D029
:10599000E87A002801D1189812E034467834FCF7F0
:1059A000DDFDE97A6143E14A5043101844183D4651
:1059B0005C35FCF7D3FD6843DD4DE97A414360185F
:1059C00062301890FCF7CAFD01280ED130467830BD
:1059D0002989414330465C30AA7A42435018314607
:1059E00060312A7B4A43801800E000200490EC8953
:1059F00006F088FD012801D006F086FDFCF7AAFD1F
:105A00000128149409D134465034FCF7A7FD6043B3
:105A1000E97A414308390A9101E000200A90C64C16
:105A200006F072FD0128204616D006F06BFD012815
:105A3000204611D02920285C002820460CD12520A2
:105A4000285C0028204607D12620285C002801D0A9
:105A5000204601E030463C3013902046203015901F
:105A600006F052FD012815D006F04CFD012811D09A
:105A70002920285C00280DD12520285C002809D188
:105A80002620285C002802D02046203001E0304645
:105A90005430159006F038FD1190A87E0190E87FF3
:105AA0001090FCF75BFD1290E87F029006F02EFD4F
:105AB0000990E87F0390FCF77DFD002706F028FDA4
:105AC000012838461A96199752D106F01DFD012873
:105AD00013D1687F0A2800D30A20169020360027A9
