:020000041004E6
:10000000B8FF0020E9880510358C0510378C0510E5
:1000100000000000000000000000000000000000E0
:1000200000000000000000000000000061A10410BA
:10003000000000000000000023A10410C99D04106E
:10004000A3580410DF710410AF8C04102F96041015
:10005000779E0410B7A7041027AC04106BAC0410F3
:10006000438C05101BAD0410398C051083AE0410B1
:10007000D3BA04105F8C051000000000918C0510AD
:100080009F8C051083BB0410818C051000000000BC
:10009000798C05100000000000000000698C05103C
:1000A000718C0510898C0510000000000000000014
:1000B0000000000000000000000000000000000040
:1000C000003400202E2400000600020200001E0062
:1000D000F7000000FFFFFFFF6400011008000003AD
:1000E000F70001000001010202020200000100030A
:1000F000000400004572726F7220696E20424C4508
:100100005F535441434B5F496E697428292030780E
:10011000253032780D0A000020204661696C2020CD
:10012000203A206163695F68616C5F7365745F7416
:10013000785F706F7765725F6C6576656C20636F52
:100140006D6D616E642C20726573756C743A20302D
:1001500078253032580A0000202053756363657398
:10016000733A206163695F68616C5F7365745F7483
:10017000785F706F7765725F6C6576656C20636F12
:100180006D6D616E640A000020204661696C20205C
:10019000203A206163695F676174745F7372765F90
:1001A00070726F66696C655F696E697420636F6DEC
:1001B0006D616E642C20726573756C743A203078B2
:1001C000253032580A0000002020537563636573A0
:1001D000733A206163695F676174745F7372765FFD
:1001E00070726F66696C655F696E697420636F6DAC
:1001F0006D616E640A00000020204661696C202059
:10020000203A206163695F6761705F696E6974207D
:10021000636F6D6D616E642C20726573756C743ADA
:10022000203078253032580A000000002020537515
:1002300063636573733A206163695F6761705F69C7
:100240006E697420636F6D6D616E640A000000005A
:1002500020205374617469632052616E646F6D2055
:10026000426C7565746F6F74682041646472657365
:10027000733A20253032783A253032783A253032B8
:10028000783A253032783A253032783A253032784B
:100290000A00000020204661696C2020203A204797
:1002A00061705F70726F66696C655F7365745F64BF
:1002B00065765F6E616D65202D20446576696365A6
:1002C000204E616D652C20726573756C743A203018
:1002D00078253032580A0000202053756363657317
:1002E000733A204761705F70726F66696C655F7307
:1002F00065745F6465765F6E616D65202D20446571
:1003000076696365204E616D650A000020204661B4
:10031000696C2020203A204761705F70726F6669B7
:100320006C655F7365745F617070656172616E6347
:1003300065202D20417070656172616E63652C20AF
:10034000726573756C743A203078253032580A0023
:100350002020537563636573733A204761705F7043
:10036000726F66696C655F7365745F6170706561FB
:1003700072616E6365202D20417070656172616EDF
:1003800063650A0020204661696C2020203A2068BD
:1003900063695F6C655F7365745F64656661756CE6
:1003A000745F70687920636F6D6D616E642C20726C
:1003B0006573756C743A203078253032580A000025
:1003C0002020537563636573733A206863695F6CBB
:1003D000655F7365745F64656661756C745F706892
:1003E0007920636F6D6D616E640A000020204661A4
:1003F000696C2020203A206163695F6761705F73D8
:1004000065745F696F5F6361706162696C6974795B
:1004100020636F6D6D616E642C20726573756C74F2
:100420003A203078253032580A00000020205375D9
:1004300063636573733A206163695F6761705F73BB
:1004400065745F696F5F6361706162696C6974791B
:1004500020636F6D6D616E640A00000020204661AC
:10046000696C2020203A206163695F6761705F7367
:1004700065745F73656375726974795F72657175B0
:100480006972656D656E747320636F6D6D616E6406
:100490002C20726573756C743A2030782530325890
:1004A0000A0000002020537563636573733A20616E
:1004B00063695F6761705F7365745F7365637572AD
:1004C0006974795F726571756972656D656E747353
:1004D00020636F6D6D616E640A000000202046612C
:1004E000696C2020203A206163695F6761705F63F7
:1004F0006F6E6669677572655F66696C7465725F59
:100500006163636570745F616E645F7265736F6C65
:1005100076696E675F6C69737420636F6D6D616E71
:10052000642C20726573756C743A203078253032F3
:10053000580A00002020537563636573733A206185
:1005400063695F6761705F636F6E66696775726527
:100550005F66696C7465725F6163636570745F6127
:100560006E645F7265736F6C76696E675F6C6973DA
:100570007420636F6D6D616E640A0000536572765E
:100580006963657320616E6420436861726163749E
:100590006572697374696373206372656174696FEE
:1005A0006E0A0000456E64206F662053657276699E
:1005B00063657320616E6420436861726163746572
:1005C00072697374696373206372656174696F6EB5
:1005D0000A00000020204661696C2020203A20613A
:1005E00063695F68616C5F7365745F726164696F92
:1005F0005F61637469766974795F6D61736B2063A1
:100600006F6D6D616E642C20726573756C743A2029
:1006100030782532580A00002020537563636573D3
:10062000733A206163695F68616C5F7365745F72C0
:100630006164696F5F61637469766974795F6D6124
:10064000736B20636F6D6D616E640A0D00000000B6
:100650003E3E3D3D204843495F444953434F4E4E43
:10066000454354494F4E5F434F4D504C4554455FB1
:100670004556545F434F44450A0000002020202087
:10068000202D20436F6E6E656374696F6E20486124
:100690006E646C653A2020203078253032580A206C
:1006A000202020202D20526561736F6E3A2020207B
:1006B000203078253032580A000000003E3E3D3D93
:1006C000204843495F4C455F434F4E4E4543544994
:1006D0004F4E5F5550444154455F434F4D504C453C
:1006E00054455F5355424556545F434F44450A00B5
:1006F00020202020202D20436F6E6E656374696F6B
:100700006E20496E74657276616C3A2020202564F3
:100710002E25303264206D730A20202020202D20C9
:10072000436F6E6E656374696F6E206C6174656E85
:1007300063793A2020202025640A20202020202DC3
:10074000205375706572766973696F6E2054696D98
:10075000656F75743A2020202564206D730A0000AF
:100760003E3E3D3D204143495F4741505F50524F1F
:10077000435F434F4D504C4554455F565345565487
:100780005F434F44450A00003E3E3D3D2041434902
:100790005F4741505F4B455950524553535F4E4F51
:1007A00054494649434154494F4E5F565345565468
:1007B0005F434F44450A00003E3E3D3D20414349D2
:1007C0005F4741505F504153534B45595F5245512C
:1007D0005F56534556545F434F44450A000000009E
:1007E0003D3D3E3E206163695F6761705F7061738C
:1007F000736B65795F72657370203A204661696C2E
:100800002C20726561736F6E3A2030782530325833
:100810000A0000003D3D3E3E206163695F676170F4
:100820005F706173736B65795F72657370203A20D6
:10083000537563636573730A000000003E3E3D3DDF
:10084000204143495F4741505F4E554D4552494312
:100850005F434F4D50415249534F4E5F56414C55A7
:10086000455F56534556545F434F44450A000000C8
:100870003D3D3E3E206163695F6761705F6E756DEF
:10088000657269635F636F6D70617269736F6E5FCC
:1008900076616C75655F636F6E6669726D5F7965B1
:1008A000736E6F203A204661696C2C20726561730B
:1008B0006F6E3A203078253032580A003D3D3E3E7A
:1008C000206163695F6761705F6E756D65726963F2
:1008D0005F636F6D70617269736F6E5F76616C7567
:1008E000655F636F6E6669726D5F7965736E6F20A9
:1008F0003A20537563636573730A00003E3E3D3DC5
:10090000204143495F4741505F50414952494E475A
:100910005F434F4D504C4554455F56534556545FC9
:10092000434F44450A00000020202020202D205065
:10093000616972696E67204B4F0A20202020202DAC
:10094000205374617475733A203078253032580A18
:1009500020202020202D20526561736F6E3A2030B8
:1009600078253032580A00003E3E3D3D2041434943
:100970005F474154545F5352565F524541445F565E
:10098000534556545F434F44450A00003E3E3D3DAB
:10099000206863695F6C655F636F6E6E6563746921
:1009A0006F6E5F636F6D706C6574655F6576656EA5
:1009B00074202D20436F6E6E656374696F6E2068BE
:1009C000616E646C653A203078253034580A000036
:1009D00020202020202D20436F6E6E656374696F88
:1009E0006E2065737461626C6973686564207769F1
:1009F000746820403A253032783A253032783A25EA
:100A00003032783A253032783A253032783A25300B
:100A100032780A0020202020202D20436F6E6E6542
:100A20006374696F6E20496E74657276616C3A20EA
:100A3000202025642E25303264206D730A2020206A
:100A400020202D20436F6E6E656374696F6E206C7D
:100A50006174656E63793A2020202025640A202085
:100A60002020202D205375706572766973696F6E32
:100A70002054696D656F75743A202564206D730A82
:100A8000000000006863695F6C655F726561645FA8
:100A9000706879206661696C7572653A207265616B
:100AA000736F6E3D3078253032580A003D3D3E3E32
:100AB000206863695F6C655F7365745F7068792037
:100AC00050485920506172616D202054583D2025B6
:100AD000642C2052583D202564202D200000000069
:100AE0006163695F6761705F7465726D696E61747F
:100AF00065206661696C7572653A20726561736F15
:100B00006E3D3078253032580A0000003D3D3E3EB3
:100B1000206163695F6761705F7465726D696E61A2
:100B20007465203A20537563636573730A0000008F
:100B30006163695F676174745F636C745F65786338
:100B400068616E67655F636F6E666967206661697D
:100B50006C7572653A20726561736F6E3D307825F1
:100B60003032580A000000003D3D3E3E206163697E
:100B70005F676174745F636C745F65786368616EEE
:100B800067655F636F6E666967203A2053756363BC
:100B90006573730A000000003D3D3E3E20616369BD
:100BA0005F6761705F7365745F61647665727469B5
:100BB00073696E675F636F6E66696775726174698A
:100BC0006F6E202D206661696C2C20726573756CC8
:100BD000743A203078253032580A00003D3D3E3EC0
:100BE00020537563636573733A206163695F67615E
:100BF000705F7365745F6164766572746973696E42
:100C0000675F636F6E66696775726174696F6E0A9C
:100C1000000000003D3D3E3E206163695F676170FA
:100C20005F7365745F6164766572746973696E671A
:100C30005F64617461204661696C65642C20726533
:100C400073756C743A203078253032580A000000F1
:100C50003D3D3E3E20537563636573733A20616387
:100C6000695F6761705F7365745F616476657274F4
:100C70006973696E675F646174610A003D3D3E3E61
:100C8000206163695F6761705F7365745F6164763B
:100C90006572746973696E675F656E61626C652009
:100CA0004661696C65642C20726573756C743A20BA
:100CB0003078253032580A003D3D3E3E2053756362
:100CC000636573733A206163695F6761705F736521
:100CD000745F6164766572746973696E675F656E6F
:100CE00061626C650A00000044697361626C652092
:100CF0006164766572746973696E67202D20666120
:100D0000696C2C20726573756C743A2030782530CC
:100D100032580A003D3D3E3E2044697361626C6575
:100D2000206164766572746973696E67202D205343
:100D30007563636573730A006163695F6C32636135
:100D4000705F636F6E6E656374696F6E5F70617202
:100D5000616D657465725F7570646174655F7265FD
:100D600071202D206661696C2C20726573756C741E
:100D70003A203078253032580A0000003D3D3E3E92
:100D8000206163695F6C326361705F636F6E6E6573
:100D90006374696F6E5F706172616D657465725FB7
:100DA0007570646174655F726571202D2053756381
:100DB000636573730A0000003D3D3E3E2061636938
:100DC0005F6761705F636C6561725F7365637572A5
:100DD0006974795F6462202D204661696C2C2072F1
:100DE0006573756C743A203078253032580A0000EB
:100DF0003D3D3E3E206163695F6761705F636C6586
:100E000061725F73656375726974795F6462202DC6
:100E100020537563636573730A00000000000000CF
:100E20000200000030000020000000000800000068
:100E3000A401002000000000010000005005002077
:100E40000000FFFF0000000004000000400E04103E
:100E50000000000005000000A43300200000000096
:100E600001000000E2DC04100100000003000000AB
:100E7000C433002020000000FB349B5F8000008012
:100E800000100000052A0000100000000100000012
:100E900088020020440E04100A000000FB349B5F0F
:100EA0008000008000100000292B000010000000CE
:100EB0000000000000000000500E041002000000BE
:100EC000FB349B5F80000080001000002A2B000094
:100ED0001000000000000000000000000000000002
:100EE00002000000FB349B5F8000008000100000C7
:100EF0003A2B00001000000000000000000000007D
:100F00005C0E041000F0071000080000AA020000A8
:100F100000F80710F8070100000000002D2D204701
:100F2000415454203A204C454420434F4E464947B3
:100F300055524154494F4E20524543454956454428
:100F40000A00000020204661696C2020203A2061C0
:100F500063695F676174745F636F6E6669726D5F0A
:100F6000696E6469636174696F6E20636F6D6D6132
:100F70006E642C20726573756C743A203078257815
:100F8000200A00002020537563636573733A206163
:100F900063695F676174745F636F6E6669726D5FCA
:100FA000696E6469636174696F6E20636F6D6D61F2
:100FB0006E640A0020204661696C2020203A20617E
:100FC00063695F676174745F7372765F6164645FA5
:100FD0007365727669636520636F6D6D616E643AE7
:100FE000207032705F5365727665722C2065727264
:100FF0006F7220636F64653A2030782578200A008C
:101000002020537563636573733A206163695F677A
:101010006174745F7372765F6164645F7365727626
:1010200069636520636F6D6D616E643A2070327024
:101030005F536572766572200A00000020204661C9
:10104000696C207265676973746572696E67207078
:1010500032705F5365727665722068616E646C658C
:1010600072730A000610000019ED82AEED214C9D4E
:101070004145228E41FE000080000000000000007B
:1010800000000000E80200201010000019ED82AE00
:10109000ED214C9D4145228E42FE00008000000063
:1010A00001000000CC020020F40200208FE5B3D53F
:1010B0002E7F4A982A487ACC40FE0000800000002B
:1010C000010000000000000000000000020000001D
:1010D0006410041020204661696C2020203A2061B1
:1010E00063695F676174745F7372765F6E6F746952
:1010F0006679205357495443485F4320636F6D6DB1
:10110000616E642C206572726F7220636F64653A41
:101110002030782532580A002020537563636573A8
:10112000733A206163695F676174745F7372765F9D
:101130006E6F74696679205357495443485F432062
:10114000636F6D6D616E640A0000000001000000B5
:1011500001000000A33300202D2D205032502041EB
:1011600050504C49434154494F4E205345525645E7
:1011700052203A204C454431204F4E0A00000000D6
:101180002D2D20503250204150504C49434154495C
:101190004F4E20534552564552203A204C4544313B
:1011A000204F46460A0000002D2D2050325020418D
:1011B00050504C49434154494F4E20534552564597
:1011C00052203A204E4F54494649434154494F4ECC
:1011D00020454E41424C45440A0000002D2D205030
:1011E0003250204150504C49434154494F4E2053B6
:1011F0004552564552203A204E4F544946494341A4
:1012000054494F4E2044495341424C45440A000042
:101210002D2D20503250204150504C4943415449CB
:101220004F4E20534552564552203A20494E464F84
:10123000524D20434C49454E5420425554544F4E34
:101240002031205055534845440A00002D2D205090
:101250003250204150504C49434154494F4E205345
:101260004552564552203A2043414E275420494E7C
:10127000464F524D20434C49454E54202D204E4F51
:1012800054494649434154494F4E204449534142F1
:101290004C45440A0000000096C298D84539A1F494
:1012A000A033EB2D817D0377F240A463E5E6BCF823
:1012B00047422CE1F2D1176BF551BF376840B6CBEE
:1012C000CE5E316B5733CE2B169E0F7C4AEBE78EEA
:1012D0009B7F1AFEE242E34F1D8C0510298C0510FE
:1012E000BF8A0510758B05103D890510F38905101F
:1012F000686A6C747A4C00007072696E74665F7311
:101300003A20256E20646973616C6C6F77656400A8
:101310007072696E74663A2062616420256E206185
:101320007267756D656E74007072696E74665F7356
:101330003A2062616420257320617267756D656E65
:1013400074000000000000007072696E74665F73C4
:101350003A2062616420256C7320617267756D6547
:101360006E740000000000006E616E004E414E0081
:10137000696E6600494E460030002E00FB349B5FCC
:101380008000008000100000292B000010000000E9
:10139000FB349B5F8000008000100000052A0000E5
:1013A0001000000002000000030000000300000025
:1013B0000600000003000000030000003C000000E5
:1013C0007000000070000000D003000070000000FA
:1013D000C3010000299705100FC504106BCA041043
:1013E00037D90410B3D70410D524041089E50510AB
:1013F000A3260410AB260410B3260410BB26041049
:10140000C3260410C99C051073260410632604101B
:101410007B260410EBDA0410FD240410BD25041013
:10142000852504105FC30410F5240410B59B051036
:10143000DDE7051039E60510DDE90510EFEB0510D5
:10144000EFEB051005ED0510DDE90510DFEE0510E9
:10145000DFEE0510DFEE0510E1E80510F3E50510FD
:10146000B7E5051005ED0510E5240410ED24041082
:1014700087F205108FF205108BF205101D25041060
:10148000252504102D250410352504103BF20510E8
:10149000452504104D250410552504103D25041044
:1014A00043F205104BF205104FF205103FF2051004
:1014B00047F20510F0B595B0062104A800F018FE1B
:1014C0000620694608730020C881B64C08A8210090
:1014D000342200F015FE08A800F03AFE010005D005
:1014E0002000343000F06AFE00F025FF18210020B3
:1014F00000F026FF002805D001002000583000F041
:101500005DFE03E02000983000F058FE07A9891C1A
:10151000012000F019FF002805D001002000C8308C
:1015200000F04CFE04E084204000201800F046FE4D
:101530000121002000F03CFF002806D001009C2083
:101540004000201800F03AFE04E0B62040002018C9
:1015500000F034FE06A8009006AB9B1C07AA0021F1
:10156000012000F02DFF04AA03A9802000F0AEFFA7
:1015700004A8017802914178019181780091C378A3
:1015800002794179C8204000201800F017FE00BF02
:101590006AA21321002000F048FF002806D00100B5
:1015A000EA204000201800F009FE04E086208000B8
:1015B000201800F003FE03AA921C0221002000F074
:1015C0003AFF002806D0010093208000201800F088
:1015D000F5FD04E0A4208000201800F0EFFD0222B9
:1015E0000221002001F0C0F8002806D00100B1203F
:1015F0008000201800F0E2FD04E0C02080002018E8
:1016000000F0DCFD01250120AD49087001F061F812
:10161000002806D00100CB208000201800F0CEFD6D
:1016200004E0DB208000201800F0C8FDA4494D70C4
:101630000820C870102008718D70002000900026CE
:10164000A04DA85DA9194978092922D0FF293CD1CC
:101650003021AA1991700099D170022111718D2148
:101660005171832191710099D17100991172009982
:10167000517204A94A79AB199A720A79DA72CA7856
:101680001A738A785A734A789A730978AA19D173A7
:101690001BE0311869180A78582A16D14A1E1378A7
:1016A000582B12D16B461B7C1B096F463F7C3F07B2
:1016B0003F0F092B01DD373300E030331370092F62
:1016C00001DD373700E030370F703618761CB6B2C0
:1016D0001C2EB6DB00200290102001900820009004
:1016E000002301220121012000F0F7FF002806D08D
:1016F0000100E7208000201800F060FD04E0F920E0
:101700008000201800F05AFD6D48807800280ED027
:10171000012001F02DF8002805D001006A482018AA
:1017200000F04CFD03E06948201800F047FD00BFC1
:1017300007A000F043FD15B0F0BD000050656572D4
:1017400020746F2050656572205365727665720053
:101750003D3D3E3E20456E6420424C455F496E69EA
:10176000742066756E6374696F6E0A0080B5002020
:1017700000900223002200215148806C01F052FCAD
:1017800001BD80B5002000906A4600214C48806C65
:1017900001F0BAFC0098002803D0802040054C4995
:1017A000086001BDC000041080B5FFF7EAFF01BD6D
:1017B00080B5FFF7E6FF01BD80B5FFF7E2FF01BD91
:1017C00080B501F045FDFFF7DCFF01BD80B50022CB
:1017D000D2430121002001F0F1FB012001F0E4FDE2
:1017E00001F00EFF02F0EEFD03F00DFA03F03EFAF9
:1017F000002801D1FFF7BAFF012001F0D6FDE6E78E
:10180000FEB52F4C012003F0AFFA21004031C86033
:101810002000483001900120009000232D4A00BF95
:1018200035A12D4800F0B4FF03F09CFC03F024FD2B
:101830000021C943884201D100F07DFDFFF73AFE47
:101840000027A7732548A081200050300190012077
:1018500000900023C82200BF2AA1214800F098FF71
:101860002048A0612048206320A6300000F0A6FC9C
:101870001F4D280000F0A2FC03F07CFD280028305A
:1018800000F09CFC300000F099FC062003F0FAFD0B
:10189000002805D001002800583000F08FFC03E03C
:1018A00028009C3000F08AFC012000F0CBFA11499E
:1018B0002000103002F090F940202754F7BD0000BE
:1018C000A03000207C0100201C04000074040000F3
:1018D00004ED00E08A020000CD170410FFFF0000B5
:1018E000F71F04101D2004103B2004100A00000004
:1018F0007C05041060EA0000424C45535441434BC0
:10190000000000004144565F43414E43454C0000F7
:10191000FEB505002878042802D0822802D0F7BD41
:10192000EF1C00E02F1D6978BA4EBB4C052908D08A
:10193000102900D19CE13E2930D0FF2900D1EFE0F1
:10194000A2E1287969790906090C0843B18988421E
:1019500010D1CF48B0810020B073200000F02EFCE1
:10196000297968790006000C0143AA7920002C30FF
:1019700000F024FC00F020FBC64801210170297909
:101980006A791206120C1143418003F0E2FC012037
:1019900000F058FAC04930001030E7E0E97801293A
:1019A00000D19DE0032906D00A2900D189E00C2945
:1019B00000D183E0B2E020006C3000F0FFFBE8795A
:1019C000297A0906090C084303F064FD0022B34B91
:1019D00003F07AFD002280235B0303F037FEE879F1
:1019E000297A21D80906090C0843EE79297A0906D3
:1019F000090C0E4303F04EFD0022A84B03F064FDDA
:101A000000900191300003F045FD0022A34B03F04C
:101A10005BFD03F043FE03F04DFD02000B00009858
:101A2000019903F0C7FE1EE00906090C0843EE7990
:101A3000297A0906090C0E4303F02CFD0022974B6E
:101A400003F042FD03F02AFE03F034FD0090019103
:101A5000300003F01FFD0022914B03F035FD009A8A
:101A6000019B03F044FE00228E4B03F02DFD03F09A
:101A700015FEEA7A297B0906090C0A436B7AA97AD2
:101A80000906090C0B43E9792E7A3606360C3143E8
:101A90000A255543009506001D00080003F0FAFCD6
:101AA00000227E4B03F010FD03F0F8FD01002B0037
:101AB00032002000A03000F081FBF7BD00F07CFA7E
:101AC000F7BDE87F6D1CE97F6D1E0906090C084310
:101AD0006A7FA97F0906090C0A43EB7E297F0BE088
:101AE000E87C297D0906090C08436A7CA97C090663
:101AF000090C0A43EB7B297C0906090C0B43697925
:101B0000AC792406240C21430290019200932B000F
:101B100009332A7A287900F019F9F7BD62A0B4E0F8
:101B2000387879780906090C0843001F14D0BB499E
:101B3000401A57D0401E1FD0401F0AD0801E2DD003
:101B4000401E16D0C91F401A12D02331401A65D04A
:101B500087E08820400043E0012003F0E9FE3000E8
:101B6000283002F05CF805213000283002F034F80B
:101B7000F7BD9C20400033E0B4204000201800F066
:101B80001DFBA749B08900F0B6FD002803D0010075
:101B9000C820400020E0E220400021E0F620400084
:101BA000201800F00BFB381D03F0B8FF010000BF48
:101BB00044A000F003FB381D03F0B0FF010000BF9C
:101BC00047A000F0FBFA0121B08900F098FD002841
:101BD00004D0010088208000201856E09B2080005F
:101BE000201813E0AB208000201800F0E7FA3979C4
:101BF000002906D07A79B6208000201800F0DEFA9D
:101C000003E000BF3CA000F0D9FA86A000F0D6FAAD
:101C1000F7BD00BFA030002050060410C620800091
:101C2000201800F0CBFAB979F8790006000C0143CE
:101C300037A000F0C3FABA79F8790006000C024325
:101C4000397978790006000C0143B878FB781B06D7
:101C50001B0C1843002301930093082300F070FD30
:101C6000F7BD397878780006000C01432CA00CE011
:101C7000E87804280BDABFF34F8F6B486B49086094
:101C8000BFF34F8F00BFFDE72BA000F097FAF7BD21
:101C9000FFFF0000BC33002060EA00000000F43FBA
:101CA0000000F4BF000059404843495F4C455F4D78
:101CB0004554415F4556543A203078253032580A11
:101CC0000000000020202020202D206E756D657200
:101CD00069635F76616C7565203D2025640A0000AC
:101CE00020202020202D204865785F76616C756566
:101CF000203D2025780A000020202020202D205083
:101D0000616972696E6720537563636573730A0056
:101D100048616E646C65203078253034580A0000C4
:101D20004843495F56454E444F525F4556543A200A
:101D30003078253034580A004843495F4556454EAF
:101D4000543A203078253032580A0000F2B584B079
:101D50001C000A9D364800F031FA20780290607825
:101D60000190A0780090E37822796179314800F001
:101D700025FA280003F08EFB02AA03C202A80CC8B1
:101D800000202D4903F0A0FB04000D0003F086FCA9
:101D9000019003F08FFB06000F00200029000022B5
:101DA00080235B0303F052FC04D832003B0003F0B5
:101DB00001FD09E002A80CC80020204903F084FBC3
:101DC00032003B0003F093FC00221D4B03F07CFB30
:101DD00003F064FC0C990B9B0A224A430092020018
:101DE0000199744800F0EAF97A4CA07B012801D1EE
:101DF000032000E00220A0736846008AA081764894
:101E0000002101706946098A418003F0A2FA20008E
:101E1000103001F004FF05B0F0BD0000FD0300002C
:101E200007B201000A0000000400FA050CED00E012
:101E30008C090410D00904100000F43F0000F4BF26
:101E400000005940F1B58EB080200B90A027724C55
:101E50000020604D0EAA1278052A4BD801A39B5C86
:101E60009F4400BF0A061890306E04264BE0C8203D
:101E7000C0000B90FA273F01052644E0002600220F
:101E80000021002003F055FE010000D189E0AE736F
:101E900099201AE0C827BF000B970026FA214900B5
:101EA0004022AA5C002A12D028270B974022A8546F
:101EB00089B20091B3B23A000B9989B2A88900F0B7
:101EC0004CFC00286FD00100AD20800063E00120B1
:101ED000ECE71321A88900F0F8FB002803D00100EB
:101EE00020005C3058E02000883000F067F900F0F6
:101EF00075F85DE00EA80078012804D9801EBED0D8
:101F0000801ED5D054E006210CA800F0F1F8002086
:101F10000A90099001200890002007900120069067
:101F200000200590049003900290072001900097F4
:101F30000B9B13220221002003F0FFFD002806D096
:101F400001008A204000201800F038F905E0AE7347
:101F5000AC204000201800F031F95B4B1C2203211B
:101F6000002003F01FFE002806D00100C82040001A
:101F7000201800F023F904E0E6204000201800F0CB
:101F80001DF90CAA0121012003F0D3FD002806D081
:101F90000100FC204000201800F010F908E08D201E
:101FA00002E0A42000E0BE208000201800F006F926
:101FB0000FB0F0BD140A041044480068002800D196
:101FC000704780B5002100910223002201F02AF819
:101FD00001BD0000A0300020BC33002080B500F01F
:101FE000A2FF0022D2430121002000F0E7FF0020E1
:101FF0003649086001BD10B5354C0022D24301219D
:10200000002000F0DBFF012003F096FC0220FFF728
:1020100019FF0020A073F0E7840A041080B500BF08
:102020002FA000F0CBF80020009002230022002116
:102030002748006D00F0F6FF01BD80B5012003F0D8
:102040007BFC01BD1CB5224CA07B002808D10120DF
:10205000FFF7F8FE1F492000103001F0BDFD13BD51
:10206000022808D1002000900223002200211A48F3
:10207000006800F0D7FF13BD10B5154CA07B0228F7
:102080000ED000F040FB154A002804D001001000DB
:1020900000F094F810BD1000383000F08FF810BD3B
:1020A0000120FFF7CFFE0B492000103001F094FD16
:1020B00010BD0748807B022800D0704780B50420FF
:1020C000FFF7C0FE01BD00007C010020C0330020EE
:1020D000A030002060EA000070330020B80D04102A
:1020E0004164765F43616E63656C5F5265710A009F
:1020F000002200BF094202D0491E4254FCD1704761
:1021000070B4103A03D378C9103A78C0FBD25307A1
:1021100001D318C918C001D508C908C0D20704D313
:102120000B880380891C801C002A01D50B78037062
:1021300070BC70478B0701D18307E1D0124205D0F4
:102140000B78491C0370401C521EF9D170474300A4
:10215000B0B50546C07A1224802829D8298C1729C1
:1021600026D31448821D914222D8298A17291FD3C9
:1021700081421DD8A87E00281AD003F017FD002840
:1021800008D0E87E002813D0802811D8287F401E70
:102190000E280DD808483422294603F009FD03F023
:1021A00073FD002803D403F0A3FF002400E087247C
:1021B0002046B0BDFA030000143200200EB4C0B5B2
:1021C000020003A801900020009001AB0121044807
:1021D00078440C3003F0F6FF029906B0084700BFC0
:1021E0006DC3010081B0314901E081B030490A6816
:1021F00002430A60096808400090009801B07047E7
:102200007CB504F0EDFF00F05DF800F081F80820E7
:10221000FFF7E8FF0420FFF7E5FF01F0C7F800BF74
:1022200046A000680090234C206A0125ED4301265A
:10223000304008D12068304320602068284020606A
:102240000120FFF7D2FFC020C0050090684604F0CF
:10225000D9FF68460021002206C0206A304008D11C
:102260002068064326602068054025600120FFF7AE
:10227000BCFF114800681028FBD36846A021490024
:10228000018000218170019101F0F3F80B480C49A5
:10229000016005F04BF9002801D000F04CF8002057
:1022A00005F0AEF905F0ECFBFEE7000050004048F9
:1022B0006000404840004048101800605C33002037
:1022C0000000304880B588B0182102A8FFF710FF41
:1022D00068460021002206C00320029080204002B0
:1022E00003901020059002A805F076FC002801D08C
:1022F00000F021F800200090202001900021684685
:1023000005F092FD002801D000F015F809B000BDDD
:1023100080B586B018216846FFF7EAFE02200090DB
:10232000C0020590684605F015FE002801D000F0B7
:1023300002F807B000BD72B6FEE700000000000022
:1023400080B505F041FE80BDF8B506000F00002005
:102350003880154C200000F0DAF9010023D120006C
:1023600000F0D9F90400114DF00705D5210028002F
:1023700000F0D5F9010016D1280000F0D4F938801A
:1023800021002800243000F0CAF901000BD12100FF
:102390002800483000F0C3F9010004D121002800D2
:1023A0006C3000F0BCF9F2BDA4020020740E0410E1
:1023B00080B5022801D9122080BD05F029FE80BD1C
:1023C000FEB50C00089F0025158002990D803D8008
:1023D0000521014027D0384E300000F098F9010067
:1023E00022D168460470354C200000F09CF9019918
:1023F00008802000243000F096F90299088030000F
:1024000000F089F93D8069460978022906D101006A
:1024100020006C3000F083F9010005D129A20821C9
:10242000002000F002F80020FEBD70B504000D0091
:102430001600224804E070B504000D001600204884
:1024400000F071F933002A002100401C80B200F036
:1024500001F870BDF3B581B017001D000024174EC0
:102460006946088024206043301800F05CF9002899
:1024700004D0401C69460988884202D0641C052C9F
:10248000F0D3052C09D0684603892420444334192D
:10249000206A8188DA19914201DA1220FEBD2900F2
:1024A0003A008068C018FFF745FE206A0178890766
:1024B00000D547800020FEBD60020020AC01002056
:1024C000D001002053544D333257423080B505F0CF
:1024D000FBFD80BD80B505F075FE01BD80B505F042
:1024E00097FE01BD80B505F0BBFE02BD80B505F0CD
:1024F000E1FE02BD80B505F0FFFE01BD80B505F02F
:102500000FFF01BD80B505F075FF02BD80B505F078
:1025100073FF02BD80B505F071FF02BD80B505F007
:1025200089FF02BD80B505F0B5FF02BD80B505F09D
:10253000CDFF02BD80B505F0E5FF02BD80B506F018
:1025400021F802BD80B506F063F802BD80B506F043
:102550008FF802BD80B506F0A9F802BD80B506F07F
:10256000C1F802BD80B506F0F7F802BD80B506F0EF
:10257000F5F801BD80B506F009F901BD80B506F09A
:1025800045F902BD80B506F097F901BD80B506F0AA
:10259000B1F901BD80B506F0B5F901BD80B506F011
:1025A000B9F901BD80B506F0BDF901BD80B506F0F1
:1025B000F9F901BD80B506F04DFA01BD80B506F010
:1025C000A3FA01BD80B506F033FB02BD80B506F06D
:1025D0006FFB02BD80B506F075FB02BD80B506F04D
:1025E000A1FB01BD80B506F013FC01BD80B506F06E
:1025F00049FC02BD18B587B010AC247806940FAC26
:10260000247805940EAC247804940DAC24780394BB
:102610000CAC247802940BAC247801940AAC247896
:10262000009406F067FC08B010BD80B506F092FC7F
:1026300001BD80B506F0A8FC01BD80B506F0C4FC64
:1026400001BD80B506F00AFD01BD80B506F026FD8E
:1026500002BD80B506F03EFD02BD80B506F068FD06
:1026600001BD80B506F09EFD01BD80B506F07CFE83
:1026700001BD80B506F090FE01BD80B506F090FE6C
:1026800001BD80B506F052FF02BD80B506F0A4FF83
:1026900002BD80B506F0CCFF01BD80B507F018F88B
:1026A00001BD80B507F078F801BD80B507F086F868
:1026B00001BD80B507F0A4F801BD80B507F0C4F8EE
:1026C00001BD80B507F07AF901BD80B507F08CF93E
:1026D00002BD80B507F08CF902BD1FB508AC2478A7
:1026E00002946C46247F01946C46247E009407F08B
:1026F00087F904B010BD80B507F0C6F902BD80B5FA
:1027000007F0CEF902BD80B507F0D2F902BD80B561
:1027100007F0D3F902BD80B507F0D3F902BD80B54B
:1027200007F0D3F902BD80B507F0D3F902BD1CB59F
:10273000059C01946C46248A009407F0CEF916BDDE
:102740001CB5059C01946C46248A009407F0D4F9CA
:1027500016BD80B507F0D9F902BD1CB56C46248AB8
:10276000009407F0D6F916BD80B507F0DFF902BD79
:10277000E0B501A9087001220846114607F0DAF910
:10278000002800D08CBD01A8007807F0F1F98CBDBD
:10279000F7B586B01C00900007F006FA0500002689
:1027A000002D4AD0582007F0FFF9070042D00494CA
:1027B000069C5821FFF79CFC3D63039602970F98F7
:1027C00001900E980090049B6846028C07992000A7
:1027D00000F068F807F0E0FA534CA06E401CA066C9
:1027E000524D606E00282CD16766A06E012831D151
:1027F00014207043201807F0FFFA761C052EF7D33B
:102800002800583007F0F8FA28006C3007F0F4FA86
:10281000280007F0F1FA2800143007F0EDFA28003C
:10282000283007F0E9FA28005830E86328006C30B7
:1028300028640FE0280007F033FA0020C04309B0F5
:10284000F0BDA86C002805D1F86A616EC96A88429B
:1028500000D36766686D401C3864F96A226F8A424B
:1028600000D2216714225143221D5258BA60936846
:10287000FB603B1D966873609360611879610A681C
:10288000521C0A60686507F093FAA86C002806D00D
:10289000606EC06AF96A884201D207F077FA0120B7
:1028A000CDE70000F9B581B00E0015000A9CA52205
:1028B000A900206BFFF71EFC206BA90045182D1FF7
:1028C000072085436807002E0FD00021009634278B
:1028D000009A521813786618F3551278002A02D01D
:1028E000491C0C29F4D33F216054089E052E01D3C6
:1028F00072B6FEE7099FE662A664201D07F08BFA18
:102900002000183007F087FA24610520801BA061A1
:102910006462029A0199280007F00AFA2060002FE9
:1029200000D03C60F7BD000048030020BC2E002012
:102930001CB5164C2000843001900020009000232C
:102940008C2200BF0CA16E48FFF722FF012801D1A5
:1029500007F092FA0021C943012809D172B6A16794
:10296000154988640020E06607F0FAF9E06F13BDAE
:102970008842FBD172B6FEE749444C450000000096
:1029800060480168491C016070470000480300204E
:10299000002000215C4A136F002B00D00121536EF0
:1029A000DB6A002B07D11368012B04D8002902D160
:1029B000906FD16E401A7047BC2E0020F8B50024ED
:1029C0000094504D2868002801D172B6FEE707F048
:1029D000E3F92868401E28602868002863D14A4827
:1029E000806E00285FD00020474D002740E0E0685F
:1029F000C068816A026AC3699A60C269036A5A60E0
:102A00004A68030018339A4201D1026A4A60876219
:102A10000A68521E0A604169C26883689A608268C7
:102A2000C3685A604A68031D9A4201D1C2684A606D
:102A300047610A68521E0A60C16A2A6F8A4200D240
:102A40002967142251432A1D525882609368C3603B
:102A5000031D946863609360691841610A68521CA1
:102A60000A60C16A6A6ED26A914201D30121696724
:102A7000884C21680029BAD1002801D000F045FA1D
:102A8000E66C002E08D000F041F8002801D00120AB
:102A90006867761EF7D1E764686F002803D00120CD
:102AA000009007F073F907F083F90098F2BD16481B
:102AB000C06E704738B50400134DA86FE96E091950
:102AC000884201D272B6FEE7E86E0019A96F88420B
:102AD00012D180202858002801D172B6FEE7002CC0
:102AE00001D172B6FEE707F057F96A48C16C491C7C
:102AF000C16407F05DF9641EE86E0019E86631BD37
:102B0000592E0410C803002048030020F8B5002601
:102B1000AB4D8020285800287BD1EC6E641CEC66FD
:102B200010D15C48C06B0068002801D072B6FEE787
:102B30005849C86B0A6CCA630864086D401C086574
:102B400000F0E3F9A86F844254D3002149E0D06B30
:102B5000C068C0684268944259D34269C3688668B5
:102B6000B3608368C66873605368061DB34201D1C1
:102B7000C3685360002343611668761E1660826A3C
:102B8000002A10D0066AC769BE60C669076A7E60FF
:102B9000566807001837BE4201D1066A5660836244
:102BA00013685B1E1360C26A2B6F934200D22A67C0
:102BB00014235A4300922A1D009BD25882609368C6
:102BC000C360031D966873609360009AAA184261FF
:102BD00013685B1C13606A6ED26AC06A824200D2BC
:102BE00001212C4AD06B00680028B0D10020C043DE
:102BF000A8670E00686EC06A14214843285802284E
:102C000000D30126686F002807D0012605E0AA67D7
:102C1000EFE72048C16C491CC1643000F2BD0000E0
:102C200010B5674C80202058002802D00120606732
:102C300010BD6067606E006B664902688A4208D109
:102C400042688A4205D182688A4202D1C0688842BD
:102C500005D0606E01003431606E04F07BFD206FA2
:102C600000E0401E1421414361180A68002A03D184
:102C70000028F6D172B6FEE74A6852684A600B0037
:102C800008339A4201D152684A604968C96861664E
:102C9000206710BDBC2E002010B50C00002801D10B
:102CA00072B6FEE74649496E183107F0B7F80121C0
:102CB000200000F08FFA10BD70B50B001100002845
:102CC00001D172B6FEE742683D4C656EEA619568D7
:102CD000666E3562656E183596687560656E183576
:102CE0009560626E90620268521C0260002901D0F9
:102CF0000023DB43180000F06DFA70BD70B5C068AA
:102D0000C668002E01D172B6FEE7B06A316AF26978
:102D10009160F169326A5160416832001832914223
:102D200001D1316A41600024B4620168491E01602A
:102D3000234D80202858002828D17069F168B26896
:102D40009160B168F26851604168321D914201D1D1
:102D5000F168416074610168491E0160F06A296F81
:102D6000814200D2286714214843291D0958B160C7
:102D70008A68F260321D8B685A608A602818706118
:102D80000168491C016000F0C0F80FE05848416834
:102D9000F1618A683262320018328B685A60320000
:102DA00018328A60B0620168491C0160686EC06AAE
:102DB000F16A884202D20120686770BD002070BDB0
:102DC000480300204A49096D01606049C96E4160AD
:102DD00070470000A5A5A5A5F8B584B00500002D95
:102DE00001D172B6FEE70091002901D172B6FEE76B
:102DF00006F0D2FF3F48C16E0391696802910399C2
:102E0000029A891A019100990A6800210023DB4384
:102E10009A4213D001244C4B1E6D2F68BE4203D042
:102E2000039E029FBE420BD2019E964208D2921B85
:102E3000009C22601A6D2A60C06E6860002401E068
:102E40000098016006F0B4FF200005B0F0BD01203D
:102E50003E49486770470000F8B5264C2700803788
:102E6000394D11E006F098FF286AC668301D06F05B
:102E7000EFFFA06E401EA066686C401E686406F0FE
:102E800097FF300000F038F8686C0028EAD120681D
:102E9000012801D906F07AFFFFF77AFD0128F3D95E
:102EA0003868401C3860A06FE16E884208D3FFF795
:102EB0006FFD012801D904F039FEFFF77FFDE3E73C
:102EC00072B6FEE701200A490A68002A06D11F4AA5
:102ED000536F002B02D1CB6C002B01D00020704728
:102EE000896A491C926E914200D10220704700000D
:102EF000BC2E00204803002010B50400206B06F013
:102F0000CFFE200006F0CCFE10BD0F48C26B0F496B
:102F10001268002A02D10020C04302E0C06BC068E2
:102F20000068886770470948406E70470648806CA3
:102F3000002801D10120704739480068002801D1DC
:102F40000220704700207047BC2E0020480300205C
:102F500038B504000020002C2FD06A4D696E8C42D9
:102F600001D072B6FEE7E16C002901D172B6FEE72E
:102F7000491EE164E26AA36C9A421ED000291CD16A
:102F8000201D06F065FFA06CE0620521091AA16111
:102F9000296F814200D2286714214843291D09580E
:102FA000A1608A68E260221D8B685A608A602818D6
:102FB00060610168491C0160012032BD70B50C00E0
:102FC0001600002801D072B6FEE706F0E5FE4D4D72
:102FD000686E006D00280AD1300001216A6E54230A
:102FE000D154002803D000F0F5F806F0CFFE06F02B
:102FF000DFFE06F0D1FE686E066D0020002E07D0C1
:10300000002C02D0696E086502E0711E6A6E1165BF
:10301000696E5422885406F0CBFE300070BD00006B
:10302000C8030020F4B51F000124002901D072B6A6
:10303000FEE70500002D01D172B6FEE7069E06F000
:10304000ABFE002E01D0286D30605420285C022198
:103050005422A9542B4E0021009A002F09D0022F90
:1030600037D003D3042F37D002D339E02B6D1A4366
:103070002A65012842D16869EA68AB689A60AA6843
:10308000EB685A6042682B1D9A4201D1EA6842609F
:1030900069610168491E0160E86A316F814200D2AE
:1030A0003067311D142250430858A8608168E960D8
:1030B000291D826851608160E86A142148433018F4
:1030C00068610168491C0160A86A00280DD072B6C9
:1030D000FEE72A6D521CCBE70228C9D100240DE07F
:1030E000F26E002AC5D072B6FEE7FFF70EFF706ED3
:1030F000C06AE96A884201D206F048FE06F058FE2E
:103100002000F2BD48030020F8B504001500002C93
:1031100001D172B6FEE7002901D072B6FEE707F0D2
:1031200031F85421615C02225423E254226D521C76
:10313000226501294BD1A16A002901D072B6FEE7B0
:10314000414980228A58002A27D16269E368A6682B
:10315000B360A368E66873605368261DB34201D16B
:10316000E36853600023636113685B1E1360E26AC7
:103170000B6F934200D20A670B1D142672439A58B4
:10318000A2609368E360231D966873609360E26AAF
:1031900014235A438A1862610CE02C4A5368E36195
:1031A0009E682662260018369F687E6026001836C4
:1031B0009E60A26213685B1C13604A6ED26AE36A67
:1031C0009A4204D20122002D00D02A604A6706F0FC
:1031D000DDFFF1BDF8B504000E001B4DEF6E686E0B
:1031E000001D06F035FE19480021C9438C4216D156
:1031F000002E14D0C16A6A6E91608A686B6EDA60C4
:103200006A6E121D8B685A606A6E121D8A60010018
:1032100028316A6E5161816A491C8162F1BD3C1995
:10322000696E4C60BC42696E04D2091D006C06F0E8
:10323000F5FDF1BD091DC06B06F0F0FDA86F8442DD
:1032400000D2AC67F1BD000048030020BC2E002076
:10325000F0B583B004464C480460204607F044F8BB
:103260000546204607F030F80646684602F004FDA1
:103270000099091A4B0B45490A681146D831002BB1
:1032800002D11060012000E0002008704048006872
:10329000447B0021FF2C0AD02C2060433D4A126859
:1032A0001018827C002A02D0416AC068FFE701271B
:1032B000002E03D0002D01D1002911E0002D15D0E2
:1032C000354A8B1A5A425A41344BCD1A6B426B41E4
:1032D000334D4E1B75427541002907D013431D43E2
:1032E0002A4E294D04D08847002701E0274E264D5D
:1032F000286806F0F5FF002801D0042520E02868A2
:1033000006F0D8FF002801D0012519E0286806F052
:10331000D5FF002801D0022512E0286806F0E8FF5A
:103320002946052500280BD1086806F0E5FF00288E
:1033300006D11548006806F0ADFF002820D0002512
:103340000120A840174909680A6802430A60002062
:1033500007F01EFA07F02EFA02F089FC204607F06B
:103360002BFA3468607D012808D1217C0F200840A9
:10337000E268090907F0E6FB0020607503B0F0BDC4
:10338000002FE9D1EDE7C046D03300208033002084
:10339000843300208833002029F4051021F405101F
:1033A00025F40510DC330020704770477047830018
:1033B0008500070007008300850005000700030063
:1033C00003000F000500820081000500010005D404
:1033D0000121C006C00E81407E4801607047C1686F
:1033E0000322914302220A43C260704709E0C06889
:1033F0008007800F022801D101207047002070470C
:1034000000BFC16803229143C1607047C068800754
:10341000800F032801D1012070470020704701610F
:10342000704700697047816A8022D2050A43826230
:103430007047816A684A0A4082627047816A480020
:10344000C00F70474162704700697047816A8022EF
:1034500092050A43826270476048026807239A43D4
:103460004907490F11430160704780687047C06881
:103470007047F1B501275A48C06B38435849C863B3
:103480000846806B384388631720FFF79FFF14209E
:10349000FFF79CFF5248406B384351494863084648
:1034A000006B384308631820FFF790FF00980088EE
:1034B000C92800DAC8204B4D2900843148610098A2
:1034C0004068002800D0012028700026000603D1A3
:1034D00000988078002813D04348C1683940FBD059
:1034E00017210160C1683943C1604660C168394035
:1034F000FCD02800103000F00FFCE869286209E0D9
:10350000C82040032862E8613848A861384828612B
:103510003848686100984068002802D1A020C005A2
:103520000DE000030A2107F027FB6860324C200001
:1035300000F034FB01006868884202D3200000F0EC
:103540002DFB68602E7200980088290058310861B0
:10355000A96900F066FC294C0020207000212A0097
:103560005832183203C21E48006829005831886258
:10357000002000212A005832203203C22A002832BB
:1035800003C234216854C54AA969686807F04CFB36
:10359000286328782074A66027736673E681290063
:1035A00058314E72290058314E81AE65EE65BC48E7
:1035B000A8646E6500F0F9FA6A68002312184B419E
:1035C0002800403000F04CFC0121280000F0D4FB22
:1035D000F1BD000000E100E0FFFFFFBF2818006020
:1035E00010180060882D002004100060C2F528002B
:1035F0008D5B0000ECEB6501FFEFFFFF0C2E002060
:10360000F8B586B0002469460C72EFF3108572B6E7
:10361000B0480090407A00280BD000F0C6FAAE4EB9
:10362000B26DF36D8B4204D801D3824201D200986F
:10363000447285F31088A84F38009130019028E03B
:10364000401C1CE0046905738168002900D088478C
:103650002000F7D102A90098406B00F08FFC009980
:1036600048636846007A01280DD1EFF3108172B6E5
:1036700001980078421C019B5B789A42E0D1019A44
:10368000107081F3108801984078059940180199CD
:10369000487001984078019909780A1A02D280206E
:1036A000400012180025002A2AD00592894800906F
:1036B000446B00260494039402E0260024696D1CE8
:1036C000002C0FD0207B0028F7D000F06EFA02000B
:1036D0000B0003CC083C801A99410029EDDB01DC8A
:1036E0000628EAD328000025002802D0356104947A
:1036F00000E0039504980099486303980028A8E720
:10370000387A002800D1B2E074480068C00700D4BD
:10371000C2E03D72724CE078002804D1A078002805
:1037200001D0A57074E03878002811D0380010302E
:1037300000F0F2FAB96938005830006980B200F040
:1037400070FB0021380000F017FB01203421785471
:10375000EFF31080059072B6A04800680390386AB5
:1037600004905C4E9E4A01460398B36AC01A07F063
:103770005BFA02003800283003C800900191100065
:103780000021009A019B801859413200183203C26F
:10379000387800281AD10398B16A401A396B8842E8
:1037A00014D28F4A04990020C04307F03DFA02006A
:1037B0003000183003C80090019110000021009AD9
:1037C000019B801859413200183203C20398B0623D
:1037D0003000183003C83A00283203C2F869386252
:1037E000059880F3108802A9706B00F0C7FB706326
:1037F0006846007A01280BD1EFF3108072B6217869
:103800004A1C63789A4200D0491C217080F31088CA
:10381000E07A00281CD0E5722E4D0120A87202A982
:10382000280000F079FC02A9686B00F0A7FB686330
:103830006846007A01280BD1EFF3108072B6217828
:103840004A1C63789A4200D0491C217080F310888A
:103850003800403000F0E3F900F0A7F97A6800235F
:1038600012184B413800403000F0FAFA14E0387872
:10387000002811D000F099F93A0028320CCAFA2435
:103880006403A4185D418D4206D801D3844203D25B
:103890003800403000F0D8FA07B0F0BD2603000031
:1038A000493E04107CB50500874806680A4C694605
:1038B000200000F017FB03C5083D494AE169009864
:1038C000801B07F0B1F9020003CD0023801A994153
:1038D0007CBD0000E02D0020882D0020101000602D
:1038E000192E0020F8B586B0784802900078029929
:1038F0004978884236D1764D287A002832D103247F
:1039000000F053F904AA03C203A800F010FD01005F
:10391000280068302A0061326123EB5C002B02D161
:103920005378002B01D0012902D19278002A1BD0B4
:10393000AA6DEB6D0092019304A9C0C9027F002318
:1039400092197B41AE6E0027B6185F4100215236B6
:103950004F41009A019BBB4224D301D8B24221D3EC
:10396000022405E0002037E002291BD0012919D0EC
:10397000426A002A2FD0107B00282CD003CA083AB4
:103980000090019104A8C0C8A86E00218019794157
:10399000002352305941009E019F8F4204D801D329
:1039A000864201D2012017E0032C13D110690028B0
:1039B00010D12800403082420CD101200299887039
:1039C000002000F084FB7C4801687C4A0A400260C9
:1039D000032001E00224200007B0F0BD10180060B1
:1039E00035060000FEB5030000256C462572080070
:1039F00000D00120364C210060310871100000D049
:103A00000120602160542000283003C81A1A0023C6
:103A100012184B41A265E365210060314D70210011
:103A20006031CD70012021006031887000F0BDF858
:103A300022006032D26A002A05D102A92000583043
:103A400000F06AFB39E0C0CA083A8F4215D301D8AA
:103A5000864212D3A06DE16D00900191982020580C
:103A6000002180197941009E019F8F4205D301D822
:103A7000864202D3107B002817D102A920005830BB
:103A800000F04AFB20006030C26AA66DE76D03CAF1
:103A9000083A8F4211D301D886420ED3107B0028FA
:103AA0000BD001209521605407E090480178490629
:103AB000490E017000218174C574012000F007FBDC
:103AC0006846007AFEBD000014000060192E002038
:103AD000882D0020F8B50320C04386490A680240BB
:103AE0000A600A68104008608A480168334A0A4040
:103AF00002609F4C20005830002646724681EFF34A
:103B0000108772B600F051F8A26DE36D121A8B4166
:103B10008420205C0021121A8B4114001D0087F3C1
:103B2000108894480068C005C00D222801D000F01C
:103B3000EBFB002D04DC01DB012C01D20120F2BDE6
:103B4000002D04DC01DB0F2C01D20220F2BD00208D
:103B5000F2BDEFF3108072B665490968654A891CA9
:103B6000516011680323994302230B43136080F3D0
:103B70001088704710B5C024E4052000FFF737FC1B
:103B8000002806D12000FFF741FC002801D100F0F9
:103B9000BBFB10BD0020AB490870704780B55C4A84
:103BA0007349C96907F040F802BD80B5694670489D
:103BB00000F098F904BD000030180060FFFFFFBF5F
:103BC00000B5801A99410A22002307F04FF8000B34
:103BD0000A051043090B00BDF8B504000D00FFF7FE
:103BE000E4FF06000F00290D28030A22002307F036
:103BF00056F88019794102000B00200000F030F9DE
:103C00000400012000F063FAE0B2F2BD10B500F04C
:103C100027F90400012000F05AFAE0B210BDF8B50F
:103C20008E4C21680E00002300250A0001E03500BB
:103C30003669002E07D08642F9D137698E4201D10C
:103C40003A0000E02F616D462B70037320689042AC
:103C500015D06946100000F091F9206068460078A0
:103C600000280DD0EFF3108072B661794A1CA37959
:103C70009A4200D0491C617180F31088F1BD226026
:103C8000F1BD3EB5002401940198394D69462800E4
:103C9000583000F041FA280095300178002902D010
:103CA000047000F009F80120AB490A6802430A6079
:103CB00009680840019037BD18B5002000900099B0
:103CC000A6490871A64802680B4B134003600A78A6
:103CD000531C4C78A34200D0521C0A700121C269C7
:103CE0000A43C261C0690140009111BDC4000020B7
:103CF000101800600C000060FFFFFFBF994881684A
:103D000001220A4382600021016070470000000028
:103D1000350600002818006070B50400924D280098
:103D2000FFF7A3FB06002800FFF79FFB8642F6D1B2
:103D3000002EF4D08D4932124A43F3B24B4319128C
:103D4000511810314911E16026602800FFF78FFB00
:103D500006002800FFF78BFB8642F6D1002EF4D038
:103D6000B0118349484380300012A060666070BD86
:103D7000882D002004ED00E0F8B505000F007D4C13
:103D8000607A7D214843C90006F0F3FE461CF6B276
:103D9000794AA9691B2006F047FF2070607800F07F
:103DA0002AF83D216854E078801900F024F8382181
:103DB00068542079801900F01EF839216854607920
:103DC00000F019F83A216854A07900F014F83B216A
:103DD0006854002F06D0E078801900F004F81B30FA
:103DE0003C216854F1BD68214143090ADB2250435C
:103DF000000C0818704700B50200394840690021DE
:103E0000002306F033FF0322002306F02FFF802259
:103E1000D204002312184B41D20E58010243100065
:103E200000BD80B5544A06F0FFFEB449884201DD6A
:103E3000080002E0102800DA10200005000EB0494A
:103E4000086001BDEB2D002010B5254C207800281E
:103E500001D0FFF753FF0120207210BD142E002067
:103E6000FEB500256C462570017B002901D001209C
:103E7000FEBD0CC0083801210173A24C26680196D2
:103E8000070001E035003669002E08D00CCE083E50
:103E900003CF083F8B42F5D301D88242F2D33800DA
:103EA0000661002D01D1019000E028610199814255
:103EB00013D1694600F062F8206068460078002857
:103EC0000BD0EFF3108072B661794A1CA3799A4245
:103ED00000D0491C617180F3108868460078FEBDEF
:103EE000882D00207FB504000D00EFF3108672B618
:103EF000206F616F02AA03C28348FFF7A5FA03008F
:103F00002B60824D02A803C8009001912A00E1694C
:103F100080202058181A06F087FE0021009A019B85
:103F200080185941A26FE36F99420FD801D3904294
:103F30000CD2009001912A00E1690020C04306F0F4
:103F400073FE0021009A019B80185941A067E16728
:103F500086F3108804B070BD44180060192E00204C
:103F6000301800600810006000100060F6BC080007
:103F700053070000C500002026030000F3B589B0F8
:103F800004460020087000E02469002C00D19BE06A
:103F9000207B0028F8D0EFF31080039072B6002049
:103FA0006946087202A9491C594800F0B5F8FFF7A4
:103FB000FCFD0CCC083C04AD0CC504AA0CCA121ABA
:103FC0008B4106A80CC0012206A803C8002970DB9B
:103FD00001DC01286DD3CB4B986DD96D0090019118
:103FE00004A803C898255E59002736184F41009849
:103FF0000199B94212D801D3B0420FD26120185CA6
:1040000000280BD09E6DDF6D04A803C88F4207D334
:1040100001D8864204D395201A5401E06846027202
:104020003C4A9B6906A803C8190006F0FDFD06007E
:10403000202E00D82026344D2800FFF705FA8619D7
:104040000836EE622800FFF701FA286B8021C905C7
:1040500001432963C027FF053800FFF7C8F900288E
:1040600029D13800FFF7D2F9002824D16846007A18
:10407000002820D000F03DF931000F2081432800B6
:10408000FFF7E0F900212800FFF7E6F92800FFF725
:10409000CAF92800FFF7DAF99A4908006130427836
:1040A0006123C95C114300D00121417000210170DE
:1040B00001E00A980270039880F310880A9800784B
:1040C000002801D0099800E020000BB0F0BD10B529
:1040D000B5490C009034002808D0207800280BD176
:1040E00008004030FFF7B0FE012004E00800403037
:1040F000FFF795FD0020207010BD0000FF0F0000AD
:1041000008180060142E002000180060350600001A
:10411000E02D002026030000F3B589B000200870D0
:104120000998807A002800D1E1E0764C2000283000
:104130000CC8606800218018594106AA03C2EFF339
:104140001080049072B6FFF730FD02000B00099852
:1041500003C802AD03C502A803C80090019106A8D8
:1041600003C8C826B602002736184F4100980199A7
:10417000B9420FD301D8B0420CD306A803C8B92660
:104180007600002736184F419F4201D802D396424D
:1041900000D3A6E000200A32434102A803C800254C
:1041A0004C38A9418B4201D802D3824200D392E01D
:1041B0000998027A02A803C805003C20205C0999EE
:1041C000097B012905D1002A01D0382106E03921D7
:1041D00004E0002A01D03A2100E03B21615C00911B
:1041E000019002A92000FFF77DFE2D1A6F4AA169F8
:1041F000280006F019FD03906D4E6E4F0198A16ED8
:104200004018C830A84203981DD27178401A00990E
:10421000451A029841193800FFF714F900213800B7
:10422000FFF71AF9C020C005FFF7E0F8C020C0056D
:10423000FFF7E6F83800FFF7F6F83800FFF706F961
:104240000098717814E03D21615C401A0099451A8C
:1042500002984119C020C005FFF7E1F83800FFF7C8
:10426000E8F8C020C005FFF7BAF800983D21615C6E
:1042700040180299039A8918220068321162317835
:1042800080220A433270F021B174FF21F1742A18A0
:10429000411D8A420CD2C024E4052000FFF7A6F895
:1042A0002000FFF7ADF83800FFF7C3F8012007E062
:1042B000414AE16906F0B8FC210068310877002026
:1042C0000A9908700020099988720120099A507291
:1042D0000999C87208E06221655401200A990870A2
:1042E00002E001209C216054049880F310880BB0F8
:1042F000F0BD2F4801784906490E017000218174F4
:10430000C1747047882D00201CB52C4C694620686C
:10431000FFF734FE206068460078012806D16079F6
:10432000411CA279914200D0401C607113BD38B588
:104330000400204D2800FFF781F8002803D0686AA8
:104340002060032032BDC025ED052800FFF74FF89F
:10435000002805D02800FFF764F82060012032BD56
:104360002800FFF753F8002804D02800FFF759F879
:104370002060022032BD80B5FFF79EFCFDF71CFADD
:1043800001BD80B5FDF714FAFFF77BFC01BD81B0DC
:104390000020009000980A48016801220A43026048
:1043A0000068009001B07047882D002026030000AF
:1043B000C40000200018006035060000142E002004
:1043C0007400006080B506F0A9FC80BD0168002281
:1043D00002814281828182730B78FF2B05D0FE2BF4
:1043E00009D103895B1C03810AE04268511A091F45
:1043F000818100207047002B0DD143895B1C4381D4
:104400004A88D21C032313435B1CC9184A1D436806
:104410009A42E1D3EDE703207047F3B5079C089972
:10442000250005D06D466C80FE242C706C4600E0A3
:10443000446885684668AE4217D22678FF2E14D0AD
:10444000067B002E04D0002606732678002E0ED19F
:1044500046686488E41C032727437F1CF4194460E2
:10446000AC4202D22678FF2EEFD10420F6BDFE2EFC
:1044700001D00320F6BD6E463679FF2E04D0667853
:104480006F463F79BE42E3D14068001D10606088EE
:104490001880002901D0607808700020F6BD7FB533
:1044A00015001C00099E002232800B9A01926A4678
:1044B000128D009202AB03AAFFF7AFFF010013D1E8
:1044C000694609898D4201D306200DE0089A481BF0
:1044D000904200DA0200200003994919FDF72AFEF4
:1044E000684600893080002004B070BDFEB5BB4D29
:1044F0000D40491B6B4619700024070016000AE0A6
:104500000422311901A8FDF715FE019A391900207E
:1045100006F038FC241DAC42F2DB0020C0430190C1
:1045200068460278711901A8FDF704FE019A79190D
:10453000002006F027FCF7BD70B544688668B442D9
:1045400002D22678FF2E01D1042070BD007B002806
:1045500001D1FE2E01D0052070BD6588A94201D38E
:10456000062070BD10001A00231D591806F07AFCB1
:10457000002801D00020C04370BD7CB5079C0025F9
:10458000069E3580250005D06D466C80FE242C707B
:104590006C4600E0446845688668B54202D22678D9
:1045A000FF2E01D1042076BD007B002801D1FE2E14
:1045B00001D0052076BD6088814201D3062076BDFA
:1045C000401A984200DA030010001A002B1D5918F7
:1045D000FDF7B0FD608806990880002076BDF8B52B
:1045E00084B007000E001500B44C254203D106F03C
:1045F00039FC002820D001A80C21FDF779FDCD4819
:104600003818C00A0290681E0443641C6003000E40
:104610000390694601A806F035FC00240AE060100A
:10462000800F00190321884332583919002006F001
:10463000A9FB241DAC42F2D305B0F0BD01210170ED
:104640000021418081807047F1B588B00C001500D1
:104650001E0000200090FF2229002000FDF74AFDE7
:10466000FE206946087507946846458206960E9DA9
:10467000009C05AE19E06846008A6988401A401E11
:1046800003240443641CA4B268886946098A0A1A90
:10469000521E03211143491C89B28F4242DB012083
:1046A0000022B94228706A8040D06846408A071BC1
:1046B0003F1FBFB22878002826D0701C0390A8881E
:1046C000029004A8019000970798001D031900228A
:1046D000FF210898FFF7E3FE6946098AA9800100D7
:1046E0000ED16846008A7080042205A90798001937
:1046F000FDF720FD7088C01C032101436418C1E749
:1047000006990C8009B0F0BDA888019004A800901B
:104710003B000798021969880898FFF72EFF0100EF
:10472000A9D0EFE700212970C01968806846408A47
:10473000069908800020E5E7F8B5AE4CA544AE49DF
:10474000020014235A438F187989002901D10020CF
:1047500040E004A900F013F9059D02A8FFF76EFFE1
:104760008026360102A8009001AB320008A904A8F7
:10477000FFF76AFF0400042C06D0002C2AD16846FB
:104780008088B042EED103E068468088002808D0D7
:104790006846828808A92800FFF721FFAD19002C80
:1047A000E0D008A80C21FDF7A3FC624828184003BC
:1047B000000E09900698401E711E0143491C481BBB
:1047C0004003000E0A90694608A806F05BFB38001B
:1047D000FFF7FCFD89498D44F0BD0000FCFF00009F
:1047E000F8B5844CA54400216A469171002200234B
:1047F000814906000BE0B0680C245C43005D142482
:10480000604308184089002800D001225B1C3079E1
:104810008342F0DB002A25D080221201FF2108A864
:1048200006F078FB0025802424010DE002A8FFF7A4
:1048300005FF02A8009001ABE21B92B208A8C119C3
:1048400004A8FFF701FF6D1C307985420CDAB068CF
:104850000C226A43011D8F5804A9805C00F08FF878
:104860000028E3D000201BE0220008A93068FFF7F1
:10487000B6FE614C370069468D7900260CE0B868B9
:104880000C217143405C142148432018FFF79EFD22
:10489000010000D00500761C38798642EFDB280045
:1048A00056498D44F0BD95498A79824201D1022052
:1048B0007047897C8142FAD000207047FF070000D2
:1048C000F8B54C4CA54404000E0080221201FF21D3
:1048D00008A806F01FFB0025684604718024240107
:1048E0001CE00C276F43B068C05D6A4612799042A5
:1048F00013D004A900F043F8B068C019476802A8B3
:10490000FFF79CFE02A8009001AB9B1CE21B92B239
:1049100008A8C11904A8FFF797FE6D1C30798542DD
:10492000DFDB220008A93068FFF759FE0020334979
:104930008D44F0BD0000FCEF10B500246F480C2141
:10494000614341188A792C4814235343C0180368E3
:10495000002B10D1012A0EDC0A6802608B88D21865
:10496000426009890182FFF731FD010004D1641C16
:10497000012CE3DD01E0012010BD002010BD10B5C9
:104980000200022A01DB012010BD1B4B14246243EC
:104990009A1813684B6052688A6001220A73087083
:1049A0000020487310BD7FB5694C05781426754307
:1049B0006419A47B002C01D00A2008E0039402941F
:1049C000099C01946C46248C0094FFF768FD04B0A8
:1049D00070BD7CB5A04C0578142675436419A47B82
:1049E000002C01D00A2076BD0194069C0094FFF7AC
:1049F000C4FD76BDE0F7FFFFAC32002024080000C4
:104A0000FAB583B017000325791E03260E43761CE2
:104A10000CE00C78FF2C18D0FE2C01D0002C69D1B2
:104A20004A88D21C2A43521C891841608268416816
:104A30004B1D9342EDD38849007814225043081847
:104A40004089002854D1022055E00290501A834B2F
:104A5000984201D2521A00E01A467F4C92B2B0B28C
:104A60006B461B8DC018001D824239DB6846007BF7
:104A70000191FE216A461170694648706846008DB2
:104A800030184880009A0199002006F07BF9049ABA
:104A9000B1B20198001DFFF729FD0B9A6846018D00
:104AA0000198B6B28019001DFFF720FD20000830E4
:104AB000029909781422514340180188491C018049
:104AC0000298007814214843201881896A46128D83
:104AD000BA18521E1543491B491F818100200AE064
:104AE0000298007814214843201840890028AAD051
:104AF0000B2000E0032005B0F0BD0000040F0410FF
:104B000010B504006168A06881421ED20878FF28B1
:104B10001BD0FE2817D1FF22D243002006F032F925
:104B20004D4801000831227814235A4389180A8815
:104B3000521E0A8021781422514340184189491C91
:104B40004181002010BD052010BD042010BD0000D3
:104B5000AC32002078B585B004006946FFF7A3FEAB
:104B60003D4D02281ED1142044432C19256802A86B
:104B70000C21FDF7BDFA3A4828184003000E0390B7
:104B80006068401E37490143491C481B4003000E22
:104B9000049001A902A806F075F92000FFF716FCA1
:104BA00000201BE0012818D100992000FFF788FEA3
:104BB000040010D100260AE0009880680C2171439F
:104BC000405C142148432818FFF700FC761C00982D
:104BD00000798642F0DB200000E0012006B070BDC5
:104BE0001CB504006946FFF75EFE022803D12000D1
:104BF000FFF7A2FD16BD012803D10098FFF7F0FDD5
:104C000016BD012016BD38B5174800214356DAB24B
:104C1000114C1425554364196589002D03D0A589CD
:104C2000248AA54207D3521CD2B2022A00D1002204
:104C30009A42EDD106E0531C5CB2022C00D1002355
:104C4000190001E00022D2430170100602D4D0B254
:104C5000FFF7C6FF002032BDAC320020FFFF00008E
:104C60000000FCEFFF070000A233002080B506F033
:104C70005BF9002804D104480068C07A002801D0FC
:104C8000002080BD032080BD8033002038B50400A3
:104C90000D00002C01D172B6FEE7E16B002936D081
:104CA0000020C04305F068FF216C88422FD305F037
:104CB00073F8216CE26B2368100048431818A06059
:104CC0000020A0636360521E4A439818E0602000F1
:104CD00044300021C94301704170002D0BD120697F
:104CE000002810D020001030FEF708F800280AD065
:104CF00005F04CF807E02000103005F07DF82000AA
:104D0000243005F079F805F053F8012032BD72B671
:104D1000FEE70000F8B504001600002C22D00F00BA
:104D20000020C043210005F027FFB8421AD320001D
:104D300078434F21C943884214D2503004F034FFE5
:104D400005000DD0002F01D12D6001E0503028600A
:104D5000EC632F6401212800FFF798FF4C202E54AC
:104D60002800F2BD72B6FEE710B502000021012056
:104D7000FFF7D0FF040009D00020A0602060E060B1
:104D8000002300220021200000F002F8200010BDC6
:104D9000BCB584B004000025002C01D172B6FEE73A
:104DA0000391002902D1206C00280ED11F00022F90
:104DB00002D1E06B01280AD1FEF7B8F8002808D12B
:104DC0000498002805D072B6FEE772B6FEE772B608
:104DD000FEE7029537E00498002851D0012502989B
:104DE000002803D16846FDF7EDFF029504F0E0FFCF
:104DF000FDF7C6FD04F0D0FF200044300021C94378
:104E00004422A2568A4201D1002202700122825617
:104E10008A4201D10021417004F0CAFF04A968460A
:104E2000FDF7DAFF002840D104F0B6FFA06BE16B7C
:104E3000884229D104F0BCFF002D27D1200000F0CA
:104E40000CF9FDF7BBFD04F0A7FFA06BE16B8842F6
:104E500001D3022FBFD13A000399200000F0B2F82D
:104E6000616A002903D020002430FDF747FF0028A5
:104E700001D004F08BFF04F09BFF012006B0B0BD11
:104E800004F096FF0020F9E70025D3E704992000FD
:104E90001030FDF701FF200000F0DFF8FDF78EFD78
:104EA0000028D0D104F072FFCDE7200000F0D5F843
:104EB000FDF784FDE6E70000BFB504000025002CE7
:104EC00001D172B6FEE70F0002D1206C002808D194
:104ED000FEF72CF800280BD10298002808D072B6F3
:104EE000FEE772B6FEE7200000F0B7F8FDF766FDBA
:104EF00004F052FFA06B00283AD1029800284ED04F
:104F0000002D03D16846FDF75DFF012504F050FF39
:104F1000FDF736FD04F040FF200044300021C94376
:104F20004422A2568A4201D10022027001228256F6
:104F30008A4201D10021417004F03AFF02A968467B
:104F4000FDF74AFF00282ED1200000F0BBF8002812
:104F5000C9D0029920002430FDF79EFE200000F009
:104F60007CF8FDF72BFD0028C2D104F00FFFBFE74E
:104F700005003900200000F05DF86D1EA563206972
:104F8000002807D020001030FDF7B8FE002801D01F
:104F900004F0FCFE04F00CFF012004B0B0BD04F0EE
:104FA00007FF0020F9E7200000F057F8FDF706FDA5
:104FB000200000F087F800289AD0F2E704F0F8FE0D
:104FC000200010BDF8B50400100000260027A56BD6
:104FD000226C002A08D12068002827D1A068FDF79C
:104FE000B7FF0700A66021E006000CD16068FDF75E
:104FF000A1F86068216C40186060A168884215D3F0
:105000002068606012E0E068FDF794F8216C484287
:10501000E1680918E1602268914202D2A16808188B
:10502000E060022E02D1002D00D06D1E6D1CA56324
:105030003800F2BD0B00026C002A00D1704710B599
:10504000C1688918C1608468A14201D30168C16048
:10505000C1681800FDF76EF810BDF8B5050004F042
:105060009BFE2F00443701203C5608E028002430E6
:10507000FDF744FE002801D0FDF7E9FE641E60B292
:10508000012802DB686A0028F0D10024E4437C7028
:1050900004F08EFE04F080FE44202E5608E0280026
:1050A0001030FDF72BFE002801D0FDF7D0FE761E54
:1050B00070B2012802DB28690028F0D13C7004F0AE
:1050C00077FEF1BD10B5040004F066FEA06B441E2F
:1050D000A441E40F72E7000030B50022002300284D
:1050E00001D172B6FEE7002914D00B4CD50064192B
:1050F0006568A84209D0002B03D12568002D00D196
:105100002300521C082AF0D300E02300002B01D01A
:105110001960586030BD00009431002070B5040063
:105120000D00160004F038FE00200021C94344227F
:10513000A2568A4201D14423E0544522A2568A4213
:1051400001D14521605404F033FEA06B002805D145
:105150003200290020002430FDF7AEFD2000FFF7CB
:105160007CFF70BD10B5FFF7E7FB424C211D00200E
:10517000FFF705FC210014310120FFF700FC201D82
:10518000206010BD3EB53B4D022802D12C001434E6
:1051900000E02C1D2C6001936B461B8B00930B00D1
:1051A00001002000FFF72CFC002805D0022801D1C7
:1051B000002000E00120C0433EBDF8B584B00E00E1
:1051C00019002C4C022E03D125001435012301E0D7
:1051D000251D00230700256028466D466A8103913E
:1051E0000A9D022F08D102A900912B00039A69465B
:1051F0004989FFF7EEFB0FE0002F03D101001800F3
:10520000FFF7BDFB02A801900095039B6846428909
:1052100031002068FFF7C7FB010001D1002005E045
:10522000042801D1022000E00120C04305B0F0BDF8
:1052300010B5140023000A0001000E480068FFF7B3
:105240007BF9002804D001D5200010BD0220C04306
:1052500010BD80B5022807D106490868143188427C
:1052600007D0FFF74DFC01BD032802D10020FFF756
:1052700071FC01BDFC3200200120FFE719490860E4
:10528000002070470120C04316490968012900D158
:10529000002070470020EFF3108172B6114A1368A6
:1052A000012B02D00120C04301E00323136081F3EE
:1052B000108870470020EFF3108172B6094A136816
:1052C000032B02D00120C04301E00123136081F3CE
:1052D0001088704780B50A00034905F0BAFE02BD88
:1052E000000000000003002098120410F1B5012412
:1052F0005A4D5B4F00260078012804D028D303289C
:105300001ED019D3F1BD009840684078012806D11D
:10531000002000F00DFB2800FCF750FFBC70009847
:1053200040684078002813D100F006FB28002830A0
:10533000FCF744FFBE70F1BD3C702800503002E025
:105340003E7028008430FCF739FF46A0FCF736FF9A
:10535000F1BD80B542490278002A02D0012A03D06B
:1053600001BD4088C88001BD3F48C88000F019F8E1
:1053700001BD00001CB53A4C3B48E08005F070FFD1
:10538000200008300190012000900023C82200BFB7
:1053900039A13648FDF7FCF90020207000F001F833
:1053A00013BD80B5002000F0C7FA01202C494870D9
:1053B00000228A70C8700A7101BD3EB52C48009069
:1053C000694600220A71264C2279551EAD41ED0F27
:1053D00001220270457002200871264821780129B7
:1053E0000BD1FCF7EBFEE2881F48824203D06946EE
:1053F000012005F060FF257137BD3C30FCF7DEFE73
:10540000F9E7FEB51B4F164C194D6E460AE0380001
:10541000FCF7D4FEE2881448824203D0694601209A
:1054200005F049FF0022D24301210020FDF7C6FD0F
:105430000095002030712079401E8041C00F2071FE
:105440000121297068700220307120780128DED097
:1054500038003C30FCF7B2FEE4E7000058110410BD
:1054600068330020200A0D00FFFF000003540410E1
:10547000D82B00201012041053454E445F4E4F5459
:105480004946000002490968488200207047C0462A
:1054900080330020010042221201D21E004207D0B8
:1054A00002D4521E0018FCD5C10A40051205891805
:1054B000704700000100EED54042F446FFF7EBFFD5
:1054C0000122D20711436047F0B50E005E4001256E
:1054D000ED072E40B446AE0ADF184C18F44208D24D
:1054E000F7420ED2640D01D07F0D12D1002061462B
:1054F000F0BD05D1F74201D87F0D05D10020C14391
:10550000F0BDFBD1640DF9D00020C1434905490825
:105510008FE0E419C902DB0229432B43DB0A460D65
:10552000C00231438E4630B487B295B27D432E0C13
:10553000ADB2140C7C43A419260C240425439CB260
:105540007C43A419190C7943270CC919A4B20F0480
:105550003C43090C000C97B247432E0CBE1935434F
:10556000ADB2170C4743360CBF19A6B2BF193E04A3
:105570003543240C3E0C36199FB24743BF19BCB2C9
:105580003E0C89191F0C47437F183E043443390CE5
:10559000704680B297B247432E0CBE193543ADB268
:1055A000170C4743360CBF19A6B2BF193E0435434A
:1055B000240C3E0C36199FB24743BF19BCB23E0CB7
:1055C00089191F0C47437F183E043443390C774632
:1055D0003F0C90B278432E0C80190604ADB22E43D6
:1055E000050CA0B22D18120C7A435019020C80B28F
:1055F000240CA4189AB27A43121914042043120CF2
:1056000089181B0C7B43C91830BCEF0A394203D1FF
:10561000B61940414941641E6F12BF0DE41B0BDBFC
:10562000FF19BC4211DA240500274208AE41784137
:10563000614166463143F0BD641C05D1401C6141A7
:10564000CF0201D34908F4E750E75DE730B4012405
:1056500064054D00EC420BD85D00EC4208D80C000C
:105660001C4364000443144304D28B4200D18242A1
:1056700030BC7047FCD09942FAD19042F8E7030061
:10568000FFFFFFFFFFFFFFFFFFFFFFFFFFFF010027
:1056900000000000FFFF01000000FFFFF4464A1871
:1056A00005D200F00FF801D580174008604700F0E0
:1056B00009F80121C907884200D908004042604723
:1056C0004A1812D2400DC90208430121C9070843F4
:1056D000520D40210901521A521C06D452421F3267
:1056E00001D4D0407047C017704700207047F0B415
:1056F0000125ED070F005F404FD48B4200D182425D
:1057000005D98446100062468C4619006346DF18AE
:105710004C18640D7F0D3AD0661C760537D0E61B19
:10572000352E34DCDB022B43DB0A0C0DC902294386
:10573000C912202E0DDB1700203E06D01F00F741B6
:10574000F3405F400026012A7741C01871410DD215
:1057500017E01700F741F2405740F3415A40B34079
:10576000F3405A400026801859410AD3A21C520522
:105770000FD0C207012F724117004008CB07184312
:105780004908641C24054208AF4170416141F0BCE6
:105790007047641C21050020F9E76B4010E06B4066
:1057A000ABE7F742F3D1E943F1E72442EFD1002020
:1057B0000021ECE7F0B40125ED070F005F40EED4C7
:1057C0000C00871A9C4105D2C01BA141D21963412C
:1057D00069406B40AE0ADF184C18F442E1D2640D08
:1057E0007F0DE2D0E61B362ED1DCDB022B43DB0A39
:1057F000A4460C0DC9022943C90A012E28DC04D194
:10580000D6075208DF073A435B08EF0A7642904119
:10581000994114D039423BD1B61940414941761CD7
:10582000394204D1761C001849413942FAD0B943B3
:105830006746B74208D9A41B24052143A7E70042C5
:10584000EAD13642E8D1A2E7E40AE10700209EE768
:10585000202E0BDD203E1F00F340F7415F40012A60
:10586000002257417E42984191410BE01700F741D9
:10587000F2405740F3415A40B340F3405A407E4211
:10588000904199410A0303D2641EB619404149412F
:105890000027641E24054208AE4178416141F0BCF6
:1058A0007047FEE7021D13688B43136002681143C3
:1058B0000160704781B08F490A6802430A60096835
:1058C00008400090009801B0704730B585B00400E2
:1058D0000820FFF7EFFF79486100451829880091FB
:1058E00001210191029102210391A100441869460E
:1058F000A06805F015FD72480068C00610D5A068C4
:105900009021C905884203D100997B48FFF7CAFF5F
:10591000A0687A49884203D100997948FFF7C2FF0D
:1059200001222988A06805F0A9FD002005B030BD3E
:1059300080B5624B002202E080B5604B012241003D
:10594000595A80001818806805F098FD002002BDA3
:1059500070B586B006000C00300001D1042000E0D4
:105960000820FFF7A7FF2000664D7100695A0191DA
:105970000121039102210491B1006C18010006D1AC
:105980000020029001A9E06805F0CAFC1FE0012890
:105990001DD1802040005C490A6802430A60096802
:1059A00008400090009880204002029001A9E06821
:1059B00005F0B6FC280008308519002203210020DC
:1059C000285605F098FD0020285605F099FD3C4822
:1059D0000068C00610D5E0689021C905884203D14F
:1059E00001994548FFF75EFFE0684449884203D1CA
:1059F00001994348FFF756FF002006B070BD80B5FF
:105A0000404A4100515A80001018C06805F030FD2E
:105A1000401E8041C00F02BD80B505F035FD01BDBF
:105A2000F0B587B00F0000250024002F01D101241C
:105A30003FE036499422424389180091344980005E
:105A40000858009908600420FFF734FF0420FFF78E
:105A500031FF8020C0002F490A6802430A600968AC
:105A6000084001900198802080000290022003905D
:105A700005900120049006959026F60502A93000B5
:105A800005F04EFC0E480068C00603D502991A487E
:105A9000FFF708FF802040000290069502A9300021
:105AA00005F03EFC3900009805F03AFD002801D0D1
:105AB0000324E443200007B0F0BD000014030020DD
:105AC00000005048F8B50024104E009115009427AE
:105AD0000BE0FA239B000122009801190E48007880
