:020000041004E6
:1000000000000120F16A0510116B0510136B05103B
:1000100000000000000000000000000000000000E0
:10002000000000000000000000000000156B05103B
:100030000000000000000000176B0510196B051090
:10004000734E041063640410B77D04104B870410D2
:10005000EF8E0410238F0410239004107F9A041055
:10006000216B051083A6041033A704102BAE0410D7
:1000700083AE04103D6B0510000000006F6B05108F
:100080007D6B051073B304105F6B0510000000005A
:10009000576B05100000000000000000476B0510C2
:1000A0004F6B0510676B051000000000000000009A
:1000B0000000000000000000000000000000000040
:1000C000840D0020262500002800020200001E00EA
:1000D000F7000000FFFFFFFF6400011008000003AD
:1000E000F70001000001010202020200000100030A
:1000F000000400004572726F7220696E20424C4508
:100100005F535441434B5F496E697428292030780E
:10011000253032780D0A000020204661696C2020CD
:10012000203A206163695F68616C5F7365745F7416
:10013000785F706F7765725F6C6576656C20636F52
:100140006D6D616E642C20726573756C743A20302D
:1001500078253032580A0000202053756363657398
:10016000733A206163695F68616C5F7365745F7483
:10017000785F706F7765725F6C6576656C20636F12
:100180006D6D616E640A000020204661696C20205C
:10019000203A206163695F676174745F7372765F90
:1001A00070726F66696C655F696E697420636F6DEC
:1001B0006D616E642C20726573756C743A203078B2
:1001C000253032580A0000002020537563636573A0
:1001D000733A206163695F676174745F7372765FFD
:1001E00070726F66696C655F696E697420636F6DAC
:1001F0006D616E640A00000020204661696C202059
:10020000203A206163695F6761705F696E6974207D
:10021000636F6D6D616E642C20726573756C743ADA
:10022000203078253032580A000000002020537515
:1002300063636573733A206163695F6761705F69C7
:100240006E697420636F6D6D616E640A000000005A
:1002500020205374617469632052616E646F6D2055
:10026000426C7565746F6F74682041646472657365
:10027000733A20253032783A253032783A253032B8
:10028000783A253032783A253032783A253032784B
:100290000A00000020204661696C2020203A204797
:1002A00061705F70726F66696C655F7365745F64BF
:1002B00065765F6E616D65202D20446576696365A6
:1002C000204E616D652C20726573756C743A203018
:1002D00078253032580A0000202053756363657317
:1002E000733A204761705F70726F66696C655F7307
:1002F00065745F6465765F6E616D65202D20446571
:1003000076696365204E616D650A000020204661B4
:10031000696C2020203A204761705F70726F6669B7
:100320006C655F7365745F617070656172616E6347
:1003300065202D20417070656172616E63652C20AF
:10034000726573756C743A203078253032580A0023
:100350002020537563636573733A204761705F7043
:10036000726F66696C655F7365745F6170706561FB
:1003700072616E6365202D20417070656172616EDF
:1003800063650A0020204661696C2020203A2061C4
:1003900063695F6761705F7365745F696F5F6361F5
:1003A000706162696C69747920636F6D6D616E64F0
:1003B0002C20726573756C743A2030782530325871
:1003C0000A0000002020537563636573733A20614F
:1003D00063695F6761705F7365745F696F5F6361B5
:1003E000706162696C69747920636F6D6D616E64B0
:1003F0000A00000020204661696C2020203A20611C
:1004000063695F6761705F7365745F73656375725D
:100410006974795F726571756972656D656E747303
:1004200020636F6D6D616E642C20726573756C74E2
:100430003A203078253032580A00000020205375C9
:1004400063636573733A206163695F6761705F73AB
:1004500065745F73656375726974795F72657175D0
:100460006972656D656E747320636F6D6D616E6426
:100470000A00000020204661696C2020203A20619B
:1004800063695F6761705F636F6E666967757265E8
:100490005F66696C7465725F6163636570745F61E8
:1004A0006E645F7265736F6C76696E675F6C69739B
:1004B0007420636F6D6D616E642C20726573756C52
:1004C000743A203078253032580A000020205375C5
:1004D00063636573733A206163695F6761705F632B
:1004E0006F6E6669677572655F66696C7465725F69
:1004F0006163636570745F616E645F7265736F6C76
:1005000076696E675F6C69737420636F6D6D616E81
:10051000640A0000536572766963657320616E64D6
:10052000204368617261637465726973746963738F
:10053000206372656174696F6E0A0000456E642005
:100540006F6620536572766963657320616E6420FF
:10055000436861726163746572697374696373205F
:100560006372656174696F6E0A0000003E3E3D3D36
:10057000204843495F444953434F4E4E45435449F5
:100580004F4E5F434F4D504C4554455F4556545F69
:10059000434F44450A00000020202020202D204306
:1005A0006F6E6E656374696F6E2048616E646C6512
:1005B0003A2020203078253032580A202020202070
:1005C0002D20526561736F6E3A20202020307825EF
:1005D0003032580A000000003E3E3D3D204843496D
:1005E0005F4C455F434F4E4E454354494F4E5F5518
:1005F00050444154455F434F4D504C4554455F5323
:1006000055424556545F434F44450A002020202060
:10061000202D20436F6E6E656374696F6E20496E86
:1006200074657276616C3A20202025642E25303264
:1006300064206D730A20202020202D20436F6E6ED1
:10064000656374696F6E206C6174656E63793A20BE
:1006500020202025640A20202020202D2053757082
:100660006572766973696F6E2054696D656F757414
:100670003A2020202564206D730A00003E3E3D3D57
:10068000204143495F4741505F50524F435F434FC2
:100690004D504C4554455F56534556545F434F4467
:1006A000450A00003E3E3D3D204143495F474150E1
:1006B0005F4B455950524553535F4E4F544946493D
:1006C000434154494F4E5F56534556545F434F4440
:1006D000450A00003E3E3D3D204143495F474150B1
:1006E0005F504153534B45595F5245515F565345F7
:1006F00056545F434F44450A000000003D3D3E3ED6
:10070000206163695F6761705F706173736B6579A6
:100710005F72657370203A204661696C2C207265A7
:1007200061736F6E3A203078253032580A0000002D
:100730003D3D3E3E206163695F6761705F7061733C
:10074000736B65795F72657370203A2053756363CC
:100750006573730A000000003E3E3D3D2041434961
:100760005F4741505F4E554D455249435F434F4DA2
:1007700050415249534F4E5F56414C55455F565379
:100780004556545F434F44450A0000003D3D3E3E00
:10079000206163695F6761705F6E756D6572696323
:1007A0005F636F6D70617269736F6E5F76616C7598
:1007B000655F636F6E6669726D5F7965736E6F20DA
:1007C0003A204661696C2C20726561736F6E3A2025
:1007D0003078253032580A003D3D3E3E2061636945
:1007E0005F6761705F6E756D657269635F636F6D82
:1007F00070617269736F6E5F76616C75655F636F50
:100800006E6669726D5F7965736E6F203A205375FD
:1008100063636573730A00003E3E3D3D20414349DA
:100820005F4741505F50414952494E475F434F4DEA
:10083000504C4554455F56534556545F434F4445CD
:100840000A00000020202020202D205061697269BC
:100850006E67204B4F0A20202020202D20537461EA
:100860007475733A203078253032580A20202020C1
:10087000202D20526561736F6E3A2030782530321A
:10088000580A000021212120537461727420766976
:10089000727475616C2074696D657220746F207557
:1008A0007064617465206D6F75736520636F6F721E
:1008B00064696E61746573210A0000003E3E3D3D2F
:1008C000204143495F474154545F5352565F52455C
:1008D00041445F56534556545F434F44450A000018
:1008E0003D3D3E3E20636F6E6E656374696F6E5F63
:1008F000636F6D706C6574655F6576656E742046B8
:1009000061696C2C205374617475733A20307825BA
:100910003032580A000000003E3E3D3D20686369C9
:100920005F6C655F636F6E6E656374696F6E5F6346
:100930006F6D706C6574655F6576656E74202D20D3
:10094000436F6E6E656374696F6E2068616E646C70
:10095000653A203078253034580A000020202020C5
:10096000202D20436F6E6E656374696F6E20657312
:100970007461626C6973686564207769746820408B
:100980003A253032783A253032783A253032783A82
:10099000253032783A253032783A253032780A00DC
:1009A00020202020202D20436F6E6E656374696FB8
:1009B0006E20496E74657276616C3A202020256441
:1009C0002E25303264206D730A20202020202D2017
:1009D000436F6E6E656374696F6E206C6174656ED3
:1009E00063793A2020202025640A20202020202D11
:1009F000205375706572766973696F6E2054696DE6
:100A0000656F75743A202564206D730A000000003C
:100A10006863695F6C655F726561645F70687920A7
:100A20006661696C7572653A20726561736F6E3DBF
:100A30003078253032580A003D3D3E3E20686369DB
:100A40005F6C655F7365745F7068792050485920EA
:100A5000506172616D202054583D2025642C205235
:100A6000583D202564202D20000000006163695F4F
:100A70006761705F7465726D696E6174652066612F
:100A8000696C7572653A20726561736F6E3D30787E
:100A9000253032580A0000003D3D3E3E206163692A
:100AA0005F6761705F7465726D696E617465203A2D
:100AB00020537563636573730A0000006163695FA7
:100AC000676174745F636C745F65786368616E6797
:100AD000655F636F6E666967206661696C757265D4
:100AE0003A20726561736F6E3D3078253032580A56
:100AF000000000003D3D3E3E206163695F67617418
:100B0000745F636C745F65786368616E67655F636B
:100B10006F6E666967203A20537563636573730A65
:100B2000000000003D3D3E3E206163695F676170EB
:100B30005F7365745F6164766572746973696E670B
:100B40005F636F6E66696775726174696F6E202D81
:100B5000206661696C2C20726573756C743A203064
:100B600078253032580A00003D3D3E3E20537563E3
:100B7000636573733A206163695F6761705F736572
:100B8000745F6164766572746973696E675F636FC1
:100B90006E66696775726174696F6E0A00000000A5
:100BA0003D3D3E3E206163695F6761705F736574C0
:100BB0005F6164766572746973696E675F6461749E
:100BC00061204661696C65642C20726573756C7474
:100BD0003A203078253032580A0000003D3D3E3E34
:100BE00020537563636573733A206163695F67615E
:100BF000705F7365745F6164766572746973696E42
:100C0000675F646174610A003D3D3E3E2061636937
:100C10005F6761705F7365745F6164766572746944
:100C200073696E675F656E61626C65204661696CB1
:100C300065642C20726573756C743A2030782530A9
:100C400032580A003D3D3E3E205375636365737321
:100C50003A206163695F6761705F7365745F6164A7
:100C6000766572746973696E675F656E61626C65E3
:100C70000A00000044697361626C652061647665F6
:100C800072746973696E67202D206661696C2C200F
:100C9000726573756C743A203078253032580A00CA
:100CA0003D3D3E3E2044697361626C65206164761F
:100CB0006572746973696E67202D2053756363656F
:100CC00073730A006163695F6C326361705F636FA5
:100CD0006E6E656374696F6E5F706172616D65746D
:100CE00065725F7570646174655F726571202D2037
:100CF0006661696C2C20726573756C743A2030786B
:100D0000253032580A0000003D3D3E3E20616369B7
:100D10005F6C326361705F636F6E6E656374696F81
:100D20006E5F706172616D657465725F757064612C
:100D300074655F726571202D2053756363657373ED
:100D40000A0000003D3D3E3E206163695F676170BF
:100D50005F636C6561725F73656375726974795FF7
:100D60006462202D204661696C2C20726573756C5D
:100D7000743A203078253032580A00003D3D3E3E1E
:100D8000206163695F6761705F636C6561725F7347
:100D9000656375726974795F6462202D2053756391
:100DA000636573730A00000020204661696C20208F
:100DB000203A206163695F676174745F7372765F64
:100DC0006164645F7365727669636520636F6D6DDE
:100DD000616E643A204241532C206572726F72201A
:100DE000636F64653A2030782578200A000000009F
:100DF0002020537563636573733A206163695F678D
:100E00006174745F7372765F6164645F7365727638
:100E100069636520636F6D6D616E643A2042415372
:100E2000200A000020204661696C207265676973A2
:100E3000746572696E67204241532068616E646C0C
:100E40006572730A0000000012100400FB349B5FFF
:100E50008000008000100000192A0000100000002F
:100E6000010000009C010020B8010020FB349B5FC2
:100E700080000080001000000F180000100000002B
:100E80000100000000000000000000000100000060
:100E9000480E04100100000001000000780D002041
:100EA0002D2D2042415454455259204C4556454C15
:100EB000204150504C49434154494F4E20534552D4
:100EC000564552203A204E4F5449464943415449D1
:100ED0004F4E20454E41424C45440A002D2D2042A4
:100EE000415454455259204C4556454C2041505090
:100EF0004C49434154494F4E205345525645522088
:100F00003A204E4F54494649434154494F4E20449C
:100F1000495341424C45440A0000000020204661EC
:100F2000696C2020203A206163695F676174745F97
:100F30007372765F6164645F73657276696365205E
:100F4000636F6D6D616E643A204449532C20657265
:100F5000726F7220636F64653A2030782578200ABA
:100F6000000000002020537563636573733A2061AD
:100F700063695F676174745F7372765F6164645FF5
:100F80007365727669636520636F6D6D616E643A37
:100F900020444953200A000020204661696C2072D9
:100FA00065676973746572696E6720444953206888
:100FB000616E646C6572730A000000000210040028
:100FC000FB349B5F8000008000100000292A000095
:100FD000100000000000000000000000C40100201C
:100FE00002100400FB349B5F8000008000100000B2
:100FF000242A000010000000000000000000000093
:10100000D001002002100400FB349B5F80000080B0
:1010100000100000262A0000100000000000000060
:1010200000000000DC01002002100400FB349B5F84
:101030008000008000100000282A0000100000003E
:101040000000000000000000E80100200210040081
:10105000FB349B5F8000008000100000502A0000DD
:10106000100000000000000000000000F40100205B
:10107000FB349B5F80000080001000000A18000015
:10108000100000000100000000000000000000004F
:1010900005000000BC0F041000000000020000006A
:1010A00030000020000000000800000014020020B2
:1010B0000000000001000000F40600200000FFFF17
:1010C0000000000004000000BC100410000000003C
:1010D00002000000320000200000000001000000BB
:1010E0009AD104100100000001000000790D0020D9
:1010F00020000000FB349B5F800000800010000097
:10110000052A00001000000001000000F802002085
:10111000C01004100A000000FB349B5F80000080B8
:1011200000100000292B000010000000000000004B
:1011300000000000CC10041002000000FB349B5F94
:1011400080000080001000002A2B0000100000002A
:10115000000000000000000000000000020000008D
:10116000FB349B5F80000080001000003A2B0000E1
:10117000100000000000000000000000D810041063
:101180004143495F474154545F4154545249425589
:1011900054455F4D4F4449464945445F5653455673
:1011A000545F434F444520484944535F494E50558E
:1011B000545245505F4E4F544946595F444953413C
:1011C000424C45445F4556540A0000004143495F84
:1011D000474154545F4154545249425554455F4D20
:1011E0004F4449464945445F56534556545F434F23
:1011F000444520484944535F494E50555452455048
:101200005F4E4F544946595F454E41424C45445FFD
:101210004556540A0000000020204661696C2020D9
:10122000203A206163695F676174745F636F6E6603
:1012300069726D5F696E6469636174696F6E206362
:101240006F6D6D616E642C20726573756C743A20DD
:1012500030782578200A0000202053756363657379
:10126000733A206163695F676174745F636F6E6670
:1012700069726D5F696E6469636174696F6E206322
:101280006F6D6D616E640A0020204661696C2020DC
:10129000203A206163695F676174745F7372765F7F
:1012A0006164645F7365727669636520636F6D6DF9
:1012B000616E643A20484944532C206572726F7203
:1012C00020636F64653A2030782578200A0000009A
:1012D0002020537563636573733A206163695F67A8
:1012E0006174745F7372765F6164645F7365727654
:1012F00069636520636F6D6D616E643A204849448F
:1013000053200A0020204661696C2072656769736A
:10131000746572696E6720484944532068616E6441
:101320006C6572730A00000002100400FB349B5FBE
:1013300080000080001000004A2A00001000000019
:1013400000000000000000004C0400200410040015
:10135000FB349B5F80000080001000004C2A0000DE
:1013600010000000000000000000000058040020F1
:1013700002100400FB349B5F80000080001000001E
:101380004B2A0000100000000000000000000000D8
:10139000E80300201A100000FB349B5F80000080EF
:1013A000001000004D2A00001000000002000000A4
:1013B0005403002048030020FB349B5F8000008022
:1013C00000100000121800001000000001000000D2
:1013D00000000000000000000400000028130410BA
:1013E00020204661696C2020203A206163695F6794
:1013F0006174745F7372765F6E6F74696679204989
:101400004E50555452455020636F6D6D616E642C83
:10141000206572726F7220636F64653A20307825A0
:1014200032580A002020537563636573733A206154
:1014300063695F676174745F7372765F6E6F7469FE
:10144000667920494E50555452455020636F6D6D5A
:10145000616E640A0000000001000000010000004D
:101460007A0D0020484944535F494E505554524527
:10147000505F4E4F544946595F454E41424C45449A
:101480005F4556540A000000484944535F494E5096
:1014900055545245505F4E4F544946595F44495345
:1014A00041424C45445F4556540A000053656E6402
:1014B000696E67206F66205265706F7274204D618F
:1014C00070204661696C6564206572726F722030AD
:1014D0007825580A0000000053656E64696E672025
:1014E0006F662048494420496E666F726D61746969
:1014F0006F6E204661696C6564206572726F722040
:10150000307825580A0000004572726F72207768A3
:10151000696C652073656E64696E67207468652008
:10152000686964207265706F72742E20286572720B
:101530006F72203D20307825303278290A00000073
:1015400000F0071000080000AA02000000F80710D1
:10155000F80701000000000096C298D84539A1F4B0
:10156000A033EB2D817D0377F240A463E5E6BCF860
:1015700047422CE1F2D1176BF551BF376840B6CB2B
:10158000CE5E316B5733CE2B169E0F7C4AEBE78E27
:101590009B7F1AFEE242E34F20204661696C2020C7
:1015A000203A206163695F676174745F7372765F6C
:1015B0006164645F7365727669636520636F6D6DE6
:1015C000616E643A20534350532C206572726F72DF
:1015D00020636F64653A2030782578200A00000087
:1015E0002020537563636573733A206163695F6795
:1015F0006174745F7372765F6164645F7365727641
:1016000069636520636F6D6D616E643A205343506A
:1016100053200A0020204661696C20726567697357
:10162000746572696E6720534350532068616E641D
:101630006C6572730A00000004100400FB349B5FA9
:1016400080000080001000004F2A00001000000001
:101650000000000000000000F8050020101000004D
:10166000FB349B5F8000008000100000312A0000E6
:101670001000000001000000DC0500200000000058
:10168000FB349B5F800000800010000013180000F6
:101690001000000001000000000000000000000039
:1016A00002000000381604100100000001000000D4
:1016B0007E0D0020686A6C747A4C00007072696E4E
:1016C00074665F733A20256E20646973616C6C6F79
:1016D000776564007072696E74663A206261642096
:1016E000256E20617267756D656E74007072696E2B
:1016F00074665F733A2062616420257320617267AB
:10170000756D656E74000000000000006E616E0073
:101710004E414E00696E6600494E460030002E0074
:10172000FB349B5F8000008000100000292B00002C
:1017300010000000FB349B5F800000800010000060
:10174000052A000010000000020000000300000055
:10175000030000000600000003000000030000007A
:101760003C0000007000000070000000D00300008A
:1017700070000000C301000075750510B3BA0410B5
:1017800067BC04103FBF04105FBE0410D5270410CF
:10179000C9C305109F290410A7290410AF290410FC
:1017A000B7290410BF290410157B05106F290410F8
:1017B0005F29041077290410BFCE04102FB904103C
:1017C000F5270410B128041091280410992804105A
:1017D000017A05101DC6051079C405101DC8051035
:1017E0002FCA05102FCA051045CB05101DC80510BE
:1017F0001FCD05101FCD05101FCD051021C70510E9
:1018000033C40510F7C3051045CB0510E5270410B8
:10181000ED270410D7D00510DFD00510DBD0051060
:10182000152804101D280410252804102D28041044
:101830008BD005103D280410452804104D280410B5
:101840003528041093D005109BD005109FD00510AB
:101850008FD0051097D00510F0B595B0062104A8DB
:1018600000F0B6FD0620694608730020C881934C3D
:1018700008A82100342200F0B3FD08A800F0E6FD1E
:10188000010005D02000343000F016FE00F0D1FE3B
:101890001821002000F0D2FE002805D00100200011
:1018A000583000F009FE03E02000983000F004FEFC
:1018B00007A9891C012000F0C5FE002805D0010001
:1018C0002000C83000F0F8FD04E08420400020181B
:1018D00000F0F2FD0121002000F0E8FE002806D013
:1018E00001009C204000201800F0E6FD04E0B62036
:1018F0004000201800F0E0FD06A8009006AB9B1CFD
:1019000007AA0021012000F0D9FE04AA03A9802023
:1019100000F05CFF04A80178029141780191817880
:101920000091C37802794179C8204000201800F066
:10193000C3FD00BF62A20921002000F0F4FE0028D0
:1019400006D00100EA204000201800F0B5FD04E0B8
:1019500086208000201800F0AFFD03AA921C02210F
:10196000002000F0E6FE002806D001009320800051
:10197000201800F0A1FD04E0A4208000201800F051
:101980009BFD012501209549087001F020F80028F1
:1019900006D00100B1208000201800F08DFD04E089
:1019A000C1208000201800F087FD002000908B49A6
:1019B00048700820C870102008718D70009E884DF6
:1019C000A85DA9194978092922D0FF293CD13021E5
:1019D000AA1991700099D170022111718D21517154
:1019E0008B2191710099D1710099117200995172F6
:1019F00004A94A79AB199A720A79DA72CA781A7309
:101A00008A785A734A789A730978AA19D1731BE0B5
:101A1000311869180A78582A16D14A1E1378582B9B
:101A200012D16B461B7C1B096F463F7C3F073F0F63
:101A3000092B01DD373300E030331370092F01DD4E
:101A4000373700E030370F703618761CB6B21F2ECD
:101A5000B6DB0020029010200190082000900023A7
:101A600001220021012000F0B6FF002806D001006D
:101A7000CD208000201800F01FFD04E0DF20800052
:101A8000201800F019FD5548807800280FD001205B
:101A900000F0ECFF002806D00100ED2080002018A7
:101AA00000F00AFD03E04F48201800F005FD00BFDC
:101AB00006A000F001FD15B0F0BD0000C00004104C
:101AC000484944204D6F7573650000003D3D3E3E22
:101AD00020456E6420424C455F496E6974206675EE
:101AE0006E6374696F6E0A0080B5012000F0CEFF4E
:101AF00000F0CFFF012000F0CAFF01BD80B501F06A
:101B0000DDF801BD80B50021022016E080B502F0AD
:101B100052FB01BD80B5FFF7F5FF01BD80B5FFF7B2
:101B2000F1FF01BD80B502F079FBFFF7EBFF01216A
:101B3000042002E080B50121012002F08FFC01BDEC
:101B4000F8B5294A0021012002F07BFC274A002138
:101B5000022002F076FC264A0021042002F071FCEB
:101B600002F0DEFC02F066FD0021C943884201D18B
:101B700000F05FFDFFF770FE184C0025A5731D48AF
:101B8000A08102F041FE1CA7380000F095FC1B4E1E
:101B9000300000F091FC02F0B1FD02F0FDFE02F019
:101BA0004AFF02F05AFF3000283000F085FC380070
:101BB00000F082FC012000F011FB114A002180207E
:101BC000800002F03EFC0F48A0610F492000103059
:101BD00001F0B0FA28202554F1BD0000D80B0020F8
:101BE0007C0100200C040000E91A0410FD1A041006
:101BF0000D1B0410FFFF00000A0000001405041074
:101C0000712304105523041060EA0000FEB505009E
:101C10002878042802D0822802D0F7BDEE1C00E00C
:101C20002E1D6978CD4FCE4C052908D0102900D142
:101C3000CCE13E2954D0FF2900D115E1D2E1287929
:101C400069790906090C0843C6498A89904212D16C
:101C5000C548888100208873200000F02DFC297978
:101C600068790006000C0143AA7920002C3000F0AE
:101C700023FC0020387500F063FBBC4C0120207071
:101C8000287969790906090C08436080200002F070
:101C900023FD01202071287969790906090C084380
:101CA000E080201D02F076FE0120207228796979FB
:101CB0000906090C084360812000083002F0BAFED2
:101CC00001202073287969790906090C0843E0810D
:101CD00020000C3002F0C0FE012000F07FFAF7BDBA
:101CE000E978012900D19EE0032906D00A2900D114
:101CF0008AE00C2900D183E0B3E020006C3000F0D2
:101D0000DBFBE879297A0906090C084302F0AAFEF0
:101D10000022B64B02F0C0FE002280235B0302F0DB
:101D20007DFFE879297A21D80906090C0843EE7964
:101D3000297A0906090C0E4302F094FE0022AB4BEF
:101D400002F0AAFE00900191300002F08BFE00220A
:101D5000A64B02F0A1FE02F089FF02F093FE020002
:101D60000B000098019903F00DF81EE00906090C1C
:101D70000843EE79297A0906090C0E4302F072FE37
:101D800000229A4B02F088FE02F070FF02F07AFE09
:101D900000900191300002F065FE0022944B02F0A9
:101DA0007BFE009A019B02F08AFF0022914B02F019
:101DB00073FE02F05BFFEA7A297B0906090C0A43ED
:101DC0006B7AA97A0906090C0B43E9792E7A360653
:101DD000360C31430A255543009506001D000800C6
:101DE00002F040FE0022814B02F056FE02F03EFF60
:101DF00001002B0032002000A03000F05DFBF7BD99
:101E0000012002F03BFBF7BDE87F6D1CE97F6D1EF2
:101E10000906090C08436A7FA97F0906090C0A43D1
:101E2000EB7E297F0BE0E87C297D0906090C08433D
:101E30006A7CA97C0906090C0A43EB7B297C09060C
:101E4000090C0B436979AC792406240C21430290D8
:101E5000019200932B0009332A7A287900F020F9A7
:101E6000F7BD00BF65A0BEE0307871780906090CA7
:101E70000843001FF4D06049401A4CD0401E10D0D7
:101E8000401F0AD0801E1FD0401E08D0C91F401A14
:101E9000E6D02331401A6ED091E0882012E09C20D9
:101EA00010E0B4204000201800F006FBC1492D4886
:101EB000808900F09EFD002803D00100C82040006A
:101EC00021E0E220400022E0F6204000201800F04F
:101ED000F3FA301D02F0CEFF010000BF4EA000F06B
:101EE000EBFA301D02F0C6FF010000BF51A000F068
:101EF000E3FA01211B48808900F07FFD002804D00F
:101F000001008820800020186DE09B2080002018B0
:101F100000F0D2FAF7BDAB208000201800F0CCFA18
:101F20003179002906D07279B6208000201800F09F
:101F3000C3FA02E045A000F0BFFA9FA000F0BCFA8F
:101F40003079002814D101203875C620800020186F
:101F500000F0B2FA02F01AFCF7BD00BFAC0C002092
:101F60006C050410D80B0020FFFF0000F40C0020CB
:101F700000203875F7BDD4208000201800F09CFAAE
:101F8000B179F0790006000C014300BF35A000F0E4
:101F900093FAB279F0790006000C02433179707936
:101FA0000006000C0143B078F3781B061B0C1843A5
:101FB000002301930093082300F044FDF7BD31781E
:101FC00070780006000C01432AA00CE0E878042891
:101FD0000BDABFF34F8F794879490860BFF34F8F11
:101FE00000BFFDE729A000F067FAF7BD0000F43F4D
:101FF0000000F4BF00005940FD0300004843495F62
:102000004C455F4D4554415F4556543A2030782544
:102010003032580A0000000020202020202D206EA1
:10202000756D657269635F76616C7565203D20250D
:10203000640A000020202020202D204865785F764B
:10204000616C7565203D2025780A00002020202045
:10205000202D2050616972696E6720537563636536
:1020600073730A0048616E646C65203078253034E3
:10207000580A00004843495F56454E444F525F4559
:1020800056543A203078253034580A004843495F86
:102090004556454E543A203078253032580A0000D3
:1020A000F8B588B0574D0024020005D0010045481E
:1020B00000F002FAAC737AE00E9F1E006846818140
:1020C000414800F0F9F93078029070780190B078CA
:1020D0000090F378327971793C4800F0EDF93800DE
:1020E00002F0C0FC06AA03C206A80CC800203849AA
:1020F00002F0D2FC06000F0002F0B8FD019002F0E1
:10210000C1FC04AA03C230003900002280235B0313
:1021100002F084FD04D804AA0CCA02F033FE09E0E0
:1021200006A80CC800202B4902F0B6FC04AA0CCA71
:1021300002F0C5FD0022284B02F0AEFC02F096FD35
:10214000020010980F9B0A214143009101997B489E
:1021500000F0B2F9A87B012801D1032000E00220A1
:10216000A87368468089A881804E3470684680894B
:102170007080300002F0B0FA347168468089F080D7
:10218000301D02F007FC347268468089708130008F
:10219000083002F04FFC347368468089F0813000CB
:1021A0000C3002F059FC2800103000F0E6FF09B0B6
:1021B000F0BD000040E201000A0000000400FA0542
:1021C0000CED00E0E0080410180904105C0904108C
:1021D0000000F43F0000F4BF00005940F1B58EB09C
:1021E00080200B90A027734C064E0EAA1278052A69
:1021F00042D801A39B5C9F440E041C7E325C0425E4
:1022000043E000BFD80B0020C820C0000B90FA2785
:102210003F01052539E0002500220021002002F0C1
:1022200034FE010000D17EE0992012E0C827BF00F3
:102230000B970025FA21490089B20091ABB23A0010
:102240000B9989B2B08900F00AFC00286ED0010019
:10225000AD20800061E01321B08900F0B4FB0028BC
:1022600003D0010020005C3058E02000883000F0EE
:1022700023F900F06AF85EE00EA80078012804D97E
:10228000801EC9D0801ED7D055E006210CA800F0D2
:102290009FF800200A9009900120089000200790E4
:1022A00001200690002005900490039002900720E2
:1022B000019000970B9B13220221002002F0E9FD00
:1022C000002806D001008A204000201800F0F4F811
:1022D00005E0B573AC204000201800F0EDF8374B56
:1022E0001F220321002002F009FE002806D0010071
:1022F000C8204000201800F0DFF804E0E62040008D
:10230000201800F0D9F80CAA0121012002F0BDFD2F
:10231000002806D00100FC204000201800F0CCF876
:1023200009E08D2003E0B573A42000E0BE2080000A
:10233000201800F0C1F80FB0F0BD0000A009041093
:1023400080B5012002F09AF801BD80B5012002F0AD
:102350009FF801BD80B500218020800002F07EF84A
:102360001749184800F0E6FE01BD0000F40C0020FB
:1023700080B5144800F001FF0220FFF72FFF002076
:10238000FFF72CFF01BD000070470B48807B02283F
:1023900000D1704780B500F034FB0B4A002804D010
:1023A0000100100000F088F801BD1000383000F086
:1023B00083F801BD100A0410D80B00207C01002016
:1023C00060EA0000E80B0020440D04107047000094
:1023D000002200BF094202D0491E4254FCD170477E
:1023E00070B4103A03D378C9103A78C0FBD25307BF
:1023F00001D318C918C001D508C908C0D20704D331
:102400000B880380891C801C002A01D50B7803707F
:1024100070BC70478B0701D18307E1D0124205D011
:102420000B78491C0370401C521EF9D17047830081
:1024300085000700070083008500050007000300F2
:1024400003000F000500820081000500B0B50546BD
:10245000C07A1224802829D8298C172926D3144819
:10246000821D914222D8298A17291FD381421DD863
:10247000A87E00281AD002F045FD002808D0E87E8A
:10248000002813D0802811D8287F401E0E280DD890
:1024900008483422294602F037FD02F0A1FD002849
:1024A00003D402F0D1FF002400E087242046B0BD11
:1024B000FA030000A40B00200EB4C0B5020003A86C
:1024C00001900020009001AB0121044878440C30B9
:1024D00003F024F8029906B0084700BFCD9E010022
:1024E00081B0314901E081B030490A6802430A6095
:1024F000096808400090009801B070477CB503F06F
:10250000B1FF00F05DF800F081F80420FFF7E8FF6C
:102510000820FFF7E5FF00F0BBFA00BF46A0006807
:102520000090234C206A0125ED430126304008D15C
:102530002068304320602068284020600120FFF799
:10254000D2FFC020C0050090684603F09DFF68469A
:102550000021002206C0206A304008D120680643CE
:1025600026602068054025600120FFF7BCFF114868
:1025700000681028FBD36846A02149000180002193
:102580008170019100F0D7FA0B480C49016004F00A
:102590000FF9002801D000F04CF8002004F072F987
:1025A00004F077FAFCE70000500040486000404823
:1025B00040004048101800601C0D0020000030480A
:1025C00080B588B0182102A8FFF702FF68460021F5
:1025D000002206C0032002908020400203901020B9
:1025E000059002A804F010FB002801D000F021F8AB
:1025F00000200090202001900021684604F02CFC6F
:10260000002801D000F015F809B000BD80B586B0F3
:1026100018216846FFF7DCFE02200090C0020590FA
:10262000684604F0B5FC002801D000F002F807B0BD
:1026300000BD72B6FEE700000000000080B504F0A7
:10264000E1FC80BDF8B506000F0000203880154C75
:10265000200000F0DAF9010023D1200000F0D9F9C0
:102660000400114DF00705D52100280000F0D5F930
:10267000010016D1280000F0D4F93880210028008C
:10268000243000F0CAF901000BD1210028004830A5
:1026900000F0C3F9010004D1210028006C3000F0E3
:1026A000BCF9F2BD14030020F010041080B502281C
:1026B00001D9122080BD04F0C9FC80BDFEB50C001C
:1026C000089F0025158002990D803D80052101405D
:1026D00027D0394E300000F098F9010022D1684629
:1026E0000470364C200000F09CF90199088020000D
:1026F000243000F096F902990880300000F089F942
:102700003D8069460978022906D1010020006C301D
:1027100000F083F9010005D12AA20821002000F071
:1027200002F80020FEBD70B504000D00160023481D
:1027300004E070B504000D001600214800F071F9A6
:1027400033002A002100401C80B200F001F870BD67
:10275000F3B581B017001D000024184E69460880AB
:1027600024206043301800F05CF9002804D0401C9D
:1027700069460988884202D0641C052CF0D3052CD8
:102780000BD068460389242044433419206A818889
:10279000DA19914201DB002801D11220FEBD290087
:1027A0003A008068C018FFF735FE206A0178890773
:1027B00000D547800020FEBDD00200201C02002072
:1027C0004002002053544D333257423080B504F05C
:1027D00097FC80BD80B504F011FD01BD80B504F00B
:1027E00033FD01BD80B504F057FD02BD80B504F096
:1027F0007DFD02BD80B504F0A9FD01BD80B504F0EA
:102800000DFE02BD80B504F00BFE02BD80B504F0E4
:1028100009FE02BD80B504F021FE02BD80B504F0C2
:102820004DFE02BD80B504F065FE02BD80B504F02A
:102830007DFE02BD80B504F0B9FE02BD80B504F096
:10284000FBFE02BD80B504F027FF02BD80B504F099
:1028500041FF02BD80B504F059FF02BD80B504F010
:102860008FFF02BD80B504F08DFF01BD80B504F07F
:10287000A1FF01BD80B504F0DDFF02BD1CB56C46B3
:10288000247D01946C46247C009405F029F813BD46
:1028900080B505F0D5F801BD80B505F0EDF801BDB6
:1028A00080B505F005F901BD80B505F059F901BD08
:1028B00080B505F0AFF901BD80B505F03BFA02BD6A
:1028C00080B505F079FA01BD80B505F07DFA02BD4D
:1028D00080B505F083FA02BD80B505F0AFFA01BD01
:1028E00080B505F025FB01BD80B505F05BFB02BDA1
:1028F00018B587B010AC247806940FAC24780594F2
:102900000EAC247804940DAC247803940CAC247899
:1029100002940BAC247801940AAC2478009405F05E
:1029200079FB08B010BD80B505F0A2FB01BD80B5F4
:1029300005F0B8FB01BD80B505F0D4FB01BD80B545
:1029400005F01AFC01BD80B505F036FC02BD80B56E
:1029500005F04EFC02BD80B505F078FC01BD80B5E8
:1029600005F0AEFC01BD80B505F08CFD01BD80B564
:1029700005F0A0FD01BD80B505F0A0FD01BD80B54D
:1029800005F062FE02BD80B505F0B4FE02BD80B563
:1029900005F0DCFE01BD80B505F028FF01BD80B566
:1029A00005F088FF01BD80B505F096FF01BD80B53B
:1029B00005F0B4FF01BD80B505F0D4FF01BD80B5C1
:1029C00006F08AF801BD80B506F09CF802BD80B51E
:1029D00006F09CF802BD1FB508AC247802946C4642
:1029E000247F01946C46247E009406F097F804B08E
:1029F00010BD80B506F0D6F802BD80B506F0DEF851
:102A000002BD80B506F0E2F802BD80B506F0E3F83D
:102A100002BD80B506F0E3F802BD80B506F0E3F82C
:102A200002BD80B506F0E3F802BD80B506F0E3F81C
:102A300002BD1CB5059C01946C46248A009406F0E6
:102A4000DEF816BD1CB5059C01946C46248A0094E2
:102A500006F0E4F816BD80B506F0E9F802BD1CB535
:102A60006C46248A009406F0E6F816BDE0B501A98C
:102A7000087001220846114606F0EAF8002800D046
:102A80008CBD01A8007806F001F98CBD7047704735
:102A9000704780B5002006F015F980BD010005D40F
:102AA0000121C006C00E81407B4801607047C168AB
:102AB0000322914302220A43C260704709E0C068C2
:102AC0008007800F022801D1012070470020704745
:102AD00000BFC16803229143C1607047C06880078E
:102AE000800F032801D10120704700207047016149
:102AF0007047816A8022D2050A4382627047816AE8
:102B0000664A0A40826270474162704700697047B6
:102B1000816A802292050A43826270476048026897
:102B200007239A434907490F1143016070478068A2
:102B30007047C0687047F1B501275A48C06B3843E9
:102B40005849C8630846806B384388631720FFF7ED
:102B5000A5FF1420FFF7A2FF5248406B38435149AC
:102B600048630846006B384308631820FFF796FF58
:102B700000980088C92800DAC8204B4D290084310C
:102B8000486100984068002800D001202870002685
:102B9000000603D100988078002813D04348C1680C
:102BA0003940FBD017210160C1683943C1604660DC
:102BB000C1683940FCD02800103000F059FBE869AA
:102BC000286209E0C82040032862E8613848A8610B
:102BD000384828613848686100984068002802D168
:102BE000A020C0050DE000030A2106F0CAF86860C5
:102BF000C54C200000F08EFA01006868884202D3BC
:102C0000200000F087FA68602E7200980088290082
:102C100058310861A96900F0B3FBBC4C002020705A
:102C200000212A005832183203C21E4800682900C9
:102C300058318862002000212A005832203203C215
:102C40002A00283203C234216854B14AA96968684D
:102C500006F0EEF8286328782074A6602773667360
:102C6000E681290058314E72290058314E81AE65F7
:102C7000EE65B448A8646E6500F053FA6A680023F4
:102C800012184B412800403000F0A8FB0121280019
:102C900000F01EFBF1BD000000E100E0FFFFFFBF00
:102CA0002818006010180060000800200410006060
:102CB000C2F528008D5B0000ECEB6501F8B58CB027
:102CC000002469460C70EFF3108572B69E4F3800F1
:102CD0005830407A00280BD000F023FABA6DFB6D13
:102CE0008B4205D801D3824202D238005830447258
:102CF00085F3108838009130019028E0401C1CE0DA
:102D0000046905738168002900D088472000F7D145
:102D100069460298406B00F0F3FB029948636846ED
:102D2000007801280DD1EFF3108172B60198007878
:102D3000421C019B5B789A42E0D1019A107081F3AA
:102D400010880198407805994018019948700198B9
:102D50004078019909780A1A02D28020400012189E
:102D60000025002A2AD0059278480290446B00265C
:102D70000494039402E0260024696D1C002C0FD0FB
:102D8000207B0028F7D000F0CCF902000B0003CC28
:102D9000083C801A99410029EDDB01DC0628EAD3C2
:102DA00028000025002802D03561049400E0039536
:102DB00004980299486303980028A8E7387A002805
:102DC00000D186E0624800680126304000D199E0D9
:102DD0003D72604CE078002804D1A078002801D032
:102DE000A57048E03878002822D002A800F040FA08
:102DF000049938005830006980B200F0C1FAEFF34E
:102E00001080019072B634217E5403987861049842
:102E1000B861029838610598F861380000F036FC16
:102E2000019880F310880021380000F051FA09E081
:102E3000EFF31080019072B6380000F027FC019883
:102E400080F31088694638005830406B00F058FB1A
:102E50003900583148636846007801280BD1EFF3F8
:102E6000108072B621784A1C63789A4200D0491CBF
:102E7000217080F31088E07A00281BD0E572334D72
:102E8000AE726946280000F049FC6946686B00F0A4
:102E900037FB68636846007801280BD1EFF3108098
:102EA00072B621784A1C63789A4200D0491C21707E
:102EB00080F310883800403000F05FF900F031F9FD
:102EC0007A68002312184B413800403000F086FA2F
:102ED00018E03878002815D000F023F93A0028329D
:102EE0000CCAFA246403A4185D418D420AD801D3A8
:102EF000844207D23800403000F03FF938004030BB
:102F000000F052FA0DB0F0BDFFEFFFFF8408002083
:102F1000260300007CB50500494806680A4C69464E
:102F2000200000F0A7FA03C5083D464AE169009871
:102F3000801B05F07DFF020003CD0023801A99411C
:102F40007CBD0000A93304100008002058080020B0
:102F50001010006091080020FEB5030000256C46AB
:102F60002572080000D00120374C21006031087123
:102F7000100000D00120602160542000283003C8D8
:102F80001A1A002312184B41A265E3652100603133
:102F90004D7021006031CD700120210060318870BA
:102FA00000F0BFF822006032D26A002A05D102A9DF
:102FB0002000583000F0B2FB3BE0C0CA083A8F4214
:102FC00015D301D8864212D3A06DE16D0090019116
:102FD00098202058002180197941009E019F8F423E
:102FE00005D301D8864202D3107B002817D102A94D
:102FF0002000583000F092FB20006030C26AA66DBD
:10300000E76D03CA083A8F4213D301D8864210D322
:10301000107B00280DD001209521605409E08A48DA
:1030200001784906490E017000218174C57400F0D1
:103030006BFC012000F00DFB6846007AFEBD00002D
:10304000140000603506000000080020F8B50320D9
:10305000C0437F490A6802400A600A68104008605D
:1030600082480168324A0A400260974C200058307A
:10307000002646724681EFF3108772B600F051F8D1
:10308000A26DE36D121A8B418420205C0021121A7C
:103090008B4114001D0087F310888C480068C00520
:1030A000C00D222801D000F02FFC002D04DC01DB34
:1030B000012C01D20120F2BD002D04DC01DB0F2C1C
:1030C00001D20220F2BD0020F2BDEFF3108072B6F3
:1030D0005E4909685E4A091D5160116803239943DE
:1030E00002230B43136080F31088704710B5C0248F
:1030F000E4052000FFF7E3FC002806D12000FFF7DD
:10310000EDFC002801D100F0FFFB10BD0020A54917
:103110000870704780B5994A6B49C96905F088FE07
:1031200002BD80B56946684800F0A4F904BD0000FE
:10313000FFFFFFBFF8B504000D00FFF7F2FF060028
:103140000F00290D28030A22002305F092FE8019A2
:10315000794102000B00200000F040F9040001203A
:1031600000F077FAE0B2F2BD10B500F037F90400D4
:10317000012000F06EFAE0B210BDF8B5964C21685F
:103180000E00002300250A0001E035003669002EFC
:1031900007D08642F9D137698E4201D13A0000E06A
:1031A0002F616D462B7003732068904215D06946DD
:1031B000100000F0A5F920606846007800280DD0C6
:1031C000EFF3108072B661794A1CA3799A4200D05D
:1031D000491C617180F31088F1BD2260F1BD3EB5DC
:1031E000002401940198384D69462800583000F0B9
:1031F00095FA280095300178002902D0047000F07B
:1032000009F8012097490A6802430A6009680840E2
:10321000019037BD18B500200090009992490871BF
:10322000924802680B4B134003600A78531C4C7899
:10323000A34200D0521C0A700121C2690A43C26134
:10324000C0690140009111BDC40000201018006049
:103250000C000060FFFFFFBFA348816801220A4302
:1032600082600021016070470000000028180060A3
:1032700070B504009D4D2800FFF759FC060028009A
:10328000FFF755FC8642F6D1002EF4D09849321251
:103290004A43F3B24B431912511810314911E160FE
:1032A00026602800FFF745FC06002800FFF741FCD8
:1032B0008642F6D1002EF4D0B0118E4948438030BA
:1032C0000012A060666070BD0008002004ED00E000
:1032D000F8B505000F00884C607A7D214843C9008D
:1032E00005F04CFD461CF6B2844AA9691B2005F086
:1032F0009FFD2070607800F02AF83D216854E07846
:10330000801900F024F8382168542079801900F0E1
:103310001EF839216854607900F019F83A21685490
:10332000A07900F014F83B216854002F06D0E07813
:10333000801900F004F81B303C216854F1BD68216D
:103340004143090ADB225043000C0818704700B5BE
:103350000200474840690021002305F0C9FD03220F
:10336000002305F0C5FD8022D204002312184B4132
:10337000D20E58010243100000BD000035060000C7
:1033800080B55E4A05F054FDBD49884201DD080064
:1033900002E0102800DA10200005000EB94908608C
:1033A00001BD00006308002010B5314C207A0028D0
:1033B00006D12078002801D0FFF74EFF01202072AF
:1033C000FFF7AFFE00226430514102000B002000E5
:1033D000403000F003F810BD8C080020FEB5002539
:1033E0006C462570017B002901D00120FEBD0CC078
:1033F000083801210173C44C26680196070001E0DA
:1034000035003669002E08D00CCE083E03CF083FA9
:103410008B42F5D301D88242F2D338000661002DE9
:1034200001D1019000E028610199814214D16946DF
:1034300000F066F820606846007800280ED0EFF3B0
:10344000108072B661794A1CA3799A4200D0491C57
:10345000617180F3108801E000F056FA6846007848
:10346000FEBD000044180060910800203018006084
:10347000000800207FB504000D00EFF3108672B63F
:10348000206F616F02AA03C2A048FFF73FFB030051
:103490002B609F4D02A803C8009001912A00E169AA
:1034A00080202058181A05F0C3FC0021009A019BC7
:1034B00080185941A26FE36F99420FD801D390420F
:1034C0000CD2009001912A00E1690020C04305F070
:1034D000AFFC0021009A019B80185941A067E16769
:1034E00086F3108804B070BD081000600010006002
:1034F000F6BC080053070000C500002026030000AA
:10350000F3B589B004460020087000E02469002C5F
:1035100000D19BE0207B0028F8D0EFF310800390CF
:1035200072B600206946087202A9491C794800F069
:10353000F5F8FFF7F6FD0CCC083C04AD0CC504AA69
:103540000CCA121A8B4106A80CC0012206A803C897
:10355000002970DB01DC01286DD36F4B986DD96DAC
:103560000090019104A803C898255E5900273618D9
:103570004F4100980199B94212D801D3B0420FD2FD
:103580006120185C00280BD09E6DDF6D04A803C875
:103590008F4207D301D8864204D395201A5401E004
:1035A00068460272384A9B6906A803C8190005F0EC
:1035B0003FFC0600202E00D82026544D2800FFF79F
:1035C000A5FA86190836EE622800FFF7A1FA286BE3
:1035D0008021C90501432963C027FF053800FFF793
:1035E0006EFA002829D13800FFF778FA002824D194
:1035F0006846007A002820D000F07DF931000F20C5
:1036000081432800FFF780FA00212800FFF786FA9F
:103610002800FFF76EFA2800FFF77AFA3E49080003
:10362000613042786123C95C114300D001214170AF
:103630000021017001E00A980270039880F310885D
:103640000A980078002801D0099800E020000BB00B
:10365000F0BD10B530490C009034002808D0207817
:1036600000280BD108004030FFF79EFE012004E047
:1036700008004030FFF781FD0020207010BD0000E1
:10368000FF0F00000818006026030000FEB50400CC
:103690001E48FFF73BFA0500206A0290270080379A
:1036A0001B4E320001463868281A05F0C1FB0200A3
:1036B0002000283003C80090019110000021009ADA
:1036C000019B80185941206761672078002811D13B
:1036D0003868281A216B88420CD2320002990020E7
:1036E000C04305F0A5FB226F636F0021801859418C
:1036F000206761673D60206F616F2200283203C23E
:10370000E0692062F7BD00008C080020001800600E
:10371000350600005808002000080020F3B589B0E5
:10372000002008700998807A002800D1E1E08C4CD4
:10373000200028300CC8606800218018594106AA72
:1037400003C2EFF31080049072B6FFF7EAFC0200A8
:103750000B00099803C802AD03C502A803C8009076
:10376000019106A803C8C826B602002736184F41A3
:1037700000980199B9420FD301D8B0420CD306A8E2
:1037800003C8B9267600002736184F419F4201D85A
:1037900002D3964200D3A6E000200A32434102A899
:1037A00003C800254C38A9418B4201D802D382427C
:1037B00000D392E00998027A02A803C805003C20D1
:1037C000205C0999097B012905D1002A01D0382103
:1037D00006E0392104E0002A01D03A2100E03B2133
:1037E000615C0091019002A92000FFF743FE2D1AB1
:1037F0005C4AA169280005F01BFB03905A4E5B4F01
:103800000198A16E4018C830A84203981DD2717863
:10381000401A0099451A029841193800FFF774F9C7
:1038200000213800FFF77AF9C020C005FFF746F9FC
:10383000C020C005FFF74CF93800FFF75AF93800EF
:10384000FFF766F90098717814E03D21615C401A39
:103850000099451A02984119C020C005FFF747F9A1
:103860003800FFF74CF9C020C005FFF720F9009899
:103870003D21615C40180299039A89182200683240
:103880001162317880220A433270F021B174FF2135
:10389000F1742A18411D8A420CD2C024E40520008C
:1038A000FFF70CF92000FFF713F93800FFF727F9AD
:1038B000012007E02E4AE16905F0BAFA21006831DB
:1038C000087700200A990870002009998872012061
:1038D000099A50720999C87208E062216554012062
:1038E0000A99087002E001209C216054049880F33A
:1038F00010880BB0F0BD1C4801784906490E0170D4
:1039000000218174C17470471CB51A4C6946206847
:10391000FFF7F6FD206068460078012806D160793F
:10392000411CA279914200D0401C607113BD80B54A
:10393000FFF770FCFEF7F2F801BD80B5FEF7EAF87C
:10394000FFF74DFC01BD81B00020009000980A48AF
:10395000016801220A4302600068009001B07047CC
:103960000008002026030000C400002000180060AA
:10397000350600008C0800207400006001680022F9
:1039800002814281828182730B78FF2B05D0FE2B4E
:1039900009D103895B1C03810AE04268511A091F9F
:1039A000818100207047002B0DD143895B1C43812E
:1039B0004A88D21C032313435B1CC9184A1D436861
:1039C0009A42E1D3EDE703207047F3B5079C0899CD
:1039D000250005D06D466C80FE242C706C4600E0FE
:1039E000446885684668AE4217D22678FF2E14D008
:1039F000067B002E04D0002606732678002E0ED1FA
:103A000046686488E41C032727437F1CF41944603C
:103A1000AC4202D22678FF2EEFD10420F6BDFE2E56
:103A200001D00320F6BD6E463679FF2E04D06678AD
:103A30006F463F79BE42E3D14068001D1060608848
:103A40001880002901D0607808700020F6BD7FB58D
:103A500015001C00099E002232800B9A01926A46D2
:103A6000128D009202AB03AAFFF7AFFF010013D142
:103A7000694609898D4201D306200DE0089A481B4A
:103A8000904200DA0200200003994919FEF7C2FCB7
:103A9000684600893080002004B070BDFEB5BB4D83
:103AA0000D40491B6B4619700024070016000AE000
:103AB0000422311901A8FEF7ADFC019A3919002042
:103AC00005F030FA241DAC42F2DB0020C043019027
:103AD00068460278711901A8FEF79CFC019A7919D1
:103AE000002005F01FFAF7BD70B544688668B4423F
:103AF00002D22678FF2E01D1042070BD007B002861
:103B000001D1FE2E01D0052070BD6588A94201D3E8
:103B1000062070BD10001A00231D591805F072FA16
:103B2000002801D00020C04370BD7CB5079C002553
:103B3000069E3580250005D06D466C80FE242C70D5
:103B40006C4600E0446845688668B54202D2267833
:103B5000FF2E01D1042076BD007B002801D1FE2E6E
:103B600001D0052076BD6088814201D3062076BD54
:103B7000401A984200DA030010001A002B1D591851
:103B8000FEF748FC608806990880002076BDF8B5ED
:103B900084B007000E001500B44C254203D105F097
:103BA00031FA002820D001A80C21FEF711FCCD48E5
:103BB0003818C00A0290681E0443641C6003000E9B
:103BC0000390694601A805F02DFA00240AE0601070
:103BD000800F00190321884332583919002005F05D
:103BE000A1F9241DAC42F2D305B0F0BD0121017052
:103BF0000021418081807047F1B588B00C0015002C
:103C00001E0000200090FF2229002000FEF7E2FBAA
:103C1000FE206946087507946846458206960E9D03
:103C2000009C05AE19E06846008A6988401A401E6B
:103C300003240443641CA4B268886946098A0A1AEA
:103C4000521E03211143491C89B28F4242DB0120DD
:103C50000022B94228706A8040D06846408A071B1B
:103C60003F1FBFB22878002826D0701C0390A88878
:103C7000029004A8019000970798001D03190022E4
:103C8000FF210898FFF7E3FE6946098AA980010031
:103C90000ED16846008A7080042205A90798001991
:103CA000FEF7B8FB7088C01C032101436418C1E70C
:103CB00006990C8009B0F0BDA888019004A8009076
:103CC0003B000798021969880898FFF72EFF01004A
:103CD000A9D0EFE700212970C01968806846408AA2
:103CE000069908800020E5E7F8B5AE4CA544AE493A
:103CF000020014235A438F187989002901D100202A
:103D000040E004A900F013F9059D02A8FFF76EFF3B
:103D10008026360102A8009001AB320008A904A851
:103D2000FFF76AFF0400042C06D0002C2AD1684655
:103D30008088B042EED103E068468088002808D031
:103D40006846828808A92800FFF721FFAD19002CDA
:103D5000E0D008A80C21FEF73BFB6248281840037E
:103D6000000E09900698401E711E0143491C481B15
:103D70004003000E0A90694608A805F053F9380080
:103D8000FFF7FCFD89498D44F0BD0000FCFF0000F9
:103D9000F8B5844CA54400216A46917100220023A5
:103DA000814906000BE0B0680C245C43005D1424DC
:103DB000604308184089002800D001225B1C30793C
:103DC0008342F0DB002A25D080221201FF2108A8BF
:103DD00005F070F90025802424010DE002A8FFF70A
:103DE00005FF02A8009001ABE21B92B208A8C1191E
:103DF00004A8FFF701FF6D1C307985420CDAB0682A
:103E00000C226A43011D8F5804A9805C00F08FF8D2
:103E10000028E3D000201BE0220008A93068FFF74B
:103E2000B6FE614C370069468D7900260CE0B86813
:103E30000C217143405C142148432018FFF79EFD7C
:103E4000010000D00500761C38798642EFDB28009F
:103E500056498D44F0BD95498A79824201D10220AC
:103E60007047897C8142FAD000207047FF0700002C
:103E7000F8B54C4CA54404000E0080221201FF212D
:103E800008A805F017F9002568460471802424016C
:103E90001CE00C276F43B068C05D6A4612799042FF
:103EA00013D004A900F043F8B068C019476802A80D
:103EB000FFF79CFE02A8009001AB9B1CE21B92B294
:103EC00008A8C11904A8FFF797FE6D1C3079854238
:103ED000DFDB220008A93068FFF759FE00203349D4
:103EE0008D44F0BD0000FCEF10B500246F480C219C
:103EF000614341188A792C4814235343C01803683E
:103F0000002B10D1012A0EDC0A6802608B88D218BF
:103F1000426009890182FFF731FD010004D1641C70
:103F2000012CE3DD01E0012010BD002010BD10B523
:103F30000200022A01DB012010BD1B4B1424624346
:103F40009A1813684B6052688A6001220A730870DD
:103F50000020487310BD7FB5694C05781426754361
:103F60006419A47B002C01D00A2008E00394029479
:103F7000099C01946C46248C0094FFF768FD04B002
:103F800070BD7CB5A04C0578142675436419A47BDC
:103F9000002C01D00A2076BD0194069C0094FFF706
:103FA000C4FD76BDE0F7FFFF600C00202408000090
:103FB000FAB583B017000325791E03260E43761C3D
:103FC0000CE00C78FF2C18D0FE2C01D0002C69D10D
:103FD0004A88D21C2A43521C891841608268416871
:103FE0004B1D9342EDD388490078142250430818A2
:103FF0004089002854D1022055E00290501A834B8A
:10400000984201D2521A00E01A467F4C92B2B0B2E6
:104010006B461B8DC018001D824239DB6846007B51
:104020000191FE216A461170694648706846008D0C
:1040300030184880009A0199002004F073FF049A18
:10404000B1B20198001DFFF729FD0B9A6846018D5A
:104050000198B6B28019001DFFF720FD200008303E
:10406000029909781422514340180188491C0180A3
:104070000298007814214843201881896A46128DDD
:10408000BA18521E1543491B491F818100200AE0BE
:104090000298007814214843201840890028AAD0AB
:1040A0000B2000E0032005B0F0BD00004015041017
:1040B00010B504006168A06881421ED20878FF280C
:1040C0001BD0FE2817D1FF22D243002004F02AFF84
:1040D0004D4801000831227814235A4389180A8870
:1040E000521E0A8021781422514340184189491CEC
:1040F0004181002010BD052010BD042010BD00002E
:10410000600C002078B585B004006946FFF7A3FE77
:104110003D4D02281ED1142044432C19256802A8C5
:104120000C21FEF755F93A4828184003000E039079
:104130006068401E37490143491C481B4003000E7C
:10414000049001A902A804F06DFF2000FFF716FCFF
:1041500000201BE0012818D100992000FFF788FEFD
:10416000040010D100260AE0009880680C217143F9
:10417000405C142148432818FFF700FC761C009887
:1041800000798642F0DB200000E0012006B070BD1F
:104190001CB504006946FFF75EFE022803D120002B
:1041A000FFF7A2FD16BD012803D10098FFF7F0FD2F
:1041B00016BD012016BD38B5174800214356DAB2A6
:1041C000114C1425554364196589002D03D0A58928
:1041D000248AA54207D3521CD2B2022A00D100225F
:1041E0009A42EDD106E0531C5CB2022C00D10023B0
:1041F000190001E00022D2430170100602D4D0B2AF
:10420000FFF7C6FF002032BD600C0020FFFF00005A
:104210000000FCEFFF0700007C0D0020F0B583B02C
:1042200004464C480460204604F0F6FF054620464C
:1042300004F0E2FF0646684600F0CAFE0099091A3B
:104240004B0B45490A681146D031002B02D1106052
:10425000012000E00020087040480068447B0021F5
:10426000FF2C0AD02C2060433D4A12681018827C33
:10427000002A02D0416AC068FFE70127002E03D060
:10428000002D01D1002911E0002D15D0354A8B1ADF
:104290005A425A41344BCD1A6B426B41334D4E1B3F
:1042A00075427541002907D013431D432A4E294DFD
:1042B00004D08847002701E0274E264D286804F0E7
:1042C000A7FF002801D0042520E0286804F08AFF19
:1042D000002801D0012519E0286804F087FF002894
:1042E00001D0022512E0286804F09AFF294605252E
:1042F00000280BD1086804F097FF002806D1154864
:10430000006804F05FFF002820D000250120A840AD
:10431000174909680A6802430A60002005F0D0F9CD
:10432000FDF708FC00F04FFE204605F0DBF934688D
:10433000607D012808D1217C0F200840E26809092E
:1043400005F096FB0020607503B0F0BD002FE9D1A9
:10435000EDE7C0464C0D0020280D00202C0D00205C
:10436000300D00207BD2051073D2051077D20510D6
:10437000580D0020BCB5584CA16900910840A061BF
:1043800035E0521CD300E51803000B402F681F4096
:10439000F7D02A68104001406868084002D1002028
:1043A000C04368606868084000F09AF801006A68D5
:1043B0000120884082436A606162EFF3108172B627
:1043C000626A01209040C2432069104020610220AF
:1043D000C300E318083B1D6815401D60401EF7D15F
:1043E00081F310883D48616A8900405880472369FD
:1043F000E2696069256AA16903400B4003D015405A
:1044000001D10022BEE70020C0436062206A104054
:1044100014D102F044FBEFF3108572B62169E06914
:1044200062690A40A169114004D1216A014001D1A9
:1044300002F036FB85F3108805F01BFB0098A061A5
:10444000B3BD38B51400EFF3108572B600F048F82C
:10445000800022490C5085F3108831BD10B5EFF370
:10446000108272B61C4B1C6904431C61C9005918A8
:104470000B681843086082F3108810BDEFF31081B9
:1044800072B6154AD3691843D06181F3108870471A
:10449000F8B5114D696A00910022D243914201D1D1
:1044A000002701E001278F402E6A2862040003E004
:1044B0002100380005F0DEFAE8692040F8D00098C5
:1044C0006862EFF3108072B6E969A143E96180F395
:1044D00010882E62F1BD000004060020BC090020F7
:1044E0000021020C120401D110210004020E120658
:1044F00001D108310002020F120701D1091D00018C
:104500001F22511A02A2000F105C081AC0B2704795
:10451000040302020101010100000000000000008C
:1045200010B5FFF7E1FC424C211D0020FFF7FFFC16
:10453000210014310120FFF7FAFC201D206010BD7E
:104540003EB53B4D022802D12C00143400E02C1D56
:104550002C6001936B461B8B00930B000100200025
:10456000FFF726FD002805D0022801D1002000E039
:104570000120C0433EBDF8B584B00E0019002C4C9C
:10458000022E03D125001435012301E0251D00234F
:104590000700256028466D466A8103910A9D022F17
:1045A00008D102A900912B00039A69464989FFF7B7
:1045B000E8FC0FE0002F03D101001800FFF7B7FC63
:1045C00002A801900095039B68464289310020684B
:1045D000FFF7C1FC010001D1002005E0042801D152
:1045E000022000E00120C04305B0F0BD10B514006A
:1045F00023000A0001000E480068FFF775FA002842
:1046000004D001D5200010BD0220C04310BD80B5EC
:10461000022807D1064908681431884207D0FFF7FD
:1046200047FD01BD032802D10020FFF76BFD01BD4E
:10463000880C00200120FFE7154908600020704722
:104640000020EFF3108172B6114A1368012B02D0DB
:104650000120C04301E00323136081F310887047F9
:104660000020EFF3108172B6094A1368032B02D0C1
:104670000120C04301E00123136081F310887047DB
:1046800080B50A00034905F07DFA02BD0000000074
:10469000D80500205815041010B50100A24CA348FD
:1046A0000A78012A04D0052A0CD0062A0ED010BDA3
:1046B00048680078C00701D4A7A000E0A9A0FDF7D2
:1046C000FBFE10BDFDF7F8FE012003E02430FDF7EE
:1046D000F3FE0020207010BD80B593490278002AB7
:1046E00002D0012A03D001BD4088088401BD904852
:1046F000088408000830FEF740FD01BD7CB58A4CF7
:104700008B48208405F086FB8A4820618A4A002174
:104710004020FFF796FE894CF72120002430FDF75A
:1047200057FE42228E204000211820002430FDF741
:1047300057FE2000243000906E46422030716946BA
:10474000022005F0DDFB01007D4D02D02800FDF7C1
:10475000B3FEF72120002430FDF73AFE04222100A9
:104760001E3120002430FDF755FE2000243000903B
:10477000042030716946002005F0C2FB002804D0F7
:10478000010028002C30FDF797FE73BD80B5FA219B
:1047900089006C48FEF7CEFC01BD0000F1B582B087
:1047A00015001F0073A0FDF787FE0026002405E01A
:1047B000395D00BF73A0FDF77FFE641C691E8C424B
:1047C000F6DB7819401E017870A0FDF775FE0097A2
:1047D000684605715C486946097AC3689B5D9942E1
:1047E00003D10269925D012A05D0761CF6B2027AE5
:1047F0009642F2D106E04C48028C6946032005F04F
:10480000ADFBFEBD1220FEBD4C480021017001220F
:10481000027242724D4BC3601A705A7001828174E9
:1048200081758277C277202281540321212281540D
:1048300042214170DA314118416070474248007DA1
:10484000002800D17047FEB5002400250027002075
:10485000694608803E4E05F078FC012802D0707849
:10486000002801D001257470012005F06EFC01289C
:1048700002D03078002803D0280002250543347088
:104880000420F178A94203D0F570290004250D43D6
:1048900005420DD1B0788100711804228F5E6A46FE
:1048A000CB881380401CC1B2042900D10020B07015
:1048B000009800B2384301D128001ED001A8FB2186
:1048C000294001704770009909B23A05120D0B0397
:1048D00013431A0A82700909C170047101AB0522E1
:1048E00001210120FFF75AFF002809D0882807D0AE
:1048F00001001848FDF7E0FDF7BD022005F0C2FBFE
:10490000F7BD704710B5084C20000830FEF735FCA5
:1049100000214020FFF7A2FDFA2189002000083085
:10492000FEF708FC10BD0000380C002064140410D1
:10493000FFFF0000054904103D48041064040020F6
:10494000AC140410400C0020AC0C0020760D0020AC
:10495000C40500200815041053757370656E640D4E
:104960000A000000457869742073757370656E6481
:104970000D0A00005265706F727420446174613AD0
:1049800020000000253078202D2000002530780AF6
:1049900000000000704700003EB505F0B7FC14A011
:1049A00000906C46042020716946002005F0EEFC62
:1049B00011A00090092020716946012005F0E6FC55
:1049C00010A00090052525716946022005F0DEFC47
:1049D0000EA0009025716946032005F0D7FC05481C
:1049E0000090072020716946042005F0CFFC37BDF8
:1049F00053544D0000020020343530322D312E301A
:104A0000000000003036333000000000303030311C
:104A10000000000010B501000BA40C480978012922
:104A200002D0022905D13C30FDF746FD2000FDF7FC
:104A300043FD10BD704780B505F02FFD044A0021ED
:104A40008020FFF7FEFC01BD200A0D00A00E04101F
:104A5000554A041070477047704780B505F0AAFDAD
:104A600001BD7047010042221201D21E004207D050
:104A700002D4521E0018FCD5C10A4005120589183F
:104A8000704700000100EED54042F446FFF7EBFF0F
:104A90000122D20711436047F0B50E005E400125A8
:104AA000ED072E40B446AE0ADF184C18F44208D287
:104AB000F7420ED2640D01D07F0D12D10020614665
:104AC000F0BD05D1F74201D87F0D05D10020C143CB
:104AD000F0BDFBD1640DF9D00020C1434905490860
:104AE0008FE0E419C902DB0229432B43DB0A460DA0
:104AF000C00231438E4630B487B295B27D432E0C4E
:104B0000ADB2140C7C43A419260C240425439CB29A
:104B10007C43A419190C7943270CC919A4B20F04BA
:104B20003C43090C000C97B247432E0CBE19354389
:104B3000ADB2170C4743360CBF19A6B2BF193E04DD
:104B40003543240C3E0C36199FB24743BF19BCB203
:104B50003E0C89191F0C47437F183E043443390C1F
:104B6000704680B297B247432E0CBE193543ADB2A2
:104B7000170C4743360CBF19A6B2BF193E04354384
:104B8000240C3E0C36199FB24743BF19BCB23E0CF1
:104B900089191F0C47437F183E043443390C77466C
:104BA0003F0C90B278432E0C80190604ADB22E4310
:104BB000050CA0B22D18120C7A435019020C80B2C9
:104BC000240CA4189AB27A43121914042043120C2C
:104BD00089181B0C7B43C91830BCEF0A394203D13A
:104BE000B61940414941641E6F12BF0DE41B0BDB37
:104BF000FF19BC4211DA240500274208AE41784172
:104C0000614166463143F0BD641C05D1401C6141E1
:104C1000CF0201D34908F4E750E75DE730B401243F
:104C200064054D00EC420BD85D00EC4208D80C0046
:104C30001C4364000443144304D28B4200D18242DB
:104C400030BC7047FCD09942FAD19042F8E703009B
:104C5000FFFFFFFFFFFFFFFFFFFFFFFFFFFF010061
:104C600000000000FFFF01000000FFFFF4464A18AB
:104C700005D200F00FF801D580174008604700F01A
:104C800009F80121C907884200D90800404260475D
:104C90004A1812D2400DC90208430121C90708432E
:104CA000520D40210901521A521C06D452421F32A1
:104CB00001D4D0407047C017704700207047F0B44F
:104CC0000125ED070F005F404FD48B4200D1824297
:104CD00005D98446100062468C4619006346DF18E9
:104CE0004C18640D7F0D3AD0661C760537D0E61B54
:104CF000352E34DCDB022B43DB0A0C0DC9022943C1
:104D0000C912202E0DDB1700203E06D01F00F741F0
:104D1000F3405F400026012A7741C01871410DD24F
:104D200017E01700F741F2405740F3415A40B340B3
:104D3000F3405A400026801859410AD3A21C52055C
:104D40000FD0C207012F724117004008CB0718434C
:104D50004908641C24054208AF4170416141F0BC20
:104D60007047641C21050020F9E76B4010E06B40A0
:104D7000ABE7F742F3D1E943F1E72442EFD100205A
:104D80000021ECE7F0B40125ED070F005F40EED401
:104D90000C00871A9C4105D2C01BA141D219634166
:104DA00069406B40AE0ADF184C18F442E1D2640D42
:104DB0007F0DE2D0E61B362ED1DCDB022B43DB0A73
:104DC000A4460C0DC9022943C90A012E28DC04D1CE
:104DD000D6075208DF073A435B08EF0A7642904154
:104DE000994114D039423BD1B61940414941761C12
:104DF000394204D1761C001849413942FAD0B943EE
:104E00006746B74208D9A41B24052143A7E70042FF
:104E1000EAD13642E8D1A2E7E40AE10700209EE7A2
:104E2000202E0BDD203E1F00F340F7415F40012A9A
:104E3000002257417E42984191410BE01700F74113
:104E4000F2405740F3415A40B340F3405A407E424B
:104E5000904199410A0303D2641EB6194041494169
:104E60000027641E24054208AE4178416141F0BC30
:104E70007047FEE7C3788278417800781B021A43B6
:104E80000902120408431043704780B505F0CAFBBD
:104E900080BDF0B593B01F4615460E4612901C9C7F
:104EA00008461146224605F0C1FB002824D122986D
:104EB0000D901FAB0DCB11901E980F901D980E906A
:104EC0001B980C901A9919981097189F089209939B
:104ED0000D9A0A920097019002910C980390049405
:104EE0000E9805900F9806901198079012983146E9
:104EF0002A46109B05F0ADFB13B0F0BD80B505F060
:104F0000BAFB80BD0020704780B505F0BBFB01BD3A
:104F100080B50B0011001A00FDF75CFA01BD80B5E9
:104F200004F070F802BD7FB504000D00160068465D
:104F300005F00EFC68460178217041782970807870
:104F400030707FBD80B5FFF79BFB02BD80B504F0DC
:104F500019FE02BD80B505F041FC01BD80B505F02C
:104F60007FFC02BD80B505F09DFC02BD80B505F05B
:104F7000CDFD02BD80B505F018FE01BD80B505F080
:104F80001CFE01BD80B505F02DFE02BD80B505F00B
:104F90002BFE02BD80B505F029FE01BD80B501F0F4
:104FA000B5FB02BD80B5FEF7BCF804BD80B5FEF7C9
:104FB000DBF802BD80B5FEF7E0F801BD80B5FDF776
:104FC000CBFFC0B202BD80B5FEF740F8C0B202BD53
:104FD00080B5FDF79FFF04BD80B5FEF776F801BDF3
:104FE000F0B597B0E54C6720C543FDF70BFCE44EE8
:104FF000012802D0F07A002810D027462C463834F9
:10500000FDF700FCF17A6143784338184418FDF746
:10501000F9FBF17A4143DB48484324182634FDF775
:10502000F1FB01280ED128466030318941432846E2
:105030004430B27A4243501829464831327B4A43C1
:10504000801800E000200390F0890A9005F056FED9
:10505000012801D005F054FEFDF7D0FB0128119482
:1050600009D12C463834FDF7CDFB6043F17A41433A
:105070000839099101E000200990F2484C30139062
:1050800005F03EFE012815D005F038FE012811D0AC
:105090002920305C00280DD12520305C002809D162
:1050A0002620305C002802D0E6484C3001E028463B
:1050B00024301390E3486C30129005F021FE012853
:1050C00015D005F01BFE012811D02920305C0028E6
:1050D0000DD12520305C002809D12620305C002825
:1050E00002D0D8486C3001E028463C30129005F0E0
:1050F00007FE1090B07E0090F07F0F90FDF782FBCE
:105100000790F07F019005F0FDFD0890F07F029080
:10511000FDF7A4FB002705F0F7FD0128384615959B
:1051200016974FD1707F0A2800D30A202C463834B6
:105130004443C03C002505F0E9FD01282F4620D15D
:10514000FDF760FB01280E9503D0159B18465430DF
:1051500002E0159B18464830BA49E431B27F4A4311
:10516000101835461E466036E97F32468A40871859
:10517000FDF748FB012802D1E87A4643BF192E46C5
:105180000E9DE0191490FFF7BDFE074605F0BEFD29
:1051900004463C40FDF736FB2040012808D1F07E54
:1051A000401E03210143B07FB0224243D043451A41
:1051B0001498441905F0A4FD6043A24908182C3046
:1051C000159D169F0690FDF71DFB0128394609D154
:1051D00005F09EFD0128394604D12220305C294685
:1051E00014314143059105F091FD0128384621D144
:1051F0009448D430B17E414328464830F27A424345
:1052000054180027FFF77EFE012810D1FDF7FAFAA7
:1052100001280CD1159A10465830317F4143104671
:105220006030F27E424350188438B77E4743E0191D
:10523000159D169F0E9005F06DFD0128384633D15F
:10524000FDF7E0FA012802D02F465C3704E028463B
:105250006030F77A47430C3F2325705D0024002817
:10526000204605D0FDF7CEFA705D40420321884309
:10527000C0192427F15D159A64324A43851805F058
:1052800043FD01280DD105F03BFD012809D105F0B2
:105290003DFD012805D1F45D002C159801D0044690
:1052A00050342819159D169F0D90FDF7ABFA012873
:1052B000394609D105F030FD0128394604D1284688
:1052C0004830F17A414314390C91FDF79BFA0128DB
:1052D0003A4608D105F022FD01283A4603D1284676
:1052E0004C30F27A42432620315C2520345C63182E
:1052F0002920305C0493002B149010D02820335CBC
:10530000284660305843F83848432723F35C543527
:105310005D434C4B5B19483363431F1814980028B6
:1053200016970B920DD002462A20305C454D2B4635
:10533000B033434337462E46C8365643F318483BEE
:1053400003E02A20305C002337462826BE5D7143E7
:10535000091827263D46BE5D74432418601813D0F3
:10536000159F3E464C3666433C4634344C43A119A7
:105370003C465C3444430C19143C07E010FCFFFF2E
:10538000A40B00207CFDFFFF0024159F03990A9EBB
:10539000119808183946443171434018099940184A
:1053A00013994018129941183846603006460F9AF2
:1053B00096408919109A012A06D1224E009A564326
:1053C00071184526B60089192E46079D059A012DAC
:1053D00002D1019DA84009180898012805D1384636
:1053E0001830029DA840411870390698049D08188D
:1053F00080180E9940180D9940180C9940180B9977
:1054000040181499CD4201D03818583016994018D8
:10541000C018041905F084FC012800D1E419706853
:1054200020180321C943F28DD21C0A40B38DDB1C26
:105430000B409A18338EDB1C0B40D118401A17B062
:10544000F0BDC04690FEFFFFF0B595B0012081048D
:1054500014912E480160BFF34F8FBFF36F8F03F09D
:1054600098FEFFF7B0FD00201290C04303F084FEC9
:1054700005F044FC1390FDF7C1F9119005F040FCD4
:10548000109005F03FFC0F90FDF7E8F905F03CFCAB
:105490000E9005F03DFC0D9005F038FC0C90FFF7E8
:1054A00031FD0B9005F036FC044605F035FC054651
:1054B000FDF7A8F9064605F031FC074605F030FC7B
:1054C000C0B2F9B208910990F0B2E9B2E2B20B9B16
:1054D000DBB20C9CE4B20D9DEDB20E9EF6B2129FB3
:1054E0000097019602950394049305920691079004
:1054F0001398C0B21199C9B20F9AD3B2109A05F09D
:1055000011FC03481499016015B0F0BD80E100E082
:1055100000E100E00100202008437047FDB5B2B073
:105520003A98049102A93B22885400200D9024A8A7
:10553000401C2F900DE00498329A90470490002868
:1055400001D100F0B7FE0D98401C0D903398401C1F
:10555000339033980178002910D02529EBD1002011
:105560000790089009900A900B900C90002102245B
:105570000120149008201290339D05E00D9800F052
:105580009BFE0800149901436D1C28782028F8D050
:1055900023280BD02B2804D02D2804D0302808D065
:1055A0000AE02143F0E708000421ECE708000821A5
:1055B000E9E708001021E6E72A280FD134980268AD
:1055C0001068121D349B1A600F90002804D54242C7
:1055D0000F920800042101436D1C12E000200F907F
:1055E000644A09E00F9B934205DA9E00F3185B00C2
:1055F000181830380F906D1C28780300303B0A2BA8
:10560000F0D328782E2803D00020C0430E9027E046
:105610006D1C28782A2808D1349800680268001D7B
:10562000349B18600E926D1C1AE02D2802D12D2299
:105630006D1C00E0002200200E900CE0002A09D131
:105640000E9B4C4EB34205DA9E00F3185B0018180F
:1056500030380E906D1C28780300303B0A2BEDD3B8
:1056600002A801872E78310040487844FF30401E60
:1056700005F0D2FB002801D06D1C00E0002602A836
:105680003A214654405C682804D1287868280BD118
:10569000622005E06C2807D128786C2804D171209D
:1056A00002A93A2288546D1C15A8069028786946EC
:1056B0000870681C3390684602781000253833D093
:1056C0001C3800D1CCE1001F022800D8C8E11338F3
:1056D00001D100F019FD093800D1C1E1801E01D1CE
:1056E00000F0AFFD401E01D100F05CFD401E02281D
:1056F00000D8B5E1001F01D100F054FD401F00D1DA
:1057000008E1401E01D100F0FFFC401E00D1F0E096
:10571000C01E0ED0801E01D100F0F6FCC01E01D1CB
:1057200000F0F2FC00F098FD14980790252015A9D0
:105730007CE1349800680468001D34990860059481
:10574000002C00D0C1E002A83B21405C002800D121
:10575000B5E00024E44306487844143005F066FBC5
:10576000201A01D000F0A6FD00F083FD48BFFFFF26
:105770007CBFFFFFCBCCCC0C01236A4602A92800DA
:1057800000F054FE002801D000F094FD641EF3D117
:105790003295079D15AC002D0FD0329E21780498CC
:1057A000B0470490002801D100F084FD0D98401C02
:1057B0000D90641C6D1EF1D1329630206946087040
:1057C0000A9C002C0DDD329D01236A4602A92800A7
:1057D00000F02CFE002801D000F06CFD641EF3D117
:1057E0003295059C089D002D0FD0329E217804989B
:1057F000B0470490002801D100F05CFD0D98401CDA
:105800000D90641C6D1EF1D13296302769460F70E1
:105810000B9C002C0DDD329D01236A4602A9280055
:1058200000F004FE002801D000F044FD641EF3D116
:105830003295059808994418099D002D0FD0329E85
:1058400021780498B0470490002801D100F032FD7F
:105850000D98401C0D90641C6D1EF1D13296684667
:1058600007700C9C002C0DDD329D01236A4602A9B5
:10587000280000F0DBFD002801D000F01BFD641EB5
:10588000F3D1329502A83821405C400700D460E68D
:105890002020694608700198002800DC59E6019C28
:1058A000329D01236A4602A9280000F0BFFD0028AE
:1058B00001D000F0FFFC641EF3D1329549E61B488D
:1058C00078446830059000F0D4FC0E9D002D03D57F
:1058D000200005F0CFFA09E02A000021200005F0A1
:1058E000D1FA002801D0001B00E02800089000F049
:1058F000C0FC349800680268001D349908600020DC
:10590000C0430021104002AA03C215A805907821C7
:1059100000F093FC02A83B21415C002908D0002440
:10592000E4434B487844FF30293017E7DCBDFFFFE4
:105930003A21405C62286AD0682819D06A2845D08C
:105940006C2806D071284FD0742831D07A2821D005
:105950006FE0349800680168001D349A10600029D7
:105960007AD10024E4433B487844FF301738F5E609
:10597000349800680168001D349A1060002905D130
:105980000024E44333487844CA30E7E60D980880A1
:1059900000F06FFC349800680168001D349A1060B4
:1059A000002959D10024E4432A487844A630D5E69A
:1059B000349800680168001D349A106000294BD1AA
:1059C0000024E443234878448A30C7E634980068CA
:1059D0000268001D34990860002A13D10024E443B2
:1059E0001C4878446E30B9E6349800680268001D9F
:1059F00034990860002A05D10024E443154878440E
:105A00005230ABE60D98C11703C200F032FC349857
:105A100000680168001D349A1060002905D1002437
:105A2000E4430C4878442C3098E60D98087000F058
:105A300020FC349800680168001D349A1060002929
:105A40000AD10024E44303487844083086E600BFC6
:105A50006CBCFFFF80BCFFFF0D98086000F009FCE4
:105A600034980068C31D072083433498036003CB38
:105A7000349D2B6002AB03C32023C80F04D00798CA
:105A80002D2115AB19540DE002A8008F204204D03F
:105A900007982B2115AB195404E0C00704D50798CB
:105AA00015A90B54401C079015A80799401813908E
:105AB0001398059024AD02A8C0C86846007820213C
:105AC000014368468170807861280BD00E980028C9
:105AD00001D5062005E005D168468078672801D108
