:020000041004E6
:1000000000000120E59D05100DA105100FA10510B0
:1000100000000000000000000000000000000000E0
:1000200000000000000000000000000011A1051009
:10003000000000000000000013A1051015A105102C
:100040005B8C0410D3930410439904106B9D04102F
:100050000000000000000000000000000BA10410E0
:100060001DA10510CBA10410FFA104100BA30410C7
:1000700033AE041039A10510000000006BA105107B
:1000800079A1051053B8041053A105100000000019
:100090004BA105100000000063A1051043A105104D
:1000A000E7BE04105BA105103FBF041027CA04106F
:1000B00063CE0410000000000000000000000000FB
:1000C00008100020AE2E00000000010400003200E5
:1000D000F7000000FFFFFFFF6400011008030003AA
:1000E000F7000108520101020202020000010003B0
:1000F000000400004572726F7220696E20424C4508
:100100005F535441434B5F496E697428292030780E
:10011000253032780D0A000020204661696C2020CD
:10012000203A206163695F68616C5F77726974650A
:100130005F636F6E6669675F6461746120636F6D92
:100140006D616E64202D20434F4E4649475F444108
:1001500054415F505542414444525F4F46465345D7
:10016000542C20726573756C743A203078253032C7
:10017000580A00002020537563636573733A206149
:1001800063695F68616C5F77726974655F636F6EE6
:100190006669675F6461746120636F6D6D616E6431
:1001A000202D20434F4E4649475F444154415F5004
:1001B0005542414444525F4F46465345540A00005D
:1001C00020204661696C2020203A206163695F68C5
:1001D000616C5F7365745F74785F706F7765725F71
:1001E0006C6576656C20636F6D6D616E642C20723A
:1001F0006573756C743A203078253032580A0000E7
:100200002020537563636573733A206163695F6887
:10021000616C5F7365745F74785F706F7765725F30
:100220006C6576656C20636F6D6D616E640A0000AD
:1002300020204661696C2020203A206163695F6755
:100240006174745F7372765F70726F66696C655FFC
:10025000696E697420636F6D6D616E642C207265C8
:1002600073756C743A203078253032580A000000DB
:100270002020537563636573733A206163695F6718
:100280006174745F7372765F70726F66696C655FBC
:10029000696E697420636F6D6D616E640A000000A1
:1002A0000A0A202A202A202A202A202A2041707087
:1002B0006C69636174696F6E206E616D65203A20B0
:1002C000424C455F446972656374696F6E46696E3E
:1002D00064696E675F43656E7472616C5F4C6F63D7
:1002E00061746F72202A202A202A202A202A200ABC
:1002F0000A00000020204661696C2020203A20611D
:1003000063695F6761705F696E697420636F6D6DAB
:10031000616E642C20726573756C743A2030782598
:100320003032580A00000000202053756363657363
:10033000733A206163695F6761705F696E697420F9
:10034000636F6D6D616E640A0000000020205075BF
:10035000626C696320426C7565746F6F74682041CC
:100360006464726573733A20253032783A253032EE
:10037000783A253032783A253032783A253032785A
:100380003A253032780A000020204661696C20202E
:10039000203A204761705F70726F66696C655F73A9
:1003A00065745F6465765F6E616D65202D204465C0
:1003B00076696365204E616D652C20726573756C7E
:1003C000743A203078253032580A000020205375C6
:1003D00063636573733A204761705F70726F66691B
:1003E0006C655F7365745F6465765F6E616D6520D3
:1003F0002D20446576696365204E616D650A0000B5
:1004000020204661696C2020203A204761705F708F
:10041000726F66696C655F7365745F61707065614A
:1004200072616E6365202D20417070656172616E2E
:1004300063652C20726573756C743A2030782530B2
:1004400032580A002020537563636573733A20475E
:1004500061705F70726F66696C655F7365745F6110
:100460007070656172616E6365202D2041707065EA
:100470006172616E63650A0020204661696C20200C
:10048000203A206163695F6761705F7365745F69BB
:100490006F5F6361706162696C69747920636F6D0D
:1004A0006D616E642C20726573756C743A203078BF
:1004B000253032580A0000002020537563636573AD
:1004C000733A206163695F6761705F7365745F6928
:1004D0006F5F6361706162696C69747920636F6DCD
:1004E0006D616E640A00000020204661696C202066
:1004F000203A206163695F6761705F7365745F6C48
:10050000655F6576656E745F6D61736B20636F6D9B
:100510006D616E642C20726573756C743A2030784E
:10052000253032580A00000020205375636365733C
:10053000733A206163695F6761705F7365745F6CB4
:10054000655F6576656E745F6D61736B20636F6D5B
:100550006D616E640A00000020204661696C2020F5
:10056000203A206163695F6761705F7365745F73D0
:10057000656375726974795F726571756972656DAD
:10058000656E747320636F6D6D616E642C2072658F
:1005900073756C743A203078253032580A000000A8
:1005A0002020537563636573733A206163695F67E5
:1005B00061705F7365745F73656375726974795F89
:1005C000726571756972656D656E747320636F6DA8
:1005D0006D616E640A00000020204661696C202075
:1005E000203A206163695F6761705F636F6E66695F
:1005F000677572655F66696C7465725F6163636578
:1006000070745F616E645F7265736F6C76696E673C
:100610005F6C69737420636F6D6D616E642C207202
:100620006573756C743A203078253032580A0000B2
:100630002020537563636573733A206163695F6754
:1006400061705F636F6E6669677572655F66696C1E
:100650007465725F6163636570745F616E645F721D
:1006600065736F6C76696E675F6C69737420636F16
:100670006D6D616E640A00003D3D3E3E2053657421
:100680005461736B205441534B5F425554544F4E49
:100690005F3120746F2063726561746520636F6ED3
:1006A0006E656374696F6E20776974682066697817
:1006B000656420616464726573732E0A0000000033
:1006C0003E3E3D3D204843495F444953434F4E4ED3
:1006D000454354494F4E5F434F4D504C4554455F41
:1006E0004556545F434F44450A0000002020202017
:1006F000202D20436F6E6E656374696F6E204861B4
:100700006E646C653A2020203078253032580A20FB
:10071000202020202D20526561736F6E3A2020200A
:10072000203078253032580A000000002020417423
:1007300020616E7920646973636F6E6E656374699E
:100740006F6E2C2063656E7472616C20616E642024
:100750007065726970686572616C2077696C6C2075
:100760007265636F6E6E656374206175746F6D6121
:10077000746963616C6C792E0A0000003E3E3D3D59
:10078000204843495F4C455F434F4E4E45435449D3
:100790004F4E5F5550444154455F434F4D504C457B
:1007A00054455F5355424556545F434F44450A00F4
:1007B00020202020202D20436F6E6E656374696FAA
:1007C0006E20496E74657276616C3A202020256433
:1007D0002E25303264206D730A20202020202D2009
:1007E000436F6E6E656374696F6E206C6174656EC5
:1007F00063793A2020202025640A20202020202D03
:10080000205375706572766973696F6E2054696DD7
:10081000656F75743A2020202564206D730A0000EE
:1008200020204661696C2020203A206163695F6C5A
:10083000326361705F636F6E6E656374696F6E5F64
:10084000706172616D657465725F75706461746505
:100850005F7265737020636F6D6D616E640A000076
:100860002020537563636573733A206163695F6C1D
:10087000326361705F636F6E6E656374696F6E5F24
:10088000706172616D657465725F757064617465C5
:100890005F7265737020636F6D6D616E640A000036
:1008A0003E3E3D3D204143495F4741505F50524FDE
:1008B000435F434F4D504C4554455F565345565446
:1008C0005F434F44450A00003E3E3D3D20414349C1
:1008D0005F4741505F4B455950524553535F4E4F10
:1008E00054494649434154494F4E5F565345565427
:1008F0005F434F44450A00003E3E3D3D2041434991
:100900005F4741505F504153534B45595F524551EA
:100910005F56534556545F434F44450A000000005C
:100920003D3D3E3E206163695F6761705F7061734A
:10093000736B65795F72657370203A204661696CEC
:100940002C20726561736F6E3A20307825303258F2
:100950000A0000003D3D3E3E206163695F676170B3
:100960005F706173736B65795F72657370203A2095
:10097000537563636573730A000000003E3E3D3D9E
:10098000204143495F4741505F50414952494E47DA
:100990005F434F4D504C4554455F56534556545F49
:1009A000434F44450A00000020202020202D2050E5
:1009B000616972696E67204B4F0A20202020202D2C
:1009C000205374617475733A203078253032580A98
:1009D00020202020202D20526561736F6E3A203038
:1009E00078253032580A00003E3E3D3D20414349C3
:1009F0005F474154545F5352565F524541445F56DE
:100A0000534556545F434F44450A00003D3D3E3E2A
:100A100020636F6E6E656374696F6E5F636F6D7078
:100A20006C6574655F6576656E74204661696C2CD3
:100A3000205374617475733A203078253032580A27
:100A4000000000003E3E3D3D206863695F6C655FCD
:100A5000636F6E6E656374696F6E5F636F6D706CEC
:100A60006574655F6576656E74202D20436F6E6ECC
:100A7000656374696F6E2068616E646C653A2030DE
:100A800078253034580A000020202020202D2043D3
:100A90006F6E6E656374696F6E2065737461626CEE
:100AA0006973686564207769746820403A2530323C
:100AB000783A253032783A253032783A2530327813
:100AC0003A253032783A253032780A00202020202A
:100AD000202D20436F6E6E656374696F6E20496EC2
:100AE00074657276616C3A20202025642E253032A0
:100AF00064206D730A20202020202D20436F6E6E0D
:100B0000656374696F6E206C6174656E63793A20F9
:100B100020202025640A20202020202D20537570BD
:100B20006572766973696F6E2054696D656F75744F
:100B30003A202564206D730A000000004661696C4C
:100B4000656420746F207365742043544520706180
:100B500072616D65746572733A20726561736F6E50
:100B60003D3078253032580A000000003D3D3E3EC1
:100B7000206863695F6C655F7365745F636F6E6E39
:100B8000656374696F6E5F6374655F7265636569E1
:100B900076655F706172616D6574657273203A206D
:100BA000537563636573730A000000004661696CE6
:100BB000656420746F20656E61626C6520435445E6
:100BC0002072657175657374733A20726561736F15
:100BD0006E3D3078253032580A0000003D3D3E3EE3
:100BE000206863695F6C655F636F6E6E65637469CF
:100BF0006F6E5F6374655F726571756573745F6551
:100C00006E61626C65203A20537563636573730A85
:100C1000000000006163695F6761705F7465726DF9
:100C2000696E617465206661696C7572653A2072DF
:100C30006561736F6E3D3078253032580A000000D0
:100C40003D3D3E3E206163695F6761705F74657220
:100C50006D696E617465203A2053756363657373C3
:100C60000A0000006163695F676174745F636C749C
:100C70005F65786368616E67655F636F6E666967FD
:100C8000206661696C7572653A20726561736F6E7A
:100C90003D3078253032580A000000003D3D3E3E90
:100CA000206163695F676174745F636C745F65780A
:100CB0006368616E67655F636F6E666967203A207F
:100CC000537563636573730A000000006163695FB5
:100CD0006761705F7365745F7363616E5F636F6E8E
:100CE00066696775726174696F6E202D206661692F
:100CF0006C2C20726573756C743A20307825303214
:100D0000580A00003D3D3E3E206163695F676170A7
:100D10005F7365745F7363616E5F636F6E6669674F
:100D200075726174696F6E202D20537563636573EE
:100D3000730A00006163695F6761705F7374617259
:100D4000745F70726F636564757265202D206661D3
:100D5000696C2C20726573756C743A20307825307C
:100D600032580A003D3D3E3E206163695F67617015
:100D70005F73746172745F70726F636564757265BE
:100D8000202D20537563636573730A006163695F87
:100D90006761705F7465726D696E6174655F6761CC
:100DA000705F70726F63202D206661696C2C2072F9
:100DB0006573756C743A203078253032580A00001B
:100DC0003D3D3E3E206163695F6761705F7465729F
:100DD0006D696E6174655F6761705F70726F6320CB
:100DE0002D20537563636573730A00003D3D3E3EDD
:100DF000206163695F6761705F7365745F636F6EC5
:100E00006E656374696F6E5F636F6E666967757236
:100E10006174696F6E2053756363657373202C2052
:100E20007374617475733A203078253032580A0033
:100E30003D3D3E3E206163695F6761705F7365742D
:100E40005F636F6E6E656374696F6E5F636F6E660E
:100E5000696775726174696F6E204661696C65645B
:100E6000202C207374617475733A203078253032E9
:100E7000580A00003D3D3E3E202846495845442042
:100E80004144445245535329206163695F6761704F
:100E90005F6372656174655F636F6E6E65637469CD
:100EA0006F6E20746F200000506572697068657203
:100EB000616C205075626C696320426C7565746F5B
:100EC0006F746820416464726573733A2025303210
:100ED000583A253032583A253032583A253032586F
:100EE0003A253032583A253032580A003D3D3E3ED0
:100EF00020284649584544204144445245535329EB
:100F0000206163695F6761705F6372656174655FCB
:100F1000636F6E6E656374696F6E20474150204346
:100F2000726561746520636F6E6E656374696F6E60
:100F300020537563636573730A000000202020202E
:100F4000202846495845442041444452455353299A
:100F500020207761697420666F72206576656E74F3
:100F6000204843495F4C455F434F4E4E45435449EB
:100F70004F4E5F434F4D504C4554455F535542458E
:100F800056545F434F44450A0000000020202020B3
:100F9000202846495845442041444452455353294A
:100FA00020207265636569766564206576656E7478
:100FB000204843495F4C455F434F4E4E454354499B
:100FC0004F4E5F434F4D504C4554455F535542453E
:100FD00056545F434F44450A000000003D3D3E3EED
:100FE00020284649584544204144445245535329FA
:100FF000206163695F6761705F6372656174655FDB
:10100000636F6E6E656374696F6E20474150204355
:10101000726561746520636F6E6E656374696F6E6F
:10102000204661696C6564202C207374617475734B
:101030003A203078253032580A0000003D3D3E3ECF
:10104000204741502043726561746520636F6E6E66
:10105000656374696F6E2077696C6C2072652D739F
:10106000746172742064756520746F206661696CA8
:10107000656420636F6E6E656374696F6E2E0A001F
:10108000436F6E6E656374696F6E204576656E742E
:1010900020436F756E7465723A203078253034586D
:1010A0000A00000044657669636520616C726561C1
:1010B000647920636F6E6E65637465642E20546F6F
:1010C00020646973636F6E6E656374207573652049
:1010D000746865207075736820627574746F6E2013
:1010E00042332E0A00000000446576696365206380
:1010F0006F6E6E65637465642E2054686520636F3F
:101100006E6E656374696F6E206973207465726DAD
:10111000696E617465642E0A000000004275747483
:101120006F6E2025642070726573736564205B6C3C
:101130006F6E67507265737365733D25645D0A0059
:10114000000000000200000030000020000000004D
:1011500008000000980200200000000001000000CC
:101160007E05002001000000020000003200002087
:101170000000000001000000FE0F00200000000041
:10118000020000007C0500204572726F723A2072E6
:10119000656163686564206D6178696D756D206E49
:1011A000756D626572206F6620636F6E6E65637425
:1011B00065642073657276657273210A0000000011
:1011C00050524F435F474154545F43544C5F44492E
:1011D00053435F414C4C5F5052494D4152595F530C
:1011E000455256494345532073657276696365736A
:1011F00020646973636F76657265642053756363F9
:1012000065737366756C6C790A0A000050524F431F
:101210005F474154545F43544C5F444953435F41DB
:101220004C4C5F5052494D4152595F5345525649BB
:10123000434553206163695F676174745F636C74D5
:101240005F646973635F616C6C5F7072696D61721A
:10125000795F736572766963657320636D64204E90
:101260004F4B20737461747573203D307825303294
:10127000580A0A00444953434F5645525F414C4C6B
:101280005F434841525320436F6E6E48646C3D305B
:10129000782530345820414C4C536572766963652B
:1012A00048616E646C655B307825303458202D20A1
:1012B0003078253034585D0A00000000416C6C2005
:1012C00063686172616374657269737469637320C2
:1012D000646973636F7665726564205375636365D3
:1012E000737366756C6C790A0A000000416C6C209F
:1012F0006368617261637465726973746963732092
:10130000646973636F76657279204661696C6564A0
:101310002C20737461747573203D307825303258F9
:101320000A0A0000444953434F5645525F414C4C12
:101330005F434841525F4445534353205B30782517
:10134000303458202D203078253034585D0A000084
:10135000416C6C2063686172616374657269737457
:1013600069632064657363726970746F727320645B
:101370006973636F76657265642053756363657323
:101380007366756C6C790A0A00000000416C6C2071
:101390006368617261637465726973746963206400
:1013A000657363726970746F727320646973636FBD
:1013B00076657279204661696C65642C207374616E
:1013C000747573203D3078253032580A0A000000C9
:1013D00020536572766963654368616E676564432F
:1013E0006861724465736348646C203D30782530D1
:1013F00034580A00416C6C206E6F746966696361D1
:1014000074696F6E7320656E61626C6564205375DC
:10141000636365737366756C6C790A0A000000007B
:10142000416C6C206E6F74696669636174696F6E7C
:101430007320656E61626C6564204661696C6564E9
:101440002C20737461747573203D307825303258C8
:101450000A0A00004143495F4154545F52454144E8
:101460005F42595F47524F55505F545950455F5244
:101470004553505F56534556545F434F4445202DC6
:1014800020436F6E6E48646C3D3078253034580AC6
:1014900000000000202025642F25642073686F72EF
:1014A0007420555549443D3078253034582C2068F7
:1014B000616E646C65205B307825303458202D20B7
:1014C0003078253034585D002C2047454E45524930
:1014D000435F4154545249425554455F5345525617
:1014E0004943455F5555494420666F756E640A004F
:1014F0004143495F4154545F524541445F42595F03
:1015000047524F55505F545950455F524553505FB5
:1015100056534556545F434F44452C206661696CD1
:101520006564206E6F206672656520696E646578FB
:1015300020696E20636F6E6E656374696F6E2074D0
:1015400061626C6520210A004143495F4154545F48
:1015500046494E445F42595F545950455F56414C8D
:1015600055455F524553505F56534556545F434F60
:101570004445202D20436F6E6E48646C3D307825C5
:101580003034582C204E756D5F6F665F48616E6415
:101590006C655F506169723D25640A004143495F93
:1015A0004154545F46494E445F42595F5459504537
:1015B0005F56414C55455F524553505F5653455613
:1015C000545F434F4445202D205061697449643D68
:1015D000256420466F756E645F417474726962752C
:1015E00074655F48616E646C653D307825303458B1
:1015F0002C2047726F75705F456E645F48616E6442
:101600006C653D3078253034580A00004143495F0D
:101610004154545F524541445F42595F54595045CB
:101620005F524553505F56534556545F434F4445B0
:10163000202D20436F6E6E48646C3D307825303429
:10164000580A00002020436F6E6E48646C3D30786D
:10165000253034582C206E756D626572206F6620BF
:1016600076616C75652070616972203D2025640A81
:10167000000000002020202025642F2564207368AE
:101680006F727420555549443D3078253034582CBC
:101690002050726F706572746965733D30782530C3
:1016A00034582C204368617248616E646C65205B1D
:1016B000307825303458202D203078253034585D4E
:1016C000000000002C2047415454205345525649F5
:1016D00043455F4348414E4745445F43484152417B
:1016E0004354455249535449435F55554944206337
:1016F000686172616320666F756E640A00000000A5
:101700004143495F4154545F524541445F42595FF0
:10171000545950455F524553505F56534556545F98
:10172000434F44452C206661696C65642068616E96
:10173000646C65206E6F7420666F756E6420696ED0
:1017400020636F6E6E656374696F6E207461626C86
:101750006520210A000000004143495F4154545F65
:1017600046494E445F494E464F5F524553505F567F
:10177000534556545F434F4445202D20436F6E6EB2
:1017800048646C3D3078253034580A005052494D39
:101790004152595F534552564943455F5555494457
:1017A0003D3078253034582068616E646C653D307A
:1017B00078253034580A00007265736574202D2036
:1017C0005555494420262068616E646C65202D20A3
:1017D00043484152414354455249535449435F554C
:1017E0005549443D30782530345820436861725360
:1017F0007461727448616E646C653D307825303474
:10180000580A000044657363726970746F722055E2
:101810005549443D3078253034582C2068616E6439
:101820006C653D3078253034582D3078253034586B
:101830002D307825303458002C20666F756E64206A
:101840004741545420534552564943455F4348410C
:101850004E4745445F4348415241435445524953E2
:101860005449435F555549440A0000004143495FCC
:101870004154545F46494E445F494E464F5F52457E
:1018800053505F56534556545F434F44452C206692
:1018900061696C65642068616E646C65206E6F744C
:1018A00020666F756E6420696E20636F6E6E65636F
:1018B00074696F6E207461626C6520210A000000FB
:1018C0004143495F474154545F4E4F544946494351
:1018D0004154494F4E5F56534556545F434F44451C
:1018E000202D20436F6E6E48646C3D307825303477
:1018F000582C204174747269627574655F48616E1A
:10190000646C653D3078253034580A002C204741FE
:10191000505F534552564943455F555549442066EB
:101920006F756E640A0000000000FFFF00000000F9
:10193000040000002819041000000000030000004B
:10194000C80F002000000000010000003AE704106A
:101950000100000002000000FC0F00202000000039
:10196000FB349B5F8000008000100000052A00000F
:101970001000000001000000E00300202C190410FA
:101980000A000000FB349B5F800000800010000014
:10199000292B0000100000000000000000000000E3
:1019A0003819041002000000FB349B5F80000080A7
:1019B000001000002A2B00001000000000000000B2
:1019C000000000000000000002000000FB349B5FEC
:1019D00080000080001000003A2B00001000000082
:1019E00000000000000000004419041000F00B107B
:1019F00000080000AA02000000F80B10F807010020
:101A000000000000C5A00510D1A00510959F05108D
:101A10001DA00510259E0510CB9E0510686A6C74EC
:101A20007A4C00007072696E74665F733A20256E9E
:101A300020646973616C6C6F776564007072696EA5
:101A400074663A2062616420256E20617267756D4C
:101A5000656E74007072696E74665F733A206261BD
:101A60006420257320617267756D656E74000000D7
:101A7000000000006E616E004E414E00696E66000F
:101A8000494E460030002E00FB349B5F80000080F2
:101A900000100000292B000010000000FB349B5FA9
:101AA0008000008000100000052A000010000000E7
:101AB0000200000003000000030000000600000018
:101AC00003000000030000003C0000007000000064
:101AD00070000000D003000070000000C30100008F
:101AE00095A205107BD40410BFD4041027DC041089
:101AF0001FD50410652D0410170706103F2F041082
:101B0000472F04104F2F0410572F04105F2F04107D
:101B1000E5AA051077E404100F2F04101F2F0410FE
:101B200087DC04104BD20410592E0410B12E04107F
:101B3000492E041029040610512E04100300000041
:101B40000F160610290000004F1606103F00000077
:101B50003516061011A70510810A0610C7070610D2
:101B6000810C0610930E0610930E0610A90F061096
:101B7000810C0610831106108311061083110610C4
:101B8000850B06108107061045070610A90F0610E1
:101B9000952D04109D2D04109B160610A3160610FB
:101BA0009F160610C52D0410CD2D0410D52D041040
:101BB000DD2D0410052E0410ED2D0410F52D04105C
:101BC000FD2D0410E52D04102916061031160610FF
:101BD00063160610631506102D160610A7160610BC
:101BE000E916061045E1051000000000F716061082
:101BF00025E0051039F30510DB1B061001E8051080
:101C00007F1B0610531C0610211706100000000051
:101C1000331D0610111D06101B1D06103D1D06105C
:101C2000F91C061000000000C11D06109F1D0610C3
:101C3000A91D0610CB1D0610051D061078B597B01E
:101C4000062106A800F08AFE002669468E81BF4C58
:101C50000AA82100342200F089FE0AA800F0AEFE96
:101C6000010005D02000343000F0DEFE00F099FFC6
:101C700006ADE02028706E70AE70E120E870802024
:101C800028710220687106AA0621002000F08EFF4C
:101C9000002805D001002000583000F0C5FE03E008
:101CA0002000B43000F0C0FE1F21002000F082FFB1
:101CB000002806D0010080204000201800F0B4FE6B
:101CC00004E0A0204000201800F0AEFE05A901208D
:101CD00000F074FF002806D00100B8204000201852
:101CE00000F0A2FE04E0D8204000201800F09CFE86
:101CF000F0204000201800F097FE0021002000F0A6
:101D000091FF002806D001008D208000201800F0EF
:101D10008BFE04E09A208000201800F085FE03A8C6
:101D2000801C009004AB04AA921C0021042000F047
:101D300081FF2878029068780190A8780090EB786D
:101D40002A796979A3208000201800F06DFE00BF79
:101D500044A20F21002000F0A2FF002806D00100BD
:101D6000B2208000201800F05FFE04E0C320800055
:101D7000201800F059FE03AA0221002000F095FF70
:101D8000002806D00100D0208000201800F04CFE72
:101D900004E0E1208000201800F046FE6C4D032096
:101DA000287001F008F9002806D00100EE2080001C
:101DB000201800F039FE04E0FE208000201800F01A
:101DC00033FE6E700820E870102028710120A87082
:101DD00008A800BF27A10CC90CC008A801F052F93F
:101DE000002806D001008520C000201800F01CFE4D
:101DF00004E08D20C000201800F016FE029628791D
:101E00000190E8780090002300226978A87801F01A
:101E1000D6F8002806D001009320C000201800F05A
:101E200003FE04E09C20C000201800F0FDFDA8780F
:101E3000002810D0012001F038F9002806D0010058
:101E4000A320C000201800F0EFFD04E0AE20C00089
:101E5000201800F0E9FD00BF08A000F0E5FD18B073
:101E600070BD0000446972656374465F4C6F6361C6
:101E7000746F72001F022000000000003D3D3E3ED6
:101E800020456E6420424C455F496E69742066753A
:101E90006E6374696F6E0A0080B5012001F015F958
:101EA00001F016F9012001F011F901BD80B501F032
:101EB000F9F901BD80B50021022016E080B502F0DD
:101EC000B8FB01BD80B5FFF7F5FF01BD80B502F09D
:101ED000E3FBFFF7EFFF0121042006E080B502F0ED
:101EE0002FFC01BD80B50121012002F0A1FC01BD44
:101EF00080B5184816490862174A0021012002F0EF
:101F00008AFC164A0021022002F085FC144A0021B6
:101F1000042002F080FC02F0EDFC02F075FD0021CF
:101F2000C943884201D100F03CFEFFF787FE02F072
:101F30008BFD0C4A00218020C00002F06CFC0A4896
:101F400000F072FD00211020CFE70000C000041057
:101F50005002002029270410991E0410AD1E041001
:101F6000BD1E04101F27041078060410F0B585B0BC
:101F700004002078042802D0822802D0D7E1E61C91
:101F800000E0261D6178CA4FCA4D052908D01029E6
:101F900000D1BDE13E293FD0FF2900D116E1C3E1C8
:101FA000684601210170217962791206120C1143F1
:101FB000418002F05CFD207961790906090C084333
:101FC000B989884225D1BC48B8810020B87328005F
:101FD000483000F029FD217960790006000C0143AA
:101FE000A2792800743000F01FFD002003F05CF996
:101FF000012003F059F9022003F056F92800B4300B
:1020000000F012FD280000F00FFD0021102002F06A
:102010000FFC00F07FFB8AE1E178012900D1AAE002
:102020000229F8D003290ED00A2900D194E00C2906
:1020300000D18DE00D29EED0162900D1BBE0172983
:1020400000D1BCE0C0E082204000281800F0ECFC89
:10205000E079217A0906090C084303F033FA0022DB
:10206000B44B03F049FA002280235B0303F006FB24
:10207000E079217A21D80906090C0843E679217A0A
:102080000906090C0E4303F01DFA0022A94B03F0C8
:1020900033FA00900191300003F014FA0022A54BAE
:1020A00003F02AFA03F012FB03F01CFA02000B0003
:1020B0000098019903F096FB1EE00906090C0843FD
:1020C000E679217A0906090C0E4303F0FBF9002298
:1020D000984B03F011FA03F0F9FA03F003FA0090B9
:1020E0000191300003F0EEF90022934B03F004FA63
:1020F000009A019B03F013FB0022904B03F0FCF9C4
:1021000003F0E4FAE27A217B0906090C0A43637AB8
:10211000A17A0906090C0B43E179267A3606360CBA
:1021200031430A245443009406001C00080003F0C5
:10213000C9F900227F4B03F0DFF903F0C7FA010071
:10214000230032009C204000281800F06DFCEEE0D7
:10215000012002F07DFBEAE0E07F641CE17F641E69
:102160000906090C0843627FA17F0906090C0A438E
:10217000E37E217F0BE0E07C217D0906090C08430A
:10218000627CA17C0906090C0A43E37B217C0906D9
:10219000090C0B436179A5792D062D0C2943039079
:1021A00002920193200009300090237AE27920798D
:1021B00000F002F9BBE0201D00F0CCFAB7E0617935
:1021C000A07921795E48B0E05FA0AEE03078717808
:1021D0000906090C0843001FF0D05A49401A4FD095
:1021E000401E39D0401F33D0C01E33D0491F401A83
:1021F00003D01F31401A61D083E0747BB07B0006AE
:10220000000C0443F37A307B0006000C0343727A1F
:10221000B07A0006000C0243F179307A0006000C17
:102220000143B078F7783F063F0C38430127049705
:1022300036790396102602960196009400F000FF6E
:10224000002802D0D420400018E0F420400015E01F
:102250008A2012E0942010E0A0208000281800F0CE
:10226000E3FBBF49B88900F0B8FE002804D00100A4
:10227000AA208000281858E0B7208000281813E012
:10228000C1208000281800F0CFFB3179002906D04A
:102290007279CC208000281800F0C6FB03E000BF54
:1022A00030A000F0C1FBAFA000F0BEFB3FE000BFDC
:1022B0005002002078060410FFFF0000DC208000A0
:1022C000281800F0B1FBB179F0790006000C014349
:1022D0002AA000F0A9FBB279F0790006000C0243B5
:1022E000317970790006000C0143B078F3781B0651
:1022F0001B0C1843002301930093082300F081FE78
:1023000015E0317870780006000C01431FA00CE046
:10231000E07804280BDABFF34F8F934893490860A5
:10232000BFF34F8F00BFFDE71EA000F07DFB05B09F
:10233000F0BD00000000F43F0000F4BF0000594071
:1023400040290410FD0300004843495F4C455F4DA0
:102350004554415F4556543A203078253032580A6A
:102360000000000020202020202D2050616972698B
:102370006E6720537563636573730A0048616E640A
:102380006C65203078253034580A00004843495F96
:1023900056454E444F525F4556543A2030782530CA
:1023A00034580A004843495F4556454E543A203058
:1023B00078253032580A0000F4B58AB06C4D6D4C67
:1023C000020006D00100200000F02EFB0020A873C0
:1023D0009CE0119F109E684681812000383000F0FB
:1023E00023FB3078029070780190B0780090F378F9
:1023F0003279717920007C3000F016FB380003F050
:1024000061F808AA03C208A80CC80020C04903F05C
:1024100073F806000F0003F059F9019003F062F819
:1024200006AA03C230003900002280235B0303F0B8
:1024300025F904D806AA0CCA03F0D4F909E008A8C3
:102440000CC80020C14903F057F806AA0CCA03F0D3
:1024500066F90022BE4B03F04FF803F037F91399E9
:10246000129B0A224A430092020001992000C030C8
:1024700000F0DAFAA87B01280AD10320A87304A887
:102480000021017069468989418002F0F0FA01E07B
:102490000220A8730AA8007869468989A9810028C2
:1024A00002D1042002F0D4F9012002F0F9FE280044
:1024B000383000900423012201216846808900F011
:1024C000D4FD002806D0010098204000201800F01C
:1024D000ABFA04E0B0204000201800F0A5FA01207B
:1024E00000900A230A2201216846808900F0C3FD7A
:1024F000002806D00100D0204000201800F094FAF7
:1025000004E0E8204000201800F08EFA0BB0F0BD87
:1025100010B5B94C164A012802D0022810D010BDBF
:102520001321908900F01FFD010001D020000FE071
:1025300020002C3000F078FA012002F093F910BD51
:10254000908900F067FD002805D001002000503080
:1025500000F06AFA10BD2000883000F065FA10BD66
:1025600040E201000A0000000400FA050CED00E062
:10257000500200200C0A0410F0B585B0AF4CB04DED
:10258000C827BF00002803D002283FD004D30CE0A6
:1025900039003A0004260EE00026012000F007FD75
:1025A00001002FD02000C03025E0002803D00228F1
:1025B0002CD0F2D3AAE092B2019289B20091012309
:1025C00001220021012000F0D2FC002804D00100EB
:1025D000200000F029FA03E02000383000F024FA4F
:1025E000002300220121012000F0DDFC002805D09D
:1025F00001002000683000F017FA87E0AE73200079
:1026000098306EE0AE732000F4306AE06421280058
:10261000183001F069F8019700970023012200218A
:10262000012000F0A4FC002804D00100200000F0EC
:10263000FBF903E02000383000F0F6F9102002909A
:102640000190FA2040000090002350222821012010
:1026500000F097FC002802D10021902001E0010049
:10266000B2204000201800F0DFF9062103A800F096
:1026700075F9E12003AE3070132171700021B17043
:10268000F0708020307102207071D420400020183A
:1026900000F0CAF93078029070780190B07800901C
:1026A000F37832797179EE204000201800F0BCF9FF
:1026B00003AA0021012000F072FC002814D1882018
:1026C0008000201800F0B0F90120A8739C20800041
:1026D000201800F0A9F9042002F0C4F8B02080000E
:1026E000201800F0A1F911E00100C420800020189A
:1026F00000F09AF90020A873DC208000201800F078
:1027000093F900218020C00002F092F805B0F0BDDE
:102710000000F43F80B5012002F09AF801BD80B5B9
:102720000220FFF729FF01BD10B5454CA07B03280F
:1027300003D1012002F0B4FD10BD012002F0C0FD64
:1027400064212000183000F0CFFF10BD0000F4BF5E
:102750000000594070B50500297868780006000C23
:10276000014300BF3BA000F05FF9A97840A000F052
:102770005BF9E97842A000F057F9297968790006F9
:102780000014014309B200BF44A000F04DF9A9793B
:1027900047A000F049F9E9794CA000F045F9297A01
:1027A0004FA000F041F9697A53A000F03DF9A97AF1
:1027B000E87A0006000C0143224800F035F9297B35
:1027C00053A000F031F900BF57A000F02DF900240C
:1027D00059A609E0600028180E2142560D214156E5
:1027E000300000F021F9641C287B8442F2DB16A043
:1027F00000F01AF970BD0000140C041010B5104C54
:10280000A07B032805D1114800F00EF90020A07329
:1028100001E0002802D10220FFF7AEFE10BD704794
:1028200010B5074CA07B032807D1094800F0FCF83D
:102830000120FFF76DFE0020A07310BDCC0C04102A
:1028400050020020801004100A000000A4100410A0
:10285000E8100410436F6E6E656374696F6E2048F4
:10286000616E646C653A203078253034580A000077
:102870005258205048593A203078253032580A00B2
:1028800044617461204368616E6E656C20496E64BA
:1028900065783A203078253032580A00525353492F
:1028A0003A2025642028302E312064426D290A0008
:1028B0005253534920416E74656E6E612049443A0B
:1028C000203078253032580A00000000435445205B
:1028D000547970653A203078253032580A0000006B
:1028E000536C6F74204475726174696F6E733A2013
:1028F0003078253032580A005061636B657420537C
:1029000074617475733A203078253032580A0000AB
:1029100053616D706C6520436F756E743A2030782A
:10292000253032580A00000049512073616D706CE7
:1029300065733A20000000002825642C25642900D6
:102940004354452052657175657374206661696CE6
:102950006564203078253032582E0A00002200BFEE
:10296000094202D0491E4254FCD1704770B4103A5B
:1029700003D378C9103A78C0FBD2530701D318C9E2
:1029800018C001D508C908C0D20704D30B8803803A
:10299000891C801C002A01D50B78037070BC70471D
:1029A0008B0701D18307E1D0124205D00B78491C77
:1029B0000370401C521EF9D170474300B0B5054664
:1029C000C07A1224802829D8298C172926D31448A4
:1029D000821D914222D8298A17291FD381421DD8EE
:1029E000A87E00281AD002F074FF002808D0E87EE4
:1029F000002813D0802811D8287F401E0E280DD81B
:102A000008483422294602F075FF02F0DFFF002853
:102A100003D403F053FA002400E087242046B0BD1D
:102A2000FA030000C00E00200EB4C0B5020003A8D7
:102A300001900020009001AB0121044878440C3043
:102A400003F0A6FA029906B0084700BFB5DC010002
:102A500081B0314901E081B030490A6802430A601F
:102A6000096808400090009801B070477CB504F0F8
:102A700033FA00F05DF800F081F80820FFF7E8FF76
:102A80000420FFF7E5FF00F022FB00BF46A000682E
:102A90000090234C206A0125ED430126304008D1E7
:102AA0002068304320602068284020600120FFF724
:102AB000D2FFC020C0050090684604F01FFA6846A7
:102AC0000021002206C0206A304008D12068064359
:102AD00026602068054025600120FFF7BCFF1148F3
:102AE00000681028FBD36846A0214900018000211E
:102AF0008170019100F039FB0B480C49016004F032
:102B0000BDFB002801D000F04CF8002004F026FCAA
:102B100004F0ACFDFCE70000500040486000404875
:102B20004000404810180060A80F00200000304806
:102B300080B588B0182102A8FFF710FF6846002171
:102B4000002206C003200290802040020390102043
:102B5000059002A804F082FE002801D000F021F8C0
:102B600000200090202001900021684604F09EFF84
:102B7000002801D000F015F809B000BD80B586B07E
:102B800018216846FFF7EAFE02200090C002059077
:102B9000684605F027F8002801D000F002F807B0D9
:102BA00000BD72B6FEE700000000000080B505F031
:102BB000BBF880BD80B505F0B1F980BDF8B5060061
:102BC0000F0000203880154C200000F00AFA0100A8
:102BD00023D1200000F009FA0400114DF00705D5BB
:102BE0002100280000F005FA010016D1280000F0AD
:102BF00004FA388021002800243000F0FAF901009E
:102C00000BD121002800483000F0F3F9010004D175
:102C1000210028006C3000F0ECF9F2BDFC0300202C
:102C20005C19041080B5022801D9122080BD05F07E
:102C300099F980BDFEB50C00089F0025158002990A
:102C40000D803D800521014027D0394E300000F035
:102C5000C8F9010022D168460470364C200000F00B
:102C6000CCF9019908802000243000F0C6F90299BF
:102C70000880300000F0B9F93D80694609780229E2
:102C800006D1010020006C3000F0B3F9010005D13D
:102C90002AA20821002000F002F80020FEBD70B535
:102CA00004000D001600234804E070B504000D0078
:102CB0001600214800F0A1F933002A002100401C31
:102CC00080B200F001F870BDF3B581B017001D00AF
:102CD0000024184E6946088024206043301800F014
:102CE0008CF9002804D0401C69460988884202D02B
:102CF000641C072CF0D3072C0BD0684603892420D2
:102D000044433419206A8188DA19914201DB002892
:102D100001D11220FEBD29003A008068C018FFF7DB
:102D20003FFE206A0178890700D547800020FEBD5C
:102D3000B8030020BC020020E002002053544D33B1
:102D40003257423080B505F067F902BD80B505F015
:102D50006DF902BD80B505F0C1F902BD80B505F081
:102D6000F7F902BD80B505F015FA01BD80B505F093
:102D700037FA01BD80B505F057FA02BD80B505F000
:102D800067FA02BD80B505F0EFFA01BD80B505F028
:102D900011FB01BD80B505F035FB02BD80B505F026
:102DA00059FB02BD80B505F083FB02BD80B505F07F
:102DB00081FB02BD80B505F07FFB02BD80B505F04B
:102DC0007DFB02BD80B505F095FB02BD80B505F029
:102DD000C3FB02BD80B505F0DBFB02BD80B505F08D
:102DE000F3FB02BD80B505F02FFC02BD80B505F0F8
:102DF00071FC02BD80B505F09DFC02BD80B505F0FB
:102E0000B7FC02BD80B505F0CFFC02BD80B505F072
:102E1000E9FC02BD80B505F01FFD02BD80B505F0DF
:102E20001DFD02BD80B505F02BFD02BD1CB56C4635
:102E3000247D01946C46247C009405F077FD13BD3D
:102E400080B505F023FE02BD80B505F027FE01BD6B
:102E500080B505F03FFE01BD80B505F057FE01BD10
:102E600080B505F0A9FE01BD80B505F0ADFE01BD40
:102E700080B505F0B1FE02BD80B505F0EFFE01BDE5
:102E800080B505F065FF01BD80B505F09FFF01BD70
:102E900080B505F0E9FF01BD80B506F047F801BD3A
:102EA00080B506F0B7F801BD80B506F0F7F802BDB1
:102EB00080B506F009F901BD80B506F093F902BDB1
:102EC00080B506F0DBF902BD18B587B010AC2478E8
:102ED00006940FAC247805940EAC247804940DACC1
:102EE000247803940CAC247802940BAC24780194DD
:102EF0000AAC2478009406F0F9F908B010BD80B54A
:102F000006F022FA02BD80B506F064FA02BD80B573
:102F100006F010FB01BD80B506F0EEFB01BD80B5EB
:102F200006F012FC01BD80B506F0D4FC02BD80B5F0
:102F300006F008FD01BD80B506F052FD01BD80B56B
:102F400006F0B2FD01BD80B506F0C0FD01BD80B543
:102F500006F0E4FD01BD80B506F004FE01BD80B5BC
:102F600006F0BCFE01BD80B506F0CEFE02BD1CB56C
:102F70006C46A48A01946C46248A009406F0C8FE2C
:102F800016BD1FB56C46248C02946C46A48B01942C
:102F90006C46248B009406F0CDFE04B010BD80B5C5
:102FA00006F0DBFE02BD80B506F0E0FE02BD80B596
:102FB00006F0F2FE02BD80B506F0FEFE02BD1FB5B2
:102FC00008AC247802946C46247F01946C46247EDD
:102FD000009406F0F9FE04B010BD80B506F038FF8D
:102FE00002BD80B506F040FF02BD80B506F040FF8F
:102FF00002BD80B506F040FF02BD80B506F040FF7F
:1030000002BD1CB5059C01946C46248A009406F010
:103010003BFF16BD80B506F040FF02BD80B506F04F
:1030200040FF02BD80B506F040FF02BD80B506F04E
:1030300047FF02BD1CB5049C009406F047FF16BD77
:1030400018B585B00CAC247804940BAC24780394A8
:103050006C46248D02946C46A48C01946C46248C9E
:10306000009406F042FF06B010BD1CB5049C00940D
:1030700006F04EFF16BD1CB56C46247C009406F08D
:103080004DFF16BD1CB50446684606F04DFF0020F6
:10309000082806D06946095C225C0A432254401C79
:1030A000F6E7204606F078FF1CBDE0B501A90870E0
:1030B00001220846114606F07FFF002800D08CBD93
:1030C00001A8007806F096FF8CBD704770477047E6
:1030D00080B5002006F0AAFF80BD01002000090095
:1030E000010026000F0001002900050001002F004B
:1030F0001000010049001000010005D40121C006A4
:10310000C00E8140664801607047C1680322914348
:1031100002220A43C260704709E0C0688007800F3E
:10312000022801D1012070470020704700BFC1680C
:1031300003229143C1607047016170470069704785
:10314000816AC04A0A4082627047816A4800C00FA3
:10315000704700697047816A802292050A43826243
:10316000704780687047C0687047F1B50127B6485E
:10317000C06B3843B449C8630846806B38438863E2
:103180001720FFF7B9FF1420FFF7B6FF009840683B
:10319000002800D00120AD4C20700025000603D18E
:1031A00000988078002813D0A948C1683940FBD026
:1031B00017210160C1683943C1604560C168394069
:1031C000FCD02000103000F01FFBE069206209E015
:1031D000C82040032062E061AD48A061AD48206195
:1031E000AD48606100984068002802D1A020C00569
:1031F0000DE000030A2106F06DFF6060A74E30006D
:1032000000F060FA01006068884202D3300000F0EC
:1032100059FA6060257300980088A14E3060A1695A
:1032200000F073FB00208C21605400213200083232
:1032300003C285480068306100203200183203C2A2
:1032400030216054974AA169606806F05FFFA06072
:10325000207821008C31087420008C30856020009B
:103260008C30077321008C314D7321008C31CD815E
:1032700020006130057045708570A565E5658A4858
:10328000A064656500F025FA6268002312184B41BE
:103290002000403000F066FB012000F0E1FAF1BDB3
:1032A00000E100E0F8B58CB0002069460870674F77
:1032B00038009930019028E0401C1CE00469057337
:1032C0008168002900D088472000F7D16946942002
:1032D000385800F0CBFB94217850684600780128DC
:1032E0000DD1EFF3108172B601980078421C019B5A
:1032F0005B789A42E0D1019A107081F310880198AE
:1033000040780499401801994870019840780199D3
:1033100009780A1A02D28020400012180026002ADA
:1033200029D0049294203C5803940294002502E092
:10333000260024696D1C002C0FD0207B0028F7D0BC
:1033400000F0C7F902000B0003CC083C801A994139
:103350000029EDDB01DC0628EAD32800002500283F
:1033600002D03561039400E00295039894217850CF
:1033700002980028A9E7387B002847D0A2480068B7
:10338000012420405BD03E73A048C178002904D1BD
:103390008178002901D0867026E0387800281CD07A
:1033A00002A800F031FA0499B86E80B200F0ADFACC
:1033B000EFF3108572B630203C540398786104987E
:1033C000B861029838610598F86100F0B9FB85F39F
:1033D0001088002000F044FA06E0EFF3108472B683
:1033E00000F0AEFB84F31088012000F0F3FB3800FE
:1033F000403000F09CF900F06CF97A680023121854
:103400004B413800403000F0ADFA18E03878002821
:1034100015D000F05EF93A6F7B6FFA246403002543
:10342000A4185D418D420AD801D3844207D23800E6
:10343000403000F07CF93800403000F077FA0DB0F1
:10344000F0BD0000FFFFFFBF10180060600B002000
:1034500004100060F8B5040088480668EFF3108592
:1034600072B600F0C3FA864F3B00803303CB083BB3
:1034700003C4083C9A4AF9699868801B06F046FE26
:10348000020085F3108803CC0023801A9941F4BD13
:10349000C2F528008D5B0000ECEB6501FFEFFFFF3C
:1034A000C80B0020260300002D390410F8B586B0A3
:1034B000734D28008C30407B29008C31897B8842F9
:1034C0002FD1287B00282CD1032400F002F904AA74
:1034D00003C202A800F045FC290061316122AA5C08
:1034E000002A02D14A78002A01D0012802D1897825
:1034F000002918D0AA6DEB6D04A803C88C242E5D9A
:10350000002736184F41A86E002180197941002408
:10351000523061418B4227D301D8824224D3022406
:1035200005E0002039E002281ED001281CD06D4B98
:103530009A68002A30D0107B00282DD003CA083AA0
:103540000090019104A803C806000F00A86E002196
:1035500080197941002652307141009E019F8F42AF
:1035600004D801D3864201D2012016E0032C12D1E7
:10357000106900280FD12800403082420BD1012071
:10358000D873002000F0C0FA824801688F4A0A40D0
:103590000260032001E00224200007B0F0BDF8B56E
:1035A0000B0000D00123364E350058352B73110027
:1035B00000D00121297200246C72EC720121A972E1
:1035C000EFF3108772B600F003F903C5083D024619
:1035D0000B462800283003C8121A8B418748A342A3
:1035E00001D8824204D3AC7287F310880120F2BD67
:1035F000002000F0EFFA040087F31088012000F0AB
:1036000083FA2000F2BD000010100060F90B0020CA
:1036100070B50320C0437B490A6802400A600A680B
:103620001040086020480168684A0A400260144C53
:1036300020005830002545724581EFF3108672B6A0
:1036400000F047F8A26DE36D121A8B418C20205CCC
:103650000021121A8B4186F31088002B04DC01DB59
:10366000012A01D2012070BD002B04DC01DB0F2AEE
:1036700001D2022070BD002070BD00001400006067
:10368000600B0020EFF3108072B65D4909685D4A57
:10369000091D516011680323994302230B431360F2
:1036A00080F3108870470000281800607047AB480E
:1036B0000100613100226123C05C002800D00A7043
:1036C0008A70704780B5064AA449C96906F01EFD94
:1036D00002BD80B500F08AF9A14803C804BD00000E
:1036E00035060000EC0B0020F8B504000D00FFF7D4
:1036F000F0FF06000F00290D28030A22002306F020
:1037000026FD8019794102000B00200000F02AF903
:103710000400012000F0F8F9E0B2F2BD10B500F0AD
:1037200021F90400012000F0EFF9E0B210BDF8B576
:10373000AC4C21680E00002300250A0001E0350092
:103740003669002E07D08642F9D137698E4201D101
:103750003A0000E02F616D462B70037320689042A1
:1037600015D06946100000F081F9206068460078A5
:1037700000280DD0EFF3108072B661794A1CA3794E
:103780009A4200D0491C617180F31088F1BD22601B
:10379000F1BD00003018006018B5002000900098BE
:1037A00091480168094A0A400260AD490A78531CF1
:1037B0004C78A34200D0521C0A700121C2690A430E
:1037C000C261C0690140009111BD0000FFFFFFBF51
:1037D00010B5040000F00AF9614803C80A008442E9
:1037E00000D2521C1100200010BD9E4881680122A9
:1037F0000A438260002101607047000066FEFFFFFF
:10380000101800600C00006070B50400964D280090
:10381000FFF7A7FC06002800FFF7A3FC8642F6D1BD
:10382000002EF4D0B74932124A43F3B24B43191277
:10383000511810314911E16026602800FFF793FC10
:1038400006002800FFF78FFC8642F6D1002EF4D048
:10385000B011B849484380300012A060666070BD66
:10386000F8B50700B44D687A7D214843C90006F0D9
:103870001DFC461CF6B2394CB04AA1691B2006F06B
:1038800045FC2870687800F02AF83D216054E878FB
:10389000801900F024F8382160542879801900F04C
:1038A0001EF839216054687900F019F83A21605403
:1038B000A87900F014F83B216054002F06D0E87876
:1038C000801900F004F81B303C216054F1BD6821E0
:1038D0004143090ADB225043000C0818704700B529
:1038E00002001E4840690021002306F06FFC0322FD
:1038F000002306F06BFC8022D204002312184B41F7
:10390000D20E58010243100000BD80B58B4A06F06C
:10391000FDFBAB49884201DD080002E0102800DA17
:1039200010200005000EA749086001BD10B5A64C87
:10393000207B002806D12078002801D0FFF755FF12
:1039400001202073FFF7C5FE0022643051410200C0
:103950000B002000403000F005F810BD600B002087
:10396000E00B0020FEB500256C462570017B002988
:1039700001D00120FEBD0CC0083801210173194C93
:1039800026680196070001E035003669002E08D050
:103990000CCE083E03CF083F8B42F5D301D88242BC
:1039A000F2D338000661002D01D1019000E02861BA
:1039B0000199814213D1694600F058F820606846A9
:1039C000007800280BD0EFF3108072B661794A1CA2
:1039D000A3799A4200D0491C617180F3108868462F
:1039E0000078FEBDF40B002030180060F8B584B0FC
:1039F000EFF3108672B6744C206F616F02AA03C297
:103A00007248FFF7A6FB030027008037BB60704DAC
:103A100002A803C8009001912A00E169A06F181A5A
:103A200006F074FB0021009A019B801859410CCFCD
:103A3000083F99420FD801D390420CD200900191D7
:103A40002A00E1690020C04306F060FB0021009AD3
:103A5000019B8018594103C786F3108805B0F0BD5B
:103A6000F90B00200810006000100060F1B584B070
:103A70000F0004460020387000E02469002C3ED07E
:103A8000207B0028F9D0EFF31080009072B6FFF78A
:103A9000ADFF4D4D03CC083C2A0080320CCA801A81
:103AA000994102AA03C202A803C800291DDB01DC58
:103AB00001281AD3214AAB6902A803C8190006F0ED
:103AC00025FB0500202D00D82025C24E3000FFF731
:103AD00040FB40190830F0623000FFF73CFB306BD0
:103AE0008021C9050143316301E00120387000984D
:103AF00080F310883878002801D0049800E0200076
:103B000005B0F0BDF6BC080010B5B3490C00983400
:103B1000002808D0207800280BD108004030FFF79B
:103B200005FF012004E008004030FFF700FE002000
:103B3000207010BD53070000C500002026030000C0
:103B400070B52248FFF705FB1F4C25008035A860A3
:103B50001F4E3200216AA36FC01A06F0D7FA226FF7
:103B6000636F002180185941206761672078002821
:103B700013D1A868A16F401AA16888420DD2320003
:103B8000216A0020C04306F0C1FA0200206F616F75
:103B9000002312184B4122676367206F616F03C5D2
:103BA000083DA868A067226F0B4660680021801856
:103BB00059412200283203C2E069206270BD000032
:103BC000FF0F000008180060600B00200018006064
:103BD00035060000F0B585B000216A4611707E4CB4
:103BE00025006035A978002900D1B6E0EFF31081F7
:103BF000049172B6012801D1FFF7F8FE20002830A9
:103C0000C0C8A26DE36DC8208002002180197941EF
:103C10008B4210D301D882420DD3B9225200002327
:103C200092197B412800203003C88B4201D802D36F
:103C3000824200D38EE02800203003C800220A30E0
:103C40005141A26DE36D00264C3AB34199427DD8B3
:103C500001D390427AD23C20265C6020205C2979F6
:103C6000012905D1002801D0382006E0392004E0E0
:103C7000002801D03A2000E03B20205C0190A26D9A
:103C80002800203003C8101A0390544AA1690398F1
:103C900006F03CFA0290A86AC027FF05A9687118CF
:103CA000C831039A914202991AD24D4A1278891A60
:103CB000019A8E1A8019474948623800FFF72CFA9A
:103CC0003800FFF733FA4348806A8021C905014371
:103CD00040488162FFF73FFA01984149097811E0B5
:103CE0003D22A25C891A019A8E1A81193800FFF7C9
:103CF00023FA3848FFF724FA3800FFF706FA01984C
:103D00003D21615C4018A96A029A891822008C3210
:103D100051603218411D8A420CD23800FFF7FCF97D
:103D20003800FFF703FA2B48FFF70AFA012069462B
:103D3000087005E02B4AE16906F0E8F98C2160542F
:103D40000020A87001206870E87003E0AE700120C8
:103D500069460870049880F310886846007805B0BA
:103D6000F0BD38B504001B4D2800FFF7EEF9002820
:103D700003D0686A2060032032BDC025ED0528000D
:103D8000FFF7CBF9002805D02800FFF7D7F920600E
:103D9000012032BDE8688007800F032805D1280084
:103DA000FFF7CCF92060022032BD002032BD80B583
:103DB000FFF7F2FCFEF786F801BD81B0002000900D
:103DC00000980948016801220A43026000680090D7
:103DD00001B0704700180060600B0020260300004F
:103DE000C500002035060000740000600168002254
:103DF00002814281828182730B78FF2B05D0FE2BDA
:103E000009D103895B1C03810AE04268511A091F2A
:103E1000818100207047002B0DD143895B1C4381B9
:103E20004A88D21C032313435B1CC9184A1D4368EC
:103E30009A42E1D3EDE703207047F3B5079C089958
:103E4000250005D06D466C80FE242C706C4600E089
:103E5000446885684668AE4217D22678FF2E14D093
:103E6000067B002E04D0002606732678002E0ED185
:103E700046686488E41C032727437F1CF4194460C8
:103E8000AC4202D22678FF2EEFD10420F6BDFE2EE2
:103E900001D00320F6BD6E463679FF2E04D0667839
:103EA0006F463F79BE42E3D14068001D10606088D4
:103EB0001880002901D0607808700020F6BD7FB519
:103EC00015001C00099E002232800B9A01926A465E
:103ED000128D009202AB03AAFFF7AFFF010013D1CE
:103EE000694609898D4201D306200DE0089A481BD6
:103EF000904200DA0200200003994919FEF750FDB4
:103F0000684600893080002004B070BDFEB5BB4D0E
:103F10000D40491B6B4619700024070016000AE08B
:103F20000422311901A8FEF73BFD019A391900203E
:103F300006F066F9241DAC42F2DB0020C04301907C
:103F400068460278711901A8FEF72AFD019A7919CD
:103F5000002006F055F9F7BD70B544688668B44294
:103F600002D22678FF2E01D1042070BD007B0028EC
:103F700001D1FE2E01D0052070BD6588A94201D374
:103F8000062070BD10001A00231D591806F0AEF966
:103F9000002801D00020C04370BD7CB5079C0025DF
:103FA000069E3580250005D06D466C80FE242C7061
:103FB0006C4600E0446845688668B54202D22678BF
:103FC000FF2E01D1042076BD007B002801D1FE2EFA
:103FD00001D0052076BD6088814201D3062076BDE0
:103FE000401A984200DA030010001A002B1D5918DD
:103FF000FEF7D6FC608806990880002076BDF8B5EB
:1040000084B007000E001500B44C254203D106F021
:104010006DF9002820D001A80C21FEF79FFCCD48A7
:104020003818C00A0290681E0443641C6003000E26
:104030000390694601A806F069F900240AE06010BF
:10404000800F00190321884332583919002006F0E7
:10405000D7F8241DAC42F2D305B0F0BD01210170A8
:104060000021418081807047F1B588B00C001500B7
:104070001E0000200090FF2229002000FEF770FCA7
:10408000FE206946087507946846458206960E9D8F
:10409000009C05AE19E06846008A6988401A401EF7
:1040A00003240443641CA4B268886946098A0A1A76
:1040B000521E03211143491C89B28F4242DB012069
:1040C0000022B94228706A8040D06846408A071BA7
:1040D0003F1FBFB22878002826D0701C0390A88804
:1040E000029004A8019000970798001D0319002270
:1040F000FF210898FFF7E3FE6946098AA9800100BD
:104100000ED16846008A7080042205A9079800191C
:10411000FEF746FC7088C01C032101436418C1E708
:1041200006990C8009B0F0BDA888019004A8009001
:104130003B000798021969880898FFF72EFF0100D5
:10414000A9D0EFE700212970C01968806846408A2D
:10415000069908800020E5E7F8B5AE4CA544AE49C5
:10416000020014235A438F187989002901D10020B5
:1041700040E004A900F013F9059D02A8FFF76EFFC7
:104180008026360102A8009001AB320008A904A8DD
:10419000FFF76AFF0400042C06D0002C2AD16846E1
:1041A0008088B042EED103E068468088002808D0BD
:1041B0006846828808A92800FFF721FFAD19002C66
:1041C000E0D008A80C21FEF7C9FB6248281840037C
:1041D000000E09900698401E711E0143491C481BA1
:1041E0004003000E0A90694608A806F08FF83800D0
:1041F000FFF7FCFD89498D44F0BD0000FCFF000085
:10420000F8B5844CA54400216A4691710022002330
:10421000814906000BE0B0680C245C43005D142467
:10422000604308184089002800D001225B1C3079C7
:104230008342F0DB002A25D080221201FF2108A84A
:1042400006F0ACF80025802424010DE002A8FFF759
:1042500005FF02A8009001ABE21B92B208A8C119A9
:1042600004A8FFF701FF6D1C307985420CDAB068B5
:104270000C226A43011D8F5804A9805C00F08FF85E
:104280000028E3D000201BE0220008A93068FFF7D7
:10429000B6FE614C370069468D7900260CE0B8689F
:1042A0000C217143405C142148432018FFF79EFD08
:1042B000010000D00500761C38798642EFDB28002B
:1042C00056498D44F0BD96498A79824201D1022037
:1042D0007047897C8142FAD000207047FF070000B8
:1042E000F8B54C4CA54404000E0080221201FF21B9
:1042F00008A806F053F800256846047180242401BC
:104300001CE00C276F43B068C05D6A46127990428A
:1043100013D004A900F043F8B068C019476802A898
:10432000FFF79CFE02A8009001AB9B1CE21B92B21F
:1043300008A8C11904A8FFF797FE6D1C30798542C3
:10434000DFDB220008A93068FFF759FE002033495F
:104350008D44F0BD0000FCEF10B5002470480C2126
:10436000614341188A792C4814235343C0180368C9
:10437000002B10D1012A0EDC0A6802608B88D2184B
:10438000426009890182FFF731FD010004D1641CFC
:10439000012CE3DD01E0012010BD002010BD10B5AF
:1043A0000200022A01DB012010BD1B4B14246243D2
:1043B0009A1813684B6052688A6001220A73087069
:1043C0000020487310BD7FB56A4C057814267543EC
:1043D0006419A47B002C01D00A2008E00394029405
:1043E000099C01946C46248C0094FFF768FD04B08E
:1043F00070BD7CB55F4C0578142675436419A47BA9
:10440000002C01D00A2076BD0194069C0094FFF791
:10441000C4FD76BDE0F7FFFF280F00202408000050
:10442000FAB583B017000325791E03260E43761CC8
:104430000CE00C78FF2C18D0FE2C01D0002C6BD196
:104440004A88D21C2A43521C8918416082684168FC
:104450004B1D9342EDD38B4900781422504308182A
:104460004089002856D1022057E00290501A864B0E
:10447000984201D2521A00E01A46824C92B2B0B26F
:104480006B461B8DC018001D82423BDB6846007BDB
:10449000019100210091FE216A4611706946487021
:1044A0006846008D30184880009A0199002005F078
:1044B000A7FE049AB1B20198001DFFF727FD0B9AE1
:1044C0006846018D0198B6B28019001DFFF71EFDE8
:1044D00020000830029909781422514340180188BD
:1044E000491C0180029800781421484320188189D2
:1044F0006A46128DBA18521E1543491B491F818105
:1045000000200AE0029800781421484320184089CE
:104510000028A8D00B2000E0032005B0F0BD00006B
:10452000EC19041010B504006168A06881421ED225
:104530000878FF281BD0FE2817D1FF22D243002085
:1045400005F05EFE4F4801000831227814235A43DB
:1045500089180A88521E0A80217814225143401873
:104560004189491C4181002010BD052010BD042057
:1045700010BD0000280F002078B585B0040000268B
:1045800000966946FFF79FFE3E4D02281ED114207B
:1045900044432C19256802A80C21FEF7DFF93B489B
:1045A00028184003000E03906068401E38490143FC
:1045B000491C481B4003000E049001A902A805F005
:1045C000A5FE2000FFF712FC00201AE0012817D1F9
:1045D00000992000FFF784FE04000FD10AE0009844
:1045E00080680C217143405C142148432818FFF770
:1045F000FDFB761C009800798642F0DB200000E08D
:10460000012006B070BD1CB5040000200090694672
:104610002000FFF758FE022803D12000FFF79CFD81
:1046200016BD012803D10098FFF7EAFD16BD012051
:1046300016BD38B5174800214356DAB2114C14257F
:10464000554364196589002D03D0A589248AA542A4
:1046500007D3521CD2B2022A00D100229A42EDD1D5
:1046600006E0531C5CB2022C00D10023190001E0CB
:104670000022D2430170100602D4D0B2FFF7C3FF6C
:10468000002032BD280F0020FFFF00000000FCEFDB
:10469000FF07000000100020F0B581B025490C682C
:1046A0000025657405F084FE234E3068C06806F06E
:1046B000DFF8002801D0042723E03068C06806F046
:1046C000C1F8002801D001271BE03068C06806F05F
:1046D000BDF8002801D0022713E03068C06806F05A
:1046E000CFF8052700280CD13068C06806F0CCF858
:1046F000002806D13068C06806F092F800282F46DE
:104700000BD00120B8400D4909680A6802430A60CD
:10471000002006F07DFBFDF7E5FB607C012807D15A
:10472000217B0F200840A268090906F081FB65740F
:1047300001B0F0BDE80F0020EC0F0020D80F0020E2
:1047400080B506F077FB80BDBCB5584CA1690091DF
:104750000840A06135E0521CD300E51803000B406F
:104760002F681F40F7D02A68104001406868084051
:1047700002D10020C04368606868084000F09AF8E1
:1047800001006A680120884082436A606162EFF339
:10479000108172B6626A01209040C24320691040C5
:1047A00020610220C300E318083B1D6815401D600E
:1047B000401EF7D181F310883D48616A8900405856
:1047C00080472369E2696069256AA16903400B405B
:1047D00003D0154001D10022BEE70020C043606233
:1047E000206A104014D102F047FFEFF3108572B633
:1047F0002169E06962690A40A169114004D1216A16
:10480000014001D102F039FF85F3108806F028FB42
:104810000098A061B3BD38B51400EFF3108572B6EF
:1048200000F048F8800022490C5085F3108831BD13
:1048300010B5EFF3108272B61C4B1C6904431C6167
:10484000C90059180B681843086082F3108810BD1E
:10485000EFF3108172B6154AD3691843D06181F322
:1048600010887047F8B5114D696A00910022D24353
:10487000914201D1002701E001278F402E6A286272
:10488000040003E02100380006F0EBFAE86920405C
:10489000F8D000986862EFF3108072B6E969A1431E
:1048A000E96180F310882E62F1BD00003004002021
:1048B000940C00200021020C120401D110210004EC
:1048C000020E120601D108310002020F120701D1B7
:1048D000091D00011F22511A02A2000F105C081AC4
:1048E000C0B2704704030202010101010000000090
:1048F0000000000010B5FFF72FFD424C211D0020E5
:10490000FFF74DFD210014310120FFF748FD201D68
:10491000206010BD3EB53B4D022802D12C0014345E
:1049200000E02C1D2C6001936B461B8B00930B0049
:1049300001002000FFF774FD002805D0022801D1F6
:10494000002000E00120C0433EBDF8B584B00E0059
:1049500019002C4C022E03D125001435012301E04F
:10496000251D00230700256028466D466A810391B6
:104970000A9D022F08D102A900912B00039A6946D3
:104980004989FFF736FD0FE0002F03D10100180021
:10499000FFF705FD02A801900095039B6846428938
:1049A00031002068FFF70FFD010001D1002005E074
:1049B000042801D1022000E00120C04305B0F0BD71
:1049C00010B5140023000A0001000E480068FFF72C
:1049D000C3FA002804D001D5200010BD0220C04336
:1049E00010BD80B5022807D10649086814318842F5
:1049F00007D0FFF797FD01BD032802D10020FFF784
:104A0000BBFD01BD500F00200120FFE70D490860EC
:104A1000002070470120C0430A490968012900D1DC
:104A2000002070470020EFF3108172B6054A13682A
:104A3000032B02D00120C04301E00123136081F366
:104A4000108870472404002080B55748574941809A
:104A500000210170564806F009FA002801D0FEF73F
:104A6000A0F8544A00210820FFF7D5FE01BD38B553
:104A700004004D4D2078002802D001280FD031BD10
:104A80002878002803D160886880012012E04A4815
:104A9000FDF7CAFF13216088FEF765FA31BD68880B
:104AA0006188884207D118212800FDF757FF3F4849
:104AB00068800020287031BDFEB50B00002801D0B1
:104AC00001266FE00026384DA988EA8868883B4CAB
:104AD000002B05D0022B2BD013D3032B3ED061E04B
:104AE00037A0FDF7A1FF04216888FEF797FA002898
:104AF00003D100F01DFB20004BE0010020004C30F2
:104B00004EE013000A0001002000B430FDF78CFFD6
:104B1000EB88AA8804216888FEF784FA002804D16B
:104B200000F006FB2000FC3033E00100962013E08B
:104B3000B22040002018FDF777FFEB88AA880421F7
:104B40006888FEF773FA002804D100F0F1FAC82053
:104B500040001DE00100E620400020E0AA8A002A73
:104B600014D002216B46998001A9009102230421EF
:104B7000FEF760FA07000220FFF774FEA98A84207E
:104B800080002018FDF750FF002F05D18D208000F8
:104B90002018FDF749FF05E0390098208000201813
:104BA000FDF742FF3000FEBD740F0020FFFF000044
:104BB000DD4B0410D350041088110410C0110410F0
:104BC0004741545420736572766963657320646944
:104BD00073636F766572790A00000000F0B589B0E2
:104BE0000500287869780906090C08430C26012479
:104BF00004279349401A00D159E2401E00D183E1B5
:104C0000401E00D198E0401E00D1BEE0001F06D03B
:104C1000401F00D139E2401E00D144E255E2A9789C
:104C2000E8780006000C01438648FDF7FDFE0020F1
:104C30008549AA78EB781B061B0C1A434B889342D4
:104C400000D00120AA78EB781B061B0C1A4318230E
:104C50005843081802900298408890426AD1E87937
:104C6000297A0906090C0843AC79210005F01EFADF
:104C7000C0B2142C01D100970496062C02D10097E3
:104C80000021049100270395009E069010E0C2A029
:104C900007E0491C8842FAD1029884810298C581B4
:104CA000BE48FDF7C1FE039880793618F6B27F1C26
:104CB000F9B206988142B1DA039880194079039AD3
:104CC000921D925D140204430398C01D805D039AF7
:104CD0000832925D1502054304983018039A093290
:104CE000125C039B0A33185C000210430590019587
:104CF0000094059B069A491CCE48FDF795FE029844
:104D00008088002801D0844201DA02998C800298C0
:104D1000C088002801D0A84201DA0299CD80059808
:104D2000C02149018842B4D102980481029845818A
:104D3000C148B6E7C148A5E1A978E8780006000CAB
:104D40000143404EAA793000F430FDF76DFE002497
:104D5000A879844200DBB8E1A000290009310918D4
:104D60000B784A781206120C1343E91D08180278D2
:104D700041780906090C0A432100A420400030189C
:104D8000FDF752FE641CE4B2E2E7A978E878000679
:104D9000000C01432B4FDC2040003818FDF744FE87
:104DA00000200090A878E9780906090C08432649F4
:104DB0004988814200D00094A878E9780906090C56
:104DC0000843214CA11C009A18235A4389180291C8
:104DD00002990988814200D092E0E879297A09068F
:104DE000090C0843AF79390005F060F9C0B20590AD
:104DF0000520152F01D101900696072F02D10190B1
:104E000000200690E879297A0906090C0843401E1B
:104E1000E871000A2872059A02980188BB48FDF7DC
:104E200003FE002000991822514361180891039550
:104E3000019C69460874034F1EE057A011E000BFB3
:104E4000030C000054140410740F0020001D854250
:104E5000F3D1089806820798089948829C20800020
:104E60003818FDF7E1FD039880792418E4B268460C
:104E7000007C401C694608746846017C05988142A4
:104E800000DB22E1039800190079039A1219527984
:104E900016020643039800198079039A1219D279F1
:104EA000039B08331B5D1B0213430793069AA2184A
:104EB000039B09339B5C039D0A35AA5C15021D43C5
:104EC000D1D00028CFD0002ECDD0079A002ACAD04A
:104ED0000292019600902B00059A491C88208000C0
:104EE0003818FDF7A1FDA8208001854202D100BF3E
:104EF00099A0B6E7401C8542A8D100BF9EA0B0E7AC
:104F0000AB2080003818BDE0A978E8780006000CD6
:104F100001437F48FDF788FD0020A978EA78120652
:104F2000120C11437B4A52888A4200D00120A97892
:104F3000EA781206120C11431822504304007648F6
:104F4000005B884200D09CE0A8790221012803D1AF
:104F50000291002205920497022803D1029105963E
:104F600012200490E879297A0906090C084304996B
:104F7000C9B205F09BF8C0B20021664A568B128B6D
:104F8000644B1B1906930395079068460171C28014
:104F9000624F22E000A014E00A000000C8140410D0
:104FA000009533006846C2882100EC208000381844
:104FB000FDF73AFD0698408AB042EBD1069885820B
:104FC00075A0FDF731FD029804994018C0B2029017
:104FD00068460079401C694608716846007907995F
:104FE00088426DDA0398C01D0299405C039908312C
:104FF000029A895C0D0205430599501803990931FD
:10500000095C039A0A32105C04020C43A020800160
:10501000844205D12A0021004148FDF705FDD2E771
:10502000C01C84420CD100266946CD802A00210094
:105030003C48F2E7941404100C190410F014041006
:10504000FD308442ACD0801C8442A9D02E002A00BE
:10505000210000BF57A0FDF7E7FCA8208001844293
:1050600002D100BF5BA0ACE7401C844202D100BF6C
:1050700060A0A6E7001D84428CD1F920800038187A
:105080009FE72948FDF7D0FC1FE0AA79E8790006E0
:10509000000C0243A978E8780006000C014323487D
:1050A000FDF7C2FC11E00220FFF7D2FB0DE02979E9
:1050B00068790006000C014320A0FDF7B5FC04E070
:1050C0006846C08813494E830883002009B0F0BDAC
:1050D000704710480178022900D0704780B501213F
:1050E000017000210020FFF7E7FC01210020FFF7FD
:1050F000E3FC02210020FFF7DFFC03210020FFF783
:10510000DBFC00210820FFF793FB01BD44160410CF
:1051100058170410740F0020760F00205414041048
:105120008C170410B81704106C180410C018041061
:1051300080B50220FFF796FB01BD000020204D54F2
:10514000552065786368616E6765642073697A6568
:10515000203D2025640A00002C2047415020444572
:10516000564943455F4E414D452063686172616316
:1051700020666F756E640A002C2047415020415014
:1051800050454152414E434520636861726163203E
:10519000666F756E640A00002C2053657276696331
:1051A00065204368616E67656420666F756E640A8A
:1051B000000000002020555549443D30782530340A
:1051C000582C2068616E646C653D30782530345809
:1051D000000000002C20666F756E6420474150204F
:1051E0004445564943455F4E414D455F55554944F9
:1051F0000A0000002C20666F756E64204741502025
:10520000415050454152414E43455F555549440A2E
:1052100000000000021D13688B43136002681143F5
:105220000160704781B091490A6802430A600968C9
:1052300008400090009801B0704730B585B0040078
:105240000820FFF7EFFF8748610045182988009183
:1052500001210191029102210391A10044186946A4
:10526000A06805F041FE80480068C00610D5A0681F
:105270009021C905884203D100997D48FFF7CAFFF4
:10528000A0687C49884203D100998748FFF7C2FF94
:1052900001222988A06805F0D5FE002005B030BDA8
:1052A00080B5704B002202E080B56E4B01224100B8
:1052B000595A80001818806805F0C4FE002002BD0D
:1052C00080B5684A4100515A80001018806805F086
:1052D000BFFE002002BD70B586B006000C00300095
:1052E00001D1042000E00820FFF79CFF20006F4D53
:1052F0007100695A01910121039102210491B100C9
:105300006C18010006D10020029001A9E06805F0A8
:10531000EBFD1FE001281DD18020400064490A6890
:1053200002430A600968084000900098802040020B
:10533000029001A9E06805F0D7FD28000830851922
:10534000002203210020285605F0C1FE0020285627
:1053500005F0C2FE44480068C00610D5E068902100
:10536000C905884203D101994148FFF753FFE0681E
:105370004049884203D101994B48FFF74BFF002079
:1053800006B070BD80B5494A4100515A80001018DE
:10539000C06805F051FE401E8041C00F02BD80B5BF
:1053A00005F05EFE01BDF0B587B00F0000260024B9
:1053B000002F02D10124E44350E03E4994224243AD
:1053C000891800913C498000085800990860042021
:1053D000FFF728FF0820FFF725FF8020C00037498E
:1053E0000A6802430A600968084001900198022097
:1053F00002900390059001250495069002A9902043
:10540000C00505F071FD18480068C00603D5029973
:105410001748FFF7FFFE0295069602A9154805F00A
:1054200063FD0325ED433900009805F07BFE00285D
:1054300000D02C000021009805F0AAFE002800D022
:105440002C000021009805F0BCFE002800D02C00A4
:10545000009805F07FFE002800D02C00200007B047
:10546000F0BD000064040020000050485000404897
:105470002000504800001048F8B500240D4E00915F
:10548000150094270BE0FA239B00012200980119D4
:105490000B4800787843301805F01CFF641CAC42C0
:1054A000F1D32800F2BD0000280050487804002005
:1054B00054004048000C0020900400205800404850
:1054C00002100020010042221201D21E004207D029
:1054D00002D4521E0018FCD5C10A400512058918D5
:1054E000704700000100EED54042F446FFF7EBFFA5
:1054F0000122D20711436047F0B50E005E4001253E
:10550000ED072E40B446AE0ADF184C18F44208D21C
:10551000F7420ED2640D01D07F0D12D100206146FA
:10552000F0BD05D1F74201D87F0D05D10020C14360
:10553000F0BDFBD1640DF9D00020C14349054908F5
:105540008FE0E419C902DB0229432B43DB0A460D35
:10555000C00231438E4630B487B295B27D432E0CE3
:10556000ADB2140C7C43A419260C240425439CB230
:105570007C43A419190C7943270CC919A4B20F0450
:105580003C43090C000C97B247432E0CBE1935431F
:10559000ADB2170C4743360CBF19A6B2BF193E0473
:1055A0003543240C3E0C36199FB24743BF19BCB299
:1055B0003E0C89191F0C47437F183E043443390CB5
:1055C000704680B297B247432E0CBE193543ADB238
:1055D000170C4743360CBF19A6B2BF193E0435431A
:1055E000240C3E0C36199FB24743BF19BCB23E0C87
:1055F00089191F0C47437F183E043443390C774602
:105600003F0C90B278432E0C80190604ADB22E43A5
:10561000050CA0B22D18120C7A435019020C80B25E
:10562000240CA4189AB27A43121914042043120CC1
:1056300089181B0C7B43C91830BCEF0A394203D1CF
:10564000B61940414941641E6F12BF0DE41B0BDBCC
:10565000FF19BC4211DA240500274208AE41784107
:10566000614166463143F0BD641C05D1401C614177
:10567000CF0201D34908F4E750E75DE730B40124D5
:1056800064054D00EC420BD85D00EC4208D80C00DC
:105690001C4364000443144304D28B4200D1824271
:1056A00030BC7047FCD09942FAD19042F8E78300B1
:1056B0008500070007008300850005000700030040
:1056C00003000F000500820081000500F4464A181F
:1056D00005D200F00FF801D580174008604700F0B0
:1056E00009F80121C907884200D9080040426047F3
:1056F0004A1812D2400DC90208430121C9070843C4
:10570000520D40210901521A521C06D452421F3236
:1057100001D4D0407047C017704700207047F0B4E4
:105720000125ED070F005F404FD48B4200D182422C
:1057300005D98446100062468C4619006346DF187E
:105740004C18640D7F0D3AD0661C760537D0E61BE9
:10575000352E34DCDB022B43DB0A0C0DC902294356
:10576000C912202E0DDB1700203E06D01F00F74186
:10577000F3405F400026012A7741C01871410DD2E5
:1057800017E01700F741F2405740F3415A40B34049
:10579000F3405A400026801859410AD3A21C5205F2
:1057A0000FD0C207012F724117004008CB071843E2
:1057B0004908641C24054208AF4170416141F0BCB6
:1057C0007047641C21050020F9E76B4010E06B4036
:1057D000ABE7F742F3D1E943F1E72442EFD10020F0
:1057E0000021ECE7F0B40125ED070F005F40EED497
:1057F0000C00871A9C4105D2C01BA141D2196341FC
:1058000069406B40AE0ADF184C18F442E1D2640DD7
:105810007F0DE2D0E61B362ED1DCDB022B43DB0A08
:10582000A4460C0DC9022943C90A012E28DC04D163
:10583000D6075208DF073A435B08EF0A76429041E9
:10584000994114D039423BD1B61940414941761CA7
:10585000394204D1761C001849413942FAD0B94383
:105860006746B74208D9A41B24052143A7E7004295
:10587000EAD13642E8D1A2E7E40AE10700209EE738
:10588000202E0BDD203E1F00F340F7415F40012A30
:10589000002257417E42984191410BE01700F741A9
:1058A000F2405740F3415A40B340F3405A407E42E1
:1058B000904199410A0303D2641EB61940414941FF
:1058C0000027641E24054208AE4178416141F0BCC6
:1058D0007047002070470300FFFFFFFFFFFFFFFF3F
:1058E000FFFFFFFFFFFF010000000000FFFF0100BE
:1058F0000000FFFF80B505F055FF01BD80B50B002E
:1059000011001A00FDF72CF801BD80B504F0EEFC83
:1059100002BD7FB504000D001600684605F0A8FF23
:1059200068460178217041782970807830707FBD99
:1059300080B505F0EDFF01BD80B506F02BF802BD86
:1059400080B506F049F802BD80B506F079F902BDD0
:1059500080B506F0CDF901BD80B506F0D1F901BDE5
:1059600080B506F0DFF902BD80B506F0DDF902BDB5
:1059700080B506F0DBF901BD80B501F021FC02BD68
:1059800080B505F09EFF02BD80B506F005FA01BDA9
:1059900080B5FDF79EFE04BD80B5FDF7BFFE02BDDC
:1059A00080B5FDF7C4FE01BD80B5FDF7F8FDC0B2BE
:1059B00002BD80B5FDF72CFEC0B202BD80B5FDF77B
:1059C00049FD04BD80B5FDF75DFE01BDF0B59BB09E
:1059D000EC4C7F20C643FDF7EDF9EB4D012802D0DA
:1059E000E87A002810D0274634467834FDF7E2F9EB
:1059F000E97A6143784338184418FDF7DBF9E34945
:105A00004843E97A414364186234FDF7D3F9012829
:105A10000ED1304678302989414330465C30AA7A2D
:105A200042435018314660312A7B4A43801800E0D7
:105A300000200490E889149006F0C4F9012801D0F0
:105A400006F0C2F906F0C2F90128159409D13446CE
:105A50005034FDF7AFF96043E97A414308390A91C0
:105A600001E000200A90CA4C06F0AEF90128204659
:105A700016D006F0A7F90128204611D02920285C6D
:105A8000002820460CD12520285C0028204607D17C
:105A90002620285C002801D0204601E030463C301A
:105AA000139020462030169006F08EF9012815D06C
:105AB00006F088F9012811D02920285C00280DD192
:105AC0002520285C002809D12620285C002802D047
:105AD0002046203001E030465430169006F074F92C
