:020000041005E5
:10A0000000000120F52B06101D2F06101F2F061033
:10A010000000000000000000000000000000000040
:10A02000000000000000000000000000212F0610CA
:10A030000000000000000000232F0610252F06104E
:10A0400027C005102BC3051083DF05108BE1051019
:10A050000000000000000000000000003FE40510C8
:10A060002D2F06108FF305107F0106103F020610FA
:10A0700073020610492F0610000000007B2F061007
:10A08000892F06107F030610632F061000000000C2
:10A090005B2F061000000000732F0610532F0610D0
:10A0A0008F1306106B2F0610E7130610DB1D06102A
:10A0B000671E061000000000000000000000000005
:10A0C000FD1D06103DB70510A31F0610AB1F06109F
:10A0D000B91F0610C11F06100DDB051043DB05106C
:10A0E000B9DB0510DBDB0510DF1F0610E71F0610CC
:10A0F000EF1F0610F71F0610FF1F0610072006109F
:10A100000F200610172006101F200610272006100B
:10A110002F200610372006104F200610572006105B
:10A120005F200610672006103F200610472006100B
:10A130006F20061097200610AB200610E1200610B5
:10A14000E9200610F1200610F92006100121061062
:10A1500009210610132106101D21061025210610C5
:10A160002D21061064110020AE220000060001021D
:10A1700000001E00F7000000FFFFFFFF6400011059
:10A1800008000003F70001000001010202020200C2
:10A1900000010003000400004572726F7220696EB6
:10A1A00020424C455F535441434B5F496E697428CC
:10A1B00029203078253032780D0A000020204661B1
:10A1C000696C2020203A206163695F68616C5F736D
:10A1D00065745F74785F706F7765725F6C657665C4
:10A1E0006C20636F6D6D616E642C20726573756C8D
:10A1F000743A203078253032580A000020205375F8
:10A2000063636573733A206163695F68616C5F7350
:10A2100065745F74785F706F7765725F6C65766583
:10A220006C20636F6D6D616E640A000020204661D2
:10A23000696C2020203A206163695F676174745FF4
:10A240007372765F70726F66696C655F696E697450
:10A2500020636F6D6D616E642C20726573756C7414
:10A260003A203078253032580A00000020205375FB
:10A2700063636573733A206163695F676174745FD8
:10A280007372765F70726F66696C655F696E697410
:10A2900020636F6D6D616E640A00000020204661CE
:10A2A000696C2020203A206163695F6761705F6993
:10A2B0006E697420636F6D6D616E642C20726573BE
:10A2C000756C743A203078253032580A000000004E
:10A2D0002020537563636573733A206163695F6718
:10A2E00061705F696E697420636F6D6D616E640A81
:10A2F0000000000020205374617469632052616E75
:10A30000646F6D20426C7565746F6F746820416472
:10A3100064726573733A20253032783A253032788A
:10A320003A253032783A253032783A253032783A48
:10A33000253032780A00000020204661696C202018
:10A34000203A204761705F70726F66696C655F7359
:10A3500065745F6465765F6E616D65202D20446570
:10A3600076696365204E616D652C20726573756C2E
:10A37000743A203078253032580A00002020537576
:10A3800063636573733A204761705F70726F6669CB
:10A390006C655F7365745F6465765F6E616D652083
:10A3A0002D20446576696365204E616D650A000065
:10A3B00020204661696C2020203A204761705F7040
:10A3C000726F66696C655F7365745F6170706561FB
:10A3D00072616E6365202D20417070656172616EDF
:10A3E00063652C20726573756C743A203078253063
:10A3F00032580A002020537563636573733A20470F
:10A4000061705F70726F66696C655F7365745F61C0
:10A410007070656172616E6365202D20417070659A
:10A420006172616E63650A0020204661696C2020BC
:10A43000203A206163695F6761705F7365745F696B
:10A440006F5F6361706162696C69747920636F6DBD
:10A450006D616E642C20726573756C743A2030786F
:10A46000253032580A00000020205375636365735D
:10A47000733A206163695F6761705F7365745F69D8
:10A480006F5F6361706162696C69747920636F6D7D
:10A490006D616E640A00000020204661696C202016
:10A4A000203A206163695F6761705F7365745F73F1
:10A4B000656375726974795F726571756972656DCE
:10A4C000656E747320636F6D6D616E642C207265B0
:10A4D00073756C743A203078253032580A000000C9
:10A4E0002020537563636573733A206163695F6706
:10A4F00061705F7365745F73656375726974795FAA
:10A50000726571756972656D656E747320636F6DC8
:10A510006D616E640A00000020204661696C202095
:10A52000203A206163695F6761705F636F6E66697F
:10A53000677572655F66696C7465725F6163636598
:10A5400070745F616E645F7265736F6C76696E675D
:10A550005F6C69737420636F6D6D616E642C207223
:10A560006573756C743A203078253032580A0000D3
:10A570002020537563636573733A206163695F6775
:10A5800061705F636F6E6669677572655F66696C3F
:10A590007465725F6163636570745F616E645F723E
:10A5A00065736F6C76696E675F6C69737420636F37
:10A5B0006D6D616E640A0000536572766963657340
:10A5C00020616E64204368617261637465726973AF
:10A5D00074696373206372656174696F6E0A000049
:10A5E000456E64206F6620536572766963657320DB
:10A5F000616E64204368617261637465726973742B
:10A60000696373206372656174696F6E0A0000008C
:10A6100020204661696C2020203A206163695F68D0
:10A62000616C5F7365745F726164696F5F616374AD
:10A6300069766974795F6D61736B20636F6D6D61AD
:10A640006E642C20726573756C743A2030782532F4
:10A65000580A00002020537563636573733A2061C4
:10A6600063695F68616C5F7365745F726164696F71
:10A670005F61637469766974795F6D61736B206380
:10A680006F6D6D616E640A0D000000003E3E3D3D41
:10A69000204843495F444953434F4E4E4543544934
:10A6A0004F4E5F434F4D504C4554455F4556545FA8
:10A6B000434F44450A00000020202020202D204345
:10A6C0006F6E6E656374696F6E2048616E646C6551
:10A6D0003A2020203078253032580A2020202020AF
:10A6E0002D20526561736F6E3A202020203078252E
:10A6F0003032580A000000003E3E3D3D20484349AC
:10A700005F4C455F434F4E4E454354494F4E5F5556
:10A7100050444154455F434F4D504C4554455F5361
:10A7200055424556545F434F44450A00202020209F
:10A73000202D20436F6E6E656374696F6E20496EC5
:10A7400074657276616C3A20202025642E253032A3
:10A7500064206D730A20202020202D20436F6E6E10
:10A76000656374696F6E206C6174656E63793A20FD
:10A7700020202025640A20202020202D20537570C1
:10A780006572766973696F6E2054696D656F757453
:10A790003A2020202564206D730A00003E3E3D3D96
:10A7A000204143495F4741505F50524F435F434F01
:10A7B0004D504C4554455F56534556545F434F44A6
:10A7C000450A00003E3E3D3D204143495F47415020
:10A7D0005F4B455950524553535F4E4F544946497C
:10A7E000434154494F4E5F56534556545F434F447F
:10A7F000450A00003E3E3D3D204143495F474150F0
:10A800005F504153534B45595F5245515F56534535
:10A8100056545F434F44450A000000003D3D3E3E14
:10A82000206163695F6761705F706173736B6579E5
:10A830005F72657370203A204661696C2C207265E6
:10A8400061736F6E3A203078253032580A0000006C
:10A850003D3D3E3E206163695F6761705F7061737B
:10A86000736B65795F72657370203A20537563630B
:10A870006573730A000000003E3E3D3D20414349A0
:10A880005F4741505F4E554D455249435F434F4DE1
:10A8900050415249534F4E5F56414C55455F5653B8
:10A8A0004556545F434F44450A0000003D3D3E3E3F
:10A8B000206163695F6761705F6E756D6572696362
:10A8C0005F636F6D70617269736F6E5F76616C75D7
:10A8D000655F636F6E6669726D5F7965736E6F2019
:10A8E0003A204661696C2C20726561736F6E3A2064
:10A8F0003078253032580A003D3D3E3E2061636984
:10A900005F6761705F6E756D657269635F636F6DC0
:10A9100070617269736F6E5F76616C75655F636F8E
:10A920006E6669726D5F7965736E6F203A2053753C
:10A9300063636573730A00003E3E3D3D2041434919
:10A940005F4741505F50414952494E475F434F4D29
:10A95000504C4554455F56534556545F434F44450C
:10A960000A00000020202020202D205061697269FB
:10A970006E67204B4F0A20202020202D2053746129
:10A980007475733A203078253032580A2020202000
:10A99000202D20526561736F6E3A20307825303259
:10A9A000580A00003E3E3D3D204143495F47415427
:10A9B000545F5352565F524541445F565345565477
:10A9C0005F434F44450A00003D3D3E3E20636F6EAD
:10A9D0006E656374696F6E5F636F6D706C657465CF
:10A9E0005F6576656E74204661696C2C20537461D6
:10A9F0007475733A203078253032580A0000000010
:10AA00003E3E3D3D206863695F6C655F636F6E6EBF
:10AA1000656374696F6E5F636F6D706C6574655F9D
:10AA20006576656E74202D20436F6E6E6563746964
:10AA30006F6E2068616E646C653A20307825303422
:10AA4000580A000020202020202D20436F6E6E65C4
:10AA50006374696F6E2065737461626C6973686595
:10AA600064207769746820403A253032783A25307E
:10AA700032783A253032783A253032783A253032F9
:10AA8000783A253032780A0020202020202D2043DB
:10AA90006F6E6E656374696F6E20496E7465727651
:10AAA000616C3A20202025642E25303264206D739D
:10AAB0000A20202020202D20436F6E6E656374696C
:10AAC0006F6E206C6174656E63793A2020202025BA
:10AAD000640A20202020202D20537570657276692D
:10AAE00073696F6E2054696D656F75743A202564C3
:10AAF000206D730A000000006863695F6C655F7217
:10AB00006561645F706879206661696C7572653A29
:10AB100020726561736F6E3D3078253032580A00BF
:10AB20003D3D3E3E206863695F6C655F7365745FA1
:10AB30007068792050485920506172616D2020540E
:10AB4000583D2025642C2052583D202564202D207E
:10AB5000000000006163695F6761705F7465726D1A
:10AB6000696E617465206661696C7572653A207200
:10AB70006561736F6E3D3078253032580A000000F1
:10AB80003D3D3E3E206163695F6761705F74657241
:10AB90006D696E617465203A2053756363657373E4
:10ABA0000A0000006163695F676174745F636C74BD
:10ABB0005F65786368616E67655F636F6E6669671E
:10ABC000206661696C7572653A20726561736F6E9B
:10ABD0003D3078253032580A000000003D3D3E3EB1
:10ABE000206163695F676174745F636C745F65782B
:10ABF0006368616E67655F636F6E666967203A20A0
:10AC0000537563636573730A000000003D3D3E3E6B
:10AC1000206163695F6761705F7365745F6164760B
:10AC20006572746973696E675F636F6E6669677575
:10AC3000726174696F6E202D206661696C2C2072C0
:10AC40006573756C743A203078253032580A0000EC
:10AC50003D3D3E3E20537563636573733A206163E7
:10AC6000695F6761705F7365745F61647665727454
:10AC70006973696E675F636F6E6669677572617429
:10AC8000696F6E0A000000003D3D3E3E2061636931
:10AC90005F6761705F7365745F6164766572746924
:10ACA00073696E675F64617461204661696C656495
:10ACB0002C20726573756C743A20307825303258C8
:10ACC0000A0000003D3D3E3E20537563636573738B
:10ACD0003A206163695F6761705F7365745F616487
:10ACE000766572746973696E675F646174610A0086
:10ACF0003D3D3E3E206163695F6761705F736574CF
:10AD00005F6164766572746973696E675F656E61B1
:10AD1000626C65204661696C65642C207265737590
:10AD20006C743A203078253032580A003D3D3E3E62
:10AD300020537563636573733A206163695F67616C
:10AD4000705F7365745F6164766572746973696E50
:10AD5000675F656E61626C650A000000446973613B
:10AD6000626C65206164766572746973696E6720D0
:10AD70002D206661696C2C20726573756C743A20A5
:10AD80003078253032580A003D3D3E3E20446973FC
:10AD900061626C65206164766572746973696E675F
:10ADA000202D20537563636573730A006163695FC7
:10ADB0006C326361705F636F6E6E656374696F6E32
:10ADC0005F706172616D657465725F7570646174E6
:10ADD000655F726571202D206661696C2C2072653B
:10ADE00073756C743A203078253032580A000000B0
:10ADF0003D3D3E3E206163695F6C326361705F631D
:10AE00006F6E6E656374696F6E5F706172616D65A0
:10AE10007465725F7570646174655F726571202D11
:10AE200020537563636573730A0000003D3D3E3E29
:10AE3000206163695F6761705F636C6561725F73F6
:10AE4000656375726974795F6462202D204661695B
:10AE50006C2C20726573756C743A20307825303212
:10AE6000580A00003D3D3E3E206163695F676170A6
:10AE70005F636C6561725F73656375726974795F36
:10AE80006462202D20537563636573730A000000AC
:10AE90000000000002000000BE0B002000000000C7
:10AEA000080000002803002000000000010000004E
:10AEB000DE05002001000000010000005C11002000
:10AEC00000000000010000005D11002000000000F3
:10AED00002000000DC0500200000FFFF0000000071
:10AEE00004000000D8AE05100000000002000000C1
:10AEF0002E1100200000000001000000F2210610C9
:10AF000001000000010000005E1100202000000090
:10AF1000FB349B5F8000008000100000052A0000C9
:10AF2000100000000100000070040020DCAE0510DD
:10AF30000A000000FB349B5F8000008000100000CE
:10AF4000292B00001000000000000000000000009D
:10AF5000E8AE051002000000FB349B5F800000801B
:10AF6000001000002A2B000010000000000000006C
:10AF7000000000000000000002000000FB349B5FA6
:10AF800080000080001000003A2B0000100000003C
:10AF90000000000000000000F4AE051096C298D832
:10AFA0004539A1F4A033EB2D817D0377F240A463F2
:10AFB000E5E6BCF847422CE1F2D1176BF551BF37FB
:10AFC0006840B6CBCE5E316B5733CE2B169E0F7CCE
:10AFD0004AEBE78E9B7F1AFEE242E34F00F00B1034
:10AFE00000080000AA02000000F80B10F80701009A
:10AFF000000000002D2D2047415454203A204C459C
:10B000004420434F4E46494755524154494F4E20E4
:10B0100052454345495645440A00000020204661F8
:10B02000696C2020203A206163695F676174745FF6
:10B03000636F6E6669726D5F696E6469636174697E
:10B040006F6E20636F6D6D616E642C207265737519
:10B050006C743A2030782578200A0000202053753F
:10B0600063636573733A206163695F676174745FDA
:10B07000636F6E6669726D5F696E6469636174693E
:10B080006F6E20636F6D6D616E640A0020204661F3
:10B09000696C2020203A206163695F676174745F86
:10B0A0007372765F6164645F73657276696365204D
:10B0B000636F6D6D616E643A207032705F536572BC
:10B0C0007665722C206572726F7220636F64653AC8
:10B0D0002030782578200A0020205375636365733B
:10B0E000733A206163695F676174745F7372765F3E
:10B0F0006164645F7365727669636520636F6D6D0B
:10B10000616E643A207032705F53657276657220AA
:10B110000A00000020204661696C2072656769732F
:10B12000746572696E67207032705F536572766500
:10B13000722068616E646C6572730A00061000000C
:10B1400019ED82AEED214C9D4145228E41FE00005D
:10B15000800000000000000000000000D00400207B
:10B160001010000019ED82AEED214C9D4145228E5C
:10B1700042FE00008000000001000000B404002036
:10B18000DC0400208FE5B3D52E7F4A982A487ACC7C
:10B1900040FE0000800000000100000000000000F0
:10B1A00000000000020000003CB1051020204661B4
:10B1B000696C2020203A206163695F676174745F65
:10B1C0007372765F6E6F7469667920535749544382
:10B1D000485F4320636F6D6D616E642C20657272F1
:10B1E0006F7220636F64653A2030782532580A0008
:10B1F0002020537563636573733A206163695F67E9
:10B200006174745F7372765F6E6F746966792053D0
:10B2100057495443485F4320636F6D6D616E640A04
:10B22000000000000100000001000000611100208A
:10B230002D2D20503250204150504C49434154490B
:10B240004F4E20534552564552203A204C454431EA
:10B25000204F4E0A000000002D2D2050325020417A
:10B2600050504C49434154494F4E20534552564546
:10B2700052203A204C454431204F46460A000000F7
:10B280002D2D20503250204150504C4943415449BB
:10B290004F4E20534552564552203A204E4F544966
:10B2A0004649434154494F4E20454E41424C454446
:10B2B0000A0000002D2D20503250204150504C49A2
:10B2C000434154494F4E20534552564552203A204F
:10B2D0004E4F54494649434154494F4E20444953E7
:10B2E00041424C45440A00002D2D2050325020414F
:10B2F00050504C49434154494F4E205345525645B6
:10B3000052203A20494E464F524D20434C49454E1B
:10B310005420425554544F4E2031205055534845E7
:10B32000440A00002D2D20503250204150504C49ED
:10B33000434154494F4E20534552564552203A20DE
:10B3400043414E275420494E464F524D20434C49CD
:10B35000454E54202D204E4F5449464943415449AF
:10B360004F4E2044495341424C45440A00000000DE
:10B3700096C298D84539A1F4A033EB2D817D03778F
:10B38000F240A463E5E6BCF847422CE1F2D1176B2A
:10B39000F551BF376840B6CBCE5E316B5733CE2BFD
:10B3A000169E0F7C4AEBE78E9B7F1AFEE242E34F2C
:10B3B000C4E8E9EAEBEDEEEFF0F1F2F3F4F5F6F7BD
:10B3C000F8F9FAFBFCFCFDFEFF0001020304050690
:10B3D00007000000D52E0610E12E0610A52D061040
:10B3E0002D2E0610352C0610DB2C0610686A6C74A6
:10B3F0007A4C00007072696E74665F733A20256E35
:10B4000020646973616C6C6F776564007072696E3B
:10B4100074663A2062616420256E20617267756DE2
:10B42000656E74007072696E74665F733A20626153
:10B430006420257320617267756D656E740000006D
:10B44000000000006E616E004E414E00696E6600A5
:10B45000494E460030002E00F0B595B0062104A8F4
:10B4600000F0B2FD0620694608730020C881934CA5
:10B4700008A82100342200F0AFFD08A8F4F7F2FF7D
:10B48000010005D02000343000F0CEFD00F089FE30
:10B4900018210020FEF7F4F8002805D00100200054
:10B4A000583000F0C1FD03E02000983000F0BCFDF2
:10B4B00007A9891C012000F079FE002805D00100B1
:10B4C0002000C83000F0B0FD04E0842040002018C7
:10B4D00000F0AAFD01210020FDF790FF002806D012
:10B4E00001009C204000201800F09EFD04E0B620E2
:10B4F0004000201800F098FD06A8009006AB9B1CA9
:10B5000007AA0021012000F085FE04AA03A98020DB
:10B51000FEF7B2F804A80178029141780191817890
:10B520000091C37802794179C8204000201800F0CA
:10B530007BFD00BF62A21321002000F0A0FE0028C6
:10B5400006D00100EA204000201800F06DFD04E064
:10B5500086208000201800F067FD03AA921C0221BB
:10B56000002000F092FE002806D001009320800009
:10B57000201800F059FD04E0A4208000201800F0FD
:10B5800053FD012501209A490870E6F70EFD0028B9
:10B5900006D00100B1208000201800F045FD04E035
:10B5A000C1208000201800F03FFD91494D70082017
:10B5B000C870102008718D700020009000268D4DFD
:10B5C000A85DA9194978092922D0FF293CD1302149
:10B5D000AA1991700099D170022111718D215171B8
:10B5E000832191710099D171009911720099517262
:10B5F00004A94A79AB199A720A79DA72CA781A736D
:10B600008A785A734A789A730978AA19D1731BE019
:10B61000311869180A78582A16D14A1E1378582BFF
:10B6200012D16B461B7C1B096F463F7C3F073F0FC7
:10B63000092B01DD373300E030331370092F01DDB2
:10B64000373700E030370F703618761CB6B21C2E34
:10B65000B6DB00200290102001900820009000230B
:10B66000012201210120E6F7A4FC002806D00100F8
:10B67000CD208000201800F0D7FC04E0DF208000FF
:10B68000201800F0D1FC5A48807800280FD0012003
:10B69000FDF78FFE002806D00100ED208000201865
:10B6A00000F0C2FC03E05448201800F0BDFC00BFCD
:10B6B00008A000F0B9FC15B0F0BD000064A10510B1
:10B6C0005065657220746F205065657220536572F5
:10B6D000766572003D3D3E3E20456E6420424C45FD
:10B6E0005F496E69742066756E6374696F6E0A00D7
:10B6F00080B5012000F016FEFCF7E8FF012000F005
:10B7000012FE01BD80B500F0E7FE01BD80B500214D
:10B71000022016E080B502F0E0F801BD80B5FFF729
:10B72000F5FF01BD80B5F5F701FBFFF7EFFF012144
:10B73000042006E080B5FCF7C5FF01BD80B50121FE
:10B74000012002F071F901BDF8B52C4A0021012059
:10B7500002F05DF92A4A0021022002F058F9294A34
:10B760000021042002F053F902F0C0F902F048FA77
:10B770000021C943884201D100F013FDFFF76CFEA0
:10B7800000261B4CA6732048A081204A002140209F
:10B7900002F03DF91E48A0611E4820631EA7380034
:10B7A00000F042FC1D4D280000F03EFC02F0A5FA1E
:10B7B0002800283000F038FC380000F035FC062066
:10B7C000FAF7C2FB010004D02800583000F02CFC2E
:10B7D00003E028009C3000F027FC012000F0C8FAAC
:10B7E0000F492000103001F0D1F840202654F1BD5F
:10B7F00000100020000300200C040000F1B605102A
:10B8000005B7051015B70510FFFF000025BF05108F
:10B8100009BF05101BBF05100A000000B8A50510E0
:10B8200060EA0000FEB505002878042802D08228CE
:10B8300002D0F7BDEF1C00E02F1D6978BB4EBC4C59
:10B84000052908D0102900D19EE13E2930D0FF29DA
:10B8500000D1F1E0A4E1287969790906090C0843CF
:10B86000B189884210D1D048B0810020B073200047
:10B8700000F0DAFB297968790006000C0143AA7907
:10B8800020002C3000F0D0FB00F034FBC748012131
:10B89000017029796A791206120C1143418002F075
:10B8A0001CFA012000F064FAC14930001030E9E0D0
:10B8B000E978012900D19EE0032906D00A2900D1A8
:10B8C0008AE00C2900D183E0B3E020006C3000F066
:10B8D000ABFBE879297A0906090C084302F05CFA07
:10B8E0000022B44B02F072FA002280235B0302F0C4
:10B8F0002FFBE879297A21D80906090C0843EE794B
:10B90000297A0906090C0E4302F046FA0022A94BD7
:10B9100002F05CFA00900191300002F03DFA002242
:10B92000A44B02F053FA02F02DFB02F045FA02009C
:10B930000B000098019902F0B1FB1EE00906090C0A
:10B940000843EE79297A0906090C0E4302F024FA1D
:10B950000022984B02F03AFA02F014FB02F02CFAA3
:10B9600000900191300002F017FA0022924B02F091
:10B970002DFA009A019B02F02EFB00228F4B02F061
:10B9800025FA02F0FFFAEA7A297B0906090C0A4334
:10B990006B7AA97A0906090C0B43E9792E7A3606E7
:10B9A000360C31430A255543009506001D0008005A
:10B9B00002F0F2F900227F4B02F008FA02F0E2FAFC
:10B9C00001002B0032002000A03000F02DFBF7BD5D
:10B9D000012002F039F8F7BDE87F6D1CE97F6D1E8C
:10B9E0000906090C08436A7FA97F0906090C0A4366
:10B9F000EB7E297F0BE0E87C297D0906090C0843D2
:10BA00006A7CA97C0906090C0A43EB7B297C0906A0
:10BA1000090C0B436979AC792406240C214302906C
:10BA2000019200932B0009332A7A287900F01AF941
:10BA3000F7BD00BF62A0B4E0387879780906090C38
:10BA40000843001F14D0C049401A57D0401E1FD0D1
:10BA5000401F0AD0801E2DD0401E16D0C91F401A8C
:10BA600012D02331401A65D087E08820400043E09F
:10BA7000012002F0D1FB3000283000F0AAFF0521A0
:10BA80003000283000F082FFF7BD9C20400033E0FA
:10BA9000B4204000201800F0C7FAAC49B089E6F79E
:10BAA0009EFA002803D00100C820400020E0E220D8
:10BAB000400021E0F6204000201800F0B5FA381DC3
:10BAC00002F0B2FC010000BF44A000F0ADFA381D46
:10BAD00002F0AAFC010000BF47A000F0A5FA012176
:10BAE000B089E6F793FA002804D00100882080008E
:10BAF000201856E09B208000201813E0AB20800027
:10BB0000201800F091FA3979002906D07A79B62008
:10BB10008000201800F088FA03E000BF3CA000F08D
:10BB200083FA8BA000F080FAF7BD00BF0010002060
:10BB30008CA60510C6208000201800F075FAB9798F
:10BB4000F8790006000C014337A000F06DFABA79CD
:10BB5000F8790006000C0243397978790006000C68
:10BB60000143B878FB781B061B0C18430023019394
:10BB700000930823E6F79DFAF7BD39787878000638
:10BB8000000C01432CA00CE0E87804280BDABFF38A
:10BB90004F8F704870490860BFF34F8F00BFFDE7BB
:10BBA0002BA000F041FAF7BDFFFF00005411002068
:10BBB00060EA00000000F43F0000F4BF00005940BC
:10BBC0004843495F4C455F4D4554415F4556543AA3
:10BBD000203078253032580A000000002020202034
:10BBE000202D206E756D657269635F76616C756579
:10BBF000203D2025640A000020202020202D204800
:10BC000065785F76616C7565203D2025780A0000B7
:10BC100020202020202D2050616972696E672053FA
:10BC20007563636573730A0048616E646C652030E8
:10BC300078253034580A00004843495F56454E4441
:10BC40004F525F4556543A203078253034580A0018
:10BC50004843495F4556454E543A203078253032A6
:10BC6000580A0000F8B588B04C4C0025020005D0F9
:10BC700001003A4800F0D8F9A57362E00E9F1E005B
:10BC800068468181364800F0CFF9307802907078AC
:10BC90000190B0780090F37832797179314800F0F2
:10BCA000C3F9380002F078F806AA03C206A80CC847
:10BCB00000202D4902F08AF806000F0002F062F918
:10BCC000019002F079F804AA03C230003900002282
:10BCD00080235B0302F03CF904D804AA0CCA02F0EA
:10BCE000DDF909E006A80CC80020204902F06EF832
:10BCF00004AA0CCA02F06FF900227B4B02F066F82E
:10BD000002F040F9020010980F9B0A214143009174
:10BD10000199764800F088F9A07B012801D1032021
:10BD200000E00220A07368468089A08170480570F9
:10BD300069468989418001F0D0FF2000103000F071
:10BD400048FE09B0F0BD0000FD03000007B201008D
:10BD50000A0000000400FA050CED00E0C8A9051077
:10BD600000AA051044AA05100000F43F0000F4BF2B
:10BD7000F1B58EB080200B90A027704C0020074DAD
:10BD80000EAA1278052A4DD801A39B5C9F4400BFE0
:10BD900010061E94347204264DE000BF00100020EF
:10BDA000C820C0000B90FA273F01052643E000267B
:10BDB000002200210020FDF766FB010000D188E091
:10BDC00099201AE0C827BF000B970026FA214900E6
:10BDD0004022AA5C002A12D028270B974022A854A0
:10BDE00089B20091B3B23A000B9989B2A889E6F7FB
:10BDF000E8F9002870D00100AD20800063E0012048
:10BE0000ECE71321A889E6F7CCF8002803D001005D
:10BE100020005C3058E02000883000F005F900F088
:10BE20006EF85EE00EA80078012804D9801EBFD00D
:10BE3000801ED5D055E006210CA800F0C5F80020E2
:10BE40000A90099001200890002007900120069098
:10BE50000020059004900390029007200190009725
:10BE60000B9B132202210020FDF7D4FA002806D0F4
:10BE700001008A204000201800F0D6F805E0AE73DB
:10BE8000AC204000201800F0CFF8474B1C220321C3
:10BE90000020FDF7F4FA002806D00100C820400079
:10BEA000201800F0C1F804E0E6204000201800F05F
:10BEB000BBF80CAA01210120FDF7E5FA002806D005
:10BEC0000100FC204000201800F0AEF809E08D20B1
:10BED00003E0AE73A42000E0BE208000201800F034
:10BEE000A3F80FB0F0BD00000000594088AA05106B
:10BEF0005411002080B5012001F0A6FD01BD80B5E0
:10BF0000012001F0ABFD01BD80B500BF2AA000F00B
:10BF10008BF800214020FFF714FC80B5012002F0CF
:10BF20007FF901BD80B5012002F07AF90220FFF708
:10BF30001FFF00201D49887301BD0000F8AA0510ED
:10BF400010B51A4CA07B002800D11AE0022803D1BA
:10BF50000021802001F068FD10BD10B5134CA07BBE
:10BF600002280ED0E6F75AF8114A002804D0010042
:10BF7000100000F059F810BD1000383000F054F8EF
:10BF800010BD0120FFF7F4FE0A492000103000F038
:10BF9000FDFC10BD0548807B022800D0704780B5AD
:10BFA0000420FFF7E5FE01BD000300200010002083
:10BFB0002CAE051060EA00004164765F43616E6359
:10BFC000656C5F5265710A00002200BF094202D011
:10BFD000491E4254FCD1704770B4103A03D378C95B
:10BFE000103A78C0FBD2530701D318C918C001D545
:10BFF00008C908C0D20704D30B880380891C801CA1
:10C00000002A01D50B78037070BC70478B0701D1F3
:10C010008307E1D0124205D00B78491C0370401C05
:10C02000521EF9D17047FEE70EB4C0B5020003A856
:10C0300001900020009001AB0121044878440C30AD
:10C0400002F002FA029906B0084700BF2170000012
:10C0500081B0314901E081B030490A6802430A6089
:10C06000096808400090009801B070477CB503F063
:10C070008FF900F05DF800F081F80820FFF7E8FF85
:10C080000420FFF7E5FF00F04FF900BF46A000686D
:10C090000090234C206A0125ED430126304008D151
:10C0A0002068304320602068284020600120FFF78E
:10C0B000D2FFC020C0050090684603F07BF96846B7
:10C0C0000021002206C0206A304008D120680643C3
:10C0D00026602068054025600120FFF7BCFF11485D
:10C0E00000681028FBD36846A02149000180002188
:10C0F0008170019100F053F90B480C49016003F085
:10C1000019FB002801D000F04CF8002003F082FB5E
:10C1100003F0A0FCFCE700005000404860004048ED
:10C1200040004048101800601811002000003048FE
:10C1300080B588B0182102A8FFF746FF68460021A5
:10C14000002206C0032002908020400203901020AD
:10C15000059002A803F07EFD002801D000F021F830
:10C1600000200090202001900021684603F09AFEF4
:10C17000002801D000F015F809B000BD80B586B0E8
:10C1800018216846FFF720FF02200090C0020590AA
:10C19000684603F023FF002801D000F002F807B042
:10C1A00000BD72B6FEE7000000000000F8B5060012
:10C1B0000F0000203880154C2000E5F73FFF0100FC
:10C1C00023D12000E5F742FF0400114DF00705D50B
:10C1D00021002800E5F74AFF010016D12800E5F705
:10C1E0004DFF3880210028002430E5F73FFF010093
:10C1F0000BD1210028004830E5F738FF010004D1B9
:10C20000210028006C30E5F731FFF2BD8C040020DE
:10C210000CAF0510FEB50C00089F00251580029993
:10C220000D803D800521014027D0394E3000E5F7D3
:10C2300005FF010022D168460470364C2000E5F766
:10C240001DFF0199088020002430E5F717FF0299AF
:10C2500008803000E5F7FAFE3D806946097802293A
:10C2600006D1010020006C30E5F700FF010005D188
:10C270002AA20821002000F002F80020FEBD70B5BF
:10C2800004000D001600234804E070B504000D0002
:10C2900016002148E5F7F2FE33002A002100401C79
:10C2A00080B200F001F870BDF3B581B017001D0039
:10C2B0000024184E69460880242060433018E5F7B2
:10C2C000DDFE002804D0401C69460988884202D05F
:10C2D000641C072CF0D3072C0BD06846038924205C
:10C2E00044433419206A8188DA19914201DB00281D
:10C2F00001D11220FEBD29003A008068C018FFF766
:10C3000085FE206A0178890700D547800020FEBDA0
:10C31000480400204C0300207003002053544D3388
:10C3200032574230704770477047FEE7010005D42E
:10C330000121C006C00E8140664801607047C16897
:10C340000322914302220A43C260704709E0C06899
:10C350008007800F022801D101207047002070471C
:10C3600000BFC16803229143C160704701617047FB
:10C3700000697047816AC04A0A4082627047816AD8
:10C380004800C00F704700697047816A802292059B
:10C390000A438262704780687047C0687047F1B591
:10C3A0000127B648C06B3843B449C8630846806B60
:10C3B000384388631720FFF7B9FF1420FFF7B6FF53
:10C3C00000984068002800D00120AD4C2070002566
:10C3D000000603D100988078002813D0A948C168CE
:10C3E0003940FBD017210160C1683943C160456005
:10C3F000C1683940FCD02000103000F059FBE069E2
:10C40000206209E0C82040032062E061AD48A061DD
:10C41000AD482061AD48606100984068002802D1B5
:10C42000A020C0050DE000030A2103F08DFE60602E
:10C43000A74E300000F098FA01006068884202D3ED
:10C44000300000F091FA6060257300980088A14EDA
:10C450003060A16900F0ADFB00208C216054002108
:10C460003200083203C28548006830610020320083
:10C47000183203C230216054974AA169606803F002
:10C480007FFEA060207821008C31087420008C3061
:10C49000856020008C30077321008C314D732100A2
:10C4A0008C31CD8120006130057045708570A565A7
:10C4B000E5658A48A064656500F05DFA626800235E
:10C4C00012184B412000403000F0A0FB012000F08A
:10C4D0001BFBF1BD00E100E0F8B58CB0002069461F
:10C4E0000870674F38009930019028E0401C1CE02C
:10C4F000046905738168002900D088472000F7D1BE
:10C5000069469420385800F005FC9421785068461C
:10C51000007801280DD1EFF3108172B601980078F0
:10C52000421C019B5B789A42E0D1019A107081F322
:10C530001088019840780499401801994870019832
:10C540004078019909780A1A02D280204000121816
:10C550000026002A29D0049294203C580394029487
:10C56000002502E0260024696D1C002C0FD0207BE2
:10C570000028F7D000F0FFF902000B0003CC083CC4
:10C58000801A99410029EDDB01DC0628EAD3280056
:10C590000025002802D03561039400E0029503983D
:10C5A0009421785002980028A9E7387B002847D0CA
:10C5B000A2480068012420405BD03E73A048C178A7
:10C5C000002904D18178002901D0867026E03878CE
:10C5D00000281CD002A800F06BFA0499B86E80B253
:10C5E00000F0E7FAEFF3108572B630203C54039860
:10C5F00078610498B861029838610598F86100F094
:10C60000F3FB85F31088002000F07EFA06E0EFF3DC
:10C61000108472B600F0E8FB84F31088012000F06B
:10C620002DFC3800403000F0D4F900F0A4F97A680D
:10C63000002312184B413800403000F0E7FA18E0B0
:10C640003878002815D000F096F93A6F7B6FFA24FD
:10C6500064030025A4185D418D420AD801D38442A9
:10C6600007D23800403000F0B4F93800403000F014
:10C67000B1FA0DB0F0BD0000FFFFFFBF1018006061
:10C68000B80C002004100060F8B50400A448066847
:10C69000EFF3108572B600F0FDFAA24F3B00803335
:10C6A00003CB083B03C4083CB64AF9699868801B71
:10C6B00003F066FD020085F3108803CC0023801A86
:10C6C0009941F4BDC2F528008D5B0000ECEB6501DB
:10C6D000FFEFFFFF200D002026030000D5CB051043
:10C6E000F8B586B08F4D28008C30407B29008C3106
:10C6F000897B88422FD1287B00282CD1032400F08D
:10C700003AF904AA03C202A800F07FFC29006131B3
:10C710006122AA5C002A02D14A78002A01D00128AD
:10C7200002D18978002918D0AA6DEB6D04A803C83E
:10C730008C242E5D002736184F41A86E00218019E9
:10C7400079410024523061418B4227D301D8824283
:10C7500024D3022405E0002039E002281ED001285D
:10C760001CD0894B9A68002A30D0107B00282DD02D
:10C7700003CA083A0090019104A803C806000F00FC
:10C78000A86E002180197941002652307141009E27
:10C79000019F8F4204D801D3864201D2012016E0C6
:10C7A000032C12D1106900280FD12800403082429A
:10C7B0000BD10120D873002000F0FAFA9E480168DE
:10C7C000AB4A0A400260032001E00224200007B0C7
:10C7D000F0BDF8B50B0000D00123524E350058359E
:10C7E0002B73110000D00121297200246C72EC72AD
:10C7F0000121A972EFF3108772B600F03BF903C56F
:10C80000083D02460B462800283003C8121A8B4107
:10C81000A348A34201D8824204D3AC7287F31088A4
:10C820000120F2BD002000F029FB040087F31088EE
:10C83000012000F0BDFA2000F2BD000010100060E1
:10C84000510D0020F8B5374D012905D1002A01D03E
:10C85000382106E0392104E0002A01D03A2100E025
:10C860003B216C5C00F08FF92E008C367168081843
:10C870003D21695C0091411A0A1B8A490B68D31A51
:10C88000894FBB4201D30120F2BD884B5A601A6820
:10C890000327BA43022717431F608A69744B13406A
:10C8A0008B617060374AE9690098201803F068FCD2
:10C8B00030700020F2BD70B50320C0437B490A6888
:10C8C00002400A600A681040086020480168684A0F
:10C8D0000A400260134C2000583000254572458103
:10C8E000EFF3108672B600F046F8A26DE36D121AEF
:10C8F0008B418C20205C0021121A8B4186F310881A
:10C90000002B04DC01DB012A01D2012070BD002BC9
:10C9100004DC01DB0F2A01D2022070BD002070BDB3
:10C9200014000060B80C0020EFF3108072B65D496F
:10C9300009685E4A091D5160116803239943022367
:10C940000B43136080F310887047000028180060C4
:10C950007047AC480100613100226123C05C0028AF
:10C9600000D00A708A70704780B5064AA549C96927
:10C9700003F006FC02BD80B500F08CF9A24803C8A4
:10C9800004BD000035060000440D0020F8B5040089
:10C990000D00FFF7F0FF06000F00290D28030A2203
:10C9A000002303F00EFC8019794102000B002000E7
:10C9B00000F02CF90400012000F0FAF9E0B2F2BD19
:10C9C00010B500F023F90400012000F0F1F9E0B205
:10C9D00010BDF8B5AD4C21680E00002300250A00FB
:10C9E00001E035003669002E07D08642F9D137695B
:10C9F0008E4201D13A0000E02F616D462B70037327
:10CA00002068904215D06946100000F083F920603C
:10CA10006846007800280DD0EFF3108072B6617977
:10CA20004A1CA3799A4200D0491C617180F3108896
:10CA3000F1BD2260F1BD00003018006018B5002083
:10CA40000090009892480168094A0A400260AE4985
:10CA50000A78531C4C78A34200D0521C0A70012162
:10CA6000C2690A43C261C0690140009111BD000062
:10CA7000FFFFFFBF10B5040000F00CF9624803C8C7
:10CA80000A00844200D2521C1100200010BD9F48B1
:10CA9000816801220A438260002101607047000022
:10CAA00066FEFFFF10180060010000800C000060AF
:10CAB00070B50400964D2800FFF76DFC06002800B5
:10CAC000FFF769FC8642F6D1002EF4D0B749321246
:10CAD0004A43F3B24B431912511810314911E16026
:10CAE00026602800FFF759FC06002800FFF755FCD8
:10CAF0008642F6D1002EF4D0B011B84948438030B8
:10CB00000012A060666070BDF8B50700B44D687A89
:10CB10007D214843C90003F003FB461CF6B2394CA3
:10CB2000B04AA1691B2003F02BFB2870687800F045
:10CB30002AF83D216054E878801900F024F8382163
:10CB400060542879801900F01EF839216054687902
:10CB500000F019F83A216054A87900F014F83B214C
:10CB60006054002F06D0E878801900F004F81B30DC
:10CB70003C216054F1BD68214143090ADB22504346
:10CB8000000C0818704700B502001E4840690021DB
:10CB9000002303F055FB0322002303F051FB802206
:10CBA000D204002312184B41D20E58010243100048
:10CBB00000BD80B58B4A03F0E3FAAB49884201DD42
:10CBC000080002E0102800DA10200005000EA74936
:10CBD000086001BD10B5A64C207B002806D1207846
:10CBE000002801D0FFF753FF01202073FFF7C3FE99
:10CBF00000226430514102000B002000403000F060
:10CC000005F810BDB80C0020380D0020FEB5002539
:10CC10006C462570017B002901D00120FEBD0CC0AF
:10CC2000083801210173194C26680196070001E0BC
:10CC300035003669002E08D00CCE083E03CF083FE1
:10CC40008B42F5D301D88242F2D338000661002D21
:10CC500001D1019000E028610199814213D1694618
:10CC600000F058F820606846007800280BD0EFF3F9
:10CC7000108072B661794A1CA3799A4200D0491C8F
:10CC8000617180F3108868460078FEBD4C0D00206D
:10CC900030180060F8B584B0EFF3108672B6744CAB
:10CCA000206F616F02AA03C27248FFF76CFB03009A
:10CCB00027008037BB60704D02A803C80090019127
:10CCC0002A00E169A06F181A03F05AFA0021009AAD
:10CCD000019B801859410CCF083F99420FD801D3CE
:10CCE00090420CD2009001912A00E1690020C043DB
:10CCF00003F046FA0021009A019B8018594103C7AE
:10CD000086F3108805B0F0BD510D002008100060BA
:10CD100000100060F1B584B00F00044600203870A8
:10CD200000E02469002C3ED0207B0028F9D0EFF3EE
:10CD30001080009072B6FFF7ADFF4D4D03CC083C5C
:10CD40002A0080320CCA801A994102AA03C202A8A2
:10CD500003C800291DDB01DC01281AD3214AAB6975
:10CD600002A803C8190003F00BFA0500202D00D813
:10CD70002025C24E3000FFF706FB40190830F06254
:10CD80003000FFF702FB306B8021C905014331639E
:10CD900001E001203870009880F31088387800286E
:10CDA00001D0049800E0200005B0F0BDF6BC0800FA
:10CDB00010B5B3490C009834002808D0207800281A
:10CDC0000BD108004030FFF705FF012004E0080008
:10CDD0004030FFF7FEFD0020207010BD530700001B
:10CDE000C50000202603000070B52248FFF7CBFAEB
:10CDF0001F4C25008035A8601F4E3200216AA36FAA
:10CE0000C01A03F0BDF9226F636F002180185941E9
:10CE1000206761672078002813D1A868A16F401AA5
:10CE2000A16888420DD23200216A0020C04303F07D
:10CE3000A7F90200206F616F002312184B4122678F
:10CE40006367206F616F03C5083DA868A067226F04
:10CE50000B4660680021801859412200283203C225
:10CE6000E069206270BD0000FF0F0000081800603C
:10CE7000B80C00200018006035060000F0B585B041
:10CE800000216A4611707E4C25006035A978002982
:10CE900000D1B6E0EFF31081049172B6012801D100
:10CEA000FFF7F8FE20002830C0C8A26DE36DC8204F
:10CEB00080020021801979418B4210D301D882422F
:10CEC0000DD3B9225200002392197B412800203053
:10CED00003C88B4201D802D3824200D38EE02800DF
:10CEE000203003C800220A305141A26DE36D0026B4
:10CEF0004C3AB34199427DD801D390427AD23C203A
:10CF0000265C6020205C2979012905D1002801D008
:10CF1000382006E0392004E0002801D03A2000E063
:10CF20003B20205C0190A26D2800203003C8101A1D
:10CF30000390544AA169039803F022F90290A86A69
:10CF4000C027FF05A9687118C831039A9142029958
:10CF50001AD24D4A1278891A019A8E1A80194749B5
:10CF600048623800FFF7F2F93800FFF7F9F9434853
:10CF7000806A8021C905014340488162FFF705FAB4
:10CF800001984149097811E03D22A25C891A019A71
:10CF90008E1A81193800FFF7E9F93848FFF7EAF9E6
:10CFA0003800FFF7CCF901983D21615C4018A96A6F
:10CFB000029A891822008C3251603218411D8A422F
:10CFC0000CD23800FFF7C2F93800FFF7C9F92B4837
:10CFD000FFF7D0F901206946087005E02B4AE169A6
:10CFE00003F0CEF88C2160540020A87001206870F6
:10CFF000E87003E0AE70012069460870049880F381
:10D0000010886846007805B0F0BD38B504001B4DA7
:10D010002800FFF7B4F9002803D0686A20600320D5
:10D0200032BDC025ED052800FFF791F9002805D095
:10D030002800FFF79DF92060012032BDE8688007D5
:10D04000800F032805D12800FFF792F92060022005
:10D0500032BD002032BD80B5FFF7F0FCFEF75EFB6D
:10D0600001BD81B0002000900098094801680122AC
:10D070000A4302600068009001B070470018006029
:10D08000B80C002026030000C50000203506000073
:10D0900074000060016800220281428182818273F3
:10D0A0000B78FF2B05D0FE2B09D103895B1C038174
:10D0B0000AE04268511A091F818100207047002B45
:10D0C0000DD143895B1C43814A88D21C032313433F
:10D0D0005B1CC9184A1D43689A42E1D3EDE703205F
:10D0E0007047F3B5079C0899250005D06D466C8004
:10D0F000FE242C706C4600E0446885684668AE42A9
:10D1000017D22678FF2E14D0067B002E04D00026DE
:10D1100006732678002E0ED146686488E41C032727
:10D1200027437F1CF4194460AC4202D22678FF2EBC
:10D13000EFD10420F6BDFE2E01D00320F6BD6E46D1
:10D140003679FF2E04D066786F463F79BE42E3D130
:10D150004068001D106060881880002901D0607848
:10D1600008700020F6BD7FB515001C00099E002246
:10D1700032800B9A01926A46128D009202AB03AA8A
:10D18000FFF7AFFF010013D1694609898D4201D332
:10D1900006200DE0089A481B904200DA02002000A9
:10D1A00003994919FEF732FF684600893080002054
:10D1B00004B070BDFEB5BB4D0D40491B6B461970E8
:10D1C0000024070016000AE00422311901A8FEF726
:10D1D0001DFF019A3919002003F04CF8241DAC42C0
:10D1E000F2DB0020C043019068460278711901A863
:10D1F000FEF70CFF019A7919002003F03BF8F7BD08
:10D2000070B544688668B44202D22678FF2E01D1F8
:10D21000042070BD007B002801D1FE2E01D0052026
:10D2200070BD6588A94201D3062070BD10001A00A8
:10D23000231D591803F094F8002801D00020C043A2
:10D2400070BD7CB5079C0025069E3580250005D065
:10D250006D466C80FE242C706C4600E04468456886
:10D260008668B54202D22678FF2E01D1042076BD11
:10D27000007B002801D1FE2E01D0052076BD6088FC
:10D28000814201D3062076BD401A984200DA03009D
:10D2900010001A002B1D5918FEF7B8FE6088069979
:10D2A0000880002076BDF8B584B007000E00150098
:10D2B000B44C254203D103F053F8002820D001A834
:10D2C0000C21FEF781FECD483818C00A0290681E76
:10D2D0000443641C6003000E0390694601A803F038
:10D2E0004FF800240AE06010800F001903218843E2
:10D2F00032583919002002F0BDFF241DAC42F2D390
:10D3000005B0F0BD0121017000214180818070478E
:10D31000F1B588B00C0015001E0000200090FF221F
:10D3200029002000FEF752FEFE206946087507948A
:10D330006846458206960E9D009C05AE19E068463B
:10D34000008A6988401A401E03240443641CA4B266
:10D3500068886946098A0A1A521E03211143491C2A
:10D3600089B28F4242DB01200022B94228706A80D4
:10D3700040D06846408A071B3F1FBFB2287800286C
:10D3800026D0701C0390A888029004A801900097F2
:10D390000798001D03190022FF210898FFF7E3FEFC
:10D3A0006946098AA98001000ED16846008A70800A
:10D3B000042205A907980019FEF728FE7088C01CF2
:10D3C000032101436418C1E706990C8009B0F0BD40
:10D3D000A888019004A800903B000798021969886A
:10D3E0000898FFF72EFF0100A9D0EFE70021297070
:10D3F000C01968806846408A069908800020E5E7E1
:10D40000F8B5AE4CA544AE49020014235A438F1818
:10D410007989002901D1002040E004A900F013F926
:10D42000059D02A8FFF76EFF8026360102A8009036
:10D4300001AB320008A904A8FFF76AFF0400042C1E
:10D4400006D0002C2AD168468088B042EED103E095
:10D4500068468088002808D06846828808A9280085
:10D46000FFF721FFAD19002CE0D008A80C21FEF732
:10D47000ABFD624828184003000E09900698401E34
:10D48000711E0143491C481B4003000E0A90694667
:10D4900008A802F075FF3800FFF7FCFD89498D44AC
:10D4A000F0BD0000FCFF0000F8B5844CA54400214D
:10D4B0006A46917100220023814906000BE0B068A2
:10D4C0000C245C43005D1424604308184089002844
:10D4D00000D001225B1C30798342F0DB002A25D08A
:10D4E00080221201FF2108A802F092FF002580246B
:10D4F00024010DE002A8FFF705FF02A8009001AB90
:10D50000E21B92B208A8C11904A8FFF701FF6D1C25
:10D51000307985420CDAB0680C226A43011D8F58BD
:10D5200004A9805C00F08FF80028E3D000201BE005
:10D53000220008A93068FFF7B6FE614C3700694643
:10D540008D7900260CE0B8680C217143405C1421F1
:10D5500048432018FFF79EFD010000D00500761C0F
:10D5600038798642EFDB280056498D44F0BD964954
:10D570008A79824201D102207047897C8142FAD0A7
:10D5800000207047FF070000F8B54C4CA54404008C
:10D590000E0080221201FF2108A802F039FF0025A9
:10D5A00068460471802424011CE00C276F43B06896
:10D5B000C05D6A461279904213D004A900F043F886
:10D5C000B068C019476802A8FFF79CFE02A8009047
:10D5D00001AB9B1CE21B92B208A8C11904A8FFF77B
:10D5E00097FE6D1C30798542DFDB220008A9306888
:10D5F000FFF759FE002033498D44F0BD0000FCEFD9
:10D6000010B5002470480C21614341188A792C48D8
:10D6100014235343C0180368002B10D1012A0EDCD9
:10D620000A6802608B88D218426009890182FFF77C
:10D6300031FD010004D1641C012CE3DD01E0012077
:10D6400010BD002010BD10B50200022A01DB012030
:10D6500010BD1B4B142462439A1813684B60526828
:10D660008A6001220A7308700020487310BD7FB5DC
:10D670006A4C0578142675436419A47B002C01D0EC
:10D680000A2008E003940294099C01946C46248CBF
:10D690000094FFF768FD04B070BD7CB55F4C057861
:10D6A000142675436419A47B002C01D00A2076BD92
:10D6B0000194069C0094FFF7C4FD76BDE0F7FFFFE0
:10D6C000B410002024080000FAB583B01700032529
:10D6D000791E03260E43761C0CE00C78FF2C18D024
:10D6E000FE2C01D0002C6BD14A88D21C2A43521C3C
:10D6F00089184160826841684B1D9342EDD38B4984
:10D7000000781422504308184089002856D102207E
:10D7100057E00290501A864B984201D2521A00E00C
:10D720001A46824C92B2B0B26B461B8DC018001DD7
:10D7300082423BDB6846007B019100210091FE2183
:10D740006A461170694648706846008D30184880F6
:10D75000009A0199002002F08DFD049AB1B201985F
:10D76000001DFFF727FD0B9A6846018D0198B6B2A0
:10D770008019001DFFF71EFD20000830029909786E
:10D780001422514340180188491C018002980078F6
:10D7900014214843201881896A46128DBA18521EF6
:10D7A0001543491B491F818100200AE00298007837
:10D7B00014214843201840890028A8D00B2000E0FD
:10D7C000032005B0F0BD0000DCAF051010B504006B
:10D7D0006168A06881421ED20878FF281BD0FE280D
:10D7E00017D1FF22D243002002F044FD4F48010030
:10D7F0000831227814235A4389180A88521E0A8055
:10D8000021781422514340184189491C418100204C
:10D8100010BD052010BD042010BD0000B410002074
:10D8200078B585B00400002600966946FFF79FFE94
:10D830003E4D02281ED1142044432C19256802A80D
:10D840000C21FEF7C1FB3B4828184003000E039053
:10D850006068401E38490143491C481B4003000EC4
:10D86000049001A902A802F08BFD2000FFF712FC32
:10D8700000201AE0012817D100992000FFF784FE4C
:10D8800004000FD10AE0009880680C217143405CCD
:10D89000142148432818FFF7FDFB761C00980079F7
:10D8A0008642F0DB200000E0012006B070BD1CB510
:10D8B00004000020009069462000FFF758FE02286F
:10D8C00003D12000FFF79CFD16BD012803D100986D
:10D8D000FFF7EAFD16BD012016BD38B51748002137
:10D8E0004356DAB2114C1425554364196589002D4D
:10D8F00003D0A589248AA54207D3521CD2B2022A9A
:10D9000000D100229A42EDD106E0531C5CB2022CF9
:10D9100000D10023190001E00022D243017010065B
:10D9200002D4D0B2FFF7C3FF002032BDB4100020F4
:10D93000FFFF00000000FCEFFF0700006011002067
:10D94000BCB5584CA16900910840A06135E0521C5B
:10D95000D300E51803000B402F681F40F7D02A685A
:10D96000104001406868084002D10020C043686050
:10D970006868084000F09AF801006A680120884051
:10D9800082436A606162EFF3108172B6626A0120BD
:10D990009040C2432069104020610220C300E31878
:10D9A000083B1D6815401D60401EF7D181F31088AB
:10D9B0003D48616A8900405880472369E26960698F
:10D9C000256AA16903400B4003D0154001D1002214
:10D9D000BEE70020C0436062206A104014D102F00C
:10D9E0003FF8EFF3108572B62169E06962690A4079
:10D9F000A169114004D1216A014001D102F031F83E
:10DA000085F3108802F00EFD0098A061B3BD38B513
:10DA10001400EFF3108572B600F048F88000224938
:10DA20000C5085F3108831BD10B5EFF3108272B63B
:10DA30001C4B1C6904431C61C90059180B6818432E
:10DA4000086082F3108810BDEFF3108172B6154A9A
:10DA5000D3691843D06181F310887047F8B5114D30
:10DA6000696A00910022D243914201D1002701E06E
:10DA700001278F402E6A2862040003E0210038004D
:10DA800002F0D1FCE8692040F8D000986862EFF31A
:10DA9000108072B6E969A143E96180F310882E62B3
:10DAA000F1BD0000F4040020EC0D00200021020C68
:10DAB000120401D110210004020E120601D1083116
:10DAC0000002020F120701D1091D00011F22511A85
:10DAD00002A2000F105C081AC0B2704704030202D1
:10DAE00001010101000000000000000010B5FFF777
:10DAF00087FD424C211D0020FFF7A5FD21001431B8
:10DB00000120FFF7A0FD201D206010BD3EB53B4D5C
:10DB1000022802D12C00143400E02C1D2C6001934B
:10DB20006B461B8B00930B0001002000FFF7CCFD20
:10DB3000002805D0022801D1002000E00120C043C8
:10DB40003EBDF8B584B00E0019002C4C022E03D156
:10DB500025001435012301E0251D00230700256061
:10DB600028466D466A8103910A9D022F08D102A9B9
:10DB700000912B00039A69464989FFF78EFD0FE05B
:10DB8000002F03D101001800FFF75DFD02A80190EE
:10DB90000095039B6846428931002068FFF767FDC6
:10DBA000010001D1002005E0042801D1022000E09D
:10DBB0000120C04305B0F0BD10B5140023000A00D9
:10DBC00001000E480068FFF71BFB002804D001D5B8
:10DBD000200010BD0220C04310BD80B5022807D12F
:10DBE000064908681431884207D0FFF7EFFD01BDF0
:10DBF000032802D10020FFF713FE01BDDC10002036
:10DC00000120FFE719490860002070470120C04348
:10DC100016490968012900D1002070470020EFF360
:10DC2000108172B6114A1368012B02D00120C04343
:10DC300001E00323136081F3108870470020EFF3A5
:10DC4000108172B6094A1368032B02D00120C04329
:10DC500001E00123136081F31088704780B50A004A
:10DC6000034902F02BFC02BD00000000E804002084
:10DC700070B30510F1B50124404D414F00260078E6
:10DC8000012804D028D303281ED019D3F1BD009851
:10DC900040684078012806D1002000F0BDFA280035
:10DCA000FEF7C2F9BC70009840684078002813D194
:10DCB00000F0B6FA28002830FEF7B6F9BE70F1BDC4
:10DCC0003C702800503002E03E7028008430FEF79F
:10DCD000ABF92CA0FEF7A8F9F1BD80B52849027870
:10DCE000002A02D0012A03D001BD4088C88001BDAE
:10DCF0002548C88000F011F801BD10B5204C22481D
:10DD0000E08002F085FE214A00218020FFF77FFE9F
:10DD10000020207000F001F810BD80B5002000F058
:10DD20007FFA01201649487000228A70C8700A7173
:10DD300001BD3EB516480090694600220A71104C9C
:10DD40002279551EAD41ED0F01220270457002206F
:10DD500008711048217801290BD1FEF765F9E28896
:10DD60000948824203D06946012002F07CFE2571F9
:10DD700037BD3C30FEF758F9F9E7000030B2051026
:10DD800044110020200A0D00FFFF000033DD0510C4
:10DD9000C00B0020E8B20510010042221201D21E81
:10DDA000004207D002D4521E0018FCD5C10A40051B
:10DDB00012058918704700000100EED54042F44674
:10DDC000FFF7EBFF0122D20711436047F0B50E00C9
:10DDD0005E400125ED072E40B446AE0ADF184C1810
:10DDE000F44208D2F7420ED2640D01D07F0D12D159
:10DDF00000206146F0BD05D1F74201D87F0D05D165
:10DE00000020C143F0BDFBD1640DF9D00020C14317
:10DE1000490549088FE0E419C902DB0229432B4375
:10DE2000DB0A460DC00231438E4630B487B295B24C
:10DE30007D432E0CADB2140C7C43A419260C240493
:10DE400025439CB27C43A419190C7943270CC919AA
:10DE5000A4B20F043C43090C000C97B247432E0CAC
:10DE6000BE193543ADB2170C4743360CBF19A6B2E5
:10DE7000BF193E043543240C3E0C36199FB247436C
:10DE8000BF19BCB23E0C89191F0C47437F183E04D2
:10DE90003443390C704680B297B247432E0CBE19FA
:10DEA0003543ADB2170C4743360CBF19A6B2BF19A4
:10DEB0003E043543240C3E0C36199FB24743BF192C
:10DEC000BCB23E0C89191F0C47437F183E043443F3
:10DED000390C77463F0C90B278432E0C801906041B
:10DEE000ADB22E43050CA0B22D18120C7A43501976
:10DEF000020C80B2240CA4189AB27A4312191404AA
:10DF00002043120C89181B0C7B43C91830BCEF0A44
:10DF1000394203D1B61940414941641E6F12BF0D09
:10DF2000E41B0BDBFF19BC4211DA24050027420871
:10DF3000AE417841614166463143F0BD641C05D174
:10DF4000401C6141CF0201D34908F4E750E75DE787
:10DF500030B4012464054D00EC420BD85D00EC4266
:10DF600008D80C001C4364000443144304D28B42C1
:10DF700000D1824230BC7047FCD09942FAD1904225
:10DF8000F8E7FEE7F4464A1805D200F00FF801D58D
:10DF900080174008604700F009F80121C90788424E
:10DFA00000D90800404260474A1812D2400DC90209
:10DFB00008430121C9070843520D40210901521AA3
:10DFC000521C06D452421F3201D4D0407047C017B1
:10DFD000704700207047F0B40125ED070F005F4047
:10DFE0004FD48B4200D1824205D98446100062464C
:10DFF0008C4619006346DF184C18640D7F0D3AD02B
:10E00000661C760537D0E61B352E34DCDB022B434D
:10E01000DB0A0C0DC9022943C912202E0DDB1700A3
:10E02000203E06D01F00F741F3405F400026012A42
:10E030007741C01871410DD217E01700F741F24047
:10E040005740F3415A40B340F3405A4000268018ED
:10E0500059410AD3A21C52050FD0C207012F7241A9
:10E0600017004008CB0718434908641C24054208E0
:10E07000AF4170416141F0BC7047641C2105002034
:10E08000F9E76B4010E06B40ABE7F742F3D1E943AF
:10E09000F1E72442EFD100200021ECE7F0B40125A4
:10E0A000ED070F005F40EED40C00871A9C4105D2AB
:10E0B000C01BA141D219634169406B40AE0ADF1811
:10E0C0004C18F442E1D2640D7F0DE2D0E61B362EEF
:10E0D000D1DCDB022B43DB0AA4460C0DC902294329
:10E0E000C90A012E28DC04D1D6075208DF073A43BB
:10E0F0005B08EF0A76429041994114D039423BD1F6
:10E10000B61940414941761C394204D1761C0018A9
:10E1100049413942FAD0B9436746B74208D9A41BEE
:10E1200024052143A7E70042EAD13642E8D1A2E71D
:10E13000E40AE10700209EE7202E0BDD203E1F00B1
:10E14000F340F7415F40012A002257417E42984147
:10E1500091410BE01700F741F2405740F3415A401C
:10E16000B340F3405A407E42904199410A0303D2A2
:10E17000641EB619404149410027641E2405420827
:10E18000AE4178416141F0BC7047FEE7021D136863
:10E190008B431360026811430160704781B08C4962
:10E1A0000A6802430A60096808400090009801B0BC
:10E1B000704730B585B004000820FFF7EFFF8248B4
:10E1C00061004518298800910121019102910221E5
:10E1D0000391A10044186946A06802F079FC7B48CD
:10E1E0000068C00610D5A0689021C905884203D1F7
:10E1F00000997848FFF7CAFFA0687749884203D1A1
:10E2000000998248FFF7C2FF01222988A06802F026
:10E210000DFD002005B030BD80B56B4B002202E043
:10E2200080B5694B01224100595A80001818806856
:10E2300002F0FCFC002002BD70B586B006000C00A8
:10E24000300001D1042000E00820FFF7A7FF2000E4
:10E250006F4D7100695A01910121039102210491CE
:10E26000B1006C18010006D10020029001A9E068FD
:10E2700002F02EFC1FE001281DD1802040006549DE
:10E280000A6802430A6009680840009000988020EC
:10E290004002029001A9E06802F01AFC2800083050
:10E2A0008519002203210020285602F0FCFC0020E2
:10E2B000285602F0FDFC45480068C00610D5E0680D
:10E2C0009021C905884203D101994248FFF75EFFBA
:10E2D000E0684149884203D101994C48FFF756FF55
:10E2E000002006B070BD80B5494A4100515A8000F7
:10E2F0001018C06802F094FC401E8041C00F02BD9F
:10E3000080B502F099FC01BDF0B587B00F00002682
:10E310000024002F02D10124E44350E03E4994221E
:10E320004243891800913D498000085800990860CF
:10E330000420FFF733FF0820FFF730FF8020C000E4
:10E3400037490A6802430A60096808400190019849
:10E35000022002900390059001250495069002A9E1
:10E360009020C00502F0B4FB18480068C00603D531
:10E3700002991848FFF70AFF0295069602A9164867
:10E3800002F0A6FB0325ED433900009802F0B6FC2D
:10E39000002800D02C000021009802F0E5FC0028A5
:10E3A00000D02C000021009802F0F7FC002800D0DB
:10E3B0002C00009802F0BAFC002800D02C002000AD
:10E3C00007B0F0BD00000000280500200000504804
:10E3D000500040482000504800001048F8B5002484
:10E3E0000D4E0091150094270BE0FA239B000122AB
:10E3F000009801190B4800787843301802F056FD58
:10E40000641CAC42F1D32800F2BD00002800504843
:10E410003C05002054004048580D002054050020C1
:10E420005800404863110020C37882784178007812
:10E430001B021A4309021204084310437047FEE707
:10E440000100202008437047FDB5B2B03A9804910E
:10E4500002A93B22885400200D9024A8401C2F9034
:10E460000DE00498329A90470490002801D100F002
:10E47000B7FE0D98401C0D903398401C3390339894
:10E480000178002910D02529EBD1002007900890B1
:10E4900009900A900B900C90002102240120149006
:10E4A00008201290339D05E00D9800F09BFE0800B7
:10E4B000149901436D1C28782028F8D023280BD00C
:10E4C0002B2804D02D2804D0302808D00AE021437E
:10E4D000F0E708000421ECE708000821E9E708005C
:10E4E0001021E6E72A280FD1349802681068121D1F
:10E4F000349B1A600F90002804D542420F92080006
:10E50000042101436D1C12E000200F90644A09E0D1
:10E510000F9B934205DA9E00F3185B001818303801
:10E520000F906D1C28780300303B0A2BF0D328781D
:10E530002E2803D00020C0430E9027E06D1C2878C1
:10E540002A2808D1349800680268001D349B18609E
:10E550000E926D1C1AE02D2802D12D226D1C00E0B8
:10E56000002200200E900CE0002A09D10E9B4C4E98
:10E57000B34205DA9E00F3185B00181830380E908D
:10E580006D1C28780300303B0A2BEDD302A80187CD
:10E590002E78310040487844FF30401E02F0EEFEF5
:10E5A000002801D06D1C00E0002602A83A21465444
:10E5B000405C682804D1287868280BD1622005E0E7
:10E5C0006C2807D128786C2804D1712002A93A223E
:10E5D00088546D1C15A80690287869460870681C38
:10E5E0003390684602781000253833D01C3800D1AB
:10E5F000CCE1001F022800D8C8E1133801D100F097
:10E6000019FD093800D1C1E1801E01D100F0AFFD34
:10E61000401E01D100F05CFD401E022800D8B5E18B
:10E62000001F01D100F054FD401F00D108E1401E41
:10E6300001D100F0FFFC401E00D1F0E0C01E0ED062
:10E64000801E01D100F0F6FCC01E01D100F0F2FCEA
:10E6500000F098FD14980790252015A97CE13498C6
:10E6600000680468001D349908600594002C00D0EF
:10E67000C1E002A83B21405C002800D1B5E00024A5
:10E68000E44306487844143002F082FE201A01D098
:10E6900000F0A6FD00F083FD54CDFFFF88CDFFFF05
:10E6A000CBCCCC0C01236A4602A9280000F054FE12
:10E6B000002801D000F094FD641EF3D13295079D2F
:10E6C00015AC002D0FD0329E21780498B0470490ED
:10E6D000002801D100F084FD0D98401C0D90641CB1
:10E6E0006D1EF1D132963020694608700A9C002CCC
:10E6F0000DDD329D01236A4602A9280000F02CFEA0
:10E70000002801D000F06CFD641EF3D13295059C09
:10E71000089D002D0FD0329E21780498B0470490B8
:10E72000002801D100F05CFD0D98401C0D90641C88
:10E730006D1EF1D13296302769460F700B9C002C6C
:10E740000DDD329D01236A4602A9280000F004FE77
:10E75000002801D000F044FD641EF3D132950598E5
:10E7600008994418099D002D0FD0329E21780498F5
:10E77000B0470490002801D100F032FD0D98401CF4
:10E780000D90641C6D1EF1D13296684607700C9C8A
:10E79000002C0DDD329D01236A4602A9280000F0FD
:10E7A000DBFD002801D000F01BFD641EF3D1329583
:10E7B00002A83821405C400700D460E6202069466A
:10E7C00008700198002800DC59E6019C329D012365
:10E7D0006A4602A9280000F0BFFD002801D000F021
:10E7E000FFFC641EF3D1329549E61B48784468303B
:10E7F000059000F0D4FC0E9D002D03D5200002F002
:10E80000EBFD09E02A000021200002F0EDFD0028C8
:10E8100001D0001B00E02800089000F0C0FC3498F4
:10E8200000680268001D349908600020C043002180
:10E83000104002AA03C215A80590782100F093FCAD
:10E8400002A83B21415C002908D00024E4434B4846
:10E850007844FF30293017E7E8CBFFFF3A21405CCE
:10E8600062286AD0682819D06A2845D06C2806D05A
:10E8700071284FD0742831D07A2821D06FE0349895
:10E8800000680168001D349A106000297AD10024C4
:10E89000E4433B487844FF301738F5E63498006885
:10E8A0000168001D349A1060002905D10024E4435A
:10E8B00033487844CA30E7E60D98088000F06FFCD2
:10E8C000349800680168001D349A1060002959D1FD
:10E8D0000024E4432A487844A630D5E634980068FA
:10E8E0000168001D349A106000294BD10024E443D4
:10E8F000234878448A30C7E6349800680268001DCF
:10E9000034990860002A13D10024E4431C48784459
:10E910006E30B9E6349800680268001D34990860CA
:10E92000002A05D10024E443154878445230ABE670
:10E930000D98C11703C200F032FC349800680168DA
:10E94000001D349A1060002905D10024E4430C48CE
:10E9500078442C3098E60D98087000F020FC34982C
:10E9600000680168001D349A106000290AD1002453
:10E97000E44303487844083086E600BF78CAFFFFC6
:10E980008CCAFFFF0D98086000F009FC34980068FD
:10E99000C31D072083433498036003CB349D2B6051
:10E9A00002AB03C32023C80F04D007982D2115AB59
:10E9B00019540DE002A8008F204204D007982B21A3
:10E9C00015AB195404E0C00704D5079815A90B54DA
:10E9D000401C079015A807994018139013980590AC
:10E9E00024AD02A8C0C868460078202101436846CB
:10E9F0008170807861280BD00E98002801D5062000
:10EA000005E005D168468078672801D114980E90FA
:10EA100002A803C808004B005B150024E443A3428E
:10EA20000ED109030CD003200890613A1A2A03D2B0
:10EA30001949794462310FE0184979445E310BE09D
:10EA4000A3420ED100030CD103200890613A1A2A88
:10EA50001DD313497944483103221398FDF7D6FAA0
:10EA60009DE301AA02A803C802F0C9FC02AA03C2DE
:10EA70006846807861281CD1059830210170811C7E
:10EA800005916946097861290ED178210DE0054983
:10EA900079441031E0E700BFACC9FFFFACC9FFFF0C
:10EAA000B0C9FFFFA8C9FFFF582141700798801C1B
:10EAB000079002A803C82246530802400B4004D125
:10EAC000002A02D10024002652E16846807861289D
:10EAD00000D099E00E98002801D5212000E0401CCC
:10EAE00013901398401C2E90300039000022002310
:10EAF00002F09AFC02A830C802D2802000064540ED
:10EB00000198001F019024A90A7024A8461C2E9881
:10EB1000002832DD2E9F20002900002280235B0385
:10EB2000FFF716FA29D81C2202F097FC04000D000A
:10EB3000FFF728FA2E90FF1F002F09DDFFF73CF9A1
:10EB400002000B0020002900FFF7A8FA04000D00C6
:10EB5000F01D07212E9A002A0ADD491E08D4401E06
:10EB600013071B0F03701211F5E7401E00220270FD
:10EB7000491EFAD5C61D002FCDDC24A82F99711A85
:10EB800024AA551C139A0C00914200DD1400002C9D
:10EB900033D48C4205DA411C095D082901DB0F21C1
:10EBA00000E00021220024AB9B1801E0641E5B1EE4
:10EBB000521E1E788E42F9D00F2904D1411C895C67
:10EBC000491C401C8154002A04D524AD641C0198C2
:10EBD000001D0190611E10D46A18684600781378F1
:10EBE0003033DEB23A2E01DBC318C6331370491E30
:10EBF000521E0029F3D5694608700E98002800D4EB
:10EC0000B5E0601E0E90B2E07F007F080198664973
:10EC10004843664901F084FA019007200199401A9F
:10EC2000002805DD02003000390000F06FFB0AE02B
:10EC3000424200205E4900F069FB02000B003000F8
:10EC4000390002F042FC6A469278662A02D1019AA3
:10EC50000A3200E006220E9B9A18142A00DD1422C4
:10EC600024AB30241C705C1C02E030A803C8139A4B
:10EC7000002A3CDD30AB03C3139230A803C8FFF772
:10EC800093F92E9006460834042530000A2101F03D
:10EC90005BFA0F0030000A2101F056FA0600303707
:10ECA000601E077030000A2101F04EFA0F0030009C
:10ECB0000A2101F049FA0600A41E303727706D1EA4
:10ECC000E3D108341398083813900028CDDD2E982E
:10ECD000FFF762F802000B0030A803C8FFF7DEF967
:10ECE0000022344BFFF772F830AA03C2C5E72F9811
:10ECF000201A24A94D1C04E0401E0199491E0191CF
:10ED00006D1C29783029F7D069468978662902D1A7
:10ED10000199491C06E069468978652901D1149951
:10ED200000E000210E9A5418A04200DA441E002C84
:10ED30001DD4844204DA285D342801DD392100E045
:10ED400030212200681E831801E0641E5B1E521EE3
:10ED50001E788E42F9D0392902D1A95C491CA954E8
:10ED6000002A04D50500641C0198401C0190019EF6
:10ED70001395684600786946487002F007FC406ABF
:10ED80000078694608700E9D20B2002804DC149CAF
:10ED9000044878440E3013906846807866280BD17A
:10EDA000761C23E0B0C6FFFF97750000A086010027
:10EDB0000000F03F84D7974168468078672846D1A5
:10EDC00030B20321C943884247DBA84245DA761CAA
:10EDD00002A8008F1299C0B2084203D120B2A84203
:10EDE00000DC050030B22D1A00D5002537B2002F07
:10EDF00000DDBAE00898411C08913021059A1154B1
:10EE0000002D05DC02A8008F1299C0B2084206D07E
:10EE10000898411C089169460978059A115478426E
:10EE2000854200DA6E4236B270420B90AD1920B2C4
:10EE3000854200DA2C0024B2099422001399059827
:10EE4000089BC018FDF7E2F8281B0C90DAE0684632
:10EE50004078612818D170201BE020B2A84206DA61
:10EE600002A9098F129AC9B2114200D105006D1E84
:10EE700000D5002568464078672802D1652069469C
:10EE800007E04520694604E068464078412801D102
:10EE9000502048700898411C089113990978059AE8
:10EEA00011541398411C002D05DC02A8008F129A02
:10EEB000C0B2104219D00898421C08926A461278D3
:10EEC000059B1A54002D10DD641E20B2854200DA25
:10EED0002C0022B20598089BC018FDF797F824B2C1
:10EEE000089800190890281B0B900598089940185D
:10EEF00069464978017031B2002903D42B21417051
:10EF0000871C03E02D224270871C4E42002412AD64
:10EF1000300008E00A2101F003F930AA03C2297089
:10EF20003098641C6D1C00B20028F3DC012C08DC56
:10EF30006846407820210143652902D1302038708D
:10EF40007F1C002C09D1302038707F1C07E0641E24
:10EF500012A8005D303038707F1C002CF7DC05985B
:10EF600008994018381A09904CE020B231B2884212
:10EF70001DDA22B213990598089BC018FDF746F8D0
:10EF800024B2089800190890391B0B91002D05DC5C
:10EF900002A9098F129AC9B2114206D069460978AE
:10EFA000059A11540998401C09900C952AE032B238
:10EFB00013990598089BC018FDF728F80898C01900
:10EFC0000890A41B002D05DC02A9098F129AC9B272
:10EFD000114205D0411C089169460978059A1154DF
:10EFE00020B2854200DA2C0022B21398C11905988C
:10EFF000089BC018FDF70AF824B208980019089079
:10F00000281B0B9002A83821405C142101401029D4
:10F0100000D0C4E00798089940180B994018099946
:10F0200040180C9940180F99884200DBB7E0081A85
:10F030000A90B4E002AA3A20105C622808D068283E
:10F040000ED06A2814D06C281DD0712810D01AE078
:10F05000349801680868091D349B1960C0B218E033
:10F06000349801680868091D349B196080B210E06B
:10F0700034980068C31D072083433498036003CB92
:10F08000349C236006E0349801680868091D349BAD
:10F090001960002102AB03C3108F1299C0B208425D
:10F0A0005BD002A803C8002901D1002855D06846CA
:10F0B00000782021014378294FD1079815A93022E3
:10F0C0000A54401C421C07926A4612780A5444E0D3
:10F0D00002AA3A20105C622808D068280ED06A285C
:10F0E00014D06C281DD0712810D01AE03498016813
:10F0F0000868091D349B196040B218E03498016813
:10F100000868091D349B196000B210E0349800684B
:10F11000C31D072083433498036003CB349D2B60C9
:10F1200006E0349801680868091D349B1960C1170E
:10F1300002AB03C3002902DA07982D2109E0108FE2
:10F14000204202D007982B2103E0C00705D507987D
:10F15000202115AA1154401C079015A807994018A2
:10F1600005906846017802A800F03EF817E0149870
:10F170000790349800680168001D349A106015A843
:10F1800001700CE014980790252015A908706846B6
:10F190000078002803D007946846007848700F98DC
:10F1A0000799401A0A99401A0899401A0B99401A6F
:10F1B0000999401A0C99401A019002A83821405C24
:10F1C000400701D5FFF77BFA2020694608700198B7
:10F1D000002801DCFFF773FA019C329DFFF762FA09
:10F1E0000020C04335B0F0BDF2B586B004002569FB
:10F1F0006F2901D1082707E00846FFF721F9782891
:10F2000001D00A2700E010273C2603CC083C04AAC2
:10F2100003C26A46127E642A03D06A46127E692AB5
:10F2200009D1002907DA04A803C800220023121A12
:10F230008B4104A80CC004A803C800290DD10028E4
:10F240000BD1206B002808D1082F3DD13820205C3D
:10F25000000739D53B26302035E00294009504A8FC
:10F2600030C8761E0196200029003A00FB1700F0F6
:10F27000A8FF3032D0B23A280DDA0098825520002B
:10F2800029003A00FB1700F09CFF04000D0007D195
:10F29000002C05D10AE06846007E8218AF32ECE708
:10F2A0000298C068009989198842DAD3029C009DAF
:10F2B000082F09D13820205C000705D5A85D30282B
:10F2C00002D0761E3020A8553C20801BA061A919D1
:10F2D000E160216B884206DA081A2062208F1C49FF
:10F2E0000140218710E000290ED53821615C1422ED
:10F2F0000A40102A08D1616B6269891A226A891A48
:10F30000081A002800DD206207B0F0BDF8B500261D
:10F31000104F04000D00009214E0C00707D5320022
:10F320003B0020002900FEF751FD04000D0000986D
:10F33000401000903000390032003B00FEF746FDDF
:10F3400006000F0000980028E7D120002900F4BD36
:10F35000EFFF000000002440F8B50024002B11D07E
:10F3600007000E0014001D002178B068B847B06097
:10F37000002809D0F06A401CF0620020641C6D1E59
:10F38000F2D104002000F2BD0020C043F9E7FEE7FF
:10F3900010B50024032002F0FFF8002801D001245A
:10F3A00001E002F02AF9200010BD01488068704792
:10F3B0001C050020FEB5C84C2169CC4A914214D1ED
:10F3C00021682268256823682468640D382727404F
:10F3D0005B025C0F0F232D0C1D40160AF0223240F9
:10F3E0000192090A0B40009305E008250095702161
:10F3F000019103241827BE4E00213171002801D04D
:10F4000002F02BF90320C043BA4989680140B94A88
:10F41000916011468968084011468860B6480068C6
:10F42000B6490140B4480160B5490F20C0430A6B9A
:10F43000024015430D63CA6AF0239A43019B1343AC
:10F44000CB62CA6A1040009A0243CA620868072267
:10F45000904304430C6008683822904307430F60D0
:10F460005523FF20C043A74A146804401C4314607E
:10F47000D468044066252543D560146A04402343BC
:10F480001362136C03401D241C431464D36B0340AC
:10F4900059241C43D463536C034032241C435464EA
:10F4A0000123546A1C435462974C25687F27BD434F
:10F4B0001F272F43276065683F27BD4309272F4338
:10F4C00067607768914D3D409F032F437760776871
:10F4D0008F4D3D40FC27BF032F43776075682D0299
:10F4E0002D0A90273F052F437760B768884D3D4030
:10F4F000B427FF032F43B760B5682D022D0AC82734
:10F50000BF052F43B760B56805405A272F43B76042
:10F51000B7687E4D3D40C827BF012F43B760F768ED
:10F520007B4D3D401F052F43F760F768794D3D4007
:10F53000C0277F052F43F7600425376907402F4315
:10F540003761F768384014270743F760F7686F485A
:10F550003840A027FF000743F760706905437561D5
:10F560007069DD050543756170695D070543756167
:10F57000B0697F25A843B061674803745E25457470
:10F580000D6B8574C3745D250575CD6A45758375EE
:10F590005225C57509680176437612218176116876
:10F5A000C176037715214177D1688177C3771A2116
:10F5B00020254155116A212541550121222541551A
:10F5C000222123254155116C242541550121252552
:10F5D0004155212126254155D16B27254155012132
:10F5E00028254155232129254155516C2A2541556E
:10F5F00001212B2541551B212C254155516A2D22D6
:10F60000815401212E22815490212F22815421687E
:10F61000302281540121312281549121322281549E
:10F6200061683322815400220021342401550100F5
:10F6300010310160416001000C318160C2600068DE
:10F64000316830603548036071699A070A43726116
:10F650008169194381612748006826490860264866
:10F66000C06918432449C8610846806903430846B5
:10F67000836120480068F7BD294908684A6812027A
:10F68000FF231B021340C0B21843896801D00C2924
:10F6900001D37F200EE006225143773901E0891D16
:10F6A00040081F28FBD2FF22A23250431D4A801877
:10F6B000800A081840B2704770B50E4CA5692668DC
:10F6C0002660FDF746F92E433000FCF72BF8FDF7D6
:10F6D0003FF9206870BD0000E81E001010B5124C04
:10F6E00020682060FCF726F8206810BDCCECBCFC3C
:10F6F000C00000200400006028180060FFFFFFBF6A
:10F70000481600604815006040170060FF00FFFFCA
:10F71000FFFF00FFFFFFFFC0481000201014006033
:10F72000A4160060A04600002C14006080B502F012
:10F73000D6F801BDF8B5050000260124002D25D01E
:10F740002879002802D1280001F074FF02F0F4F8B3
:10F750000221297107002868016821400CD104604A
:10F7600002F0EAF8C01B0A498842F4D303260420B9
:10F77000A8602E713000F2BD8068D021490301439A
:10F78000286881600020A8602C71F3E70120F2BD99
:10F79000E9030000F8B50400216808688004800EC1
:10F7A0000D684E68012739050D4206D00E4204D07F
:10F7B000A2683A43A2602268916049080D4207D0CE
:10F7C0000E4205D0A26802231343A3602268916011
:10F7D00024280AD12068F821090140580C498842A0
:10F7E00003D0A06808210143A160A068002802D0CE
:10F7F000200000F031FF7804054007D0064005D016
:10F80000216888602771200000F020FFF1BD000012
:10F810000DD6000038B584B00020FCF783FD002031
:10F82000FEF7C7FC0120FEF7C4FC0220FEF7C1FC76
:10F830000120FEF7F1FC0025854C257001202821D0
:10F84000605402205021605401210020FEF7F4FC96
:10F8500001210120FEF7F0FC01210220FEF7ECFC63
:10F860000121080402F086F80121202002F082F82C
:10F870000121880502F07EF89F4A00210820FEF74A
:10F88000C6F89E4A00211020FEF7C1F89C4A0021CC
:10F890002020FEF7BCF89B482821694361180861C5
:10F8A000C9616D1C032DF7D3684600BF19A1102252
:10F8B000FCF792FB69460020FEF726FDEFF310806F
:10F8C000012181F3108890490A68202313430B60BB
:10F8D00080F310888D480168FF22914340220A433B
:10F8E0000260802040008A49086002F0C1F80028C8
:10F8F00001D0FCF756FC02F0F7F800F0C1FDFBF771
:10F9000023FF02F049F90020FCF70DFD002005B0AF
:10F9100030BD000000C20100000000000000000037
:10F920000000000010B544692078FEF7DCFC2021BF
:10F9300060542178491C00BF8DA0FCF775FB20782E
:10F94000002803D0022807D003D310BD00210820CF
:10F9500004E00021102001E000212020FEF764F8DF
:10F9600010BD0000F8B56B4E80214900775AFF2F7B
:10F9700000D96BE000780D2863D1310081A0FCF73D
:10F9800053FB334C002764A1300002F051F90028EA
:10F9900006D100BF7FA0FCF747FB2021675424E07D
:10F9A0005EA1300002F044F9002805D17BA0FCF7ED
:10F9B0003BFB4821675426E059A1300002F038F99A
:10F9C000002805D177A0FCF72FFB7021675428E0B1
:10F9D000012500BF75A1300002F02AF9002807D1E7
:10F9E00075A0FCF721FB20202554002108201AE0F7
:10F9F00075A1300002F01CF9002807D175A0FCF7B2
:10FA000013FB48202554002110200CE075A1300084
:10FA100002F00EF9002809D175A0FCF705FB702053
:10FA2000255400212020FDF7FFFF04E0310000BF36
:10FA300073A0FCF7F9FA802149003000FCF7C4FA02
:10FA400001E0F0557F1C802040003752F1BD0000DE
:10FA5000D80E002080B50020C043FDF771FF01BD26
:10FA6000704718B58FB0002000216A460B069B0D29
:10FA7000D05000BF491CCAB20A2AF6DBF1F77EFB60
:10FA8000002828D0FCF72CFE040000F00DFD032C0C
:10FA900000DB0324A04200D9200000281BD002284C
:10FAA00009D002D303280CD013E00121012002F079
:10FAB00078F801210AE00021012002F072F801210A
:10FAC00004E00021012002F06CF80021012002F086
:10FAD0007AF802F08AF810B010BD80B511492822DA
