:020000041004E6
:100000000000012059250410112A0410132A04109D
:1000100000000000000000000000000000000000E0
:10002000000000000000000000000000152A04107D
:100030000000000000000000172A0410192A041014
:100040001B010410270704107F080410530A041032
:10005000871F0410DF200410FF290410972A0410C2
:10006000D32A0410E92A0410EB2A0410ED2A041004
:10007000EF2A0410212A041000000000F12A0410C5
:10008000F32A0410F52A0410492A04100000000085
:10009000412A04100000000000000000312A041072
:1000A000392A0410512A041000000000000000004A
:1000B0000000000000000000000000000000000040
:1000C000912804109D2804104B270410E5270410E4
:1000D000DF2504108126041010B5904216D98AB28B
:1000E000030C090C0C46594380B25343444350431C
:1000F0001B191A041B0C10185941802252030023AB
:1001000012184B41520DD802104310BD48438022B3
:1001100052031218520D104610BDFEE7EFF3148281
:10012000EFF30981002080F31488BFF36F8FF0B5DF
:1001300043464C4655465E466746F8B40F4CEFF3CF
:100140000883636006B4BFF34F8F30BF00BF00BFAA
:100150000A4C646884F3088882B003BCF8BC9846F3
:10016000A146AA46B346BC46F0BC04BC80F309884D
:1001700081F31488BFF36F8F104700000400002044
:10018000FEB505000E00002077498860774C606A54
:10019000C00504D540221106280000F0B9FA606AB3
:1001A000C00705D5682272492800443000F0B0FA33
:1001B000280040300021C166616A8025ED01294098
:1001C00008D0016F002905D10121C166616A694A21
:1001D0000A406262684909680160A06AC00706D5E2
:1001E0002422664988204000301800F091FAA06A65
:1001F000AF08384006D0242261499A2040003018C8
:1002000000F086FAA06A054006D024225D49AC20A1
:100210004000301800F07CFAA06AC00605D55822CC
:1002200059493000B83000F073FAA06AC00505D50E
:10023000302256493000883000F06AFAA06A400542
:1002400005D5302252493000583000F061FAA06ADA
:10025000800205D52C228221C905300000F058FA11
:10026000A06A000205D52C224A4930002C3000F04B
:100270004FFA216B0120014005D00199464A1268CE
:1002800002231A400A60216A029D08400DD02022F4
:100290009121C90594204000281800F039FAA022C5
:1002A0003E492800883000F033FA206A400305D523
:1002B0000C223B4928007C3000F02AFA206AC00357
:1002C00006D5384801682967416869678068A8676A
:1002D000206A074005D0182233492800583000F022
:1002E00017FA206A400705D52C229021C90528005D
:1002F00000F00EFA206A000705D52C222B492800B1
:100300002C3000F005FAA420400028182168016074
:10031000A1684160216A8160A16AC160002000215A
:10032000234A1368503B099A1C680D06AD0D5451C1
:10033000491C1B1DCCB2142CF6DB08991D4A13680E
:100340000B601D4B1B684B6083001C4CE458CB18A2
:100350009C60401C0828F7DB90698862D3480268DB
:10036000CA6240680863F7BD0400002030004048BE
:1003700000200040FFBFFFFF0410004000200041AC
:100380000030004100700041006000410050004119
:100390000040004100100041541600600000704809
:1003A000000060480000304800002048000010486D
:1003B0000000041008ED00E000E100E000E400E0CF
:1003C000FFB581B0AC30BA4C0025016800290BD0D4
:1003D0000560606A8021C90101436162606A802111
:1003E000C901084000900098B2488068002800D1F8
:1003F00059E10020B0490A68503A0B9903069B0D59
:10040000CB581360401C121DC3B2142BF6DB0A99A3
:10041000AA4A086810604868A94B18600023A94FD1
:1004200098000E18B6683E505B1C082BF8DB049E43
:10043000886A90619D480A6B42608560C96A016064
:100440008C2040003718386B2060786BA060B86B48
:100450002062F86BA062206AC00717D52022942082
:10046000400031189120C00500F052F930008C3066
:10047000056045618562C5630565456685673D60C4
:10048000A02231008831904800F042F9206A4003F0
:1004900005D50C2231007C318C4800F039F9206AF6
:1004A000C00306D58A48316F0160716F4160B16F3A
:1004B0008160206AC00405D5182231005831854872
:1004C00000F026F9206A40070BD59020C005316A5C
:1004D0000162716A4162716941612C22310000F050
:1004E00017F9206A00070BD57B48F16C0162316D6A
:1004F0004162316C41612C2231002C3100F008F94D
:10050000606AC00504D540220199100600F000F988
:10051000606AC0070ED50198466C406C0121884383
:10052000019948646D4D682201994431280000F01A
:10053000EFF82E60029D0198006C69490860A06A7E
:10054000882149006E18C00714D5306800903068C3
:10055000402188433060634F0C223100380000F0A6
:10056000D7F814229020400029185F4800F0D0F8F6
:1005700000983860A06A4027FF43C00415D5706A10
:100580000090706A384070620C229A20400029184E
:10059000564800F0BDF81422A22040002918544803
:1005A00000F0B6F8009851490860A06A400415D5DB
:1005B000B06C0090B06C0740B7644E4E0C22AC207B
:1005C00040002918300000F0A3F81422B4204000A5
:1005D0002918494800F09CF800983060A06AC006CD
:1005E00005D558222900B831444800F091F8A06A96
:1005F0000126F643C00517D52800843040680090D6
:1006000028008430406830402900843148603C4FE5
:10061000242229008831380000F07AF8280084303C
:10062000006BF86200983860A06A400510D5A86D8C
:100630000090A86D3040A865324F2422290058311F
:10064000380000F065F884202858F8620098386077
:10065000A06A80020CD52F682868304028602022CC
:1006600029008220C00500F053F88220C0050760F1
:10067000A06A00020BD5EF6AE86A0640EE62224EDD
:10068000202229002C31300000F042F83760206B26
:10069000C00708D503980068002804D01B480168EB
:1006A00002220A43026005B0F0BD000010E000E045
:1006B00030004048040000200000041008ED00E075
:1006C00000E100E000E400E0000070480000604845
:1006D0000000304800002048000010480020004082
:1006E0000410004000200041102000410030004173
:1006F0001030004100700041107000410060004166
:1007000000500041004000410010004154160060BC
:1007100030B5002303E09C000D5905515B1C940883
:10072000A342F8D330BDFEE781B00A490A6A01202E
:1007300002400CD10A6802430A600A6882430A60D8
:100740000A6A02430A62096A084000900098002081
:1007500001B070474000404880B500F07DF800F0DF
:1007600038F800F08BF801BD80B500F075F800F0A6
:1007700085F801BD012808D12B480022835C8B54E9
:10078000521C202AFADB00207047022801D127489A
:10079000F3E7032801D12648EFE70120704780B531
:1007A00000F04CF82348016808220A4302600168FF
:1007B00004220A430260016801220A43026001BD6B
:1007C00080B500F041F8002801D1032002BD0120CE
:1007D00002BD10B5134C207800281AD116480068C5
:1007E000002816D16021201D00F04AF8211D0120AB
:1007F000FFF7C0FF210024310220FFF7BBFF2100DB
:1008000044310320FFF7B6FF00F026F8211D002039
:1008100005E000F021F803206060211DC043626EF6
:10082000904710BDB80600206C0430489004304852
:10083000B404304808003048000430480120FFE785
:100840000D490860002070470120C0430A4909682B
:10085000012900D1002070470020EFF3108172B60B
:10086000054A1368032B02D00120C04301E0012395
:10087000136081F3108870475C0000207047FEE72A
:10088000002200BF094202D0491E4254FCD17047E9
:1008900081B08020C0020B490A6802430A600968DF
:1008A00008400090009808480168042291430160C4
:1008B0004168C907FCD54068104000D0012001B054
:1008C00070470000500040480000604881B0314946
:1008D00001E081B030490A6802430A6009680840B3
:1008E0000090009801B070477CB500F09DF800F0D2
:1008F0005DF800F081F80420FFF7E8FF0820FFF71B
:10090000E5FF00F0A5F800BF46A000680090234C6A
:10091000206A0125ED430126304008D1206830438C
:1009200020602068284020600120FFF7D2FFC0200F
:10093000C0050090684600F08DF86846002100224E
:1009400006C0206A304008D120680643266020682F
:10095000054025600120FFF7BCFF11480068102802
:10096000FBD36846A02149000180002181700191DC
:1009700000F033FA0B480C49016000F07FFF0028BB
:1009800001D000F04CF8002000F0E2FF00F0F5FF8D
:10099000FCE70000500040486000404840004048EC
:1009A00010180060980000200000304880B588B022
:1009B000182102A8FFF764FF68460021002206C044
:1009C000032002908020400203901020059002A88E
:1009D00001F030F8002801D000F021F8002000904C
:1009E000202001900021684601F04CF9002801D038
:1009F00000F015F809B000BD80B586B01821684632
:100A0000FFF73EFF02200090C0020590684601F00B
:100A1000D5F9002801D000F002F807B000BD72B689
:100A2000FEE700000000000010B50024032001F0E4
:100A3000FFF9002801D0012401E001F02AFA20008A
:100A400010BD0148806870478800002070477047DB
:100A50007047FEE7F8B584B00124A74B1969A74A8F
:100A6000914215D119681A681D681E687602760FC2
:100A700003961B685B015F0F02940F232D0C1D4032
:100A8000160AF02232400192090A0B40009305E059
:100A9000082500957021019100210291984E0021B6
:100AA0003171002801D001F024FA0320C043954998
:100AB00089680140934A916011468968084011464F
:100AC000886091480168914A0A40026090490F226B
:100AD000D2430B6B13401D430D63CB6AF025AB4330
:100AE000019D1D43CD62CB6A1A40009B1343CB622C
:100AF000029A002A0FD00A6807239A43039B5B07D8
:100B00005B0F13430B600A6838239A43FB003825B8
:100B10001D4015430D6055237E4A1568FF27BD43D0
:100B20001D431560D568BD4366272F43D760156AFE
:100B3000FF27BD432B431362136CBB431D251D438D
:100B40001564D36BBB4359251D43D563536CBB431D
:100B500032251D435564536A234353626E4B7568B7
:100B60001D40A7032F43776077686C4D3D40FC27FD
:100B7000BF032F43776075682D022D0A90273F052C
:100B80002F437760B768654D3D40E827FF032F434B
:100B9000B760B5682D022D0AE027BF052F43B76067
:100BA000B568FF27BD4376272F43B760B5681D4062
:100BB000E827BF012F43B760F768584D3D40270530
:100BC0002F43F760F768564D3D4027072F43F760E6
:100BD0003569FF27BD4305272F433761F568FF2798
:100BE000BD4314272F43F760F5682B40A025ED0087
:100BF0001D43F560736904251D4375617369E5053F
:100C00001D437561736965071D437561454B1C7410
:100C10005E255D740D6B9D74DC745D251D75CD6A5C
:100C20005D759C755225DD75096819765C76122113
:100C300099761168D9761C7715215977D1689977FB
:100C4000DC771A2120255955116A21255955012192
:100C500022255955222123255955116C24255955F2
:100C6000012125255955212126255955D16B2725A7
:100C70005955012128255955232129255955516CAC
:100C80002A25595501212B2559551B212C2559550C
:100C9000516A2D229954002100222E255A551A00FE
:100CA00010321A605A601A000C329A60D9601968C2
:100CB000326831601C490C607169A2070A43726195
:100CC00010490A680A60C2692243C26182691443FA
:100CD0008461086805B0F0BD70B50A4CA569266846
:100CE000266000F0D7F92E43300001F04BF900F0F8
:100CF000C1F9206870BD0000E81E0010CCECBCFCFF
:100D0000C00000200400006028180060FFFFFFBF43
:100D10004816006048150060FF00FFFFFFFF00FF5E
:100D2000FFFFFFC0200700201014006080B501F015
:100D30002BF901BD010005D40121C006C00E814080
:100D40007F4801607047C1680322914302220A4331
:100D5000C260704709E0C0688007800F022801D197
:100D6000012070470020704700BFC16803229143F3
:100D7000C1607047C0688007800F032801D101203F
:100D80007047002070470161704700697047816AB1
:100D90008022D2050A4382627047816A694A0A400A
:100DA00082627047816A4800C00F70474162704795
:100DB00000697047816A802292050A438262704707
:100DC0006148026807239A434907490F11430160AC
:100DD000704780687047C0687047F1B501275B486D
:100DE000C06B38435949C8630846806B38438863F1
:100DF0001720FFF79FFF1420FFF79CFF5348406B1D
:100E00003843524948630846006B3843086318204A
:100E1000FFF790FF00980088C92800DAC8204C4DE1
:100E200029008431486100984068002800D00120E2
:100E300028700026000603D100988078002813D07F
:100E40004448C1683940FBD017210160C16839436B
:100E5000C1604660C1683940FCD02800103000F005
:100E6000A2F9E869286209E0C82040032862E86125
:100E70003948A86139482861394868610098406854
:100E8000002802D1A020C0050DE000030A2101F0D6
:100E9000B4F86860334C200000F000F90100686885
:100EA000884202D3200000F0F9F868606420A8604E
:100EB0002E7300980088290058310861A96900F054
:100EC000F9F9294C0020207000212A0058321832EC
:100ED00003C21E48006829005831886200200021A2
:100EE0002A005832203203C22A00283203C2342199
:100EF00068541E4AA9696868FFF7EEF828632878E5
:100F00002074A66027736673E681290058314E72FB
:100F1000290058314E81AE65EE651548A8646E65AE
:100F200000F0C3F86A68002312184B4128004030D3
:100F300000F0EEF90121280000F064F9F1BD000095
:100F400000E100E0FFFFFFBF2818006010180060FC
:100F50009805002004100060C2F528008D5B000099
:100F6000ECEB6501FFEFFFFF1C06002026030000ED
:100F7000DD120410F8B586B03C4802900078029962
:100F80004978884236D13A4D287B002832D1032453
:100F900000F08BF804AA03C203A800F024FC0100AF
:100FA000280068302A0061326123EB5C002B02D1FB
:100FB0005378002B01D0012902D19278002A1BD04E
:100FC000AA6DEB6D0092019304A9C0C9027F0023B2
:100FD00092197B41AE6E0027B6185F410021523650
:100FE0004F41009A019BBB4224D301D8B24221D386
:100FF000022405E0002037E002291BD0012919D086
:10100000426A002A2FD0107B00282CD003CA083A4D
:101010000090019104A8C0C8A86E002180197941F0
:10102000002352305941009E019F8F4204D801D3C2
:10103000864201D2012017E0032C13D11069002849
:1010400010D12800403082420CD1012002998870D2
:10105000002000F098FA18480168184A0A40026017
:10106000032001E00224200007B0F0BD2906002083
:101070009805002010B5C024E4052000FFF76BFEA2
:10108000002806D12000FFF775FE002801D100F0EE
:1010900097FB10BD002090490870704780B5844AC6
:1010A0005749C969FFF718F802BD80B56946544829
:1010B00000F078F904BD000030180060FFFFFFBFAA
:1010C000F8B5924C21680E00002300250A0001E0CB
:1010D00035003669002E07D08642F9D137698E4235
:1010E00001D13A0000E02F616D462B700373206838
:1010F000904215D06946100000F09CF920606846C7
:10110000007800280DD0EFF3108072B661794A1C88
:10111000A3799A4200D0491C617180F31088F1BD17
:101120002260F1BD3EB5002401940198344D69461A
:101130002800583000F04EFA280095300178002938
:1011400002D0047000F009F8012093490A680243B4
:101150000A6009680840019037BD18B5002000906A
:1011600000998E490871AC480268094B134003602E
:101170000A78531C4C78A34200D0521C0A700121FB
:10118000C2690A43C261C0690140009111BD0000FB
:10119000FFFFFFBFA148816801220A43826000214E
:1011A00001607047000070B504009D4D2800FFF7F6
:1011B00010FE06002800FFF70CFE8642F6D1002E36
:1011C000F4D0984932124A43F3B24B4319125118E2
:1011D00010314911E16026602800FFF7FCFD060090
:1011E0002800FFF7F8FD8642F6D1002EF4D0B011AA
:1011F0008D49484380300012A060666070BD0000D9
:1012000098050020F8B505000F00884C607A7D2114
:101210004843C90000F0EEFE461CF6B2844AA969B4
:101220001B20FEF759FF2070607800F02AF83D215E
:101230006854E078801900F024F838216854207947
:10124000801900F01EF839216854607900F019F80F
:101250003A216854A07900F014F83B216854002F1B
:1012600006D0E078801900F004F81B303C21685467
:10127000F1BD68214143090ADB225043000C0818E4
:10128000704700B50200464840690021002300F085
:101290000BFF0322002300F007FF8022D20400236B
:1012A00012184B41D20E58010243100000BD00003D
:1012B0003506000080B55E4AFEF70EFFBD49884244
:1012C00001DD080002E0102800DA10200005000E01
:1012D000B949086001BD0000FB05002010B5304C85
:1012E000207B002806D12078002801D0FFF752FF8C
:1012F00001202073FFF7D9FEA268002312184B418A
:101300002000403000F004F810BD0000240600204A
:10131000FEB500256C462570017B002901D0012017
:10132000FEBD0CC0083801210173A54C266801964A
:10133000070001E035003669002E08D00CCE083ECB
:1013400003CF083F8B42F5D301D88242F2D3380055
:101350000661002D01D1019000E0286101998142D0
:1013600014D1694600F066F82060684600780028CD
:101370000ED0EFF3108072B661794A1CA3799A42BD
:1013800000D0491C617180F3108801E000F018FA68
:1013900068460078FEBD0000441800602906002061
:1013A000980500207FB504000D00EFF3108672B69B
:1013B000206F616F02AA03C28248FFF7F9FC0300A5
:1013C0002B60814D02A803C8009001912A00E169B9
:1013D00080202058181AFEF77FFE0021009A019BFA
:1013E00080185941A26FE36F99420FD801D3904200
:1013F0000CD2009001912A00E1690020C043FEF761
:101400006BFE0021009A019B80185941A067E1679B
:1014100086F3108804B070BD3018006008100060BA
:1014200000100060F6BC080053070000C500002053
:1014300026030000F3B589B004460020087000E0E0
:101440002469002C00D19BE0207B0028F8D0EFF32A
:101450001080039072B600206946087202A9491CE8
:101460005A4800F0B7F8FFF720FE0CCC083C04AD5A
:101470000CC504AA0CCA121A8B4106A80CC0012282
:1014800006A803C8002970DB01DC01286DD3504B8E
:10149000986DD96D0090019104A803C898255E59F4
:1014A000002736184F4100980199B94212D801D34C
:1014B000B0420FD26120185C00280BD09E6DDF6D0A
:1014C00004A803C88F4207D301D8864204D39520CD
:1014D0001A5401E068460272384A9B6906A803C89C
:1014E0001900FEF7F9FD0600202E00D82026354D04
:1014F0002800FFF75DFC86190836EE622800FFF72A
:1015000059FC286B8021C90501432963C027FF05C9
:101510003800FFF720FC002829D13800FFF72AFC0B
:10152000002824D16846007A002820D000F03FF936
:1015300031000F2081432800FFF738FC00212800EC
:10154000FFF73EFC2800FFF722FC2800FFF732FCE3
:101550001F490800613042786123C95C114300D003
:10156000012141700021017001E00A980270039886
:1015700080F310880A980078002801D0099800E0CC
:1015800020000BB0F0BD10B511490C0090340028BC
:1015900008D0207800280BD108004030FFF79EFECD
:1015A000012004E008004030FFF78AFD0020207091
:1015B00010BD0000FF0F00000818006026030000A7
:1015C000240600200018006035060000F005002009
:1015D00098050020F3B589B0002008700998807A3A
:1015E000002800D1E1E09E4C200028300CC8606843
:1015F00000218018594106AA03C2EFF3108004901D
:1016000072B6FFF752FD02000B00099803C802AD45
:1016100003C502A803C80090019106A803C8C82604
:10162000B602002736184F4100980199B9420FD3EE
:1016300001D8B0420CD306A803C8B926760000270B
:1016400036184F419F4201D802D3964200D3A6E0FC
:1016500000200A32434102A803C800254C38A941A2
:101660008B4201D802D3824200D392E00998027AD9
:1016700002A803C805003C20205C0999097B0129C8
:1016800005D1002A01D0382106E0392104E0002AE2
:1016900001D03A2100E03B21615C0091019002A958
:1016A0002000FFF77FFE2D1A6E4AA1692800FEF781
:1016B00013FD03906C4E6D4F0198A16E4018C83019
:1016C000A84203981DD27178401A0099451A0298D1
:1016D00041193800FFF76AFB00213800FFF770FB63
:1016E000C020C005FFF736FBC020C005FFF73CFB5C
:1016F0003800FFF74CFB3800FFF75CFB009871786F
:1017000014E03D21615C401A0099451A0298411984
:10171000C020C005FFF737FB3800FFF73EFBC020B5
:10172000C005FFF710FB00983D21615C401802994D
:10173000039A8918220068321162317880220A43A4
:101740003270F021B174FF21F1742A18411D8A42D0
:101750000CD2C024E4052000FFF7FCFA2000FFF7BC
:1017600003FB3800FFF719FB012007E0404AE1695D
:10177000FEF7B2FC21006831087700200A99087052
:101780000020099988720120099A50720999C8723B
:1017900008E06221655401200A99087002E00120E6
:1017A0009C216054049880F310880BB0F0BD2E4843
:1017B00001784906490E017000218174C174704797
:1017C0001CB52C4C69462068FFF734FE2060684643
:1017D0000078012806D16079411CA279914200D09D
:1017E000401C607113BD38B50400204D2800FFF780
:1017F000D9FA002803D0686A2060032032BDC025D2
:10180000ED052800FFF7A7FA002805D02800FFF70C
:10181000BCFA2060012032BD2800FFF7ABFA002897
:1018200004D02800FFF7B1FA2060022032BD80B555
:10183000FFF793FC00F051FC01BD80B500F04EFCB9
:10184000FFF770FC01BD81B00020009000980A48AD
:10185000016801220A4302600068009001B07047ED
:101860009805002026030000C40000200018006036
:10187000350600002406002074000060F8B504005E
:10188000002700250126002C1ED02079002802D137
:10189000200000F01BFB02202071206801688022DC
:1018A0000A43026020680168802291430160206839
:1018B00041680D220A434260206841680D2291432D
:1018C0004160A760267100E001252800F2BDF8B54F
:1018D0000400206887684568012608210F420CD063
:1018E0000D420AD0A2683243A260426811434160AF
:1018F00020684168082291434160042007420ED0CD
:1019000005420CD0A16802220A43A26021684A68FD
:101910001043486020684168042291434160A068F8
:10192000002802D02000FEF71FFFF807C00FE907CC
:10193000C90F08420BD020684168314341602068DC
:101940004168B143416026712000FEF705FFF1BDFB
:1019500080B50020FFF77AF8FEF79AFF002801D043
:10196000FFF75DF8FEF7E0FEFEF719FF00F0B8FBA9
:101970000020FFF76CF8002002BD80B50020C043B6
:1019800000F0FAFB01BD704718B58FB000200021B0
:101990006A460B069B0DD05000BF491CCAB20A2AEA
:1019A000F6DB00F075FC002828D0FFF7E3FA04000E
:1019B000FEF706FF032C00DB0324A04200D9200021
:1019C00000281BD0022809D002D303280CD013E032
:1019D0000121012000F089FB01210AE00021012002
:1019E00000F083FB012104E00021012000F07DFBD9
:1019F0000021012000F08BFB00F09BFB10B010BD1C
:101A000081B00B4801688903FCD5816802220A4332
:101A10008260002102E000BF0099491C00910099FA
:101A20000629F8DB816804220A43826001B070470E
:101A300000004048F8B5040001D10120F2BD8E4DF0
:101A40002078C0062FD5A0680028A86807D10421F7
:101A50008843A860A86802218843A86006E00221A4
:101A60000143A960A86804210143A960A068042873
:101A70000DD100F01DFC060028684105C90F12D0E9
:101A800000F016FC801B6528F6D30320F2BD00F0A1
:101A90000FFC06002868400505D400F009FC801BF7
:101AA0006528F7D3F1E72078C00738D57348016877
:101AB000734A0A4080218901114301600168802234
:101AC0000A43026001687022914330220A43026097
:101AD0006068802149028842286801D1014301E001
:101AE000AC4901402960606800280BD000F0E0FBA1
:101AF00006002868800312D400F0DAFB801B6528FA
:101B0000F7D3C2E700F0D4FB060028688103C90FB1
:101B100005D000F0CDFB801B6528F6D3B5E7042780
:101B2000FF432078400733D520690028286820D05B
:101B30003840286028680107C90FFBD128681021A8
:101B400088432860A86896490140802040020843E5
:101B5000A860286804210143296000F0A9FB060061
:101B60002868000714D400F0A3FB801B0328F7D3D8
:101B70008BE73840286000F09BFB060028680107CF
:101B8000C90F05D000F094FB801B0328F6D37CE737
:101B90002078800746D5286807402F601020C04372
:101BA00029680140296029688A06D20FFBD17D4946
:101BB0007D4A13680B401360536819405160A9684F
:101BC000774A0A40802109021143A960E96860222E
:101BD000914320220A43EA60E168102903D1286872
:101BE0000143296002E0296808402860E068002875
:101BF0000BD000F05DFB06002868800612D400F0D0
:101C000057FB801B6528F7D33FE700F051FB060028
:101C100028688106C90F05D000F04AFB801B6528A3
:101C2000F6D332E72078000724D5402660694028A3
:101C3000286801D1304300E0B04328606069002883
:101C40000BD000F035FB04002868304012D100F0C2
:101C50002FFB001B6528F7D317E700F029FB0400D2
:101C600028684106C90F05D000F022FB001B65283B
:101C7000F6D30AE70020F2BD000040489800404833
:101C8000FFC0FFFFFEB5040051D000914748006837
:101C9000302188430099014344480160444D206845
:101CA000022814D1A86804218843A860A8680221EA
:101CB0008843A8602868400539D528683D49014017
:101CC0002960A868E021884361680143A960E02099
:101CD000C04301908027FF00206800281CD128689D
:101CE000384024D02868800321D52868F9000143B2
:101CF000296000F0DDFA06002868400406D400F0F0
:101D0000D7FA801B0228F7D90320FEBDA8680199E5
:101D1000014060680843A860206801280FD1FFF7E0
:101D20006FFE2868074002D12868800301D4012093
:101D3000FEBDA8680199014060680843A86030278B
:101D40001A4C009821683940884212D02068B84364
:101D500000990143216000F0ABFA009D0600206865
:101D60003840A84205D000F0A3FA801B0228F6D91B
:101D7000CAE7002002E000BF0098401C00900098D5
:101D80000628F8DB00F026FBFEF75BFE00F050F8BB
:101D9000FEBD0000FFFFFEFF07480068704700001F
:101DA000FF7FFEFFFFCFFFFF2800504804100040D8
:101DB00000004048FFDFFFFF940000201749027831
:101DC000D20705D58A6D06239A43036913438B65B1
:101DD0000278920705D50A68114B134042691A43ED
:101DE0000A600278520705D50A680E4B1340426814
:101DF0001A430A600278120705D50A680A4B134095
:101E000082681A430A60C068820604D50A68074BD4
:101E10001340184308600020704700000800404845
:101E2000FFEFFFFFFFFF7FFFFFFFBFFFFF7FFEFF13
:101E3000F8B506000024104D2878002819D0FFF7C7
:101E4000ABFF0700FA208000297800F0D6F80100E7
:101E5000380000F0D2F800F020FB002809D1042E51
:101E600007D2002231000020C04300F008FBAE6022
:101E700000E001242000F2BD8800002081B03B4931
:101E80000A6802430A60096808400090009801B09F
:101E9000704780B50F21002000F01CFBF0210901E4
:101EA000002000F031FB3249012000F02DFB3149C8
:101EB000012000F00FFB802040002F490A680243F8
:101EC0000A60096808400090009801BD00682B492D
:101ED000884200D0704780B580204002FFF7CEFFD7
:101EE000002201210D2000F0CAFA0D2000F0CCFAEA
:101EF00001BD18B587B00400182101A8FEF7C0FC89
:101F00002068C021C90588422DD1012401940420F4
:101F1000059001A8FFF752FF002801D0FEF77FFDD2
:101F20001748016A21400CD1016821430160016812
:101F3000A1430160016A21430162006A04400094E8
:101F40000098FEF785FD00220021122000F097FA8C
:101F5000122000F099FA00220021192000F08FFAD7
:101F6000192000F091FA08B010BD00005000404860
:101F7000C930000036C0000054004048000030481E
:101F8000400040487047FEE70C480078002800D128
:101F9000704710B50A48026801210A400CD0094A6E
:101FA000536CDB06136803D502241C43146002E063
:101FB0000224A3431360016010BD000050070020FD
:101FC0003C00004054160060F446002804D4494206
:101FD00000F013F8404260474042002905D45FD02A
:101FE00000F00BF8404249426047494200F005F8D2
:101FF0004942604703460B43E6D40022030A8B4262
:102000000BD203098B4219D243088B422ED2411ABC
:1020100000D20146524110467047FF2209023FD0CC
:1020200012068B4205D3121209028B4201D31212FF
:10203000090203098B4219D300E0090AC3098B4244
:1020400001D3CB01C01A524183098B4201D38B01CA
:10205000C01A524143098B4201D34B01C01A52416D
:1020600003098B4201D30B01C01A5241C3088B42B2
:1020700001D3CB00C01A524183088B4201D38B009D
:10208000C01A524143088B4201D34B00C01A52413F
:10209000884200D3401A5241CFD2014610467047C1
:1020A00008B500F04DFA08BD30B4434351435D1804
:1020B000010C0C00130C5C432D1980B2434392B207
:1020C00051430024C918644124040B04090C091964
:1020D0005043C018694130BC704770477047FEE7F5
:1020E0002348002101604160704710B5EFF3108272
:1020F00072B61F4B1C68002904D0012903D120436C
:10210000040000E084431C6082F3108810BD10B509
:10211000EFF3108272B6164B5C68002904D00129D7
:1021200003D12043040000E084435C6082F3108804
:1021300010BD38B5EFF3108472B60E4D0C4801682F
:10214000002904D028688047686880470BE0406811
:10215000002804D0A8688047E868804703E0286921
:1021600080476869804784F3108831BD0000000013
:10217000B0000020C0000410BCB5334CA169009130
:102180000840A06135E0521CD300E51803000B4065
:102190002F681F40F7D02A68104001406868084047
:1021A00002D10020C04368606868084000F050F821
:1021B00001006A680120884082436A606162EFF32F
:1021C000108172B6626A01209040C24320691040BB
:1021D00020610220C300E318083B1D6815401D6004
:1021E000401EF7D181F310881848616A8900405871
:1021F00080472369E2696069256AA16903400B4051
:1022000003D0154001D10022BEE70020C043606228
:10221000206A104014D1FFF7B6FBEFF3108572B6B9
:102220002169E06962690A40A169114004D1216A0B
:10223000014001D1FFF7A8FB85F3108800F081F978
:102240000098A061B3BD00006000002038060020A7
:102250000021020C120401D110210004020E12060A
:1022600001D108310002020F120701D1091D00013E
:102270001F22511A02A2000F105C081AC0B2704748
:10228000040302020101010100000000000000003F
:1022900080B500F057F9002804D104480068C07ADE
:1022A000002801D0002080BD032080BDA4000020B4
:1022B00001484068704700BF8800002038B54D498C
:1022C0004D4C4E4A01204E4B1B68002B10D1CB6861
:1022D000002B02D14B6B002B0AD09060FDF738FF2A
:1022E000BFF34F8F47486060BFF34F8F00BFFDE7DC
:1022F000454B23602368136120220B6813430B6056
:102300000B6840241C430C600B6880241C430C6049
:102310000B695B07FCD58B693024A34313438B61A6
:102320008B693A4C1C408C618B6904021C438C61A4
:1023300037490968374B99422AD037490B681E2420
:10234000A34310241C430C600B68184308603348F7
:102350000368334C1C40F0235B0523430360036890
:1023600094041C43046008682E4B0340100118437A
:102370000860086802430A6008682B4A0240C020CF
:1023800040011043086008688022D20002430A60BE
:1023900000235CB2E10018250D40FF22AA40D14382
:1023A000C022AA40250004D4204CAD08AD00641919
:1023B00006E01F4D2407240F083CA408A4002C1994
:1023C000256829400A4322605B1CD9B22029E0DB42
:1023D00062B631BD1748016800680006400F8907E2
:1023E00002D51549401E00E01449C140144801605F
:1023F000704700000400504808ED00E00400002091
:10240000940040480400FA0500000410FFFBFFFFA1
:10241000F81E0010CCECBCFC940050480C00404866
:10242000FFFFFFC03FFCFFFFFFC7FFFF00E400E02E
:102430001CED00E0080040480048E8010090D0038F
:102440009400002010B5C20018231340FF249C40C4
:10245000E2438907090E9940030004D419489B08F8
:102460009B00C01806E0184B0007000F08388008D2
:102470008000181803681A401143016010BD80B530
:10248000FFF7E0FF01BD0000010005D40121C006F7
:10249000C00E81400D480160704710B5401E80217C
:1024A0004904884201D3012010BD094C606003211A
:1024B0000020C043FFF7C6FF0020A0600721216075
:1024C00010BD000000E400E01CED00E000E100E0D1
:1024D00010E000E010B502000020CB43174C002AAA
:1024E00002D0012A07D00DE0226811432160616803
:1024F0000B40636010BDA2681143A160E1680B400E
:10250000E36010BD012010BD10B502000020CB43D8
:102510000A4C002A02D0012A07D00DE0626811435C
:10252000616021680B40236010BDE2681143E160E7
:10253000A1680B40A36010BD012010BD20005048D1
:102540007047704703480068016800690843411EEE
:10255000884170473000002001488047014800470B
:10256000BD220410592A041081B0BB4801688903B8
:10257000FCD5816802220A438260002102E000BF8C
:102580000099491C009100990629F8DB8168042212
:102590000A43826001B07047B0480168890703D5DB
:1025A00001684807C00F70470020704738B5FFF733
:1025B0007FFE8A49496881420FD1894C2568FFF71F
:1025C000EBFBA749FFF719FDC721C943484328186A
:1025D0006168884201D2012032BD002032BDFEB5C3
:1025E000032000F05FF900267C4C2680A6700125B0
:1025F000FFF7D2FF002800D02570974F3868C0063B
:1026000008D5012060700103FFF77EFF69030120F8
:10261000FFF77AFF38680427384000D0A570032000
:1026200000F041F98F48B0214550C621890061185A
:102630000191B921890061180091C42149006318F2
:10264000091F621821000831FDF79AFD029602A8C1
:1026500000F074F984488549016185498163016806
:10266000A9430160834801680F430760052000F01B
:1026700019F9FFF79BFF002801D1FDF74FFDF7BDCA
:102680007CB5564D7C4EB068002802D0FFF710FE96
:102690006860714C687801280BD1784878490A68DD
:1026A00002400A604A6810404860206810210143D7
:1026B0002160A878012803D120680421014321600A
:1026C0006C480168042291430160C62080002818EC
:1026D0000190B920800028180090C42040002B18D9
:1026E000001F2A18290008315E48FDF769FE052001
:1026F00000F0D9F8042000F0D5F820688003FCD55C
:102700002878012805D1FFF72FFF20685D49014097
:1027100021606878012802D120688006FCD5A8785D
:10272000012802D120680007FCD5206EC00703D520
:10273000554800680F28FBD0B068002801D000F091
:1027400045F9042000F0AFF873BD3EB5002000F05D
:10275000A9F80020214C2080A0700125FFF71CFF64
:10276000002800D025700021C020800100F0BEF8B4
:10277000002000F098F83B48B0214550C621890060
:1027800061180191B921890061180091C4214900A3
:102790006318091F621821000831FDF7F1FC324C63
:1027A000324820613248A063029502A800F0C6F8C2
:1027B0002068A84320602F48016804220A43026071
:1027C000FFF7F4FE002807D1022000F06BF8FDF7B8
:1027D000A5FC022000F067F837BD00007C01002056
:1027E00014E000E07CB5294D234CA068002802D0FD
:1027F000FFF75EFD68601F48016804229143016095
:10280000C620800028180190B92080002818009068
:10281000C42040002B18001F2A1829000831114835
:10282000FDF7CEFD012000F03DF80B4E306880032F
:10283000FCD52878012805D1FFF796FE30681149AC
:1028400001403160A068002801D000F0BFF80120ED
:1028500000F029F873BD000000004048080040481F
:1028600040420F00E404002000005048FFBF000079
:10287000FFFF000010ED00E004000020FFCFFFFF8D
:1028800028005048FFDFFFFF101800607C01002087
:1028900080B500F0A3F800F04AF801BD80B500F063
:1028A000A5F801BD704770474148816804229143F3
:1028B000816001684905FCD58168022291438160ED
:1028C00070473C480168890703D501684807C00F75
:1028D00070470020704781B037490A6802430A6098
:1028E000096808400090009801B07047020C80B25F
:1028F000324B0129596804D101435960D96A114307
:1029000003E081435960D96A9143D9621968084349
:102910001860986A02439A6270472949086882B22F
:10292000886A000410430A60020C8A6270472548D6
:10293000016804229143016030BF704770B5040004
:1029400000261B4D2068002807D1286810218843E5
:1029500028602868042188432860296E01200140EE
:1029600002D10126FFF7B7FF17480168890007D495
:102970008168490004D40168802212060A4302607B
:10298000002E03D0286E012188432866FFF799FFA7
:10299000002801D0FFF788FF2068002805D12868AB
:1029A0008006FCD428680007F9D4002070BD000020
:1029B0000000404808004048600040480800504877
:1029C0001000504810ED00E02818006080B5FFF7B7
:1029D000A4FF002801D000F011F801BD02480168F1
:1029E000022291430160704710E000E00248016854
:1029F00002220A430260704710E000E07047FEE7E1
:102A000002484168027889184160704788000020B8
:102A10007047FEE77047704780B5FFF7F1FF01BDD3
:102A200080B50248FEF753FF01BD0000980000206A
:102A300080B5FEF7FCFE01BD80B5FEF7FEFE01BDD0
:102A400080B5FEF700FF01BD80B5FEF745F901BD79
:102A500080B5FEF76BF901BD0548014603B4684631
:102A600080F3098800BF00BF00BF00BF00F002F87C
:102A7000A5EDF5FE00F00DF8002801D000F00CF8EF
:102A800000BF00BF002000BF00BFFDF72DFF00F01A
:102A900017F801207047FEE710B50749794418314F
:102AA000064C7C44163404E0081D0A6889188847DF
:102AB0000100A142F8D110BDB8000000F4000000F0
:102AC00080B500F001F801BD0746384600F002F875
:102AD000FBE7FEE780B500BF00BF024A11001820E7
:102AE000ABBEFBE726000200FEE7FEE7FEE7FEE7DF
:102AF000FEE7FEE7FEE770B40123002413E001685F
:102B0000001D194202D04D466918491E0C60091D6E
:102B1000121F042AFAD20D00960701D50C80AD1CB5
:102B20001A4000D02C700268001D002AE7D170BC4A
:102B3000704730B501684118446862088A18836894
:102B4000E40704D54C461B1901E0641C09D19142ED
:102B500003D00C7864B2491C01E00C3030BD0D7814
:102B6000491C1D705B1C002CEFD4641EF7D5EEE7EA
:102B700087FFFFFF0400000030000020200000005D
:102B800098000020D80500007C0100200000000013
:102B9000A3FFFFFF1C00000008000000C000002091
:102BA00093FFFFFF10000000280000005C000020E1
:102BB0008100C3000002E900F8FFF4000001F90001
:082BC0000004FC000224F400F3
:0400000510042A5960
:00000001FF
