:020000041004E6
:100000000060002019360610713A0610733A061087
:1000100000000000000000000000000000000000E0
:10002000000000000000000000000000753A06100B
:100030000000000000000000773A0610793A061030
:1000400067280410872D041097370410AB3A04106A
:10005000000000000000000000000000B73B04109A
:10006000813A0610C34404102B4704102750041093
:10007000835704108B3A061000000000CD3A06109A
:10008000DB3A0610953A0610B53A0610000000005B
:10009000AD3A061000000000C53A0610A53A061059
:1000A000135A0410BD3A0610835A041083600410DA
:1000B0000000000000000000000000000000000040
:1000C000F0190020063300003C00030300002A0062
:1000D000A0000000FFFFFFFF64000208020102030E
:1000E000A000010000010102020101000001000363
:1000F000000400001D040000CD330510010C0000B9
:1001000007340510630C0000313405107C0C00002E
:100110006534051001100000BD3405100514000001
:100120003735051003200000973505100F2000001B
:10013000E1350510142000001D36051016200000C2
:100140004D3605101D200000853605101E200000CC
:10015000B73605101F200000ED36051022200000E4
:1001600035370510242000009337051025200000A6
:10017000D93705102F2000000D3805103F20000052
:100180007D38051040200000B738051044200000DD
:10019000FD380510452000005739051046200000A5
:1001A0008739051047200000C3390510482000009A
:1001B000F9390510492000002F3A05104A200000A7
:1001C0005F3A05104D200000A33A051059200000A9
:1001D000EB3A05105A200000293B05105B20000077
:1001E0008F3B05105C200000E53B05105D20000002
:1001F000493C051088200000933C051001FC0000DC
:10020000CD3C051002FC0000913D05100CFC0000E7
:100210005F3E05100DFC00009B3E05100FFC00002A
:100220001D3F051014FC00005D3F051015FC00008B
:10023000A13F051016FC0000D73F051017FC000079
:100240000940051018FC00006D40051035FC000049
:10025000AB40051036FC0000EF40051037FC0000F5
:100260007741051081FC0000B141051085FC0000BC
:10027000E741051086FC00001B42051088FC0000C9
:10028000654205108AFC0000A74205108DFC0000A5
:100290001143051090FC00005343051092FC000030
:1002A000AB43051093FC0000DD43051094FC0000F7
:1002B0001D44051096FC00004F4405109CFC0000F6
:1002C0008F4405109DFC0000C74405109EFC0000F3
:1002D000FB440510A0FC00008F450510A3FC0000A6
:1002E000E1450510A4FC000089460510A5FC0000AE
:1002F000BF460510A6FC0000FF460510A7FC000045
:100300003F470510A8FC0000D3470510AAFC0000D9
:1003100011480510ABFC000047480510ACFC00007C
:10032000CD480510ADFC00005F490510AEFC000093
:100330009B490510AFFC0000D7490510B0FC000038
:100340002B4A0510B1FC0000AF4A0510B2FC0000BA
:10035000F94A0510B3FC0000314B0510B4FC000055
:10036000AF4B0510BAFC0000E34B0510BBFC0000CE
:10037000174C0510CBFC0000494C0510CCFC0000CC
:10038000DB4C051001FD00006D4D051002FD000065
:10039000B34D051003FD0000594E051004FD00008B
:1003A000B54E051005FD0000954F051006FD000037
:1003B000AD50051007FD00000D51051008FD0000AF
:1003C0004B51051009FD0000895105100AFD000080
:1003D000C75105100BFD0000FD51051010FD000078
:1003E0003B52051011FD0000AF52051012FD000038
:1003F000F952051013FD00003B53051014FD0000D9
:10040000BD53051015FD00001354051016FD000026
:100410007154051017FD00000F55051018FD000060
:100420006555051019FD0000B95505101AFD0000AD
:10043000575605101BFD0000AD5605101CFD0000B1
:10044000175705101DFD0000875705101EFD000001
:100450000358051023FD00007758051024FD000007
:10046000DF58051025FD00003F59051028FD00004C
:10047000875905102AFD0000C75905102EFD000000
:10048000975A05102FFD0000D75A051031FD0000C6
:100490004B5B051033FD0000955B051035FD00003A
:1004A0001F5C051036FD0000F35C051037FD0000F1
:1004B000535D051038FD0000055E051039FD000094
:1004C000C35E05103AFD00002D5F051081FD0000A0
:1004D000775F051082FD0000E15F051000FE00005F
:1004E0007D60051001FE0000DB60051002FE0000CB
:1004F0002B61051003FE00007561051004FE00006D
:10050000A9610510000000000000000005000000C7
:10051000D1B806100000000000000000000000003C
:100520000000000010000000E9B80610010C0000F7
:1005300021B906100F0C000059B90610100C00006C
:1005400091B90610160C000003B90610190C000032
:10055000B3B906101A0C0000E5B906101B0C000018
:1005600021BA06100000000000000000000000009A
:1005700002000000DC19002000000000080000005C
:10058000FC0100200000000001000000E203002048
:100590000100000001000000E4190020000000003C
:1005A00001000000E519002000000000020000002A
:1005B000E00300200000FFFF000000000400000036
:1005C000B40504100000000002000000DE19002045
:1005D000000000000100000052780410010000003B
:1005E00001000000E619002020000000FB349B5FA2
:1005F0008000008000100000052A000010000000AC
:100600000100000044030020B80504100A000000A7
:10061000FB349B5F8000008000100000292B00004D
:10062000100000000000000000000000C4050410DD
:1006300002000000FB349B5F80000080001000007F
:100640002A2B000010000000000000000000000045
:100650000000000002000000FB349B5F800000806F
:10066000001000003A2B0000100000000000000005
:1006700000000000D005041096C298D84539A1F4B6
:10068000A033EB2D817D0377F240A463E5E6BCF84F
:1006900047422CE1F2D1176BF551BF376840B6CB1A
:1006A000CE5E316B5733CE2B169E0F7C4AEBE78E16
:1006B0009B7F1AFEE242E34F00F0061000080000A4
:1006C000AA02000000F80610F80701000000000070
:1006D00096C298D84539A1F4A033EB2D817D0377DC
:1006E000F240A463E5E6BCF847422CE1F2D1176B77
:1006F000F551BF376840B6CBCE5E316B5733CE2B4A
:10070000169E0F7C4AEBE78E9B7F1AFEE242E34F78
:10071000F938061005390610C93706105138061089
:1007200059360610FF360610FB349B5F80000080B0
:1007300000100000292B000010000000FB349B5F1C
:100740008000008000100000052A0000100000005A
:10075000020000000300000003000000060000008B
:1007600003000000030000003C00000070000000D7
:1007700070000000D003000070000000C301000002
:100780000000000047C50610655B06100000000071
:100790004BC506101BC506103D5C061047C506106C
:1007A000055C0610000000004BC506101BC50610B6
:1007B000D93B0610CB6504106769041067700410FC
:1007C000E76A0410E914041041150410AF1804106E
:1007D000B7180410BF180410C7180410CF1804105D
:1007E00041420610771804105F1804107F18041097
:1007F000937604106B6504103D160410491704101D
:100800002D160410F9B5061035160410030000006B
:100810004FC70610290000008BC706103F000000DC
:1008200071C7061031400610AFBC06100BBB061096
:10083000AFBE0610C1C00610C1C00610D7C1061059
:10084000AFBE0610B1C30610B1C30610B1C3061087
:10085000B3BD0610C5BA061089BA0610D7C1061076
:100860000000000041CE06103D8F061011CE06108C
:1008700059CE0610D18D06104915041051150410DB
:10088000D3C70610DBC70610D7C7061079150410AA
:10089000811504108915041091150410B915041060
:1008A000A1150410A9150410B11504109915041010
:1008B00069C70610C1150410C9150410D11504101C
:1008C0006DC70610DFC7061021C80610ED7B0610A5
:1008D000000000002FC80610CD7A0610398D0610D2
:1008E00013CD061001820610B7CC06108BCD061072
:1008F00059C80610E1CF0610EBCF0610A1960610DE
:100900001997061007D00610FFCE06100000000051
:1009100057D10610A19A061000000000F5B205108C
:100920001BD00610000000007BD20610D9A20610D2
:100930007BD1061000000000000000000000000055
:10094000C3D20610A1D20610ABD20610CDD206102B
:1009500063D106100000000051D306102FD30610FB
:1009600039D306105BD306106FD1061080B500F0A6
:10097000FFF901BDF0B587B0050000206C4660713D
:100980001224FE2D05D10DA80078002801D01220D8
:1009900026E10C9F684602720E000492069339000D
:1009A0004AD1FE2D4BD0F02D23DA042E21DC01A8F4
:1009B000801C009001AB02AAD21C02A9491C28008D
:1009C00000F0A0FA002800D0CDE06846C0881421CD
:1009D000014014290DD06846C0882040022808D064
:1009E0006846C088C00605D5032E02D10498202889
:1009F0000EDBF4E0032E05D100243900280000F0BE
:100A000027FA85E0042E03D06846007A0028F0D04B
:100A10006846407A00286DD0032EEDD0042E3CD1DC
:100A20000DA8007801900097069B6846027A042181
:100A3000280000F0E7F8D3E0012F39D1FE2D2ED0A9
:100A4000042E1DDA03A8009001AB01AA921C02A992
:100A5000491C280000F056FA002837D168468089E2
:100A6000800703D46846007A002809D16846808947
:100A70002040122805D1032E02D10498202806DB3D
:100A8000ADE0032EB8D06846007A0028F8D068465A
:100A9000407A00282ED0032EAED00C249FE00120F7
:100AA00069464872032EF9D104982028A4DB96E009
:100AB000042EFCDC01A8801C009002AB9B1C01AA48
:100AC00002A9491C280000F01DFA00284BD16846F5
:100AD00000790028E1D00498FD28E8DA032E8BD0B5
:100AE000042E9DD06846807A0028D6D16846007AC8
:100AF000002874D00024300007D0022E05D001D386
:100B0000042E8DD000D278E702E0012069464871BA
:100B1000009703AB9B1C68464279017A280000F0DD
:100B200052F90590002803D16846007A002806D1C2
:100B30006846C089049941182B4A914215DB0DA8DB
:100B4000007801900097002300220321280000F084
:100B500059F83900280000F0BCF93900280000F0ED
:100B600077F907203CE0422439E069460A7A069981
:100B7000059B181800F022FA6846C0896946097A70
:100B80004218022E12D0032E10D0012E27D10DA80C
:100B9000007801900097002300220321280000F034
:100BA00031F83900280000F094F918E00DA8007819
:100BB00001900097059B92B20321280000F022F8D3
:100BC000040008D13900280000F083F9390028001A
:100BD00000F074F903E03900280000F039F9200032
:100BE00007B0F0BD00000000B50300001CB50024F4
:100BF000019402246DE080B5814201D000F034F907
:100C0000012002BDF8B51500069A079E170010D105
:100C1000002E03D02A0000F0DEF9E6BDFE2804D144
:100C20001900E8B200F0EAF9E6BD2A0000F00EFA79
:100C3000E6BD012A12D1002E04D01A00290000F0CE
:100C400075FAE6BDFE2804D11900E8B200F072FA88
:100C5000E6BD1A00290000F093FAE6BD2A0000F074
:100C6000DFFAE6BD80B502000800D10706D50221F3
:100C700000F09DF8012801D10C2002BD002002BD2A
:100C8000F8B5012817D100240F00160000E0641CFD
:100C9000BC4210DA0620604335180021287800F0A5
:100CA00086F8012805D00121287800F080F8012875
:100CB000EDD10C20F2BD0020F2BD80B5FFF7E0FFC2
:100CC00002BD1CB501240194002402E01CB50124DE
:100CD00001940094FFF74EFE16BDB8B5BFB01400E6
:100CE00001D0F22C01D312201AE01F000D00019058
:100CF000F42102A800F098FA220002A9380000F0BE
:100D00009BFA4598009002AB22002900019800F060
:100D10009CFA010001D1093400E0002444990C70D0
:100D200040B0B0BDF0B5BFB01400FF2A01D1122011
:100D30001CE01D000E000700F82101A800F074FA65
:100D400001A800902B0022003100380000F088FA42
:100D50000500449807D14599F7340470E2B201A820
:100D600000F06AFA01E00021017028003FB0F0BDF8
:100D70000020FF21504A28234343D21811701175D7
:100D8000401C0328F6DB704710B503290DDA00225A
:100D9000494B2824614359180B78834201D18818A4
:100DA00010BD14220B7D8342F9D0002010BD80B508
:100DB000FFF7EAFF002802D0C068002801D1002018
:100DC00002BD012002BDFEB506000F0000241C80FC
:100DD00008A801783000FFF7D7FF05000BD108A85D
:100DE0000178FF20FFF7D0FF05001BD02E706C604C
:100DF000AC60EC602C826846007900280FD16868EE
:100E000000280FD1E868002801D000F0B5FA3800BA
:100E10001AD000F08BFA002817D03C0015E0E868E3
:100E2000002801D10020FEBD298AC91989B200F02D
:100E3000AFFA002805D0298A029A1180298ACC1994
:100E400003E0E86800F098FA00202C82E860FEBD1C
:100E500010B5FFF799FF040005D0E06800F08CFAA8
:100E60000020E060208210BD002800D1704738B516
:100E70000025002200231049282454430919142472
:100E80005C430C196168814206D0A168814207D099
:100E90005B1C012BEFDD0AE000F06EFA656031BDEE
:100EA000080000F069FAA560FF20207031BD521CD7
:100EB000022ADFDD31BD0000D016002080B5FFF72B
:100EC00063FF002804D0C16881600021C1600182F5
:100ED00001BD80B5FFF758FF002803D0816841604D
:100EE0000021816001BD01002000090001002600F1
:100EF0000F0001002900050001002F001000010073
:100F000049001000F0B585B00193009203910746A7
:100F100000F088FA4D21415C4722920051438B1822
:100F200000250A990291AC18A34220D006687519D1
:100F3000AA21695AB9422546F5D1301901466239CC
:100F40000978039A1170014678390988029A11804C
:100F50000C49401804A900F06DFA002809D00120BE
:100F6000009908700498007A411E884104E04220EC
:100F700005E000200099087001990870002005B074
:100F8000F0BDC046E4FEFFFF70B4103A03D378C949
:100F9000103A78C0FBD2530701D318C918C001D545
:100FA00008C908C0D20704D30B880380891C801CA1
:100FB000002A01D50B78037070BC70478B0701D1F4
:100FC0008307E1D0124205D00B78491C0370401C06
:100FD000521EF9D1704780B500F063FA80BD8300DE
:100FE0008500070007008300850005000700030057
:100FF00003000F000500820081000500F8B50C46D3
:10100000054600F00FFA074600F030FE0D4E304660
:1010100000F04AFE0C4988420AD100F061FEFF2828
:101020000DD047218900414338684018AA21465213
:10103000032130462A46234600F008F8F8BD012077
:10104000F8BDC046FCFF0000FFFF0000FEB50293A4
:1010500014460F46054600F0E5F90646314885423C
:1010600001D11F2007E00120022100F05DFE0028D1
:1010700000D0FEBD2C481221A04201D20846FEBD80
:101080000191284600F010FE472189004143306855
:1010900046182046314600F06FFB0028E9D1BA20FF
:1010A000315C3820305C042F12D1002937D0002861
:1010B000019A20D01B4885421DD1F08D00281AD0FE
:1010C000A420305A1021014021431046D1D10CE018
:1010D00035463835002910D0032F06D1022028705C
:1010E000F4860020B08602983063A236304600F0C5
:1010F00029FE0020FEBD1046FEBD374628370028D9
:10110000029A05D03968A120029A00F02BFE029ABB
:101110003A6001202870F4850020B085FEBD01985A
:10112000FEBDC046FCFF00007206000080B500F066
:10113000B4F980BDF8B50C46054600F073F90746D2
:1011400000F094FD0C4E304600F0AEFD0B49884295
:101150000AD100F0C5FDFF280CD04721890041438A
:1011600038684018AA21465230462946224600F0E7
:1011700007F8F8BD0120F8BDFCFF0000FFFF0000EC
:10118000F8B514460D46074600F04CF906462248CD
:10119000874201D11F2007E00120022100F0C4FD99
:1011A000002800D0F8BD1D48A84201D21220F8BD89
:1011B000384600F079FD47218900414330684618E0
:1011C0002846314600F0D8FA0028EBD1BA20305C2E
:1011D000002809D04C20022131544A2035524821A0
:1011E000002070527464F8BD4C20305C32464C32A2
:1011F00037463C37002806D03968A12000922246A5
:1012000000F0B0FD009A422035524021002070527B
:101210003C6001211170F8BDFCFF00007206000067
:1012200080B500F017FA80BD002200BF094202D04D
:10123000491E4254FCD17047002A05D003780B7038
:10124000521E491C401CF7E770471CB554087A2C05
:1012500001D912201CBD049C009400F0BDFD1CBDF2
:101260001CB5FF2A04D0049C009400F0FBFD1CBDBB
:1012700012201CBD6A4A5160116008801081002054
:1012800048804860704766490A68904203D14068C8
:10129000086070470A00002A04D051688142F9D1E1
:1012A00040685060704770B55D490A68002825D0D5
:1012B000002A01D1020021E0904202D242600200E5
:1012C00012E0140000E02C006568002D01D0A84257
:1012D000F9D24560606025886619864204D1466867
:1012E00066600688AD192580456804880319AB42FD
:1012F00004D16B6843602B88E31803800A6070BDDB
:1013000010B502000C001088011B8BB20D2B0CD302
:101310002000083880088000101808300180002163
:1013200041804160FFF7BFFF200010BD38B50025A8
:101330003B490968401E03240443641DA4B209E02C
:101340000888A04205DB002D02D02A88904200D2F6
:101350000D0049680029F3D1002D0BD02800FFF7BC
:1013600092FF21002800FFF7CBFF28800120688032
:10137000281D32BD002032BD002800D1704780B545
:101380000021831E19800160001FFFF78CFF01BD43
:10139000F8B504000E00701E03210143491D271FEC
:1013A00038888BB2984204D389B23800FFF7A8FF7F
:1013B0001FE0091A6A461180001F80088000251866
:1013C00017484168008980000818854214D268884F
:1013D000002811D128886946098888420CD3280042
:1013E000FFF751FF684601882800FFF789FF398819
:1013F000081838802000F2BD3000FFF797FF050085
:101400000BD03A88121F92B2964200DA32002100C5
:1014100000F056FD2000FFF7AFFF2800F2BD0000EE
:101420008419002002480068902140587047C04647
:10143000C819002010B50C4600F099FD002804D012
:101440002068C06F411E884110BD002010BD30B51E
:101450008BB018AC24780A9417AC2478099416AC95
:101460002478089415AC2478079414AC2478069456
:101470006D464C242C57059412AC24780494119C8E
:10148000039410AC247802940FAC247801940E9C41
:10149000009400F079FD0BB030BD80B500F012FE75
:1014A00002BD80B500F032FE02BD80B500F052FEF4
:1014B00002BD1CB56C46247C009400F0D1FE16BD24
:1014C00080B500F019FF02BD80B500F04BFF02BDF2
:1014D00080B500F05FFF02BD80B500F0B3FF02BD34
:1014E00080B500F0E9FF02BD80B501F007F801BD4D
:1014F00080B501F029F801BD80B501F049F802BDC1
:1015000080B501F059F802BD80B501F0E1F801BDE8
:1015100080B501F003F901BD80B501F027F901BDE7
:1015200080B501F02AF901BD80B501F027F902BDAF
:1015300080B501F041F902BD80B501F069F902BD45
:1015400080B501F08BF901BD80B501F08DF902BDC8
:1015500080B501F0B1F902BD80B501F0DBF902BD43
:1015600080B501F0D9F902BD80B501F0D7F902BD0F
:1015700080B501F0D5F902BD80B501F0EDF902BDED
:1015800080B501F01BFA02BD80B501F033FA02BD4F
:1015900080B501F04BFA02BD80B501F087FA02BDBB
:1015A00080B501F0C9FA02BD80B501F0F5FA02BDBF
:1015B00080B501F00FFB02BD80B501F027FB02BD35
:1015C00080B501F041FB02BD80B501F05BFB02BDBF
:1015D00080B501F06DFB02BD80B501F085FB02BD59
:1015E00080B501F0BBFB02BD80B501F0B9FB02BDC7
:1015F00080B501F0B7FB02BD80B501F0C5FB01BDB0
:1016000080B501F0DFFB01BD80B501F01BFC02BD20
:101610001CB56C46247D01946C46247C009401F03A
:1016200067FC13BD80B501F013FD02BD80B501F06C
:1016300017FD01BD80B501F02FFD01BD80B501F0A2
:1016400047FD01BD80B501F099FD01BD80B501F0F8
:10165000BDFD01BD80B501F0CDFD02BD80B501F03D
:101660005BFE02BD80B501F0D1FF02BD80B502F086
:101670000FF801BD80B502F05DF802BD80B502F043
:101680005BF801BD80B502F073F801BD1CB5049C88
:10169000009402F081F816BD80B502F041F901BD59
:1016A00080B502F003FA01BD80B502F007FA01BD72
:1016B00080B502F01FFA01BD80B502F053FA02BDF9
:1016C00080B502F079FA01BD80B502F051FC01BD90
:1016D0001CB5059C01946C46247C009402F096FC99
:1016E00013BD80B502F070FD01BD80B502F0B2FD02
:1016F00001BD80B502F010FE01BD80B502F080FE94
:1017000001BD80B502F0C0FE01BD80B502F0DAFE79
:1017100001BD80B502F044FF02BD1CB56C46247CBF
:10172000009402F097FF13BD80B502F0DDFF01BD0C
:1017300080B502F0E4FF02BD80B502F0F7FF01BD05
:1017400080B503F041F801BD80B503F045F801BD57
:1017500080B503F0CFF802BD80B503F017F901BDE5
:1017600080B503F05BF901BD80B503F093F902BDCC
:1017700080B503F0C7F902BD80B503F0E5F902BDFD
:1017800080B503F0FFF902BD80B503F07DFA02BD1C
:1017900080B503F07BFA02BD80B503F0D1FA02BD3B
:1017A00080B503F027FB02BD80B503F03FFB02BD0F
:1017B00018B587B010AC247806940FAC2478059443
:1017C0000EAC247804940DAC247803940CAC2478EB
:1017D00002940BAC247801940AAC2478009403F0B2
:1017E000AFFB08B010BD80B503F0D8FB02BD80B5DB
:1017F00003F01AFC02BD80B503F0C6FC02BD80B543
:1018000003F0DCFC01BD80B503F0F0FC01BD80B548
:1018100003F006FD01BD80B503F01AFD02BD80B5E1
:1018200003F03CFD01BD80B503F066FD01BD80B550
:1018300003F080FD01BD80B503F0C6FD01BD80B59C
:1018400003F0E2FD02BD80B503F0FAFD02BD80B5F4
:1018500003F024FE02BD80B503F04AFE01BD80B551
:1018600003F066FE01BD80B503F044FF01BD80B505
:1018700003F05BFF01BD80B503F07FFF01BD80B5C4
:1018800003F080FF01BD80B504F042F802BD80B5D1
:1018900004F094F802BD80B504F0BCF802BD80B538
:1018A00004F0F0F801BD80B504F03AF901BD80B54F
:1018B00004F09AF901BD80B504F0A8F901BD80B526
:1018C00004F0CCF901BD80B504F0ECF901BD80B5A0
:1018D00004F0A4FA01BD80B504F0B6FA02BD1FB54C
:1018E0006C46248C02946C46A48B01946C46248B29
:1018F000009404F0ADFA04B010BD1CB56C46A48A87
:1019000001946C46248A009404F0ADFA16BD1FB50C
:101910006C46248C02946C46A48B01946C46248BF8
:10192000009404F0B2FA04B010BD80B504F0C0FA1F
:1019300002BD80B504F0C4FA02BD80B504F0D6FA49
:1019400002BD80B504F0DAFA02BD80B504F0E6FA13
:1019500002BD80B504F01CFB02BD80B504F030FB75
:1019600002BD1FB508AC247802946C46247F019414
:101970006C46247E009404F02BFB04B010BD80B5AF
:1019800004F06AFB02BD80B504F073FB02BD80B5B4
:1019900004F078FB02BD80B504F080FB02BD1CB5ED
:1019A000049C009404F082FB16BD1CB5059C0194B8
:1019B0006C46247C009404F083FB16BD80B504F0D3
:1019C00092FB02BD80B504F096FB02BD80B504F029
:1019D00097FB02BD80B504F098FB02BD80B504F012
:1019E0009EFB02BD80B504F0A8FB02BD80B504F0EB
:1019F000AFFB02BD80B504F0AFFB02BD80B504F0C3
:101A0000AFFB02BD80B504F0AFFB02BD80B504F0B2
:101A1000AFFB02BD80B504F0AFFB02BD80B504F0A2
:101A2000AFFB02BD80B504F0AFFB02BD80B504F092
:101A3000AFFB02BD80B504F0AFFB02BD80B504F082
:101A4000AFFB02BD1CB5059C01946C46248A009432
:101A500004F0AAFB16BD1CB5049C009404F0B3FB73
:101A600016BD1CB5059C01946C46248A009404F0B4
:101A7000B0FB16BD80B504F0B5FB02BD80B504F027
:101A8000B9FB02BD80B504F0B9FB02BD80B504F01E
:101A9000B9FB02BD80B504F0C3FB02BD80B504F004
:101AA000C3FB02BD80B504F0C3FB02BD80B504F0EA
:101AB000D0FB02BD1CB5059C01946C46247C0094AF
:101AC00004F0D2FB16BD80B504F0EAFB02BD80B580
:101AD00004F0ECFB02BD80B504F0F3FB02BD80B561
:101AE00004F0F7FB02BD1CB5059C01946C46247CF8
:101AF000009404F0F6FB16BD80B504F00EFC02BDA8
:101B000080B504F018FC02BD1CB5049C009404F0E0
:101B100020FC16BD80B504F02BFC02BD1CB5049C56
:101B2000009404F033FC16BD80B504F03EFC02BD09
:101B300080B504F04AFC02BD1CB5059C01946C46BE
:101B4000248A009404F05BFC16BD80B504F068FCA8
:101B500002BD80B504F06CFC02BD80B504F06CFCE5
:101B600002BD1CB56C46248A009404F07DFC16BDB1
:101B700018B585B00CAC247804940BAC247803948D
:101B80006C46248D02946C46A48C01946C46248C83
:101B9000009404F076FC06B010BD80B504F084FC1F
:101BA00002BD80B504F084FC02BD80B504F0B6FC33
:101BB00002BD80B504F0BAFC02BD80B504F0CAFCD9
:101BC00002BD80B504F0D2FC02BD80B504F0EAFC91
:101BD00002BD80B504F0EAFC02BD80B504F0EDFC66
:101BE00002BD80B504F0EDFC02BD80B504F0EEFC52
:101BF00002BD80B504F008FD02BD80B504F018FDFB
:101C000002BD80B504F01AFD02BD1CB56C46247CF3
:101C1000009404F029FD16BD80B504F030FD02BD2E
:101C200080B504F03DFD02BD1FB508AC24780294D8
:101C30006C46A48B01946C46248B009404F03BFD0D
:101C400004B010BD80B504F04FFD02BD80B504F0B6
:101C500056FD02BD80B504F05FFD02BD80B504F005
:101C600069FD02BD80B504F076FD02BD1FB50C48CC
:101C700000F01AF80B49884210D16C4600212172FD
:101C80000120C00220800720000201902046093078
:101C9000062204F073FD204604F0E6FD1FBDC04699
:101CA000FCFF0000FFFF000070B50446FFF7BAFB21
:101CB0004D21415C094D0022AA2391420BD00668B8
:101CC000F65AA642164600D02E464725AD005B19AF
:101CD000521C3546F1E7A8B270BDC046FFFF0000B8
:101CE00010B5FFF79FFB4D21425C0021AA238A42D9
:101CF00008D00468E45A240B05D14724A4001B191A
:101D0000491CF4E7FF21C8B210BD0300FFFFFFFF2D
:101D1000FFFFFFFFFFFFFFFFFFFF010000000000CC
:101D2000FFFF01000000FFFF054A12683523D35C66
:101D3000034201D00C2070473532117000207047EB
:101D4000B019002010B50446002004F005FE044937
:101D500001402088401A424242414A40228010BD40
:101D6000FF0F0000F8B50446C0062DD416460D46F8
:101D7000184800686107C90E40180069432204230F
:101D8000214604F0F1FD002820D001460A300671FA
:101D9000057000274F7210220A72CF710A228A71D1
:101DA000FF224A7182220A71320EC271320C827194
:101DB000320A42712A0EC2702A0C82702A0A4270BC
:101DC000204604F02DFE02E0862700E00727384673
:101DD000F8BDC046B4190020F0B5CFB01E46144679
:101DE0000F4605460120010209A8FFF71DFA002C45
:101DF00033D054980890079500252846069504F09E
:101E00001CFE05964DAE3070010EF170010CB170E4
:101E1000000A7070284604F010FE3071049449AD39
:101E2000304639462A4604F00EFE09AF059800A94F
:101E300091C10B4A01230798294604F012FE05229E
:101E4000089C2046314604F095FC601D04990A1D4B
:101E5000394604F08FFC069800E012204FB0F0BD28
:101E6000E5030020F0B5CBB00A2A24D31F4616465E
:101E70000D465099059101210691090207AC049085
:101E80002046FFF7D1F947AA03923846294604F0C5
:101E9000DAFD781D751F21462A46FFF7CDF9A8B255
:101EA0000094019005980290044A04980399069BB7
:101EB00004F0F1FD00E086204BB0F0BDE50300200A
:101EC0008B0707D0521E22D30B78491C0370401C8D
:101ED0008B07F7D1830730D0DB4219D0401E121F89
:101EE00008D308C943701B0A43801B0C0371001DF3
:101EF000121FF6D2D20707D30B88437001D08A781D
:101F0000C2701B0A8370704701D00B784370704712
:101F1000121F06D308C903801B0C4380001D121F2B
:101F2000F8D2D20705D30B88038005D08B78837055
:101F3000704701D00B780370704770B4103A03D328
:101F400078C978C0103AFBD2530701D318C918C01A
:101F500001D508C908C0D20704D30B880380801CB0
:101F6000891C002A01D50B78037070BC70470028CB
:101F700007D0006D002804D0406D0860411E8841E4
:101F80007047002008607047F0B59FB015460446C2
:101F90001E93020912200E2A00D98DE02026032963
:101FA00003D02A46324000D086E01B911DAF204668
:101FB000394604F099FD39784048807E81422DD21F
:101FC00068003040AA00082313401B18142048431F
:101FD0003B490968496D0F187B707A1C6E070F9793
:101FE000109107D510261E4316702F0703D55026D3
:101FF000334313701E462A99EB0702D001231E4378
:1020000016702C9E042703290B4616900E9707D0B6
:10201000042B1B9907D10323119306E087204BE083
:1020200011971B9901E0002711972E9814902D9875
:1020300013902B9F299A1992289A279817902698DF
:10204000159025981290032E1B931A97189205D07D
:10205000042E169806D103273E4604E00E9F109AE0
:10206000169801E00027109A115404F05BFD1CA99A
:102070000896139A0992149A0A92119A0B920C9745
:102080000D91129900910190159802901798039064
:1020900018980490199805901B9806901A98079024
:1020A0001EAA24AB2046294604F050FD002803D187
:1020B0000F9A9474012111741FB0F0BDA81800206C
:1020C000B81900207CB5064600090E2801D9122057
:1020D0007CBD14460D463046FFF752F8002800D06C
:1020E0007CBD01A9304604F0FFFC0028EFD001A818
:1020F00000781421414304480068406D4018C581B0
:10210000846000207CBDC046B81900207CB506461E
:1021100000090E2801D912207CBD1C461546304608
:10212000FEF794FF002800D07CBD01A9304604F0E2
:10213000DBFC0028EFD001A80078142141430448BB
:102140000068406D40188581446000207CBDC04619
:10215000B8190020F0B585B005463F48807E88421A
:1021600001D2122774E016460C463C480068406DC8
:102170000290012D019514D10394641C3546641E10
:1021800012D0287804A904F0AFFC00283ED0AD1D81
:1021900004A80178012004F08FFD0028EFD0074645
:1021A00056E00C20009004E004F0E0FD0090019D5A
:1021B000039C28462146324604F0F6FD07460028D7
:1021C00046D1002C24D0002C34D00394307804A9BC
:1021D00004F08AFC3079002802D17088002813D0DE
:1021E000022404A80778012128463A4604F02AFE72
:1021F000002D00D12C46142078430299081844740D
:10220000B61D039C641EDEE70124EAE7D3271FE026
:10221000029E11360024104FB87E84420AD2E2B2E8
:1022200000250121284604F00DFE3570019D14366D
:10223000641CF1E7012D08D10098002807D1002780
:102240003846394604F05EFE02E004F083FE0027C3
:10225000384605B0F0BDC046A8180020B8190020C7
:10226000F0B599B003930492059106902048006858
:10227000014630311791169101463C311391816B23
:102280001891C16C006D149115901E98097B01295D
:1022900001D102210843002116A60F460C291ED0A9
:1022A0003278024218D016AA52581388FCB2240180
:1022B00007AD2B532B1952885A8013AA52581488F1
:1022C0009C805488DC8094881C81D4885C8114892B
:1022D0009C815289DA817F1C761C091DDEE707A9E3
:1022E0000090019103AB0FCB04F052FE19B0F0BD8A
:1022F000B819002001020400F0B587B00A46019029
:10230000164908680346303305930090836B0693A3
:10231000002305AC1E46022B13D011A0C75C174248
:102320000CD0F7B2062179432768387902AD68549A
:1023300068183988418079888180761C241D5B1C4F
:10234000E9E729200099095C02AB019804F03AFE04
:10235000122800D1D12007B0F0BDC046B819002026
:1023600001040000B0B505460022134604F03FFE0C
:102370000446002D06D106480068C06A00211C22D0
:1023800004F0FCF9122C01D12E20C443E0B2B0BD00
:10239000B8190020F0B585B0029303920491074666
:1023A0002748046804F0BEFB05465E200021019129
:1023B000215426465D363806800F0DD03078C00691
:1023C000800F05D000200146FFF77EF8002835D1A8
:1023D00004980090002322E078071DD4F806810FAE
:1023E00029D02834002804D560780221014303292C
:1023F00023D1380704D560780221014302291CD17A
:1024000004F090FB0499FFF75BF8002816D12178BF
:102410000120FFF759F807E0049800900123029883
:1024200003992A46FFF745F8002807D1307838434A
:102430003070019802E0122000E0D12005B0F0BD1C
:10244000B8190020F8B504461220002C16D0611EE1
:102450000C4213D1174E37685D20385C20420ED0F5
:10246000C4210C420DD004F0D8FDA10706D00028ED
:1024700004D13068022104F0D4FD0020F8BD0C2006
:10248000F8BDE106890F01D04006ECD400252846AE
:102490002946FFF719F80028E7D15D3769464D70E6
:1024A0000C703D70022004F0DFFD04F053FD28465F
:1024B000DBE7C046B819002010B586B001AC08A112
:1024C00014222046FEF77AFD0A4800687221405A1D
:1024D000009404210122084B04F028FE06B010BD30
:1024E000FB349B5F8000008000100000002A000089
:1024F00010000000B8190020FFFF00001CB51148B3
:102500000468FEF7EDFF882807D00C2805D05D345D
:10251000002808D1022060701CBD052004F01AFEBE
:1025200004F06EFE1CBD0020607020787F21014009
:10253000217001A98620487080200870022004F0D4
:1025400093FD1CBDB8190020BCB5104A14685D226B
:10255000A25C00280AD18020104007D0723421806C
:10256000052004F0F7FD04F04BFE0CE0DC200242F5
:102570000BD05D3401A900254D7002400A70022085
:1025800004F072FD257004F0E5FCBCBDB819002014
:10259000012903D1018901200840704708214056D4
:1025A000042802D802A1085C704700207047C0468A
:1025B0000101000001000000F0B587B001291AD127
:1025C000034608331F8801263A077CD40291019301
:1025D000817A03460B33046AC57FF806049303919E
:1025E00014D40022184604F0D3FE01285DD0002840
:1025F00002990CD067E0027A042A01D1012662E038
:102600004469057C00200490039000E002992F4863
:1026100000680127BAB20026AA421BD213195B1E1A
:102620001B78002B16D0A25C7F1C012A01D0FF185A
:10263000F0E75D22825CD30708D192070AD5BAB2CF
:10264000A25C03261640721E964103E0BAB2A25C59
:1026500001261640012936D1002E24D0019909887F
:1026600070220A40202AC9D10026F443C06AC71F3D
:10267000032C28D005A90020887188800590FF1DB3
:102680000722384604F081F80006641C0028EFD1C8
:10269000032C0AD806223846049C214604F06AF826
:1026A0000399B97103E000260DE0049C0399019899
:1026B0000088202202404032402A9FD10126204635
:1026C000324604F065FE304607B0F0BDB819002070
:1026D0001CB51148046800200146FEF7F5FE01A96B
:1026E00048705D20205CC1075D34002905D001A938
:1026F00001220A70FE2108402070810705D501A93A
:1027000002220A70FD2108402070022001A904F075
:10271000ABFC04F01FFC1CBDB8190020BCB511486F
:102720000068446DFFF730F8002802D00E48807E24
:1027300000E00120C5B21134002D11D0207800280E
:102740000BD020460F380078800706D560786A469F
:10275000107000200121FEF7A8FE14346D1EEBE777
:10276000BCBDC046B8190020A818002080B5084696
:1027700004F036FE04F0EEFB80BD7047F8B5044669
:102780000020C5430A480068466D1236094F6D1C8B
:10279000B87E854207D230781436214604F088FE90
:1027A0000028F4D0F8BD204604F086FEF8BDC046EF
:1027B000B8190020A8180020F0B58DB00BA800248F
:1027C00084800B94104D114E2746A87E874218D264
:1027D00000220A9201200890079206907F2005901F
:1027E00004920BA803900292072001900096F8B281
:1027F000099002212023FFF7C7FB7F1C0028E4D0AB
:1028000000E020460DB0F0BDA8180020FFFFFF003B
:10281000FEB504460F4DA87E0F4909684E6D11366E
:1028200000270097C1B28F4212D2317801290CD112
:1028300001AA00201071508070781070012120468C
:1028400004F0B2FA002804D1A87E14367F1CE9E710
:102850000098FEBDA8180020B819002080B50120FE
:10286000FFF7D6FF80BDFEE7B0B5096883240022DC
:10287000002912D0CD690024CC61087AC00603D4A7
:10288000002004F01DFE02E0084604F053FE012281
:1028900000282946ECD083240AE0D00708D072B67D
:1028A000044800688521425C521E425462B60024EE
:1028B000E0B2B0BDC819002010B50C68207BC0077D
:1028C00008D000210122204604F042FE207BFE2198
:1028D000014021730D4800682C21405CC00703D1E2
:1028E000204604F048FE02E0204604F0D3FE002813
:1028F00001D0832010BD72B6054800688421425C77
:10290000521E425462B6002010BDC046B0190020CD
:10291000C81900200120704701207047012070472E
:1029200070B50B4C012504222046294604F0E6FE32
:10293000084E306006222046294604F0DFFE31684A
:10294000086030680168002088804880087070BD89
:10295000A4180020AC19002010B50C46087949795C
:102960000902081804F0DCFE2079617909020818D0
:1029700004F016FF207961790902081804F03EFF7F
:1029800004F066FF207961790902081804F06EFFEF
:10299000094800682F21405CC0060BD52079617979
:1029A00009020A18A379E178022004F081FF0028C7
:1029B00000D010BD002010BDC819002010B504467D
:1029C00008794A7912021218C978062004F0A4FF87
:1029D000074800682F214056002801D4002010BD70
:1029E0001620E070A078BF210140A170842010BDA6
:1029F000C819002010B5044608794A791202121845
:102A0000C978072004F088FF074800683421405641
:102A1000002801D4002010BD1720E070A078BF214D
:102A20000140A170842010BDC8190020B0B50D462A
:102A30000446087900281DD16879A9790902081887
:102A400004F0EAFF6879A979090208182A7AE97975
:102A50002B46093305F004F86879A97909020818AA
:102A600005F018F86879A97909020818E97905F0DC
:102A700031F828796979AA7912025118EA7905F0B2
:102A800038F80948016836200A5C002092060AD509
:102A90003631497AC90706D01820E070A078BF21E6
:102AA0000140A1708420B0BDC8190020FEB50D46BC
:102AB00004460879002823D16879A9790902081801
:102AC00004F0AAFF2A7AE9796879AB792E4615369F
:102AD0002F460F37009701961B0218182B46093313
:102AE00005F011F86879A9790902081804F0D2FFF5
:102AF0006879A97909020818E97904F0EBFF2879C7
:102B00006979AA7912025118EA7904F0F2FF0948AA
:102B1000016836200A5C002092060AD53631897A8F
:102B2000890706D51C20E070A078BF210140A17064
:102B30008420FEBDC819002070B50446144E3068CC
:102B40003625405D00280ED108794A791202101806
:102B50008A7BCB7B1B029A18891D04F0FBFF30682F
:102B6000405D002811D00B4801684A5D00209206A4
:102B70000AD53631497AC90606D51920E070A07801
:102B8000BF210140A170842070BD002070BDC046EF
:102B9000B0190020C819002010B504460879491D55
:102BA000FEF72AFD0A48016836200A5C00209206DA
:102BB00004D5363109228956002900D410BD1A20C7
:102BC000E070A078BF210140A170842010BDC046F4
:102BD000C819002010B504460879491DFEF710FDFC
:102BE0000948016836200A5C002092060AD5363171
:102BF000897AC90706D01B20E070A078BF21014068
:102C0000A170842010BDC046C8190020B0B505468B
:102C100000240846214605F01DF8002810D0094878
:102C200000683621415C89060AD53630407A800733
:102C300006D50020E870A878BF210140A97084243F
:102C40002046B0BDC8190020B0B50446012508468D
:102C5000294604F0FFFF0146002000290FD0084953
:102C6000096836228A5C920609D53631897AC90606
:102C700005D5E570A078BF210140A1708420B0BDCA
:102C8000C819002009490A683621535C00219B06B7
:102C90000AD53632D27AD20706D01E21C170817889
:102CA000BF220A408270842108467047C81900205C
:102CB00010B504464A7908791146FEF72DFC0948FB
:102CC000016836200A5C002092060AD53631C97A9E
:102CD000890706D51F20E070A078BF210140A170B0
:102CE000842010BDC8190020F8B5184C0125042215
:102CF000174E20462946B047164F3860102220460E
:102D00002946B047396808600C2220462946B0475A
:102D100039680968C860104DE98924222046B04707
:102D2000014638680268D06881600021082903D014
:102D300000235352891CF9E7E989D18000211181D0
:102D4000E989418004F0A0FFF8BDC046A418002026
:102D5000FD760410D0190020A81800200C20704720
:102D600001207047B0B505460024204604F0A8FFB6
:102D7000002801D00C2404E0012D02D10120FEF72F
:102D80005AFD2046B0BDFEE770B50D4D2A684224BD
:102D9000135D7F261E401655002802D004F0B0FFB8
:102DA00070BD084604F0C8FF2868015DF7220A409C
:102DB00002550E2004F0CEF904F022FA70BDC04690
:102DC000D419002070B51D4E32684225535DDB06D4
:102DD00028D5002816D0A432194800683421405C58
:102DE00074214143002399421CD01068002807D069
:102DF000C0180489002C03D017240457002C12D4C7
:102E00007433F0E74920800010182024224603F094
:102E1000B1FC3068415D214341550E2004F09AF920
:102E200004F0EEF970BD0B210022012304F096FF9F
:102E30003068415DCF220A40425570BDD419002050
:102E4000B0190020F8B505460120682104F09AFF6A
:102E5000234F3860234EF07A1424214604F092FF69
:102E600001463868C162012D10D15C3004F094FF36
:102E70002225705D342104F085FF39684863705D58
:102E80004000102104F07EFF39688864F07A411C0C
:102E9000154D0122284604F031FC39680862F17AA8
:102EA0000222284604F02AFC3D686862F17A0F4A43
:102EB0000723284604F074FF386817210185318CF8
:102EC000172901D28620F8BD4185F17A4C43C06AAA
:102ED0000021224603F052FC04F077FFF8BDC04603
:102EE000C4190020A8180020A4180020BD7A0610DC
:102EF000F0B589B0012B00D0A1E000AB07C30F985B
:102F00000E99039129214F4C615C4A1E9141E27F49
:102F1000089204F05CFF0690E67A049601271821D7
:102F2000494C3846A0472346484C216890254959CA
:102F3000C86340213846984721684959C96B0860E1
:102F400057208400304621463F4A90473F49096850
:102F50004959C96B48600898874004F043FFF8B2AC
:102F60000821394A90473949096808954959C96B78
:102F70000968242200268E54086224314F7005947B
:102F8000049844430794069D089C0798B0421BD0C0
:102F900001273846294604F0F5FE2C4909680959ED
:102FA000C96B49688919842288503846294604F03B
:102FB000E9FE264909680959C96B496889198822B7
:102FC000885005983618E0E700980128049C09D13C
:102FD0000E21204604F0D6FE1C490968089A89583B
:102FE000C96B88600198012809D10821204604F0A6
:102FF000C9FE16490968089A8958C96BC8600298C1
:1030000001280FD12421204604F0BCFE0F4D296871
:10301000089A8958C96B08610120112104F0B2FE99
:10302000296808660398012809D11C21204604F06C
:10303000A9FE06490968089A8958C96B486109B010
:10304000F0BDC046A8180020857D0410C8190020D6
:10305000B0B50446322504F0FBFE44550020B0BD57
:1030600070B50024204604F0FDFE0546094E306888
:103070003421415C8C420CD2E321695CC90703D046
:10308000284604F0FDFE3068572189006D18641C45
:10309000EEE770BDB019002070B50024204604F0A2
:1030A000E1FE0546094E30683421405C84420CD272
:1030B000284604F087FF002802D0284604F082FF4B
:1030C000572080002D18641CEDE770BDB01900205A
:1030D000F8B50024204604F0C5FE05460126264A20
:1030E000274610683421405C84423DD22C20285C65
:1030F000FE21014002292BD1284605F0D3F90028F2
:10310000304623D1284605F0E8F9002830461DD185
:103110002846FEF745FB0028304617D1E0B2009064
:10312000FEF706FB0028304610D1009805F0D7F9CD
:10313000002830460AD1284605F0D3F90028304649
:1031400004D1009805F0CFF9411E88410A4A00E0F9
:103150000020411E88413906374600D107465720D6
:1031600080002D18641CBCE7380603D01220012112
:1031700005F0BCF9F8BDC046B019002070B50128B3
:1031800023D1012921D11446FEF74CF900281CD087
:103190000668002E19D0B021204604F0F3FD054644
:1031A0001C21204604F0EEFD5036002C0DD0316875
:1031B000002903D0A86700226A724D654721890063
:1031C00076181C30B035641EEFE770BD80B5FEF791
:1031D00029F94D21415C00685030002909D002686E
:1031E000526D0023D3671372472292008018491E44
:1031F000F3E780BDF0B585B0039316460C4605464F
:103200000027EF22394605F085F90146002819D13B
:1032100002962846FEF748FD3E4988420FD04721D6
:103220008D004543FEF7FEF80068401904A9FEF73B
:1032300001F9002805D00498417A002905D04221DF
:1032400000E00C21084605B0F0BD856F2E4608361B
:10325000304605F067F903460498027A042C0BD136
:103260001221002AEED0002BECD0029A002AE9D1DC
:10327000EA89002A36D1E5E701932549002A02466A
:1032800001D002465032156800970AB202993B46B7
:1032900005F04CF9854201D24521D3E701466F2262
:1032A0000498825C002A0CD001466F314B780A7971
:1032B00001210091029D294605F038F90146049844
:1032C00000E0029D80300A4605F045F90498017A35
:1032D00000290BD0032C05D1304603992A4605F06E
:1032E00041F90498801DFEF72DFD0EE0019800289D
:1032F0003446039E04D02168A1203246FEF732FDF9
:10330000204631462A4605F034F939469AE7C04648
:1033100081FF0000FFFF0000F0B5ADB0044618A922
:10332000FEF788F80021002800D164E11898007A9F
:10333000002800D15FE126469C363568204605F01E
:103340001FF9401918990A7A012A074600D04F6DD3
:10335000FA43821807D40C6DC01B214605F02AF9E8
:10336000401C6043C719781B17A916AA05F03EF93F
:103370001798400B41424141189A107A012800D019
:1033800039E11091154660359C4801211591017075
:10339000022012901072B0694008C019506517469B
:1033A0009748006890214458483410460E301490D5
:1033B00005262146324603F0DDF938465C302146C9
:1033C000324603F0D7F9384614300C90214605F008
:1033D00045F905F05FF9297840010843287005F0A8
:1033E00063F96870010AA970010CE970000E287178
:1033F000159803F022FB6871010AA97100266E81FD
:103400002E81000CE8716878A978EA782B792C96DF
:103410000902081811044018190640180A902B9048
:1034200068791390A8790E90E8790F902C7B29A9E0
:10343000FF2048700D910C7005F042F928962790F6
:10344000269638463C3025902496786D2390229617
:10345000284620300B90219011977F7A20461499AE
:1034600005F09CFB0E980002139943180F98040472
:1034700023A825A927AA0F97002F19D0001D091DE1
:10348000121D1D460D9B5B1C274621AC20942AACC7
:103490001F943C461E901D931C911B922BA81A90C2
:1034A0001198199019A805F07BFC2846129D42E05E
:1034B0000D940E93119F3846813009903846843020
:1034C0000890B86F0121129101706A891395287BC9
:1034D000002400940A99019102940C99234605F066
:1034E00060FC2AA9087000947E20C2433846214619
:1034F000234605F01BF805460B9C204605F084FC8E
:103500000999089A3F48D060042020700A2008706A
:10351000CD2D00D8CD25082048701199116213983F
:10352000007B9074086D21C21560D07A129D2843EB
:10353000D0720E980D9C001913901295AF0029AD12
:10354000B74221D0002E159C00D002242BA882590E
:1035500028782B4909684979002305930694002EA1
:1035600001D0092400E00E24049425ACA41903948E
:1035700027ACA4190294149C01940093139B05F0AA
:103580004CFC6D1C361DDBE7119EF06FB321405CD7
:1035900005F03AFD044629A80078214605F0C4FB51
:1035A0000F98002807D029A84078214605F087FB0E
:1035B000304605F037FD2A98B07229AC129F3D467F
:1035C000002D07D02AA80178207805F038FB641C6C
:1035D0006D1EF5E7304605F034FD21AC23AD0AA69B
:1035E000002F07D0327802CD01CC05F02BFD761CE0
:1035F0007F1EF5E7109908462DB0F0BDEA190020AE
:10360000C8190020F4080410070D0000FEB5044698
:10361000007A022836D10D4627466837E06F04F05D
:10362000AFFF79880291666D1849097800290FD19A
:103630004019F14341180BD4801B216D019104F016
:10364000B9FF401C029909180291019941438E1952
:10365000711B2046583001252A4605F01FFD0B4BF3
:10366000197801290BD12146983100221A70626D18
:10367000101A086048606065204605F047FD029812
:10368000388000E000252846FEBDC046EA1900202B
:10369000F8B50E460446C76F480701D4002503E07D
:1036A0007520205C107001253007009206D5511955
:1036B000E3880122384605F02AFDAD1CB037F0063C
:1036C00008D500984019FB78A27AA16F496805F0E7
:1036D0002CFDED1C700601D4009905E0387805F04A
:1036E00046FD009948556D1C70B2002800D4F8BD05
:1036F000E07A002813D0082048550F464E1928209C
:103700007070B01C21460E31052203F033F8F01D15
:1037100021460C31022203F02DF8093500E00F4656
:10372000204605F02DFD0028E1D07919204605F04E
:1037300030FDF8BD01207047B0B5012815D1012931
:1037400013D1012A11D1012B0FD105F023FD04461D
:103750000648C57A01200C2104F014FB60600821A2
:10376000284604F00FFB61688860B0BDA8180020EF
:10377000B0B5054605F01AFD0446284605F022FDC1
:10378000A179002905D02288028062884280A2881F
:1037900082808171B0BDFEE7F0B595B01F460692FC
:1037A0000591064680880AAD05F01CFD002800D171
:1037B000A1E0044603970795723001902546B13584
:1037C00030890AAF3880266E700AB880B81D21464D
:1037D0007C310522504B98474F4BB87A0495A97815
:1037E00049010143B97238460B3021465831042251
:1037F00000921D46984738460F30214681310322FA
:103800000292A8474F20205CA16CC907C90E014352
:10381000397604F03FFF400110990143397605F0F5
:10382000F7FC01280BD10498807A002807D01020DB
:10383000109901430AA80176206D616D01E0A06C2A
:10384000E16C099108900AAF38461A3008A9491C62
:10385000062202F08FFF01980088F8820499097807
:103860000329009A00D00A460799223107911A9D30
:103870007A76E16D059A891A069A5200891A039B95
:10388000002902D58919401CFAE70AAA138450823C
:10389000981C9082901C00273A4605F0FFFB666C4E
:1038A000002E2AD06E20305C002826D030466E30A4
:1038B0002A210591A9702B21697002992970B46E93
:1038C0000695079D2C70210A6970210CA97000785B
:1038D0002871F06D400A6871306E104904F06AFE7C
:1038E000A871706E7D2104F065FE059AE871200EC6
:1038F000E870069D08E001270AE01C20A87023203C
:103900006870029828702222E81C0AA902F032FF8F
:10391000384615B0F0BDC04675670410E2040000DB
:10392000F0B5A3B00C46099000270846394605F0CB
:1039300071FC02462046394605F080FC1AAD20464F
:1039400005F040FC0646807900281ED070790028DA
:103950001BD009994878C91C421E08950DAD284610
:1039600002F008FF697E07200840687604280CD81A
:103970000125294681401620014206D00DA8801C51
:10398000079005F095FC002801D023B0F0BD05F0AC
:10399000B9FC06900028F8D005F0CAFCFF281ED01C
:1039A00002950590069D284676300490AC35687ADD
:1039B0000D99039105F0E4FC04990398488005985B
:1039C000A8712C70308808803079287270880003C4
:1039D00006994866717903290AD0022009E01AABDA
:1039E00009201870A1200A21012205F0FBFCCCE778
:1039F0000620012900D83846E97801430820084309
:103A0000E8700AA800900DA80CAA0BAB214605F09F
:103A100023FD0028B9D008982030089009988078B4
:103A200009900AA8008803900B9804900C980590C0
:103A30000DA8407E042802D10DA803214176002064
:103A400018900DAD2F7EF906C90F18AE3170199080
:103A5000701C29461A31062202F08CFE0F203840D5
:103A6000F071099B18462A3841424141089841703B
:103A7000029901701AA8847503998182069A0499A3
:103A8000D166697EC17507981B901A9205981E90A1
:103A900018982090199821902A2B02D10DA8223035
:103AA0001C901AA800F088F86FE7FEE780B50820A0
:103AB000014905F042FD80BDE5970610B0B505F05F
:103AC00069FBFF2101810A4CE17F07220A400121A5
:103AD000914041740C3005F038FD0025A17FE8B21B
:103AE000884203D205F04CFC6D1CF7E7B0BDC04620
:103AF000A8180020F8B501282CD101292AD1012AC3
:103B000028D11548C07F009001241421134A204673
:103B10009047134F39689025495949689826895923
:103B200008600D48807FC0210C4A90473968495988
:103B3000496889590968086007200099084084404D
:103B400008212046054A90473968495949688959EA
:103B50000968C860F8BDC046A8180020857D04101B
:103B6000C81900207FB5044605F014FB0646007A0C
:103B7000FF2812D02568646805F0EAFCAF21415C9B
:103B8000C9070CD1816CA94207D1C16C6140FF20EB
:103B900000068143484248410BE0002009E0F068FC
:103BA000316903AA0123009301922A46234605F0B6
:103BB000DFFC04B070BDFEE7F0B58BB004462020FA
:103BC000205C2746203700281BD0606840880226EA
:103BD000062800D27AE1256841026A6E8A4200D83E
:103BE00074E1E96E00023E38814200D36EE1206943
:103BF000E8657978284605F01FFD002854D0064670
:103C000065E105F0C7FA0246007A0126FF2800D1D7
:103C10005CE1517A002900D058E1079205F098FC48
:103C200006460546AF35207E8107C90F297301225C
:103C3000104020762660AF20305CC007089209D182
:103C4000A069B16C814203D1E069F16C814214D06A
:103C500016463BE1A0690590E06906900798C368A5
:103C600001690AA80322009201901846059A069B52
:103C700005F07EFC089A0028EAD0287B00280BD0AB
:103C800005F0DCFC00210122326571655136011D11
:103C90000622304602F06EFD606805F009FB002840
:103CA00000D1F7E0089E11E1206806906668813037
:103CB00031460D31032202F05DFD707A0590B27A33
:103CC000F37A0796307B049006990846AA30E67D81
:103CD0000890C6710E46110205980818190440187C
:103CE000049909064018B0653878002803D02046AA
:103CF0001430079B02E0079B18461030294681319B
:103D000005912946B131049100881A7A72217052C6
:103D1000AA20FF2131545888410231660620B0663E
:103D20000020089BD87350095872706E401E04F032
:103D300041FC401E81B2334672339A888A4200D9D0
:103D40009880079A107A1F210140117230467C300A
:103D50000390111D0522079302F00CFDA069E16993
:103D6000B064F16430468430039904F077FC304647
:103D7000214605F06BFC0898007A0799088178784D
:103D80000690049846780896007805F03DF907906B
:103D9000304604F0EDFEA96D304604F0F8FE059AB9
:103DA00010785178090208189178090441183046B2
:103DB00004F011FF6C4800684179304604F0BFFF01
:103DC00000213046059104F02CFF29467C31304615
:103DD00004F0E4FEFF21304604F018FF304604F002
:103DE0005EFF3046079904F06AFF2E463036089889
:103DF000314604F05DFF089804F022FE304604F0DE
:103E00009BFD304604F09DFD304604F0CFFD30466A
:103E1000314604F0D0FD05F011FC0146304604F0B7
:103E20009FFD304604F076FD304604F0A7FD304695
:103E3000089904F0C8FD304604F0D0FD304604F087
:103E400085FD304604F0CFFD304604F0E2FD3046FB
:103E500004F0B4FD304604F097FD069800280ED01B
:103E60000598009096200121079A134604F07FFCE4
:103E70000146304604F0B9FD304604F0BEFD7978C5
:103E8000284605F0E4FB7878002827D0206805F064
:103E9000DFFB21E0606841880226062916D349022B
:103EA0002268526E8A4211D93A7825460C35294645
:103EB00005F0D0FB002809D028680028089E05D00E
:103EC000204605F0F3FB064600281DD02568022E8B
:103ED00002D1284605F0ECFB0BB0F0BD2068234969
:103EE000B222825C8275C26D036EC47D01252543BA
:103EF000C5754360833B8360C160C16E4908511A38
:103F0000052205F09FF8E7E726686568287A08909B
:103F1000E07D05F079F805906888069009A805F01D
:103F2000E5FB0998F065059804F02BFFF16D091A7F
:103F3000E0680918F16529786978890601D57B213F
:103F400000E00C2109180898400905F0DBFB0699F0
:103F500009023E39884205D20121079A5172F06662
:103F6000256846E62568B4E7C81900208A020000E3
:103F7000F0B58BB00491044687204000215CFF29F6
:103F800040D025180195FF2630460296DE302018D5
:103F9000039002F05CFC206E007805AF1A4939816D
:103FA000BE720121B9812978F9720021F9737974FF
:103FB0008006C00F38740499880025189C26A859DB
:103FC000001D05902046B430069030204843241848
:103FD000A07D04F0BEFDB874029801990870A8593C
:103FE00000680A9003980078800701D505F094FBDB
:103FF000204605F092FB05F09BF905A98873084659
:1040000005F094FB0BB0F0BDFFFF0000F0B58FB0E2
:104010000A9309920F46FF24DC34015D8A080123CC
:1040200019469143159D297000263E737E607E756A
:104030000B90006E0096019602933946324605F0C9
:104040009DFE3868002800D1B6E02E70B87C0228AA
:1040500000D9B1E008960B9D2819294698310691A0
:104060001499059146780EA805F040FBB87B06210F
:104070004143C8B2396805F045FB049044080E98E6
:104080000D900A988006000E04F07BFE201807971A
:1040900039680D9A5118081A0D9070354B20800020
:1040A0000C900B952F463546002D12D03868001D18
:1040B00005F022FF002809D03C68E0690D99401AFC
:1040C000C117401848400C99884211D33F1D6D1EFE
:1040D000EAE70B9C002E6FD02068817EFF2904D078
:1040E000001D05F009FF002806D0241D761EF1E70B
:1040F0000D98E061206202E02468002C5CD02F481B
:1041000004994843C0097D21090140180B902746B6
:104110004B3725465435261D304605F0EDFE002868
:1041200006D00D98E06120620999079E089A2EE05A
:104130000496079EB07C401CC0B2FF21089A05F08F
:10414000E5FE03900A98E870F07B6871B07C401C33
:104150002871A17E06980068001D0122089B05F0C9
:10416000E3FE0C98039940181C301549A1801549AD
:10417000089AA260E060226161610520A071A462DA
:104180000C2204980D9904F05DFF089A0999059B8B
:10419000EB710B982060AA703A703089288003C9AF
:1041A000E0632164002B05D00699C869096A606341
:1041B000A16301E06263A2630FB0F0BD7102000071
:1041C0000404000024090410F0B58BB005469000EB
:1041D000281802909C220392805800900C30049181
:1041E000897E0191296E091D062202F0C3FA05AFEE
:1041F00000203882F8730220B881FF24BC72144872
:10420000388187204600A85DF8722846B4300690B1
:104210000098001D0590019804F09BFCAC55B87403
:1042200003980299085800680A90DE34285D8007D8
:1042300001D505F071FA0498001D05F06EFA05F03D
:1042400077F805A98873084605F070FA0BB0F0BD41
:10425000FFFF0000FEB506462D480068902140583B
:104260004468FDF7DFF802902A48407F75218900F5
:104270000025655485225200A554A218957167182F
:10428000FD720121397323469C3319218902196477
:10429000019399647D72FF211171FD710A2800D389
:1042A0000A20012E00D028463872204604F0ACFDCA
:1042B0002046303004F0A8FD029E143605F0BEF909
:1042C000206666669C202058001D2422294602F0A4
:1042D00055FA387A002818D0019E7068001D002514
:1042E00024220292294602F049FAB068001D2946AC
:1042F000029A02F043FA7034387A854205D201CC32
:10430000001D04F081FD6D1CF6E705F047FEFEBDC3
:10431000C8190020A8180020F8B5012869D1452047
:104320000091C1000125334A28469047324C21684C
:104330009027C95948602826284631462D4A90477B
:104340002168C95949689C22885028463146294A23
:1043500090470099012940D1274C2168C9594968E3
:10436000A02288500126282530462946214CA04706
:1043700021490968C9594968A4228850304629460C
:10438000A0471D490968C9594968886630462946C9
:10439000A047194A11681546C9594968C8662C21B1
:1043A0003046A0472968C959496898228850002595
:1043B000124E707F0A2800D30A20ECB2A04216D910
:1043C00001205C2103F0DEFC0B490968C9594968EA
:1043D000A200891808676D1CEBE707490968CA59EC
:1043E00052689066C859406898210022425005F0F2
:1043F000F1FDF8BD857D0410C8190020A818002023
:10440000F8B517460D460446406E05210170002A96
:1044100006D105F01BFE4001616E0A7802430A7066
:10442000606E22214170022D009101D0144E00E0F7
:10443000124E012F00D0134E05F00EFE3718022D3C
:1044400001D0284600E00420009905F00FFE3E1838
:10445000A80025189C27E859314605F023FEE859A5
:104460000168891B4A0A8276490CC176E9591231E2
:10447000606E0E30162202F07DF9F8BD3E06000097
:104480003E0400003E02000070B504460F204001CB
:10449000205C400710D52646463601252046294691
:1044A00005F018FEE06E31780022134605F03CFD61
:1044B0002046294605F050FE0221204605F00AFE5E
:1044C00070BDFEE7F0B595B01493054600690C90F9
:1044D0002F4800682C23C05CC007C40E287A1390B4
:1044E000A88A1190687E0D90A87E0E90287F10906B
:1044F000E87E0F90287E0B902878129002D1164605
:104500000F220BE0234800683623C35C9B063CD592
:104510003630807AC00638D5164601224E20C04378
:1045200044400A91481E032303432533980883B26D
:10453000194800684069E7B2394602F015FA0028C8
:1045400023D004460C9880196B1C09350A990891F0
:1045500009900D9840B20E9949B20B9A00920F9AA9
:104560000192109A02920391049011980590139869
:1045700006900795201D1499129A05F017FE07481A
:1045800060603846214602F04BFA15B0F0BDC046D7
:10459000B0190020C8190020B41900202578061091
:1045A000F8B50C4605460F204001085CC00708D04E
:1045B00004F0BEFEFF284AD0A075E07D0121014332
:1045C000E175A87A002801D0002541E0772080001D
:1045D0002618307940070AD504F0AAFEFF2833D008
:1045E0002146463108704878012202434A70274626
:1045F000703700250095307885420BD204F098FE84
:10460000FF2809D002CF8876C87E01220243CA76ED
:104610006D1CF0E7009D1BE02806009D18D1307945
:10462000C10706D0204605F078F8204604F0ECFBE0
:104630003079072540070BD53034204605F06DF85A
:10464000204604F0E1FB03E0204605F066F807256C
:104650002846F8BDF0B589B004460293039105AD34
:104660000FC5FF26DC3605F0CBFD07468019049008
:1046700087204000385C03F0F5FB0190194D0E9E39
:10468000022E0FD0200A2840B1088A00BA18E4236D
:10469000D05020022840DC23D050781885214900D2
:1046A00001224254700885007C199C27E059001DA6
:1046B00005A905F0ADFD0298000A0A4908400199D4
:1046C0004A199065583203980004C009314605F034
:1046D000F5FDE1590860049A107804210143117036
:1046E00009B0F0BD00FFFF00B0B504460025602D05
:1046F00004D0601904F0DCFF3035F8E7B0BDB0B588
:10470000044603F0AFFB2C21415C002502290AD1AD
:104710002121C900401805F0FDFD002803D02046E6
:1047200005F0FCFD05462846B0BDFEE7F0B585B0B6
:10473000029105F011FE049000250120039002F083
:1047400075F801902E461F4800683421405CF7B28E
:1047500087422ED2384603F085FB002827D0044636
:10476000384605F0FBFD02462C20205C02280ED1C5
:104770000498012807D1104616300C32029905F032
:10478000F9FD012813D1384605F0C8FD09E0049968
:1047900001290CD103280AD101989060384605F010
:1047A00027FE411E88412906039D00D10546761C3F
:1047B000C9E7280604D0122002F0CCFC02F020FD4C
:1047C00005B0F0BDB019002080B50520014904F006
:1047D000B4FE80BD01690610F0B589B00024204602
:1047E00003F040FB0090012008904048006834210D
:1047F000405C844278D25720800005946043009941
:104800000D182C20285CFE210140022969D10121CC
:10481000009C2046079105F039FE064600212046FF
:10482000019105F033FE411E8841002E0899049144
:1048300000D104902B462846E83003902846E63005
:104840000290EA33089F06931C78F02626400F2535
:104850002540032D1FD0022D0BD0012D2BD1049804
:1048600000282CD01320012103F040FE069B0225D6
:1048700025E00398008802990988081A0A2343430F
:104880001B4800680599C9B2A030012205F009FE55
:10489000069B032513E0A00611D5049800280CD030
:1048A0000598C0B205F064FE002801D0D02626404D
:1048B0000898069B04E0019802E0D026264008985C
:1048C00072B619788C4203D12E431E70002102E08B
:1048D00007990F4039464A1E914162B600270842A7
:1048E000B2D1059C641C80E709B0F0BDB01900206E
:1048F000C8190020F0B589B001920291044604F075
:104900000EF801F0A4FF0320C043C01C03AD2881B2
:10491000012028826873AA27E05DA8722646AA367D
:10492000B07EE8720198049002980390B07C04F085
:1049300010F9A874E05B1449401A411E8841E873DD
:1049400028732046EC3004F0E8FEF42000210291A8
:104950002150FF27B77404F0EBFCA873284604F03D
:10496000E5FE2046283005F01BFE3C34204605F0CD
:1049700017FEB77602983074307E800701D504F0B8
:10498000CBFE012009B0F0BDFCFF0000F0B589B0FE
:10499000044601F05CFF03AD1F4828810020019010
:1049A00028820120E873FF2002900430A881AA2009
:1049B000205CA8722646AA36B07EE8722046C8302F
:1049C0000390206D28300490BD27E05D04F0C1F80D
:1049D000A874E05D05F0F6FD0298E055B07C05F0A6
:1049E000F1FD029FB77404F0A3FCA873284604F0FD
:1049F0009DFE2046283005F0D3FD3C34204605F0CE
:104A0000CFFDB77601983074307E800701D504F071
:104A100083FE09B0F0BDC046FFFF0000B0B50446FC
:104A200000250D70006D03F07AFF03F00DFFC72025
:104A300007212154606F8560606FC560606F017AE7
:104A40002246C73252785206D20F0A430272606F72
:104A50002146CA310930062201F08CFE206D30213A
:104A6000405C636F08330122294605F0C1FDB32085
:104A7000205C29462A4605F049FA7B30982160508F
:104A80002046983002490181204605F0B3FDB0BDB3
:104A9000F9FF0000F8B50446C420FF212154A420EA
:104AA000255A01272F402646C436002F04D005F092
:104AB000BDFD3070FF2822D0A43404F039FC2076EC
:104AC000FF2813D00021E8061AD40D4604F030FC6C
:104AD00029466076FF2813D1002F02D0307805F0E8
:104AE000C1FD207E05F06EFD072109E00721002FA2
:104AF00006D030780C4605F0B5FD214600E00C21CB
:104B00000846F8BDF8B504460226EC27FCF78AFCF7
:104B10000546002E14D02868C0190146303909789E
:104B2000A14204D001462F390978A14203D105F0F2
:104B3000E3F9002806D1472080003F18761EE8E7F9
:104B40000020F8BD0120F8BD70B50C4605460846AA
:104B500005F08FFD06462046294605F0A5FD811982
:104B6000B4202058002281420AD92346B4339D79CB
:104B70004520012D05D080342468A14201D8196058
:104B8000104670BDF0B58DB0099105460BA9059191
:104B90001F20087100200A90C0430B9003F090FD85
:104BA000074606902E46A03604F048FD0890317F57
:104BB000079601200490009028463A460A9B05F08B
:104BC00080FD284603F000FFBD24285D317C2A6D5E
:104BD000049E00961346143305F0AEFD285D05993A
:104BE00003F0DCFF285DFF2104F010F8B320285CFF
:104BF00004F00AFA0746285D0590286D03900A998B
:104C0000009194203A463B4603F0B1FD03460096DE
:104C100003980599069A05F054FD285D06902C6DC1
:104C20000A980090962031463A463B4603F09FFD95
:104C300003460A9800900196143420460699089A73
:104C400005F0A8FD286D03F0BFFEEC200C492952A9
:104C50000798807CA02168522C46EC3409482061DA
:104C60000220A0706068A0602846099D294605F0D2
:104C7000D1FD07222046294604F0E4F90DB0F0BD2D
:104C8000040700006008041001207047F0B585B0EB
:104C9000FCF7C8FB02904D30039000273C4601977B
:104CA00003980078874245D2029800680519BA2017
:104CB000285C0C2601283ED004A92846FCF7BAFB44
:104CC000002803D00498007A002834D12846BA304E
:104CD000AA211A4A6A52002606703820285C002849
:104CE00004D0A96AA1200022FDF73CF84C20285CE2
:104CF000002804D0E96BA1200022FDF733F80498C6
:104D0000002812D0417A00290CD1856F297E002914
:104D100005D0A968A1200022FDF724F80498AE6010
:104D2000EE602E76012105F0D7FD47208000241883
:104D30007F1CB5E7019E304605B0F0BDFFFF0000C7
:104D4000BCB50446FCF76EFB4D21415C00228A4253
:104D50004AD247239B0053430568ED18AA23EB5A18
:104D6000521CA342F3D1BA20285C0C2401283CD069
:104D700001A92846FCF75EFB002803D00198007AC1
:104D8000002832D12846AA302946BA3100240C70B6
:104D9000174901803820285C002804D0A96AA12086
:104DA0000022FCF7DFFF4C20285C002804D0E96BD0
:104DB000A1200022FCF7D6FF0198002815D0417AE7
:104DC00000290DD1856F297E002905D0A968A12071
:104DD0000022FCF7C7FF01980021A960E96029764D
:104DE000012105F079FD00E042242046BCBDC0460B
:104DF000FFFF000070B50446FF262836805D40079F
:104E000001D4002510E003F023F88168608F0025AD
:104E10002A4605F069FD072801D1012504E0A01903
:104E20000178FB220A400270284670BDF0B589B0B7
:104E3000039302920691079003F00AF80446FCF7E8
:104E40008BFB0590FCF788FB0546A92006013A4F2D
:104E500005F0D4FD012D0897009604D101283E46A7
:104E60000AD0364E03E0012806D02920C60005F0FE
:104E7000C7FD012800D108360496029D039FFCF768
:104E80006BFB0190FCF768FB064605F0B7FD012EB1
:104E900007D101283E462F46069D079B14D0274880
:104EA00009E00128009808903E462F46069D079B82
:104EB0000AD02920C000089005F0A2FD012802D1E7
:104EC000089808300890079B72B6E682A782658230
:104ED0002382FB221B2001990129114600D00146A3
:104EE000059C012C089C00D0024630209A420246C4
:104EF00000D300221B2B034600D31346049AAA4278
:104F0000024600D31A46EB08292B034600D313466A
:104F1000B942014600D319461B2F024600D30A4668
:104F2000B442014600D31146F208292A00D30846AC
:104F300062B609B0F0BDC0469042000048080000CB
:104F4000B0B588B0129C0694119C0594109D0495F0
:104F50000F9D03950E9D02950D9D01950C9D00954D
:104F600005F050FD012C10D105F09AFE05F09AFED7
:104F70000748C17A07480068A030074A052302F0B5
:104F80000FFF05F017FF05F021FF08B0B0BDC046C8
:104F9000A8180020C819002041B60610F0B585B049
:104FA0000446AC20A072A07E81070CD405210842E3
:104FB00034D0204622300178407800024618254639
:104FC0002435AE2707E001AD0026102228463146E1
:104FD00001F0D4FBAD272089B2B223462C332946F9
:104FE00005F0F5FE0C2810D0054607280DD0002D41
:104FF0000CD1A07E0121014001D00E22D743A7721F
:10500000F822104009010143A17600250E2002F08C
:10501000A1F802F0F5F8284605B0F0BDF8210840E7
:10502000A0760C25F7E7FEE7F0B587B00568A97E06
:105030000C24CA0600D5A2E0837946790779002EB0
:1050400003D008060CD5832499E04E48006832222C
:10505000825C920704D53230007C400700D58EE098
:1050600080200140A976A87A00280DD0F12800D030
:1050700085E0F80708D10121284604911C4605F077
:10508000C4FE2346844229D90593298900240B2292
:10509000204605F0D8FE00280AD00490012005F033
:1050A000F9FE032806D3049805F00EFF382466E0C5
:1050B000882464E0A021A9722875E87B2F21014093
:1050C000E973B80703D5A87E20210143A976002EF5
:1050D00005980CD006A905F005FF0BE0A87E049901
:1050E0000843A8762846FCF77EFB044647E006A85E
:1050F00005F014FF284605F02BFF224800683521F3
:10510000415C06AA13786A7B353047788078009135
:10511000019702900127049E3046394605F034FF7E
:105120002846314605F04EFF00280CD0154800688F
:10513000B121415C8124002921D0B1302A7D9740E2
:10514000B94301701BE0284620303C22214601F083
:1051500015FB06A8007818210140E975A97BC20754
:10516000920F0A43AA73E97B4007C00F0843E87314
:10517000304621462A4605F03FFFA120A87220466E
:1051800007B0F0BDD419002080B5016840684968B7
:10519000C97A094A12683223D25C022A04D1082251
:1051A0000A4001D1032080BDE7221143C27D0A409D
:1051B000C275FCF744FB80BDD419002080B5C17CCA
:1051C000491E032911D8C0467944097949008F4402
:1051D00001040A01A521817280BDC17E491CC176EE
:1051E00005F01CFF80BD05F04FFF80BD80B5014676
:1051F000C07C401E032812D87844007940008744C0
:1052000001050B01002005F08BFF80BDB5208872E1
:10521000C87E401CC87680BD084605F035FF80BDBD
:105220001CB50A49096802684068D369D47E0090B9
:10523000601EC34080201843812303400846643029
:10524000E4313C3205F0AAFF1CBDC046D419002051
:105250001CB502684068D17C0024022906D00329CD
:1052600023460CD1AA209072EB2412E0D169D37EA0
:105270005B1ED94001230B407F21C9435B180649BF
:10528000096800904C32DBB20846E430643105F026
:1052900085FF20461CBDC046D4190020BCB504467D
:1052A000C07C012821D002281AD004281FD1104820
:1052B000016801AD009522463C3223464C33084636
:1052C0006430E43105F09AFFC120A072284605F051
:1052D000CBFF084903F06EF9208905F0D1FFBCBD72
:1052E000E07E132801D8A42000E0AA20A072BCBD53
:1052F000D419002040420F00E0B502684068D17C1C
:10530000022909D1D169D37E5B1ED94001230B400C
:105310007F21C9435B1800E000230549096800901C
:105320004C32DBB208466430E43105F037FF8CBD07
:10533000D4190020FEB5B0C80668BA20307000202D
:105340003860E07C02281AD0042837D11C48016854
:1053500002AD009522463C3223464C330846E430E9
:10536000643105F04BFFC1203070284605F07CFF0A
:10537000144903F01FF9208905F082FFFEBD104893
:105380000168E069E27E01920095521ED0408022C1
:1053900002438123134022463C320846E430643104
:1053A00005F0FCFE2C3410222846214601F0EDF9D0
:1053B00038600198132801D8B4203070FEBDC04673
:1053C000D419002040420F00B0B5002814D00B4D76
:1053D00028684221425C082313434354643008493F
:1053E0002024224601F0C6F9286884300549224667
:1053F00001F0C0F905F076FFB0BDC046D419002019
:1054000017D5061037D5061070B50546C67D0024A1
:10541000300710D5288902F053FC002801D0102451
:1054200009E0064800684221425C042313434354C8
:1054300001200643EE75204670BDC046D4190020F9
:10544000B0B504461448026864320025402128465D
:1054500005F056FF002803D002F052FC122519E097
:10546000E07D60210140602914D0202202406421A7
:10547000635C012119408A1807D19B210840E0751F
:10548000204605F04FFF054604E08425002901D0A1
:105490004006F5D42846B0BDD4190020BCB5134D44
:1054A0002A68643200244021204605F029FF0028A4
:1054B00001D0062417E028684221415C9022114265
:1054C00001D03A240FE044301021224605F05CFF61
:1054D0002A68104654300090104664304432014629
:1054E000234605F05BFE2046BCBDC046D419002013
:1054F00070B50468E67D310708D50579FE200640C1
:10550000208902F0DDFBE675002800D070BD002D7B
:1055100001D0342000E00420C0430449096842223D
:105520008B5C03408B5402F0EBFB70BDD419002060
:10553000F8B500276B4B6C4A3D4618683421405C37
:10554000854200D3CDE01068A4214058002800D146
:10555000B2E0C4192089002800D1ADE0A07A01464C
:10556000D13905295DD3002800D1A5E0FE2800D15E
:105570008AE0A22859D0AA2800D181E0B22854D0CC
:10558000B42800D18AE0BA287AD0BF2800D189E0B7
:10559000F02800D18BE0102800D090E001212046B7
:1055A00005F009FF002800D196E00026A67205F05C
:1055B00017FF00284B4B4C4A7ED06420205CC0076C
:1055C0007AD005F019FF484A464B002874D0E0799C
:1055D000C021014040296FD1444800684821405C07
:1055E000000769D524894248006880694A2202215F
:1055F0000B4601F0B9F93C4A3A4B00285CD0014611
:105600000420487208220A72CE7188718C72FF20C1
:10561000487182200871200AC872022001F000FA45
:1056200048E0204605F0ECFE44E0E07D012600075E
:10563000304613D52046FCF706F9002806D012287C
:1056400004D00E2001F086FD01F0DAFDE07D60213E
:105650000140603948424841224B234AE17C0229FB
:1056600004D1E17B10220A4016091F4A002823D0EA
:10567000002E21D06420205CC00724D04B2023E0E2
:105680002046FCF7F0F815E064202056002813D5DA
:1056900000217422204601F071F80BE0204605F04D
:1056A00051FF07E00021204605F05DFF02E02046A3
:1056B00005F08EFF0C4A0B4B74376D1C3DE72046FE
:1056C000FCF7D5F80AE05B20C043A0720E2001F081
:1056D00041FD01F095FD01E0F120A072014B024A6D
:1056E000EAE7F8BDB0190020D4190020C81900203D
:1056F000B419002010B50446C07D00070DD5204622
:1057000005F0A4FF002803D0842806D0882805D1FE
:105710000E2001F01FFD01F073FD10BD0B210022D2
:105720000123204602F01AFB10BD80B5024664201A
:10573000105CC00710D1907AAF2809D0A9280CD0EE
:10574000AC2816D0A42807D1104605F0DBFF80BD99
:105750000121104605F007FF80BD0020114605F02D
:10576000E3FF0028F8D00E2001F0F4FC01F048FD22
:1057700080BD1046FCF737F880BD80B502F0C0FA56
:1057800080BDFEE7FEB5604F604C386801680029B7
:1057900000D1B8E006F00CF80546008806F012F8D3
:1057A0000028F2D006463868B021405C00280ED0B0
:1057B000082100220123304602F0D0FA00280ED042
:1057C000FD2800D096E0284605F07EFBDDE76868FE
:1057D000007A05280CD12846314606F015F82846EF
:1057E00005F072FB0E2001F0B5FC01F009FDCCE7DD
:1057F000B17AF12901D000290AD16421725C01211A
:10580000114001D10B28DED1002901D00128DAD1C5
:10581000F07D000706D50296019501A8FCF737F840
:10582000FC28CBD16420305CC00707D102960195DB
:1058300001A8FCF730F8FC28C0D122E06868007AA3
:10584000042831D0032837D001281AD1B07A002893
:1058500003D0FB2847D0F128B5D1308906F000F8F5
:10586000024600200146234606F01AF8307E8107E2
:1058700002D50321084330762846314606F036F833
:10588000D9E72846314606F07DF8FC2803D0862863
:1058900099D0842892D1F07D000794D50296019585
:1058A00001A8FBF7F0FF89E7B07AB6288BD128462C
:1058B000314606F009F9BEE7B07AB22809D0B4281B
:1058C00007D0B52800D07EE72846314605F028FCF1
:1058D000B1E7F07C022800D075E738684021415CD0
:1058E000032908D16FE7092100220123304602F085
:1058F00035FAA0E73868294606F076F90F2001F05E
:1059000029FC01F07DFCFEBDD4190020307500009B
:1059100070B505686968097AFD240E2946D1466884
:10592000F07DC00642D5F07C02283FD1307B0228B2
:105930003CD16420305CC007B07A01D1A23800E0CD
:10594000B238032832D8012830D0308905F088FFDA
:1059500002460024164B2046214605F0A1FF1548BB
:1059600000684821405C400620D536896868457A41
:1059700011480068806902214C22032300F0F4FFE3
:10598000002813D001468672042048720A2008724B
:105990000024CC71052088710D73FF20487182208E
:1059A0000871300AC872022001F03AF8204670BD32
:1059B00030750000C8190020B419002080B50146D8
:1059C000006849684268127A0D2A0FD00C2A15D156
:1059D0008A7A10231343FF22B22B18D16423CB5CA5
:1059E000DB07CB7D0CD19B060CD410E08A7A102308
:1059F0001343BB2B0AD106F000F905E0FC2206E0B8
:105A00005B0604D406F036F9024600E0FF22104699
:105A100080BDFEE710B5014600684268127A931E09
:105A2000FC22092B2BD849687B441B795B009F44DF
:105A3000040A142626262626261A8A7AA12A1BD18B
:105A400006F07EF916E08A7AA22A17D0A42A15D089
:105A5000A52A11D105F068FE0CE08A7AA62A0BD19E
:105A600006F0B8F906E08A7AF12A01D0002A03D1BB
:105A700006F028FA024602E0FD2200E0FF2210466E
:105A800010BDFEE7F8B52920C10001241F4D2046B6
:105A9000A8471F4E30601F4FF87A7421A84731681D
:105AA000A422885006F06EFA28212046A8473168C3
:105AB000AC228850F87AC01CC0B2411C164D284652
:105AC000224601F01BFE31688862F87AC01CC1B220
:105AD0000222284601F012FE3168C862084602F030
