:020000041004E6
:1000000000600020CD760510ED760510EF76051026
:1000100000000000000000000000000000000000E0
:10002000000000000000000000000000F176051054
:100030000000000000000000F3760510F5760510C2
:100040000B4B04107F610410AF7A0410CF830410AF
:10005000000000000000000000000000238A0410DF
:10006000FD760510E38A0410178B0410178C04101A
:10007000F795041019770510000000004B77051064
:10008000597705107FA60410337705100000000093
:100090002B7705100000000043770510237705102B
:1000A0002FA704103B77051007AE04105FAE0410B5
:1000B0000000000000000000000000000000000040
:1000C00044120020C62300002800010200001E0088
:1000D000F7000000FFFFFFFF6400011008000003AD
:1000E000F70001000001010202020200000100030A
:1000F000000400004572726F7220696E20424C4508
:100100005F535441434B5F496E697428292030780E
:10011000253032780D0A000020204661696C2020CD
:10012000203A206163695F68616C5F7365745F7416
:10013000785F706F7765725F6C6576656C20636F52
:100140006D6D616E642C20726573756C743A20302D
:1001500078253032580A0000202053756363657398
:10016000733A206163695F68616C5F7365745F7483
:10017000785F706F7765725F6C6576656C20636F12
:100180006D6D616E640A000020204661696C20205C
:10019000203A206163695F676174745F7372765F90
:1001A00070726F66696C655F696E697420636F6DEC
:1001B0006D616E642C20726573756C743A203078B2
:1001C000253032580A0000002020537563636573A0
:1001D000733A206163695F676174745F7372765FFD
:1001E00070726F66696C655F696E697420636F6DAC
:1001F0006D616E640A00000020204661696C202059
:10020000203A206163695F6761705F696E6974207D
:10021000636F6D6D616E642C20726573756C743ADA
:10022000203078253032580A000000002020537515
:1002300063636573733A206163695F6761705F69C7
:100240006E697420636F6D6D616E640A000000005A
:1002500020205374617469632052616E646F6D2055
:10026000426C7565746F6F74682041646472657365
:10027000733A20253032783A253032783A253032B8
:10028000783A253032783A253032783A253032784B
:100290000A00000020204661696C2020203A204797
:1002A00061705F70726F66696C655F7365745F64BF
:1002B00065765F6E616D65202D20446576696365A6
:1002C000204E616D652C20726573756C743A203018
:1002D00078253032580A0000202053756363657317
:1002E000733A204761705F70726F66696C655F7307
:1002F00065745F6465765F6E616D65202D20446571
:1003000076696365204E616D650A000020204661B4
:10031000696C2020203A204761705F70726F6669B7
:100320006C655F7365745F617070656172616E6347
:1003300065202D20417070656172616E63652C20AF
:10034000726573756C743A203078253032580A0023
:100350002020537563636573733A204761705F7043
:10036000726F66696C655F7365745F6170706561FB
:1003700072616E6365202D20417070656172616EDF
:1003800063650A0020204661696C2020203A2061C4
:1003900063695F6761705F7365745F696F5F6361F5
:1003A000706162696C69747920636F6D6D616E64F0
:1003B0002C20726573756C743A2030782530325871
:1003C0000A0000002020537563636573733A20614F
:1003D00063695F6761705F7365745F696F5F6361B5
:1003E000706162696C69747920636F6D6D616E64B0
:1003F0000A00000020204661696C2020203A20611C
:1004000063695F6761705F7365745F73656375725D
:100410006974795F726571756972656D656E747303
:1004200020636F6D6D616E642C20726573756C74E2
:100430003A203078253032580A00000020205375C9
:1004400063636573733A206163695F6761705F73AB
:1004500065745F73656375726974795F72657175D0
:100460006972656D656E747320636F6D6D616E6426
:100470000A00000020204661696C2020203A20619B
:1004800063695F6761705F636F6E666967757265E8
:100490005F66696C7465725F6163636570745F61E8
:1004A0006E645F7265736F6C76696E675F6C69739B
:1004B0007420636F6D6D616E642C20726573756C52
:1004C000743A203078253032580A000020205375C5
:1004D00063636573733A206163695F6761705F632B
:1004E0006F6E6669677572655F66696C7465725F69
:1004F0006163636570745F616E645F7265736F6C76
:1005000076696E675F6C69737420636F6D6D616E81
:10051000640A0000536572766963657320616E64D6
:10052000204368617261637465726973746963738F
:10053000206372656174696F6E0A0000456E642005
:100540006F6620536572766963657320616E6420FF
:10055000436861726163746572697374696373205F
:100560006372656174696F6E0A0000003E3E3D3D36
:10057000204843495F444953434F4E4E45435449F5
:100580004F4E5F434F4D504C4554455F4556545F69
:10059000434F44450A00000020202020202D204306
:1005A0006F6E6E656374696F6E2048616E646C6512
:1005B0003A2020203078253032580A202020202070
:1005C0002D20526561736F6E3A20202020307825EF
:1005D0003032580A000000003E3E3D3D204843496D
:1005E0005F4C455F434F4E4E454354494F4E5F5518
:1005F00050444154455F434F4D504C4554455F5323
:1006000055424556545F434F44450A002020202060
:10061000202D20436F6E6E656374696F6E20496E86
:1006200074657276616C3A20202025642E25303264
:1006300064206D730A20202020202D20436F6E6ED1
:10064000656374696F6E206C6174656E63793A20BE
:1006500020202025640A20202020202D2053757082
:100660006572766973696F6E2054696D656F757414
:100670003A2020202564206D730A00003E3E3D3D57
:10068000204143495F4741505F50524F435F434FC2
:100690004D504C4554455F56534556545F434F4467
:1006A000450A00003E3E3D3D204143495F474150E1
:1006B0005F4B455950524553535F4E4F544946493D
:1006C000434154494F4E5F56534556545F434F4440
:1006D000450A00003E3E3D3D204143495F474150B1
:1006E0005F504153534B45595F5245515F565345F7
:1006F00056545F434F44450A000000003D3D3E3ED6
:10070000206163695F6761705F706173736B6579A6
:100710005F72657370203A204661696C2C207265A7
:1007200061736F6E3A203078253032580A0000002D
:100730003D3D3E3E206163695F6761705F7061733C
:10074000736B65795F72657370203A2053756363CC
:100750006573730A000000003E3E3D3D2041434961
:100760005F4741505F4E554D455249435F434F4DA2
:1007700050415249534F4E5F56414C55455F565379
:100780004556545F434F44450A0000003D3D3E3E00
:10079000206163695F6761705F6E756D6572696323
:1007A0005F636F6D70617269736F6E5F76616C7598
:1007B000655F636F6E6669726D5F7965736E6F20DA
:1007C0003A204661696C2C20726561736F6E3A2025
:1007D0003078253032580A003D3D3E3E2061636945
:1007E0005F6761705F6E756D657269635F636F6D82
:1007F00070617269736F6E5F76616C75655F636F50
:100800006E6669726D5F7965736E6F203A205375FD
:1008100063636573730A00003E3E3D3D20414349DA
:100820005F4741505F50414952494E475F434F4DEA
:10083000504C4554455F56534556545F434F4445CD
:100840000A00000020202020202D205061697269BC
:100850006E67204B4F0A20202020202D20537461EA
:100860007475733A203078253032580A20202020C1
:10087000202D20526561736F6E3A2030782530321A
:10088000580A00003E3E3D3D204143495F474154E8
:10089000545F5352565F524541445F565345565438
:1008A0005F434F44450A00003D3D3E3E20636F6E6E
:1008B0006E656374696F6E5F636F6D706C65746590
:1008C0005F6576656E74204661696C2C2053746197
:1008D0007475733A203078253032580A00000000D1
:1008E0003E3E3D3D206863695F6C655F636F6E6E81
:1008F000656374696F6E5F636F6D706C6574655F5F
:100900006576656E74202D20436F6E6E6563746925
:100910006F6E2068616E646C653A203078253034E3
:10092000580A000020202020202D20436F6E6E6585
:100930006374696F6E2065737461626C6973686556
:1009400064207769746820403A253032783A25303F
:1009500032783A253032783A253032783A253032BA
:10096000783A253032780A0020202020202D20439C
:100970006F6E6E656374696F6E20496E7465727612
:10098000616C3A20202025642E25303264206D735E
:100990000A20202020202D20436F6E6E656374692D
:1009A0006F6E206C6174656E63793A20202020257B
:1009B000640A20202020202D2053757065727669EE
:1009C00073696F6E2054696D656F75743A20256484
:1009D000206D730A000000006863695F6C655F72D8
:1009E0006561645F706879206661696C7572653AEB
:1009F00020726561736F6E3D3078253032580A0081
:100A00003D3D3E3E206863695F6C655F7365745F62
:100A10007068792050485920506172616D202054CF
:100A2000583D2025642C2052583D202564202D203F
:100A3000000000006163695F6761705F7465726DDB
:100A4000696E617465206661696C7572653A2072C1
:100A50006561736F6E3D3078253032580A000000B2
:100A60003D3D3E3E206163695F6761705F74657202
:100A70006D696E617465203A2053756363657373A5
:100A80000A0000006163695F676174745F636C747E
:100A90005F65786368616E67655F636F6E666967DF
:100AA000206661696C7572653A20726561736F6E5C
:100AB0003D3078253032580A000000003D3D3E3E72
:100AC000206163695F676174745F636C745F6578EC
:100AD0006368616E67655F636F6E666967203A2061
:100AE000537563636573730A000000003D3D3E3E2D
:100AF000206163695F6761705F7365745F616476CD
:100B00006572746973696E675F636F6E6669677536
:100B1000726174696F6E202D206661696C2C207281
:100B20006573756C743A203078253032580A0000AD
:100B30003D3D3E3E20537563636573733A206163A8
:100B4000695F6761705F7365745F61647665727415
:100B50006973696E675F636F6E66696775726174EA
:100B6000696F6E0A000000003D3D3E3E20616369F2
:100B70005F6761705F7365745F61647665727469E5
:100B800073696E675F64617461204661696C656456
:100B90002C20726573756C743A2030782530325889
:100BA0000A0000003D3D3E3E20537563636573734C
:100BB0003A206163695F6761705F7365745F616448
:100BC000766572746973696E675F646174610A0047
:100BD0003D3D3E3E206163695F6761705F73657490
:100BE0005F6164766572746973696E675F656E6173
:100BF000626C65204661696C65642C207265737552
:100C00006C743A203078253032580A003D3D3E3E23
:100C100020537563636573733A206163695F67612D
:100C2000705F7365745F6164766572746973696E11
:100C3000675F656E61626C650A00000044697361FC
:100C4000626C65206164766572746973696E672091
:100C50002D206661696C2C20726573756C743A2066
:100C60003078253032580A003D3D3E3E20446973BD
:100C700061626C65206164766572746973696E6720
:100C8000202D20537563636573730A006163695F88
:100C90006C326361705F636F6E6E656374696F6EF3
:100CA0005F706172616D657465725F7570646174A7
:100CB000655F726571202D206661696C2C207265FC
:100CC00073756C743A203078253032580A00000071
:100CD0003D3D3E3E206163695F6C326361705F63DE
:100CE0006F6E6E656374696F6E5F706172616D6562
:100CF0007465725F7570646174655F726571202DD3
:100D000020537563636573730A0000003D3D3E3EEA
:100D1000206163695F6761705F636C6561725F73B7
:100D2000656375726974795F6462202D204661691C
:100D30006C2C20726573756C743A203078253032D3
:100D4000580A00003D3D3E3E206163695F67617067
:100D50005F636C6561725F73656375726974795FF7
:100D60006462202D20537563636573730A0000006D
:100D700020204661696C2020203A206163695F670A
:100D80006174745F7372765F6164645F73657276B9
:100D900069636520636F6D6D616E643A20424153F3
:100DA0002C206572726F7220636F64653A20307810
:100DB0002578200A000000002020537563636573C6
:100DC000733A206163695F676174745F7372765F01
:100DD0006164645F7365727669636520636F6D6DCE
:100DE000616E643A20424153200A0000202046618F
:100DF000696C207265676973746572696E672042F9
:100E000041532068616E646C6572730A00000000D3
:100E100012100400FB349B5F800000800010000073
:100E2000192A00001000000001000000B401002099
:100E3000D0010020FB349B5F800000800010000088
:100E40000F1800001000000001000000000000006A
:100E50000000000001000000100E0410010000005E
:100E600001000000381200202D2D2042415454452D
:100E70005259204C4556454C204150504C49434115
:100E800054494F4E20534552564552203A204E4F1A
:100E900054494649434154494F4E20454E41424CE6
:100EA00045440A002D2D2042415454455259204CAE
:100EB0004556454C204150504C49434154494F4EB2
:100EC00020534552564552203A204E4F54494649E8
:100ED000434154494F4E2044495341424C45440AF2
:100EE0000000000020204661696C2020203A20612B
:100EF00063695F676174745F7372765F6164645F76
:100F00007365727669636520636F6D6D616E643AB7
:100F1000204449532C206572726F7220636F6465A0
:100F20003A2030782578200A0000000020205375F0
:100F300063636573733A206163695F676174745FAB
:100F40007372765F6164645F73657276696365204E
:100F5000636F6D6D616E643A20444953200A00004E
:100F600020204661696C20726567697374657269D7
:100F70006E67204449532068616E646C6572730A21
:100F80000000000002100400FB349B5F8000008022
:100F900000100000292A00001000000000000000DE
:100FA00000000000DC01002002100400FB349B5F05
:100FB0008000008000100000242A000010000000C3
:100FC0000000000000000000E80100200210040002
:100FD000FB349B5F8000008000100000262A000088
:100FE000100000000000000000000000F4010020DC
:100FF00002100400FB349B5F8000008000100000A2
:10100000282A00001000000000000000000000007E
:101010000002002002100400FB349B5F800000806F
:1010200000100000502A0000100000000000000026
:10103000000000000C020020FB349B5F8000008059
:10104000001000000A18000010000000010000005D
:10105000000000000000000005000000840F0410E4
:10106000000000000200000030000020000000002E
:10107000080000002C020020000000000100000019
:10108000EC0700200000FFFF00000000040000004B
:101090008410041000000000020000003200002054
:1010A00000000000010000006EC8041001000000F4
:1010B000010000003912002020000000FB349B5F7B
:1010C0008000008000100000052A000010000000D1
:1010D0000100000010030020881004100A00000026
:1010E000FB349B5F8000008000100000292B000073
:1010F0001000000000000000000000009410041028
:1011000002000000FB349B5F8000008000100000A4
:101110002A2B00001000000000000000000000006A
:101120000000000002000000FB349B5F8000008094
:10113000001000003A2B000010000000000000002A
:1011400000000000A01004104143495F474154547F
:101150005F4154545249425554455F4D4F444946AE
:101160004945445F56534556545F434F44452048D4
:101170004944535F494E5055545245505F4E4F5469
:101180004946595F44495341424C45445F45565492
:101190000A0000004143495F474154545F415454A1
:1011A0005249425554455F4D4F4449464945445F75
:1011B00056534556545F434F444520484944535F76
:1011C000494E5055545245505F4E4F544946595F11
:1011D000454E41424C45445F4556540A00000000CC
:1011E00020204661696C2020203A206163695F6796
:1011F0006174745F636F6E6669726D5F696E646956
:10120000636174696F6E20636F6D6D616E642C2015
:10121000726573756C743A2030782578200A000066
:101220002020537563636573733A206163695F6758
:101230006174745F636F6E6669726D5F696E646915
:10124000636174696F6E20636F6D6D616E640A0017
:1012500020204661696C2020203A206163695F6725
:101260006174745F7372765F6164645F73657276D4
:1012700069636520636F6D6D616E643A204849440F
:10128000532C206572726F7220636F64653A203050
:10129000782578200A000000202053756363657369
:1012A000733A206163695F676174745F7372765F1C
:1012B0006164645F7365727669636520636F6D6DE9
:1012C000616E643A2048494453200A002020466158
:1012D000696C207265676973746572696E6720480E
:1012E0004944532068616E646C6572730A000000A3
:1012F00002100400FB349B5F80000080001000009F
:101300004A2A000010000000000000000000000059
:10131000EC04002004100400FB349B5F800000807C
:10132000001000004C2A0000100000000000000027
:1013300000000000F804002002100400FB349B5F52
:1013400080000080001000004B2A00001000000008
:1013500000000000000000002C0400201A10000013
:10136000FB349B5F80000080001000004D2A0000CD
:101370001000000002000000700300206403002041
:101380000E100000FB349B5F800000800010000006
:101390004D2A00001000000001000000A8030020FA
:1013A00038040020FB349B5F8000008000100000A8
:1013B00012180000100000000100000000000000F2
:1013C0000000000005000000F0120410202046611B
:1013D000696C2020203A206163695F676174745FE3
:1013E0007372765F6E6F7469667920494E505554FA
:1013F00052455020636F6D6D616E642C2065727272
:101400006F7220636F64653A2030782532580A0085
:101410002020537563636573733A206163695F6766
:101420006174745F7372765F6E6F74696679204958
:101430004E50555452455020636F6D6D616E640A75
:101440000000000001000000010000003A1200202E
:10145000484944535F494E5055545245505F4E4F92
:10146000544946595F454E41424C45445F455654A8
:101470000A000000484944535F494E5055545245B4
:10148000505F4E4F544946595F44495341424C4581
:10149000445F4556540A000053656E64696E6720C8
:1014A0006F66205265706F7274204D6170204661C6
:1014B000696C6564206572726F7220307825580AF5
:1014C0000000000053656E64696E67206F662048F7
:1014D000494420496E666F726D6174696F6E204673
:1014E00061696C6564206572726F7220307825586E
:1014F0000A0000004572726F72207768696C65207F
:1015000073656E64696E6720746865207265706FBC
:101510007274203078253032780A000096C298D84C
:101520004539A1F4A033EB2D817D0377F240A4630C
:10153000E5E6BCF847422CE1F2D1176BF551BF3715
:101540006840B6CBCE5E316B5733CE2B169E0F7CE8
:101550004AEBE78E9B7F1AFEE242E34F00F0061053
:1015600000080000AA02000000F80610F8070100B9
:101570000000000096C298D84539A1F4A033EB2DA5
:10158000817D0377F240A463E5E6BCF847422CE195
:10159000F2D1176BF551BF376840B6CBCE5E316BD9
:1015A0005733CE2B169E0F7C4AEBE78E9B7F1AFE9D
:1015B000E242E34F20204661696C2020203A2061FE
:1015C00063695F676174745F7372765F6164645F9F
:1015D0007365727669636520636F6D6D616E643AE1
:1015E00020534350532C206572726F7220636F64D6
:1015F000653A2030782578200A00000020205375B5
:1016000063636573733A206163695F676174745FD4
:101610007372765F6164645F736572766963652077
:10162000636F6D6D616E643A2053435053200A001E
:1016300020204661696C2072656769737465726900
:101640006E6720534350532068616E646C657273FB
:101650000A00000004100400FB349B5F800000803F
:10166000001000004F2A00001000000000000000E1
:1016700000000000F006002010100000FB349B5F0B
:101680008000008000100000312A000010000000DF
:1016900001000000D406002000000000FB349B5F26
:1016A00080000080001000001318000010000000EF
:1016B0000100000000000000000000000200000027
:1016C0005416041001000000010000003E1200202A
:1016D000686A6C747A4C00007072696E74665F732D
:1016E0003A20256E20646973616C6C6F77656400C5
:1016F0007072696E74663A2062616420256E2061A2
:101700007267756D656E74007072696E74665F7372
:101710003A2062616420257320617267756D656E81
:1017200074000000000000006E616E004E414E002B
:10173000696E6600494E460030002E00FB349B5F08
:101740008000008000100000292B00001000000025
:10175000FB349B5F8000008000100000052A000021
:101760001000000002000000030000000300000061
:101770000600000003000000030000003C00000021
:101780007000000070000000D00300007000000036
:10179000C30100007578051017B80410D7B90410FC
:1017A000EBBD0410F3BB04102528041005CC051074
:1017B000EF290410F7290410FF290410072A041048
:1017C0000F2A0410097E0510BF290410AF29041048
:1017D000C7290410D3BE04107FB50410E9280410F3
:1017E00001290410D928041025CA0510E128041085
:1017F00003000000CFD8051029000000F5D805101F
:10180000F57C051059CE0510B5CC051059D0051042
:101810006BD205106BD2051081D3051059D005107D
:101820005BD505105BD505105BD505105DCF0510A8
:101830006FCC051033CC051081D30510352804106A
:101840003D28041041D9051049D9051045D9051086
:101850005D280410652804106D28041075280410F4
:10186000C7D80510852804108D2804109528041069
:101870007D280410E9D80510F1D8051009D9051004
:10188000CBD80510EDD805104DD905108FD905100E
:1018900041B80510000000009DD9051025B70510BE
:1018A00061C905104DDE051009BE051025DE0510C5
:1018B000C5DE0510C7D90510F0B595B0062104A8FE
:1018C00000F0AEFD0620694608730020C881934CE5
:1018D00008A82100342200F0ABFD08A800F0DEFDCE
:1018E000010005D02000343000F00EFE00F0C9FEEB
:1018F0001821002000F0CAFE002805D001002000B9
:10190000583000F001FE03E02000983000F0FCFDAC
:1019100007A9891C012000F0BDFE002805D00100A8
:101920002000C83000F0F0FD04E0842040002018C2
:1019300000F0EAFD0121002000F0E0FE002806D0C2
:1019400001009C204000201800F0DEFD04E0B620DD
:101950004000201800F0D8FD06A8009006AB9B1CA4
:1019600007AA0021012000F0D1FE04AA03A98020CB
:1019700000F054FF04A80178029141780191817828
:101980000091C37802794179C8204000201800F006
:10199000BBFD00BF62A20C21002000F0ECFE00287D
:1019A00006D00100EA204000201800F0ADFD04E060
:1019B00086208000201800F0A7FD03AA921C0221B7
:1019C000002000F0DEFE002806D0010093208000F9
:1019D000201800F099FD04E0A4208000201800F0F9
:1019E00093FD03209549087001F019F8002806D0EE
:1019F0000100B1208000201800F086FD04E0C12025
:101A00008000201800F080FD002000908B49487075
:101A10000820C8701020087101208870009E884D31
:101A2000A85DA9194978092922D0FF293CD1302184
:101A3000AA1991700099D170022111718D215171F3
:101A40008C2191710099D171009911720099517294
:101A500004A94A79AB199A720A79DA72CA781A73A8
:101A60008A785A734A789A730978AA19D1731BE055
:101A7000311869180A78582A16D14A1E1378582B3B
:101A800012D16B461B7C1B096F463F7C3F073F0F03
:101A9000092B01DD373300E030331370092F01DDEE
:101AA000373700E030370F703618761CB6B21F2E6D
:101AB000B6DB002002901020019008200090002347
:101AC00001220021012000F0AEFF002806D0010015
:101AD000CD208000201800F017FD04E0DF208000FA
:101AE000201800F011FD5548807800280FD0012003
:101AF00000F0E4FF002806D00100ED20800020184F
:101B000000F002FD03E04F48201800F0FDFC00BF8C
:101B100006A000F0F9FC15B0F0BD0000C0000410F4
:101B2000484944204B6579626F6172643D3D3E3E99
:101B300020456E6420424C455F496E69742066758D
:101B40006E6374696F6E0A0080B5012000F0C6FFF5
:101B500000F0C7FF012000F0C2FF01BD80B501F019
:101B60008DF801BD80B50021022016E080B502F09D
:101B7000AAF901BD80B5FFF7F5FF01BD80B502F000
:101B8000D5F9FFF7EFFF0121042006E080B502F050
:101B900021FA01BD80B50121012002F093FA01BDB7
:101BA000F8B5294A0021012002F07FFA274A0021D6
:101BB000022002F07AFA264A0021042002F075FA87
:101BC00002F0E2FA02F06AFB0021C943884201D127
:101BD00000F057FDFFF770FE184C0025A5731D4857
:101BE000A08102F0A7FC1CA7380000F08DFC1B4E62
:101BF000300000F089FC02F0AFFB02F019FD02F0AA
:101C000066FD02F076FD3000283000F07DFC3800E3
:101C100000F07AFC012000F009FB114A002180202D
:101C2000800002F042FA0F48A0610F4920001030F6
:101C300001F0CCF928202554F1BD0000E810002067
:101C4000940100200C040000491B04105D1B0410CB
:101C50006D1B0410FFFF00000A00000014050410B3
:101C6000C1230410A523041060EA0000F8B584B075
:101C700005002878042802D0822802D0D7E1EE1C83
:101C800000E02E1D6978C84FC84C052908D01029DE
:101C900000D1BDE13E2950D0FF2900D112E1C3E1BE
:101CA000287969790906090C0843B989884212D153
:101CB000BF48B8810026BE73200000F025FC2979BA
:101CC00068790006000C0143AA7920002C3000F04E
:101CD0001BFCB848067500F05BFBB74C012626706C
:101CE000287969790906090C08436080200002F010
:101CF00027FB2671287969790906090C0843E080D9
:101D0000201D02F093FC2672287969790906090CD6
:101D1000084360812000083002F0D8FC267328793F
:101D200069790906090C0843E08120000C3002F0B3
:101D3000DFFC012000F07AFA79E1E978012900D18D
:101D40009EE0032906D00A2900D18AE00C2900D19F
:101D500083E0B5E020006C3000F0D6FBE879297A0A
:101D60000906090C084302F0C9FC0022B14B02F03D
:101D7000DFFC002280235B0302F09CFDE879297AD6
:101D800021D80906090C0843EE79297A0906090CBD
:101D90000E4302F0B3FC0022A64B02F0C9FC0090F7
:101DA0000191300002F0AAFC0022A24B02F0C0FC1C
:101DB00002F0A8FD02F0B2FC02000B0000980199AD
:101DC00002F02CFE1EE00906090C0843EE79297A80
:101DD0000906090C0E4302F091FC0022954B02F01B
:101DE000A7FC02F08FFD02F099FC009001913000F9
:101DF00002F084FC0022904B02F09AFC009A019BB6
:101E000002F0A9FD00228D4B02F092FC02F07AFD57
:101E1000EA7A297B0906090C0A436B7AA97A090632
:101E2000090C0B43E9792E7A3606360C31430A2524
:101E30005543009506001D00080002F05FFC0022DB
:101E40007C4B02F075FC02F05DFD01002B003200BE
:101E50002000A03000F058FBE9E0012002F042F938
:101E6000E5E0E87F6D1CE97F6D1E0906090C08435B
:101E70006A7FA97F0906090C0A43EB7E297F0BE0E4
:101E8000E87C297D0906090C08436A7CA97C0906BF
:101E9000090C0A43EB7B297C0906090C0B43697981
:101EA000AC792406240C214303900292019328006C
:101EB000093000902B7AEA79287900F015F9B6E01C
:101EC00060A0B2E0307871780906090C0843001F61
:101ED000F5D05B49401A49D0401E10D0401F0AD0AF
:101EE000801E1ED0401E08D0C91F401AE7D02331E3
:101EF000401A63D085E0882011E09C200FE0B420D8
:101F00004000201800F000FBBE49B88900F099FDA0
:101F1000002803D00100C82040001FE0E22040005C
:101F200020E0F6204000201800F0EEFA301D02F00C
:101F3000EDFD01004AA000F0E7FA301D02F0E6FDD9
:101F4000010000BF4DA000F0DFFA0121B88900F0C8
:101F50007CFD002804D0010088208000201864E067
:101F60009B208000201800F0CFFA60E0AB208000BA
:101F7000201800F0C9FA3179002906D07279B6200C
:101F80008000201800F0C0FA03E000BF41A000F07C
:101F9000BBFA9DA000F0B8FA3079401E8041C00F16
:101FA0000449087543E000BFE81000206C050410E8
:101FB000FFFF000064110020AC110020C62080004B
:101FC000201800F0A1FAB179F0790006000C014365
:101FD00036A000F099FAB279F0790006000C0243BD
:101FE000317970790006000C0143B078F3781B0654
:101FF0001B0C1843002301930093082300F04AFDB3
:1020000015E0317870780006000C01432BA00CE03D
:10201000E87804280BDABFF34F8F7C487C490860CE
:10202000BFF34F8F00BFFDE72AA000F06DFA05B0A7
:10203000F0BD00000000F43F0000F4BF0000594074
:10204000FD0300004843495F4C455F4D4554415FE7
:102050004556543A203078253032580A00000000A6
:1020600020202020202D206E756D657269635F76BB
:10207000616C7565203D2025640A00002020202029
:10208000202D204865785F76616C7565203D2025A0
:10209000780A000020202020202D205061697269DC
:1020A0006E6720537563636573730A0048616E64DD
:1020B0006C65203078253034580A00004843495F69
:1020C00056454E444F525F4556543A20307825309D
:1020D00034580A004843495F4556454E543A20302B
:1020E00078253032580A0000F8B588B0594D0024E0
:1020F000020005D00100474800F006FAAC737FE00B
:102100000F9F0E9E68468181434800F0FDF93078AC
:10211000029070780190B0780090F37832797179FC
:102120003E4800F0F1F9380002F0E8FA06AA03C2CE
:1021300006A80CC800203A4902F0FAFA6A4603C21F
:10214000684603C802F0DEFB060002F0E7FA04AAC4
:1021500003C2684603C8002280235B0302F0AAFB87
:1021600006D8684603C804AA0CCA02F057FC0AE065
:1021700006A803C82B4B02F0DBFA02000B0004A8F0
:1021800003C802F0E8FB0022274B02F0D1FA02F06C
:10219000B9FB02001198109B0A21414300913100C4
:1021A0007A4800F0B1F9A87B012801D1032000E0B2
:1021B0000220A87368468089A881804E34706846E2
:1021C00080897080300002F0BBF8347168468089E5
:1021D000F080301D02F02AFA3472684680897081DE
:1021E0003000083002F072FA347368468089F0815A
:1021F00030000C3002F07CFA2800103000F009FFAB
:1022000009B0F0BD40E201000A0000000400FA0538
:102210000CED00E0A8080410E008041024090410E4
:102220000000F43F0000F4BF00005940F1B58EB04B
:1022300080200B90A027734C064E0EAA1278052A18
:1022400042D801A39B5C9F440E041C7E325C042593
:1022500043E000BFE8100020C820C0000B90FA2720
:102260003F01052539E0002500220021002002F071
:1022700058FC010000D17EE0992012E0C827BF0081
:102280000B970025FA21490089B20091ABB23A00C0
:102290000B9989B2B08900F00AFC00286ED00100C9
:1022A000AD20800061E01321B08900F0B4FB00286C
:1022B00003D0010020005C3058E02000883000F09E
:1022C00023F900F06AF85EE00EA80078012804D92E
:1022D000801EC9D0801ED7D055E006210CA800F082
:1022E0009FF800200A900990012008900020079094
:1022F0000120069000200590049003900290072092
:10230000019000970B9B13220221002002F00DFC8C
:10231000002806D001008A204000201800F0F4F8C0
:1023200005E0B573AC204000201800F0EDF8374B05
:102330001F220321002002F02DFC002806D00100FE
:10234000C8204000201800F0DFF804E0E62040003C
:10235000201800F0D9F80CAA0121012002F0E1FBBD
:10236000002806D00100FC204000201800F0CCF826
:1023700009E08D2003E0B573A42000E0BE208000BA
:10238000201800F0C1F80FB0F0BD0000680904107B
:1023900080B5012001F0A6FE01BD80B5012001F04D
:1023A000ABFE01BD80B500218020800001F08AFED7
:1023B0001749184800F00AFE01BD0000AC110020CA
:1023C00080B5144800F025FE0220FFF72FFF002003
:1023D000FFF72CFF01BD000070470B48807B0228EF
:1023E00000D1704780B500F034FB0B4A002804D0C0
:1023F0000100100000F088F801BD1000383000F036
:1024000083F801BDD8090410E810002094010020D1
:1024100060EA0000F81000200C0D04107047000066
:10242000002200BF094202D0491E4254FCD170472D
:1024300070B4103A03D378C9103A78C0FBD253076E
:1024400001D318C918C001D508C908C0D20704D3E0
:102450000B880380891C801C002A01D50B7803702F
:1024600070BC70478B0701D18307E1D0124205D0C1
:102470000B78491C0370401C521EF9D17047830031
:1024800085000700070083008500050007000300A2
:1024900003000F000500820081000500B0B505466D
:1024A000C07A1224802829D8298C172926D31448C9
:1024B000821D914222D8298A17291FD381421DD813
:1024C000A87E00281AD002F069FB002808D0E87E18
:1024D000002813D0802811D8287F401E0E280DD840
:1024E00008483422294602F05BFB02F0C5FB0028B5
:1024F00003D402F037FE002400E087242046B0BD5C
:10250000FA030000B41000200EB4C0B5020003A806
:1025100001900020009001AB0121044878440C3068
:1025200002F08AFE029906B0084700BFC1A601006A
:1025300081B0314901E081B030490A6802430A6044
:10254000096808400090009801B070477CB503F01E
:1025500017FE00F05DF800F081F80820FFF7E8FFB3
:102560000420FFF7E5FF00F0BBFA00BF46A00068BB
:102570000090234C206A0125ED430126304008D10C
:102580002068304320602068284020600120FFF749
:10259000D2FFC020C0050090684603F003FE6846E5
:1025A0000021002206C0206A304008D1206806437E
:1025B00026602068054025600120FFF7BCFF114818
:1025C00000681028FBD36846A02149000180002143
:1025D0008170019100F0B5FA0B480C49016003F0DD
:1025E0009FFF002801D000F04CF8002004F006F80E
:1025F00004F095F8FCE700005000404860004048B7
:102600004000404810180060D411002000003048FD
:1026100080B588B0182102A8FFF702FF68460021A4
:10262000002206C003200290802040020390102068
:10263000059002A804F0D8F8002801D000F021F895
:1026400000200090202001900021684604F0F4F959
:10265000002801D000F015F809B000BD80B586B0A3
:1026600018216846FFF7DCFE02200090C0020590AA
:10267000684604F07DFA002801D000F002F807B0A7
:1026800000BD72B6FEE700000000000080B504F057
:1026900011FB80BDF8B506000F0000203880154CF6
:1026A000200000F0DAF9010023D1200000F0D9F970
:1026B0000400114DF00705D52100280000F0D5F9E0
:1026C000010016D1280000F0D4F93880210028003C
:1026D000243000F0CAF901000BD121002800483055
:1026E00000F0C3F9010004D1210028006C3000F093
:1026F000BCF9F2BD2C030020B810041080B50228EC
:1027000001D9122080BD04F0F9FA80BDFEB50C009D
:10271000089F0025158002990D803D80052101400C
:1027200027D0394E300000F098F9010022D16846D8
:102730000470364C200000F09CF9019908802000BC
:10274000243000F096F902990880300000F089F9F1
:102750003D8069460978022906D1010020006C30CD
:1027600000F083F9010005D12AA20821002000F021
:1027700002F80020FEBD70B504000D0016002348CD
:1027800004E070B504000D001600214800F071F956
:1027900033002A002100401C80B200F001F870BD17
:1027A000F3B581B017001D000024184E694608805B
:1027B00024206043301800F05CF9002804D0401C4D
:1027C00069460988884202D0641C052CF0D3052C88
:1027D0000BD068460389242044433419206A818839
:1027E000DA19914201DB002801D11220FEBD290037
:1027F0003A008068C018FFF735FE206A0178890723
:1028000000D547800020FEBDE802002034020020F1
:102810005802002053544D333257423080B504F0F3
:10282000C7FA80BD80B504F039FB01BD80B504F066
:102830005BFB01BD80B504F07FFB02BD80B504F0F9
:10284000A3FB02BD80B504F0CDFB02BD80B504F052
:10285000CBFB02BD80B504F0C9FB02BD80B504F01E
:10286000E1FB02BD80B504F00FFC02BD80B504F0B1
:1028700027FC02BD80B504F03FFC02BD80B504F02A
:102880007BFC02BD80B504F0BDFC02BD80B504F048
:10289000E9FC02BD80B504F003FD02BD80B504F083
:1028A0001BFD02BD80B504F051FD02BD80B504F0F2
:1028B0004FFD01BD80B504F063FD01BD80B504F09E
:1028C0009FFD02BD1CB56C46247D01946C46247CA2
:1028D000009404F0EBFD13BD80B504F097FE01BD3C
:1028E00080B504F0AFFE01BD80B504F0C7FE01BDA8
:1028F00080B504F019FF01BD80B504F06DFF01BD86
:1029000080B504F0C3FF01BD80B505F04DF802BDF0
:1029100080B505F09DF801BD80B505F0A1F802BDB8
:1029200080B505F0A7F802BD80B505F0C1F801BD7E
:1029300080B505F033F902BD80B505F077F902BD29
:1029400018B587B010AC247806940FAC24780594A1
:102950000EAC247804940DAC247803940CAC247849
:1029600002940BAC247801940AAC2478009405F00E
:1029700095F908B010BD80B505F0BEF901BD80B570
:1029800005F0D4F901BD80B505F0EEF901BD80B5C3
:1029900005F034FA01BD80B505F050FA02BD80B5EE
:1029A00005F068FA02BD80B505F092FA01BD80B568
:1029B00005F0C8FA01BD80B505F0A6FB01BD80B5E4
:1029C00005F0BAFB01BD80B505F0BAFB01BD80B5CD
:1029D00005F07CFC02BD80B505F0CEFC02BD80B5E3
:1029E00005F0F6FC01BD80B505F040FD01BD80B5E8
:1029F00005F0A0FD01BD80B505F0AEFD01BD80B5BF
:102A000005F0CCFD01BD80B505F0ECFD01BD80B544
:102A100005F0A2FE01BD80B505F0B4FE02BD80B593
:102A200005F0B4FE02BD1FB508AC247802946C46D4
:102A3000247F01946C46247E009405F0AFFE04B020
:102A400010BD80B505F0EEFE02BD80B505F0F6FEC6
:102A500002BD80B505F0FAFE02BD80B505F0FBFEB3
:102A600002BD80B505F0FBFE02BD80B505F0FBFEA2
:102A700002BD80B505F0FBFE02BD80B505F0FBFE92
:102A800002BD1CB5059C01946C46248A009405F097
:102A9000F6FE16BD1CB5059C01946C46248A009474
:102AA00005F0FCFE16BD80B505F001FF02BD1CB5AA
:102AB0006C46248A009405F0FEFE16BDE0B501A91F
:102AC000087001220846114605F002FF002800D0D8
:102AD0008CBD01A8007805F019FF8CBD70477047C8
:102AE000704780B5002005F02DFF80BD010005D4A2
:102AF0000121C006C00E81405F4801607047C16877
:102B00000322914302220A43C260704701E00000A1
:102B100000BFC16803229143C160704701617047E3
:102B2000816ABE4A0A408262704700697047816AC2
:102B3000802292050A438262704780687047C068AD
:102B40007047F1B50127B648C06B3843B449C86334
:102B50000846806B384388631720FFF7C7FF1420AF
:102B6000FFF7C4FF00984068002800D00120AD4C5A
:102B700020700025000603D100988078002813D02B
:102B8000A948C1683940FBD017210160C1683943A9
:102B9000C1604560C1683940FCD02000103000F0B1
:102BA000A1FAE069206209E0C82040032062E061E8
:102BB000AD48A061AD482061AD48606100984068B3
:102BC000002802D1A020C0050DE000030A2105F075
:102BD0000DFF6060A74E300000F0E8F9010060686A
:102BE000884202D3300000F0E1F96060257300985C
:102BF0000088A14E3060A16900F0F5FA00208C2118
:102C0000605400213200083203C2854800683061F8
:102C100000203200183203C230216054974AA16963
:102C2000606805F0FFFEA060207821008C310874F8
:102C300020008C30856020008C30077321008C319F
:102C40004D7321008C31CD812000613005704570BD
:102C50008570A565E5658A48A064656500F0ADF9F5
:102C60006268002312184B412000403000F0E8FA5F
:102C7000012000F063FAF1BD00E100E0F8B58CB08E
:102C8000002069460870674F38009930019028E0AD
:102C9000401C1CE0046905738168002900D0884746
:102CA0002000F7D169469420385800F04DFB94215C
:102CB00078506846007801280DD1EFF3108172B684
:102CC00001980078421C019B5B789A42E0D1019AFE
:102CD000107081F310880198407804994018019988
:102CE000487001984078019909780A1A02D2802028
:102CF000400012180026002A29D0049294203C5843
:102D000003940294002502E0260024696D1C002C27
:102D10000FD0207B0028F7D000F04FF902000B0005
:102D200003CC083C801A99410029EDDB01DC062820
:102D3000EAD328000025002802D03561039400E082
:102D4000029503989421785002980028A9E7387BCF
:102D5000002847D066480068012420405BD03E73BD
:102D60006448C178002904D18178002901D0867097
:102D700026E0387800281CD002A800F0B3F90499A6
:102D8000B86E80B200F02FFAEFF3108572B63020E3
:102D90003C54039878610498B861029838610598AA
:102DA000F86100F03BFB85F31088002000F0C6F9C5
:102DB00006E0EFF3108472B600F030FB84F3108865
:102DC000012000F075FB3800403000F022F900F0DF
:102DD000F4F87A68002312184B413800403000F0B4
:102DE0002FFA18E03878002815D000F0E6F83A6F8E
:102DF0007B6FFA2464030025A4185D418D420AD834
:102E000001D3844207D23800403000F002F9380084
:102E1000403000F0F9F90DB0F0BD0000FFFFFFBF3A
:102E200010180060E00C002004100060F8B50400E9
:102E30004C480668EFF3108572B600F045FA4A4F29
:102E40003B00803303CB083B03C4083C5E4AF9696E
:102E50009868801B05F0E6FD020085F3108803CC1E
:102E60000023801A9941F4BDC2F528008D5B000053
:102E7000ECEB6501FFEFFFFF480D0020260300008B
:102E800009320410F8B50B0000D00123364E35008E
:102E900058352B73110000D00121297200246C7267
:102EA000EC720121A972EFF3108772B600F0FEF800
:102EB00003C5083D02460B462800283003C8121AF5
:102EC0008B418548A34201D8824204D3AC7287F378
:102ED00010880120F2BD002000F0EAFA040087F318
:102EE0001088012000F07EFA2000F2BD00000000F2
:102EF00010100060790D002070B50320C0437849A0
:102F00000A6802400A600A681040086020480168A8
:102F1000654A0A400260144C200058300025457272
:102F20004581EFF3108672B600F047F8A26DE36DAD
:102F3000121A8B418C20205C0021121A8B4186F3DF
:102F40001088002B04DC01DB012A01D2012070BDB6
:102F5000002B04DC01DB0F2A01D2022070BD00200F
:102F600070BD000014000060E00C0020EFF3108042
:102F700072B65A4909685A4A091D516011680323FB
:102F8000994302230B43136080F3108870470000BD
:102F9000281800607047A8480100613100226123B1
:102FA000C05C002800D00A708A70704780B5064A5D
:102FB000A149C96905F036FD02BD80B500F084F96C
:102FC0009E4803C804BD000035060000F8B50400A3
:102FD0000D00FFF7F2FF06000F00290D28030A225B
:102FE000002305F040FD8019794102000B0020000C
:102FF00000F026F90400012000F0F4F9E0B2F2BD7F
:1030000010B500F01DF90400012000F0EBF9E0B26A
:1030100010BDF8B5AA4C21680E00002300250A0057
:1030200001E035003669002E07D08642F9D13769B4
:103030008E4201D13A0000E02F616D462B70037380
:103040002068904215D06946100000F07DF920609C
:103050006846007800280DD0EFF3108072B66179D1
:103060004A1CA3799A4200D0491C617180F31088F0
:10307000F1BD2260F1BD18B5002000900098914884
:103080000168094A0A400260AC490A78531C4C782E
:10309000A34200D0521C0A700121C2690A43C261D6
:1030A000C0690140009111BDFFFFFFBF10B50400D2
:1030B00000F00AF9614803C80A00844200D2521C99
:1030C0001100200010BD9E48816801220A438260E1
:1030D000002101607047000066FEFFFF10180060CD
:1030E0000C00006070B50400964D2800FFF725FD28
:1030F00006002800FFF721FD8642F6D1002EF4D00D
:10310000B74932124A43F3B24B43191251181031E6
:103110004911E16026602800FFF711FD0600280034
:10312000FFF70DFD8642F6D1002EF4D0B011B8495C
:10313000484380300012A060666070BDF8B507009B
:10314000B44D687A7D214843C90005F03BFC461C1C
:10315000F6B2394CB04AA1691B2005F063FC287017
:10316000687800F02AF83D216054E878801900F072
:1031700024F8382160542879801900F01EF839218C
:103180006054687900F019F83A216054A87900F089
:1031900014F83B216054002F06D0E878801900F025
:1031A00004F81B303C216054F1BD68214143090AF9
:1031B000DB225043000C0818704700B502001E487F
:1031C00040690021002305F08DFC0322002305F057
:1031D00089FC8022D204002312184B41D20E5801E0
:1031E0000243100000BD80B58B4A05F01BFCAB49C3
:1031F000884201DD080002E0102800DA10200005F6
:10320000000EA749086001BD10B5A64C207B002820
:1032100006D12078002801D0FFF755FF0120207348
:10322000FFF7CBFE00226430514102000B0020006A
:10323000403000F005F810BDE00C0020600D0020CB
:10324000FEB500256C462570017B002901D00120C8
:10325000FEBD0CC0083801210173194C2668019687
:10326000070001E035003669002E08D00CCE083E7C
:1032700003CF083F8B42F5D301D88242F2D3380006
:103280000661002D01D1019000E028610199814281
:1032900013D1694600F058F820606846007800288D
:1032A0000BD0EFF3108072B661794A1CA3799A4271
:1032B00000D0491C617180F3108868460078FEBD1B
:1032C000740D002030180060F8B584B0EFF310865C
:1032D00072B6744C206F616F02AA03C27248FFF786
:1032E00024FC030027008037BB60704D02A803C890
:1032F000009001912A00E169A06F181A05F092FB75
:103300000021009A019B801859410CCF083F994237
:103310000FD801D390420CD2009001912A00E169AC
:103320000020C04305F07EFB0021009A019B80181D
:10333000594103C786F3108805B0F0BD790D002010
:103340000810006000100060F1B584B00F00044662
:103350000020387000E02469002C3ED0207B00283B
:10336000F9D0EFF31080009072B6FFF7ADFF4D4D2E
:1033700003CC083C2A0080320CCA801A994102AA68
:1033800003C202A803C800291DDB01DC01281AD3EF
:10339000214AAB6902A803C8190005F043FB0500E8
:1033A000202D00D82025B34E3000FFF7BEFB40197A
:1033B0000830F0623000FFF7BAFB306B8021C9059E
:1033C0000143316301E001203870009880F31088D8
:1033D0003878002801D0049800E0200005B0F0BD46
:1033E000F6BC080010B5A4490C009834002808D099
:1033F000207800280BD108004030FFF705FF01209E
:1034000004E008004030FFF704FE0020207010BDEB
:1034100053070000C50000202603000070B52248B5
:10342000FFF783FB1F4C25008035A8601F4E32003C
:10343000216AA36FC01A05F0F5FA226F636F0021AD
:1034400080185941206761672078002813D1A86847
:10345000A16F401AA16888420DD23200216A002073
:10346000C04305F0DFFA0200206F616F00231218DD
:103470004B4122676367206F616F03C5083DA868F1
:10348000A067226F0B466068002180185941220016
:10349000283203C2E069206270BD0000FF0F000007
:1034A00008180060E00C00200018006035060000DD
:1034B000F0B585B000216A4611706F4C250060356B
:1034C000A978002900D1BEE0EFF31081049172B613
:1034D000012801D1FFF7F8FE20002830C0C8A26DF6
:1034E000E36DC82080020021801979418B4210D3FE
:1034F00001D882420DD3B9225200002392197B4198
:103500002800203003C88B4201D802D3824200D366
:1035100096E02800203003C800220A305141A26DF5
:10352000E36D00264C3AB341994201D802D3904250
:1035300000D381E03C20275C6020205C29790129B0
:1035400005D1002801D0382006E0392004E0002809
:1035500001D03A2000E03B20205C0190A26D2800C1
:10356000203003C8101A0390444AA169039805F05B
:1035700059FA0290A86A3F4EA9687918C831039A8F
:10358000914202991ED23E4A1278891A019A8F1AE4
:10359000C0197062B06A07218843B062C020C005BC
:1035A000FFF7B4FAC020C005FFF7B2FAB06A802175
:1035B000C9050143B1623000FFF7B9FA01983049FB
:1035C000097813E03D22A25C891A019A8F1AC11969
:1035D000C020C005FFF7A2FA3000FFF7A1FAC02013
:1035E000C005FFF78CFA01983D21615C4018A96A7B
:1035F000029A891822008C3251603A18411D8A4281
:103600000ED2C024E4052000FFF780FA2000FFF767
:103610007FFA3000FFF784FA01206946087005E060
:10362000184AE16905F0FEF98C2160540020A87069
:1036300001206870E87003E0AE70012069460870F0
:10364000049880F310886846007805B0F0BD80B516
:10365000FFF711FDFEF78EFA01BD81B0002000904A
:1036600000980948016801220A430260006800903E
:1036700001B0704700180060E00C00202603000035
:10368000C5000020350600007400006001680022BB
:1036900002814281828182730B78FF2B05D0FE2B41
:1036A00009D103895B1C03810AE04268511A091F92
:1036B000818100207047002B0DD143895B1C438121
:1036C0004A88D21C032313435B1CC9184A1D436854
:1036D0009A42E1D3EDE703207047F3B5079C0899C0
:1036E000250005D06D466C80FE242C706C4600E0F1
:1036F000446885684668AE4217D22678FF2E14D0FB
:10370000067B002E04D0002606732678002E0ED1EC
:1037100046686488E41C032727437F1CF41944602F
:10372000AC4202D22678FF2EEFD10420F6BDFE2E49
:1037300001D00320F6BD6E463679FF2E04D06678A0
:103740006F463F79BE42E3D14068001D106060883B
:103750001880002901D0607808700020F6BD7FB580
:1037600015001C00099E002232800B9A01926A46C5
:10377000128D009202AB03AAFFF7AFFF010013D135
:10378000694609898D4201D306200DE0089A481B3D
:10379000904200DA0200200003994919FEF762FE08
:1037A000684600893080002004B070BDFEB5BB4D76
:1037B0000D40491B6B4619700024070016000AE0F3
:1037C0000422311901A8FEF74DFE019A3919002093
:1037D00005F0A2F9241DAC42F2DB0020C0430190A9
:1037E00068460278711901A8FEF73CFE019A791922
:1037F000002005F091F9F7BD70B544688668B442C1
:1038000002D22678FF2E01D1042070BD007B002853
:1038100001D1FE2E01D0052070BD6588A94201D3DB
:10382000062070BD10001A00231D591805F0E4F998
:10383000002801D00020C04370BD7CB5079C002546
:10384000069E3580250005D06D466C80FE242C70C8
:103850006C4600E0446845688668B54202D2267826
:10386000FF2E01D1042076BD007B002801D1FE2E61
:1038700001D0052076BD6088814201D3062076BD47
:10388000401A984200DA030010001A002B1D591844
:10389000FEF7E8FD608806990880002076BDF8B53F
:1038A00084B007000E001500B44C254203D105F08A
:1038B000A3F9002820D001A80C21FEF7B1FDCD48C6
:1038C0003818C00A0290681E0443641C6003000E8E
:1038D0000390694601A805F09FF900240AE06010F2
:1038E000800F00190321884332583919002005F050
:1038F00013F9241DAC42F2D305B0F0BD01210170D3
:103900000021418081807047F1B588B00C0015001E
:103910001E0000200090FF2229002000FEF782FDFB
:10392000FE206946087507946846458206960E9DF6
:10393000009C05AE19E06846008A6988401A401E5E
:1039400003240443641CA4B268886946098A0A1ADD
:10395000521E03211143491C89B28F4242DB0120D0
:103960000022B94228706A8040D06846408A071B0E
:103970003F1FBFB22878002826D0701C0390A8886B
:10398000029004A8019000970798001D03190022D7
:10399000FF210898FFF7E3FE6946098AA980010024
:1039A0000ED16846008A7080042205A90798001984
:1039B000FEF758FD7088C01C032101436418C1E75D
:1039C00006990C8009B0F0BDA888019004A8009069
:1039D0003B000798021969880898FFF72EFF01003D
:1039E000A9D0EFE700212970C01968806846408A95
:1039F000069908800020E5E7F8B5AE4CA544AE492D
:103A0000020014235A438F187989002901D100201C
:103A100040E004A900F013F9059D02A8FFF76EFF2E
:103A20008026360102A8009001AB320008A904A844
:103A3000FFF76AFF0400042C06D0002C2AD1684648
:103A40008088B042EED103E068468088002808D024
:103A50006846828808A92800FFF721FFAD19002CCD
:103A6000E0D008A80C21FEF7DBFC624828184003D0
:103A7000000E09900698401E711E0143491C481B08
:103A80004003000E0A90694608A805F0C5F8380002
:103A9000FFF7FCFD89498D44F0BD0000FCFF0000EC
:103AA000F8B5844CA54400216A4691710022002398
:103AB000814906000BE0B0680C245C43005D1424CF
:103AC000604308184089002800D001225B1C30792F
:103AD0008342F0DB002A25D080221201FF2108A8B2
:103AE00005F0E2F80025802424010DE002A8FFF78C
:103AF00005FF02A8009001ABE21B92B208A8C11911
:103B000004A8FFF701FF6D1C307985420CDAB0681C
:103B10000C226A43011D8F5804A9805C00F08FF8C5
:103B20000028E3D000201BE0220008A93068FFF73E
:103B3000B6FE614C370069468D7900260CE0B86806
:103B40000C217143405C142148432018FFF79EFD6F
:103B5000010000D00500761C38798642EFDB280092
:103B600056498D44F0BD95498A79824201D102209F
:103B70007047897C8142FAD000207047FF0700001F
:103B8000F8B54C4CA54404000E0080221201FF2120
:103B900008A805F089F800256846047180242401EE
:103BA0001CE00C276F43B068C05D6A4612799042F2
:103BB00013D004A900F043F8B068C019476802A800
:103BC000FFF79CFE02A8009001AB9B1CE21B92B287
:103BD00008A8C11904A8FFF797FE6D1C307985422B
:103BE000DFDB220008A93068FFF759FE00203349C7
:103BF0008D44F0BD0000FCEF10B500246F480C218F
:103C0000614341188A792C4814235343C018036830
:103C1000002B10D1012A0EDC0A6802608B88D218B2
:103C2000426009890182FFF731FD010004D1641C63
:103C3000012CE3DD01E0012010BD002010BD10B516
:103C40000200022A01DB012010BD1B4B1424624339
:103C50009A1813684B6052688A6001220A730870D0
:103C60000020487310BD7FB5694C05781426754354
:103C70006419A47B002C01D00A2008E0039402946C
:103C8000099C01946C46248C0094FFF768FD04B0F5
:103C900070BD7CB5A04C0578142675436419A47BCF
:103CA000002C01D00A2076BD0194069C0094FFF7F9
:103CB000C4FD76BDE0F7FFFF1811002024080000C6
:103CC000FAB583B017000325791E03260E43761C30
:103CD0000CE00C78FF2C18D0FE2C01D0002C69D100
:103CE0004A88D21C2A43521C891841608268416864
:103CF0004B1D9342EDD38849007814225043081895
:103D00004089002854D1022055E00290501A834B7C
:103D1000984201D2521A00E01A467F4C92B2B0B2D9
:103D20006B461B8DC018001D824239DB6846007B44
:103D30000191FE216A461170694648706846008DFF
:103D400030184880009A0199002004F0E5FE049A9A
:103D5000B1B20198001DFFF729FD0B9A6846018D4D
:103D60000198B6B28019001DFFF720FD2000083031
:103D7000029909781422514340180188491C018096
:103D80000298007814214843201881896A46128DD0
:103D9000BA18521E1543491B491F818100200AE0B1
:103DA0000298007814214843201840890028AAD09E
:103DB0000B2000E0032005B0F0BD00005C150410EE
:103DC00010B504006168A06881421ED20878FF28FF
:103DD0001BD0FE2817D1FF22D243002004F09CFE06
:103DE0004D4801000831227814235A4389180A8863
:103DF000521E0A8021781422514340184189491CDF
:103E00004181002010BD052010BD042010BD000020
:103E10001811002078B585B004006946FFF7A3FEAD
:103E20003D4D02281ED1142044432C19256802A8B8
:103E30000C21FEF7F5FA3A4828184003000E0390CB
:103E40006068401E37490143491C481B4003000E6F
:103E5000049001A902A804F0DFFE2000FFF716FC81
:103E600000201BE0012818D100992000FFF788FEF0
:103E7000040010D100260AE0009880680C217143EC
:103E8000405C142148432818FFF700FC761C00987A
:103E900000798642F0DB200000E0012006B070BD12
:103EA0001CB504006946FFF75EFE022803D120001E
:103EB000FFF7A2FD16BD012803D10098FFF7F0FD22
:103EC00016BD012016BD38B5174800214356DAB299
:103ED000114C1425554364196589002D03D0A5891B
:103EE000248AA54207D3521CD2B2022A00D1002252
:103EF0009A42EDD106E0531C5CB2022C00D10023A3
:103F0000190001E00022D2430170100602D4D0B2A1
:103F1000FFF7C6FF002032BD18110020FFFF000090
:103F20000000FCEFFF0700003C120020F0B581B05C
:103F300025490C680025657404F0C0FE234E3068E6
:103F4000C06805F0D7F8002801D0042723E03068C6
:103F5000C06805F0B9F8002801D001271BE03068DF
:103F6000C06805F0B5F8002801D0022713E03068DA
:103F7000C06805F0C7F8052700280CD13068C06874
:103F800005F0C4F8002806D13068C06805F08CF848
:103F900000282F460BD00120B8400D4909680A6857
:103FA00002430A60002005F015FBFDF7F3FD607C7D
:103FB000012807D1217B0F200840A268090905F0DC
:103FC00019FB657401B0F0BD2012002024120020FE
:103FD0001012002080B505F00FFB80BDBCB5584C19
:103FE000A16900910840A06135E0521CD300E5189A
:103FF00003000B402F681F40F7D02A681040014093
:104000006868084002D10020C043686068680840C2
:1040100000F09AF801006A680120884082436A60D3
:104020006162EFF3108172B6626A01209040C24370
:104030002069104020610220C300E318083B1D687E
:1040400015401D60401EF7D181F310883D48616A1C
:104050008900405880472369E2696069256AA1693F
:1040600003400B4003D0154001D10022BEE70020E1
:10407000C0436062206A104014D102F056FBEFF397
:10408000108572B62169E06962690A40A169114030
:1040900004D1216A014001D102F048FB85F3108868
:1040A00005F0C0FA0098A061B3BD38B51400EFF375
:1040B000108572B600F048F8800022490C5085F354
:1040C000108831BD10B5EFF3108272B61C4B1C691D
:1040D00004431C61C90059180B681843086082F337
:1040E000108810BDEFF3108172B6154AD3691843DA
:1040F000D06181F310887047F8B5114D696A00915D
:104100000022D243914201D1002701E001278F40D4
:104110002E6A2862040003E02100380005F083FACB
:10412000E8692040F8D000986862EFF3108072B61A
:10413000E969A143E96180F310882E62F1BD0000B6
:10414000FC0600209C0E00200021020C120401D16C
:1041500010210004020E120601D108310002020FE4
:10416000120701D1091D00011F22511A02A2000FDE
:10417000105C081AC0B27047040302020101010179
:10418000000000000000000010B5FFF735FD424CB4
:10419000211D0020FFF753FD210014310120FFF7FE
:1041A0004EFD201D206010BD3EB53B4D022802D1C2
:1041B0002C00143400E02C1D2C6001936B461B8BEB
:1041C00000930B0001002000FFF77AFD002805D0C6
:1041D000022801D1002000E00120C0433EBDF8B517
:1041E00084B00E0019002C4C022E03D1250014358A
:1041F000012301E0251D00230700256028466D46A8
:104200006A8103910A9D022F08D102A900912B0017
:10421000039A69464989FFF73CFD0FE0002F03D15F
:1042200001001800FFF70BFD02A801900095039B09
:104230006846428931002068FFF715FD010001D171
:10424000002005E0042801D1022000E00120C04345
:1042500005B0F0BD10B5140023000A0001000E489F
:104260000068FFF7C9FA002804D001D5200010BD6E
:104270000220C04310BD80B5022807D10649086856
:104280001431884207D0FFF79BFD01BD032802D1FE
:104290000020FFF7BFFD01BD401100200120FFE716
:1042A00015490860002070470020EFF3108172B6B6
:1042B000114A1368012B02D00120C04301E00323FF
:1042C000136081F3108870470020EFF3108172B6FD
:1042D000094A1368032B02D00120C04301E00123E7
:1042E000136081F31088704780B50A00034905F018
:1042F000CDF902BD00000000D006002074150410A6
:1043000010B50100A54CB5480A78012A04D0052A49
:104310000CD0062A0ED010BD48680078C00701D422
:10432000BBA000E0BDA0FEF7EFF810BDFEF7ECF873
:10433000012003E02430FEF7E7F80020207010BDD4
:1043400096490278002A02D0012A02D0704740889C
:1043500000E0A348488070477CB5A1488F49488059
:1043600005F032FD9F4A00214020FFF79EFE9E4C43
:10437000F72120002430FEF753F84C228E20400015
:10438000211820002430FEF753F82000243000903C
:104390006E464C2030716946022005F0A5FD0100F3
:1043A000924D02D02800FEF7AFF8F721200024300C
:1043B000FEF736F8042221001E3120002430FEF7DB
:1043C00051F820002430009004203071694600200C
:1043D00005F08AFD002804D0010028002C30FEF7EB
:1043E00093F873BD1CB5009369460A710022804999
:1043F000CC68A45CA04203D10B699B5C012B05D067
:10440000521CD2B20B7A9A42F2D106E0634842883B
:104410006946032005F0A5FD16BD122016BD78B52E
:1044200085B005000C0002A80021002206C07048DB
:10443000007D002879D0022005F022FE00200190A6
:1044400004956846047056E0002033E01D341800DF
:1044500041381A2802D21C00C334012218006138E6
:104460001A280CD21C00A334082B1BD0092B04D013
:104470000D2B19D0202B13D017E02B2415E000258D
:10448000680040195B4909180E789E4203D06D1CE4
:10449000212DE9DAF4E7574C4A78A11C0C5CE3E7DC
:1044A0002C2402E02A2400E0282402A88470002A98
:1044B000CAD002206946087202AB082201210020FE
:1044C000FFF790FF002803D001004B48FEF71CF8CF
:1044D000002002A908708870142402AB0822012170
:1044E0000020FFF77FFF641E882801D1002CF4D143
:1044F0000198401C0190019869460978884217DAB2
:1045000004980199415C3DA0FDF7FEFF04980199D4
:10451000435C00240022180030380A2897D21C007F
:10452000D034200692D1272491E7022005F0ACFD7B
:1045300006B070BD10B52C48002101700122027236
:10454000022343722E4CC46021706270A170E3702C
:104550000182817481758277C2772023C154212121
:1045600042544C214170D0314118416010BD38B5E2
:10457000244C254D0DE0215C6A461170401C8021C1
:10458000C900884200D10020686001216846FFF719
:1045900046FF686829688142EDD131BDF0110020E5
:1045A000F8B502000800184C2168164D0092002250
:1045B0000AE0009E97B2F65D6E54491C8026F60014
:1045C000B14200D10021521C96B28642F1D3216043
:1045D00000214020FFF776FDF1BD000050140410CB
:1045E000FFFF00006F45041004050020981404101C
:1045F000641100206C060020F414041025630000F0
:10460000F4110020F0070020E011002070470000A6
:1046100053757370656E640D0A0000004578697407
:104620002073757370656E640D0A0000704700009A
:104630003EB505F069FE14A000906C460420207180
:104640006946002005F0A0FE11A00090092020710D
:104650006946012005F098FE10A0009005252571FF
:104660006946022005F090FE0EA000902571694673
:10467000032005F089FE0548009007202071694657
:10468000042005F081FE37BD53544D001802002070
:10469000343530322D312E300000000030363330CA
:1046A00000000000303030310000000010B5010083
:1046B0000BA40C480978012902D0022905D13C300D
:1046C000FDF722FF2000FDF71FFF10BD704780B5EA
:1046D00005F0E1FE044A00218020FFF7E6FC01BD61
:1046E000200A0D00680E0410ED4604107047704754
:1046F000704780B505F05CFF01BD704701004222A4
:104700001201D21E004207D002D4521E0018FCD55E
:10471000C10A400512058918704700000100EED556
:104720004042F446FFF7EBFF0122D20711436047F6
:10473000F0B50E005E400125ED072E40B446AE0AEE
:10474000DF184C18F44208D2F7420ED2640D01D0A3
:104750007F0D12D100206146F0BD05D1F74201D88E
:104760007F0D05D10020C143F0BDFBD1640DF9D010
:104770000020C143490549088FE0E419C902DB0262
:1047800029432B43DB0A460DC00231438E4630B429
:1047900087B295B27D432E0CADB2140C7C43A419A4
:1047A000260C240425439CB27C43A419190C79439C
:1047B000270CC919A4B20F043C43090C000C97B292
:1047C00047432E0CBE193543ADB2170C4743360C88
:1047D000BF19A6B2BF193E043543240C3E0C36194E
:1047E0009FB24743BF19BCB23E0C89191F0C474307
:1047F0007F183E043443390C704680B297B2474369
:104800002E0CBE193543ADB2170C4743360CBF19F9
:10481000A6B2BF193E043543240C3E0C36199FB294
:104820004743BF19BCB23E0C89191F0C47437F1880
:104830003E043443390C77463F0C90B278432E0C3B
:1048400080190604ADB22E43050CA0B22D18120C2F
:104850007A435019020C80B2240CA4189AB27A43FD
:10486000121914042043120C89181B0C7B43C9181D
:1048700030BCEF0A394203D1B61940414941641EA8
:104880006F12BF0DE41B0BDBFF19BC4211DA2405CC
:1048900000274208AE417841614166463143F0BD90
:1048A000641C05D1401C6141CF0201D34908F4E7E3
:1048B00050E75DE730B4012464054D00EC420BD8AD
:1048C0005D00EC4208D80C001C4364000443144310
:1048D00004D28B4200D1824230BC7047FCD0994256
:1048E000FAD19042F8E70300FFFFFFFFFFFFFFFF51
:1048F000FFFFFFFFFFFF010000000000FFFF0100BE
:104900000000FFFFF4464A1805D200F00FF801D569
:1049100080174008604700F009F80121C907884264
:1049200000D90800404260474A1812D2400DC9021F
:1049300008430121C9070843520D40210901521AB9
:10494000521C06D452421F3201D4D0407047C017C7
:10495000704700207047F0B40125ED070F005F405D
:104960004FD48B4200D1824205D984461000624662
:104970008C4619006346DF184C18640D7F0D3AD041
:10498000661C760537D0E61B352E34DCDB022B4364
:10499000DB0A0C0DC9022943C912202E0DDB1700BA
:1049A000203E06D01F00F741F3405F400026012A59
:1049B0007741C01871410DD217E01700F741F2405E
:1049C0005740F3415A40B340F3405A400026801804
:1049D00059410AD3A21C52050FD0C207012F7241C0
:1049E00017004008CB0718434908641C24054208F7
:1049F000AF4170416141F0BC7047641C210500204B
:104A0000F9E76B4010E06B40ABE7F742F3D1E943C5
:104A1000F1E72442EFD100200021ECE7F0B40125BA
:104A2000ED070F005F40EED40C00871A9C4105D2C1
:104A3000C01BA141D219634169406B40AE0ADF1827
:104A40004C18F442E1D2640D7F0DE2D0E61B362E05
:104A5000D1DCDB022B43DB0AA4460C0DC90229433F
:104A6000C90A012E28DC04D1D6075208DF073A43D1
:104A70005B08EF0A76429041994114D039423BD10C
:104A8000B61940414941761C394204D1761C0018C0
:104A900049413942FAD0B9436746B74208D9A41B05
:104AA00024052143A7E70042EAD13642E8D1A2E734
:104AB000E40AE10700209EE7202E0BDD203E1F00C8
:104AC000F340F7415F40012A002257417E4298415E
:104AD00091410BE01700F741F2405740F3415A4033
:104AE000B340F3405A407E42904199410A0303D2B9
:104AF000641EB619404149410027641E240542083E
:104B0000AE4178416141F0BC7047FEE7C3788278DE
:104B1000417800781B021A4309021204084310432B
:104B2000704780B505F07CFD80BDF0B593B01F46A1
:104B300015460E4612901C9C08461146224605F06A
:104B400073FD002824D122980D901FAB0DCB11903E
:104B50001E980F901D980E901B980C901A991998FA
:104B60001097189F089209930D9A0A920097019046
:104B700002910C98039004940E9805900F9806905B
:104B800011980790129831462A46109B05F05FFD58
:104B900013B0F0BD80B505F06CFD80BD00207047FE
:104BA00080B505F06DFD01BD80B50B0011001A0048
:104BB000FDF738FC01BD80B504F01EF802BD7FB5DD
:104BC00004000D001600684605F0B2FD6846017845
:104BD000217041782970807830707FBD80B5FFF7F3
:104BE00083FB02BD80B504F051FD02BD80B505F028
:104BF000E3FD01BD80B505F021FE02BD80B505F0E5
:104C00003FFE02BD80B505F06FFF02BD80B505F027
:104C1000BAFF01BD80B505F0BEFF01BD80B505F04E
:104C2000CFFF02BD80B505F0CDFF02BD80B505F018
:104C3000CBFF01BD80B501F015FC02BD80B5FEF7CC
:104C4000BCF904BD80B5FEF7DBF902BD80B5FEF707
:104C5000E0F901BD80B5FEF715F9C0B202BD80B51F
:104C6000FEF74AF9C0B202BD80B5FEF7DFF804BD19
:104C700080B5FEF77BF901BDF0B59BB0EB4818900D
:104C80007F20C643FDF7E2FDE94DEA4F012804D03D
:104C9000E87A002801D1189812E034467834FDF7FC
:104CA000D5FDE97A6143E14A5043101844183D4666
:104CB0005C35FDF7CBFD6843DD4DE97A4143601873
:104CC00062301890FDF7C2FD01280ED130467830D1
:104CD0002989414330465C30AA7A42435018314614
:104CE00060312A7B4A43801800E000200490EC8960
:104CF00005F0F2FF012801D005F0F0FFFDF7A2FD5D
:104D00000128149409D134465034FDF79FFD6043C7
:104D1000E97A414308390A9101E000200A90C64C23
:104D200005F0DCFF0128204616D005F0D5FF01284C
:104D3000204611D02920285C002820460CD12520AF
:104D4000285C0028204607D12620285C002801D0B6
:104D5000204601E030463C3013902046203015902C
:104D600005F0BCFF012815D005F0B6FF012811D0D1
:104D70002920285C00280DD12520285C002809D195
:104D80002620285C002802D02046203001E0304652
:104D90005430159005F0A2FF1190A87E0190E87F95
:104DA0001090FDF753FD1290E87F029005F098FFF8
:104DB0000990E87F0390FDF775FD002705F092FF4D
:104DC000012838461A96199752D105F087FF012815
:104DD00013D1687F0A2800D30A20169020360027B6
:104DE00005F082FF0128179721D1FDF72FFD01283B
:104DF00006D01A9B18466C3005E0D748C03036E024
:104E00001A9B18466030D5496431AA7F4A4310186E
:104E10002C461D467835E17F2A468A408718FDF7E3
:104E200015FD012802D1E07A45437F1925461698E1
:104E30004643FFF7B3FE169005F056FF044616985A
:104E40000440FDF703FD2040012809D1E87E401E03
:104E500003210143A87FE0224243D043401A179028
:104E6000BD483018C019179940181A9EBB4C199F9D
:104E70000890FDF7EBFC0128394609D105F036FF13
:104E80000128394604D12220285C31462C31414387
:104E90000F9105F029FF0128384621D120465830CE
:104EA000A97E414330466030EA7A424354180025D7
:104EB000FFF774FE012810D1FDF7C8FC01280CD1C2
:104EC00030467030A34B197F414330467430DA7E50
:104ED00042435018E4389D7E454360199D4D199F0B
:104EE0000E9005F005FF012838463BD1FDF7AEFCDA
:104EF000012803D02C463546743505E0304678301D
:104F00002C46ED7A45430C3D2326A05D0021002868
:104F10001791084605D0FDF799FCA05D404203219A
:104F2000884340192425615D1A9A7C324A438618C9
:104F300005F0D8FE012810D105F0D0FE01280CD1D3
:104F400005F0D2FE0128199F179808D18148405DCD
:104F5000002804D01A98683001E0199F179830187B
:104F60007C4D1A9E0D90FDF771FC0128394609D140
:104F700005F0C0FE0128394604D130465C30E97A9C
:104F8000414314390C91FDF761FC0128394608D1E1
:104F900005F0B2FE0128394603D130466430E97A83
:104FA00041430B9126201790285C069025201690EF
:104FB000285C05902926A85D079005F08FFE044621
:104FC00005F092FEE0423C461AD01798285C282152
:104FD000695C1A9F3C4678344C43F43C444305F0EA
:104FE00081FE00280AD01698295C2720285C6C379F
:104FF00047435A48C0190C30484300E000200419C8
:10500000A85D00281AD0FDF721FC0028049B059F0D
:1050100016D02A20285C514970314143A85D1A9A64
:1050200050434018383819900AE0C0467CFBFFFF17
:10503000B41000200CFDFFFFDCFEFFFF049B059F6A
:10504000189818181A9B19465C31149A5143401845
:105050000A99401813994018159940181946783143
:105060000A46109EB2408018119A012A07D13B4A85
:10507000683A019E72431018132212018018099E8B
:10508000069ABA18129F012F02D1029FB940401808
:1050900007995118012E05D11A463032039EB240AD
:1050A00010187038089A80180F9A80180E9A801875
:1050B0000D9A80180C9A80180B9A8018002904D039
:1050C0001A4648324A4310180C38001919994418E6
:1050D0002820285C199017982F5C2A20285C1890AB
:1050E0002720285C179016982E5CFDF7AFFB01284F
:1050F00005D12B20285C1A9938314143641805F0FA
:10510000FDFD012801D1164824181998189A1799FD
:105110004E43B1184743B818C84208D01A9B1A46E4
:1051200058324A434433434398180419183C094DF4
:10513000686820180321C943EA8DD21C0A40AB8D50
:10514000DB1C0B409A182B8EDB1C0B40D118401A2D
:105150001BB0F0BDB41000200CFDFFFFDCFEFFFF14
:1051600014F6FFFFF0B595B00120810414912E488C
:105170000160BFF34F8FBFF36F8F03F072FFFFF734
:105180006EFD00201290C04303F059FF05F0A4FD0E
:105190001390FDF757FB119005F0A0FD109005F05E
:1051A0009FFD0F90FDF77EFB05F09CFD0E9005F036
:1051B0009DFD0D9005F098FD0C90FFF7EFFC0B9016
:1051C00005F096FD044605F095FD0546FDF73EFB0E
:1051D000064605F091FD074605F090FDC0B2F9B214
:1051E00008910990F0B2E9B2E2B20B9BDBB20C9CE1
:1051F000E4B20D9DEDB20E9EF6B2129F009701969D
:105200000295039404930592069107901398C0B2F7
:105210001199C9B20F9AD3B2109A05F071FD0348E3
:105220001499016015B0F0BD80E100E000E100E0FC
:105230000100202008437047FDB5B2B03A980491B0
:1052400002A93B22885400200D9024A8401C2F90D6
:105250000DE00498329A90470490002801D100F0A4
:10526000B7FE0D98401C0D903398401C3390339836
:105270000178002910D02529EBD100200790089053
:1052800009900A900B900C900021022401201490A8
:1052900008201290339D05E00D9800F09BFE080059
:1052A000149901436D1C28782028F8D023280BD0AE
:1052B0002B2804D02D2804D0302808D00AE0214320
:1052C000F0E708000421ECE708000821E9E70800FE
:1052D0001021E6E72A280FD1349802681068121DC1
:1052E000349B1A600F90002804D542420F920800A8
:1052F000042101436D1C12E000200F90644A09E074
:105300000F9B934205DA9E00F3185B0018183038A3
:105310000F906D1C28780300303B0A2BF0D32878BF
:105320002E2803D00020C0430E9027E06D1C287863
:105330002A2808D1349800680268001D349B186040
:105340000E926D1C1AE02D2802D12D226D1C00E05A
:10535000002200200E900CE0002A09D10E9B4C4E3A
:10536000B34205DA9E00F3185B00181830380E902F
:105370006D1C28780300303B0A2BEDD302A801876F
:105380002E78310040487844FF30401E05F032FD51
:10539000002801D06D1C00E0002602A83A214654E6
:1053A000405C682804D1287868280BD1622005E089
:1053B0006C2807D128786C2804D1712002A93A22E0
:1053C00088546D1C15A80690287869460870681CDA
:1053D0003390684602781000253833D01C3800D14D
:1053E000CCE1001F022800D8C8E1133801D100F039
:1053F00019FD093800D1C1E1801E01D100F0AFFDD7
:10540000401E01D100F05CFD401E022800D8B5E12D
:10541000001F01D100F054FD401F00D108E1401EE3
:1054200001D100F0FFFC401E00D1F0E0C01E0ED004
:10543000801E01D100F0F6FCC01E01D100F0F2FC8C
:1054400000F098FD14980790252015A97CE1349868
:1054500000680468001D349908600594002C00D091
:10546000C1E002A83B21405C002800D1B5E0002447
:10547000E44306487844143005F0C6FC201A01D0F5
:1054800000F0A6FD00F083FD48C2FFFF7CC2FFFFD5
:10549000CBCCCC0C01236A4602A9280000F054FEB4
:1054A000002801D000F094FD641EF3D13295079DD1
:1054B00015AC002D0FD0329E21780498B04704908F
:1054C000002801D100F084FD0D98401C0D90641C53
:1054D0006D1EF1D132963020694608700A9C002C6E
:1054E0000DDD329D01236A4602A9280000F02CFE42
:1054F000002801D000F06CFD641EF3D13295059CAC
:10550000089D002D0FD0329E21780498B04704905A
:10551000002801D100F05CFD0D98401C0D90641C2A
:105520006D1EF1D13296302769460F700B9C002C0E
:105530000DDD329D01236A4602A9280000F004FE19
:10554000002801D000F044FD641EF3D13295059887
:1055500008994418099D002D0FD0329E2178049897
:10556000B0470490002801D100F032FD0D98401C96
:105570000D90641C6D1EF1D13296684607700C9C2C
:10558000002C0DDD329D01236A4602A9280000F09F
:10559000DBFD002801D000F01BFD641EF3D1329525
:1055A00002A83821405C400700D460E6202069460C
:1055B00008700198002800DC59E6019C329D012307
:1055C0006A4602A9280000F0BFFD002801D000F0C3
:1055D000FFFC641EF3D1329549E61B4878446830DD
:1055E000059000F0D4FC0E9D002D03D5200005F0A1
:1055F0002FFC09E02A000021200005F031FC0028E2
:1056000001D0001B00E02800089000F0C0FC349896
:1056100000680268001D349908600020C043002122
:10562000104002AA03C215A80590782100F093FC4F
:1056300002A83B21415C002908D00024E4434B48E8
:105640007844FF30293017E7DCC0FFFF3A21405C87
:1056500062286AD0682819D06A2845D06C2806D0FC
:1056600071284FD0742831D07A2821D06FE0349837
:1056700000680168001D349A106000297AD1002466
:10568000E4433B487844FF301738F5E63498006827
:105690000168001D349A1060002905D10024E443FC
:1056A00033487844CA30E7E60D98088000F06FFC74
:1056B000349800680168001D349A1060002959D19F
:1056C0000024E4432A487844A630D5E6349800689C
:1056D0000168001D349A106000294BD10024E44376
:1056E000234878448A30C7E6349800680268001D71
:1056F00034990860002A13D10024E4431C487844FC
:105700006E30B9E6349800680268001D349908606C
:10571000002A05D10024E443154878445230ABE612
:105720000D98C11703C200F032FC3498006801687C
:10573000001D349A1060002905D10024E4430C4870
:1057400078442C3098E60D98087000F020FC3498CE
:1057500000680168001D349A106000290AD10024F5
:10576000E44303487844083086E600BF6CBFFFFF7F
:1057700080BFFFFF0D98086000F009FC34980068B6
:10578000C31D072083433498036003CB349D2B60F3
:1057900002AB03C32023C80F04D007982D2115ABFB
:1057A00019540DE002A8008F204204D007982B2145
:1057B00015AB195404E0C00704D5079815A90B547C
:1057C000401C079015A8079940181390139805904E
:1057D00024AD02A8C0C8684600782021014368466D
:1057E0008170807861280BD00E98002801D50620A2
:1057F00005E005D168468078672801D114980E909D
:1058000002A803C808004B005B150024E443A34230
:105810000ED109030CD003200890613A1A2A03D252
:105820001949794462310FE0184979445E310BE03F
:10583000A3420ED100030CD103200890613A1A2A2A
:105840001DD313497944483103221398FCF70AFE0B
:105850009DE301AA02A803C805F00DFB02AA03C23A
:105860006846807861281CD1059830210170811C20
:1058700005916946097861290ED178210DE0054925
:1058800079441031E0E700BFA0BEFFFFA0BEFFFFDC
:10589000A4BEFFFF9CBEFFFF582141700798801CEB
:1058A000079002A803C82246530802400B4004D1C7
:1058B000002A02D10024002652E16846807861283F
:1058C00000D099E00E98002801D5212000E0401C6E
:1058D00013901398401C2E903000390000220023B2
:1058E00005F0DEFA02A830C802D28020000645404A
:1058F0000198001F019024A90A7024A8461C2E9824
:10590000002832DD2E9F20002900002280235B0327
:10591000FEF7D0FF29D81C2205F0DBFA04000D00A9
:10592000FEF7F0FF2E90FF1F002F09DDFEF7F6FEB9
:1059300002000B0020002900FFF770F804000D00A2
:10594000F01D07212E9A002A0ADD491E08D4401EA8
:1059500013071B0F03701211F5E7401E002202709F
:10596000491EFAD5C61D002FCDDC24A82F99711A27
:1059700024AA551C139A0C00914200DD1400002C3F
:1059800033D48C4205DA411C095D082901DB0F2163
:1059900000E00021220024AB9B1801E0641E5B1E86
:1059A000521E1E788E42F9D00F2904D1411C895C09
:1059B000491C401C8154002A04D524AD641C019864
:1059C000001D0190611E10D46A1868460078137893
:1059D0003033DEB23A2E01DBC318C6331370491ED2
:1059E000521E0029F3D5694608700E98002800D48D
:1059F000B5E0601E0E90B2E07F007F080198664916
:105A00004843664902F0DEFF019007200199401AE1
:105A1000002805DD02003000390000F06FFB0AE0CD
:105A2000424200205E4900F069FB02000B0030009A
:105A3000390005F086FA6A469278662A02D1019A00
:105A40000A3200E006220E9B9A18142A00DD142266
:105A500024AB30241C705C1C02E030A803C8139AED
:105A6000002A3CDD30AB03C3139230A803C8FEF715
:105A70005BFF2E9006460834042530000A2102F010
:105A8000B5FF0F0030000A2102F0B0FF06003037EA
:105A9000601E077030000A2102F0A8FF0F003000DE
:105AA0000A2102F0A3FF0600A41E303727706D1EE6
:105AB000E3D108341398083813900028CDDD2E98D0
:105AC000FEF71CFE02000B0030A803C8FEF7A6FF7D
:105AD0000022344BFEF72CFE30AA03C2C5E72F98F4
