:020000041004E6
:1000000000600020296C0510496C05104B6C051030
:1000100000000000000000000000000000000000E0
:100020000000000000000000000000004D6C051002
:1000300000000000000000004F6C0510516C05101E
:100040009F4B04108F6104105B7A0410EF8304103F
:10005000000000000000000000000000938B04106E
:10006000596C0510C78B0410C78C04106B970410D3
:10007000BBA70410756C0510000000009F6C0510F4
:10008000AD6C05106BA804108F6C0510000000000B
:10009000876C051000000000000000007F6C051058
:1000A00043AF0410976C05109BAF04109BB4041071
:1000B0000000000000000000000000000000000040
:1000C00044120020262500002800020200001E0025
:1000D000F7000000FFFFFFFF6400011008000003AD
:1000E000F70001000001010202020200000100030A
:1000F000000400004572726F7220696E20424C4508
:100100005F535441434B5F496E697428292030780E
:10011000253032780D0A000020204661696C2020CD
:10012000203A206163695F68616C5F7365745F7416
:10013000785F706F7765725F6C6576656C20636F52
:100140006D6D616E642C20726573756C743A20302D
:1001500078253032580A0000202053756363657398
:10016000733A206163695F68616C5F7365745F7483
:10017000785F706F7765725F6C6576656C20636F12
:100180006D6D616E640A000020204661696C20205C
:10019000203A206163695F676174745F7372765F90
:1001A00070726F66696C655F696E697420636F6DEC
:1001B0006D616E642C20726573756C743A203078B2
:1001C000253032580A0000002020537563636573A0
:1001D000733A206163695F676174745F7372765FFD
:1001E00070726F66696C655F696E697420636F6DAC
:1001F0006D616E640A00000020204661696C202059
:10020000203A206163695F6761705F696E6974207D
:10021000636F6D6D616E642C20726573756C743ADA
:10022000203078253032580A000000002020537515
:1002300063636573733A206163695F6761705F69C7
:100240006E697420636F6D6D616E640A000000005A
:1002500020205374617469632052616E646F6D2055
:10026000426C7565746F6F74682041646472657365
:10027000733A20253032783A253032783A253032B8
:10028000783A253032783A253032783A253032784B
:100290000A00000020204661696C2020203A204797
:1002A00061705F70726F66696C655F7365745F64BF
:1002B00065765F6E616D65202D20446576696365A6
:1002C000204E616D652C20726573756C743A203018
:1002D00078253032580A0000202053756363657317
:1002E000733A204761705F70726F66696C655F7307
:1002F00065745F6465765F6E616D65202D20446571
:1003000076696365204E616D650A000020204661B4
:10031000696C2020203A204761705F70726F6669B7
:100320006C655F7365745F617070656172616E6347
:1003300065202D20417070656172616E63652C20AF
:10034000726573756C743A203078253032580A0023
:100350002020537563636573733A204761705F7043
:10036000726F66696C655F7365745F6170706561FB
:1003700072616E6365202D20417070656172616EDF
:1003800063650A0020204661696C2020203A2061C4
:1003900063695F6761705F7365745F696F5F6361F5
:1003A000706162696C69747920636F6D6D616E64F0
:1003B0002C20726573756C743A2030782530325871
:1003C0000A0000002020537563636573733A20614F
:1003D00063695F6761705F7365745F696F5F6361B5
:1003E000706162696C69747920636F6D6D616E64B0
:1003F0000A00000020204661696C2020203A20611C
:1004000063695F6761705F7365745F73656375725D
:100410006974795F726571756972656D656E747303
:1004200020636F6D6D616E642C20726573756C74E2
:100430003A203078253032580A00000020205375C9
:1004400063636573733A206163695F6761705F73AB
:1004500065745F73656375726974795F72657175D0
:100460006972656D656E747320636F6D6D616E6426
:100470000A00000020204661696C2020203A20619B
:1004800063695F6761705F636F6E666967757265E8
:100490005F66696C7465725F6163636570745F61E8
:1004A0006E645F7265736F6C76696E675F6C69739B
:1004B0007420636F6D6D616E642C20726573756C52
:1004C000743A203078253032580A000020205375C5
:1004D00063636573733A206163695F6761705F632B
:1004E0006F6E6669677572655F66696C7465725F69
:1004F0006163636570745F616E645F7265736F6C76
:1005000076696E675F6C69737420636F6D6D616E81
:10051000640A0000536572766963657320616E64D6
:10052000204368617261637465726973746963738F
:10053000206372656174696F6E0A0000456E642005
:100540006F6620536572766963657320616E6420FF
:10055000436861726163746572697374696373205F
:100560006372656174696F6E0A0000003E3E3D3D36
:10057000204843495F444953434F4E4E45435449F5
:100580004F4E5F434F4D504C4554455F4556545F69
:10059000434F44450A00000020202020202D204306
:1005A0006F6E6E656374696F6E2048616E646C6512
:1005B0003A2020203078253032580A202020202070
:1005C0002D20526561736F6E3A20202020307825EF
:1005D0003032580A000000003E3E3D3D204843496D
:1005E0005F4C455F434F4E4E454354494F4E5F5518
:1005F00050444154455F434F4D504C4554455F5323
:1006000055424556545F434F44450A002020202060
:10061000202D20436F6E6E656374696F6E20496E86
:1006200074657276616C3A20202025642E25303264
:1006300064206D730A20202020202D20436F6E6ED1
:10064000656374696F6E206C6174656E63793A20BE
:1006500020202025640A20202020202D2053757082
:100660006572766973696F6E2054696D656F757414
:100670003A2020202564206D730A00003E3E3D3D57
:10068000204143495F4741505F50524F435F434FC2
:100690004D504C4554455F56534556545F434F4467
:1006A000450A00003E3E3D3D204143495F474150E1
:1006B0005F4B455950524553535F4E4F544946493D
:1006C000434154494F4E5F56534556545F434F4440
:1006D000450A00003E3E3D3D204143495F474150B1
:1006E0005F504153534B45595F5245515F565345F7
:1006F00056545F434F44450A000000003D3D3E3ED6
:10070000206163695F6761705F706173736B6579A6
:100710005F72657370203A204661696C2C207265A7
:1007200061736F6E3A203078253032580A0000002D
:100730003D3D3E3E206163695F6761705F7061733C
:10074000736B65795F72657370203A2053756363CC
:100750006573730A000000003E3E3D3D2041434961
:100760005F4741505F4E554D455249435F434F4DA2
:1007700050415249534F4E5F56414C55455F565379
:100780004556545F434F44450A0000003D3D3E3E00
:10079000206163695F6761705F6E756D6572696323
:1007A0005F636F6D70617269736F6E5F76616C7598
:1007B000655F636F6E6669726D5F7965736E6F20DA
:1007C0003A204661696C2C20726561736F6E3A2025
:1007D0003078253032580A003D3D3E3E2061636945
:1007E0005F6761705F6E756D657269635F636F6D82
:1007F00070617269736F6E5F76616C75655F636F50
:100800006E6669726D5F7965736E6F203A205375FD
:1008100063636573730A00003E3E3D3D20414349DA
:100820005F4741505F50414952494E475F434F4DEA
:10083000504C4554455F56534556545F434F4445CD
:100840000A00000020202020202D205061697269BC
:100850006E67204B4F0A20202020202D20537461EA
:100860007475733A203078253032580A20202020C1
:10087000202D20526561736F6E3A2030782530321A
:10088000580A00003E3E3D3D204143495F474154E8
:10089000545F5352565F524541445F565345565438
:1008A0005F434F44450A00003D3D3E3E20636F6E6E
:1008B0006E656374696F6E5F636F6D706C65746590
:1008C0005F6576656E74204661696C2C2053746197
:1008D0007475733A203078253032580A00000000D1
:1008E0003E3E3D3D206863695F6C655F636F6E6E81
:1008F000656374696F6E5F636F6D706C6574655F5F
:100900006576656E74202D20436F6E6E6563746925
:100910006F6E2068616E646C653A203078253034E3
:10092000580A000020202020202D20436F6E6E6585
:100930006374696F6E2065737461626C6973686556
:1009400064207769746820403A253032783A25303F
:1009500032783A253032783A253032783A253032BA
:10096000783A253032780A0020202020202D20439C
:100970006F6E6E656374696F6E20496E7465727612
:10098000616C3A20202025642E25303264206D735E
:100990000A20202020202D20436F6E6E656374692D
:1009A0006F6E206C6174656E63793A20202020257B
:1009B000640A20202020202D2053757065727669EE
:1009C00073696F6E2054696D656F75743A20256484
:1009D000206D730A000000006863695F6C655F72D8
:1009E0006561645F706879206661696C7572653AEB
:1009F00020726561736F6E3D3078253032580A0081
:100A00003D3D3E3E206863695F6C655F7365745F62
:100A10007068792050485920506172616D202054CF
:100A2000583D2025642C2052583D202564202D203F
:100A3000000000006163695F6761705F7465726DDB
:100A4000696E617465206661696C7572653A2072C1
:100A50006561736F6E3D3078253032580A000000B2
:100A60003D3D3E3E206163695F6761705F74657202
:100A70006D696E617465203A2053756363657373A5
:100A80000A0000006163695F676174745F636C747E
:100A90005F65786368616E67655F636F6E666967DF
:100AA000206661696C7572653A20726561736F6E5C
:100AB0003D3078253032580A000000003D3D3E3E72
:100AC000206163695F676174745F636C745F6578EC
:100AD0006368616E67655F636F6E666967203A2061
:100AE000537563636573730A000000003D3D3E3E2D
:100AF000206163695F6761705F7365745F616476CD
:100B00006572746973696E675F636F6E6669677536
:100B1000726174696F6E202D206661696C2C207281
:100B20006573756C743A203078253032580A0000AD
:100B30003D3D3E3E20537563636573733A206163A8
:100B4000695F6761705F7365745F61647665727415
:100B50006973696E675F636F6E66696775726174EA
:100B6000696F6E0A000000003D3D3E3E20616369F2
:100B70005F6761705F7365745F61647665727469E5
:100B800073696E675F64617461204661696C656456
:100B90002C20726573756C743A2030782530325889
:100BA0000A0000003D3D3E3E20537563636573734C
:100BB0003A206163695F6761705F7365745F616448
:100BC000766572746973696E675F646174610A0047
:100BD0003D3D3E3E206163695F6761705F73657490
:100BE0005F6164766572746973696E675F656E6173
:100BF000626C65204661696C65642C207265737552
:100C00006C743A203078253032580A003D3D3E3E23
:100C100020537563636573733A206163695F67612D
:100C2000705F7365745F6164766572746973696E11
:100C3000675F656E61626C650A00000044697361FC
:100C4000626C65206164766572746973696E672091
:100C50002D206661696C2C20726573756C743A2066
:100C60003078253032580A003D3D3E3E20446973BD
:100C700061626C65206164766572746973696E6720
:100C8000202D20537563636573730A006163695F88
:100C90006C326361705F636F6E6E656374696F6EF3
:100CA0005F706172616D657465725F7570646174A7
:100CB000655F726571202D206661696C2C207265FC
:100CC00073756C743A203078253032580A00000071
:100CD0003D3D3E3E206163695F6C326361705F63DE
:100CE0006F6E6E656374696F6E5F706172616D6562
:100CF0007465725F7570646174655F726571202DD3
:100D000020537563636573730A0000003D3D3E3EEA
:100D1000206163695F6761705F636C6561725F73B7
:100D2000656375726974795F6462202D204661691C
:100D30006C2C20726573756C743A203078253032D3
:100D4000580A00003D3D3E3E206163695F67617067
:100D50005F636C6561725F73656375726974795FF7
:100D60006462202D20537563636573730A0000006D
:100D700020204661696C2020203A206163695F670A
:100D80006174745F7372765F6164645F73657276B9
:100D900069636520636F6D6D616E643A20424153F3
:100DA0002C206572726F7220636F64653A20307810
:100DB0002578200A000000002020537563636573C6
:100DC000733A206163695F676174745F7372765F01
:100DD0006164645F7365727669636520636F6D6DCE
:100DE000616E643A20424153200A0000202046618F
:100DF000696C207265676973746572696E672042F9
:100E000041532068616E646C6572730A00000000D3
:100E100012100400FB349B5F800000800010000073
:100E2000192A00001000000001000000B401002099
:100E3000D0010020FB349B5F800000800010000088
:100E40000F1800001000000001000000000000006A
:100E50000000000001000000100E0410010000005E
:100E600001000000381200202D2D2042415454452D
:100E70005259204C4556454C204150504C49434115
:100E800054494F4E20534552564552203A204E4F1A
:100E900054494649434154494F4E20454E41424CE6
:100EA00045440A002D2D2042415454455259204CAE
:100EB0004556454C204150504C49434154494F4EB2
:100EC00020534552564552203A204E4F54494649E8
:100ED000434154494F4E2044495341424C45440AF2
:100EE0000000000020204661696C2020203A20612B
:100EF00063695F676174745F7372765F6164645F76
:100F00007365727669636520636F6D6D616E643AB7
:100F1000204449532C206572726F7220636F6465A0
:100F20003A2030782578200A0000000020205375F0
:100F300063636573733A206163695F676174745FAB
:100F40007372765F6164645F73657276696365204E
:100F5000636F6D6D616E643A20444953200A00004E
:100F600020204661696C20726567697374657269D7
:100F70006E67204449532068616E646C6572730A21
:100F80000000000002100400FB349B5F8000008022
:100F900000100000292A00001000000000000000DE
:100FA00000000000DC01002002100400FB349B5F05
:100FB0008000008000100000242A000010000000C3
:100FC0000000000000000000E80100200210040002
:100FD000FB349B5F8000008000100000262A000088
:100FE000100000000000000000000000F4010020DC
:100FF00002100400FB349B5F8000008000100000A2
:10100000282A00001000000000000000000000007E
:101010000002002002100400FB349B5F800000806F
:1010200000100000502A0000100000000000000026
:10103000000000000C020020FB349B5F8000008059
:10104000001000000A18000010000000010000005D
:10105000000000000000000005000000840F0410E4
:10106000000000000200000030000020000000002E
:10107000080000002C020020000000000100000019
:10108000EC0700200000FFFF00000000040000004B
:101090008410041000000000020000003200002054
:1010A0000000000001000000C2D204100100000096
:1010B000010000003912002020000000FB349B5F7B
:1010C0008000008000100000052A000010000000D1
:1010D0000100000010030020881004100A00000026
:1010E000FB349B5F8000008000100000292B000073
:1010F0001000000000000000000000009410041028
:1011000002000000FB349B5F8000008000100000A4
:101110002A2B00001000000000000000000000006A
:101120000000000002000000FB349B5F8000008094
:10113000001000003A2B000010000000000000002A
:1011400000000000A01004104143495F474154547F
:101150005F4154545249425554455F4D4F444946AE
:101160004945445F56534556545F434F44452048D4
:101170004944535F494E5055545245505F4E4F5469
:101180004946595F44495341424C45445F45565492
:101190000A0000004143495F474154545F415454A1
:1011A0005249425554455F4D4F4449464945445F75
:1011B00056534556545F434F444520484944535F76
:1011C000494E5055545245505F4E4F544946595F11
:1011D000454E41424C45445F4556540A00000000CC
:1011E00020204661696C2020203A206163695F6796
:1011F0006174745F636F6E6669726D5F696E646956
:10120000636174696F6E20636F6D6D616E642C2015
:10121000726573756C743A2030782578200A000066
:101220002020537563636573733A206163695F6758
:101230006174745F636F6E6669726D5F696E646915
:10124000636174696F6E20636F6D6D616E640A0017
:1012500020204661696C2020203A206163695F6725
:101260006174745F7372765F6164645F73657276D4
:1012700069636520636F6D6D616E643A204849440F
:10128000532C206572726F7220636F64653A203050
:10129000782578200A000000202053756363657369
:1012A000733A206163695F676174745F7372765F1C
:1012B0006164645F7365727669636520636F6D6DE9
:1012C000616E643A2048494453200A002020466158
:1012D000696C207265676973746572696E6720480E
:1012E0004944532068616E646C6572730A000000A3
:1012F00002100400FB349B5F80000080001000009F
:101300004A2A000010000000000000000000000059
:10131000EC04002004100400FB349B5F800000807C
:10132000001000004C2A0000100000000000000027
:1013300000000000F804002002100400FB349B5F52
:1013400080000080001000004B2A00001000000008
:1013500000000000000000002C0400201A10000013
:10136000FB349B5F80000080001000004D2A0000CD
:101370001000000002000000700300206403002041
:101380000E100000FB349B5F800000800010000006
:101390004D2A00001000000001000000A8030020FA
:1013A00038040020FB349B5F8000008000100000A8
:1013B00012180000100000000100000000000000F2
:1013C0000000000005000000F0120410202046611B
:1013D000696C2020203A206163695F676174745FE3
:1013E0007372765F6E6F7469667920494E505554FA
:1013F00052455020636F6D6D616E642C2065727272
:101400006F7220636F64653A2030782532580A0085
:101410002020537563636573733A206163695F6766
:101420006174745F7372765F6E6F74696679204958
:101430004E50555452455020636F6D6D616E640A75
:101440000000000001000000010000003A1200202E
:10145000484944535F494E5055545245505F4E4F92
:10146000544946595F454E41424C45445F455654A8
:101470000A000000484944535F494E5055545245B4
:10148000505F4E4F544946595F44495341424C4581
:10149000445F4556540A000053656E64696E6720C8
:1014A0006F66205265706F7274204D6170204661C6
:1014B000696C6564206572726F7220307825580AF5
:1014C0000000000053656E64696E67206F662048F7
:1014D000494420496E666F726D6174696F6E204673
:1014E00061696C6564206572726F7220307825586E
:1014F0000A0000004572726F72207768696C65207F
:1015000073656E64696E6720746865207265706FBC
:101510007274203078253032780A000096C298D84C
:101520004539A1F4A033EB2D817D0377F240A4630C
:10153000E5E6BCF847422CE1F2D1176BF551BF3715
:101540006840B6CBCE5E316B5733CE2B169E0F7CE8
:101550004AEBE78E9B7F1AFEE242E34F00F0061053
:1015600000080000AA02000000F80610F8070100B9
:101570000000000096C298D84539A1F4A033EB2DA5
:10158000817D0377F240A463E5E6BCF847422CE195
:10159000F2D1176BF551BF376840B6CBCE5E316BD9
:1015A0005733CE2B169E0F7C4AEBE78E9B7F1AFE9D
:1015B000E242E34F20204661696C2020203A2061FE
:1015C00063695F676174745F7372765F6164645F9F
:1015D0007365727669636520636F6D6D616E643AE1
:1015E00020534350532C206572726F7220636F64D6
:1015F000653A2030782578200A00000020205375B5
:1016000063636573733A206163695F676174745FD4
:101610007372765F6164645F736572766963652077
:10162000636F6D6D616E643A2053435053200A001E
:1016300020204661696C2072656769737465726900
:101640006E6720534350532068616E646C657273FB
:101650000A00000004100400FB349B5F800000803F
:10166000001000004F2A00001000000000000000E1
:1016700000000000F006002010100000FB349B5F0B
:101680008000008000100000312A000010000000DF
:1016900001000000D406002000000000FB349B5F26
:1016A00080000080001000001318000010000000EF
:1016B0000100000000000000000000000200000027
:1016C0005416041001000000010000003E1200202A
:1016D000686A6C747A4C00007072696E74665F732D
:1016E0003A20256E20646973616C6C6F77656400C5
:1016F0007072696E74663A2062616420256E2061A2
:101700007267756D656E74007072696E74665F7372
:101710003A2062616420257320617267756D656E81
:1017200074000000000000006E616E004E414E002B
:10173000696E6600494E460030002E00FB349B5F08
:101740008000008000100000292B00001000000025
:10175000FB349B5F8000008000100000052A000021
:101760001000000002000000030000000300000061
:101770000600000003000000030000003C00000021
:101780007000000070000000D00300007000000036
:10179000C3010000A5760510DBBB04108FBD04104B
:1017A00067C0041087BF0410C9270410F9C40510CE
:1017B000932904109B290410A3290410AB290410B9
:1017C000B3290410457C0510632904105329041023
:1017D0006B290410E7CF041057BA0410E92704104E
:1017E000A5280410852804108D280410317B0510CD
:1017F0004DC70510A9C505104DC905105FCB0510D3
:101800005FCB051075CC05104DC905104FCE0510E6
:101810004FCE05104FCE051051C8051063C50510F9
:1018200027C5051075CC0510D9270410E127041031
:1018300007D205100FD205100BD20510092804108D
:10184000112804101928041021280410BBD10510F8
:1018500031280410392804104128041029280410C4
:10186000C3D10510CBD10510CFD10510BFD10510C4
:10187000C7D10510F0B595B0062104A800F0A2FD6F
:101880000620694608730020C881934C08A82100EF
:10189000342200F09FFD08A800F0D2FD010005D021
:1018A0002000343000F002FE00F0BDFE18210020C0
:1018B00000F0BEFE002805D001002000583000F0E6
:1018C000F5FD03E02000983000F0F0FD07A9891C29
:1018D000012000F0B1FE002805D001002000C83032
:1018E00000F0E4FD04E084204000201800F0DEFD5C
:1018F0000121002000F0D4FE002806D001009C2029
:101900004000201800F0D2FD04E0B620400020186E
:1019100000F0CCFD06A8009006AB9B1C07AA002196
:10192000012000F0C5FE04AA03A9802000F048FFB2
:1019300004A8017802914178019181780091C378DF
:1019400002794179C8204000201800F0AFFD00BFA7
:1019500062A20C21002000F0E0FE002806D0010069
:10196000EA204000201800F0A1FD04E0862080005D
:10197000201800F09BFD03AA921C0221002000F019
:10198000D2FE002806D0010093208000201800F02D
:101990008DFD04E0A4208000201800F087FD0320C6
:1019A0009349087001F00DF8002806D00100B1201D
:1019B0008000201800F07AFD04E0C120800020188B
:1019C00000F074FD00200090894948700820C8701C
:1019D0001020087101208870009E864DA85DA9190D
:1019E0004978092922D0FF293CD13021AA199170C8
:1019F0000099D170022111718D2151718B2191714A
:101A00000099D171009911720099517204A94A7913
:101A1000AB199A720A79DA72CA781A738A785A7389
:101A20004A789A730978AA19D1731BE0311869189A
:101A30000A78582A16D14A1E1378582B12D16B46B1
:101A40001B7C1B096F463F7C3F073F0F092B01DDC5
:101A5000373300E030331370092F01DD373700E0F2
:101A600030370F703618761CB6B21F2EB6DB00204A
:101A700002901020019008200090002301220021F4
:101A8000012000F0A2FF002806D00100CD20800038
:101A9000201800F00BFD04E0DF208000201800F08B
:101AA00005FD5348807800280FD0012000F0D8FFB2
:101AB000002806D00100ED208000201800F0F6FC80
:101AC00003E04D48201800F0F1FC00BF06A000F034
:101AD000EDFC15B0F0BD0000C000041048494420E2
:101AE0004B6579626F6172643D3D3E3E20456E6498
:101AF00020424C455F496E69742066756E63746957
:101B00006F6E0A0080B5012000F0BAFF00F0BBFF45
:101B1000012000F0B6FF01BD80B501F08BF801BDDA
:101B200080B50021022012E080B502F0C2F901BDAB
:101B300080B5FFF7F5FF01BD80B502F0EDF9FFF7C5
:101B4000EFFF0121042002E080B50121012002F015
:101B500003FB01BDF8B5294A0021012002F0EFFA8C
:101B6000274A0021022002F0EAFA264A0021042036
:101B700002F0E5FA02F052FB02F0DAFB0021C94361
:101B8000884201D100F04FFDFFF774FE184C00258C
:101B9000A5731D48A08102F017FD1CA7380000F0B6
:101BA00085FC1B4E300000F081FC02F01FFC02F0AF
:101BB00089FD02F0D6FD02F0E6FD3000283000F08D
:101BC00075FC380000F072FC012000F001FB114AA6
:101BD00000218020800002F0B2FA0F48A0610F4976
:101BE0002000103001F0E8F928202554F1BD000054
:101BF000E0100020940100200C040000051B0410DC
:101C0000191B0410291B0410FFFF00000A0000002C
:101C100014050410652304104923041060EA000031
:101C2000FEB505002878042802D0822802D0F7BD2E
:101C3000EE1C00E02E1D6978C74FC84C052908D05E
:101C4000102900D1B8E13E2950D0FF2900D111E17F
:101C5000BEE1287969790906090C0843B9898842E7
:101C600012D1BF48B8810026BE73200000F01EFCD0
:101C7000297968790006000C0143AA7920002C30EC
:101C800000F014FCD448067500F054FBD34C012638
:101C90002670287969790906090C084360802000BC
:101CA00002F098FB2671287969790906090C084326
:101CB000E080201D02F004FD26722879697909066A
:101CC000090C084360812000083002F049FD2673AA
:101CD000287969790906090C0843E08120000C3055
:101CE00002F050FD012000F073FAF7BDE9780129F8
:101CF00000D19EE0032906D00A2900D18AE00C29F0
:101D000000D183E0B3E020006C3000F0CFFBE87935
:101D1000297A0906090C084302F03AFD0022B04B6B
:101D200002F050FD002280235B0302F00DFEE879F3
:101D3000297A21D80906090C0843EE79297A09067F
:101D4000090C0E4302F024FD0022A54B02F03AFDDF
:101D500000900191300002F01BFD0022A04B02F028
:101D600031FD02F019FE02F023FD02000B00009885
:101D7000019902F09DFE1EE00906090C0843EE7968
:101D8000297A0906090C0E4302F002FD0022944B49
:101D900002F018FD02F000FE02F00AFD0090019131
:101DA000300002F0F5FC00228E4B02F00BFD009A91
:101DB000019B02F01AFE00228B4B02F003FD02F0A1
:101DC000EBFDEA7A297B0906090C0A436B7AA97AAA
:101DD0000906090C0B43E9792E7A3606360C314395
:101DE0000A255543009506001D00080002F0D0FCAE
:101DF00000227B4B02F0E6FC02F0CEFD01002B003E
:101E000032002000A03000F051FBF7BD012002F0AD
:101E1000B3F9F7BDE87F6D1CE97F6D1E0906090C5B
:101E200008436A7FA97F0906090C0A43EB7E297FD4
:101E30000BE0E87C297D0906090C08436A7CA97C33
:101E40000906090C0A43EB7B297C0906090C0B43A4
:101E50006979AC792406240C214302900192009305
:101E60002B0009332A7A287900F014F9F7BD00BF56
:101E70005FA0AEE0307871780906090C0843001FB6
:101E8000F4D05A49401A49D0401E10D0401F0AD001
:101E9000801E1ED0401E08D0C91F401AE6D0233134
:101EA000401A5FD081E0882011E09C200FE0B42030
:101EB0004000201800F0FAFABB49B88900F093FD01
:101EC000002803D00100C82040001FE0E2204000AD
:101ED00020E0F6204000201800F0E8FA301D02F063
:101EE0005FFE010049A000F0E1FA301D02F058FE4B
:101EF000010000BF4CA000F0D9FA0121B88900F020
:101F000076FD002804D0010088208000201860E0C1
:101F10009B208000201800F0C9FAF7BDAB2080009C
:101F2000201800F0C3FA3179002906D07279B62062
:101F30008000201800F0BAFA03E000BF40A000F0D3
:101F4000B5FA9AA000F0B2FA3079401E8041C00F75
:101F500021490875F7BD00BFE01000206C05041092
:101F6000FFFF0000C6208000201800F09FFAB17922
:101F7000F0790006000C014337A000F097FAB2791F
:101F8000F0790006000C0243317970790006000CEC
:101F90000143B078F3781B061B0C18430023019310
:101FA0000093082300F048FDF7BD317870780006F3
:101FB000000C01432CA00CE0E87804280BDABFF3F6
:101FC0004F8F7B487B490860BFF34F8F00BFFDE711
:101FD0002BA000F06BFAF7BD5C110020A4110020CB
:101FE0000000F43F0000F4BF00005940FD03000072
:101FF0004843495F4C455F4D4554415F4556543A0F
:10200000203078253032580A00000000202020209F
:10201000202D206E756D657269635F76616C7565E4
:10202000203D2025640A000020202020202D20486B
:1020300065785F76616C7565203D2025780A000023
:1020400020202020202D2050616972696E67205366
:102050007563636573730A0048616E646C65203054
:1020600078253034580A00004843495F56454E44AD
:102070004F525F4556543A203078253034580A0084
:102080004843495F4556454E543A20307825303212
:10209000580A0000F8B588B0574D0024020005D05A
:1020A0000100454800F002FAAC737AE00E9F1E0072
:1020B00068468181414800F0F9F9307802907078E3
:1020C0000190B0780090F378327971793C4800F053
:1020D000EDF9380002F05CFB06AA03C206A80CC8A2
:1020E0000020384902F06EFB06000F0002F054FC9D
:1020F000019002F05DFB04AA03C230003900002207
:1021000080235B0302F020FC04D804AA0CCA02F06E
:10211000CFFC09E006A80CC800202B4902F052FBB6
:1021200004AA0CCA02F061FC0022284B02F04AFB10
:1021300002F032FC020010980F9B0A2141430091EB
:1021400001997B4800F0B2F9A87B012801D1032056
:1021500000E00220A87368468089A881804E347010
:10216000684680897080300002F034F93471684626
:102170008089F080301D02F0A3FA347268468089AD
:1021800070813000083002F0EBFA347368468089C1
:10219000F08130000C3002F0F5FA2800103000F029
:1021A0002EFF09B0F0BD000040E201000A0000006F
:1021B0000400FA050CED00E0A8080410E008041083
:1021C000240904100000F43F0000F4BF000059404F
:1021D000F1B58EB080200B90A027734C064E0EAA4E
:1021E0001278052A42D801A39B5C9F440E041C7EF2
:1021F000325C042543E000BFE0100020C820C0008E
:102200000B90FA273F01052539E000250022002127
:10221000002002F0D0FC010000D17EE0992012E005
:10222000C827BF000B970025FA21490089B2009109
:10223000ABB23A000B9989B2B08900F00AFC0028D1
:102240006ED00100AD20800061E01321B08900F064
:10225000B4FB002803D0010020005C3058E02000CF
:10226000883000F023F900F06AF85EE00EA80078EC
:10227000012804D9801EC9D0801ED7D055E0062180
:102280000CA800F09FF800200A9009900120089007
:1022900000200790012006900020059004900390F4
:1022A00002900720019000970B9B1322022100202F
:1022B00002F085FC002806D001008A20400020188A
:1022C00000F0F4F805E0B573AC204000201800F0F1
:1022D000EDF8374B1F220321002002F0A5FC002857
:1022E00006D00100C8204000201800F0DFF804E00C
:1022F000E6204000201800F0D9F80CAA01210120A6
:1023000002F059FC002806D00100FC2040002018F3
:1023100000F0CCF809E08D2003E0B573A42000E0C4
:10232000BE208000201800F0C1F80FB0F0BD000002
:102330006809041080B5012001F01EFF01BD80B5C1
:10234000012001F023FF01BD80B500218020800025
:1023500001F002FF1749184800F02EFE01BD0000F1
:10236000A411002080B5144800F049FE0220FFF7B8
:102370002FFF0020FFF72CFF01BD000070470B4826
:10238000807B022800D1704780B500F034FB0B4AF7
:10239000002804D00100100000F088F801BD1000F2
:1023A000383000F083F801BDD8090410E010002097
:1023B0009401002060EA0000F01000200C0D0410D1
:1023C00070470000002200BF094202D0491E42545B
:1023D000FCD1704770B4103A03D378C9103A78C072
:1023E000FBD2530701D318C918C001D508C908C0CA
:1023F000D20704D30B880380891C801C002A01D5D6
:102400000B78037070BC70478B0701D18307E1D054
:10241000124205D00B78491C0370401C521EF9D1A2
:1024200070478300850007000700830085000500D2
:102430000700030003000F00050082008100050073
:10244000B0B50546C07A1224802829D8298C1729CE
:1024500026D31448821D914222D8298A17291FD3D6
:1024600081421DD8A87E00281AD002F0E1FB002886
:1024700008D0E87E002813D0802811D8287F401E7D
:102480000E280DD808483422294602F0D3FB02F06A
:102490003DFC002803D402F06DFE002400E08724F8
:1024A0002046B0BDFA030000AC1000200EB4C0B549
:1024B000020003A801900020009001AB0121044814
:1024C00078440C3002F0C0FE029906B0084700BF05
:1024D00009A0010081B0314901E081B030490A68AA
:1024E00002430A60096808400090009801B07047F4
:1024F0007CB503F04DFE00F05DF800F081F8082097
:10250000FFF7E8FF0420FFF7E5FF00F0BBFA00BF8C
:1025100046A000680090234C206A0125ED43012667
:10252000304008D120683043206020682840206077
:102530000120FFF7D2FFC020C0050090684603F0DD
:1025400039FE68460021002206C0206A304008D1CA
:102550002068064326602068054025600120FFF7BB
:10256000BCFF114800681028FBD36846A021490031
:10257000018000218170019100F0B5FA0B480C49EF
:10258000016003F0C7FF002801D000F04CF80020E4
:1025900004F02EF804F0BDF8FCE7000050004048BD
:1025A000600040484000404810180060CC110020F6
:1025B0000000304880B588B0182102A8FFF702FF5C
:1025C00068460021002206C00320029080204002BD
:1025D00003901020059002A804F000F9002801D013
:1025E00000F021F800200090202001900021684692
:1025F00004F01CFA002801D000F015F809B000BD65
:1026000080B586B018216846FFF7DCFE02200090F6
:10261000C0020590684604F0A5FA002801D000F039
:1026200002F807B000BD72B6FEE70000000000002F
:1026300080B504F039FB80BDF8B506000F0000201E
:102640003880154C200000F0DAF9010023D1200079
:1026500000F0D9F90400114DF00705D5210028003C
:1026600000F0D5F9010016D1280000F0D4F9388027
:1026700021002800243000F0CAF901000BD121000C
:102680002800483000F0C3F9010004D121002800DF
:102690006C3000F0BCF9F2BD2C030020B81004101F
:1026A00080B5022801D9122080BD04F021FB80BD35
:1026B000FEB50C00089F0025158002990D803D8015
:1026C0000521014027D0394E300000F098F9010073
:1026D00022D168460470364C200000F09CF9019924
:1026E00008802000243000F096F90299088030001C
:1026F00000F089F93D8069460978022906D1010078
:1027000020006C3000F083F9010005D12AA20821D5
:10271000002000F002F80020FEBD70B504000D009E
:102720001600234804E070B504000D00160021488F
:1027300000F071F933002A002100401C80B200F043
:1027400001F870BDF3B581B017001D000024184ECC
:102750006946088024206043301800F05CF90028A6
:1027600004D0401C69460988884202D0641C052CAC
:10277000F0D3052C0BD06846038924204443341938
:10278000206A8188DA19914201DB002801D11220E8
:10279000FEBD29003A008068C018FFF735FE206AA8
:1027A0000178890700D547800020FEBDE80200209F
:1027B000340200205802002053544D333257423027
:1027C00080B504F0EFFA80BD80B504F069FB01BD6F
:1027D00080B504F08BFB01BD80B504F0AFFB02BDFA
:1027E00080B504F0D5FB02BD80B504F001FC01BD4D
:1027F00080B504F065FC02BD80B504F063FC02BD49
:1028000080B504F061FC02BD80B504F079FC02BD26
:1028100080B504F0A5FC02BD80B504F0BDFC02BD8E
:1028200080B504F0D5FC02BD80B504F011FD02BDF9
:1028300080B504F053FD02BD80B504F07FFD02BDFC
:1028400080B504F099FD02BD80B504F0B1FD02BD74
:1028500080B504F0E7FD02BD80B504F0E5FD01BDE3
:1028600080B504F0F9FD01BD80B504F035FE02BD70
:102870001CB56C46247D01946C46247C009404F0C5
:1028800081FE13BD80B504F02DFF01BD80B504F0BD
:1028900045FF01BD80B504F05DFF01BD80B504F0CA
:1028A000B1FF01BD80B505F007F801BD80B505F0A9
:1028B00093F802BD80B505F0D1F801BD80B505F0F3
:1028C000D5F802BD80B505F0DBF802BD80B505F096
:1028D00007F901BD80B505F07DF901BD80B505F0B2
:1028E000B3F902BD18B587B010AC247806940FACCC
:1028F000247805940EAC247804940DAC24780394C9
:102900000CAC247802940BAC247801940AAC2478A3
:10291000009405F0D1F908B010BD80B505F0FAF9C2
:1029200001BD80B505F010FA01BD80B505F02CFAA7
:1029300001BD80B505F072FA01BD80B505F08EFAD3
:1029400002BD80B505F0A6FA02BD80B505F0D0FA4B
:1029500001BD80B505F006FB01BD80B505F0E4FBC7
:1029600001BD80B505F0F8FB01BD80B505F0F8FBB1
:1029700001BD80B505F0BAFC02BD80B505F00CFDC7
:1029800002BD80B505F034FD01BD80B505F080FDC8
:1029900001BD80B505F0E0FD01BD80B505F0EEFD9F
:1029A00001BD80B505F00CFE01BD80B505F02CFE23
:1029B00001BD80B505F0E2FE01BD80B505F0F4FE75
:1029C00002BD80B505F0F4FE02BD1FB508AC247849
:1029D00002946C46247F01946C46247E009405F09A
:1029E000EFFE04B010BD80B505F02EFF02BD80B52E
:1029F00005F036FF02BD80B505F03AFF02BD80B597
:102A000005F03BFF02BD80B505F03BFF02BD80B580
:102A100005F03BFF02BD80B505F03BFF02BD80B570
:102A200005F03BFF02BD1CB5059C01946C46248A51
:102A3000009405F036FF16BD1CB5059C01946C464C
:102A4000248A009405F03CFF16BD80B505F041FFD7
:102A500002BD1CB56C46248A009405F03EFF16BDED
:102A6000E0B501A9087001220846114605F042FFB1
:102A7000002800D08CBD01A8007805F059FF8CBD5E
:102A800070477047704780B5002005F06DFF80BD2E
:102A9000010005D40121C006C00E814060480160DC
:102AA0007047C1680322914302220A43C260704703
:102AB00001E0000000BFC16803229143C16070477C
:102AC00001617047816A574A0A4082627047006913
:102AD0007047816A802292050A438262704780684B
:102AE0007047C0687047F1B501274F48C06B384345
:102AF0004D49C8630846806B384388631720FFF749
:102B0000C7FF1420FFF7C4FF00984068002800D0DA
:102B10000120464D28700026000603D100988078D9
:102B2000002813D04248C168C907FBD517210160AE
:102B3000C1683943C1604660C1683940FCD0280093
:102B4000103000F0B9FAE869286209E0C8204003B3
:102B50002862E861BB48A861BB482861BB4868613E
:102B600000984068002802D1A020C0050DE00003B5
:102B70000A2105F058FF6860B54C200000F008FA03
:102B800001006868884202D3200000F001FA686002
:102B90002E7200980088290058310861A96900F058
:102BA0000EFBAC4C0020207000212A005832183255
:102BB00003C21D48006829005831886200200021A6
:102BC0002A005832203203C22A00283203C234219C
:102BD0006854AD4AA969686805F07CFF28632878C5
:102BE0002074A66027736673E681290058314E72FF
:102BF000290058314E81AE65EE65A448A8646E6523
:102C000000F0CDF96A68002312184B4128004030CB
:102C100000F000FB0121280000F07CFAF1BD00006B
:102C200000E100E0FFFFFFBF10180060E00C002093
:102C300004100060F8B58CB0002469460C70EFF306
:102C4000108572B6924F38005830407A00280BD069
:102C500000F0A5F9BA6DFB6D8B4205D801D3824215
:102C600002D238005830447285F310883800913011
:102C7000019028E0401C1CE004690573816800296C
:102C800000D088472000F7D169460298406B00F0D9
:102C900041FB029948636846007801280DD1EFF3A3
:102CA000108172B601980078421C019B5B789A42B1
:102CB000E0D1019A107081F310880198407805994D
:102CC00040180199487001984078019909780A1ACA
:102CD00002D28020400012180026002A2AD0059235
:102CE0006C480290446B04940394002502E0260093
:102CF00024696D1C002C0FD0207B0028F7D000F039
:102D00004EF902000B0003CC083C801A99410029BF
:102D1000EDDB01DC0628EAD328000025002802D0DC
:102D20003561049400E00395049802994863039880
:102D30000028A8E7387A002867D06C48006801248A
:102D400020407CD03E726A4DE878002804D1A878F3
:102D5000002801D0AE7044E03878002820D002A8C6
:102D600000F0AAF9049938005830006980B200F0E8
:102D700026FAEFF3108672B634203C54039878613B
:102D80000498B861029838610598F861380000F03D
:102D90002BFB86F310880021380000F0BBF907E018
:102DA000EFF3108472B6380000F01EFB84F3108835
:102DB000694638005830406B00F0ACFA39005831A1
:102DC00048636846007801280BD1EFF3108072B693
:102DD00029784A1C6B789A4200D0491C297080F3EC
:102DE000108869463800583000F046FB3800403003
:102DF00000F005F900F0D3F87A68002312184B416F
:102E00003800403000F006FA19E03878002816D073
:102E100000F0C5F83A0028320CCAFA2464030025F1
:102E2000A4185D418D420AD801D3844207D23800EC
:102E3000403000F0E4F83800403000F0D1F90DB037
:102E4000F0BD0000C2F528008D5B0000ECEB6501D1
:102E5000FFEFFFFF640D00207CB505004B480668BE
:102E60000B4C6946200000F017FA03C5083D504A94
:102E7000E1690098801B05F02DFE020003CD0023C0
:102E8000801A99417CBD000026030000E131041046
:102E9000E00C0020380D0020F8B5030014000020DD
:102EA0006A4610700D0000D00125424A11006031C1
:102EB0000D71250000D001250D7014002834C0CC00
:102EC0009C1B0025A4197D419465D5654870C87088
:102ED0000120887069461000583000F0CDFA0120BA
:102EE00000F066FA68460078F2BD0000101000603D
:102EF000710D002070B50320C04385490A68024067
:102F00000A600A681040086028480168634A0A405D
:102F10000260284C20005830002545724581EFF3AF
:102F2000108672B600F03BF8A26DE36D121A8B4169
:102F30008420205C0021121A8B4186F31088002B1C
:102F400004DC01DB012A01D2012070BD002B04DC6E
:102F500001DB0F2A01D2022070BD002070BDEFF30B
:102F6000108072B653490968694A091D5160116899
:102F70000323994302230B43136080F310887047A7
:102F800070470020A24908707047000014000060DC
:102F900080B5074A0749C96905F09CFD02BD80B5A7
:102FA0006946044800F078F904BD00002818006064
:102FB00035060000E00C0020F8B504000D00FFF716
:102FC000EEFF06000F00290D28030A22002305F05A
:102FD000A2FD8019794102000B00200000F01AF9CF
:102FE0000400012000F0E4F9E0B2F2BD10B500F0F9
:102FF00011F90400012000F0DBF9E0B210BDF8B5D2
:10300000A44C21680E00002300250A0001E03500D1
:103010003669002E07D08642F9D137698E4201D138
:103020003A0000E02F616D462B70037320689042D8
:1030300015D06946100000F06DF9206068460078F0
:1030400000280DD0EFF3108072B661794A1CA37985
:103050009A4200D0491C617180F31088F1BD226052
:10306000F1BD18B50020009000980B4801680B4A8C
:103070000A400260A5490A78531C4C78A34200D04C
:10308000521C0A700121C2690A43C261C069014031
:10309000009111BD0000000030180060FFFFFFBF6D
:1030A000C148816801220A438260002101607047A3
:1030B000000000001018006070B50400944D280056
:1030C000FFF70DFD06002800FFF709FD8642F6D147
:1030D000002EF4D0B54932124A43F3B24B431912D1
:1030E000511810314911E16026602800FFF7F9FC02
:1030F00006002800FFF7F5FC8642F6D1002EF4D03A
:10310000B011B649484380300012A060666070BDBF
:103110000C000060F8B505000F00B14C607A7D210D
:103120004843C90005F07CFC461CF6B2AD4AA969CB
:103130001B2005F0CFFC2070607800F02AF83D21BC
:103140006854E078801900F024F838216854207918
:10315000801900F01EF839216854607900F019F8E0
:103160003A216854A07900F014F83B216854002FEC
:1031700006D0E078801900F004F81B303C21685438
:10318000F1BD68214143090ADB225043000C0818B5
:10319000704700B50200B34840690021002305F0E4
:1031A000F9FC0322002305F0F5FC8022D204002361
:1031B00012184B41D20E58010243100000BD80B5D9
:1031C000884A05F087FCA849884201DD080002E032
:1031D000102800DA10200005000EA449086001BD87
:1031E00010B5A04C207A002806D12078002801D004
:1031F000FFF756FF01202072FFF7D1FE0022643056
:10320000514102000B002000403000F003F810BDD7
:10321000430D0020FEB500256C462570017B00297A
:1032200001D00120FEBD0CC0083801210173194CEA
:1032300026680196070001E035003669002E08D0A7
:103240000CCE083E03CF083F8B42F5D301D8824213
:10325000F2D338000661002D01D1019000E0286111
:103260000199814213D1694600F054F82060684604
:10327000007800280BD0EFF3108072B661794A1CF9
:10328000A3799A4200D0491C617180F31088684686
:103290000078FEBD6C0D00207FB504000D00EFF33B
:1032A000108672B6206F616F02AA03C27048FFF7E2
:1032B0000EFC03002B606F4D02A803C80090019123
:1032C0002A00E16980202058181A05F003FC00212B
:1032D000009A019B80185941A26FE36F99420FD861
:1032E00001D390420CD2009001912A00E1690020A4
:1032F000C04305F0EFFB0021009A019B8018594163
:10330000A067E16786F3108804B070BD710D0020DE
:1033100000100060F1B584B00F0004460020387042
:1033200000E02469002C3BD0207B0028F9D0EFF38B
:103330001080009072B6FFF732FE0CCC083C121AD7
:103340008B4102A80CC002A803C800291EDB01DCC7
:1033500001281BD3234A4348836902A803C81900E4
:1033600005F0B8FB0500202D00D82025BD4E30000B
:10337000FFF7ADFB40190830F0623000FFF7A9FB02
:10338000306B8021C9050143316301E001203870B1
:10339000009880F310883878002801D0049800E065
:1033A000200005B0F0BD000008100060F6BC080069
:1033B00010B5A1490C009034002808D020780028CE
:1033C0000BD108004030FFF70BFF012004E008009C
:1033D0004030FFF714FE0020207010BD530700009E
:1033E000C500002026030000FEB504002048FFF7BA
:1033F0006EFB0500206A0290270080371D4E3200C8
:1034000001463868281A05F065FB020020002830C4
:1034100003C80090019110000021009A019B8018C0
:103420005941206761672078002811D13868281A2F
:10343000216B88420CD2320002990020C04305F073
:1034400049FB226F636F0021801859412067616733
:103450003D60206F616F2200283203C2E069206264
:10346000F7BD0000E00C0020FF0F0000081800600E
:103470000018006035060000F3B589B00020087020
:103480000998807A002800D1D4E06B4C20002830C5
:103490000CC8606800218018594106AA03C2EFF3E6
:1034A0001080049072B6FFF77AFD02000B000998B5
:1034B00003C802AD03C502A803C80090019106A885
:1034C00003C8C826B602002736184F410098019954
:1034D000B9420FD301D8B0420CD306A803C8B9260D
:1034E0007600002736184F419F4201D802D39642FA
:1034F00000D39CE0012600200A32434102A803C801
:1035000000254C38A9418B4201D802D3824200D316
:1035100089E00998027A02A803C805003C20205CD3
:103520000999097B012905D1002A01D0382106E03B
:10353000392104E0002A01D03A2100E03B21615CFE
:103540000091019002A92000FFF7A6FE2F1A464A1B
:10355000A169380005F0BEFA0390424D0198A16EB2
:103560004018C830B84203981ED240490978401A22
:103570000099471A0298C0196862A86A072188430F
:10358000A862C020C005FFF793FAC020C005FFF76E
:1035900091FAA86AB1070143A9622800FFF799FAD6
:1035A00000983249097814E03D21615C401A009985
:1035B000471A0298C119C020C005FFF781FA2800F8
:1035C000FFF780FAC020C005FFF76BFA00983D2195
:1035D000615C40180299039A8918220068321162CE
:1035E0003A18411D8A420CD2C024E4052000FFF79E
:1035F0005FFA2000FFF75EFA2800FFF763FA012068
:1036000007E01B4AE16905F065FA21006831087797
:1036100000200A99087000200999887209994E7251
:103620000998C67203E0622165540A9806700498EE
:1036300080F310880BB0F0BDE00C002080B5FFF7E0
:1036400010FDFEF775FA01BD81B0002000900098D2
:103650000848016801220A4302600068009001B036
:10366000704700000018006026030000C50000201D
:10367000350600007400006001680022028142816A
:10368000828182730B78FF2B05D0FE2B09D1038931
:103690005B1C03810AE04268511A091F81810020E6
:1036A0007047002B0DD143895B1C43814A88D21C93
:1036B000032313435B1CC9184A1D43689A42E1D394
:1036C000EDE703207047F3B5079C0899250005D066
:1036D0006D466C80FE242C706C4600E04468856862
:1036E0004668AE4217D22678FF2E14D0067B002EF5
:1036F00004D0002606732678002E0ED14668648812
:10370000E41C032727437F1CF4194460AC4202D217
:103710002678FF2EEFD10420F6BDFE2E01D0032027
:10372000F6BD6E463679FF2E04D066786F463F7937
:10373000BE42E3D14068001D1060608818800029F7
:1037400001D0607808700020F6BD7FB515001C0020
:10375000099E002232800B9A01926A46128D0092D5
:1037600002AB03AAFFF7AFFF010013D16946098935
:103770008D4201D306200DE0089A481B904200DAE2
:103780000200200003994919FEF73EFE68460089B1
:103790003080002004B070BDFEB5BB4D0D40491B0C
:1037A0006B4619700024070016000AE00422311944
:1037B00001A8FEF729FE019A3919002005F004FA44
:1037C000241DAC42F2DB0020C04301906846027821
:1037D000711901A8FEF718FE019A7919002005F069
:1037E000F3F9F7BD70B544688668B44202D2267812
:1037F000FF2E01D1042070BD007B002801D1FE2ED8
:1038000001D0052070BD6588A94201D3062070BD96
:1038100010001A00231D591805F046FA002801D09F
:103820000020C04370BD7CB5079C0025069E3580F6
:10383000250005D06D466C80FE242C706C4600E09F
:10384000446845688668B54202D22678FF2E01D1C9
:10385000042076BD007B002801D1FE2E01D005207A
:1038600076BD6088814201D3062076BD401A984219
:1038700000DA030010001A002B1D5918FEF7C4FDD2
:10388000608806990880002076BDF8B584B00700EE
:103890000E001500B44C254203D105F005FA0028AE
:1038A00020D001A80C21FEF78DFDCD483818C00AA4
:1038B0000290681E0443641C6003000E0390694676
:1038C00001A805F001FA00240AE06010800F001939
:1038D0000321884332583919002005F075F9241D59
:1038E000AC42F2D305B0F0BD01210170002141804E
:1038F00081807047F1B588B00C0015001E000020D3
:103900000090FF2229002000FEF75EFDFE206946A0
:10391000087507946846458206960E9D009C05AE84
:1039200019E06846008A6988401A401E032404434F
:10393000641CA4B268886946098A0A1A521E0321C7
:103940001143491C89B28F4242DB01200022B94257
:1039500028706A8040D06846408A071B3F1FBFB26C
:103960002878002826D0701C0390A888029004A80C
:10397000019000970798001D03190022FF21089865
:10398000FFF7E3FE6946098AA98001000ED1684667
:10399000008A7080042205A907980019FEF734FDFB
:1039A0007088C01C032101436418C1E706990C808C
:1039B00009B0F0BDA888019004A800903B000798CA
:1039C000021969880898FFF72EFF0100A9D0EFE7D8
:1039D00000212970C01968806846408A06990880CD
:1039E0000020E5E7F8B5AE4CA544AE49020014232B
:1039F0005A438F187989002901D1002040E004A999
:103A000000F013F9059D02A8FFF76EFF802636012E
:103A100002A8009001AB320008A904A8FFF76AFFD2
:103A20000400042C06D0002C2AD168468088B042BD
:103A3000EED103E068468088002808D06846828876
:103A400008A92800FFF721FFAD19002CE0D008A835
:103A50000C21FEF7B7FC624828184003000E0990BD
:103A60000698401E711E0143491C481B4003000E6E
:103A70000A90694608A805F027F93800FFF7FCFD11
:103A800089498D44F0BD0000FCFF0000F8B5844C6E
:103A9000A54400216A469171002200238149060055
:103AA0000BE0B0680C245C43005D142460430818EC
:103AB0004089002800D001225B1C30798342F0DB72
:103AC000002A25D080221201FF2108A805F044F920
:103AD0000025802424010DE002A8FFF705FF02A8BD
:103AE000009001ABE21B92B208A8C11904A8FFF72D
:103AF00001FF6D1C307985420CDAB0680C226A43F4
:103B0000011D8F5804A9805C00F08FF80028E3D0D5
:103B100000201BE0220008A93068FFF7B6FE614CC8
:103B2000370069468D7900260CE0B8680C21714396
:103B3000405C142148432018FFF79EFD010000D08F
:103B40000500761C38798642EFDB280056498D4403
:103B5000F0BD95498A79824201D102207047897C63
:103B60008142FAD000207047FF070000F8B54C4CA6
:103B7000A54404000E0080221201FF2108A805F0D0
:103B8000EBF8002568460471802424011CE00C2712
:103B90006F43B068C05D6A461279904213D004A9A1
:103BA00000F043F8B068C019476802A8FFF79CFE10
:103BB00002A8009001AB9B1CE21B92B208A8C1199D
:103BC00004A8FFF797FE6D1C30798542DFDB2200E9
:103BD00008A93068FFF759FE002033498D44F0BD35
:103BE0000000FCEF10B500246F480C216143411820
:103BF0008A792C4814235343C0180368002B10D132
:103C0000012A0EDC0A6802608B88D218426009899A
:103C10000182FFF731FD010004D1641C012CE3DDBA
:103C200001E0012010BD002010BD10B50200022AE5
:103C300001DB012010BD1B4B142462439A1813684A
:103C40004B6052688A6001220A7308700020487332
:103C500010BD7FB5694C0578142675436419A47BA3
:103C6000002C01D00A2008E003940294099C0194DE
:103C70006C46248C0094FFF768FD04B070BD7CB5E1
:103C8000A04C0578142675436419A47B002C01D040
:103C90000A2076BD0194069C0094FFF7C4FD76BD12
:103CA000E0F7FFFF1011002024080000FAB583B0F0
:103CB00017000325791E03260E43761C0CE00C78B2
:103CC000FF2C18D0FE2C01D0002C69D14A88D21CC0
:103CD0002A43521C89184160826841684B1D9342F7
:103CE000EDD38849007814225043081840890028F1
:103CF00054D1022055E00290501A834B984201D2D1
:103D0000521A00E01A467F4C92B2B0B26B461B8D3D
:103D1000C018001D824239DB6846007B0191FE21FC
:103D20006A461170694648706846008D30184880B0
:103D3000009A0199002004F047FF049AB1B201985B
:103D4000001DFFF729FD0B9A6846018D0198B6B258
:103D50008019001DFFF720FD200008300299097826
:103D60001422514340180188491C018002980078B0
:103D700014214843201881896A46128DBA18521EB0
:103D80001543491B491F818100200AE002980078F1
:103D900014214843201840890028AAD00B2000E0B5
:103DA000032005B0F0BD00005C15041010B5040040
:103DB0006168A06881421ED20878FF281BD0FE28C7
:103DC00017D1FF22D243002004F0FEFE4D4801002F
:103DD0000831227814235A4389180A88521E0A800F
:103DE00021781422514340184189491C4181002007
:103DF00010BD052010BD042010BD000010110020D2
:103E000078B585B004006946FFF7A3FE3D4D022852
:103E10001ED1142044432C19256802A80C21FEF75A
:103E2000D1FA3A4828184003000E03906068401EFB
:103E300037490143491C481B4003000E049001A967
:103E400002A804F041FF2000FFF716FC00201BE051
:103E5000012818D100992000FFF788FE040010D136
:103E600000260AE0009880680C217143405C142110
:103E700048432818FFF700FC761C0098007986421A
:103E8000F0DB200000E0012006B070BD1CB504008E
:103E90006946FFF75EFE022803D12000FFF7A2FD6E
:103EA00016BD012803D10098FFF7F0FD16BD0120D3
:103EB00016BD38B5174800214356DAB2114C142507
:103EC000554364196589002D03D0A589248AA5422C
:103ED00007D3521CD2B2022A00D100229A42EDD15D
:103EE00006E0531C5CB2022C00D10023190001E053
:103EF0000022D2430170100602D4D0B2FFF7C6FFF1
:103F0000002032BD10110020FFFF00000000FCEF78
:103F1000FF0700003C120020F0B583B004464C4877
:103F20000460204604F0E4FF0546204604F0D0FF7C
:103F30000646684600F0E2FE0099091A4B0B454917
:103F40000A681146D031002B02D11060012000E038
:103F50000020087040480068447B0021FF2C0AD0F4
:103F60002C2060433D4A12681018827C002A02D03F
:103F7000416AC068FFE70127002E03D0002D01D160
:103F8000002911E0002D15D0354A8B1A5A425A41AA
:103F9000344BCD1A6B426B41334D4E1B754275410C
:103FA000002907D013431D432A4E294D04D08847CA
:103FB000002701E0274E264D286804F095FF0028D1
:103FC00001D0042520E0286804F078FF002801D003
:103FD000012519E0286804F075FF002801D00225AA
:103FE00012E0286804F088FF2946052500280BD137
:103FF000086804F085FF002806D11548006804F021
:104000004BFF002820D000250120A840174909684F
:104010000A6802430A60002005F0C8F9FDF794FD24
:1040200000F067FE204605F0D3F93468607D012872
:1040300008D1217C0F200840E268090905F08EFBB9
:104040000020607503B0F0BD002FE9D1EDE7C04658
:104050000C120020D8110020DC110020E0110020FB
:10406000ABD30510A3D30510A7D305101812002059
:10407000BCB5584CA16900910840A06135E0521CC4
:10408000D300E51803000B402F681F40F7D02A68C3
:10409000104001406868084002D10020C0436860B9
:1040A0006868084000F09AF801006A6801208840BA
:1040B00082436A606162EFF3108172B6626A012026
:1040C0009040C2432069104020610220C300E318E1
:1040D000083B1D6815401D60401EF7D181F3108814
:1040E0003D48616A8900405880472369E2696069F8
:1040F000256AA16903400B4003D0154001D100227D
:10410000BEE70020C0436062206A104014D102F074
:1041100006FBEFF3108572B62169E06962690A4017
:10412000A169114004D1216A014001D102F0F8FADD
:1041300085F3108805F013FB0098A061B3BD38B576
:104140001400EFF3108572B600F048F880002249A1
:104150000C5085F3108831BD10B5EFF3108272B6A4
:104160001C4B1C6904431C61C90059180B68184397
:10417000086082F3108810BDEFF3108172B6154A03
:10418000D3691843D06181F310887047F8B5114D99
:10419000696A00910022D243914201D1002701E0D7
:1041A00001278F402E6A2862040003E021003800B6
:1041B00005F0D6FAE8692040F8D000986862EFF37D
:1041C000108072B6E969A143E96180F310882E621C
:1041D000F1BD0000FC060020940E00200021020C1E
:1041E000120401D110210004020E120601D108317F
:1041F0000002020F120701D1091D00011F22511AEE
:1042000002A2000F105C081AC0B270470403020239
:1042100001010101000000000000000010B5FFF7DF
:10422000E1FC424C211D0020FFF7FFFC210014316E
:104230000120FFF7FAFC201D206010BD3EB53B4D6C
:10424000022802D12C00143400E02C1D2C600193B4
:104250006B461B8B00930B0001002000FFF726FD2F
:10426000002805D0022801D1002000E00120C04331
:104270003EBDF8B584B00E0019002C4C022E03D1BF
:1042800025001435012301E0251D002307002560CA
:1042900028466D466A8103910A9D022F08D102A922
:1042A00000912B00039A69464989FFF7E8FC0FE06B
:1042B000002F03D101001800FFF7B7FC02A80190FE
:1042C0000095039B6846428931002068FFF7C1FCD6
:1042D000010001D1002005E0042801D1022000E006
:1042E0000120C04305B0F0BD10B5140023000A0042
:1042F00001000E480068FFF775FA002804D001D5C8
:10430000200010BD0220C04310BD80B5022807D197
:10431000064908681431884207D0FFF747FD01BD00
:10432000032802D10020FFF76BFD01BD38110020EA
:104330000120FFE715490860002070470020EFF3D7
:10434000108172B6114A1368012B02D00120C043BC
:1043500001E00323136081F3108870470020EFF31E
:10436000108172B6094A1368032B02D00120C043A2
:1043700001E00123136081F31088704780B50A00C3
:10438000034905F021FA02BD00000000D00600201C
:104390007415041010B50100A54CB5480A78012A1F
:1043A00004D0052A0CD0062A0ED010BD486800782B
:1043B000C00701D4BBA000E0BDA0FEF777F810BD98
:1043C000FEF774F8012003E02430FEF76FF80020B8
:1043D000207010BD96490278002A02D0012A02D02E
:1043E0007047408800E0A348488070477CB5A148EA
:1043F0008F49488005F086FD9F4A00214020FFF745
:104400009EFE9E4CF72120002430FDF7DBFF4C225E
:104410008E204000211820002430FDF7DBFF200013
:10442000243000906E464C2030716946022005F021
:10443000F9FD0100924D02D02800FEF737F8F72170
:1044400020002430FDF7BEFF042221001E31200091
:104450002430FDF7D9FF2000243000900420307173
:104460006946002005F0DEFD002804D00100280088
:104470002C30FEF71BF873BD1CB5009369460A711A
:1044800000228049CC68A45CA04203D10B699B5CEC
:10449000012B05D0521CD2B20B7A9A42F2D106E01F
:1044A000634842886946032005F0F9FD16BD1220D5
:1044B00016BD78B585B005000C0002A800210022C9
:1044C00006C07048007D002879D0022005F076FEF5
:1044D0000020019004956846047056E0002033E007
:1044E0001D34180041381A2802D21C00C33401229E
:1044F000180061381A280CD21C00A334082B1BD0DA
:10450000092B04D00D2B19D0202B13D017E02B240E
:1045100015E00025680040195B4909180E789E4295
:1045200003D06D1C212DE9DAF4E7574C4A78A11C21
:104530000C5CE3E72C2402E02A2400E0282402A8F3
:104540008470002ACAD002206946087202AB082291
:1045500001210020FFF790FF002803D001004B4805
:10456000FDF7A4FF002002A908708870142402AB94
:10457000082201210020FFF77FFF641E882801D157
:10458000002CF4D10198401C0190019869460978EB
:10459000884217DA04980199415C3DA0FDF786FF37
:1045A00004980199435C00240022180030380A283E
:1045B00097D21C00D034200692D1272491E7022004
:1045C00005F000FE06B070BD10B52C48002101704A
:1045D00001220272022343722E4CC4602170627069
:1045E000A170E3700182817481758277C277202384
:1045F000C154212142544C214170D03141184160B5
:1046000010BD38B5244C254D0DE0215C6A46117073
:10461000401C8021C900884200D10020686001212F
:104620006846FFF746FF686829688142EDD131BDD1
:10463000F4110020F8B502000800184C2168164D4E
:10464000009200220AE0009E97B2F65D6E54491C6B
:104650008026F600B14200D10021521C96B286425B
:10466000F1D3216000214020FFF776FDF1BD00006D
:1046700050140410FFFF000003460410040500203E
:10468000981404105C1100206C060020F41404102F
:1046900025630000F8110020F0070020E41100203D
:1046A0007047000053757370656E640D0A0000005A
:1046B000457869742073757370656E640D0A000027
:1046C000704700003EB505F0BDFE14A000906C469A
:1046D000042020716946002005F0F4FE11A000902E
:1046E000092020716946012005F0ECFE10A0009021
:1046F000052525716946022005F0E4FE0EA0009014
:1047000025716946032005F0DDFE0548009007206D
:1047100020716946042005F0D5FE37BD53544D0085
:1047200018020020343530322D312E3000000000C8
:1047300030363330000000003030303100000000EF
:1047400010B501000BA40C480978012902D00229F8
:1047500005D13C30FDF7AAFE2000FDF7A7FE10BDF5
:10476000704780B505F035FF044A00218020FFF72F
:10477000E6FC01BD200A0D00680E041081470410FC
:1047800070477047704780B505F0B0FF01BD7047B6
:10479000010042221201D21E004207D002D4521E52
:1047A0000018FCD5C10A40051205891870470000A1
:1047B0000100EED54042F446FFF7EBFF0122D2079D
:1047C00011436047F0B50E005E400125ED072E4015
:1047D000B446AE0ADF184C18F44208D2F7420ED2A3
:1047E000640D01D07F0D12D100206146F0BD05D1CE
:1047F000F74201D87F0D05D10020C143F0BDFBD1A8
:10480000640DF9D00020C143490549088FE0E4193F
:10481000C902DB0229432B43DB0A460DC0023143A8
:104820008E4630B487B295B27D432E0CADB2140CD7
:104830007C43A419260C240425439CB27C43A41970
:10484000190C7943270CC919A4B20F043C43090C75
:10485000000C97B247432E0CBE193543ADB2170C6E
:104860004743360CBF19A6B2BF193E043543240C8A
:104870003E0C36199FB24743BF19BCB23E0C891992
:104880001F0C47437F183E043443390C704680B2F6
:1048900097B247432E0CBE193543ADB2170C4743B0
:1048A000360CBF19A6B2BF193E043543240C3E0C8A
:1048B00036199FB24743BF19BCB23E0C89191F0C71
:1048C00047437F183E043443390C77463F0C90B27F
:1048D00078432E0C80190604ADB22E43050CA0B20D
:1048E0002D18120C7A435019020C80B2240CA41813
:1048F0009AB27A43121914042043120C89181B0C23
:104900007B43C91830BCEF0A394203D1B619404184
:104910004941641E6F12BF0DE41B0BDBFF19BC4243
:1049200011DA240500274208AE417841614166460C
:104930003143F0BD641C05D1401C6141CF0201D35D
:104940004908F4E750E75DE730B4012464054D0001
:10495000EC420BD85D00EC4208D80C001C4364000C
:104960000443144304D28B4200D1824230BC7047CE
:10497000FCD09942FAD19042F8E70300FFFFFFFF15
:10498000FFFFFFFFFFFFFFFFFFFF01000000000030
:10499000FFFF01000000FFFFF4464A1805D200F0B7
:1049A0000FF801D580174008604700F009F8012191
:1049B000C907884200D90800404260474A1812D20D
:1049C000400DC90208430121C9070843520D402187
:1049D0000901521A521C06D452421F3201D4D0404F
:1049E0007047C017704700207047F0B40125ED07ED
:1049F0000F005F404FD48B4200D1824205D98446DC
:104A0000100062468C4619006346DF184C18640D8E
:104A10007F0D3AD0661C760537D0E61B352E34DC88
:104A2000DB022B43DB0A0C0DC9022943C912202EDD
:104A30000DDB1700203E06D01F00F741F3405F401A
:104A40000026012A7741C01871410DD217E01700E6
:104A5000F741F2405740F3415A40B340F3405A40C7
:104A60000026801859410AD3A21C52050FD0C20754
:104A7000012F724117004008CB0718434908641CF6
:104A800024054208AF4170416141F0BC7047641C8D
:104A900021050020F9E76B4010E06B40ABE7F742DF
:104AA000F3D1E943F1E72442EFD100200021ECE704
:104AB000F0B40125ED070F005F40EED40C00871A1B
:104AC0009C4105D2C01BA141D219634169406B4092
:104AD000AE0ADF184C18F442E1D2640D7F0DE2D02B
:104AE000E61B362ED1DCDB022B43DB0AA4460C0D81
:104AF000C9022943C90A012E28DC04D1D60752086D
:104B0000DF073A435B08EF0A76429041994114D09F
:104B100039423BD1B61940414941761C394204D152
:104B2000761C001849413942FAD0B9436746B7426A
:104B300008D9A41B24052143A7E70042EAD1364245
:104B4000E8D1A2E7E40AE10700209EE7202E0BDD72
:104B5000203E1F00F340F7415F40012A00225741E9
:104B60007E42984191410BE01700F741F2405740D7
:104B7000F3415A40B340F3405A407E42904199413C
:104B80000A0303D2641EB619404149410027641E3E
:104B900024054208AE4178416141F0BC7047FEE710
:104BA000C3788278417800781B021A430902120404
:104BB00008431043704780B505F0D0FD80BDF0B5C7
:104BC00093B01F4615460E4612901C9C084611468F
:104BD000224605F0C7FD002824D122980D901FAB76
:104BE0000DCB11901E980F901D980E901B980C9055
:104BF0001A9919981097189F089209930D9A0A927A
:104C00000097019002910C98039004940E980590DF
:104C10000F98069011980790129831462A46109BDB
:104C200005F0B3FD13B0F0BD80B505F0C0FD80BD4B
:104C30000020704780B505F0C1FD01BD80B50B00B7
:104C400011001A00FDF7C0FB01BD80B504F02CF87F
:104C500002BD7FB504000D001600684605F006FE93
:104C600068460178217041782970807830707FBD66
:104C700080B5FFF783FB02BD80B504F0A5FD02BD42
:104C800080B505F037FE01BD80B505F075FE02BDAB
:104C900080B505F093FE02BD80B505F0C3FF02BDEF
:104CA00080B506F00EF801BD80B506F012F801BD22
:104CB00080B506F023F802BD80B506F021F802BDEC
:104CC00080B506F01FF801BD80B501F0CFFB02BD35
:104CD00080B5FEF764F904BD80B5FEF787F902BD23
:104CE00080B5FEF78CF901BD80B5FEF7D5F8C0B2EE
:104CF00002BD80B5FEF7FEF8C0B202BD80B5FEF77A
:104D0000ABF804BD80B5FEF72AF901BDF0B597B048
:104D1000E54C6720C543FDF76FFDE44E012802D046
:104D2000F07A002810D027462C463834FDF764FD71
:104D3000F17A6143784338184418FDF75DFDF17A44
:104D40004143DB48484324182634FDF755FD01282C
:104D50000ED1284660303189414328464430B27A2A
:104D60004243501829464831327B4A43801800E0BC
:104D700000200390F0890A9006F04CF8012801D039
:104D800006F04AF8FDF734FD0128119409D12C46AC
:104D90003834FDF731FD6043F17A41430839099118
:104DA00001E000200990F2484C30139006F034F8EE
:104DB000012815D006F02EF8012811D02920305CEA
:104DC00000280DD12520305C002809D12620305C38
:104DD000002802D0E6484C3001E0284624301390E9
:104DE000E3486C30129006F017F8012815D006F051
:104DF00011F8012811D02920305C00280DD1252080
:104E0000305C002809D12620305C002802D0D84828
:104E10006C3001E028463C30129005F0FDFF109008
:104E2000B07E0090F07F0F90FDF7E6FC0790F07FDA
:104E3000019005F0F3FF0890F07F0290FDF708FD68
:104E4000002705F0EDFF01283846159516974FD13C
:104E5000707F0A2800D30A202C4638344443C03CD3
:104E6000002505F0DFFF01282F4620D1FDF7C4FC07
:104E700001280E9503D0159B1846543002E0159B6F
:104E800018464830BA49E431B27F4A4310183546D3
:104E90001E466036E97F32468A408718FDF7ACFC33
:104EA000012802D1E87A4643BF192E460E9DE0192B
:104EB0001490FFF7BDFE074605F0B4FF04463C40E2
:104EC000FDF79AFC2040012808D1F07E401E032106
:104ED0000143B07FB0224243D043451A149844198D
:104EE00005F09AFF6043A24908182C30159D169FC3
:104EF0000690FDF781FC0128394609D105F094FFA1
:104F00000128394604D12220305C2946143141431E
:104F1000059105F087FF0128384621D19448D43007
:104F2000B17E414328464830F27A42435418002764
:104F3000FFF77EFE012810D1FDF75EFC01280CD1A1
:104F4000159A10465830317F414310466030F27E4A
:104F5000424350188438B77E4743E019159D169F89
:104F60000E9005F063FF0128384633D1FDF744FC6D
:104F7000012802D02F465C3704E028466030F77ADB
:104F800047430C3F2325705D00240028204605D0B0
:104F9000FDF732FC705D404203218843C01924278D
:104FA000F15D159A64324A43851805F039FF0128EE
:104FB0000DD105F031FF012809D105F033FF01289B
:104FC00005D1F45D002C159801D004465034281901
:104FD000159D169F0D90FDF70FFC0128394609D14C
:104FE00005F026FF0128394604D128464830F17AD9
:104FF000414314390C91FDF7FFFB01283A4608D1D3
:1050000005F018FF01283A4603D128464C30F27AC1
:1050100042432620315C2520345C63182920305C13
:105020000493002B149010D02820335C2846603065
:105030005843F83848432723F35C54355D434C4BC1
:105040005B19483363431F181498002816970B9276
:105050000DD002462A20305C454D2B46B0334343E9
:1050600037462E46C8365643F318483B03E02A20FD
:10507000305C002337462826BE5D71430918272679
:105080003D46BE5D74432418601813D0159F3E46FC
:105090004C3666433C4634344C43A1193C465C34A0
:1050A00044430C19143C07E010FCFFFFAC10002037
:1050B0007CFDFFFF0024159F03990A9E1198081894
:1050C00039464431714340180999401813994018E2
:1050D000129941183846603006460F9A9640891951
:1050E000109A012A06D1224E009A5643711845267D
:1050F000B60089192E46079D059A012D02D1019D02
:10510000A84009180898012805D138461830029D92
:10511000A840411870390698049D081880180E9907
:1051200040180D9940180C9940180B994018149983
:10513000CD4201D03818583016994018C0180419BB
:1051400005F07AFE012800D1E419706820180321C7
:10515000C943F28DD21C0A40B38DDB1C0B409A1858
:10516000338EDB1C0B40D118401A17B0F0BDC0467F
:1051700090FEFFFFF0B595B00120810414912E48F8
:105180000160BFF34F8FBFF36F8F03F065FEFFF732
:10519000B0FD00201290C04303F052FE05F03AFE2D
:1051A0001390FDF725FB119005F036FE109005F0E9
:1051B00035FE0F90FDF74CFB05F032FE0E9005F02A
:1051C00033FE0D9005F02EFE0C90FFF731FD0B9095
:1051D00005F02CFE044605F02BFE0546FDF70CFB02
:1051E000064605F027FE074605F026FEC0B2F9B2D6
:1051F00008910990F0B2E9B2E2B20B9BDBB20C9CD1
:10520000E4B20D9DEDB20E9EF6B2129F009701968C
:105210000295039404930592069107901398C0B2E7
:105220001199C9B20F9AD3B2109A05F007FE03483C
:105230001499016015B0F0BD80E100E000E100E0EC
:105240000100202008437047FDB5B2B03A980491A0
:1052500002A93B22885400200D9024A8401C2F90C6
:105260000DE00498329A90470490002801D100F094
:10527000B7FE0D98401C0D903398401C3390339826
:105280000178002910D02529EBD100200790089043
:1052900009900A900B900C90002102240120149098
:1052A00008201290339D05E00D9800F09BFE080049
:1052B000149901436D1C28782028F8D023280BD09E
:1052C0002B2804D02D2804D0302808D00AE0214310
:1052D000F0E708000421ECE708000821E9E70800EE
:1052E0001021E6E72A280FD1349802681068121DB1
:1052F000349B1A600F90002804D542420F92080098
:10530000042101436D1C12E000200F90644A09E063
:105310000F9B934205DA9E00F3185B001818303893
:105320000F906D1C28780300303B0A2BF0D32878AF
:105330002E2803D00020C0430E9027E06D1C287853
:105340002A2808D1349800680268001D349B186030
:105350000E926D1C1AE02D2802D12D226D1C00E04A
:10536000002200200E900CE0002A09D10E9B4C4E2A
:10537000B34205DA9E00F3185B00181830380E901F
:105380006D1C28780300303B0A2BEDD302A801875F
:105390002E78310040487844FF30401E05F0C8FDAB
:1053A000002801D06D1C00E0002602A83A214654D6
:1053B000405C682804D1287868280BD1622005E079
:1053C0006C2807D128786C2804D1712002A93A22D0
:1053D00088546D1C15A80690287869460870681CCA
:1053E0003390684602781000253833D01C3800D13D
:1053F000CCE1001F022800D8C8E1133801D100F029
:1054000019FD093800D1C1E1801E01D100F0AFFDC6
:10541000401E01D100F05CFD401E022800D8B5E11D
:10542000001F01D100F054FD401F00D108E1401ED3
:1054300001D100F0FFFC401E00D1F0E0C01E0ED0F4
:10544000801E01D100F0F6FCC01E01D100F0F2FC7C
:1054500000F098FD14980790252015A97CE1349858
:1054600000680468001D349908600594002C00D081
:10547000C1E002A83B21405C002800D1B5E0002437
:10548000E44306487844143005F05CFD201A01D04E
:1054900000F0A6FD00F083FD38C2FFFF6CC2FFFFE5
:1054A000CBCCCC0C01236A4602A9280000F054FEA4
:1054B000002801D000F094FD641EF3D13295079DC1
:1054C00015AC002D0FD0329E21780498B04704907F
:1054D000002801D100F084FD0D98401C0D90641C43
:1054E0006D1EF1D132963020694608700A9C002C5E
:1054F0000DDD329D01236A4602A9280000F02CFE32
:10550000002801D000F06CFD641EF3D13295059C9B
:10551000089D002D0FD0329E21780498B04704904A
:10552000002801D100F05CFD0D98401C0D90641C1A
:105530006D1EF1D13296302769460F700B9C002CFE
:105540000DDD329D01236A4602A9280000F004FE09
:10555000002801D000F044FD641EF3D13295059877
:1055600008994418099D002D0FD0329E2178049887
:10557000B0470490002801D100F032FD0D98401C86
:105580000D90641C6D1EF1D13296684607700C9C1C
:10559000002C0DDD329D01236A4602A9280000F08F
:1055A000DBFD002801D000F01BFD641EF3D1329515
:1055B00002A83821405C400700D460E620206946FC
:1055C00008700198002800DC59E6019C329D0123F7
:1055D0006A4602A9280000F0BFFD002801D000F0B3
:1055E000FFFC641EF3D1329549E61B4878446830CD
:1055F000059000F0D4FC0E9D002D03D5200005F091
:10560000C5FC09E02A000021200005F0C7FC0028A5
:1056100001D0001B00E02800089000F0C0FC349886
:1056200000680268001D349908600020C043002112
:10563000104002AA03C215A80590782100F093FC3F
:1056400002A83B21415C002908D00024E4434B48D8
:105650007844FF30293017E7CCC0FFFF3A21405C87
:1056600062286AD0682819D06A2845D06C2806D0EC
:1056700071284FD0742831D07A2821D06FE0349827
:1056800000680168001D349A106000297AD1002456
:10569000E4433B487844FF301738F5E63498006817
:1056A0000168001D349A1060002905D10024E443EC
:1056B00033487844CA30E7E60D98088000F06FFC64
:1056C000349800680168001D349A1060002959D18F
:1056D0000024E4432A487844A630D5E6349800688C
:1056E0000168001D349A106000294BD10024E44366
:1056F000234878448A30C7E6349800680268001D61
:1057000034990860002A13D10024E4431C487844EB
:105710006E30B9E6349800680268001D349908605C
:10572000002A05D10024E443154878445230ABE602
:105730000D98C11703C200F032FC3498006801686C
:10574000001D349A1060002905D10024E4430C4860
:1057500078442C3098E60D98087000F020FC3498BE
:1057600000680168001D349A106000290AD10024E5
:10577000E44303487844083086E600BF5CBFFFFF7F
:1057800070BFFFFF0D98086000F009FC34980068B6
:10579000C31D072083433498036003CB349D2B60E3
:1057A00002AB03C32023C80F04D007982D2115ABEB
:1057B00019540DE002A8008F204204D007982B2135
:1057C00015AB195404E0C00704D5079815A90B546C
:1057D000401C079015A8079940181390139805903E
:1057E00024AD02A8C0C8684600782021014368465D
:1057F0008170807861280BD00E98002801D5062092
:1058000005E005D168468078672801D114980E908C
:1058100002A803C808004B005B150024E443A34220
:105820000ED109030CD003200890613A1A2A03D242
:105830001949794462310FE0184979445E310BE02F
:10584000A3420ED100030CD103200890613A1A2A1A
:105850001DD313497944483103221398FCF7D4FD32
:105860009DE301AA02A803C805F0A3FB02AA03C294
:105870006846807861281CD1059830210170811C10
:1058800005916946097861290ED178210DE0054915
:1058900079441031E0E700BF90BEFFFF90BEFFFFEC
:1058A00094BEFFFF8CBEFFFF582141700798801CFB
:1058B000079002A803C82246530802400B4004D1B7
:1058C000002A02D10024002652E16846807861282F
:1058D00000D099E00E98002801D5212000E0401C5E
:1058E00013901398401C2E903000390000220023A2
:1058F00005F074FB02A830C802D2802000064540A3
:105900000198001F019024A90A7024A8461C2E9813
:10591000002832DD2E9F20002900002280235B0317
:10592000FFF712F829D81C2205F071FB04000D00C6
:10593000FFF732F82E90FF1F002F09DDFEF738FF2A
:1059400002000B0020002900FFF7B2F804000D0050
:10595000F01D07212E9A002A0ADD491E08D4401E98
:1059600013071B0F03701211F5E7401E002202708F
:10597000491EFAD5C61D002FCDDC24A82F99711A17
:1059800024AA551C139A0C00914200DD1400002C2F
:1059900033D48C4205DA411C095D082901DB0F2153
:1059A00000E00021220024AB9B1801E0641E5B1E76
:1059B000521E1E788E42F9D00F2904D1411C895CF9
:1059C000491C401C8154002A04D524AD641C019854
:1059D000001D0190611E10D46A1868460078137883
:1059E0003033DEB23A2E01DBC318C6331370491EC2
:1059F000521E0029F3D5694608700E98002800D47D
:105A0000B5E0601E0E90B2E07F007F080198664905
:105A10004843664903F004F8019007200199401AB1
:105A2000002805DD02003000390000F06FFB0AE0BD
:105A3000424200205E4900F069FB02000B0030008A
:105A4000390005F01CFB6A469278662A02D1019A59
:105A50000A3200E006220E9B9A18142A00DD142256
:105A600024AB30241C705C1C02E030A803C8139ADD
:105A7000002A3CDD30AB03C3139230A803C8FEF705
:105A80009DFF2E9006460834042530000A2102F0BE
:105A9000CAFF0F0030000A2102F0C5FF06003037B0
:105AA000601E077030000A2102F0BDFF0F003000B9
:105AB0000A2102F0B8FF0600A41E303727706D1EC1
:105AC000E3D108341398083813900028CDDD2E98C0
:105AD000FEF75EFE02000B0030A803C8FEF7E8FFE9
