:020000041004E6
:1000000000600020FD8305108D8705108F87051087
:1000100000000000000000000000000000000000E0
:1000200000000000000000000000000091870510A3
:100030000000000000000000938705109587051060
:10004000037504104B7F0410778B0410EB8F0410A2
:100050000000000000000000000000002F910410CC
:100060009D870510379304106B9304106B94041054
:100070000F9F0410B987051000000000E3870510EA
:10008000F18705104FA70410D3870510000000006A
:10009000CB8705100000000000000000C38705109A
:1000A000FFA70410DB870510D7AE04102FAF041094
:1000B0000000000000000000000000000000000040
:1000C00074100020A62300000400010200000900B3
:1000D00017000000FFFFFFFF64000110080000038D
:1000E000F70001000001010202020200000100030A
:1000F000000400004572726F7220696E20424C4508
:100100005F535441434B5F496E697428292030780E
:10011000253032780D0A000020204661696C2020CD
:10012000203A206163695F68616C5F7365745F7416
:10013000785F706F7765725F6C6576656C20636F52
:100140006D6D616E642C20726573756C743A20302D
:1001500078253032580A0000202053756363657398
:10016000733A206163695F68616C5F7365745F7483
:10017000785F706F7765725F6C6576656C20636F12
:100180006D6D616E640A000020204661696C20205C
:10019000203A206163695F676174745F7372765F90
:1001A00070726F66696C655F696E697420636F6DEC
:1001B0006D616E642C20726573756C743A203078B2
:1001C000253032580A0000002020537563636573A0
:1001D000733A206163695F676174745F7372765FFD
:1001E00070726F66696C655F696E697420636F6DAC
:1001F0006D616E640A0000000A2A202A202A202A43
:10020000204170706C69636174696F6E206E616DFE
:1002100065203A20424C455F507269766163795F90
:100220005065726970686572616C202A202A202AE4
:10023000202A0A0020204661696C2020203A20688C
:1002400063695F6C655F7365745F6576656E745F27
:100250006D61736B28292C20726573756C743A304C
:1002600078253032580A0000202053756363657387
:10027000733A206863695F6C655F7365745F657668
:10028000656E745F6D61736B0A000000202046612B
:10029000696C2020203A206163695F6761705F6943
:1002A0006E697420636F6D6D616E642C207265736E
:1002B000756C743A203078253032580A00000000FE
:1002C0002020537563636573733A206163695F67C8
:1002D00061705F696E697420636F6D6D616E640A31
:1002E0000000000020205374617469632052616E25
:1002F000646F6D20426C7565746F6F746820416423
:1003000064726573733A20253032783A253032783A
:100310003A253032783A253032783A253032783AF8
:10032000253032780A00000020204661696C2020C8
:10033000203A204761705F70726F66696C655F7309
:1003400065745F6465765F6E616D65202D20446520
:1003500076696365204E616D652C20726573756CDE
:10036000743A203078253032580A00002020537526
:1003700063636573733A204761705F70726F66697B
:100380006C655F7365745F6465765F6E616D652033
:100390002D20446576696365204E616D650A000015
:1003A00020204661696C2020203A204761705F70F0
:1003B000726F66696C655F7365745F6170706561AB
:1003C00072616E6365202D20417070656172616E8F
:1003D00063652C20726573756C743A203078253013
:1003E00032580A002020537563636573733A2047BF
:1003F00061705F70726F66696C655F7365745F6171
:100400007070656172616E6365202D20417070654A
:100410006172616E63650A0020204661696C20206C
:10042000203A206163695F6761705F7365745F691B
:100430006F5F6361706162696C69747920636F6D6D
:100440006D616E642C20726573756C743A2030781F
:10045000253032580A00000020205375636365730D
:10046000733A206163695F6761705F7365745F6988
:100470006F5F6361706162696C69747920636F6D2D
:100480006D616E640A00000020204661696C2020C6
:10049000203A206163695F6761705F7365745F73A1
:1004A000656375726974795F726571756972656D7E
:1004B000656E747320636F6D6D616E642C20726560
:1004C00073756C743A203078253032580A00000079
:1004D0002020537563636573733A206163695F67B6
:1004E00061705F7365745F73656375726974795F5A
:1004F000726571756972656D656E747320636F6D79
:100500006D616E640A00000020204661696C202045
:10051000203A206163695F6761705F636F6E66692F
:10052000677572655F66696C7465725F6163636548
:1005300070745F616E645F7265736F6C76696E670D
:100540005F6C69737420636F6D6D616E642C2072D3
:100550006573756C743A203078253032580A000083
:100560002020537563636573733A206163695F6725
:1005700061705F636F6E6669677572655F66696CEF
:100580007465725F6163636570745F616E645F72EE
:1005900065736F6C76696E675F6C69737420636FE7
:1005A0006D6D616E640A00005365727669636573F0
:1005B00020616E642043686172616374657269735F
:1005C00074696373206372656174696F6E0A0000F9
:1005D000456E64206F66205365727669636573208B
:1005E000616E6420436861726163746572697374DB
:1005F000696373206372656174696F6E0A0000003D
:100600003E3E3D3D204843495F444953434F4E4E93
:10061000454354494F4E5F434F4D504C4554455F01
:100620004556545F434F44450A00000020202020D7
:10063000202D20436F6E6E656374696F6E20486174
:100640006E646C653A2020203078253032580A20BC
:10065000202020202D20526561736F6E3A202020CB
:10066000203078253032580A000000003E3E3D3DE3
:10067000204843495F4C455F434F4E4E45435449E4
:100680004F4E5F5550444154455F434F4D504C458C
:1006900054455F5355424556545F434F44450A0005
:1006A00020202020202D20436F6E6E656374696FBB
:1006B0006E20496E74657276616C3A202020256444
:1006C0002E25303264206D730A20202020202D201A
:1006D000436F6E6E656374696F6E206C6174656ED6
:1006E00063793A2020202025640A20202020202D14
:1006F000205375706572766973696F6E2054696DE9
:10070000656F75743A2020202564206D730A0000FF
:100710003E3E3D3D204143495F4741505F50524F6F
:10072000435F434F4D504C4554455F5653455654D7
:100730005F434F44450A00003E3E3D3D2041434952
:100740005F4741505F4B455950524553535F4E4FA1
:1007500054494649434154494F4E5F5653455654B8
:100760005F434F44450A00003E3E3D3D2041434922
:100770005F4741505F504153534B45595F5245517C
:100780005F56534556545F434F44450A00000000EE
:100790003D3D3E3E206163695F6761705F706173DC
:1007A000736B65795F72657370203A204661696C7E
:1007B0002C20726561736F6E3A2030782530325884
:1007C0000A0000003D3D3E3E206163695F67617045
:1007D0005F706173736B65795F72657370203A2027
:1007E000537563636573730A000000003E3E3D3D30
:1007F000204143495F4741505F4E554D4552494363
:100800005F434F4D50415249534F4E5F56414C55F7
:10081000455F56534556545F434F44450A00000018
:100820003D3D3E3E206163695F6761705F6E756D3F
:10083000657269635F636F6D70617269736F6E5F1C
:1008400076616C75655F636F6E6669726D5F796501
:10085000736E6F203A204661696C2C20726561735B
:100860006F6E3A203078253032580A003D3D3E3ECA
:10087000206163695F6761705F6E756D6572696342
:100880005F636F6D70617269736F6E5F76616C75B7
:10089000655F636F6E6669726D5F7965736E6F20F9
:1008A0003A20537563636573730A00003E3E3D3D15
:1008B000204143495F4741505F50414952494E47AB
:1008C0005F434F4D504C4554455F56534556545F1A
:1008D000434F44450A00000020202020202D2050B6
:1008E000616972696E67204B4F0A20202020202DFD
:1008F000205374617475733A203078253032580A69
:1009000020202020202D20526561736F6E3A203008
:1009100078253032580A00003E3E3D3D2041434993
:100920005F474154545F5352565F524541445F56AE
:10093000534556545F434F44450A00003D3D3E3EFB
:1009400020636F6E6E656374696F6E5F636F6D7049
:100950006C6574655F6576656E74204661696C2CA4
:10096000205374617475733A203078253032580AF8
:10097000000000003E3E3D3D206863695F6C655F9E
:10098000636F6E6E656374696F6E5F636F6D706CBD
:100990006574655F6576656E74202D20436F6E6E9D
:1009A000656374696F6E2068616E646C653A2030AF
:1009B00078253034580A000020202020202D2043A4
:1009C0006F6E6E656374696F6E2065737461626CBF
:1009D0006973686564207769746820403A2530320D
:1009E000783A253032783A253032783A25303278E4
:1009F0003A253032783A253032780A0020202020FB
:100A0000202D20436F6E6E656374696F6E20496E92
:100A100074657276616C3A20202025642E25303270
:100A200064206D730A20202020202D20436F6E6EDD
:100A3000656374696F6E206C6174656E63793A20CA
:100A400020202025640A20202020202D205375708E
:100A50006572766973696F6E2054696D656F757420
:100A60003A202564206D730A000000005365745419
:100A700061736B20204346475F5441534B5F5045A1
:100A8000524950484552414C5F5345435552495491
:100A9000595F524551554553540A00006163695FDF
:100AA0006761705F7465726D696E617465206661FF
:100AB000696C7572653A20726561736F6E3D30784E
:100AC000253032580A0000003D3D3E3E20616369FA
:100AD0005F6761705F7465726D696E617465203AFD
:100AE00020537563636573730A0000006163695F77
:100AF000676174745F636C745F65786368616E6767
:100B0000655F636F6E666967206661696C757265A3
:100B10003A20726561736F6E3D3078253032580A25
:100B2000000000003D3D3E3E206163695F676174E7
:100B3000745F636C745F65786368616E67655F633B
:100B40006F6E666967203A20537563636573730A35
:100B5000000000003D3D3E3E206163695F676170BB
:100B60005F7365745F6164766572746973696E67DB
:100B70005F636F6E66696775726174696F6E202D51
:100B8000206661696C2C20726573756C743A203034
:100B900078253032580A00003D3D3E3E20537563B3
:100BA000636573733A206163695F6761705F736542
:100BB000745F6164766572746973696E675F636F91
:100BC0006E66696775726174696F6E0A0000000075
:100BD0003D3D3E3E206163695F6761705F73657490
:100BE0005F6164766572746973696E675F6461746E
:100BF00061204661696C65642C20726573756C7444
:100C00003A203078253032580A0000003D3D3E3E03
:100C100020537563636573733A206163695F67612D
:100C2000705F7365745F6164766572746973696E11
:100C3000675F646174610A003D3D3E3E2061636907
:100C40005F6761705F7365745F6164766572746914
:100C500073696E675F656E61626C65204661696C81
:100C600065642C20726573756C743A203078253079
:100C700032580A003D3D3E3E2053756363657373F1
:100C80003A206163695F6761705F7365745F616477
:100C9000766572746973696E675F656E61626C65B3
:100CA0000A00000044697361626C652061647665C6
:100CB00072746973696E67202D206661696C2C20DF
:100CC000726573756C743A203078253032580A009A
:100CD0003D3D3E3E2044697361626C6520616476EF
:100CE0006572746973696E67202D2053756363653F
:100CF00073730A006163695F6C326361705F636F75
:100D00006E6E656374696F6E5F706172616D65743C
:100D100065725F7570646174655F726571202D2006
:100D20006661696C2C20726573756C743A2030783A
:100D3000253032580A0000003D3D3E3E2061636987
:100D40005F6C326361705F636F6E6E656374696F51
:100D50006E5F706172616D657465725F75706461FC
:100D600074655F726571202D2053756363657373BD
:100D70000A0000006163695F6761705F7365745F9B
:100D80007363616E5F726573706F6E73655F6461CC
:100D900074612829204661696C65642C2072657332
:100DA000756C743A203078253032580A0000000003
:100DB0003D3D3E3E20537563636573733A20616326
:100DC000695F6761705F7365745F7363616E5F72A3
:100DD0006573706F6E73655F646174610A00000013
:100DE00020204661696C2020203A206163695F679A
:100DF00061705F6765745F626F6E6465645F646590
:100E000076696365732829206661696C65643A3088
:100E100078253032580D0A002020537563636573BE
:100E2000733A206163695F6761705F6765745F62D1
:100E30006F6E6465645F646576696365733B204EBD
:100E40003A2025640A00000020204661696C2020B9
:100E5000203A206163695F6761705F636F6E6669E6
:100E6000677572655F66696C7465725F61636365FF
:100E700070745F616E645F7265736F6C76696E67C4
:100E80005F6C69737428292C206572726F723A3016
:100E900078253032580A000020205375636365734B
:100EA000733A206163695F6761705F636F6E666943
:100EB000677572655F66696C7465725F61636365AF
:100EC00070745F616E645F7265736F6C76696E6774
:100ED0005F6C6973740A000020204661696C2020F1
:100EE000203A206163695F6761705F6765745F6264
:100EF0006F6E6465645F6465766963657328292C29
:100F0000206572726F723A3078253032580A0000CC
:100F100020204661696C2020203A206863695F6C5C
:100F2000655F7365745F707269766163795F6D6F19
:100F3000646528292C206572726F723A30782530EA
:100F400032580A002020537563636573733A206832
:100F500063695F6C655F7365745F70726976616306
:100F6000795F6D6F646528446576696365205072AA
:100F70006976616379204D6F6465292C20626F6EFC
:100F80006465645F6465766963652E416464726557
:100F9000737320253032583A253032583A25303292
:100FA000583A253032583A253032583A253032589E
:100FB0000A0000003D3D3E3E206163695F6761704D
:100FC0005F7365745F6164766572746973696E6777
:100FD0005F636F6E66696775726174696F6E2028F2
:100FE0004843495F4144565F46494C5445525F412E
:100FF00043434550545F4C4953545F5343414E5F04
:10100000434F4E4E45435429202D206661696C2C78
:1010100020726573756C743A203078253032580A26
:10102000000000003D3D3E3E2053756363657373D1
:101030003A206163695F6761705F7365745F6164C3
:10104000766572746973696E675F636F6E666967F0
:1010500075726174696F6E20284843495F41445638
:101060005F46494C5445525F4143434550545F4CA1
:101070004953545F5343414E5F434F4E4E45435493
:10108000290A00003D3D3E3E206163695F67617053
:101090005F7365745F6164766572746973696E67A6
:1010A0005F64617461204661696C6564202846490B
:1010B0004C544552292C20726573756C743A20305B
:1010C00078253032580A00003D3D3E3E205375637E
:1010D000636573733A206163695F6761705F73650D
:1010E000745F6164766572746973696E675F646169
:1010F0007461202846494C544552290A00000000DA
:101100003D3D3E3E206163695F6761705F7365745A
:101110005F7363616E5F726573706F6E73655F643A
:101120006174612829204661696C656420284649FC
:101130004C544552292C20726573756C743A307882
:10114000253032580A0000003D3D3E3E2053756375
:10115000636573733A206163695F6761705F73658C
:10116000745F7363616E5F726573706F6E73655FDA
:1011700064617461202846494C544552290A000094
:101180003D3D3E3E206163695F6761705F736574DA
:101190005F6164766572746973696E675F656E61BD
:1011A000626C65204661696C6564202846494C5430
:1011B0004552292C20726573756C743A203078255D
:1011C0003032580A000000003D3D3E3E205375631A
:1011D000636573733A206163695F6761705F73650C
:1011E000745F6164766572746973696E675F656E5A
:1011F00061626C65202846494C544552290A00001A
:101200003D3D3E3E206163695F6761705F636C6571
:1012100061725F73656375726974795F6462202DB2
:10122000204661696C2C20726573756C743A2030AD
:1012300078253032580A00003D3D3E3E206163690A
:101240005F6761705F636C6561725F736563757220
:101250006974795F6462202D2053756363657373CD
:101260000A00000000000000020000003000002022
:10127000000000000800000008020020000000003C
:1012800001000000940400200000FFFF00000000A7
:101290000400000088120410000000000500000097
:1012A000241000200000000001000000AECC04105B
:1012B000010000000300000040100020200000009A
:1012C000FB349B5F8000008000100000052A0000B6
:1012D0001000000001000000EC0200208C1204103D
:1012E0000A000000FB349B5F8000008000100000BB
:1012F000292B00001000000000000000000000008A
:101300009812041002000000FB349B5F80000080F4
:10131000001000002A2B0000100000000000000058
:10132000000000000000000002000000FB349B5F92
:1013300080000080001000003A2B00001000000028
:101340000000000000000000A412041096C298D80B
:101350004539A1F4A033EB2D817D0377F240A463DE
:10136000E5E6BCF847422CE1F2D1176BF551BF37E7
:101370006840B6CBCE5E316B5733CE2B169E0F7CBA
:101380004AEBE78E9B7F1AFEE242E34F00F0061025
:1013900000080000AA02000000F80610F80701008B
:1013A0000000000096C298D84539A1F4A033EB2D77
:1013B000817D0377F240A463E5E6BCF847422CE167
:1013C000F2D1176BF551BF376840B6CBCE5E316BAB
:1013D0005733CE2B169E0F7C4AEBE78E9B7F1AFE6F
:1013E000E242E34F2D2D2047415454203A204348F8
:1013F00041522050524956414359204E4F5449467C
:101400005920454E41424C4544204556540A00005F
:101410002D2D2047415454203A204348415220501A
:1014200052495641435920434F4E46494755524130
:1014300054494F4E2052454345495645440A000001
:1014400020204661696C2020203A206163695F6733
:101450006174745F636F6E6669726D5F696E6469F3
:10146000636174696F6E20636F6D6D616E642C20B3
:10147000726573756C743A2030782558200A000024
:101480002020537563636573733A206163695F67F6
:101490006174745F636F6E6669726D5F696E6469B3
:1014A000636174696F6E20636F6D6D616E640A00B5
:1014B00020204661696C2020203A206163695F67C3
:1014C0006174745F7372765F6164645F7365727672
:1014D00069636520636F6D6D616E643A2053525687
:1014E000435F507269766163792C206572726F7206
:1014F00020636F64653A2030782578200A00000068
:101500002020537563636573733A206163695F6775
:101510006174745F7372765F6164645F7365727621
:1015200069636520636F6D6D616E643A2053525636
:10153000435F50726976616379200A00202046611A
:10154000696C207265676973746572696E67205390
:101550005256435F507269766163792068616E64A8
:101560006C6572730A0000001A102D00669A0C2038
:10157000000868B5E8115CCC213EF05780000000FF
:10158000010000003403002050030020669A0C2064
:10159000000868B5E8115CCC203EF05780000000E0
:1015A0000100000000000000000000000100000039
:1015B0006815041020204661696C2020203A2061C3
:1015C00063695F676174745F7372765F6E6F74696D
:1015D000667920434841525F505249564143592051
:1015E000636F6D6D616E642C206572726F72206323
:1015F0006F64653A2030782532580A0020205375F0
:1016000063636573733A206163695F676174745FD4
:101610007372765F6E6F7469667920434841525FDA
:101620005052495641435920636F6D6D616E640A93
:101630000000000053656E64204E6F746966696334
:101640006174696F6E202D202070446174612D3E9D
:10165000705F5061796C6F61645B305D203D20305C
:1016600078253032580A0000010000000100000017
:101670003A1000202D2D2050524956414359204107
:1016800050504C49434154494F4E205345525645C2
:1016900052203A204E4F54494649434154494F4EF7
:1016A00020454E41424C45440A0000002D2D20505B
:1016B000524956414359204150504C4943415449A5
:1016C0004F4E20534552564552203A204E4F5449D2
:1016D0004649434154494F4E2044495341424C45A9
:1016E000440A000020204661696C2020203A2050E6
:1016F000616972696E6720726571756573743A20ED
:10170000307825580A00000020204661696C2020AE
:10171000203A206163695F6761705F6765745F622B
:101720006F6E6465645F64657669636573282920FC
:101730006661696C65643A3078253032580D0A006C
:101740002020537563636573733A206163695F6733
:1017500061705F6765745F626F6E6465645F646526
:1017600076696365733B204E3A2025640A000000C9
:101770004587051051870510F185051091860510E4
:101780006F8405101F850510686A6C747A4C000020
:101790007072696E74665F733A20256E2064697397
:1017A000616C6C6F776564007072696E74663A2064
:1017B00062616420256E20617267756D656E7400CC
:1017C0007072696E74665F733A206261642025737B
:1017D00020617267756D656E740000000000000086
:1017E0006E616E004E414E00696E6600494E4600C5
:1017F00030002E00FB349B5F800000800010000052
:10180000292B000010000000FB349B5F800000804B
:1018100000100000052A0000100000000200000077
:1018200003000000030000000600000003000000A9
:10183000030000003C000000700000007000000089
:10184000D003000070000000C301000029910510C2
:101850009FBC04107FC70410B7CA041003C904104A
:10186000912A0410A1D80510A52C0410AD2C041049
:10187000B52C0410BD2C0410C52C0410C9960510FD
:10188000752C0410652C04107D2C04108F2B041073
:10189000D12A0410DF2B0410592B041027BC04108C
:1018A000C92A0410B5950510F5DA051051D90510AF
:1018B000F5DC051007DF051007DF05101DE005103A
:1018C000F5DC0510F7E10510F7E10510F7E105106B
:1018D000F9DB05100BD90510CFD805101DE0051058
:1018E000B92A0410C12A0410AFE50510B7E50510A8
:1018F000B3E50510F12A0410F92A0410012B041095
:10190000092B041063E50510192B0410212B04107A
:10191000292B0410112B04106BE5051073E505103D
:1019200077E5051067E505106FE5051078B597B008
:10193000062106A800F09CFE0620694608730026D2
:10194000CE81B84C0AA82100342200F099FE0AA8E2
:1019500000F0BEFE010005D02000343000F0EEFEA5
:1019600000F0B5FF1821002000F0B6FF002805D0D8
:1019700001002000583000F0E1FE03E02000983024
:1019800000F0DCFE05A9891C012000F0A9FF002859
:1019900005D001002000C83000F0D0FE04E0842013
:1019A0004000201800F0CAFE9C204000201800F0E3
:1019B000C5FE08A85BA10CC90CC008A800F0C4FFB4
:1019C000002806D00100BA204000201800F0B6FE22
:1019D00004E0D4204000201800F0B0FE01210220D5
:1019E00000F0C2FF002806D00100E62040002018C9
:1019F00000F0A4FE04E080208000201800F09EFE8D
:101A000004A8009004AB9B1C05AA0221012000F051
:101A1000B3FF06AA03A9802001F036F806A80178D2
:101A200002914178019181780091C37802794179DE
:101A300089208000201800F081FE00BF3BA2122107
:101A4000002000F0CEFF002806D001009A20800080
:101A5000201800F073FE04E0AB208000201800F096
:101A60006DFE03AA921C0221002000F0C0FF002896
:101A700006D00100B8208000201800F05FFE04E0CE
:101A8000C9208000201800F059FE674D2E700020FC
:101A900001F020F9002806D00100D620800020188F
:101AA00000F04CFE04E0E6208000201800F046FE26
:101AB000012068700721E97010212971A870029631
:101AC000019107200090002301220121012001F053
:101AD00005F9002806D00100F2208000201800F04F
:101AE0002DFE04E08220C000201800F027FEA87818
:101AF000002810D0012001F044F9002806D0010090
:101B00008920C000201800F019FE04E09420C000D5
:101B1000201800F013FE00BF09A000F00FFE18B05F
:101B200070BD00001F0200000000000050726976C6
:101B3000616379205065726970686572616C00003C
:101B40003D3D3E3E20456E6420424C455F496E69F6
:101B5000742066756E6374696F6E0A0080B522E04A
:101B600080B5012001F01DF901F01EF9012001F0FE
:101B700019F901BD80B501F0FDF901BD80B5002165
:101B8000022012E080B502F0D6FB01BD80B5FFF760
:101B9000F5FF01BD80B502F001FCFFF7EFFF012169
:101BA000042002E080B50121012002F017FD01BDF3
:101BB00038B51E4A0021012002F003FD1C4A002115
:101BC000022002F0FEFC1B4A0021042002F0F9FC76
:101BD00002F066FD02F0EEFD0021C943884201D10A
:101BE00000F075FEFFF7A2FE0F4C0020A073124814
:101BF000A081124A0021402002F0E3FC1048A061BD
:101C000010A4200000F09AFD0F4D280000F096FD72
:101C100002F03EFE2800283000F090FD200000F089
:101C20008DFD31BDC000041098010020611B04101F
:101C3000751B0410851B0410FFFF000029230410EE
:101C4000092304100A000000A8050410FEB50500D1
:101C50002878042802D0822802D0F7BDEE1C00E0CC
:101C60002E1D6978CE4FCF4C052908D0102900D100
:101C700086E13E292AD0FF2900D1EBE08CE12879CA
:101C800069790906090C0843B989884210D1C64808
:101C9000B8810020B873200000F050FD29796879E0
:101CA0000006000C0143AA7920002C3000F046FD0C
:101CB00000F020FBBD480121017029796A791206E4
:101CC000120C1143418002F0D7FDF7BDE9780129DC
:101CD00000D19EE0032906D00A2900D18AE00C2910
:101CE00000D183E0B3E020006C3000F027FDE879FC
:101CF000297A0906090C084302F07EFE0022AC4B4B
:101D000002F094FE002280235B0302F051FFE87989
:101D1000297A21D80906090C0843EE79297A09069F
:101D2000090C0E4302F068FE0022A14B02F07EFE79
:101D300000900191300002F05FFE00229C4B02F007
:101D400075FE02F05DFF02F067FE02000B000098D6
:101D5000019902F0E1FF1EE00906090C0843EE7943
:101D6000297A0906090C0E4302F046FE0022904B28
:101D700002F05CFE02F044FF02F04EFE0090019182
:101D8000300002F039FE00228A4B02F04FFE009A2A
:101D9000019B02F05EFF0022874B02F047FE02F03B
:101DA0002FFFEA7A297B0906090C0A436B7AA97A84
:101DB0000906090C0B43E9792E7A3606360C3143B5
:101DC0000A255543009506001D00080002F014FE88
:101DD0000022774B02F02AFE02F012FF01002B00D6
:101DE00032002000A03000F0A9FCF7BD012002F075
:101DF00005FCF7BDE87F6D1CE97F6D1E0906090C27
:101E000008436A7FA97F0906090C0A43EB7E297FF4
:101E10000BE0E87C297D0906090C08436A7CA97C53
:101E20000906090C0A43EB7B297C0906090C0B43C4
:101E30006979AC792406240C214302900192009325
:101E40002B0009332A7A287900F00AF9F7BD00BF80
:101E50005AA0A2E0307871780906090C0843001FE7
:101E6000F4D0C149401A49D0401E12D0401F0AD0B8
:101E7000801E20D0401E09D0C91F401AE6D0233151
:101E8000401A52D075E08820400035E09C20400088
:101E900032E0B4204000201800F050FCB349B8896B
:101EA00000F02EFF002803D00100C82040001FE0F2
:101EB000E220400020E0F6204000201800F03EFC28
:101EC000301D02F0AFFF010043A000F037FC301DD1
:101ED00002F0A8FF010000BF46A000F02FFC012186
:101EE000B88900F011FF002804D00100882080008C
:101EF000201852E09B208000201813E0AB208000C7
:101F0000201800F01BFC3179002906D07279B62028
:101F10008000201800F012FC03E000BF3BA000F09E
:101F20000DFC93A000F00AFCF7BDC620800020182D
:101F300000F004FCB179F0790006000C014300BF09
:101F400038A000F0FBFBB279F0790006000C0243E8
:101F5000317970790006000C0143B078F3781B06E4
:101F60001B0C1843002301930093082300F0F1FE9B
:101F7000F7BD317870780006000C01432DA00CE00D
:101F8000E87804280BDABFF34F8F7A487A49086063
:101F9000BFF34F8F00BFFDE72CA000F0CFFBF7BDD4
:101FA0009801002000060410FFFF00003C100020F4
:101FB0000000F43F0000F4BF000059404843495F6F
:101FC0004C455F4D4554415F4556543A2030782585
:101FD0003032580A0000000020202020202D206EE2
:101FE000756D657269635F76616C7565203D20254E
:101FF000640A000020202020202D204865785F768C
:10200000616C7565203D2025780A00002020202085
:10201000202D2050616972696E6720537563636576
:1020200073730A0048616E646C6520307825303423
:10203000580A00004843495F56454E444F525F4599
:1020400056543A203078253034580A004843495FC6
:102050004556454E543A203078253032580A000013
:10206000F8B588B00025A24C020005D00100B248A6
:1020700000F064FBA57374E00E9F1E00684681812A
:102080002000103001F0D7F968468189AB4800F094
:1020900055FB3078029070780190B0780090F3781A
:1020A00032797179A64800F049FB380002F0A4FCAF
:1020B00006AA03C206A80CC80020A24902F0B6FC7A
:1020C00006000F0002F09CFD019002F0A5FC04AA9E
:1020D00003C230003900002280235B0302F068FD58
:1020E00004D804AA0CCA02F017FE09E006A80CC81E
:1020F0000020954902F09AFC04AA0CCA02F0A9FD3E
:102100000022924B02F092FC02F07AFD020010983D
:102110000F9B894E0A214143009101993000C03044
:1021200000F00CFBA07B012801D1032000E002207D
:10213000A07368468089A0818548057069468989B1
:10214000418002F099FB2000103001F074F99820D2
:102150004000301800F0F2FA00218020400002F028
:102160003DFA09B0F0BD0000FD03000040E20100AF
:102170000A0000000400FA050CED00E0F1B58EB095
:10218000FF20801C0B908027BF00724C0020584D10
:102190000EAA1278052A4AD801A39B5C9F4400BF6F
:1021A0000A06188E2E6E04264AE0C820C0000B9046
:1021B000FA273F01052643E00026002200210020E7
:1021C00002F03BFE010000D188E0822019E0C82720
:1021D000BF000B970026FA2149002822AA5C002A9A
:1021E00011D028270B97E85589B20091B3B23A0075
:1021F0000B9989B2A88900F0B9FD002871D00100BF
:102200009620800063E001202822A854ECE71321E7
:10221000A88900F05BFD002802D00100200057E0F3
:1022200020002C3000F08AFA00F069F85EE00EA879
:102230000078012804D9801EBFD0801ED4D055E07C
:1022400006210CA800F014FA00200A900990012041
:10225000089000200790012006900020059004902F
:10226000039002900720019000970B9B13220221FC
:10227000002002F0E6FD002805D001002000B83063
:1022800000F05CFA04E0AE732000FC3000F056FA77
:102290002B0030331F220321002002F007FE00280C
:1022A00006D001009A204000201800F047FA04E010
:1022B000B8204000201800F041FA0CAA01210120AA
:1022C00002F0BBFD002806D00100CE2040002018FF
:1022D00000F034FA0AE0EC20400004E0AE738D20F8
:1022E00000E0A7208000201800F028FA0FB0F0BD11
:1022F0009801002080B5012002F080F901BD80B571
:10230000012002F085F901BD80B500BF02A000F0F8
:1023100015FA0021402048E44164765F43616E6312
:10232000656C5F5265710A0080B50220FFF726FFD9
:102330000020C349887301BD3C09041074090410CE
:10234000B80904100000F43F0000F4BF0000594039
:102350003C1000209C0A0410F8B590B006210EA88D
:1023600000F086F9032000F00CFDB64D002802D0E5
:102370000100280090E001270BA90F7028005030C1
:1023800000F0DCF900240CAE18E00BA8007800285F
:1023900020D00122711C307800F0EFFC00283AD1E7
:1023A00070780290B0780190F0780090337972796B
:1023B000B1792800FC3000F0C1F9641C0CAB0BAA09
:1023C0000121E0B200F0A8FC0100DED0280090302E
:1023D00000F0B4F900200A9009900897079006973A
:1023E00005900320049000200390029007200190A4
:1023F00078020090FF239B1C13220021002002F092
:1024000020FD8F4C00280AD00100B620400028187B
:1024100000F094F909E001002800C830D8E7A7735C
:10242000EE204000281800F089F900230022032143
:10243000002002F03BFD002806D001008F20800024
:10244000281800F07BF904E0A0208000281800F094
:1024500075F9220050321421002002F02BFD0028D3
:1024600006D00100AE208000281800F067F904E0D3
:10247000C0208000281800F061F900BF75A000F0AE
:102480005DF90EAA0121012002F0D7FC002806D038
:102490000100CE208000281800F050F904E0E02070
:1024A0008000281800F04AF911B0F0BD80B56448EA
:1024B000817B02290ED11321808900F007FC0100E5
:1024C000614802D000F03AF904E02C3000F036F90F
:1024D000FFF715FF002180200001FFF766FB38B5EC
:1024E000A0B000200BA9087046210EA800F0C0F88B
:1024F0000EAB0BAA0A21002000F00EFC0100524C8A
:1025000005D0D1208000201800F018F980E00BA839
:102510000178DF208000201800F010F90BA8007867
:10252000002805D000218020C00002F057F86FE09D
:10253000434DA87B00286BD106210CA800F098F829
:1025400000200A90099001200890002007900120A7
:1025500006900020059004900390029007200190BF
:10256000802080000090FF239B1C1322002100206C
:1025700002F067FC002805D001002000B83000F010
:10258000DDF805E00420A8732000FC3000F0D6F848
:10259000002300220321002002F088FC002806D03E
:1025A00001009A204000201800F0C8F804E0B8208C
:1025B0004000201800F0C2F82A00503214210020F8
:1025C00002F078FC002806D00100B6208000201818
:1025D00000F0B4F804E0C5208000201800F0AEF848
:1025E0000CAA0121012002F028FC002806D00100DD
:1025F000CE204000201800F0A1F804E0EC204000BC
:10260000201800F09BF811492800103000F0F0FE6F
:1026100021B030BD0A48807B002800D0704780B5CB
:1026200000F076FB0A4A002804D00100100000F0F8
:1026300085F801BD1000383000F080F801BD0000C1
:1026400098010020480E04109C0A041060EA000063
:10265000001204102020202020456E61626C65204D
:102660006164766572746973696E670A00000000C0
:10267000002200BF094202D0491E4254FCD17047DB
:1026800070B4103A03D378C9103A78C0FBD253071C
:1026900001D318C918C001D508C908C0D20704D38E
:1026A0000B880380891C801C002A01D50B780370DD
:1026B00070BC70478B0701D18307E1D0124205D06F
:1026C0000B78491C0370401C521EF9D1704743001F
:1026D000B0B50546C07A1224802829D8298C17293C
:1026E00026D31448821D914222D8298A17291FD344
:1026F00081421DD8A87E00281AD002F0DFFB0028F6
:1027000008D0E87E002813D0802811D8287F401EEA
:102710000E280DD808483422294602F0D1FB02F0D9
:102720003BFC002803D402F06BFE002400E0872469
:102730002046B0BDFA030000540F00200EB4C0B50F
:10274000020003A801900020009001AB0121044881
:1027500078440C3002F0BEFE029906B0084700BF74
:1027600021B1010081B0364901E081B035490A68E4
:1027700002430A60096808400090009801B0704761
:10278000FEB503F04BFE00F069F800F08DF808206C
:10279000FFF7E8FF0420FFF7E5FF00F004FB2A4FF6
:1027A0002A48F86038000C3003F04AFE002801D0B7
:1027B00000F08DF847A000680090254C206A0125A4
:1027C000ED430126304008D1206830432060206866
:1027D000284020600120FFF7C8FFC020C0050090FE
:1027E000684603F04FFE68460021002206C0206ABA
:1027F000304008D1206806432660206805402560E7
:102800000120FFF7B2FF134800681028FBD3684689
:10281000A0214900018000218170019100F001FB9D
:102820000D483860380003F0DDFF002801D000F0CB
:102830004EF8002004F044F804F062F9FCE70000D0
:102840005000404860004048D40F0020000060481D
:1028500040004048101800600000304880B588B043
:10286000182102A8FFF704FF68460021002206C0D5
:10287000032002908020400203901020059002A8BF
:1028800004F03EFA002801D000F021F8002000906A
:10289000202001900021684604F05AFB002801D056
:1028A00000F015F809B000BD80B586B01821684663
:1028B000FFF7DEFE02200090C0020590684604F09B
:1028C000E3FB002801D000F002F807B000BD72B6AB
:1028D000FEE700000000000080B504F075FC80BD3C
:1028E000F8B506000F0000203880154C200000F0DD
:1028F00017FA010023D1200000F016FA0400114D50
:10290000F00705D52100280000F012FA010016D1C9
:10291000280000F011FA388021002800243000F04F
:1029200007FA01000BD121002800483000F000FA1E
:10293000010004D1210028006C3000F0F9F9F2BD4B
:1029400008030020BC12041010B54621054A4E2988
:1029500006D04318463B1B7814686354491CF6E7BD
:10296000002010BD0C10002080B5022801D91220D3
:1029700080BD04F04DFC80BDFEB50C00089F002515
:10298000158002990D803D800521014027D0394EE8
:10299000300000F0C5F9010022D168460470364CC1
:1029A000200000F0C9F9019908802000243000F0CF
:1029B000C3F902990880300000F0B6F93D806946FD
:1029C0000978022906D1010020006C3000F0B0F92E
:1029D000010005D12AA20821002000F002F8002001
:1029E000FEBD70B504000D001600234804E070B56C
:1029F00004000D001600214800F09EF933002A0063
:102A00002100401C80B200F001F870BDF3B581B028
:102A100017001D000024184E6946088024206043DA
:102A2000301800F089F9002804D0401C6946098854
:102A3000884202D0641C052CF0D3052C0BD06846CC
:102A40000389242044433419206A8188DA19914289
:102A500001DB002801D11220FEBD29003A00806868
:102A6000C018FFF727FE206A0178890700D5478044
:102A70000020FEBDC402002010020020340200200D
:102A800053544D333257423080B504F01BFC80BDA7
:102A900080B504F095FC01BD80B504F0B7FC01BD24
:102AA00080B504F0DBFC02BD80B504F0F1FC02BD92
:102AB00080B504F016FD02BD80B504F023FD02BD13
:102AC00080B504F049FD02BD80B504F067FD01BD8D
:102AD00080B504F077FD01BD80B504F0DDFD02BDD9
:102AE00080B504F0DBFD02BD80B504F0D9FD02BD68
:102AF00080B504F0F1FD02BD80B504F01DFE02BDFD
:102B000080B504F035FE02BD80B504F04DFE02BD77
:102B100080B504F089FE02BD80B504F0CBFE02BD95
:102B200080B504F0F7FE02BD80B504F011FF02BDD0
:102B300080B504F029FF02BD80B504F05FFF02BD3F
:102B400080B504F05DFF01BD80B504F071FF01BDEB
:102B500080B504F0ADFF02BD80B504F0FFFF01BDFC
:102B60001FB5089C0294079C0194069C009405F0F4
:102B700013F804B010BD80B505F06CF901BD80B547
:102B800005F08CF901BD80B505F0D2F901BD80B525
:102B900005F0DCF901BD80B505F06CFA02BD80B529
:102BA00005F06AFA01BD80B505F090FA01BD80B567
:102BB00005F0A8FA01BD80B505F0BAFA01BD80B5EF
:102BC00005F0CEFA01BD80B505F0E2FA01BD80B591
:102BD00005F0E6FA01BD80B505F0EAFA01BD80B561
:102BE00005F026FB01BD80B505F0B6FB01BD80B543
:102BF00005F0ECFB02BD18B587B010AC2478069444
:102C00000FAC247805940EAC247804940DAC247891
:102C100003940CAC247802940BAC247801940AAC95
:102C20002478009405F00AFC08B010BD80B505F0CA
:102C300035FC01BD80B505F04BFC01BD80B505F04C
:102C400067FC01BD80B505F0ADFC01BD80B505F0A8
:102C5000C9FC02BD80B505F0E1FC02BD80B505F000
:102C60000BFD01BD80B505F041FD01BD80B505F04E
:102C70001FFE01BD80B505F033FE01BD80B505F036
:102C800033FE01BD80B505F0F5FE02BD80B505F04F
:102C900047FF02BD80B505F06FFF01BD80B505F0AF
:102CA000BBFF01BD80B506F01BF801BD80B506F085
:102CB00029F801BD80B506F047F801BD80B506F0E2
:102CC00067F801BD80B506F01DF901BD80B506F0BD
:102CD0002FF902BD80B506F02FF902BD1FB508AC73
:102CE000247802946C46247F01946C46247E0094E0
:102CF00006F02AF904B010BD80B506F069F902BDEE
:102D000080B506F073F902BD80B506F07BF902BD0F
:102D100080B506F07FF902BD80B506F080F902BDEE
:102D200080B506F086F902BD80B506F086F902BDD1
:102D300080B506F086F902BD80B506F086F902BDC1
:102D40001CB5059C01946C46248A009406F081F918
:102D500016BD1CB5059C01946C46248A009406F0AF
:102D600087F916BD80B506F08CF902BD1CB56C461E
:102D7000248A009406F089F916BD80B506F092F910
:102D800002BDE0B501A9087001220846114606F00F
:102D900094F9002800D08CBD01A8007806F0ABF9AA
:102DA0008CBD70477047704780B506F0C1F980BD93
:102DB000010005D40121C006C00E814068480160B1
:102DC0007047C1680322914302220A43C2607047E0
:102DD00009E0C0688007800F022801D101207047F8
:102DE0000020704700BFC16803229143C160704753
:102DF0000161704700697047816A5A4A0A408262DD
:102E00007047816A4800C00F704700697047816A47
:102E1000802292050A438262704780687047C068CA
:102E20007047F1B501275048C06B38434E49C8631D
:102E30000846806B384388631720FFF7B9FF1420DA
:102E4000FFF7B6FF00984068002800D00120474DEA
:102E500028700026000603D100988078002813D03F
:102E60004348C168C907FBD517210160C1683943D0
:102E7000C1604660C1683940FCD02800103000F0C5
:102E800037FBE869286209E0C82040032862E8614E
:102E9000BC48A861BC482861BC486861009840688B
:102EA000002802D1A020C0050DE000030A2106F091
:102EB0008CF96860B64C200000F086FA0100686862
:102EC000884202D3200000F07FFA68606420A86086
:102ED0002E7300980088290058310861A96900F014
:102EE0008AFBAC4C0020207000212A005832183296
:102EF00003C21D4800682900583188620020002163
:102F00002A005832203203C22A00283203C2342158
:102F10006854AD4AA969686806F0AEF92863287854
:102F20002074A66027736673E681290058314E72BB
:102F3000290058314E81AE65EE65A448A8646E65DF
:102F400000F049FA6A68002312184B41280040300B
:102F500000F07CFB0121280000F0F8FAF1BD000030
:102F600000E100E0FFFFFFBF10180060100C002020
:102F700004100060F8B58CB0002469460C70EFF3C3
:102F8000108572B6924F38005830407A00280BD026
:102F900000F021FABA6DFB6D8B4205D801D3824255
:102FA00002D238005830447285F3108838009130CE
:102FB000019028E0401C1CE0046905738168002929
:102FC00000D088472000F7D169460298406B00F096
:102FD000BDFB029948636846007801280DD1EFF3E4
:102FE000108172B601980078421C019B5B789A426E
:102FF000E0D1019A107081F310880198407805990A
:1030000040180199487001984078019909780A1A86
:1030100002D28020400012180026002A2AD00592F1
:10302000AA480290446B04940394002502E0260011
:1030300024696D1C002C0FD0207B0028F7D000F0F5
:10304000CAF902000B0003CC083C801A9941002900
:10305000EDDB01DC0628EAD328000025002802D099
:103060003561049400E0039504980299486303983D
:103070000028A8E7387B002867D0AA480068012408
:1030800020407CD03E73A84DE878002804D1A87871
:10309000002801D0AE7044E03878002820D002A883
:1030A00000F026FA049938005830006980B200F028
:1030B000A2FAEFF3108672B634203C54039878617C
:1030C0000498B861029838610598F861380000F0FA
:1030D000A7FB86F310880021380000F037FA07E0DC
:1030E000EFF3108472B6380000F09AFB84F3108876
:1030F000694638005830406B00F028FB39005831E1
:1031000048636846007801280BD1EFF3108072B64F
:1031100029784A1C6B789A4200D0491C297080F3A8
:10312000108869463800583000F0C2FB3800403043
:1031300000F081F900F04FF97A68002312184B4132
:103140003800403000F082FA19E03878002816D0B4
:1031500000F041F93A0028320CCAFA246403002531
:10316000A4185D418D420AD801D3844207D23800A9
:10317000403000F060F93800403000F04DFA0DB0FA
:10318000F0BD0000C2F528008D5B0000ECEB65018E
:10319000FFEFFFFF940C00207CB50500894806680E
:1031A0000B4C6946200000F093FA03C5083D8E4A97
:1031B000E1690098801B06F05FF8020003CD002350
:1031C000801A99417CBD00002603000019360410C6
:1031D000100C0020F8B586B0534802900078029990
:1031E0004978884236D1814D287B002832D103248A
:1031F00000F0F1F804AA03C203A800F039FC0100B2
:10320000280068302A0061326123EB5C002B02D178
:103210005378002B01D0012902D19278002A1BD0CB
:10322000AA6DEB6D0092019304A9C0C9027F00232F
:1032300092197B41AE6E0027B6185F4100215236CD
:103240004F41009A019BBB4224D301D8B24221D303
:10325000022405E0002037E002291BD0012919D003
:10326000426A002A2FD0107B00282CD003CA083ACB
:103270000090019104A8C0C8A86E0021801979416E
:10328000002352305941009E019F8F4204D801D340
:10329000864201D2012017E0032C13D110690028C7
:1032A00010D12800403082420CD101200299887050
:1032B000002000F099FA86480168864A0A400260B8
:1032C000032001E00224200007B0F0BD680C0020BC
:1032D000F8B50300140000206A4610700D0000D0FD
:1032E0000125424A110060310D71250000D00125F1
:1032F0000D7014002834C0CC9C1B0025A4197D41FE
:103300009465D5654870C8700120887069461000C2
:10331000583000F0CDFA012000F066FA68460078D7
:10332000F2BD000010100060A10C002070B5032059
:10333000C04385490A6802400A600A681040086074
:1033400028480168634A0A400260284C200058302F
:10335000002545724581EFF3108672B600F03BF808
:10336000A26DE36D121A8B418420205C0021121A99
:103370008B4186F31088002B04DC01DB012A01D28B
:10338000012070BD002B04DC01DB0F2A01D20220DA
:1033900070BD002070BDEFF3108072B6534909680C
:1033A000694A891C516011680323994302230B4326
:1033B000136080F31088704770470020A24908709E
:1033C000704700001400006080B5074A0749C969CA
:1033D00005F052FF02BD80B56946044800F078F957
:1033E00004BD00002818006035060000100C002005
:1033F000F8B504000D00FFF7EEFF06000F00290DE1
:1034000028030A22002305F058FF801979410200A1
:103410000B00200000F01AF90400012000F0E4F98C
:10342000E0B2F2BD10B500F011F90400012000F087
:10343000DBF9E0B210BDF8B5A44C21680E00002302
:1034400000250A0001E035003669002E07D08642CB
:10345000F9D137698E4201D13A0000E02F616D4603
:103460002B7003732068904215D06946100000F05D
:103470006DF920606846007800280DD0EFF31080C9
:1034800072B661794A1CA3799A4200D0491C6171D5
:1034900080F31088F1BD2260F1BD18B500200090C6
:1034A00000980B4801680B4A0A400260A5490A7857
:1034B000531C4C78A34200D0521C0A700121C269EF
:1034C0000A43C261C0690140009111BD00000000C3
:1034D00030180060FFFFFFBFC148816801220A4326
:1034E0008260002101607047000000001018006039
:1034F00070B50400944D2800FFF78FFC06002800EB
:10350000FFF78BFC8642F6D1002EF4D0B54932127B
:103510004A43F3B24B431912511810314911E1607B
:1035200026602800FFF77BFC06002800FFF777FCE9
:103530008642F6D1002EF4D0B011B649484380300F
:103540000012A060666070BD0C000060F8B5050058
:103550000F00B14C607A7D214843C90005F032FE6E
:10356000461CF6B2AD4AA9691B2005F085FE207005
:10357000607800F02AF83D216854E078801900F066
:1035800024F8382168542079801900F01EF8392178
:103590006854607900F019F83A216854A07900F075
:1035A00014F83B216854002F06D0E078801900F011
:1035B00004F81B303C216854F1BD68214143090ADD
:1035C000DB225043000C0818704700B50200B348D6
:1035D00040690021002305F0AFFE0322002305F01F
:1035E000ABFE8022D204002312184B41D20E5801A8
:1035F0000243100000BD80B5884A05F03DFEA84991
:10360000884201DD080002E0102800DA10200005E1
:10361000000EA449086001BD10B5A04C207B002815
:1036200006D12078002801D0FFF756FF0120207333
:10363000FFF7D1FEA268002312184B412000403052
:1036400000F004F810BD0000730C0020FEB500254A
:103650006C462570017B002901D00120FEBD0CC005
:10366000083801210173194C26680196070001E012
:1036700035003669002E08D00CCE083E03CF083F37
:103680008B42F5D301D88242F2D338000661002D77
:1036900001D1019000E028610199814213D169466E
:1036A00000F054F820606846007800280BD0EFF353
:1036B000108072B661794A1CA3799A4200D0491CE5
:1036C000617180F3108868460078FEBD9C0C002074
:1036D0007FB504000D00EFF3108672B6206F616FA6
:1036E00002AA03C27048FFF790FB03002B606F4DE6
:1036F00002A803C8009001912A00E16980202058A7
:10370000181A05F0B9FD0021009A019B8018594153
:10371000A26FE36F99420FD801D390420CD2009070
:1037200001912A00E1690020C04305F0A5FD0021B8
:10373000009A019B80185941A067E16786F31088C1
:1037400004B070BDA10C002000100060F1B584B081
:103750000F0004460020387000E02469002C3BD0A4
:10376000207B0028F9D0EFF31080009072B6FFF7AD
:1037700032FE0CCC083C121A8B4102A80CC002A8E5
:1037800003C800291EDB01DC01281BD3234A434860
:10379000836902A803C8190005F06EFD0500202DFD
:1037A00000D82025D04E3000FFF72FFB40190830FD
:1037B000F0623000FFF72BFB306B8021C90501431D
:1037C000316301E001203870009880F31088387868
:1037D000002801D0049800E0200005B0F0BD0000F2
:1037E00008100060F6BC080010B5B4490C00903415
:1037F000002808D0207800280BD108004030FFF7BF
:103800000BFF012004E008004030FFF714FE002009
:10381000207010BD53070000C500002026030000E3
:10382000FEB504002048FFF7F0FA0500206A029078
:10383000270080371D4E320001463868281A05F0EF
:103840001BFD02002000283003C8009001911000E9
:103850000021009A019B80185941206761672078F8
:10386000002811D13868281A216B88420CD2320006
:1038700002990020C04305F0FFFC226F636F002116
:1038800080185941206761673D60206F616F220099
:10389000283203C2E0692062F7BD0000100C00204E
:1038A000FF0F0000081800600018006035060000D7
:1038B000F3B589B0002008700998807A002800D1FB
:1038C000D4E07E4C200028300CC8606800218018AD
:1038D000594106AA03C2EFF31080049072B6FFF7B5
:1038E0007AFD02000B00099803C802AD03C502A8C7
:1038F00003C80090019106A803C8C826B602002795
:1039000036184F4100980199B9420FD301D8B042FF
:103910000CD306A803C8B9267600002736184F41F5
:103920009F4201D802D3964200D39CE0012600209A
:103930000A32434102A803C800254C38A9418B42F2
:1039400001D802D3824200D389E00998027A02A802
:1039500003C805003C20205C0999097B012905D199
:10396000002A01D0382106E0392104E0002A01D0E4
:103970003A2100E03B21615C0091019002A9200006
:10398000FFF7A6FE2F1A594AA169380005F074FC0A
:103990000390554D0198A16E4018C830B842039865
:1039A0001ED253490978401A0099471A0298C01943
:1039B0006862A86A07218843A862C020C005FFF793
:1039C00007FAC020C005FFF70DFAA86AB107014346
:1039D000A9622800FFF71BFA00984549097814E00E
:1039E0003D21615C401A0099471A0298C119C02014
:1039F000C005FFF7FDF92800FFF7FEF9C020C0055C
:103A0000FFF7DFF900983D21615C40180299039AA5
:103A100089182200683211623A18411D8A420CD27C
:103A2000C024E4052000FFF7D3F92000FFF7DAF9FE
:103A30002800FFF7E1F9012007E02E4AE16905F0CF
:103A40001BFC21006831087700200A9908700020CB
:103A50000999887209994E720998C67203E0622129
:103A600065540A980670049880F310880BB0F0BD76
:103A700038B504001C4D2800FFF7C3F9002803D017
:103A8000686A2060032032BDC025ED052800FFF7DD
:103A9000A0F9002805D02800FFF7ACF9206001202C
:103AA00032BDE8688007800F032805D12800FFF7A2
:103AB000A1F92060022032BD002032BD100C002090
:103AC00080B5FFF7EAFCFEF761F801BD81B0002088
:103AD000009000980848016801220A4302600068CB
:103AE000009001B07047000000180060260300003D
:103AF000C500002035060000740000600168002247
:103B000002814281828182730B78FF2B05D0FE2BCC
:103B100009D103895B1C03810AE04268511A091F1D
:103B2000818100207047002B0DD143895B1C4381AC
:103B30004A88D21C032313435B1CC9184A1D4368DF
:103B40009A42E1D3EDE703207047F3B5079C08994B
:103B5000250005D06D466C80FE242C706C4600E07C
:103B6000446885684668AE4217D22678FF2E14D086
:103B7000067B002E04D0002606732678002E0ED178
:103B800046686488E41C032727437F1CF4194460BB
:103B9000AC4202D22678FF2EEFD10420F6BDFE2ED5
:103BA00001D00320F6BD6E463679FF2E04D066782C
:103BB0006F463F79BE42E3D14068001D10606088C7
:103BC0001880002901D0607808700020F6BD7FB50C
:103BD00015001C00099E002232800B9A01926A4651
:103BE000128D009202AB03AAFFF7AFFF010013D1C1
:103BF000694609898D4201D306200DE0089A481BC9
:103C0000904200DA0200200003994919FEF752FDA4
:103C1000684600893080002004B070BDFEB5BB4D01
:103C20000D40491B6B4619700024070016000AE07E
:103C30000422311901A8FEF73DFD019A391900202F
:103C400005F094FB241DAC42F2DB0020C043019040
:103C500068460278711901A8FEF72CFD019A7919BE
:103C6000002005F083FBF7BD70B544688668B44258
:103C700002D22678FF2E01D1042070BD007B0028DF
:103C800001D1FE2E01D0052070BD6588A94201D367
:103C9000062070BD10001A00231D591805F0D6FB30
:103CA000002801D00020C04370BD7CB5079C0025D2
:103CB000069E3580250005D06D466C80FE242C7054
:103CC0006C4600E0446845688668B54202D22678B2
:103CD000FF2E01D1042076BD007B002801D1FE2EED
:103CE00001D0052076BD6088814201D3062076BDD3
:103CF000401A984200DA030010001A002B1D5918D0
:103D0000FEF7D8FC608806990880002076BDF8B5DB
:103D100084B007000E001500B44C254203D105F015
:103D200095FB002820D001A80C21FEF7A1FCCD486E
:103D30003818C00A0290681E0443641C6003000E19
:103D40000390694601A805F091FB00240AE0601089
:103D5000800F00190321884332583919002005F0DB
:103D600005FB241DAC42F2D305B0F0BD012101706A
:103D70000021418081807047F1B588B00C001500AA
:103D80001E0000200090FF2229002000FEF772FC98
:103D9000FE206946087507946846458206960E9D82
:103DA000009C05AE19E06846008A6988401A401EEA
:103DB00003240443641CA4B268886946098A0A1A69
:103DC000521E03211143491C89B28F4242DB01205C
:103DD0000022B94228706A8040D06846408A071B9A
:103DE0003F1FBFB22878002826D0701C0390A888F7
:103DF000029004A8019000970798001D0319002263
:103E0000FF210898FFF7E3FE6946098AA9800100AF
:103E10000ED16846008A7080042205A9079800190F
:103E2000FEF748FC7088C01C032101436418C1E7F9
:103E300006990C8009B0F0BDA888019004A80090F4
:103E40003B000798021969880898FFF72EFF0100C8
:103E5000A9D0EFE700212970C01968806846408A20
:103E6000069908800020E5E7F8B5AE4CA544AE49B8
:103E7000020014235A438F187989002901D10020A8
:103E800040E004A900F013F9059D02A8FFF76EFFBA
:103E90008026360102A8009001AB320008A904A8D0
:103EA000FFF76AFF0400042C06D0002C2AD16846D4
:103EB0008088B042EED103E068468088002808D0B0
:103EC0006846828808A92800FFF721FFAD19002C59
:103ED000E0D008A80C21FEF7CBFB6248281840036D
:103EE000000E09900698401E711E0143491C481B94
:103EF0004003000E0A90694608A805F0B7FA38009A
:103F0000FFF7FCFD89498D44F0BD0000FCFF000077
:103F1000F8B5844CA54400216A4691710022002323
:103F2000814906000BE0B0680C245C43005D14245A
:103F3000604308184089002800D001225B1C3079BA
:103F40008342F0DB002A25D080221201FF2108A83D
:103F500005F0D4FA0025802424010DE002A8FFF723
:103F600005FF02A8009001ABE21B92B208A8C1199C
:103F700004A8FFF701FF6D1C307985420CDAB068A8
:103F80000C226A43011D8F5804A9805C00F08FF851
:103F90000028E3D000201BE0220008A93068FFF7CA
:103FA000B6FE614C370069468D7900260CE0B86892
:103FB0000C217143405C142148432018FFF79EFDFB
:103FC000010000D00500761C38798642EFDB28001E
:103FD00056498D44F0BD95498A79824201D102202B
:103FE0007047897C8142FAD000207047FF070000AB
:103FF000F8B54C4CA54404000E0080221201FF21AC
:1040000008A805F07BFA0025684604718024240185
:104010001CE00C276F43B068C05D6A46127990427D
:1040200013D004A900F043F8B068C019476802A88B
:10403000FFF79CFE02A8009001AB9B1CE21B92B212
:1040400008A8C11904A8FFF797FE6D1C30798542B6
:10405000DFDB220008A93068FFF759FE0020334952
:104060008D44F0BD0000FCEF10B500246F480C211A
:10407000614341188A792C4814235343C0180368BC
:10408000002B10D1012A0EDC0A6802608B88D2183E
:10409000426009890182FFF731FD010004D1641CEF
:1040A000012CE3DD01E0012010BD002010BD10B5A2
:1040B0000200022A01DB012010BD1B4B14246243C5
:1040C0009A1813684B6052688A6001220A7308705C
:1040D0000020487310BD7FB5694C057814267543E0
:1040E0006419A47B002C01D00A2008E003940294F8
:1040F000099C01946C46248C0094FFF768FD04B081
:1041000070BD7CB5A04C0578142675436419A47B5A
:10411000002C01D00A2076BD0194069C0094FFF784
:10412000C4FD76BDE0F7FFFF880F002024080000E3
:10413000FAB583B017000325791E03260E43761CBB
:104140000CE00C78FF2C18D0FE2C01D0002C69D18B
:104150004A88D21C2A43521C8918416082684168EF
:104160004B1D9342EDD38849007814225043081820
:104170004089002854D1022055E00290501A834B08
:10418000984201D2521A00E01A467F4C92B2B0B265
:104190006B461B8DC018001D824239DB6846007BD0
:1041A0000191FE216A461170694648706846008D8B
:1041B00030184880009A0199002005F0D7F8049A39
:1041C000B1B20198001DFFF729FD0B9A6846018DD9
:1041D0000198B6B28019001DFFF720FD20000830BD
:1041E000029909781422514340180188491C018022
:1041F0000298007814214843201881896A46128D5C
:10420000BA18521E1543491B491F818100200AE03C
:104210000298007814214843201840890028AAD029
:104220000B2000E0032005B0F0BD00008C1304104B
:1042300010B504006168A06881421ED20878FF288A
:104240001BD0FE2817D1FF22D243002005F08EF8A4
:104250004D4801000831227814235A4389180A88EE
:10426000521E0A8021781422514340184189491C6A
:104270004181002010BD052010BD042010BD0000AC
:10428000880F002078B585B004006946FFF7A3FECB
:104290003D4D02281ED1142044432C19256802A844
:1042A0000C21FEF7E5F93A4828184003000E039068
:1042B0006068401E37490143491C481B4003000EFB
:1042C000049001A902A805F0D1F82000FFF716FC20
:1042D00000201BE0012818D100992000FFF788FE7C
:1042E000040010D100260AE0009880680C21714378
:1042F000405C142148432818FFF700FC761C009806
:1043000000798642F0DB200000E0012006B070BD9D
:104310001CB504006946FFF75EFE022803D12000A9
:10432000FFF7A2FD16BD012803D10098FFF7F0FDAD
:1043300016BD012016BD38B5174800214356DAB224
:10434000114C1425554364196589002D03D0A589A6
:10435000248AA54207D3521CD2B2022A00D10022DD
:104360009A42EDD106E0531C5CB2022C00D100232E
:10437000190001E00022D2430170100602D4D0B22D
:10438000FFF7C6FF002032BD880F0020FFFF0000AE
:104390000000FCEFFF07000033000020F0B583B001
:1043A00004464C480460204605F074F90546204652
:1043B00005F060F90646684600F0E6FD0099091A26
:1043C0004B0B45490A681146D831002B02D11060C9
:1043D000012000E00020087040480068447B002174
:1043E000FF2C0AD02C2060433D4A12681018827CB2
:1043F000002A02D0416AC068FFE70127002E03D0DF
:10440000002D01D1002911E0002D15D0354A8B1A5D
:104410005A425A41344BCD1A6B426B41334D4E1BBD
:1044200075427541002907D013431D432A4E294D7B
:1044300004D08847002701E0274E264D286805F064
:1044400025F9002801D0042520E0286805F008F9A6
:10445000002801D0012519E0286805F005F9002899
:1044600001D0022512E0286805F018F92946052533
:1044700000280BD1086805F015F9002806D1154869
:10448000006805F0DBF8002820D000250120A840B6
:10449000174909680A6802430A60002005F058FBC2
:1044A000FDF780FB00F06BFD204605F063FB3468F0
:1044B000607D012808D1217C0F200840E2680909AD
:1044C00005F01EFD0020607503B0F0BD002FE9D19E
:1044D000EDE7C046481000200C100020101000200E
:1044E000141000205FE7051057E705105BE7051083
:1044F00054100020BCB5584CA16900910840A0613F
:1045000035E0521CD300E51803000B402F681F4014
:10451000F7D02A68104001406868084002D10020A6
:10452000C04368606868084000F09AF801006A6853
:104530000120884082436A606162EFF3108172B6A5
:10454000626A01209040C24320691040206102202D
:10455000C300E318083B1D6815401D60401EF7D1DD
:1045600081F310883D48616A89004058804723697B
:10457000E2696069256AA16903400B4003D01540D8
:1045800001D10022BEE70020C0436062206A1040D3
:1045900014D102F0BBFAEFF3108572B62169E0691D
:1045A00062690A40A169114004D1216A014001D128
:1045B00002F0ADFA85F3108805F0A3FC0098A06125
:1045C000B3BD38B51400EFF3108572B600F048F8AB
:1045D000800022490C5085F3108831BD10B5EFF3EF
:1045E000108272B61C4B1C6904431C61C900591827
:1045F0000B681843086082F3108810BDEFF3108138
:1046000072B6154AD3691843D06181F31088704798
:10461000F8B5114D696A00910022D243914201D14F
:10462000002701E001278F402E6A2862040003E082
:104630002100380005F066FCE8692040F8D00098B9
:104640006862EFF3108072B6E969A143E96180F313
:1046500010882E62F1BD00005C0300203C0D00209C
:104660000021020C120401D110210004020E1206D6
:1046700001D108310002020F120701D1091D00010A
:104680001F22511A02A2000F105C081AC0B2704714
:10469000040302020101010100000000000000000B
:1046A00010B5FFF7E1FC424C211D0020FFF7FFFC95
:1046B000210014310120FFF7FAFC201D206010BDFD
:1046C0003EB53B4D022802D12C00143400E02C1DD5
:1046D0002C6001936B461B8B00930B0001002000A4
:1046E000FFF726FD002805D0022801D1002000E0B8
:1046F0000120C0433EBDF8B584B00E0019002C4C1B
:10470000022E03D125001435012301E0251D0023CD
:104710000700256028466D466A8103910A9D022F95
:1047200008D102A900912B00039A69464989FFF735
:10473000E8FC0FE0002F03D101001800FFF7B7FCE1
:1047400002A801900095039B6846428931002068C9
:10475000FFF7C1FC010001D1002005E0042801D1D0
:10476000022000E00120C04305B0F0BD10B51400E8
:1047700023000A0001000E480068FFF775FA0028C0
:1047800004D001D5200010BD0220C04310BD80B56B
:10479000022807D1064908681431884207D0FFF77C
:1047A00047FD01BD032802D10020FFF76BFD01BDCD
:1047B000B00F00200120FFE7194908600020704772
:1047C0000120C04316490968012900D10020704723
:1047D0000020EFF3108172B6114A1368012B02D04A
:1047E0000120C04301E00323136081F31088704768
:1047F0000020EFF3108172B6094A1368032B02D030
:104800000120C04301E00123136081F31088704749
:1048100080B50A00034905F0B3FB02BD00000000AB
:1048200030030020A413041070B55F4D5FA6604CE8
:104830000078022802D0032811D070BD012020701A
:104840003000FDF77BFF2800FDF778FF3000FDF713
:1048500075FF216A20000830FEF7CAFD70BD0020F8
:1048600020703000FDF76AFF28003830FDF766FF42
:104870003000FDF763FF70BD4D490278002A02D079
:10488000012A02D07047408800E04A488884704777
:1048900010B5474C4748A08405F0BBFEFA20400005
:1048A000206245482061454A00218020FFF789FEAB
:1048B000434A002180204000FFF783FE414A002147
:1048C00080208000FFF77DFE3F4A00218020C0004D
:1048D000FFF777FE3D4A002180200001FFF771FEBF
:1048E00010BD1CB5324C20002830009068460021D5
:1048F0000171012101712078012808D1A28C2D4875
:10490000824203D06946002005F0A9FE13BD30485D
:10491000FDF714FF20000830FEF78DFD13BD80B5B4
:1049200000218020FFF75AFE2148016A0830FEF777
:104930005FFD01BD80B5012203211D48808CFEF77B
:10494000DBF9010003D02348FDF7F8FE01BD00BFED
:1049500022A0FDF7F3FEFDF701F901BD00B593B00C
:10496000002069460870462101A8FDF781FE01ABD1
:104970006A460A210020FEF7CFF90100164802D04E
:10498000FDF7DCFE0DE0694609783830FDF7D6FE0C
:1049900068460078002804D00548016A0830FEF710
:1049A00027FD13B000BD000074160410200A00009B
:1049B00000090020FFFF00001F490410E348041015
:1049C000354904105D490410AD2404105923041026
:1049D000AC160410E41604100817041020205375B8
:1049E00063636573733A2050616972696E67207200
:1049F0006571756573740A00010042221201D21EAE
:104A0000004207D002D4521E0018FCD5C10A40054E
:104A100012058918704700000100EED54042F446A7
:104A2000FFF7EBFF0122D20711436047F0B50E00FC
:104A30005E400125ED072E40B446AE0ADF184C1843
:104A4000F44208D2F7420ED2640D01D07F0D12D18C
:104A500000206146F0BD05D1F74201D87F0D05D198
:104A60000020C143F0BDFBD1640DF9D00020C1434B
:104A7000490549088FE0E419C902DB0229432B43A9
:104A8000DB0A460DC00231438E4630B487B295B280
:104A90007D432E0CADB2140C7C43A419260C2404C7
:104AA00025439CB27C43A419190C7943270CC919DE
:104AB000A4B20F043C43090C000C97B247432E0CE0
:104AC000BE193543ADB2170C4743360CBF19A6B219
:104AD000BF193E043543240C3E0C36199FB24743A0
:104AE000BF19BCB23E0C89191F0C47437F183E0406
:104AF0003443390C704680B297B247432E0CBE192E
:104B00003543ADB2170C4743360CBF19A6B2BF19D7
:104B10003E043543240C3E0C36199FB24743BF195F
:104B2000BCB23E0C89191F0C47437F183E04344326
:104B3000390C77463F0C90B278432E0C801906044E
:104B4000ADB22E43050CA0B22D18120C7A435019A9
:104B5000020C80B2240CA4189AB27A4312191404DD
:104B60002043120C89181B0C7B43C91830BCEF0A78
:104B7000394203D1B61940414941641E6F12BF0D3D
:104B8000E41B0BDBFF19BC4211DA240500274208A5
:104B9000AE417841614166463143F0BD641C05D1A8
:104BA000401C6141CF0201D34908F4E750E75DE7BB
:104BB00030B4012464054D00EC420BD85D00EC429A
:104BC00008D80C001C4364000443144304D28B42F5
:104BD00000D1824230BC7047FCD09942FAD1904259
:104BE000F8E78300850007000700830085000500C3
:104BF0000700030003000F0005008200810005008C
:104C0000F4464A1805D200F00FF801D58017400885
:104C1000604700F009F80121C907884200D908005F
:104C2000404260474A1812D2400DC9020843012190
:104C3000C9070843520D40210901521A521C06D4DB
:104C400052421F3201D4D0407047C0177047002035
:104C50007047F0B40125ED070F005F404FD48B4241
:104C600000D1824205D98446100062468C46190064
:104C70006346DF184C18640D7F0D3AD0661C76052C
:104C800037D0E61B352E34DCDB022B43DB0A0C0D60
:104C9000C9022943C912202E0DDB1700203E06D081
:104CA0001F00F741F3405F400026012A7741C018FA
:104CB00071410DD217E01700F741F2405740F34120
:104CC0005A40B340F3405A400026801859410AD355
:104CD000A21C52050FD0C207012F724117004008D5
:104CE000CB0718434908641C24054208AF417041B2
:104CF0006141F0BC7047641C21050020F9E76B405E
:104D000010E06B40ABE7F742F3D1E943F1E724420F
:104D1000EFD100200021ECE7F0B40125ED070F00F2
:104D20005F40EED40C00871A9C4105D2C01BA14104
:104D3000D219634169406B40AE0ADF184C18F44247
:104D4000E1D2640D7F0DE2D0E61B362ED1DCDB0212
:104D50002B43DB0AA4460C0DC9022943C90A012EC4
:104D600028DC04D1D6075208DF073A435B08EF0A74
:104D700076429041994114D039423BD1B619404115
:104D80004941761C394204D1761C00184941394208
:104D9000FAD0B9436746B74208D9A41B240521437A
:104DA000A7E70042EAD13642E8D1A2E7E40AE107E8
:104DB00000209EE7202E0BDD203E1F00F340F74130
:104DC0005F40012A002257417E42984191410BE009
:104DD0001700F741F2405740F3415A40B340F340C7
:104DE0005A407E42904199410A0303D2641EB6198B
:104DF000404149410027641E24054208AE417841E4
:104E00006141F0BC70470300FFFFFFFFFFFFFFFFA2
:104E1000FFFFFFFFFFFF010000000000FFFF010098
:104E20000000FFFFC3788278417800781B021A43A4
:104E30000902120408431043704780B505F052FC84
:104E400080BDF0B593B01F4615460E4612901C9CCF
:104E500008461146224605F049FC002824D1229834
:104E60000D901FAB0DCB11901E980F901D980E90BA
:104E70001B980C901A9919981097189F08920993EB
:104E80000D9A0A920097019002910C980390049455
:104E90000E9805900F980690119807901298314639
:104EA0002A46109B05F035FC13B0F0BD80B505F027
:104EB00042FC80BD80B505F044FC80BD00207047F9
:104EC00080B505F045FC01BD80B50B0011001A004E
:104ED000FDF7D0FB01BD80B504F0B8FA02BD7FB587
:104EE00004000D001600684605F08AFC684601784B
:104EF000217041782970807830707FBD80B5FFF7D0
:104F000087FC02BD80B505F03BF802BD80B505F019
:104F1000BBFC01BD80B505F0F9FC02BD80B505F014
:104F200017FD02BD80B505F047FE02BD80B505F056
:104F300092FE01BD80B505F096FE01BD80B505F07D
:104F4000A7FE02BD80B505F0A5FE02BD80B505F047
:104F5000A3FE01BD80B501F0F1FB02BD80B5FEF7F7
:104F60003AFA04BD80B5FEF75DFA02BD80B5FEF7E2
:104F700062FA01BD80B5FEF7ABF9C0B202BD80B5E3
:104F8000FEF7D4F9C0B202BD80B5FEF705F904BD45
:104F900080B5FEF700FA01BDF0B597B0E54C67208B
:104FA000C543FDF79DFDE44E012802D0F07A0028AC
:104FB00010D027462C463834FDF792FDF17A614334
:104FC000784338184418FDF78BFDF17A4143DB48EC
:104FD000484324182E34FDF783FD01280ED12846BE
:104FE00060303189414328464430B27A42435018F8
:104FF00029464831327B4A43801800E00020039064
:10500000F0890A9005F0D0FE012801D005F0CEFE0F
:1050100005F0CEFE0128119409D12C463834FDF755
:105020005FFD6043F17A41430839099101E00020B6
:105030000990F2484C30139005F0B8FE012815D0C5
:1050400005F0B2FE012811D02920305C00280DD1D6
:105050002520305C002809D12620305C002802D0B1
:10506000E6484C3001E0284624301390E3486C3089
:10507000129005F09BFE012815D005F095FE012841
:1050800011D02920305C00280DD12520305C00286B
:1050900009D12620305C002802D0D8486C3001E0CD
:1050A00028463C30129005F081FE1090B07E0090B2
:1050B000F07F0F90FDF714FD0790F07F0190FDF752
:1050C0006AFD0890F07F0290FDF736FD002705F09D
:1050D00071FE01283846159516974FD1707F0A2822
:1050E00000D30A202C4638344443C03C002505F048
:1050F00063FE01282F4620D1FDF7F2FC01280E9512
:1051000003D0159B1846543002E0159B18464830D2
:10511000BA49E431B27F4A43101835461E4660361C
:10512000E97F32468A408718FDF7DAFC012802D170
:10513000E87A4643BF192E460E9DE0191490FFF7FA
:10514000BDFE074605F038FE04463C40FDF7C8FCAE
:105150002040012808D1F07E401E03210143B07F8A
:10516000B0224243D043451A1498441905F01EFE5C
:105170006043A24908182C30159D169F0690FDF734
:10518000AFFC0128394609D105F018FE012839463F
:1051900004D12220305C294614314143059105F0A9
:1051A0000BFE0128384621D19448D430B17E4143CA
:1051B00028464830F27A424354180027FFF77EFE13
:1051C000012810D1FDF78CFC01280CD1159A10464E
:1051D0005830317F414310466030F27E42435018D0
:1051E0008438B77E4743E019159D169F0E9005F051
:1051F000E7FD0128384633D1FDF772FC012802D0C3
:105200002F465C3704E028466030F77A47430C3F6E
:105210002325705D00240028204605D0FDF760FCA2
:10522000705D404203218843C0192427F15D159A1F
:1052300064324A43851805F0BDFD01280DD105F003
:10524000B5FD012809D105F0B7FD012805D1F45DB0
:10525000002C159801D0044650342819159D169F2E
:105260000D90FDF73DFC0128394609D105F0AAFD56
:105270000128394604D128464830F17A414314398F
:105280000C91FDF72DFC01283A4608D105F09CFD54
:1052900001283A4603D128464C30F27A4243262070
:1052A000315C2520345C63182920305C0493002B8A
:1052B000149010D02820335C284660305843F838CA
:1052C00048432723F35C54355D434C4B5B1948330B
:1052D00063431F181498002816970B920DD00246AE
:1052E0002A20305C454D2B46B033434337462E468B
:1052F000C8365643F318483B03E02A20305C0023AD
:1053000037462826BE5D7143091827263D46BE5DF7
:1053100074432418601813D0159F3E464C366643DC
:105320003C4634344C43A1193C465C3444430C198C
:10533000143C07E000FCFFFF540F002070FDFFFF4E
:105340000024159F03990A9E119808183946443184
:10535000714340180999401813994018129941183F
:105360003846603006460F9A96408919109A012AED
:1053700006D1224E009A564371184526B600891967
:105380002E46079D059A012D02D1019DA8400918BE
:105390000898012805D138461830029DA8404118C8
:1053A00070390698049D081880180E9940180D99B8
:1053B00040180C9940180B9940181499CD4201D00F
:1053C0003818583016994018C018041905F0FEFC1A
:1053D000012800D1E419706820180321C943F28D17
:1053E000D21C0A40B38DDB1C0B409A18338EDB1C99
:1053F0000B40D118401A17B0F0BDC04690FEFFFF19
:10540000F0B595B00120810414912E480160BFF3DE
:105410004F8FBFF36F8F04F0F1F8FFF7B0FD00205E
:105420001290C04304F0DEF805F0BEFC139005F0C6
:10543000BFFC119005F0BAFC1090FDF7ACFB0F908B
:10544000FDF77AFB05F0B6FC0E9005F0B7FC0D9069
:1054500005F0B2FC0C90FFF731FD0B9005F0B0FCAD
:10546000044605F0AFFC0546FDF73AFB064605F09D
:10547000ABFC074605F0AAFCC0B2F9B2089109904E
:10548000F0B2E9B2E2B20B9BDBB20C9CE4B20D9D30
:10549000EDB20E9EF6B2129F00970196029503940C
:1054A00004930592069107901398C0B21199C9B25E
:1054B0000F9AD3B2109A05F08BFC0348149901603F
:1054C00015B0F0BD80E100E000E100E00100202027
:1054D00008437047FDB5B2B03A98049102A93B2247
:1054E000885400200D9024A8401C2F900DE00498B3
:1054F000329A90470490002801D100F0B7FE0D9831
:10550000401C0D903398401C33903398017800294B
:1055100010D02529EBD100200790089009900A901F
:105520000B900C900021022401201490082012906E
:10553000339D05E00D9800F09BFE0800149901438F
:105540006D1C28782028F8D023280BD02B2804D0D5
:105550002D2804D0302808D00AE02143F0E70800C5
:105560000421ECE708000821E9E708001021E6E73C
:105570002A280FD1349802681068121D349B1A60D3
:105580000F90002804D542420F92080004210143E5
:105590006D1C12E000200F90644A09E00F9B9342BB
:1055A00005DA9E00F3185B00181830380F906D1C58
:1055B00028780300303B0A2BF0D328782E2803D01C
:1055C0000020C0430E9027E06D1C28782A2808D1BF
:1055D000349800680268001D349B18600E926D1CA0
:1055E0001AE02D2802D12D226D1C00E0002200209F
:1055F0000E900CE0002A09D10E9B4C4EB34205DA06
:105600009E00F3185B00181830380E906D1C287837
:105610000300303B0A2BEDD302A801872E7831001E
:1056200040487844FF30401E05F04CFC002801D073
:105630006D1C00E0002602A83A214654405C682810
:1056400004D1287868280BD1622005E06C2807D1A6
:1056500028786C2804D1712002A93A2288546D1C44
:1056600015A80690287869460870681C339068462B
:1056700002781000253833D01C3800D1CCE1001F4F
:10568000022800D8C8E1133801D100F019FD09380B
:1056900000D1C1E1801E01D100F0AFFD401E01D15B
:1056A00000F05CFD401E022800D8B5E1001F01D1CA
:1056B00000F054FD401F00D108E1401E01D100F070
:1056C000FFFC401E00D1F0E0C01E0ED0801E01D1B4
:1056D00000F0F6FCC01E01D100F0F2FC00F098FDD5
:1056E00014980790252015A97CE134980068046877
:1056F000001D349908600594002C00D0C1E002A878
:105700003B21405C002800D1B5E00024E44306487A
:105710007844143005F0E0FB201A01D000F0A6FD1B
:1057200000F083FD64C0FFFF98C0FFFFCBCCCC0C22
:1057300001236A4602A9280000F054FE002801D087
:1057400000F094FD641EF3D13295079D15AC002D39
:105750000FD0329E21780498B0470490002801D1E0
:1057600000F084FD0D98401C0D90641C6D1EF1D15D
:1057700032963020694608700A9C002C0DDD329D5F
:1057800001236A4602A9280000F02CFE002801D05F
:1057900000F06CFD641EF3D13295059C089D002D30
:1057A0000FD0329E21780498B0470490002801D190
:1057B00000F05CFD0D98401C0D90641C6D1EF1D135
:1057C0003296302769460F700B9C002C0DDD329D00
:1057D00001236A4602A9280000F004FE002801D037
:1057E00000F044FD641EF3D13295059808994418E1
:1057F000099D002D0FD0329E21780498B047049067
:10580000002801D100F032FD0D98401C0D90641C61
:105810006D1EF1D13296684607700C9C002C0DDD90
:10582000329D01236A4602A9280000F0DBFD002812
:1058300001D000F01BFD641EF3D1329502A838217F
:10584000405C400700D460E620206946087001985B
:10585000002800DC59E6019C329D01236A4602A91A
:10586000280000F0BFFD002801D000F0FFFC641EFE
:10587000F3D1329549E61B4878446830059000F032
:10588000D4FC0E9D002D03D5200005F049FB09E056
:105890002A000021200005F04BFB002801D0001B4E
:1058A00000E02800089000F0C0FC3498006802680E
:1058B000001D349908600020C0430021104002AA56
:1058C00003C215A80590782100F093FC02A83B21A3
:1058D000415C002908D00024E4434B487844FF3061
:1058E000293017E7F8BEFFFF3A21405C62286AD0F2
:1058F000682819D06A2845D06C2806D071284FD066
:10590000742831D07A2821D06FE03498006801687B
:10591000001D349A106000297AD10024E4433B48EA
:105920007844FF301738F5E6349800680168001DA8
:10593000349A1060002905D10024E44333487844A8
:10594000CA30E7E60D98088000F06FFC34980068D4
:105950000168001D349A1060002959D10024E443E5
:105960002A487844A630D5E6349800680168001DBE
:10597000349A106000294BD10024E4432348784432
:105980008A30C7E6349800680268001D34990860C0
:10599000002A13D10024E4431C4878446E30B9E651
:1059A000349800680268001D34990860002A05D107
:1059B0000024E443154878445230ABE60D98C117F3
:1059C00003C200F032FC349800680168001D349A6C
:1059D0001060002905D10024E4430C4878442C30A1
:1059E00098E60D98087000F020FC34980068016873
:1059F000001D349A106000290AD10024E4430348B2
:105A00007844083086E600BF88BDFFFF9CBDFFFFDD
:105A10000D98086000F009FC34980068C31D072049
:105A200083433498036003CB349D2B6002AB03C3E4
:105A30002023C80F04D007982D2115AB19540DE071
:105A400002A8008F204204D007982B2115AB1954CF
:105A500004E0C00704D5079815A90B54401C079013
:105A600015A80799401813901398059024AD02A823
:105A7000C0C868460078202101436846817080785C
:105A800061280BD00E98002801D5062005E005D12D
:105A900068468078672801D114980E9002A803C840
:105AA00008004B005B150024E443A3420ED1090318
:105AB0000CD003200890613A1A2A03D2194979447C
:105AC00062310FE0184979445E310BE0A3420ED1F8
:105AD00000030CD103200890613A1A2A1DD3134900
