:020000041004E6
:1000000000000120B9840510498805104B880510AF
:1000100000000000000000000000000000000000E0
:100020000000000000000000000000004D880510E6
:1000300000000000000000004F88051051880510E6
:1000400083210410D33004103F350410C73F04103F
:100050000000000000000000000000002B4304101E
:1000600059880510EB4B04102F510410E36B04105A
:10007000F76B041075880510000000009F880510BC
:10008000AD880510A76D04108F88051000000000D2
:100090008788051000000000000000007F88051020
:1000A000B772041097880510CB9004104F9204107B
:1000B0000394041000000000000000000000000095
:1000C00020204661696C2020203A204144565F453B
:1000D00058545F4275696C645F646174612C20726E
:1000E0006573756C743A203078253032580A0000F8
:1000F0002D2D0A426567696E20746F20636F6E66EE
:10010000696775726520616E642073746172742012
:100110006164766572746973696E67207365747360
:1001200020646566696E656420696E207468652068
:100130006170706C69636174696F6E203A200A00A7
:100140004E756D626572206F6620616476657274AB
:100150006973696E67207365747320737570706F4F
:1001600072746564203A2025640A00004164766553
:1001700072746973696E672073657420636F756E3E
:1001800074206C696D697420686173206265656EA6
:100190002072656163686564202120706C656173FD
:1001A000652075706461746520706172616D65743D
:1001B000657273206170705F636F6E662E68206673
:1001C000696C650A00000000202053756363657345
:1001D000733A206163695F6761705F7365745F6123
:1001E00064766572746973696E675F636F6E666962
:1001F0006775726174696F6E0A00000020204661A5
:10020000696C2020203A206163695F6761705F73C9
:1002100065745F6164766572746973696E675F6344
:100220006F6E66696775726174696F6E2C20726596
:1002300073756C743A203078253032580A0000000B
:100240002020537563636573733A206163695F6748
:1002500061705F7365745F616476657274697369F8
:100260006E675F646174612F6163695F6761705F6E
:100270007365745F7363616E5F726573706F6E73C5
:10028000655F646174610A0020204661696C20200A
:10029000203A206163695F6761705F7365745F61B5
:1002A00064766572746973696E675F646174612FE7
:1002B0006163695F6761705F7365745F7363616ECB
:1002C0005F726573706F6E73655F646174612C201B
:1002D000726573756C743A203078253032580A0094
:1002E0002020537563636573733A206163695F67A8
:1002F00061705F7365745F61647665727469736958
:100300006E675F656E61626C650A00002020466161
:10031000696C2020203A206163695F6761705F73B8
:1003200065745F6164766572746973696E675F6531
:100330006E61626C652C20726573756C743A203046
:1003400078253032580A0000AC1400205E3F0000CF
:100350000600070700005000F7000000FFFFFFFF46
:100360006400041008000003F7000100000101020E
:100370000202020000010003000400004572726FD7
:100380007220696E20424C455F535441434B5F4994
:100390006E69742829203078253032780D0A0000E3
:1003A00020204661696C2020203A206163695F68E3
:1003B000616C5F7365745F74785F706F7765725F8F
:1003C0006C6576656C20636F6D6D616E642C207258
:1003D0006573756C743A203078253032580A000005
:1003E0002020537563636573733A206163695F68A6
:1003F000616C5F7365745F74785F706F7765725F4F
:100400006C6576656C20636F6D6D616E640A0000CB
:1004100020204661696C2020203A206163695F6773
:100420006174745F7372765F70726F66696C655F1A
:10043000696E697420636F6D6D616E642C207265E6
:1004400073756C743A203078253032580A000000F9
:100450002020537563636573733A206163695F6736
:100460006174745F7372765F70726F66696C655FDA
:10047000696E697420636F6D6D616E640A000000BF
:1004800020204661696C2020203A206163695F6703
:1004900061705F696E697420636F6D6D616E642C4D
:1004A00020726573756C743A203078253032580AA2
:1004B000000000002020537563636573733A206168
:1004C00063695F6761705F696E697420636F6D6DEA
:1004D000616E640A00000000202053746174696337
:1004E0002052616E646F6D20426C7565746F6F741D
:1004F0006820416464726573733A20253032783A1B
:10050000253032783A253032783A253032783A251B
:100510003032783A253032780A00000020204661D7
:10052000696C2020203A204761705F70726F6669A5
:100530006C655F7365745F6465765F6E616D652081
:100540002D20446576696365204E616D652C2072AF
:100550006573756C743A203078253032580A000083
:100560002020537563636573733A204761705F7031
:10057000726F66696C655F7365745F6465765F6EE4
:10058000616D65202D20446576696365204E616D3F
:10059000650A000020204661696C2020203A20472F
:1005A00061705F70726F66696C655F7365745F61BF
:1005B0007070656172616E6365202D204170706599
:1005C0006172616E63652C20726573756C743A207C
:1005D0003078253032580A002020537563636573E4
:1005E000733A204761705F70726F66696C655F7304
:1005F00065745F617070656172616E6365202D2046
:10060000417070656172616E63650A002020466109
:10061000696C2020203A206163695F6761705F73B5
:1006200065745F696F5F6361706162696C69747939
:1006300020636F6D6D616E642C20726573756C74D0
:100640003A203078253032580A00000020205375B7
:1006500063636573733A206163695F6761705F7399
:1006600065745F696F5F6361706162696C697479F9
:1006700020636F6D6D616E640A000000202046618A
:10068000696C2020203A206163695F6761705F7345
:1006900065745F73656375726974795F726571758E
:1006A0006972656D656E747320636F6D6D616E64E4
:1006B0002C20726573756C743A203078253032586E
:1006C0000A0000002020537563636573733A20614C
:1006D00063695F6761705F7365745F73656375728B
:1006E0006974795F726571756972656D656E747331
:1006F00020636F6D6D616E640A000000202046610A
:10070000696C2020203A206163695F6761705F63D4
:100710006F6E6669677572655F66696C7465725F36
:100720006163636570745F616E645F7265736F6C43
:1007300076696E675F6C69737420636F6D6D616E4F
:10074000642C20726573756C743A203078253032D1
:10075000580A00002020537563636573733A206163
:1007600063695F6761705F636F6E66696775726505
:100770005F66696C7465725F6163636570745F6105
:100780006E645F7265736F6C76696E675F6C6973B8
:100790007420636F6D6D616E640A0000536572763C
:1007A0006963657320616E6420436861726163747C
:1007B0006572697374696373206372656174696FCC
:1007C0006E0A0000456E64206F662053657276697C
:1007D00063657320616E6420436861726163746550
:1007E00072697374696373206372656174696F6E93
:1007F0000A00000020204661696C2020203A206118
:1008000063695F68616C5F7365745F726164696F6F
:100810005F61637469766974795F6D61736B20637E
:100820006F6D6D616E642C20726573756C743A2007
:1008300030782532580A00002020537563636573B1
:10084000733A206163695F68616C5F7365745F729E
:100850006164696F5F61637469766974795F6D6102
:10086000736B20636F6D6D616E640A0D0000000094
:100870003E3E3D3D204843495F444953434F4E4E21
:10088000454354494F4E5F434F4D504C4554455F8F
:100890004556545F434F44450A0000002020202065
:1008A000202D20436F6E6E656374696F6E20486102
:1008B0006E646C653A2020203078253032580A204A
:1008C000202020202D20526561736F6E3A20202059
:1008D000203078253032580A000000003E3E3D3D71
:1008E000204843495F4C455F434F4E4E4543544972
:1008F0004F4E5F5550444154455F434F4D504C451A
:1009000054455F5355424556545F434F44450A0092
:1009100020202020202D20436F6E6E656374696F48
:100920006E20496E74657276616C3A2020202564D1
:100930002E25303264206D730A20202020202D20A7
:10094000436F6E6E656374696F6E206C6174656E63
:1009500063793A2020202025640A20202020202DA1
:10096000205375706572766973696F6E2054696D76
:10097000656F75743A2020202564206D730A00008D
:100980003E3E3D3D204143495F4741505F50524FFD
:10099000435F434F4D504C4554455F565345565465
:1009A0005F434F44450A00003E3E3D3D20414349E0
:1009B0005F4741505F4B455950524553535F4E4F2F
:1009C00054494649434154494F4E5F565345565446
:1009D0005F434F44450A00003E3E3D3D20414349B0
:1009E0005F4741505F504153534B45595F5245510A
:1009F0005F56534556545F434F44450A000000007C
:100A00003D3D3E3E206163695F6761705F70617369
:100A1000736B65795F72657370203A204661696C0B
:100A20002C20726561736F6E3A2030782530325811
:100A30000A0000003D3D3E3E206163695F676170D2
:100A40005F706173736B65795F72657370203A20B4
:100A5000537563636573730A000000003E3E3D3DBD
:100A6000204143495F4741505F4E554D45524943F0
:100A70005F434F4D50415249534F4E5F56414C5585
:100A8000455F56534556545F434F44450A000000A6
:100A90003D3D3E3E206163695F6761705F6E756DCD
:100AA000657269635F636F6D70617269736F6E5FAA
:100AB00076616C75655F636F6E6669726D5F79658F
:100AC000736E6F203A204661696C2C2072656173E9
:100AD0006F6E3A203078253032580A003D3D3E3E58
:100AE000206163695F6761705F6E756D65726963D0
:100AF0005F636F6D70617269736F6E5F76616C7545
:100B0000655F636F6E6669726D5F7965736E6F2086
:100B10003A20537563636573730A00003E3E3D3DA2
:100B2000204143495F4741505F50414952494E4738
:100B30005F434F4D504C4554455F56534556545FA7
:100B4000434F44450A00000020202020202D205043
:100B5000616972696E67204B4F0A20202020202D8A
:100B6000205374617475733A203078253032580AF6
:100B700020202020202D20526561736F6E3A203096
:100B800078253032580A00003E3E3D3D2041434921
:100B90005F474154545F5352565F524541445F563C
:100BA000534556545F434F44450A00003D3D3E3E89
:100BB00020636F6E6E656374696F6E5F636F6D70D7
:100BC0006C6574655F6576656E74204661696C2C32
:100BD000205374617475733A203078253032580A86
:100BE000000000003E3E3D3D206863695F6C655F2C
:100BF000636F6E6E656374696F6E5F636F6D706C4B
:100C00006574655F6576656E74202D20436F6E6E2A
:100C1000656374696F6E2068616E646C653A20303C
:100C200078253034580A000020202020202D204331
:100C30006F6E6E656374696F6E2065737461626C4C
:100C40006973686564207769746820403A2530329A
:100C5000783A253032783A253032783A2530327871
:100C60003A253032783A253032780A002020202088
:100C7000202D20436F6E6E656374696F6E20496E20
:100C800074657276616C3A20202025642E253032FE
:100C900064206D730A20202020202D20436F6E6E6B
:100CA000656374696F6E206C6174656E63793A2058
:100CB00020202025640A20202020202D205375701C
:100CC0006572766973696F6E2054696D656F7574AE
:100CD0003A202564206D730A000000006863695F94
:100CE0006C655F726561645F706879206661696CCC
:100CF0007572653A20726561736F6E3D307825308C
:100D000032580A003D3D3E3E206863695F6C655F76
:100D10007365745F70687920504859205061726122
:100D20006D202054583D2025642C2052583D20250C
:100D300064202D20000000006163695F6761705FBF
:100D40007465726D696E617465206661696C757237
:100D5000653A20726561736F6E3D30782530325888
:100D60000A0000003D3D3E3E206163695F6761709F
:100D70005F7465726D696E617465203A20537563A6
:100D8000636573730A0000006163695F676174746F
:100D90005F636C745F65786368616E67655F636FDE
:100DA0006E666967206661696C7572653A20726566
:100DB00061736F6E3D3078253032580A00000000B4
:100DC0003D3D3E3E206163695F676174745F636CA3
:100DD000745F65786368616E67655F636F6E66698F
:100DE00067203A20537563636573730A000000003F
:100DF0003D3D3E3E206163695F6761705F7365746E
:100E00005F6164766572746973696E675F636F6E44
:100E100066696775726174696F6E202D20666169FD
:100E20006C2C20726573756C743A203078253032E2
:100E3000580A00003D3D3E3E205375636365737361
:100E40003A206163695F6761705F7365745F6164B5
:100E5000766572746973696E675F636F6E666967E2
:100E600075726174696F6E0A000000003D3D3E3E80
:100E7000206163695F6761705F7365745F61647649
:100E80006572746973696E675F646174612046613D
:100E9000696C65642C20726573756C743A203078C7
:100EA000253032580A0000003D3D3E3E2053756318
:100EB000636573733A206163695F6761705F73652F
:100EC000745F6164766572746973696E675F64618B
:100ED00074610A003D3D3E3E206163695F67617059
:100EE0005F7365745F6164766572746973696E6758
:100EF0005F656E61626C65204661696C65642C207B
:100F0000726573756C743A203078253032580A0057
:100F10003D3D3E3E20537563636573733A206163C4
:100F2000695F6761705F7365745F61647665727431
:100F30006973696E675F656E61626C650A000000C7
:100F400044697361626C652061647665727469736B
:100F5000696E67202D206661696C2C20726573753F
:100F60006C743A203078253032580A003D3D3E3EC0
:100F70002044697361626C6520616476657274698E
:100F800073696E67202D20537563636573730A0060
:100F90006163695F6C326361705F636F6E6E65631E
:100FA00074696F6E5F706172616D657465725F7593
:100FB00070646174655F726571202D206661696C73
:100FC0002C20726573756C743A2030782530325855
:100FD0000A0000003D3D3E3E206163695F6C326364
:100FE00061705F636F6E6E656374696F6E5F706171
:100FF00072616D657465725F7570646174655F724E
:101000006571202D20537563636573730A000000BA
:101010003D3D3E3E206163695F6761705F636C6563
:1010200061725F73656375726974795F6462202DA4
:10103000204661696C2C20726573756C743A20309F
:1010400078253032580A00003D3D3E3E20616369FC
:101050005F6761705F636C6561725F736563757212
:101060006974795F6462202D2053756363657373BF
:101070000A00000000000000020000003000002014
:1010800000000000080000008C03002000000000A9
:1010900001000000DC0500200000FFFF0000000050
:1010A000040000009810041000000000050000007B
:1010B000581400200000000001000000C2AF04101E
:1010C0000100000003000000741400202000000054
:1010D000FB349B5F8000008000100000052A0000A8
:1010E0001000000001000000700400209C1004109B
:1010F0000A000000FB349B5F8000008000100000AD
:10110000292B00001000000000000000000000007B
:10111000A810041002000000FB349B5F80000080D8
:10112000001000002A2B000010000000000000004A
:10113000000000000000000002000000FB349B5F84
:1011400080000080001000003A2B0000100000001A
:101150000000000000000000B410041096C298D8EF
:101160004539A1F4A033EB2D817D0377F240A463D0
:10117000E5E6BCF847422CE1F2D1176BF551BF37D9
:101180006840B6CBCE5E316B5733CE2B169E0F7CAC
:101190004AEBE78E9B7F1AFEE242E34F00F00B1012
:1011A00000080000AA02000000F80B10F807010078
:1011B000000000002D2D2047415454203A204C457A
:1011C0004420434F4E46494755524154494F4E20C3
:1011D00052454345495645440A00000020204661D7
:1011E000696C2020203A206163695F676174745FD5
:1011F000636F6E6669726D5F696E6469636174695D
:101200006F6E20636F6D6D616E642C2072657375F7
:101210006C743A2030782578200A0000202053751D
:1012200063636573733A206163695F676174745FB8
:10123000636F6E6669726D5F696E6469636174691C
:101240006F6E20636F6D6D616E640A0020204661D1
:10125000696C2020203A206163695F676174745F64
:101260007372765F6164645F73657276696365202B
:10127000636F6D6D616E643A207032705F5365729A
:101280007665722C206572726F7220636F64653AA6
:101290002030782578200A00202053756363657319
:1012A000733A206163695F676174745F7372765F1C
:1012B0006164645F7365727669636520636F6D6DE9
:1012C000616E643A207032705F5365727665722089
:1012D0000A00000020204661696C2072656769730E
:1012E000746572696E67207032705F5365727665DF
:1012F000722068616E646C6572730A0006100000EB
:1013000019ED82AEED214C9D4145228E41FE00003B
:10131000800000000000000000000000D004002059
:101320001010000019ED82AEED214C9D4145228E3A
:1013300042FE00008000000001000000B404002014
:10134000DC0400208FE5B3D52E7F4A982A487ACC5A
:1013500040FE0000800000000100000000000000CE
:101360000000000002000000FC1204102020466172
:10137000696C2020203A206163695F676174745F43
:101380007372765F6E6F7469667920535749544360
:10139000485F4320636F6D6D616E642C20657272CF
:1013A0006F7220636F64653A2030782532580A00E6
:1013B0002020537563636573733A206163695F67C7
:1013C0006174745F7372765F6E6F746966792053AF
:1013D00057495443485F4320636F6D6D616E640AE3
:1013E00000000000010000000200000032000020A8
:1013F0002D2D20503250204150504C4943415449EA
:101400004F4E20534552564552203A204C454431C8
:10141000204F4E0A000000002D2D20503250204158
:1014200050504C49434154494F4E20534552564524
:1014300052203A204C454431204F46460A000000D5
:101440002D2D20503250204150504C494341544999
:101450004F4E20534552564552203A204E4F544944
:101460004649434154494F4E20454E41424C454424
:101470000A0000002D2D20503250204150504C4980
:10148000434154494F4E20534552564552203A202D
:101490004E4F54494649434154494F4E20444953C5
:1014A00041424C45440A00002D2D2050325020412D
:1014B00050504C49434154494F4E20534552564594
:1014C00052203A20494E464F524D20434C49454EFA
:1014D0005420425554544F4E2031205055534845C6
:1014E000440A00002D2D20503250204150504C49CC
:1014F000434154494F4E20534552564552203A20BD
:1015000043414E275420494E464F524D20434C49AB
:10151000454E54202D204E4F54494649434154498D
:101520004F4E2044495341424C45440A00000000BC
:1015300096C298D84539A1F4A033EB2D817D03776D
:10154000F240A463E5E6BCF847422CE1F2D1176B08
:10155000F551BF376840B6CBCE5E316B5733CE2BDB
:10156000169E0F7C4AEBE78E9B7F1AFEE242E34F0A
:10157000CAEBECEDEFF0F1F2F3F4F5F6F7F8F9FA67
:10158000FAFCFDFDFEFEFFFF00000102030405065C
:1015900008000000018805100D880510AD860510B3
:1015A0004D8705102B850510DB850510686A6C7466
:1015B0007A4C00007072696E74665F733A20256E13
:1015C00020646973616C6C6F776564007072696E1A
:1015D00074663A2062616420256E20617267756DC1
:1015E000656E74007072696E74665F733A20626132
:1015F0006420257320617267756D656E740000004C
:10160000000000006E616E004E414E00696E660083
:10161000494E460030002E00FB349B5F8000008066
:1016200000100000292B000010000000FB349B5F1D
:101630008000008000100000052A0000100000005B
:10164000020000000300000003000000060000008C
:1016500003000000030000003C00000070000000D8
:1016600070000000D003000070000000C301000003
:10167000CD9105109799041083A9041037AE04107A
:1016800013AD04106D1C0410A51C04109B1E041047
:10169000A31E0410AB1E0410B31E0410BB1E0410C6
:1016A000499705106B1E04105B1E0410731E041076
:1016B000C3AE0410C51C04108D1D0410551D04106C
:1016C000B7970410BD1C0410359605105BEA051091
:1016D000B7E805105BEC05106DEE05106DEE05101A
:1016E00083EF05105BEC05105DF105105DF1051051
:1016F0005DF105105FEB051071E8051035E8051088
:1017000083EF0510AD1C0410B51C041021F5051065
:1017100029F5051025F50510E51C0410ED1C041035
:10172000F51C0410FD1C0410D9F405100D1D041047
:10173000151D04101D1D0410051D0410DDF40510F9
:10174000E5F40510E9F40510251D0410E1F4051079
:10175000F8B50126AD4C267030022018A060C820D4
:10176000A081132251A12000203000F003FA0025AF
:10177000A573C82060826430A082A5750720E0753B
:10178000022020822576B42080002018E061A57018
:10179000A580A571200000F049F9010004D100BF27
:1017A000D1A000F01DFA02E0994800F019FA2700D4
:1017B00040373E70E42040002018B860C820B8814F
:1017C000122200BFD0A12000603000F0D3F9BE7318
:1017D000C82078826430B882BD750720F8753D82D4
:1017E0003D76B42080002018F861BE70BD80BD71C8
:1017F000380000F01BF9002804D100BFBAA000F0A7
:10180000EFF903E00100824800F0EAF9AC20800023
:1018100027181F227F49380000F0C6F920008030C9
:10182000067087601F218181BCA12200A03288C977
:1018300088C202218173C822428264328282857505
:101840000722C27506820576B4229200A218C261F0
:101850008170858085711F226E49A4208000201828
:1018600000F0A2F92700C0373E70A42080002018A5
:10187000B8601F20B8810722AAA12000E03000F044
:1018800079F90320B873C82179826431B982BD75B2
:101890000721F975132139823D76B4218900611839
:1018A000F961B8700020B880BD71F2BD65787465CB
:1018B0006E6465645F7363616E6E61626C65000087
:1018C000F8B58CB0544800F08BF90BA800F048FB39
:1018D000060005D10BA80178504800F081F901E01D
:1018E00000F0EBFB00270BA9491C0F704A4D47483D
:1018F000B90144182078002800D17FE048A000F00A
:101900006FF90BA8401C0078401C0BA9491C0870FB
:101910000BA800780BA9491C0978884202D24148DB
:1019200000F05EF92100203180A000F059F9A17B80
:1019300084A000F055F9A18988A000F051F9002099
:101940000A90A07B099001200890002007900120B8
:10195000069016202056059000200490E069039020
:10196000207E0290E07D0190A08A0090638A228A06
:101970000221A07800F0A6FB010004D12800D83095
:1019800000F02EF904E086204000281800F028F925
:10199000A0892549884201DB01200EE0208A022827
:1019A00005D1A268A189A07800F0C1FB05E0A36879
:1019B000A2890321A07800F0BEFB002805D1A82051
:1019C0004000281800F00CF905E00100CC20400090
:1019D000281800F005F9A21C0121012000F0AFFB3E
:1019E000060005D1F8204000281800F0F9F805E0BD
:1019F000310087208000281800F0F2F87F1C042FA7
:101A000000DA74E730000DB0F0BD00004809002096
:101A1000C000041060030020F00004104001041016
:101A20002D2D0A006C01041073060000F8B50400A7
:101A300000260025A189A06800F094FB0220A1687F
:101A400008700127A1684F700620A16888702000E7
:101A5000203000F08FFB401CA168C8700920A168ED
:101A600008712000203000F085FB020021002031A9
:101A7000A068401D00F098F82000203000F07AFBAC
:101A8000411D89B2A089421A12B2022A0EDC012538
:101A90002800F2BDA068CF19C3555B1CDFB2974286
:101AA000F8DB891889B2A089421A12B2002AEFDD48
:101AB000FE2A01DBFC2200E0921E501CA368585451
:101AC000491C89B2FF20A3685854491C89B23020B0
:101AD000A3685854491C89B2A3685E54491C89B252
:101AE000921E92B20023D9E7202053756363657379
:101AF000733A204144565F4558545F4275696C649F
:101B00005F646174610A00006578745F6E6F73636F
:101B1000616E5F6E6F636F6E6E0000004558545FBC
:101B2000503250004C454741435900002020416449
:101B300076206E616D6520202020203A2025730AD2
:101B40000000000020205349442020202020202095
:101B50002020203A2025640A000000002020446153
:101B60007461206C656E67746820203A2025640AD1
:101B70000000000070B4103A03D378C9103A78C05E
:101B8000FBD2530701D318C918C001D508C908C032
:101B9000D20704D30B880380891C801C002A01D53E
:101BA0000B78037070BC70478B0701D18307E1D0BD
:101BB000124205D00B78491C0370401C521EF9D10B
:101BC000704783008500070007008300850005003B
:101BD0000700030003000F000500820081000500DC
:101BE0000EB4C0B5020003A801900020009001AB24
:101BF0000121044878440C3000F0C8FA029906B07C
:101C0000084700BFEDCB010030B58BB018AC24788D
:101C10000A9417AC2478099416AC2478089415AC6F
:101C20002478079414AC247806946D464C242C57E1
:101C3000059412AC24780494119C039410AC24787D
:101C400002940FAC247801940E9C009401F042FAA7
:101C50000BB030BD80B501F0DBFA02BD80B501F0FC
:101C6000FBFA02BD80B501F01BFB02BD80B501F09F
:101C70009DFB01BD80B501F0BFFB01BD80B501F04A
:101C8000E3FB01BD80B501F0E6FB01BD80B501F0CD
:101C9000E3FB02BD80B501F0FBFB02BD80B501F0A6
:101CA00023FC02BD80B501F045FC01BD80B501F00B
:101CB00047FC02BD80B501F06DFC02BD80B501F0AE
:101CC0008BFC01BD80B501F09BFC01BD80B501F02E
:101CD00001FD02BD80B501F0FFFC02BD80B501F041
:101CE000FDFC02BD80B501F015FD02BD80B501F01F
:101CF00041FD02BD80B501F059FD02BD80B501F086
:101D000071FD02BD80B501F0ADFD02BD80B501F0F1
:101D1000EFFD02BD80B501F01BFE02BD80B501F0F4
:101D200035FE02BD80B501F04DFE02BD80B501F06B
:101D300065FE02BD80B501F09BFE02BD80B501F0DD
:101D400099FE01BD80B501F0ADFE01BD80B501F089
:101D5000E9FE02BD80B501F03BFF01BD80B501F099
:101D600055FF01BD80B501F059FF01BD80B501F0FF
:101D70005DFF01BD80B501F061FF01BD80B501F0DF
:101D80009DFF01BD80B501F0F1FF01BD80B502F0FE
:101D900047F801BD80B502F0D7F802BD80B502F06A
:101DA00013F902BD80B502F019F902BD80B502F049
:101DB00045F901BD80B502F0B7F901BD80B502F06B
:101DC000EDF901BD80B502F025FA01BD80B502F044
:101DD00061FA02BD80B502F095FA02BD80B502F04D
:101DE000A5FA01BD80B502F061FB02BD18B587B050
:101DF00010AC247806940FAC247805940EAC2478AB
:101E000004940DAC247803940CAC247802940BACAD
:101E1000247801940AAC2478009402F049FB08B0BD
:101E200010BD80B502F074FB01BD80B502F08AFBE5
:101E300001BD80B502F0A6FB01BD80B502F0ECFB50
:101E400001BD80B502F008FC02BD80B502F020FCA7
:101E500002BD80B502F04AFC01BD80B502F080FCF5
:101E600001BD80B502F05EFD01BD80B502F072FDDE
:101E700001BD80B502F072FD01BD80B502F034FEF7
:101E800002BD80B502F086FE02BD80B502F0AEFE56
:101E900001BD80B502F0FAFE01BD80B502F05AFF27
:101EA00001BD80B502F068FF01BD80B502F086FF7C
:101EB00001BD80B502F0A6FF01BD80B503F05CF85E
:101EC00001BD80B503F06EF802BD80B503F06EF879
:101ED00002BD1FB508AC247802946C46247F01949F
:101EE0006C46247E009403F069F804B010BD80B500
:101EF00003F0A8F802BD80B503F0B0F802BD80B5CC
:101F000003F0B4F802BD80B503F0B5F802BD80B5AA
:101F100003F0B5F802BD80B503F0B5F802BD80B599
:101F200003F0B5F802BD1CB5059C01946C46248AEB
:101F3000009403F0B0F816BD1CB5059C01946C46E6
:101F4000248A009403F0B6F816BD80B503F0BBF800
:101F500002BD1CB56C46248A009403F0B8F816BD87
:101F600080B503F0C1F802BD81B0314901E081B014
:101F700030490A6802430A600968084000900098E6
:101F800001B070477CB503F0BDF800F05DF800F0DB
:101F900081F80820FFF7E8FF0420FFF7E5FF03F0D2
:101FA000C5F800BF46A000680090234C206A0125B8
:101FB000ED430126304008D120683043206020687E
:101FC000284020600120FFF7D2FFC020C00500900C
:101FD000684603F0ADF868460021002206C0206A7A
:101FE000304008D1206806432660206805402560FF
:101FF0000120FFF7BCFF114800681028FBD368469A
:10200000A0214900018000218170019103F07BFA39
:102010000B480C49016004F0DDF8002801D000F005
:102020004CF8002004F046F904F064FAFCE70000E4
:102030005000404860004048400040481018006090
:10204000281400200000304880B588B0182102A86C
:1020500000F088F868460021002206C003200290A4
:102060008020400203901020059002A804F042FB5B
:10207000002801D000F021F80020009020200190DD
:102080000021684604F05EFC002801D000F015F83D
:1020900009B000BD80B586B01821684600F062F82E
:1020A00002200090C0020590684604F0E7FC00287A
:1020B00001D000F002F807B000BD72B6FEE70000E4
:1020C00000000000F0B593B01F4615460E46129072
:1020D0001C9C08461146224604F070FD002824D1BD
:1020E00022980D901FAB0DCB11901E980F901D984C
:1020F0000E901B980C901A9919981097189F089297
:1021000009930D9A0A920097019002910C980390FE
:1021100004940E9805900F980690119807901298C5
:1021200031462A46109BFFF76FFD13B0F0BD80B516
:10213000FFF790FD80BD80B5FFF790FD80BD80B5B5
:10214000FFF790FD80BD0300FFFFFFFFFFFFFFFFD4
:10215000FFFFFFFFFFFF010000000000FFFF010085
:102160000000FFFF002200BF094202D0491E425476
:10217000FCD17047431C0178401C0942FBD1C01AB6
:102180007047FEE70100202008437047FDB5B2B05C
:102190003A98049102A93B22885400200D9024A86B
:1021A000401C2F900DE00498329A9047049000282C
:1021B00001D100F0B7FE0D98401C0D903398401CE3
:1021C000339033980178002910D02529EBD10020D5
:1021D0000790089009900A900B900C90002102241F
:1021E0000120149008201290339D05E00D9800F016
:1021F0009BFE0800149901436D1C28782028F8D014
:1022000023280BD02B2804D02D2804D0302808D028
:102210000AE02143F0E708000421ECE70800082168
:10222000E9E708001021E6E72A280FD13498026870
:102230001068121D349B1A600F90002804D542428A
:102240000F920800042101436D1C12E000200F9042
:10225000644A09E00F9B934205DA9E00F3185B0085
:10226000181830380F906D1C28780300303B0A2B6B
:10227000F0D328782E2803D00020C0430E9027E00A
:102280006D1C28782A2808D1349800680268001D3F
:10229000349B18600E926D1C1AE02D2802D12D225D
:1022A0006D1C00E0002200200E900CE0002A09D1F5
:1022B0000E9B4C4EB34205DA9E00F3185B001818D3
:1022C00030380E906D1C28780300303B0A2BEDD37C
:1022D00002A801872E78310040487844FF30401E24
:1022E00004F080FC002801D06D1C00E0002602A84C
:1022F0003A214654405C682804D1287868280BD1DC
:10230000622005E06C2807D128786C2804D1712060
:1023100002A93A2288546D1C15A8069028786946AF
:102320000870681C3390684602781000253833D056
:102330001C3800D1CCE1001F022800D8C8E11338B6
:1023400001D100F019FD093800D1C1E1801E01D191
:1023500000F0AFFD401E01D100F05CFD401E0228E0
:1023600000D8B5E1001F01D100F054FD401F00D19D
:1023700008E1401E01D100F0FFFC401E00D1F0E05A
:10238000C01E0ED0801E01D100F0F6FCC01E01D18F
:1023900000F0F2FC00F098FD14980790252015A994
:1023A0007CE1349800680468001D34990860059445
:1023B000002C00D0C1E002A83B21405C002800D1E5
:1023C000B5E00024E44306487844143004F014FCDB
:1023D000201A01D000F0A6FD00F083FDD0F1FFFF30
:1023E00004F2FFFFCBCCCC0C01236A4602A92800E3
:1023F00000F054FE002801D000F094FD641EF3D1DB
:102400003295079D15AC002D0FD0329E217804988F
:10241000B0470490002801D100F084FD0D98401CC5
:102420000D90641C6D1EF1D1329630206946087003
:102430000A9C002C0DDD329D01236A4602A928006A
:1024400000F02CFE002801D000F06CFD641EF3D1DA
:102450003295059C089D002D0FD0329E217804985E
:10246000B0470490002801D100F05CFD0D98401C9D
:102470000D90641C6D1EF1D13296302769460F70A5
:102480000B9C002C0DDD329D01236A4602A9280019
:1024900000F004FE002801D000F044FD641EF3D1DA
:1024A0003295059808994418099D002D0FD0329E49
:1024B00021780498B0470490002801D100F032FD43
:1024C0000D98401C0D90641C6D1EF1D1329668462B
:1024D00007700C9C002C0DDD329D01236A4602A979
:1024E000280000F0DBFD002801D000F01BFD641E79
:1024F000F3D1329502A83821405C400700D460E651
:102500002020694608700198002800DC59E6019CEB
:10251000329D01236A4602A9280000F0BFFD002871
:1025200001D000F0FFFC641EF3D1329549E61B4850
:1025300078446830059000F0D4FC0E9D002D03D542
:102540002000FFF717FE09E02A000021200004F018
:1025500077FB002801D0001B00E02800089000F065
:10256000C0FC349800680268001D3499086000209F
:10257000C0430021104002AA03C215A8059078218B
:1025800000F093FC02A83B21415C002908D0002404
:10259000E4434B487844FF30293017E764F0FFFFED
:1025A0003A21405C62286AD0682819D06A2845D050
:1025B0006C2806D071284FD0742831D07A2821D0C9
:1025C0006FE0349800680168001D349A106000299B
:1025D0007AD10024E4433B487844FF301738F5E6CD
:1025E000349800680168001D349A1060002905D1F4
:1025F0000024E44333487844CA30E7E60D98088065
:1026000000F06FFC349800680168001D349A106077
:10261000002959D10024E4432A487844A630D5E65D
:10262000349800680168001D349A106000294BD16D
:102630000024E443234878448A30C7E6349800688D
:102640000268001D34990860002A13D10024E44375
:102650001C4878446E30B9E6349800680268001D62
:1026600034990860002A05D10024E44315487844D1
:102670005230ABE60D98C11703C200F032FC34981B
:1026800000680168001D349A1060002905D10024FB
:10269000E4430C4878442C3098E60D98087000F01C
:1026A00020FC349800680168001D349A10600029ED
:1026B0000AD10024E44303487844083086E600BF8A
:1026C000F4EEFFFF08EFFFFF0D98086000F009FC33
:1026D00034980068C31D072083433498036003CBFC
:1026E000349D2B6002AB03C32023C80F04D007988E
:1026F0002D2115AB19540DE002A8008F204204D003
:1027000007982B2115AB195404E0C00704D507988E
:1027100015A90B54401C079015A807994018139051
:102720001398059024AD02A8C0C8684600782021FF
:10273000014368468170807861280BD00E9800288C
:1027400001D5062005E005D168468078672801D1CB
:1027500014980E9002A803C808004B005B150024D3
:10276000E443A3420ED109030CD003200890613A40
:102770001A2A03D21949794462310FE01849794481
:102780005E310BE0A3420ED100030CD10320089070
:10279000613A1A2A1DD31349794448310322139808
:1027A000FFF702FA9DE301AA02A803C804F053FA56
:1027B00002AA03C26846807861281CD1059830219E
:1027C0000170811C05916946097861290ED1782133
:1027D0000DE0054979441031E0E700BF28EEFFFF26
:1027E00028EEFFFF2CEEFFFF24EEFFFF5821417083
:1027F0000798801C079002A803C82246530802408D
:102800000B4004D1002A02D10024002652E1684680
:102810008078612800D099E00E98002801D5212009
:1028200000E0401C13901398401C2E90300039009B
:102830000022002304F024FA02A830C802D280202B
:10284000000645400198001F019024A90A7024A8A1
:10285000461C2E98002832DD2E9F200029000022E1
:1028600080235B0304F025FA29D81C2204F03AFAED
:1028700004000D0004F06EFA2E90FF1F002F09DDFA
:1028800004F0A2FA02000B002000290004F009FB6A
:1028900004000D00F01D07212E9A002A0ADD491EB2
:1028A00008D4401E13071B0F03701211F5E7401EDA
:1028B00000220270491EFAD5C61D002FCDDC24A8C7
:1028C0002F99711A24AA551C139A0C00914200DD0D
:1028D0001400002C33D48C4205DA411C095D082910
:1028E00001DB0F2100E00021220024AB9B1801E056
:1028F000641E5B1E521E1E788E42F9D00F2904D131
:10290000411C895C491C401C8154002A04D524AD1B
:10291000641C0198001D0190611E10D46A1868465D
:10292000007813783033DEB23A2E01DBC318C63399
:102930001370491E521E0029F3D5694608700E987F
:10294000002800D4B5E0601E0E90B2E07F007F0842
:10295000019866494843664904F030FB019007201E
:102960000199401A002805DD02003000390000F00E
:102970006FFB0AE0424200205E4900F069FB020062
:102980000B003000390004F073FB6A469278662A27
:1029900002D1019A0A3200E006220E9B9A18142AEC
:1029A00000DD142224AB30241C705C1C02E030A833
:1029B00003C8139A002A3CDD30AB03C3139230A83E
:1029C00003C804F0D9F92E900646083404253000D7
:1029D0000A2104F0F6FA0F0030000A2104F0F1FA9F
:1029E00006003037601E077030000A2104F0E9FA53
:1029F0000F0030000A2104F0E4FA0600A41E30376C
:102A000027706D1EE3D108341398083813900028FE
:102A1000CDDD2E9804F0C8F902000B0030A803C8E1
:102A200004F03FFA0022344B04F083FB30AA03C2C7
:102A3000C5E72F98201A24A94D1C04E0401E0199D7
:102A4000491E01916D1C29783029F7D06946897893
:102A5000662902D10199491C06E0694689786529F1
:102A600001D1149900E000210E9A5418A04200DA16
:102A7000441E002C1DD4844204DA285D342801DD74
:102A8000392100E030212200681E831801E0641E15
:102A90005B1E521E1E788E42F9D0392902D1A95CE4
:102AA000491CA954002A04D50500641C0198401C47
:102AB0000190019E1395684600786946487004F0BD
:102AC000FBFB406A0078694608700E9D20B2002822
:102AD00004DC149C044878440E30139068468078D7
:102AE00066280BD1761C23E02CEBFFFF97750000C6
:102AF000A08601000000F03F84D7974168468078A7
:102B0000672846D130B20321C943884247DBA84237
:102B100045DA761C02A8008F1299C0B2084203D190
:102B200020B2A84200DC050030B22D1A00D50025E5
:102B300037B2002F00DDBAE00898411C089130211F
:102B4000059A1154002D05DC02A8008F1299C0B21D
:102B5000084206D00898411C089169460978059AF0
:102B600011547842854200DA6E4236B270420B90C0
:102B7000AD1920B2854200DA2C0024B2099422005B
:102B800013990598089BC018FFF70EF8281B0C90A6
:102B9000DAE068464078612818D170201BE020B246
:102BA000A84206DA02A9098F129AC9B2114200D1CD
:102BB00005006D1E00D5002568464078672802D1C3
:102BC0006520694607E04520694604E0684640788C
:102BD000412801D1502048700898411C0891139950
:102BE0000978059A11541398411C002D05DC02A8A0
:102BF000008F129AC0B2104219D00898421C089255
:102C00006A461278059B1A54002D10DD641E20B20E
:102C1000854200DA2C0022B20598089BC018FEF706
:102C2000C3FF24B2089800190890281B0B90059840
:102C30000899401869464978017031B2002903D4D7
:102C40002B214170871C03E02D224270871C4E42CD
:102C5000002412AD300008E00A2104F0AFF930AAD8
:102C600003C229703098641C6D1C00B20028F3DC8C
:102C7000012C08DC6846407820210143652902D1F7
:102C8000302038707F1C002C09D1302038707F1C18
:102C900007E0641E12A8005D303038707F1C002CE5
:102CA000F7DC059808994018381A09904CE020B2D2
:102CB00031B288421DDA22B213990598089BC018D8
:102CC000FEF772FF24B2089800190890391B0B9187
:102CD000002D05DC02A9098F129AC9B2114206D053
:102CE00069460978059A11540998401C09900C9579
:102CF0002AE032B213990598089BC018FEF754FFDA
:102D00000898C0190890A41B002D05DC02A9098FA2
:102D1000129AC9B2114205D0411C0891694609783E
:102D2000059A115420B2854200DA2C0022B2139881
:102D3000C1190598089BC018FEF736FF24B2089801
:102D400000190890281B0B9002A83821405C142120
:102D50000140102900D0C4E00798089940180B9949
:102D60004018099940180C9940180F99884200DBC7
:102D7000B7E0081A0A90B4E002AA3A20105C622870
:102D800008D068280ED06A2814D06C281DD071286D
:102D900010D01AE0349801680868091D349B196046
:102DA000C0B218E0349801680868091D349B1960A6
:102DB00080B210E034980068C31D07208343349824
:102DC000036003CB349C236006E0349801680868F4
:102DD000091D349B1960002102AB03C3108F1299A7
:102DE000C0B208425BD002A803C8002901D1002864
:102DF00055D0684600782021014378294FD10798A3
:102E000015A930220A54401C421C07926A461278C7
:102E10000A5444E002AA3A20105C622808D06828CC
:102E20000ED06A2814D06C281DD0712810D01AE05A
:102E3000349801680868091D349B196040B218E095
:102E4000349801680868091D349B196000B210E0CD
:102E500034980068C31D072083433498036003CB74
:102E6000349D2B6006E0349801680868091D349B86
:102E70001960C11702AB03C3002902DA07982D219C
:102E800009E0108F204202D007982B2103E0C007F1
:102E900005D50798202115AA1154401C079015A8A4
:102EA0000799401805906846017802A800F03EF89E
:102EB00017E014980790349800680168001D349A50
:102EC000106015A801700CE014980790252015A932
:102ED000087068460078002803D007946846007898
:102EE00048700F980799401A0A99401A0899401A91
:102EF0000B99401A0999401A0C99401A019002A89E
:102F00003821405C400701D5FFF77BFA2020694655
:102F100008700198002801DCFFF773FA019C329DCC
:102F2000FFF762FA0020C04335B0F0BDF2B586B0BD
:102F3000040025696F2901D1082707E00846FFF73B
:102F400021F9782801D00A2700E010273C2603CC7D
:102F5000083C04AA03C26A46127E642A03D06A4669
:102F6000127E692A09D1002907DA04A803C80022C1
:102F70000023121A8B4104A80CC004A803C800291E
:102F80000DD100280BD1206B002808D1082F3DD18E
:102F90003820205C000739D53B26302035E00294EC
:102FA000009504A830C8761E0196200029003A003A
:102FB000FB1704F087F93032D0B23A280DDA0098C6
:102FC0008255200029003A00FB1704F07BF9040029
:102FD0000D0007D1002C05D10AE06846007E82185A
:102FE000AF32ECE70298C068009989198842DAD3B9
:102FF000029C009D082F09D13820205C000705D5D0
:10300000A85D302802D0761E3020A8553C20801BB9
:10301000A061A919E160216B884206DA081A2062D2
:10302000208F1C490140218710E000290ED538214E
:10303000615C14220A40102A08D1616B6269891A06
:10304000226A891A081A002800DD206207B0F0BD44
:10305000F8B50026104F04000D00009214E0C007E0
:1030600007D532003B002000290004F062F804007C
:103070000D000098401000903000390032003B00F5
:1030800004F057F806000F0000980028E7D1200050
:103090002900F4BDEFFF000000002440F8B5002433
:1030A000002B11D007000E0014001D002178B0681D
:1030B000B847B060002809D0F06A401CF0620020D8
:1030C000641C6D1EF2D104002000F2BD0020C0433C
:1030D000F9E7FEE7F0B59FB0154604461E930209D6
:1030E00012200E2A00D98DE02026032903D02A467B
:1030F000324000D086E01B911DAF2046394604F0D7
:103100001FF939784048807E81422DD268003040D6
:10311000AA00082313401B18142048433B490968A0
:10312000496D0F187B707A1C6E070F97109107D5A9
:1031300010261E4316702F0703D5502633431370F5
:103140001E462A99EB0702D001231E4316702C9EBF
:10315000042703290B4616900E9707D0042B1B99C2
:1031600007D10323119306E087204BE011971B99A9
:1031700001E0002711972E9814902D9813902B9F03
:10318000299A1992289A2798179026981590259889
:103190001290032E1B931A97189205D0042E16989E
:1031A00006D103273E4604E00E9F109A169801E0D0
:1031B0000027109A115404F0E1F81CA90896139AFC
:1031C0000992149A0A92119A0B920C970D911299E6
:1031D0000091019015980290179803901898049008
:1031E000199805901B9806901A9807901EAA24AB70
:1031F0002046294604F0D6F8002803D10F9A94748B
:10320000012111741FB0F0BD5C1300208C1400204C
:103210007CB5064600090E2801D912207CBD144653
:103220000D46304604F072F9002800D07CBD01A99B
:10323000304604F085F80028EFD001A8007814216A
:10324000414304480068406D4018C58184600020F7
:103250007CBDC0468C1400207CB5064600090E28B3
:1032600001D912207CBD1C461546304604F09CF95D
:10327000002800D07CBD01A9304604F061F8002888
:10328000EFD001A800781421414304480068406D44
:1032900040188581446000207CBDC0468C1400200D
:1032A000F0B585B005463F48807E884201D212279E
:1032B00074E016460C463C480068406D0290012DB3
:1032C000019514D10394641C3546641E12D02878ED
:1032D00004A904F035F800283ED0AD1D04A80178FB
:1032E000012004F0CFF90028EFD0074656E00C206B
:1032F000009004E004F020FA0090019D039C284611
:103300002146324604F036FA0746002846D1002C02
:1033100024D0002C34D00394307804A904F010F8A1
:103320003079002802D17088002813D0022404A824
:103330000778012128463A4604F06AFA002D00D1A8
:103340002C4614207843029908184474B61D039C37
:10335000641EDEE70124EAE7D3271FE0029E113650
:103360000024104FB87E84420AD2E2B20025012127
:10337000284604F04DFA3570019D1436641CF1E7BF
:10338000012D08D10098002807D10027384639467A
:1033900004F09EFA02E004F0C3FA0027384605B0B4
:1033A000F0BDC0465C1300208C1400201CB51148F1
:1033B000046804F0D3FA882807D00C2805D05D34BF
:1033C000002808D1022060701CBD052004F0C8FA56
:1033D00004F04AFC1CBD0020607020787F21014071
:1033E000217001A98620487080200870022005F015
:1033F00069F81CBD8C140020BCB511480068446DF0
:10340000FEF7F0FC002802D00E48807E00E001208C
:10341000C5B21134002D11D0207800280BD02046E1
:103420000F380078800706D560786A461070002053
:103430000121FEF717FC14346D1EEBE7BCBDC0463E
:103440008C1400205C13002080B5084605F09CF821
:1034500004F066FA80BD7047F8B50446002000907D
:10346000C64309480068476D1237084D761CA87E90
:10347000864207D238781437214605F0EDF8002847
:10348000F4D0F8BD0098F8BD8C1400205C13002027
:10349000F0B58DB00BA8002484800B94104D114E14
:1034A0002746A87E874218D200220A92012008905F
:1034B000079206907F20059004920BA80390029239
:1034C000072001900096F8B2099002212023FFF70F
:1034D00001FE7F1C0028E4D000E020460DB0F0BDC6
:1034E0005C130020FFFFFF00FEB504460F4DA87ED1
:1034F0000F4909684E6D113600270097C1B28F42FF
:1035000012D2317801290CD101AA0020107150800B
:10351000707810700121204604F02CF9002804D1A5
:10352000A87E14367F1CE9E70098FEBD5C130020DE
:103530008C14002080B50120FFF7D6FF80BDFEE788
:10354000B0B5096883240022002912D0CD69002477
:10355000CC61087AC00603D4002005F081F802E0AF
:10356000084605F0B7F8012200282946ECD083244C
:103570000CE0D0070AD0EFF3108072B60448006860
:103580008921425C521E425462B60024E0B2B0BDB2
:103590003414002080B50E4800682C22805CC007DF
:1035A000086802D105F0A4F801E005F02FF9002821
:1035B00001D0832080BDEFF3108072B6054800680B
:1035C0008821425C521E425462B6002080BDC04633
:1035D000841400203414002070B50025074EF07AC2
:1035E00085420AD2ECB2204605F044F9002802D008
:1035F000204605F03FF96D1CF1E770BD5C1300201B
:10360000F8B50024204605F00BFD05460122304B9D
:103610002746009218683421405C844250D22C2006
:10362000285CFE21014002293ED18C202E58F00753
:103630000DD0698F002005F001FD3A28009A104650
:1036400030D028468C300168012291430160284621
:1036500005F02FFD0028009A104623D12846314658
:1036600005F029FD009A002810461BD1E6B230462D
:1036700005F023FD009A0028104613D1304605F0CE
:103680001EFD009A002810460CD1284605F019FDB1
:10369000009A0028104605D1304605F014FD009A26
:1036A000411E88410A4B00E00020411E8841390636
:1036B000174600D107464D2080002D18641CA9E74D
:1036C000380603D01120012105F000FDF8BDC046E9
:1036D00084140020012070470120704770B50B4C06
:1036E000012504222046294605F006FD084E3060DB
:1036F00006222046294605F0FFFC31680860306844
:103700000168002088804880087070BD5813002030
:1037100080140020B0B50D460446087949790902A5
:10372000081805F0FBFC287969790902081805F0EA
:1037300035FD287969790902081805F05DFD05F065
:1037400085FD287969790902081805F081FD084886
:1037500000683621405CC00601D40020B0BD1520B1
:10376000E070A078BF210140A1708420B0BDC046A8
:103770003414002010B5044608794A791202121850
:10378000C978062005F086FD0748006836214056B6
:10379000002801D4002010BD1620E070A078BF21C1
:1037A0000140A170842010BD3414002010B50446DF
:1037B00008794A7912021218C978072005F06AFDC3
:1037C000074800683B214056002801D4002010BD66
:1037D0001720E070A078BF210140A170842010BDA7
:1037E00034140020B0B50D460446087900281DD1D8
:1037F0006879A9790902081805F0C6FD6879A979E0
:10380000090208182A7AE9792B46093305F0E0FD08
:103810006879A9790902081805F0F4FD6879A97991
:1038200009020818E97905F00DFE28796979AA7965
:1038300012025118EA7905F014FE094801683D208A
:103840000A5C002092060AD53D31497AC90706D0A4
:103850001820E070A078BF210140A1708420B0BD85
:1038600034140020FEB50D4604460879002823D103
:103870006879A9790902081805F086FD2A7AE9799C
:103880006879AB792E4615362F460F37009701968B
:103890001B0218182B46093305F0EDFD6879A9794C
:1038A0000902081805F0AEFD6879A979090208181F
:1038B000E97905F0C7FD28796979AA7912025118CA
:1038C000EA7905F0CEFD094801683D200A5C002038
:1038D00092060AD53D31897A890706D51C20E07009
:1038E000A078BF210140A1708420FEBD34140020C7
:1038F00070B50446144D28683626805D00280ED128
:1039000008794A79120210188A7BCB7B1B029A181D
:10391000891D05F0D7FD2868805D002812D00B486E
:1039200001683D200A5C002092060AD53D31497AA3
:10393000C90606D51920E070A078BF210140A1700A
:10394000842070BD002070BD841400203414002039
:1039500010B504460879491DFEF7F0F90A480168D8
:103960003D200A5C0020920604D53D31092289568B
:10397000002900D410BD1A20E070A078BF210140BA
:10398000A170842010BDC0463414002010B5044638
:103990000879491DFEF7D6F9094801683D200A5CFF
:1039A000002092060AD53D31897AC90706D01B202E
:1039B000E070A078BF210140A170842010BDC046F6
:1039C0003414002010B504464A7908791146FEF7F0
:1039D00055F9094801683D200A5C002092060AD585
:1039E0003D31C97A890706D51F20E070A078BF2134
:1039F0000140A170842010BD34140020F8B5184C8B
:103A000001250422174E20462946B047164F38603C
:103A1000102220462946B047396808600C2220460B
:103A20002946B04739680968C860104DE9892422E1
:103A30002046B047014638680268D068816000219E
:103A4000082903D000235352891CF9E7E989D18062
:103A500000211181E989418005F0B4FDF8BDC0461F
:103A600058130020F9900410981400205C130020D3
:103A700001207047B0B50A4A12684223D45C7F2502
:103A80002540D554002802D005F0B8FDB0BD084649
:103A900005F0D0FD0E2003F063FF04F0E5F8B0BDA3
:103AA0009C14002070B51D4E32684225535DDB0624
:103AB00028D5002816D0A432194800683421405C6B
:103AC00070214143002399421CD01068002807D080
:103AD000C0180489002C03D017240457002C12D4DA
:103AE0007033F0E74920800010182024224605F0AA
:103AF000B3FD3068415D214341550E2003F030FF96
:103B000004F0B2F870BD0B210022012305F018FE6D
:103B10003068415DCF220A40425570BD9C140020A0
:103B200084140020F8B505460120682105F01EFE2A
:103B3000234F3860234EF07A1424214605F016FEF8
:103B400001463868C162012D10D15C3005F018FEC5
:103B50002225705D342105F009FE39684863705DE7
:103B60004000102105F002FE39688864F07A411C9B
:103B7000154D0122284605F0BFFA39680862F17A2E
:103B80000222284605F0B8FA3D686862F17A0F4AC9
:103B90000723284605F0F8FD386817210185318C88
:103BA000172901D28620F8BD4185F17A4C43C06ABD
:103BB0000021224605F054FD05F0FBFDF8BDC0468E
:103BC000941400205C130020581300205DD70510CA
:103BD00070B50024204605F023FA05460A4E3068E9
:103BE0003421415C8C420DD2FF210831695CC90748
:103BF00003D0284605F0E0FD30684D2189006D189E
:103C0000641CEDE770BDC0468414002080B5072019
:103C1000014905F07DFE80BD91C3051080B50020EF
:103C2000014905F075FE80BD51AE051080B502203A
:103C3000014905F06DFE80BD4DAC0510B0B5012009
:103C40001849194CA04703201849A04705201849D6
:103C5000A04708201749A047FEF784F8FEF786F82A
:103C600005F05EFEFEF77AF805F060FE05F064FEF2
:103C700005F068FE05F06CFE05F070FE05F074FEC0
:103C800005F07DFE05F081FE00240B4D28683421EF
:103C9000415CE0B2884203D205F07EFE641CF5E789
:103CA000B0BDC04695B9051011990410B1C10510F9
:103CB000E5CA051019AA051084140020FEB50646B1
:103CC00087680479204605F0ABF90546204605F0E3
:103CD0009BFE002844D08079042841D17802E96C09
:103CE00081423DD028462C300295B63539683D22B8
:103CF00012016B889B019A18EB889A4200D81346F0
:103D0000184A4A4311463668007802280BD11648F3
:103D10001818814207D201911249009303F051F91A
:103D2000009B019938602888F0844B208000181887
:103D3000091A00D2002168892A8A904200D31046CD
:103D40008142029B00D8084682B2A92109018A4219
:103D500000D80846B08401212046324605F068FEAE
:103D6000FEBDC046E2040000BC0B0000FEB50568C5
:103D70000679304605F054F90746304605F044FE12
:103D8000002847D08079042844D13C46B434A88C1C
:103D9000E18881423ED0E080002130462A463B4601
:103DA00005F046FE1C4800683D21415C890631D57E
:103DB0003D30407A40062DD52689A588E0880190BF
:103DC000208802907F8F1548006800698021262294
:103DD0000424234605F058FE00281BD00146067433
:103DE0008573019B0373029A827207720720C87160
:103DF0000B2088713E2048710C71300A4874280AE3
:103E0000C873180A4873100AC872380A48728020AA
:103E100005F09AFEFEBDC046341400208814002030
:103E2000F0B589B00024204605F0FAF80090012092
:103E30000890434800683421405C844200D37DE010
:103E40004D2080000594604300990C182C20205CC4
:103E5000FE21014002296ED10121009E30460791CA
:103E600005F07FFE054600213046019105F079FE00
:103E7000411E8841002D0899049100D104904320EF
:103E80008000201803908520400020180290872091
:103E900040002318089F06931C78F02626400F2523
:103EA0002540032D1FD0022D0BD0012D2BD10498BE
:103EB00000282CD01220012105F008F9069B0225CC
:103EC00025E00398008802990988081A0A234343C9
:103ED0001C4800680599C9B2B030012205F04CFEBB
:103EE000069B032513E0A00611D5049800280CD0EA
:103EF0000598C0B205F0A7FE002801D0D0262640C4
:103F00000898069B04E0019802E0D0262640089815
:103F1000EFF3108172B619788C4203D12E431E70D4
:103F2000002102E007990F4039464A1E914162B6CE
:103F300000270842B0D1059C641C7AE709B0F0BDA7
:103F40008414002034140020F8B5054605F068F804
:103F50000446284605F058FD9A21665A71B2002998
:103F60002ED527462C373978022906D1017A002927
:103F700000D181798171457A05E0417A002900D12B
:103F800081798171057A002D00D1C579C571042927
:103F900004D10088012803D0042102E0490800E090
:103FA00006219A34787D06F067F9042D00D06D085B
:103FB000787D294606F02BF92088802188432080CF
:103FC000F0B2C009F8BDFEE780B506F09BF90249E2
:103FD0000162002080BDC04602000707F8B5054613
:103FE00005F012FD002827D0044606F08BF906469E
:103FF000284605F015F8054600210E22204605F05A
:104000002FFB708C6080308C208041270095E85D0C
:1040100006F041F80125042801D1064601E02E46AC
:1040200086400098C05D06F02FF8A671042801D1E3
:10403000054600E08540E5710020F8BDF0B587B089
:10404000054604F0EDFF0446284605F0DDFC054674
:104050009A20265AB00527469A37002845D52E487B
:1040600000683D21415C89063BD53D30407A4006E1
:1040700037D5788C0290F88B0390388C0490788B2D
:104080000590608F069025480068006980212622EF
:104090000423019305F0F8FC002822D00146029A7F
:1040A0000274039B837304980873059888720698BA
:1040B00008720720C8710B2088713E204871019852
:1040C0000871100A4874180AC8730498000A4873E3
:1040D0000598000AC8720698000A4872802005F008
:1040E00033FD38880E4901403980F00512D5E97951
:1040F00003204A0700D50146628FAB79009159072A
:1041000000D503468020002106F006F938880549CD
:104110000140398007B0F0BD34140020881400201D
:10412000FFFD0000FFFE0000F0B585B016460D460D
:10413000044605F09EFE05F0F6FA0320C043C11CBC
:1041400068460181012101824173BE21615A817259
:104150002746BE37BA7EC272BA7C82730E4A891A6B
:104160004A1E9141C17301730196009506F00AF948
:104170002046283006F0F4FB3C34204606F0F0FBE5
:1041800000203874B87C06F0FDFB387E800701D52E
:1041900006F0BEFD05B0F0BDFCFF0000F0B587B035
:1041A000044605F0C0FA02A81949018100260682DA
:1041B0000121C173FF21019104318181BE21615C24
:1041C00081722746BE37B97EC172D125615D817388
:1041D0002146DC310291216D2831039106F0D2F89D
:1041E0002046283006F0BCFB20463C3006F0B8FBE9
:1041F000B87C06F08FFD3E74605D06F0C3FB01984D
:104200006055387E800701D506F082FD07B0F0BD0D
:10421000FFFF000070B5044600250D70006D05F02D
:1042200028FE05F0BAFDDB2007212154606F856070
:10423000606FC560DC20205C4006C00F616F0A7AA9
:1042400002430A72606F2146DE310930062205F012
:1042500003FA254698352646C73606F06DFD012837
:1042600008D1206D3021405C636F083300210122AA
:1042700006F064FD307800210A4606F099FD7B3097
:104280002860204606F0A2FD0148A88370BDC04604
:10429000F9FF0000F8B50446D820FF212154B820CA
:1042A000255A01272F402646D836002F04D006F085
:1042B000C3FD3070FF2822D0B83406F0D9FD207637
:1042C000FF2813D00021E8061AD40D4606F0D0FDD1
:1042D00029466076FF2813D1002F02D0307806F0EF
:1042E000E9FD207E06F0EEFD072109E00721002F01
:1042F00006D030780C4606F0DDFD214600E00C21AA
:104300000846F8BD70B50C460546084606F0E6FDC1
:1043100006462046294606F0FCFD8019E16F8842DA
:1043200001D8002070BD452070BDFEE7F0B595B006
:1043300007460446C43406F0D1FD0F90A0780E90D5
:10434000F86F0C9000263846314606F0E2FD0B90DF
:1043500006F0ECFD05460D9006F0F0FD1190217B76
:1043600081201290009038462A46334606F0EEFD32
:10437000384605F0CDFD9C2010903958207BFA6F0F
:10438000414B0793414B0693414B0593414B04939B
:10439000142303931F230A930293019100920E9A10
:1043A0000C9951430B9B5918521C0F9B5A438B1865
:1043B0003946129D2A4606F005FE3846314606F07B
:1043C000A8FD0F9005F09EF90E90C420395C607B2B
:1043D0003A6D00951346143306F030FE13A90A987F
:1043E0000871F0431390607B05F080FE607BFF2135
:1043F00005F0B4FE607B0C9009943D6D9420089606
:104400003146324605F09BFC0346129E0096284634
:104410000C990D9A06F09AFD607B0D903D6D9620EB
:104420000121089C224605F08AFC0346009401966F
:10443000143528460D99119A06F02EFE386D05F0B8
:1044400067FD05F05FF9C83010997850384606F0DE
:104450006FFE0998407B1049079110490691104959
:10446000059110490491062103910A2102910E49F8
:104470000E9A5218019200910F9B803339463246B2
:1044800006F0A0FD15B0F0BDC7F2051071B1051022
:1044900031B2051089B20510CFF20510BDB5051077
:1044A000CDAD04104DB90510FFFFFF0F012070477F
:1044B000B0B588B0129C0694119C0594109D04958B
:1044C0000F9D03950E9D02950D9D01950C9D0095E8
:1044D00006F0B4FE012C12D107F030F807F030F8E6
:1044E000FDF748FC0748C17A07480068B030074A22
:1044F000052305F049F907F0ABF807F0B5F808B067
:10450000B0BDC0465C1300203414002071E60510D5
:1045100080B50146C07C401E032812D8784400793B
:104520004000874401050B01002007F09EF880BD84
:10453000B5208872C87E401CC87680BD084607F04A
:10454000D3F880BD1CB502684068D17C02290BD12C
:10455000D17E4B1E0A4909688C6BDC400123234045
:104560007F24E4431B1902E00549096800230090F9
:1045700008466430E4314832DBB207F001F91CBD73
:104580009C140020FEB5B0C80668BA203070002028
:104590003860E07C02281AD0042837D11C48016812
:1045A00002AD009522463832234648330846E430AF
:1045B000643107F015F9C1203070284607F046F93C
:1045C000144902F0FEFC208907F04CF9FEBD1048AA
:1045D0000168886BE27E01920095521ED0408022D5
:1045E000024381231340224638320846E4306431C6
:1045F00007F0C6F8283410222846214605F037F87F
:1046000038600198132801D8B4203070FEBDC04630
:104610009C14002040420F00B0B5002814D00B4D70
:1046200028684221425C08231343435464300849FC
:104630002024224605F010F82868843005492246D7
:1046400005F00AF807F040F9B0BDC0469C14002000
:1046500075F8051095F8051070B50546C67D00245F
:10466000300710D5288907F03DF9002801D008242B
:1046700009E0064800684221425C04231343435486
:1046800001200643EE75204670BDC0469C140020F4
:10469000B0B504461448026864320025402128461B
:1046A00007F040F9002803D004F0A8FF122519E014
:1046B000E07D602102460A40602A13D02022024099
:1046C000635C012119408A1807D19B210840E075DD
:1046D000204607F039F9054604E08425002901D079
:1046E0004006F5D42846B0BD9C140020F8B50468F7
:1046F000E57D290730D50779FE200540208907F0A0
:10470000F1F8E575002806D11449096842228B5C4E
:10471000FB241C408C54114C216843254E5D4231D2
:10472000002F08D010364E70002806D10878CF220E
:1047300002400A7001E0761C4E700F2030400321C9
:1047400002F03FFCF1B209094018032804D304F039
:1047500055FF206800214155F8BDC0469C1400203B
:10476000F8B500276B4B6C4A3D4618683421405C15
:10477000854200D3CDE01068A4214058002800D124
:10478000B2E0C4192089002800D1ADE0A07A01462A
:10479000D13905295DD3002800D1A5E0FE2800D13C
:1047A0008AE0A22859D0AA2800D181E0B22854D0AA
:1047B000B42800D18AE0BA287AD0BF2800D189E095
:1047C000F02800D18BE0102800D090E00121204695
:1047D00007F0ECF8002800D196E00026A67207F05A
:1047E000FBF800284B4B4C4A7ED06020205CC00771
:1047F0007AD007F0FDF8484A464B002874D0E0799B
:10480000C021014040296FD1444800684F21405CDD
:10481000000769D52489424800688069482202213E
:104820000B4605F031F93C4A3A4B00285CD0014672
:104830000420487208220A72CE7188718C72FF209F
:10484000487182200871200AC872022005F07CF9A4
:1048500048E0204607F0D0F844E0E07D012600075C
:10486000304613D52046FDF7F0FA002806D012286E
:1048700004D00E2003F074F803F0F6F9E07D602117
:104880000140603948424841224B234AE17C0229D9
:1048900004D1E17B10220A4016091F4A002823D0C8
:1048A000002E21D06020205CC00724D04B2023E0C4
:1048B0002046FDF7D6FA15E060202056002813D5D3
:1048C00000217022204604F0CBFE0BE0204607F0CA
:1048D00037F907E00021204607F043F902E02046BF
:1048E00007F074F90C4A0B4B70376D1C3DE72046FE
:1048F00007F0A4F90AE05B20C043A0720E2003F089
:104900002FF803F0B1F901E0F120A072014B024A47
:10491000EAE7F8BD841400209C1400203414002021
:104920008814002010B50446C07D000711D520462C
:1049300007F086F9002807D0882805D00B2100222F
:104940000123204604F0FCFE0E2003F009F803F0DA
:104950008BF910BD80B504F051FE80BDFEB5604FEF
:10496000604C38680168002900D1B8E007F0C6F94A
:104970000546008807F0CCF90028F2D006463868D2
:10498000B021405C00280ED00821002201233046CF
:1049900004F0D6FE00280ED0FD2800D096E0284670
:1049A00007F0D8F9DDE76868007A05280CD12846B9
:1049B000314607F0D8F9284607F0CCF90E2002F06E
:1049C000CFFF03F051F9CCE7B17AF12901D00029EA
:1049D0000AD16021725C0121114001D10B28DED186
:1049E000002901D00128DAD1F07D000706D5029612
:1049F000019501A8FDF745FAFC28CBD16020305C79
:104A0000C00707D10296019501A807F0D8F9FC2844
:104A1000C0D122E06868007A042831D0032837D05A
:104A200001281AD1B07A002803D0FB2847D0F128FA
:104A3000B5D1308907F0C6F9024600200146234669
:104A400007F0E0F9307E810702D503210843307674
:104A50002846314607F0FCF9D9E72846314607F0E9
:104A60002DFAFC2803D0862899D0842892D1F07D95
:104A7000000794D50296019501A8FDF7FEF989E794
:104A8000B07AB6288BD12846314607F0B7FABEE790
:104A9000B07AB22809D0B42807D0B52800D07EE774
:104AA0002846314606F0E1FDB1E7F07C022800D04F
:104AB00075E738684021415C032908D16FE7092177
:104AC00000220123304604F03BFEA0E73868294667
:104AD00007F026FB0F2002F043FF03F0C5F8FEBDF0
:104AE0009C1400203075000070B505686968097A6B
:104AF000FD240E2946D14668F07DC00642D5F07CE3
:104B000002283FD1307B02283CD16020305CC007B6
:104B1000B07A01D1A23800E0B238032832D8012897
:104B200030D0308907F04EF902460024164B20465B
:104B3000214607F067F9154800684F21405C4006A0
:104B400020D536896868457A114800688069022155
:104B50004A22032304F098FF002813D001468672EE
:104B6000042048720A2008720024CC710520887144
:104B70000D73FF20487182200871300AC87202202C
:104B800004F0E2FF204670BD3075000034140020B0
:104B90008814002080B50146006849684268127A8E
:104BA0000D2A0FD00C2A15D18A7A10231343FF2225
:104BB000B22B18D16023CB5CDB07CB7D0CD19B06DD
:104BC0000CD410E08A7A10231343BB2B0AD107F0D0
:104BD000B0FA05E0FC2206E05B0604D407F0E6FA32
:104BE000024600E0FF22104680BDFEE7F8B529200E
:104BF000C1000124204D2046A847204E3060204FA0
:104C0000F87A7021A8473168A422885007F034FB55
:104C100028212046A8473168AC228850F87AC01C69
:104C2000C0B2411C174D2846224604F065FA31688F
:104C30008862F87AC01CC1B20222284604F05CFAED
:104C40003168C862084604F09BFD07F021FB30681C
:104C50004221002545524021032242540A4904635F
:104C600041638563443010212A4607F025FB28461E
:104C7000FDF7E3F8F8BDC0466D9704109C140020C2
:104C80005C1300205813002007100707F8B5012017
:104C9000982104F06BFD2B4E30602B4FF87A397B56
:104CA00008181424214604F061FD3268002555637C
:104CB000D562F97A03462F46B9420AD01D615F706A
:104CC0001F703268D36225467D43451914337F1C1B
:104CD000F2E7002313631C4A127B5218CDB2AA429A
:104CE0000AD96543FF27475545192B616970336819
:104CF0001D63491C2B46F1E79006000E411C134C26
:104D00000122204604F0F8F9316808620E4DE87A75
:104D1000297B08188006010E0222204604F0ECF9D7
:104D200034686062E87A297B08188006010E084A18
:104D30000723204604F028FD07F0D6FA07F0ECFA26
:104D4000F8BDC046901400205C13002058130020CA
:104D5000C5950510E0B500200090064B01460246BF
:104D600007F0DEFA002804D0072002F0F9FD02F077
:104D70007BFF8CBDB194051080B5002007F0FEFAD2
:104D80000D49098A2531490988420FD9491C02F089
:104D900018F902464220002107F0F6FA002804D054
:104DA000082002F0DDFD02F05FFF80BD0820002139
:104DB00004F08CF980BDC0465C130020F0B585B0CE
:104DC0000F4F3868403007F011FB0446200414D020
:104DD0006D46002028703868403006F08FFF019043
:104DE000068807F00CFB0146304607F00DFB0290E9
:104DF000284607F01BFB641EE8E705B0F0BDC0467F
:104E000090140020F0B5D3B000250C950B950A95B1
:104E10000995412082000DAC2046294604F020FC73
:104E2000257110204490169009A80F90204604F098
:104E30003DFCDC340194012007F0C8FB06464EA877
:104E40000C300290484D002E41D03078032839D0E4
:104E50004EAF3046394607F0CBFB387C102831D1B5
:104E6000708804A908804EA880893D494118052909
:104E70001CD33C494118042903D329210902884243
:104E800020D10DAF022404AA38462146A84738464F
:104E90002146029AA847002005AA314607F0D0FB18
:104EA0000598426801883846A8470BE00DAC0227F8
:104EB00004AA2046394607F0C3FC20463946029A28
:104EC00007F0BEFC304607F0EFFC0646BBE7019852
:104ED000828C002A06D00DA8202101710146E03104
:104EE00004F0E8FB0DA84EAC04AA214604F0E6FB52
:104EF00005AD1026012328462146324607F0E8FC7E
:104F00001A4F396883312846324604F0B0FB002836
:104F100019D03868833005A9102204F09DFB03AD39
:104F20008220288000950024114B204621462246ED
:104F300007F0F6F94020288000950E4B20462146C8
:104F4000224607F0EDF938685C21425CFD231340EE
:104F500043540B2002F004FD02F086FE53B0F0BD76
:104F6000FFD6FFFF00D8FFFF41C8041090140020B7
:104F70001DE8051029E80510E0B500210091022088
:104F80000422074B07F0CCF9002801D0812800D17A
:104F90008CBD0B2002F0E4FC02F066FE8CBDC04626
:104FA00051A7051080B507F0A3FC80BD80B504288B
:104FB00001D9122080BD07F09FFC80BDF0B589B0FB
:104FC0000546084628431224012836D80E9F072F8D
:104FD00033D3102F31D80F9810282ED8B8422CD3A5
:104FE0000E461099022928D8019102900393049249
:104FF000FCF7A0FE012806D1049902291DD8039AC6
:10500000012A07D919E0039A10460499084301D0F0
:10501000112412E005AC019820730948E080029841
:1050200060712771E270A1706670257007F074FCE2
:105030006073204607F07AFC0446204609B0F0BDB4
:105040000707000080B5044A914201D9122080BDB3
:1050500007F096FC80BDC0463F420F0080B5012995
:1050600002D807F0ABFC80BD122080BD80B507F0F0
:10507000C3FC002080BD80B507F0C2FC80BD80B5B8
:1050800007F05EFD80BD80B507F064FD80BD80B592
:1050900007F0F0FD80BDBFB51C4602AB089D5D80EA
:1050A0001A80099A039200930123224607F0ECFD2F
:1050B00004B0B0BD1CB5059C0194049C009407F09D
:1050C00026FE00201CBD80B507F029FE80BDBFB5BF
:1050D00001AC089D2581E380A2806180208020466C
:1050E00007F028FE04B0B0BDB0B50446012002218F
:1050F00007F09AFE0546002802D107F0A3FE2070B3
:105100002846B0BD10B50024032007F0A1FE0028FA
:1051100001D0012401E007F0CCFE200010BD0148C1
:105120008068704714050020704770477047FEE79D
:10513000FEB5C64C2169C64A914214D12168226845
:10514000256823682468640D382727405B025C0FBC
:105150000F232D0C1D40160AF02232400192090A3D
:105160000B40009305E00825009570210191032470
:105170001827B84E00213171002801D007F0C9FE70
:105180000320C043B44989680140B34A9160114685
:105190008968084011468860B0480068B0490140FD
:1051A000AE480160AF490F20C0430A6B024015436F
:1051B0000D63CA6AF0239A43019B1343CB62CA6A08
:1051C0001040009A0243CA620868072290430443D1
:1051D0000C6008683822904307430F605523FF2076
:1051E000C043A14A146804401C431460D4680440BE
:1051F00066252543D560146A044023431362136C6B
:1052000003401D241C431464D36B034059241C43E6
:10521000D463536C034032241C4354640123546A06
:105220001C435462914C25687F27BD431F272F43A1
:10523000276065683F27BD4309272F43676077686C
:105240008B4D3D409F032F4377607768894D3D40EC
:10525000FC27BF032F43776075682D022D0A902726
:105260003F052F437760B768824D3D40B427FF0369
:105270002F43B760B5682D022D0AC827BF052F43FD
:10528000B760B56805405A272F43B760B768784DB7
:105290003D40C827BF012F43B760F768754D3D40BB
:1052A0001F052F43F760F768734D3D401F072F43DD
:1052B000F7600425376907402F433761F7683840A6
:1052C00014270743F760F76869483840A027FF00B4
:1052D0000743F7607069054375617069DD05054333
:1052E000756170695D0705437561B0697F25A843E5
:1052F000B061624803745E2545740D6B8574C37498
:105300005D250575CD6A457583755225C575096896
:1053100001764376122181761168C17603771521D3
:105320004177D1688177C3771A2120254155116AC9
:105330002125415501212225415522212325415571
:10534000116C242541550121252541552121262572
:105350004155D16B27254155012128254155232150
:1053600029254155516C2A25415501212B254155AF
:105370001B212C254155516A2D22815401212E22B9
:10538000815490212F22815421683022815401219F
:105390003122815491213222815461683322815417
:1053A00000220021342401550100103101604160C8
:1053B00001000C318160C2600068316830603048A3
:1053C00003607069990701437161234800682249AD
:1053D00008602248C06918432049C86108468069AE
:1053E0000343084683611C480068F7BD25490868E7
:1053F0004A681202FF231B021340C0B21843896897
:1054000001D00C2901D37F200EE0062251437739C9
:1054100001E0891D40081F28FBD2FF22A232504321
:10542000194A8018800A081840B2704770B50A4CB3
:10543000A5692668266000F032FB2E43300002F09A
:105440000BFC00F02BFB206870BD0000E81E001074
:10545000CCECBCFCC00000200400006028180060F8
:10546000FFFFFFBF4816006048150060401700604E
:10547000FF00FFFFFFFF00FFFFFFFFC02013002022
:1054800010140060A4160060A046000080B507F06C
:1054900052FE01BD010005D40121C006C00E8140AD
:1054A000684801607047C1680322914302220A43A1
:1054B000C260704709E0C0688007800F022801D1F0
:1054C000012070470020704700BFC168032291434C
:1054D000C16070470161704700697047816A5A4A2C
:1054E0000A4082627047816A4800C00F70470069B5
:1054F0007047816A802292050A4382627047806801
:105500007047C0687047F1B501275048C06B3843F9
:105510004E49C8630846806B384388631720FFF7FD
:10552000B9FF1420FFF7B6FF00984068002800D0AC
:105530000120474D28700026000603D1009880788E
:10554000002813D04348C168C907FBD51721016063
:10555000C1683943C1604660C1683940FCD0280049
:10556000103000F037FBE869286209E0C8204003EA
:105570002862E861BC48A861BC482861BC486861F1
:1055800000984068002802D1A020C0050DE000036B
:105590000A2101F016FD6860B64C200000F086FA82
:1055A00001006868884202D3200000F07FFA68603A
:1055B0006420A8602E730098008829005831086183
:1055C000A96900F08AFBAC4C0020207000212A0061
:1055D0005832183203C21D480068290058318862C9
:1055E000002000212A005832203203C22A0028322B
:1055F00003C234216854AD4AA969686807F0A4FD64
:10560000286328782074A66027736673E6812900D2
:1056100058314E72290058314E81AE65EE65A4486E
:10562000A8646E6500F049FA6A68002312184B41BD
:105630002800403000F07CFB0121280000F0F8FA3F
:10564000F1BD000000E100E0FFFFFFBF10180060A7
:105650000010002004100060F8B58CB000246946EA
:105660000C70EFF3108572B6924F38005830407AC4
:1056700000280BD000F021FABA6DFB6D8B4205D8E3
:1056800001D3824202D238005830447285F3108828
:1056900038009130019028E0401C1CE0046905733B
:1056A0008168002900D088472000F7D16946029818
:1056B000406B00F0BDFB0299486368460078012802
:1056C0000DD1EFF3108172B601980078421C019B56
:1056D0005B789A42E0D1019A107081F310880198AA
:1056E00040780599401801994870019840780199CF
:1056F00009780A1A02D28020400012180026002AD7
:105700002AD00592AA480290446B04940394002581
:1057100002E0260024696D1C002C0FD0207B00289D
:10572000F7D000F0CAF902000B0003CC083C801A45
:1057300099410029EDDB01DC0628EAD32800002589
:10574000002802D03561049400E003950498029982
:10575000486303980028A8E7387B002867D0AA4848
:105760000068012420407CD03E73A84DE8780028D2
:1057700004D1A878002801D0AE7044E03878002821
:1057800020D002A800F026FA0499380058300069A9
:1057900080B200F0A2FAEFF3108672B634203C54C7
:1057A000039878610498B861029838610598F861A7
:1057B000380000F0A7FB86F310880021380000F0C5
:1057C00037FA07E0EFF3108472B6380000F09AFB66
:1057D00084F31088694638005830406B00F028FB8D
:1057E0003900583148636846007801280BD1EFF33F
:1057F000108072B629784A1C6B789A4200D0491CF6
:10580000297080F3108869463800583000F0C2FBD8
:105810003800403000F081F900F04FF97A68002339
:1058200012184B413800403000F082FA19E0387805
:10583000002816D000F041F93A0028320CCAFA24A8
:1058400064030025A4185D418D420AD801D3844227
:1058500007D23800403000F060F93800403000F0E6
:105860004DFA0DB0F0BD0000C2F528008D5B0000C0
:10587000ECEB6501FFEFFFFF841000207CB5050015
:10588000894806680B4C6946200000F093FA03C56E
:10589000083D8E4AE1690098801B07F055FC020024
:1058A00003CD0023801A99417CBD0000260300002F
:1058B000FD5C041000100020F8B586B0534802903B
:1058C000007802994978884236D1814D287B00289A
:1058D00032D1032400F0F1F804AA03C203A800F0B7
:1058E00032FC0100280068302A0061326123EB5C41
:1058F000002B02D15378002B01D0012902D19278DC
:10590000002A1BD0AA6DEB6D0092019304A9C0C9B7
:10591000027F002392197B41AE6E0027B6185F41CB
:10592000002152364F41009A019BBB4224D301D83B
:10593000B24221D3022405E0002037E002291BD027
:10594000012919D0426A002A2FD0107B00282CD0C0
:1059500003CA083A0090019104A8C0C8A86E0021AB
:1059600080197941002352305941009E019F8F4296
:1059700004D801D3864201D2012017E0032C13D1B1
:105980001069002810D12800403082420CD101203B
:1059900002998870002000F099FA86480168864ACA
:1059A0000A400260032001E00224200007B0F0BD9D
:1059B00058100020F8B50300140000206A4610704B
:1059C0000D0000D00125424A110060310D71250003
:1059D00000D001250D7014002834C0CC9C1B00257C
:1059E000A4197D419465D5654870C8700120887000
:1059F00069461000583000F0CDFA012000F066FA38
:105A000068460078F2BD0000101000609110002080
:105A100070B50320C04385490A6802400A600A68DD
:105A20001040086028480168634A0A400260284C18
:105A300020005830002545724581EFF3108672B67C
:105A400000F03BF8A26DE36D121A8B418420205CBC
:105A50000021121A8B4186F31088002B04DC01DB35
:105A6000012A01D2012070BD002B04DC01DB0F2ACA
:105A700001D2022070BD002070BDEFF3108072B61D
:105A800053490968694A891C516011680323994385
:105A900002230B43136080F3108870477047002087
:105AA000A2490870704700001400006080B5074AE2
:105AB0000749C96907F048FB02BD80B5694604483B
:105AC00000F078F904BD00002818006035060000D9
:105AD00000100020F8B504000D00FFF7EEFF0600EF
