:020000041004E6
:100000000000012071840510998705109B87051059
:1000100000000000000000000000000000000000E0
:100020000000000000000000000000009D87051097
:1000300000000000000000009F870510A187051048
:10004000238304108F8904101F8C04109F900410C8
:100050000000000000000000000000009F9204105B
:10006000A98705105F930410939304109F940410C4
:10007000CB9E0410C587051000000000F78705100F
:1000800005880510ABAE0410DF87051000000000E6
:10009000D787051000000000EF870510CF870510F7
:1000A0005BAF0410E7870510B7B504100FB6041056
:1000B000AFBD0410000000000000000000000000C0
:1000C00080100020D22200000600020200001E0064
:1000D000F7000000FFFFFFFF6400011008000003AD
:1000E000F70001000001010202020200000100030A
:1000F000000400004572726F7220696E20424C4508
:100100005F535441434B5F496E697428292030780E
:10011000253032580D0A000020204661696C2020ED
:10012000203A206163695F68616C5F7365745F7416
:10013000785F706F7765725F6C6576656C20636F52
:100140006D6D616E642C20726573756C743A20302D
:1001500078253032580A0000202053756363657398
:10016000733A206163695F68616C5F7365745F7483
:10017000785F706F7765725F6C6576656C20636F12
:100180006D6D616E640A000020204661696C20205C
:10019000203A206163695F676174745F7372765F90
:1001A00070726F66696C655F696E697420636F6DEC
:1001B0006D616E642C20726573756C743A203078B2
:1001C000253032580A0000002020537563636573A0
:1001D000733A206163695F676174745F7372765FFD
:1001E00070726F66696C655F696E697420636F6DAC
:1001F0006D616E640A0000000A2A202A202A202A43
:10020000202A202A204170706C69636174696F6EC6
:10021000206E616D65203A20424C455F4D756C74CF
:1002200069706C65436F6E6E656374696F6E735F42
:100230005065726970686572616C202A202A202AD4
:10024000202A202A202A0A0020204661696C2020CA
:10025000203A206163695F6761705F696E6974202D
:10026000636F6D6D616E642C20726573756C743A8A
:10027000203078253032580A0000000020205375C5
:1002800063636573733A206163695F6761705F6977
:100290006E697420636F6D6D616E640A000000000A
:1002A00020205374617469632052616E646F6D2005
:1002B000426C7565746F6F74682041646472657315
:1002C000733A20253032583A253032583A253032A8
:1002D000583A253032583A253032583A253032587B
:1002E0000A00000020204661696C2020203A204747
:1002F00061705F70726F66696C655F7365745F646F
:1003000065765F6E616D65202D2044657669636555
:10031000204E616D652C20726573756C743A2030C7
:1003200078253032580A00002020537563636573C6
:10033000733A204761705F70726F66696C655F73B6
:1003400065745F6465765F6E616D65202D20446520
:1003500076696365204E616D650A00002020466164
:10036000696C2020203A204761705F70726F666967
:100370006C655F7365745F617070656172616E63F7
:1003800065202D20417070656172616E63652C205F
:10039000726573756C743A203078253032580A00D3
:1003A0002020537563636573733A204761705F70F3
:1003B000726F66696C655F7365745F6170706561AB
:1003C00072616E6365202D20417070656172616E8F
:1003D00063650A0020204661696C2020203A20686D
:1003E00063695F6C655F7365745F64656661756C96
:1003F000745F70687920636F6D6D616E642C20721C
:100400006573756C743A203078253032580A0000D4
:100410002020537563636573733A206863695F6C6A
:10042000655F7365745F64656661756C745F706841
:100430007920636F6D6D616E640A00002020466153
:10044000696C2020203A206163695F6761705F7387
:1004500065745F696F5F6361706162696C6974790B
:1004600020636F6D6D616E642C20726573756C74A2
:100470003A203078253032580A0000002020537589
:1004800063636573733A206163695F6761705F736B
:1004900065745F696F5F6361706162696C697479CB
:1004A00020636F6D6D616E640A000000202046615C
:1004B000696C2020203A206163695F6761705F7317
:1004C00065745F73656375726974795F7265717560
:1004D0006972656D656E747320636F6D6D616E64B6
:1004E0002C20726573756C743A2030782530325840
:1004F0000A0000002020537563636573733A20611E
:1005000063695F6761705F7365745F73656375725C
:100510006974795F726571756972656D656E747302
:1005200020636F6D6D616E640A00000020204661DB
:10053000696C2020203A206163695F6761705F63A6
:100540006F6E6669677572655F66696C7465725F08
:100550006163636570745F616E645F7265736F6C15
:1005600076696E675F6C69737420636F6D6D616E21
:10057000642C20726573756C743A203078253032A3
:10058000580A00002020537563636573733A206135
:1005900063695F6761705F636F6E666967757265D7
:1005A0005F66696C7465725F6163636570745F61D7
:1005B0006E645F7265736F6C76696E675F6C69738A
:1005C0007420636F6D6D616E640A0000536572760E
:1005D0006963657320616E6420436861726163744E
:1005E0006572697374696373206372656174696F9E
:1005F0006E0A0000456E64206F662053657276694E
:1006000063657320616E6420436861726163746521
:1006100072697374696373206372656174696F6E64
:100620000A00000020204661696C2020203A2061E9
:1006300063695F68616C5F7365745F726164696F41
:100640005F61637469766974795F6D61736B206350
:100650006F6D6D616E642C20726573756C743A20D9
:1006600030782532580A0000202053756363657383
:10067000733A206163695F68616C5F7365745F7270
:100680006164696F5F61637469766974795F6D61D4
:10069000736B20636F6D6D616E640A0D0000000066
:1006A0000A0A3E3E3D3D204843495F444953434F7B
:1006B0004E4E454354494F4E5F434F4D504C455469
:1006C000455F4556545F434F44450A002020202093
:1006D000202D20436F6E6E656374696F6E204861D4
:1006E0006E646C653A2020203078253032580A201C
:1006F000202020202D20526561736F6E3A2020202B
:10070000203078253032580A000000000A0A3E3EA8
:100710003D3D204843495F4C455F434F4E4E454366
:1007200054494F4E5F5550444154455F434F4D50DF
:100730004C4554455F5355424556545F434F4445DD
:100740000A00000020202020202D20436F6E6E65BF
:100750006374696F6E20496E74657276616C3A20BD
:10076000202025642E25303264206D730A2020203D
:1007700020202D20436F6E6E656374696F6E206C50
:100780006174656E63793A2020202025640A202058
:100790002020202D205375706572766973696F6E05
:1007A0002054696D656F75743A2020202564206D92
:1007B000730A00003E3E3D3D204143495F474150A2
:1007C0005F50524F435F434F4D504C4554455F5629
:1007D000534556545F434F44450A00003E3E3D3D5D
:1007E000204143495F4741505F4B45595052455363
:1007F000535F4E4F54494649434154494F4E5F560B
:10080000534556545F434F44450A00003E3E3D3D2C
:10081000204143495F4741505F504153534B455935
:100820005F5245515F56534556545F434F44450A06
:10083000000000003D3D3E3E206163695F676170DE
:100840005F706173736B65795F72657370203A20B6
:100850004661696C2C20726561736F6E3A20307846
:10086000253032580A0000003D3D3E3E206163695C
:100870005F6761705F706173736B65795F726573D9
:1008800070203A20537563636573730A000000009B
:100890003E3E3D3D206163695F6761705F706173DB
:1008A000736B65795F7265737020636F6E6E6563DD
:1008B00074696F6E48616E646C653D3078253034C4
:1008C000580A00003E3E3D3D204143495F474150AC
:1008D0005F4E554D455249435F434F4D504152493C
:1008E000534F4E5F56414C55455F56534556545FE6
:1008F000434F44450A0000003E3E3D3D2061636990
:100900005F6761705F6E756D657269635F636F6D60
:1009100070617269736F6E5F76616C75655F636F2E
:100920006E6669726D5F7965736E6F20636F6E6E50
:10093000656374696F6E48616E646C653D307825DF
:100940003034580A000000003D3D3E3E206163699E
:100950005F6761705F6E756D657269635F636F6D10
:1009600070617269736F6E5F76616C75655F636FDE
:100970006E6669726D5F7965736E6F203A204661AD
:10098000696C2C20726561736F6E3A203078253067
:1009900032580A003D3D3E3E206163695F676170E9
:1009A0005F6E756D657269635F636F6D70617269AB
:1009B000736F6E5F76616C75655F636F6E6669728B
:1009C0006D5F7965736E6F203A205375636365734D
:1009D000730A00003E3E3D3D204143495F47415080
:1009E0005F50414952494E475F434F4D504C45542B
:1009F000455F56534556545F434F44450A00000037
:100A000020202020202D2050616972696E67204BC4
:100A10004F0A20202020202D205374617475733AD2
:100A2000203078253032580A20202020202D2052D6
:100A30006561736F6E3A203078253032580A0000B5
:100A40003E3E3D3D204143495F4741505F50414953
:100A500052494E475F434F4D504C4554455F5653A6
:100A60004556545F434F444520636F6E6E65637413
:100A7000696F6E48616E646C653D3078253034581E
:100A80000A0000003D3D3E3E206163695F67617082
:100A90005F636C6561725F73656375726974795FBA
:100AA0006462202D204661696C2C20726573756C20
:100AB000743A203078253032580A00003D3D3E3EE1
:100AC000206163695F6761705F636C6561725F730A
:100AD000656375726974795F6462202D2053756354
:100AE000636573730A00000020204661696C202052
:100AF000203A205B3078253034585D20506169728F
:100B0000696E672072657175657374203078253061
:100B10003258206166746572203078303320284561
:100B20006E6372797074696F6E206661696C65645A
:100B30002C204C544B206D697373696E67206F6E67
:100B4000206C6F63616C20646576696365290A00B7
:100B50002020537563636573733A205B30782530CA
:100B600034585D2050616972696E672072657175D5
:100B70006573742061667465722030783033202884
:100B8000456E6372797074696F6E206661696C6519
:100B9000642C204C544B206D697373696E67206F11
:100BA0006E206C6F63616C20646576696365290AE9
:100BB000000000003E3E3D3D204143495F47415417
:100BC000545F5352565F524541445F565345565405
:100BD0005F434F44450A00003D3D3E3E20636F6E3B
:100BE0006E656374696F6E5F636F6D706C6574655D
:100BF0005F6576656E74204661696C2C2053746164
:100C00007475733A203078253032580A000000009D
:100C10003E3E3D3D206863695F6C655F636F6E6E4D
:100C2000656374696F6E5F636F6D706C6574655F2B
:100C30006576656E74202D20526F6C653A204843AE
:100C4000495F524F4C455F504552495048455241CB
:100C50004C0A00003E3E3D3D206863695F6C655F65
:100C6000636F6E6E656374696F6E5F636F6D706CDA
:100C70006574655F6576656E74202D20436F6E6EBA
:100C8000656374696F6E2068616E646C653A2030CC
:100C900078253034580A000020202020202D2043C1
:100CA0006F6E6E656374696F6E2065737461626CDC
:100CB0006973686564207769746820403A2530322A
:100CC000583A253032583A253032583A2530325881
:100CD0003A253032583A253032580A002020202058
:100CE000202D20436F6E6E656374696F6E20496EB0
:100CF00074657276616C3A20202025642E2530328E
:100D000064206D730A20202020202D20436F6E6EFA
:100D1000656374696F6E206C6174656E63793A20E7
:100D200020202025640A20202020202D20537570AB
:100D30006572766973696F6E2054696D656F75743D
:100D40003A202564206D730A000000006863695F23
:100D50006C655F726561645F706879206661696C5B
:100D60007572653A20726561736F6E3D307825301B
:100D700032580A003D3D3E3E206863695F6C655F06
:100D80007365745F706879205048592050617261B2
:100D90006D202054583D2025642C2052583D20259C
:100DA00064202D20000000006163695F6761705F4F
:100DB0007465726D696E617465206661696C7572C7
:100DC000653A20726561736F6E3D30782530325818
:100DD0000A0000003D3D3E3E206163695F6761702F
:100DE0005F7465726D696E617465203A2053756336
:100DF000636573730A0000006163695F67617474FF
:100E00005F636C745F65786368616E67655F636F6D
:100E10006E666967206661696C7572653A207265F5
:100E200061736F6E3D3078253032580A0000000043
:100E30003D3D3E3E206163695F676174745F636C32
:100E4000745F65786368616E67655F636F6E66691E
:100E500067203A20537563636573730A00000000CE
:100E60003D3D3E3E206163695F6761705F736574FD
:100E70005F6164766572746973696E675F636F6ED4
:100E800066696775726174696F6E202D206661698D
:100E90006C2C20726573756C743A20307825303272
:100EA000580A00003D3D3E3E2053756363657373F1
:100EB0003A206163695F6761705F7365745F616445
:100EC000766572746973696E675F636F6E66696772
:100ED00075726174696F6E0A000000003D3D3E3E10
:100EE000206163695F6761705F7365745F616476D9
:100EF0006572746973696E675F64617461204661CD
:100F0000696C65642C20726573756C743A20307856
:100F1000253032580A0000003D3D3E3E20537563A7
:100F2000636573733A206163695F6761705F7365BE
:100F3000745F6164766572746973696E675F64611A
:100F400074610A003D3D3E3E206163695F676170E8
:100F50005F7365745F6164766572746973696E67E7
:100F60005F656E61626C65204661696C65642C200A
:100F7000726573756C743A203078253032580A00E7
:100F80003D3D3E3E20537563636573733A20616354
:100F9000695F6761705F7365745F616476657274C1
:100FA0006973696E675F656E61626C650A00000057
:100FB00044697361626C65206164766572746973FB
:100FC000696E67202D206661696C2C2072657375CF
:100FD0006C743A203078253032580A003D3D3E3E50
:100FE0002044697361626C6520616476657274691E
:100FF00073696E67202D20537563636573730A00F0
:101000006163695F6C326361705F636F6E6E6563AD
:1010100074696F6E5F706172616D657465725F7522
:1010200070646174655F726571202D206661696C02
:101030002C20726573756C743A20307825303258E4
:101040000A0000003D3D3E3E206163695F6C3263F3
:1010500061705F636F6E6E656374696F6E5F706100
:1010600072616D657465725F7570646174655F72DD
:101070006571202D20537563636573730A0000004A
:101080003D3D3E3E206163695F6761705F736574DB
:101090005F6164766572746973696E675F636F6EB2
:1010A00066696775726174696F6E20284741505F89
:1010B0004D4F44455F4E4F4E5F444953434F564555
:1010C0005241424C4529202D206661696C2C2072CA
:1010D0006573756C743A203078253032580A0000F8
:1010E0003D3D3E3E20537563636573733A206163F3
:1010F000695F6761705F7365745F61647665727460
:101100006973696E675F636F6E6669677572617434
:10111000696F6E20284741505F4D4F44455F4E4FE9
:101120004E5F444953434F56455241424C45290A6C
:10113000000000003D3D3E3E206163695F676170D5
:101140005F7365745F6164766572746973696E67F5
:101150005F64617461204661696C6564202846495A
:101160004C544552292C20726573756C743A2030AA
:1011700078253032580A00003D3D3E3E20537563CD
:10118000636573733A206163695F6761705F73655C
:10119000745F6164766572746973696E675F6461B8
:1011A0007461202846494C544552290A0000000029
:1011B0003D3D3E3E206163695F6761705F736574AA
:1011C0005F6164766572746973696E675F656E618D
:1011D000626C65204661696C6564202846494C5400
:1011E0004552292C20726573756C743A203078252D
:1011F0003032580A000000003D3D3E3E20537563EA
:10120000636573733A206163695F6761705F7365DB
:10121000745F6164766572746973696E675F656E29
:1012200061626C65202846494C544552290A0000E9
:101230002044657669636520436F6E6E65637469EB
:101240006F6E20537461747573203A20436F6E6E15
:101250006563746564206173205365727665720AF4
:101260000000000020204164766572746973696E25
:101270006720697320616C72656164792072756E94
:101280006E696E670A0000002020496E205065726A
:101290006970686572616C20526F6C652C2074688F
:1012A00065206C6F6E67207075736820627574744A
:1012B0006F6E206973206E6F742061737369676E3F
:1012C000656420746F20616E7920616374696F6E4C
:1012D0002E20506C65617365207573652074686598
:1012E000206E6F726D616C2070757368206275740A
:1012F000746F6E2E200A0000427574746F6E202584
:10130000642070726573736564205B6C6F6E6750E8
:101310007265737365733D25645D0A00000000000B
:101320000200000030000020000000000800000063
:10133000BC0100200000000001000000BA040020F1
:1013400001000000010000007410002000000000F7
:1013500001000000751000200000000002000000E5
:10136000B80400200000FFFF00000000040000009F
:10137000641304100000000002000000320000208E
:101380000000000001000000B6D2041001000000BF
:10139000010000007610002020000000FB349B5F5D
:1013A0008000008000100000052A000010000000EE
:1013B0000100000004030020681304100A0000006C
:1013C000FB349B5F8000008000100000292B000090
:1013D0001000000000000000000000007413041062
:1013E00002000000FB349B5F8000008000100000C2
:1013F0002A2B000010000000000000000000000088
:101400000000000002000000FB349B5F80000080B1
:10141000001000003A2B0000100000000000000047
:10142000000000008013041096C298D84539A1F43A
:10143000A033EB2D817D0377F240A463E5E6BCF891
:1014400047422CE1F2D1176BF551BF376840B6CB5C
:10145000CE5E316B5733CE2B169E0F7C4AEBE78E58
:101460009B7F1AFEE242E34F2D2D2047415454202A
:101470003A204C454420434F4E464947555241542B
:10148000494F4E205245434549564544205B3078EC
:10149000253034585D0A000020204661696C202008
:1014A000203A206163695F676174745F636F6E6681
:1014B00069726D5F696E6469636174696F6E2063E0
:1014C0006F6D6D616E642C20726573756C743A205B
:1014D00030782558200A0000202053756363657317
:1014E000733A206163695F676174745F636F6E66EE
:1014F00069726D5F696E6469636174696F6E2063A0
:101500006F6D6D616E640A0020204661696C202059
:10151000203A206163695F676174745F7372765FFC
:101520006164645F7365727669636520636F6D6D76
:10153000616E643A204D435F5065726970686572F0
:10154000616C2C206572726F7220636F64653A2043
:1015500030782558200A0000202053756363657396
:10156000733A206163695F676174745F7372765F59
:101570006164645F7365727669636520636F6D6D26
:10158000616E643A204D435F5065726970686572A0
:10159000616C200A0000000020204661696C207206
:1015A00065676973746572696E67204D435F506546
:1015B000726970686572616C2068616E646C6572D6
:1015C000730A00000610000019ED82AEED214C9D5B
:1015D0004145228E31F10000800000000000000033
:1015E00000000000640300201010000019ED82AE1E
:1015F000ED214C9D4145228E32F10000800000001B
:101600000100000048030020700300208FE5B3D5DF
:101610002E7F4A982A487ACC30F1000080000000E2
:1016200001000000000000000000000002000000B7
:10163000C415041020204661696C2020203A2061E6
:1016400063695F676174745F7372765F6E6F7469EC
:101650006679205357495443485F4320636F6D6D4B
:10166000616E642C206572726F7220636F64653ADC
:101670002030782532580A000100000001000000E7
:10168000781000202D2D204150504C4943415449A1
:101690004F4E20534552564552203A204C45443136
:1016A000204F4E0A000000002D2D204150504C4983
:1016B000434154494F4E20534552564552203A20FB
:1016C0004C454431204F46460A0000002D2D204154
:1016D00050504C49434154494F4E20534552564572
:1016E00052203A204E4F54494649434154494F4EA7
:1016F00020454E41424C45440A0000002D2D20411A
:1017000050504C49434154494F4E20534552564541
:1017100052203A204E4F54494649434154494F4E76
:101720002044495341424C45440A00002D2D20419C
:1017300050504C49434154494F4E20534552564511
:1017400052203A20494E464F524D20434C49454E77
:1017500054202D204E4F54494649434154494F4E41
:1017600020454E41424C45440A0000002D2D2041A9
:1017700050504C49434154494F4E205345525645D1
:1017800052203A2043414E275420494E464F524D55
:1017900020434C49454E54202D204E4F5449464934
:1017A000434154494F4E2044495341424C45440A19
:1017B0000000000020204661696C2020203A205B58
:1017C000436F6E6E656374696F6E48616E646C65BD
:1017D0003A203078253034585D2050616972696E46
:1017E00067207265717565737420307825580A001A
:1017F0002020537563636573733A205B436F6E6E8D
:10180000656374696F6E48616E646C653A20307808
:10181000253034585D2050616972696E67207265A9
:101820007175657374200A0000F00B100008000049
:10183000AA02000000F80B10F807010000000000E9
:1018400096C298D84539A1F4A033EB2D817D03775A
:10185000F240A463E5E6BCF847422CE1F2D1176BF5
:10186000F551BF376840B6CBCE5E316B5733CE2BC8
:10187000169E0F7C4AEBE78E9B7F1AFEE242E34FF7
:10188000518705105D87051021860510A986051072
:10189000B184051057850510686A6C747A4C000095
:1018A0007072696E74665F733A20256E2064697386
:1018B000616C6C6F776564007072696E74663A2053
:1018C00062616420256E20617267756D656E7400BB
:1018D0007072696E74665F733A206261642025736A
:1018E00020617267756D656E740000000000000075
:1018F0006E616E004E414E00696E6600494E4600B4
:1019000030002E00FB349B5F800000800010000040
:10191000292B000010000000FB349B5F800000803A
:1019200000100000052A0000100000000200000066
:101930000300000003000000060000000300000098
:10194000030000003C000000700000007000000078
:10195000D003000070000000C301000021890510C1
:1019600017C404103FC604101BC9041037C8041064
:10197000B92B0410A9E00510832D04108B2D041041
:10198000932D04109B2D0410A32D0410B58E05106B
:10199000532D0410432D04105B2D041017D0041098
:1019A00057C204107D2C0410952C04106D2C0410CB
:1019B000C9DD0510752C04100300000073ED05103F
:1019C00029000000B3ED05103F00000099ED05105F
:1019D000A18D0510FDE2051059E10510FDE405108B
:1019E0000FE705100FE7051025E80510FDE40510C9
:1019F000FFE90510FFE90510FFE9051001E40510F6
:101A000013E10510D7E0051025E80510C92B0410D7
:101A1000D12B0410FFED051007EE051003EE0510A5
:101A2000F12B0410F92B0410012C0410092C0410C4
:101A30006BED0510192C0410212C0410292C041016
:101A4000112C04108DED051095ED0510C7ED051056
:101A50006FED051091ED05100BEE05104DEE051024
:101A6000E5CB0510000000005BEE0510B9CA0510BB
:101A7000EDDC05103FF30510B5D10510E3F20510BC
:101A8000B7F3051085EE0510F0B595B0062104A852
:101A900000F09EFE0620694608730020C8819D4C18
:101AA00008A82100342200F09BFE08A800F0C0FE28
:101AB000010005D02000343000F0F0FE00F0ABFF54
:101AC0001821002000F0ACFF002805D00100200004
:101AD000583000F0E3FE03E02000983000F0DEFE16
:101AE00007A9891C012000F09FFF002805D00100F4
:101AF0002000C83000F0D2FE04E08420400020180E
:101B000000F0CCFE9C204000201800F0C7FE012110
:101B1000002000F0BDFF002806D00100C4204000D6
:101B2000201800F0BBFE04E0DE204000201800F08A
:101B3000B5FE06A8009006AB9B1C07AA0021012059
:101B400000F0AEFF04AA03A9802001F031F804A838
:101B5000017802914178019181780091C3780279EE
:101B60004179F0204000201800F098FE6AA2082178
:101B7000002000F0CAFF002806D001008920800064
:101B8000201800F08BFE04E09A208000201800F05E
:101B900085FE03AA921C0221002000F0BCFF002851
:101BA00006D00100A7208000201800F077FE04E096
:101BB000B8208000201800F071FE022202210020CF
:101BC00001F046F9002806D00100C5208000201849
:101BD00000F064FE04E0D4208000201800F05EFED7
:101BE00000209A49087001F0E4F8002806D00100AE
:101BF000DF208000201800F051FE04E0EF2080007C
:101C0000201800F04BFE0120904A50700821D1703E
:101C10001021117190700020009000268C4DA85D5D
:101C2000A9194978092922D0FF293CD13021AA19C4
:101C300091700099D170022111718D215171132180
:101C400091710099D171009911720099517204A992
:101C50004A79AB199A720A79DA72CA781A738A7851
:101C60005A734A789A730978AA19D1731BE031180C
:101C700069180A78582A16D14A1E1378582B12D19F
:101C80006B461B7C1B096F463F7C3F073F0F092BB0
:101C900001DD373300E030331370092F01DD3737B2
:101CA00000E030370F703618761CB6B21C2EB6DB4B
:101CB00000200290102001900820009000230122B3
:101CC0000121012001F079F8002806D00100FB2055
:101CD0008000201800F0E2FD03E05E48201800F0CC
:101CE000DDFD5A48807800280ED0012001F0B4F8BC
:101CF000002805D001005848201800F0CFFD03E06F
:101D00005648201800F0CAFD05A000F0C7FD15B028
:101D1000F0BD0000C00004104D756C7469435F5045
:101D20003D3D3E3E20456E6420424C455F496E6914
:101D3000742066756E6374696F6E0A0080B526E064
:101D400080B5012001F098F801F099F8012001F028
:101D500094F801BD80B501F06DF901BD80B5002199
:101D6000022016E080B502F02CFB01BD80B5FFF724
:101D7000F5FF01BD80B502F057FBFFF7EFFF012132
:101D8000042006E080B502F0A3FB01BD80B501216F
:101D9000012002F015FC01BD38B5314A00210120B7
:101DA00002F001FC2F4A0021022002F0FCFB2E4A27
:101DB0000021042002F0F7FB02F064FC02F0ECFCCE
:101DC0000021C943884201D100F025FEFFF75CFEE7
:101DD00000201E4CA0732549A18140216054244A53
:101DE00000218020800002F0DEFB224A00218020BA
:101DF000400102F0D8FB2048A06120482063204920
:101E00002000283001F038FB1EA5280000F046FD18
:101E10001D4C200000F042FD02F03BFD2000283068
:101E200000F03CFD280000F039FD062002F0A0FD86
:101E3000010004D02000583000F030FD03E0200005
:101E40009C3000F02BFD00F0F3FB31BD800E002034
:101E500094010020340400006C040000C40400005D
:101E6000411D0410551D0410651D0410FFFF0000E6
:101E700017260410312604100D260410E526041040
:101E8000102700000A000000CC050410FEB5050074
:101E90002878042802D0822802D0F7BDEE1C00E08A
:101EA0002E1D6978CB4FCC4C052908D0102900D1C4
:101EB000E2E13E292CD0FF2900D1EDE0E8E12879CC
:101EC00069790906090C0843B989884210D1C348C9
:101ED000B8810020B873200000F0E0FC297968790F
:101EE0000006000C0143AA7920002C3000F0D6FC3B
:101EF00000F082FBBA480121017029796A79120643
:101F0000120C1143418002F0B4FC00F091FBF7BDCC
:101F1000E978012900D19EE0032906D00A2900D1E1
:101F20008AE00C2900D183E0B3E020006C3000F09F
:101F3000B5FCE879297A0906090C084302F020FD6E
:101F40000022D54B02F036FD002280235B0302F015
:101F5000F3FDE879297A21D80906090C0843EE79BE
:101F6000297A0906090C0E4302F00AFD0022CA4B29
:101F700002F020FD00900191300002F001FD0022EE
:101F8000C54B02F017FD02F0FFFD02F009FD020053
:101F90000B000098019902F083FE1EE00906090C6F
:101FA0000843EE79297A0906090C0E4302F0E8FC91
:101FB0000022B94B02F0FEFC02F0E6FD02F0F0FC5C
:101FC00000900191300002F0DBFC0022B34B02F0E4
:101FD000F1FC009A019B02F000FE0022B04B02F0DF
:101FE000E9FC02F0D1FDEA7A297B0906090C0A43D3
:101FF0006B7AA97A0906090C0B43E9792E7A360621
:10200000360C31430A255543009506001D00080093
:1020100002F0B6FC0022A04B02F0CCFC02F0B4FDB2
:1020200001002B0032002000A43000F037FCF7BD87
:10203000012002F0D5FAF7BDE87F6D1CE97F6D1E27
:102040000906090C08436A7FA97F0906090C0A439F
:10205000EB7E297F0BE0E87C297D0906090C08430B
:102060006A7CA97C0906090C0A43EB7B297C0906DA
:10207000090C0B436979AC792406240C21430290A6
:10208000019200932B0009332A7A287900F060F935
:10209000F7BD00BF85A0FCE0307871780906090C17
:1020A0000843001F14D07F49401A66D0401E1FD03D
:1020B000401F0BD0801E36D0401E16D0C91F401ABC
:1020C00012D02331401A00D1ADE0CEE08A200DE0DD
:1020D000012002F0B1FE3800103001F0F0F90521C6
:1020E0003800103001F0C8F9F7BD9E20400040E0F4
:1020F000B6204000201800F0D1FB6B49B88900F0F1
:102100006EFE002806D00100CA204000201800F012
:10211000C5FB04E0E4204000201800F0BFFBB989B3
:10212000F82040007DE089208000201800F0B6FBF8
:10213000301D02F089FF010063A000F0AFFB301DED
:1021400002F082FF010000BF66A000F0A7FBB98982
:1021500096208000201800F0A1FB0121B88900F032
:1021600042FE002803D00100AA20800059E0BD20D3
:102170008000201800F092FBF7BDCD2080002018D1
:1021800000F08CFB3179002906D07279D8208000CC
:10219000201800F083FB02E058A000F07FFBA7A00E
:1021A00000F07CFBB178F0780006000C0143E820D9
:1021B0008000201800F072FB307903286BD100F00A
:1021C00016FE00280ED00100F9208000201800F033
:1021D00065FB0BE0800E0020A0060410FFFF00004E
:1021E000401000209648201800F058FBB078F17895
:1021F0000906090C08430122022100F0ECFD02004F
:10220000B178F07808D00006000C01438920C000A6
:10221000201800F043FBF7BD0006000C0143962098
:10222000C000201835E08748201800F037FBB1794E
:10223000F0790006000C014336A000F02FFBB279C4
:10224000F0790006000C0243317970790006000C29
:102250000143B078F3781B061B0C1843002301934D
:102260000093082300F0E0FDF7BD31787078000698
:10227000000C01432BA00CE0E87804280BDABFF334
:102280004F8F714871490860BFF34F8F00BFFDE762
:102290002AA000F003FBF7BD0000F43F0000F4BFEC
:1022A00000005940FD03000040E201004843495F3F
:1022B0004C455F4D4554415F4556543A2030782592
:1022C0003032580A0000000020202020202D206EEF
:1022D000756D657269635F76616C7565203D20255B
:1022E000640A000020202020202D204865785F7699
:1022F000616C7565203D2025780A00002020202093
:10230000202D2050616972696E6720537563636583
:1023100073730A0048616E646C6520307825303430
:10232000580A00004843495F56454E444F525F45A6
:1023300056543A203078253034580A004843495FD3
:102340004556454E543A203078253032580A000020
:10235000F8B588B000253E4C020005D001003D488C
:1023600000F09CFAA57366E00E9F1E00684681810E
:10237000394800F093FA68468189384800F08EFAAF
:102380003078029070780190B0780090F3783279CC
:102390007179334800F082FA380002F0F1FA06AAA7
:1023A00003C206A80CC800202E4902F003FB060059
:1023B0000F0002F0E9FB019002F0F2FA04AA03C256
:1023C00030003900002280235B0302F0B5FB04D803
:1023D00004AA0CCA02F064FC09E006A80CC800209C
:1023E000214902F0E7FA04AA0CCA02F0F6FB002227
:1023F0001E4B02F0DFFA02F0C7FB020010980F9BA1
:102400000A21414300910199794800F047FA684652
:102410008089A081A07B012801D00220A07375488B
:10242000057069468989418002F023FA00218020E5
:10243000000102F0C5F809B0F0BD00000A0000007C
:102440001C040000140500000400FA050CED00E077
:10245000800E0020D80B0410100C0410540C041033
:10246000980C04100000F43F0000F4BF0000594035
:10247000F1B58EB080200B90A02701216B4C00207D
:10248000A14D0EAA1278052A4DD801A39B5C9F444A
:10249000080416942E7204264EE0C820C0000B904B
:1024A000FA273F01052647E00026002200210020F0
:1024B00002F0D5FD0100AE7300D190E099201CE040
:1024C000C827BF000B970026FA2252000192402233
:1024D000AA5C002A13D028270B9740216854019842
:1024E00080B20090B3B23A000B9989B2A88900F08B
:1024F000A8FC002875D00100AD20800069E04020D4
:102500002954ECE71321A88900F04FFC002803D0E0
:10251000010020005C305DE02000883000F0BEF952
:1025200000F06FF862E00EA80078012804D9801E40
:10253000BBD0801ED3D059E09B48417006209A49F9
:10254000887006210CA800F043F900200A90099039
:10255000012008900020079001200690002005909F
:102560000490039002900720019000970B9B132288
:102570000221002002F077FD002806D001008A2009
:102580004000201800F08AF905E0AE73AC2040004E
:10259000201800F083F9844B1C220321002002F054
:1025A00097FD002806D00100C8204000201800F048
:1025B00075F904E0E6204000201800F06FF90CAA3D
:1025C0000121012002F04BFD002806D00100FC2073
:1025D0004000201800F062F908E08D2002E0A420FD
:1025E00000E0BE208000201800F058F90FB0F0BDC8
:1025F000DC0C04104010002080B5012001F0F0FF39
:1026000001BD80B5012001F0F5FF01BD80B50120BD
:1026100002F016FC01BD80B5012002F011FC022081
:10262000FFF726FF00206149887301BD4C0D04109F
:1026300030B58DB006210BA800F0CAF8324DA87B4A
:1026400006284DD004284BD0052849D000200A90F8
:10265000099001200890002007900120069000209A
:102660000590032004900020039002900720019021
:10267000A0200090802313220021002002F0F3FC10
:1026800001004B4C01D0200022E00620A87320005E
:10269000603000F003F9444B0420987003220321BA
:1026A000002002F015FD002803D001002000B43006
:1026B0000EE02000F83000F0F1F80BAA0121012013
:1026C00002F0CDFC002806D0010098204000201820
:1026D00000F0E4F804E0BC204000201800F0DEF830
:1026E0000DB030BD10B5084CA07B022804D10021EC
:1026F0008020C00001F064FF2E492000283000F047
:10270000BBFE10BD00000000800E002010B5274C5D
:10271000A17B2948022915D0062908D1012002F001
:102720008FFB0220FFF7A4FE0020A07301E0002928
:1027300003D10120FFF79CFE10BD042901D005291B
:1027400002D1343000F0AAF810BD80B500F04FFB84
:102750001A4A002806D00100F9208000101800F065
:102760009DF801BD164810181AE01048817B022917
:1027700000D0704780B51321808900F016FB01005E
:10278000104803D05C3000F089F801BD883000F0BB
:1027900085F8FFF736FF01BD80B500E080B50A4837
:1027A00000F07CF801BD000094010020800E0020A4
:1027B000801004101027000030120410A00604102E
:1027C0001C0400004C0D04108812041080B5E6E7CC
:1027D000002200BF094202D0491E4254FCD170477A
:1027E00070B4103A03D378C9103A78C0FBD25307BB
:1027F00001D318C918C001D508C908C0D20704D32D
:102800000B880380891C801C002A01D50B7803707B
:1028100070BC70478B0701D18307E1D0124205D00D
:102820000B78491C0370401C521EF9D170474300BD
:10283000B0B50546C07A1224802829D8298C1729DA
:1028400026D31448821D914222D8298A17291FD3E2
:1028500081421DD8A87E00281AD002F03DFC002835
:1028600008D0E87E002813D0802811D8287F401E89
:102870000E280DD808483422294602F02FFC02F019
:1028800099FC002803D402F00DFF002400E0872407
:102890002046B0BDFA030000400F00200EB4C0B5C2
:1028A000020003A801900020009001AB0121044820
:1028B00078440C3002F060FF029906B0084700BF70
:1028C000D1B7010081B0314901E081B030490A68D7
:1028D00002430A60096808400090009801B0704700
:1028E0007CB503F0FBFE00F05DF800F081F80820F5
:1028F000FFF7E8FF0420FFF7E5FF00F0BFFA00BF95
:1029000046A000680090234C206A0125ED43012673
:10291000304008D120683043206020682840206083
:102920000120FFF7D2FFC020C0050090684603F0E9
:10293000E7FE68460021002206C0206A304008D128
:102940002068064326602068054025600120FFF7C7
:10295000BCFF114800681028FBD36846A02149003D
:10296000018000218170019100F0C7FA0B480C49E9
:10297000016004F085F8002801D000F04CF8002038
:1029800004F0EEF804F06CFAFCE700005000404858
:102990006000404840004048101800600C100020C3
:1029A0000000304880B588B0182102A8FFF710FF5A
:1029B00068460021002206C00320029080204002C9
:1029C00003901020059002A804F042FB002801D0DB
:1029D00000F021F80020009020200190002168469E
:1029E00004F05EFC002801D000F015F809B000BD2D
:1029F00080B586B018216846FFF7EAFE02200090F5
:102A0000C0020590684604F0E7FC002801D000F001
:102A100002F807B000BD72B6FEE70000000000003B
:102A200080B504F07BFD80BDF8B506000F000020E6
:102A30003880154C200000F0DEF9010023D1200081
:102A400000F0DDF90400114DF00705D52100280044
:102A500000F0D9F9010016D1280000F0D8F938802B
:102A600021002800243000F0CEF901000BD1210014
:102A70002800483000F0C7F9010004D121002800E7
:102A80006C3000F0C0F9F2BD200300209813041050
:102A900080B5022801D9122080BD04F063FD80BDFD
:102AA000FEB50C00089F0025158002990D803D8021
:102AB0000521014027D0394E300000F09CF901007B
:102AC00022D168460470364C200000F0A0F901992C
:102AD00008802000243000F09AF902990880300024
:102AE00000F08DF93D8069460978022906D1010080
:102AF00020006C3000F087F9010005D12AA20821DE
:102B0000002000F002F80020FEBD70B504000D00AA
:102B10001600234804E070B504000D00160021489B
:102B200000F075F933002A002100401C80B200F04B
:102B300001F870BDF3B581B017001D000024184ED8
:102B40006946088024206043301800F060F90028AE
:102B500004D0401C69460988884202D0641C072CB6
:102B6000F0D3072C0BD06846038924204443341942
:102B7000206A8188DA19914201DB002801D11220F4
:102B8000FEBD29003A008068C018FFF743FE206AA6
:102B90000178890700D547800020FEBDDC020020B7
:102BA000E00100200402002053544D3332574230DC
:102BB00080B504F031FD80BD80B504F0A3FD01BDFA
:102BC00080B504F0C5FD01BD80B504F0E9FD02BD8E
:102BD00080B504F00DFE02BD80B504F037FE02BDE5
:102BE00080B504F035FE02BD80B504F033FE02BDB1
:102BF00080B504F04BFE02BD80B504F079FE02BD45
:102C000080B504F091FE02BD80B504F0A9FE02BDBE
:102C100080B504F0E5FE02BD80B504F027FF02BDDB
:102C200080B504F053FF02BD80B504F06DFF02BD16
:102C300080B504F085FF02BD80B504F0BBFF02BD86
:102C400080B504F0B9FF01BD80B504F0D3FF01BD2C
:102C500080B505F00FF802BD1CB56C46247D0194CB
:102C60006C46247C009405F05BF813BD80B505F03C
:102C700007F901BD80B505F01FF901BD80B505F06C
:102C800037F901BD80B505F089F901BD80B505F0C2
:102C9000DDF901BD80B505F033FA01BD80B505F061
:102CA000BDFA02BD80B505F00DFB01BD80B505F094
:102CB00011FB02BD80B505F017FB02BD80B505F024
:102CC00031FB01BD80B505F0A3FB02BD80B505F069
:102CD000EBFB02BD18B587B010AC247806940FAC9E
:102CE000247805940EAC247804940DAC24780394D5
:102CF0000CAC247802940BAC247801940AAC2478B0
:102D0000009405F009FC08B010BD80B505F032FC58
:102D100001BD80B505F048FC01BD80B505F062FC41
:102D200001BD80B505F0A8FC01BD80B505F0C4FC6F
:102D300002BD80B505F0DCFC02BD80B505F006FDE6
:102D400001BD80B505F022FD01BD80B505F000FE96
:102D500001BD80B505F017FE01BD80B505F018FE78
:102D600001BD80B505F0DAFE02BD80B505F02CFF8F
:102D700002BD80B505F054FF01BD80B505F09EFF92
:102D800001BD80B505F0FEFF01BD80B506F00CF871
:102D900001BD80B506F030F801BD80B506F050F8F1
:102DA00001BD80B506F008F901BD80B506F01AF93D
:102DB00002BD80B506F01AF902BD1FB508AC247833
:102DC00002946C46247F01946C46247E009406F0A5
:102DD00015F904B010BD80B506F054F902BD80B5F8
:102DE00006F05EF902BD80B506F066F902BD80B559
:102DF00006F06AF902BD80B506F06BF902BD80B538
:102E000006F06BF902BD80B506F06BF902BD80B526
:102E100006F06BF902BD1CB5059C01946C46248A32
:102E2000009406F066F916BD1CB5059C01946C462D
:102E3000248A009406F06CF916BD80B506F071F98D
:102E400002BD1CB56C46248A009406F06EF916BDCE
:102E500080B506F077F902BDE0B501A9087001223E
:102E60000846114606F072F9002800D08CBD01A872
:102E7000007806F089F98CBD70477047704780B5BF
:102E8000002006F09DF980BD010005D40121C00697
:102E9000C00E8140664801607047C16803229143BB
:102EA00002220A43C260704709E0C0688007800FB1
:102EB000022801D1012070470020704700BFC1687F
:102EC00003229143C16070470161704700697047F8
:102ED000816AC04A0A4082627047816A4800C00F16
:102EE000704700697047816A802292050A438262B6
:102EF000704780687047C0687047F1B50127B648D1
:102F0000C06B3843B449C8630846806B3843886354
:102F10001720FFF7B9FF1420FFF7B6FF00984068AD
:102F2000002800D00120AD4C20700025000603D100
:102F300000988078002813D0A948C1683940FBD098
:102F400017210160C1683943C1604560C1683940DB
:102F5000FCD02000103000F01FFBE069206209E087
:102F6000C82040032062E061AD48A061AD48206107
:102F7000AD48606100984068002802D1A020C005DB
:102F80000DE000030A2106F06FF96060A74E3000E3
:102F900000F060FA01006068884202D3300000F05F
:102FA00059FA6060257300980088A14E3060A169CD
:102FB00000F073FB00208C216054002132000832A5
:102FC00003C285480068306100203200183203C215
:102FD00030216054974AA169606806F061F9A060E9
:102FE000207821008C31087420008C30856020000E
:102FF0008C30077321008C314D7321008C31CD81D1
:1030000020006130057045708570A565E5658A48CA
:10301000A064656500F025FA6268002312184B4130
:103020002000403000F066FB012000F0E1FAF1BD25
:1030300000E100E0F8B58CB0002069460870674FE9
:1030400038009930019028E0401C1CE004690573A9
:103050008168002900D088472000F7D16946942074
:10306000385800F0CBFB942178506846007801284E
:103070000DD1EFF3108172B601980078421C019BCC
:103080005B789A42E0D1019A107081F31088019820
:103090004078049940180199487001984078019946
:1030A00009780A1A02D28020400012180026002A4D
:1030B00029D0049294203C5803940294002502E005
:1030C000260024696D1C002C0FD0207B0028F7D02F
:1030D00000F0C7F902000B0003CC083C801A9941AC
:1030E0000029EDDB01DC0628EAD3280000250028B2
:1030F00002D03561039400E0029503989421785042
:1031000002980028A9E7387B002847D0A248006829
:10311000012420405BD03E73A048C178002904D12F
:103120008178002901D0867026E0387800281CD0EC
:1031300002A800F031FA0499B86E80B200F0ADFA3E
:10314000EFF3108572B630203C54039878610498F0
:10315000B861029838610598F86100F0B9FB85F311
:103160001088002000F044FA06E0EFF3108472B6F5
:1031700000F0AEFB84F31088012000F0F3FB380070
:10318000403000F09CF900F06CF97A6800231218C6
:103190004B413800403000F0ADFA18E03878002894
:1031A00015D000F05EF93A6F7B6FFA2464030025B6
:1031B000A4185D418D420AD801D3844207D2380059
:1031C000403000F07CF93800403000F077FA0DB064
:1031D000F0BD0000FFFFFFBF10180060980B00203B
:1031E00004100060F8B5040088480668EFF3108505
:1031F00072B600F0C3FA864F3B00803303CB083B26
:1032000003C4083C9A4AF9699868801B06F048F89C
:10321000020085F3108803CC0023801A9941F4BD85
:10322000C2F528008D5B0000ECEB6501FFEFFFFFAE
:10323000000C002026030000BD360410F8B586B04F
:10324000734D28008C30407B29008C31897B88426B
:103250002FD1287B00282CD1032400F002F904AAE6
:1032600003C202A800F045FC290061316122AA5C7A
:10327000002A02D14A78002A01D0012802D1897897
:10328000002918D0AA6DEB6D04A803C88C242E5D0C
:10329000002736184F41A86E00218019794100247B
:1032A000523061418B4227D301D8824224D3022479
:1032B00005E0002039E002281ED001281CD06D4B0B
:1032C0009A68002A30D0107B00282DD003CA083A13
:1032D0000090019104A803C806000F00A86E002109
:1032E00080197941002652307141009E019F8F4222
:1032F00004D801D3864201D2012016E0032C12D15A
:10330000106900280FD12800403082420BD10120E3
:10331000D873002000F0C0FA824801688F4A0A4042
:103320000260032001E00224200007B0F0BDF8B5E0
:103330000B0000D00123364E350058352B73110099
:1033400000D00121297200246C72EC720121A97253
:10335000EFF3108772B600F003F903C5083D02468B
:103360000B462800283003C8121A8B418748A34215
:1033700001D8824204D3AC7287F310880120F2BDD9
:10338000002000F0EFFA040087F31088012000F01D
:1033900083FA2000F2BD000010100060310C002004
:1033A00070B50320C0437B490A6802400A600A687E
:1033B0001040086020480168684A0A400260144CC6
:1033C00020005830002545724581EFF3108672B613
:1033D00000F047F8A26DE36D121A8B418C20205C3F
:1033E0000021121A8B4186F31088002B04DC01DBCC
:1033F000012A01D2012070BD002B04DC01DB0F2A61
:1034000001D2022070BD002070BD000014000060D9
:10341000980B0020EFF3108072B65D4909685D4A91
:10342000091D516011680323994302230B43136064
:1034300080F3108870470000281800607047AB4880
:103440000100613100226123C05C002800D00A70B5
:103450008A70704780B5064AA449C96905F020FF03
:1034600002BD80B500F08AF9A14803C804BD000080
:1034700035060000240C0020F8B504000D00FFF70D
:10348000F0FF06000F00290D28030A22002305F093
:1034900028FF8019794102000B00200000F02AF972
:1034A0000400012000F0F8F9E0B2F2BD10B500F020
:1034B00021F90400012000F0EFF9E0B210BDF8B5E9
:1034C000AC4C21680E00002300250A0001E0350005
:1034D0003669002E07D08642F9D137698E4201D174
:1034E0003A0000E02F616D462B7003732068904214
:1034F00015D06946100000F081F920606846007818
:1035000000280DD0EFF3108072B661794A1CA379C0
:103510009A4200D0491C617180F31088F1BD22608D
:10352000F1BD00003018006018B500200090009830
:1035300091480168094A0A400260AD490A78531C63
:103540004C78A34200D0521C0A700121C2690A4380
:10355000C261C0690140009111BD0000FFFFFFBFC3
:1035600010B5040000F00AF9614803C80A0084425B
:1035700000D2521C1100200010BD9E48816801221B
:103580000A438260002101607047000066FEFFFF71
:10359000101800600C00006070B50400964D280003
:1035A000FFF7A7FC06002800FFF7A3FC8642F6D130
:1035B000002EF4D0B74932124A43F3B24B431912EA
:1035C000511810314911E16026602800FFF793FC83
:1035D00006002800FFF78FFC8642F6D1002EF4D0BB
:1035E000B011B849484380300012A060666070BDD9
:1035F000F8B50700B44D687A7D214843C90005F04D
:103600001FFE461CF6B2394CB04AA1691B2005F0DA
:1036100047FE2870687800F02AF83D216054E87869
:10362000801900F024F8382160542879801900F0BE
:103630001EF839216054687900F019F83A21605475
:10364000A87900F014F83B216054002F06D0E878E8
:10365000801900F004F81B303C216054F1BD682152
:103660004143090ADB225043000C0818704700B59B
:1036700002001E4840690021002305F071FE03226C
:10368000002305F06DFE8022D204002312184B4166
:10369000D20E58010243100000BD80B58B4A05F0E0
:1036A000FFFDAB49884201DD080002E0102800DA86
:1036B00010200005000EA749086001BD10B5A64CFA
:1036C000207B002806D12078002801D0FFF755FF85
:1036D00001202073FFF7C5FE002264305141020033
:1036E0000B002000403000F005F810BD980B0020C2
:1036F000180C0020FEB500256C462570017B0029C2
:1037000001D00120FEBD0CC0083801210173194C05
:1037100026680196070001E035003669002E08D0C2
:103720000CCE083E03CF083F8B42F5D301D882422E
:10373000F2D338000661002D01D1019000E028612C
:103740000199814213D1694600F058F8206068461B
:10375000007800280BD0EFF3108072B661794A1C14
:10376000A3799A4200D0491C617180F310886846A1
:103770000078FEBD2C0C002030180060F8B584B035
:10378000EFF3108672B6744C206F616F02AA03C209
:103790007248FFF7A6FB030027008037BB60704D1F
:1037A00002A803C8009001912A00E169A06F181ACD
:1037B00005F076FD0021009A019B801859410CCF3D
:1037C000083F99420FD801D390420CD2009001914A
:1037D0002A00E1690020C04305F062FD0021009A43
:1037E000019B8018594103C786F3108805B0F0BDCE
:1037F000310C00200810006000100060F1B584B0AA
:103800000F0004460020387000E02469002C3ED0F0
:10381000207B0028F9D0EFF31080009072B6FFF7FC
:10382000ADFF4D4D03CC083C2A0080320CCA801AF3
:10383000994102AA03C202A803C800291DDB01DCCA
:1038400001281AD3214AAB6902A803C8190005F060
:1038500027FD0500202D00D82025C24E3000FFF79F
:1038600040FB40190830F0623000FFF73CFB306B42
:103870008021C9050143316301E0012038700098BF
:1038800080F310883878002801D0049800E02000E8
:1038900005B0F0BDF6BC080010B5B3490C00983473
:1038A000002808D0207800280BD108004030FFF70E
:1038B00005FF012004E008004030FFF700FE002073
:1038C000207010BD53070000C50000202603000033
:1038D00070B52248FFF705FB1F4C25008035A86016
:1038E0001F4E3200216AA36FC01A05F0D9FC226F67
:1038F000636F002180185941206761672078002894
:1039000013D1A868A16F401AA16888420DD2320075
:10391000216A0020C04305F0C3FC0200206F616FE4
:10392000002312184B4122676367206F616F03C544
:10393000083DA868A067226F0B46606800218018C8
:1039400059412200283203C2E069206270BD0000A4
:10395000FF0F000008180060980B0020001800609E
:1039600035060000F0B585B000216A4611707E4C26
:1039700025006035A978002900D1B6E0EFF3108169
:10398000049172B6012801D1FFF7F8FE200028301B
:10399000C0C8A26DE36DC820800200218019794162
:1039A0008B4210D301D882420DD3B922520000239A
:1039B00092197B412800203003C88B4201D802D3E2
:1039C000824200D38EE02800203003C800220A3053
:1039D0005141A26DE36D00264C3AB34199427DD826
:1039E00001D390427AD23C20265C6020205C297969
:1039F000012905D1002801D0382006E0392004E053
:103A0000002801D03A2000E03B20205C0190A26D0C
:103A10002800203003C8101A0390544AA169039863
:103A200005F03EFC0290A86AC027FF05A96871183E
:103A3000C831039A914202991AD24D4A1278891AD2
:103A4000019A8E1A8019474948623800FFF72CFA0C
:103A50003800FFF733FA4348806A8021C9050143E3
:103A600040488162FFF73FFA01984149097811E027
:103A70003D22A25C891A019A8E1A81193800FFF73B
:103A800023FA3848FFF724FA3800FFF706FA0198BE
:103A90003D21615C4018A96A029A891822008C3283
:103AA00051603218411D8A420CD23800FFF7FCF9F0
:103AB0003800FFF703FA2B48FFF70AFA012069469E
:103AC000087005E02B4AE16905F0EAFB8C2160549F
:103AD0000020A87001206870E87003E0AE7001203B
:103AE00069460870049880F310886846007805B02D
:103AF000F0BD38B504001B4D2800FFF7EEF9002893
:103B000003D0686A2060032032BDC025ED0528007F
:103B1000FFF7CBF9002805D02800FFF7D7F9206080
:103B2000012032BDE8688007800F032805D12800F6
:103B3000FFF7CCF92060022032BD002032BD80B5F5
:103B4000FFF7F2FCFEF712F901BD81B000200090F2
:103B500000980948016801220A4302600068009049
:103B600001B0704700180060980B00202603000089
:103B7000C5000020350600007400006001680022C6
:103B800002814281828182730B78FF2B05D0FE2B4C
:103B900009D103895B1C03810AE04268511A091F9D
:103BA000818100207047002B0DD143895B1C43812C
:103BB0004A88D21C032313435B1CC9184A1D43685F
:103BC0009A42E1D3EDE703207047F3B5079C0899CB
:103BD000250005D06D466C80FE242C706C4600E0FC
:103BE000446885684668AE4217D22678FF2E14D006
:103BF000067B002E04D0002606732678002E0ED1F8
:103C000046686488E41C032727437F1CF41944603A
:103C1000AC4202D22678FF2EEFD10420F6BDFE2E54
:103C200001D00320F6BD6E463679FF2E04D06678AB
:103C30006F463F79BE42E3D14068001D1060608846
:103C40001880002901D0607808700020F6BD7FB58B
:103C500015001C00099E002232800B9A01926A46D0
:103C6000128D009202AB03AAFFF7AFFF010013D140
:103C7000694609898D4201D306200DE0089A481B48
:103C8000904200DA0200200003994919FEF7C2FDB4
:103C9000684600893080002004B070BDFEB5BB4D81
:103CA0000D40491B6B4619700024070016000AE0FE
:103CB0000422311901A8FEF7ADFD019A391900203F
:103CC00005F068FB241DAC42F2DB0020C0430190EC
:103CD00068460278711901A8FEF79CFD019A7919CE
:103CE000002005F057FBF7BD70B544688668B44204
:103CF00002D22678FF2E01D1042070BD007B00285F
:103D000001D1FE2E01D0052070BD6588A94201D3E6
:103D1000062070BD10001A00231D591805F0B0FBD5
:103D2000002801D00020C04370BD7CB5079C002551
:103D3000069E3580250005D06D466C80FE242C70D3
:103D40006C4600E0446845688668B54202D2267831
:103D5000FF2E01D1042076BD007B002801D1FE2E6C
:103D600001D0052076BD6088814201D3062076BD52
:103D7000401A984200DA030010001A002B1D59184F
:103D8000FEF748FD608806990880002076BDF8B5EA
:103D900084B007000E001500B44C254203D105F095
:103DA0006FFB002820D001A80C21FEF711FDCD48A3
:103DB0003818C00A0290681E0443641C6003000E99
:103DC0000390694601A805F06BFB00240AE060102F
:103DD000800F00190321884332583919002005F05B
:103DE000D9FA241DAC42F2D305B0F0BD0121017017
:103DF0000021418081807047F1B588B00C0015002A
:103E00001E0000200090FF2229002000FEF7E2FCA7
:103E1000FE206946087507946846458206960E9D01
:103E2000009C05AE19E06846008A6988401A401E69
:103E300003240443641CA4B268886946098A0A1AE8
:103E4000521E03211143491C89B28F4242DB0120DB
:103E50000022B94228706A8040D06846408A071B19
:103E60003F1FBFB22878002826D0701C0390A88876
:103E7000029004A8019000970798001D03190022E2
:103E8000FF210898FFF7E3FE6946098AA98001002F
:103E90000ED16846008A7080042205A9079800198F
:103EA000FEF7B8FC7088C01C032101436418C1E709
:103EB00006990C8009B0F0BDA888019004A8009074
:103EC0003B000798021969880898FFF72EFF010048
:103ED000A9D0EFE700212970C01968806846408AA0
:103EE000069908800020E5E7F8B5AE4CA544AE4938
:103EF000020014235A438F187989002901D1002028
:103F000040E004A900F013F9059D02A8FFF76EFF39
:103F10008026360102A8009001AB320008A904A84F
:103F2000FFF76AFF0400042C06D0002C2AD1684653
:103F30008088B042EED103E068468088002808D02F
:103F40006846828808A92800FFF721FFAD19002CD8
:103F5000E0D008A80C21FEF73BFC6248281840037B
:103F6000000E09900698401E711E0143491C481B13
:103F70004003000E0A90694608A805F091FA38003F
:103F8000FFF7FCFD89498D44F0BD0000FCFF0000F7
:103F9000F8B5844CA54400216A46917100220023A3
:103FA000814906000BE0B0680C245C43005D1424DA
:103FB000604308184089002800D001225B1C30793A
:103FC0008342F0DB002A25D080221201FF2108A8BD
:103FD00005F0AEFA0025802424010DE002A8FFF7C9
:103FE00005FF02A8009001ABE21B92B208A8C1191C
:103FF00004A8FFF701FF6D1C307985420CDAB06828
:104000000C226A43011D8F5804A9805C00F08FF8D0
:104010000028E3D000201BE0220008A93068FFF749
:10402000B6FE614C370069468D7900260CE0B86811
:104030000C217143405C142148432018FFF79EFD7A
:10404000010000D00500761C38798642EFDB28009D
:1040500056498D44F0BD96498A79824201D10220A9
:104060007047897C8142FAD000207047FF0700002A
:10407000F8B54C4CA54404000E0080221201FF212B
:1040800008A805F055FA002568460471802424012B
:104090001CE00C276F43B068C05D6A4612799042FD
:1040A00013D004A900F043F8B068C019476802A80B
:1040B000FFF79CFE02A8009001AB9B1CE21B92B292
:1040C00008A8C11904A8FFF797FE6D1C3079854236
:1040D000DFDB220008A93068FFF759FE00203349D2
:1040E0008D44F0BD0000FCEF10B5002470480C2199
:1040F000614341188A792C4814235343C01803683C
:10410000002B10D1012A0EDC0A6802608B88D218BD
:10411000426009890182FFF731FD010004D1641C6E
:10412000012CE3DD01E0012010BD002010BD10B521
:104130000200022A01DB012010BD1B4B1424624344
:104140009A1813684B6052688A6001220A730870DB
:104150000020487310BD7FB56A4C0578142675435E
:104160006419A47B002C01D00A2008E00394029477
:10417000099C01946C46248C0094FFF768FD04B000
:1041800070BD7CB55F4C0578142675436419A47B1B
:10419000002C01D00A2076BD0194069C0094FFF704
:1041A000C4FD76BDE0F7FFFFA80F00202408000043
:1041B000FAB583B017000325791E03260E43761C3B
:1041C0000CE00C78FF2C18D0FE2C01D0002C6BD109
:1041D0004A88D21C2A43521C89184160826841686F
:1041E0004B1D9342EDD38B4900781422504308189D
:1041F0004089002856D1022057E00290501A864B81
:10420000984201D2521A00E01A46824C92B2B0B2E1
:104210006B461B8DC018001D82423BDB6846007B4D
:10422000019100210091FE216A4611706946487093
:104230006846008D30184880009A0199002005F0EA
:10424000A9F8049AB1B20198001DFFF727FD0B9A57
:104250006846018D0198B6B28019001DFFF71EFD5A
:10426000200008300299097814225143401801882F
:10427000491C018002980078142148432018818944
:104280006A46128DBA18521E1543491B491F818177
:1042900000200AE002980078142148432018408941
:1042A0000028A8D00B2000E0032005B0F0BD0000DE
:1042B0002818041010B504006168A06881421ED25D
:1042C0000878FF281BD0FE2817D1FF22D2430020F8
:1042D00005F060F84F4801000831227814235A4352
:1042E00089180A88521E0A802178142251434018E6
:1042F0004189491C4181002010BD052010BD0420CA
:1043000010BD0000A80F002078B585B0040000267D
:1043100000966946FFF79FFE3E4D02281ED11420ED
:1043200044432C19256802A80C21FEF751FA3B489A
:1043300028184003000E03906068401E384901436E
:10434000491C481B4003000E049001A902A805F077
:10435000A7F82000FFF712FC00201AE0012817D16F
:1043600000992000FFF784FE04000FD10AE00098B6
:1043700080680C217143405C142148432818FFF7E2
:10438000FDFB761C009800798642F0DB200000E0FF
:10439000012006B070BD1CB50400002000906946E5
:1043A0002000FFF758FE022803D12000FFF79CFDF4
:1043B00016BD012803D10098FFF7EAFD16BD0120C4
:1043C00016BD38B5174800214356DAB2114C1425F2
:1043D000554364196589002D03D0A589248AA54217
:1043E00007D3521CD2B2022A00D100229A42EDD148
:1043F00006E0531C5CB2022C00D10023190001E03E
:104400000022D2430170100602D4D0B2FFF7C3FFDE
:10441000002032BDA80F0020FFFF00000000FCEFCD
:10442000FF07000079100020F0B581B025490C6825
:104430000025657405F086F8234E3068C06805F0E5
:10444000BFFA002801D0042723E03068C06805F0D7
:10445000A1FA002801D001271BE03068C06805F0F0
:104460009DFA002801D0022713E03068C06805F0EB
:10447000AFFA052700280CD13068C06805F0ACFA07
:10448000002806D13068C06805F074FA00282F466D
:104490000BD00120B8400D4909680A6802430A6040
:1044A000002005F001FDFDF771FC607C012807D1BB
:1044B000217B0F200840A268090905F005FD6574FD
:1044C00001B0F0BD601000206410002050100020EA
:1044D00080B505F0FBFC80BDBCB5584CA1690091CE
:1044E0000840A06135E0521CD300E51803000B40E2
:1044F0002F681F40F7D02A681040014068680840C4
:1045000002D10020C04368606868084000F09AF853
:1045100001006A680120884082436A606162EFF3AB
:10452000108172B6626A01209040C2432069104037
:1045300020610220C300E318083B1D6815401D6080
:10454000401EF7D181F310883D48616A89004058C8
:1045500080472369E2696069256AA16903400B40CD
:1045600003D0154001D10022BEE70020C0436062A5
:10457000206A104014D102F079FCEFF3108572B676
:104580002169E06962690A40A169114004D1216A88
:10459000014001D102F06BFC85F3108805F0ACFC02
:1045A0000098A061B3BD38B51400EFF3108572B662
:1045B00000F048F8800022490C5085F3108831BD86
:1045C00010B5EFF3108272B61C4B1C6904431C61DA
:1045D000C90059180B681843086082F3108810BD91
:1045E000EFF3108172B6154AD3691843D06181F395
:1045F00010887047F8B5114D696A00910022D243C6
:10460000914201D1002701E001278F402E6A2862E4
:10461000040003E02100380005F06FFCE869204049
:10462000F8D000986862EFF3108072B6E969A14390
:10463000E96180F310882E62F1BD00008003002044
:10464000CC0C00200021020C120401D11021000426
:10465000020E120601D108310002020F120701D129
:10466000091D00011F22511A02A2000F105C081A36
:10467000C0B2704704030202010101010000000002
:104680000000000010B5FFF72FFD424C211D002057
:10469000FFF74DFD210014310120FFF748FD201DDB
:1046A000206010BD3EB53B4D022802D12C001434D1
:1046B00000E02C1D2C6001936B461B8B00930B00BC
:1046C00001002000FFF774FD002805D0022801D169
:1046D000002000E00120C0433EBDF8B584B00E00CC
:1046E00019002C4C022E03D125001435012301E0C2
:1046F000251D00230700256028466D466A81039129
:104700000A9D022F08D102A900912B00039A694645
:104710004989FFF736FD0FE0002F03D10100180093
:10472000FFF705FD02A801900095039B68464289AA
:1047300031002068FFF70FFD010001D1002005E0E6
:10474000042801D1022000E00120C04305B0F0BDE3
:1047500010B5140023000A0001000E480068FFF79E
:10476000C3FA002804D001D5200010BD0220C043A8
:1047700010BD80B5022807D1064908681431884267
:1047800007D0FFF797FD01BD032802D10020FFF7F6
:10479000BBFD01BDD00F00200120FFE719490860D3
:1047A000002070470120C04316490968012900D143
:1047B000002070470020EFF3108172B6114A136891
:1047C000012B02D00120C04301E00323136081F3D9
:1047D000108870470020EFF3108172B6094A136801
:1047E000032B02D00120C04301E00123136081F3B9
:1047F0001088704780B50A00034905F0C9FB02BD67
:10480000000000007C03002040180410F1B50124D2
:104810004E4D4F4F00260078012804D028D303289E
:104820001ED019D3F1BD009840684078012806D108
:10483000002000F001FB2800FEF730F8BC70009863
:1048400040684078002813D100F0FAFA280024309C
:10485000FEF724F8BE70F1BD3C702800483002E03D
:104860003E7028007830FEF719F83AA0FEF716F8E7
:10487000F1BD80B536490278002A02D0012A03D062
:1048800001BD4088C88001BD3348C88000F018F8D9
:1048900001BD10B52E4C3048E08005F024FE2F4AB3
:1048A000002180200001FFF77EFE2D4A002180209C
:1048B000C000FFF778FE0020207000F001F810BD66
:1048C00080B5002000F0BCFA012021494870002288
:1048D0008A70C8700A7101BD3EB5224800906946D1
:1048E00000220A711A4C2279551EAD41ED0F0122AA
:1048F00002704570022008711B48217801290BD1F4
:10490000FDF7CCFFE2881448824203D069460120BB
:1049100005F015FE257137BD4030FDF7BFFFF9E703
:1049200010B50B48C488012202212000FEF753FA7B
:10493000020021000D48002A02D0FDF7AFFF10BD94
:104940003C30FDF7ABFFFDF7F9F910BD84160410FC
:1049500030100020200A0000FFFF00002149041051
:10496000D94804109C0A00202C170410B417041016
:1049700002490968C88100207047C04660100020C5
:10498000010042221201D21E004207D002D4521E60
:104990000018FCD5C10A40051205891870470000AF
:1049A0000100EED54042F446FFF7EBFF0122D207AB
:1049B00011436047F0B50E005E400125ED072E4023
:1049C000B446AE0ADF184C18F44208D2F7420ED2B1
:1049D000640D01D07F0D12D100206146F0BD05D1DC
:1049E000F74201D87F0D05D10020C143F0BDFBD1B6
:1049F000640DF9D00020C143490549088FE0E4194E
:104A0000C902DB0229432B43DB0A460DC0023143B6
:104A10008E4630B487B295B27D432E0CADB2140CE5
:104A20007C43A419260C240425439CB27C43A4197E
:104A3000190C7943270CC919A4B20F043C43090C83
:104A4000000C97B247432E0CBE193543ADB2170C7C
:104A50004743360CBF19A6B2BF193E043543240C98
:104A60003E0C36199FB24743BF19BCB23E0C8919A0
:104A70001F0C47437F183E043443390C704680B204
:104A800097B247432E0CBE193543ADB2170C4743BE
:104A9000360CBF19A6B2BF193E043543240C3E0C98
:104AA00036199FB24743BF19BCB23E0C89191F0C7F
:104AB00047437F183E043443390C77463F0C90B28D
:104AC00078432E0C80190604ADB22E43050CA0B21B
:104AD0002D18120C7A435019020C80B2240CA41821
:104AE0009AB27A43121914042043120C89181B0C31
:104AF0007B43C91830BCEF0A394203D1B619404193
:104B00004941641E6F12BF0DE41B0BDBFF19BC4251
:104B100011DA240500274208AE417841614166461A
:104B20003143F0BD641C05D1401C6141CF0201D36B
:104B30004908F4E750E75DE730B4012464054D000F
:104B4000EC420BD85D00EC4208D80C001C4364001A
:104B50000443144304D28B4200D1824230BC7047DC
:104B6000FCD09942FAD19042F8E7010020000900F8
:104B7000010026000F0001002900050001002F00A0
:104B80001000010049001000F4464A1805D200F058
:104B90000FF801D580174008604700F009F801219F
:104BA000C907884200D90800404260474A1812D21B
:104BB000400DC90208430121C9070843520D402195
:104BC0000901521A521C06D452421F3201D4D0405D
:104BD0007047C017704700207047F0B40125ED07FB
:104BE0000F005F404FD48B4200D1824205D98446EA
:104BF000100062468C4619006346DF184C18640D9D
:104C00007F0D3AD0661C760537D0E61B352E34DC96
:104C1000DB022B43DB0A0C0DC9022943C912202EEB
:104C20000DDB1700203E06D01F00F741F3405F4028
:104C30000026012A7741C01871410DD217E01700F4
:104C4000F741F2405740F3415A40B340F3405A40D5
:104C50000026801859410AD3A21C52050FD0C20762
:104C6000012F724117004008CB0718434908641C04
:104C700024054208AF4170416141F0BC7047641C9B
:104C800021050020F9E76B4010E06B40ABE7F742ED
:104C9000F3D1E943F1E72442EFD100200021ECE712
:104CA000F0B40125ED070F005F40EED40C00871A29
:104CB0009C4105D2C01BA141D219634169406B40A0
:104CC000AE0ADF184C18F442E1D2640D7F0DE2D039
:104CD000E61B362ED1DCDB022B43DB0AA4460C0D8F
:104CE000C9022943C90A012E28DC04D1D60752087B
:104CF000DF073A435B08EF0A76429041994114D0AE
:104D000039423BD1B61940414941761C394204D160
:104D1000761C001849413942FAD0B9436746B74278
:104D200008D9A41B24052143A7E70042EAD1364253
:104D3000E8D1A2E7E40AE10700209EE7202E0BDD80
:104D4000203E1F00F340F7415F40012A00225741F7
:104D50007E42984191410BE01700F741F2405740E5
:104D6000F3415A40B340F3405A407E42904199414A
:104D70000A0303D2641EB619404149410027641E4C
:104D800024054208AE4178416141F0BC7047830080
:104D90008500070007008300850005000700030069
:104DA00003000F000500820081000500021D13684A
:104DB0008B431360026811430160704781B08C49D6
:104DC0000A6802430A60096808400090009801B030
:104DD000704730B585B004000820FFF7EFFF824828
:104DE0006100451829880091012101910291022159
:104DF0000391A10044186946A06805F0D1FB7B48E7
:104E00000068C00610D5A0689021C905884203D16A
:104E100000997848FFF7CAFFA0687749884203D114
:104E200000998248FFF7C2FF01222988A06805F097
:104E300065FC002005B030BD80B56B4B002202E060
:104E400080B5694B01224100595A800018188068CA
:104E500005F054FC002002BD70B586B006000C00C1
:104E6000300001D1042000E00820FFF7A7FF200058
:104E70006F4D7100695A0191012103910221049142
:104E8000B1006C18010006D10020029001A9E06871
:104E900005F086FB1FE001281DD1802040006549F8
:104EA0000A6802430A600968084000900098802060
:104EB0004002029001A9E06805F072FB280008306A
:104EC0008519002203210020285605F054FC0020FB
:104ED000285605F055FC45480068C00610D5E06826
:104EE0009021C905884203D101994248FFF75EFF2E
:104EF000E0684149884203D101994C48FFF756FFC9
:104F0000002006B070BD80B5494A4100515A80006A
:104F10001018C06805F0ECFB401E8041C00F02BDB8
:104F200080B505F0F1FB01BDF0B587B00F0000269C
:104F30000024002F02D10124E44350E03E49942292
:104F40004243891800913D49800008580099086043
:104F50000420FFF733FF0820FFF730FF8020C00058
:104F600037490A6802430A600968084001900198BD
:104F7000022002900390059001250495069002A955
:104F80009020C00505F00CFB18480068C00603D54A
:104F900002991848FFF70AFF0295069602A91648DB
:104FA00005F0FEFA0325ED433900009805F00EFCEC
:104FB000002800D02C000021009805F03DFC0028BE
:104FC00000D02C000021009805F04FFC002800D0F4
:104FD0002C00009805F012FC002800D02C002000C6
:104FE00007B0F0BD00000000B403002000005048EE
:104FF000500040482000504800001048F8B50024F8
:105000000D4E0091150094270BE0FA239B0001221E
:10501000009801190B4800787843301805F0AEFC71
:10502000641CAC42F1D32800F2BD000028005048B7
:10503000C803002054004048380C0020E003002042
:10504000580040487B100020C3788278417800786F
:105050001B021A430902120408431043704780B52B
:1050600005F0F4FE80BDF0B593B01F4615460E4620
:1050700012901C9C08461146224605F0EBFE0028C3
:1050800024D122980D901FAB0DCB11901E980F903C
:105090001D980E901B980C901A9919981097189FAC
:1050A000089209930D9A0A920097019002910C9828
:1050B000039004940E9805900F980690119807900D
:1050C000129831462A46109B05F0D7FE13B0F0BD6A
:1050D00080B505F0E4FE80BD0020704780B505F086
:1050E000E5FE01BD80B50B0011001A00FDF772FB53
:1050F00001BD80B504F0C4F902BD7FB504000D0008
:105100001600684605F038FF68460178217041783E
:105110002970807830707FBD80B5FFF76BFB02BDD2
:1051200080B504F035FF02BD80B505F069FF01BD13
:1051300080B505F0A7FF02BD80B505F0C5FF02BD33
:1051400080B506F0F5F802BD80B506F049F901BD5D
:1051500080B506F04DF901BD80B506F05BF902BDE2
:1051600080B506F059F902BD80B506F057F901BDCA
:1051700080B501F027FC02BD80B5FEF772F904BDD1
:1051800080B5FEF793F902BD80B5FEF798F901BD31
:1051900080B5FEF7CCF8C0B202BD80B5FEF700F9CD
:1051A000C0B202BD80B5FEF71DF804BD80B5FEF7A4
:1051B00031F901BDF0B59BB0EC4C7F20C643FDF743
:1051C0000FFDEB4D012802D0E87A002810D02746C9
:1051D00034467834FDF704FDE97A614378433818A2
:1051E0004418FDF7FDFCE3494843E97A414364185C
:1051F0006234FDF7F5FC01280ED13046783029895C
:10520000414330465C30AA7A4243501831466031FF
:105210002A7B4A43801800E000200490E88914901B
:1052200006F038F9012801D006F036F9FDF7D4FC74
:105230000128159409D134465034FDF7D1FC604360
:10524000E97A414308390A9101E000200A90CA4CEA
:1052500006F022F90128204616D006F01BF9012895
:10526000204611D02920285C002820460CD125207A
:10527000285C0028204607D12620285C002801D081
:10528000204601E030463C301390204620301690F6
:1052900006F002F9012815D006F0FCF8012811D01B
:1052A0002920285C00280DD12520285C002809D160
:1052B0002620285C002802D02046203001E030461D
:1052C0005430169006F0E8F81190A87E0190E87F1F
:1052D0001090FDF785FC1290E87F029006F0DEF852
:1052E0000990E87F0390FDF7A7FC002706F0D8F8A7
:1052F000012838461A96199760D1E87F1127874010
:1053000003242743022181404E1E264306F0C4F8A1
:10531000012817D117960F94687F0A2800D30A2016
:105320001A9C24344443C03C002606F0BBF80128F4
:10533000189620D1FDF754FC012805D01A9B184679
:105340006C3004E0002031E01A9B18466030D349ED
:105350006431AA7F4A43101829461D467835C97F13
:105360002A468A408618FDF73BFC012803D1C9482C
:10537000C07A45437619A519FFF7AEFE064606F03A
:1053800091F804463440FDF72BFC20400128189882
:10539000179E09D1BF49C87E401E0F9A1043897FCE
:1053A000E0224A43D143081A2818BA4DB919BA4A1B
:1053B000511A08181A301A9EB84C199F0890FDF718
:1053C0000FFC0128394609D106F06EF8012839464C
:1053D00004D12220285C31462C3141430F9106F044
:1053E00061F80128384620D120465830A97E414333
:1053F00030466030EA7A424354180025FFF76CFECD
:10540000012810D1FDF7ECFB01280CD1304670309B
:10541000A04B197F414330467430DA7E4243501826
:10542000E4389D7E454360199A4D0E9006F03EF893
:105430000128384636D1FDF7D3FB012803D02C468E
:105440003546743505E0304678302C46ED7A4543D4
:105450000C3D2327E05D00260028304605D0FDF7EF
:10546000BFFBE05D40420321884340192425615D74
:105470001A9A7C324A43871806F012F801280DD197
:1054800006F00AF8012809D106F00CF8012805D128
:105490008048465D002E01D01A9E6836B8197D4DB1
:1054A0001A9E199F0D90FDF79BFB0128394609D1E3
:1054B00005F0FEFF0128394604D130465C30E97A18
:1054C000414314390C91FDF78BFB0128394608D173
:1054D00005F0F0FF0128394603D130466430E97AFF
:1054E00041430B9126201890285C069025201790A8
:1054F000285C05903E462927E85D079005F0CCFF23
:10550000044605F0CFFFE04234461AD01898285CD4
:105510002821695C1A9E344678344C43F43C444359
:1055200005F0BEFF00280AD01798295C2720285CC8
:105530006C364643594880190C30484300E000203F
:105540000419E85D002819D0FDF74AFB0028049BE8
:1055500015D02A20285C514970314143E85D1A9AE0
:10556000504340183838199009E0C0467CFBFFFFD3
:10557000400F00206CFDFFFFDCFEFFFF049B159831
:1055800018181A9B19465C31149A514340180A990D
:1055900040181399401816994018194678310A4650
:1055A000109EB2408018119A012A07D13B4A683AEE
:1055B000019E72431018132212018018099F069A47
:1055C000059EB218129E012E02D1029EB1404018D3
:1055D000199E07995118012F05D11A463032039FA1
:1055E000BA4010187038089A80180F9A80180E9ACE
:1055F00080180D9A80180C9A80180B9A8018002930
:1056000004D01A4648324A4310180C38001984193D
:105610002820285C199018982F5C2A20285C189064
:105620002720285C169017982E5CFDF7D9FA0128E0
:1056300005D12B20285C1A9938314143641805F0B4
:105640003BFF012801D1164824181998189A169979
:105650004E43B1184743B818C84208D01A9B1A469F
:1056600058324A434433434398180419183C094DAF
:10567000686820180321C943EA8DD21C0A40AB8D0B
:10568000DB1C0B409A182B8EDB1C0B40D118401AE8
:105690001BB0F0BD400F00206CFDFFFFDCFEFFFFE4
:1056A00014F6FFFFF0B595B00120810414912E4847
:1056B0000160BFF34F8FBFF36F8F04F039F9FFF72D
:1056C0006CFD00201290C04304F020F905F0E2FECA
:1056D0001390FDF781FA119005F0DEFE109005F0B1
:1056E000DDFE0F90FDF7A8FA05F0DAFE0E9005F04A
:1056F000DBFE0D9005F0D6FE0C90FFF7EDFC0B9055
:1057000005F0D4FE044605F0D3FE0546FDF768FA21
:10571000064605F0CFFE074605F0CEFEC0B2F9B250
:1057200008910990F0B2E9B2E2B20B9BDBB20C9C9B
:10573000E4B20D9DEDB20E9EF6B2129F0097019657
:105740000295039404930592069107901398C0B2B2
:105750001199C9B20F9AD3B2109A05F0AFFE03485F
:105760001499016015B0F0BD80E100E000E100E0B7
:105770000100202008437047FDB5B2B03A9804916B
:1057800002A93B22885400200D9024A8401C2F9091
:105790000DE00498329A90470490002801D100F05F
:1057A000B7FE0D98401C0D903398401C33903398F1
:1057B0000178002910D02529EBD10020079008900E
:1057C00009900A900B900C90002102240120149063
:1057D00008201290339D05E00D9800F09BFE080014
:1057E000149901436D1C28782028F8D023280BD069
:1057F0002B2804D02D2804D0302808D00AE02143DB
:10580000F0E708000421ECE708000821E9E70800B8
:105810001021E6E72A280FD1349802681068121D7B
:10582000349B1A600F90002804D542420F92080062
:10583000042101436D1C12E000200F90644A09E02E
:105840000F9B934205DA9E00F3185B00181830385E
:105850000F906D1C28780300303B0A2BF0D328787A
:105860002E2803D00020C0430E9027E06D1C28781E
:105870002A2808D1349800680268001D349B1860FB
:105880000E926D1C1AE02D2802D12D226D1C00E015
:10589000002200200E900CE0002A09D10E9B4C4EF5
:1058A000B34205DA9E00F3185B00181830380E90EA
:1058B0006D1C28780300303B0A2BEDD302A801872A
:1058C0002E78310040487844FF30401E05F06AFED3
:1058D000002801D06D1C00E0002602A83A214654A1
:1058E000405C682804D1287868280BD1622005E044
:1058F0006C2807D128786C2804D1712002A93A229B
:1059000088546D1C15A80690287869460870681C94
:105910003390684602781000253833D01C3800D107
:10592000CCE1001F022800D8C8E1133801D100F0F3
:1059300019FD093800D1C1E1801E01D100F0AFFD91
:10594000401E01D100F05CFD401E022800D8B5E1E8
:10595000001F01D100F054FD401F00D108E1401E9E
:1059600001D100F0FFFC401E00D1F0E0C01E0ED0BF
:10597000801E01D100F0F6FCC01E01D100F0F2FC47
:1059800000F098FD14980790252015A97CE1349823
:1059900000680468001D349908600594002C00D04C
:1059A000C1E002A83B21405C002800D1B5E0002402
:1059B000E44306487844143005F0FEFD201A01D077
:1059C00000F0A6FD00F083FDD0BEFFFF04BFFFFF87
:1059D000CBCCCC0C01236A4602A9280000F054FE6F
:1059E000002801D000F094FD641EF3D13295079D8C
:1059F00015AC002D0FD0329E21780498B04704904A
:105A0000002801D100F084FD0D98401C0D90641C0D
:105A10006D1EF1D132963020694608700A9C002C28
:105A20000DDD329D01236A4602A9280000F02CFEFC
:105A3000002801D000F06CFD641EF3D13295059C66
:105A4000089D002D0FD0329E21780498B047049015
:105A5000002801D100F05CFD0D98401C0D90641CE5
:105A60006D1EF1D13296302769460F700B9C002CC9
:105A70000DDD329D01236A4602A9280000F004FED4
:105A8000002801D000F044FD641EF3D13295059842
:105A900008994418099D002D0FD0329E2178049852
:105AA000B0470490002801D100F032FD0D98401C51
:105AB0000D90641C6D1EF1D13296684607700C9CE7
:105AC000002C0DDD329D01236A4602A9280000F05A
:105AD000DBFD002801D000F01BFD641EF3D13295E0
